{
	"contracts/stake.sol": {
		"MtkContracts": {
			"abi": [
				{
					"inputs": [
						{
							"internalType": "contract IERC20",
							"name": "_mtkToken",
							"type": "address"
						}
					],
					"stateMutability": "nonpayable",
					"type": "constructor"
				},
				{
					"anonymous": false,
					"inputs": [
						{
							"indexed": true,
							"internalType": "address",
							"name": "user",
							"type": "address"
						},
						{
							"indexed": false,
							"internalType": "uint256",
							"name": "amount",
							"type": "uint256"
						},
						{
							"indexed": false,
							"internalType": "enum MtkContracts.StakingPeriod",
							"name": "period",
							"type": "uint8"
						},
						{
							"indexed": false,
							"internalType": "uint256",
							"name": "timestamp",
							"type": "uint256"
						},
						{
							"indexed": false,
							"internalType": "uint256",
							"name": "stakeIndex",
							"type": "uint256"
						}
					],
					"name": "Staked",
					"type": "event"
				},
				{
					"anonymous": false,
					"inputs": [
						{
							"indexed": true,
							"internalType": "address",
							"name": "user",
							"type": "address"
						},
						{
							"indexed": false,
							"internalType": "uint256",
							"name": "totalAmount",
							"type": "uint256"
						},
						{
							"indexed": false,
							"internalType": "uint256",
							"name": "stakeIndex",
							"type": "uint256"
						}
					],
					"name": "Withdrawn",
					"type": "event"
				},
				{
					"inputs": [
						{
							"internalType": "enum MtkContracts.StakingPeriod",
							"name": "",
							"type": "uint8"
						}
					],
					"name": "apy",
					"outputs": [
						{
							"internalType": "uint256",
							"name": "",
							"type": "uint256"
						}
					],
					"stateMutability": "view",
					"type": "function"
				},
				{
					"inputs": [
						{
							"internalType": "address",
							"name": "user",
							"type": "address"
						}
					],
					"name": "getUserActiveStakes",
					"outputs": [
						{
							"components": [
								{
									"internalType": "uint256",
									"name": "amount",
									"type": "uint256"
								},
								{
									"internalType": "uint256",
									"name": "startTime",
									"type": "uint256"
								},
								{
									"internalType": "uint256",
									"name": "endTime",
									"type": "uint256"
								},
								{
									"internalType": "uint256",
									"name": "rewardRate",
									"type": "uint256"
								},
								{
									"internalType": "bool",
									"name": "isActive",
									"type": "bool"
								},
								{
									"internalType": "uint256",
									"name": "stakeIndex",
									"type": "uint256"
								}
							],
							"internalType": "struct MtkContracts.Stake[]",
							"name": "",
							"type": "tuple[]"
						}
					],
					"stateMutability": "view",
					"type": "function"
				},
				{
					"inputs": [
						{
							"internalType": "uint256",
							"name": "amount",
							"type": "uint256"
						},
						{
							"internalType": "enum MtkContracts.StakingPeriod",
							"name": "period",
							"type": "uint8"
						}
					],
					"name": "stake",
					"outputs": [],
					"stateMutability": "nonpayable",
					"type": "function"
				},
				{
					"inputs": [
						{
							"internalType": "uint256",
							"name": "",
							"type": "uint256"
						}
					],
					"name": "stakeOwnerMapping",
					"outputs": [
						{
							"internalType": "address",
							"name": "",
							"type": "address"
						}
					],
					"stateMutability": "view",
					"type": "function"
				},
				{
					"inputs": [],
					"name": "stakingToken",
					"outputs": [
						{
							"internalType": "contract IERC20",
							"name": "",
							"type": "address"
						}
					],
					"stateMutability": "view",
					"type": "function"
				},
				{
					"inputs": [
						{
							"internalType": "address",
							"name": "",
							"type": "address"
						},
						{
							"internalType": "uint256",
							"name": "",
							"type": "uint256"
						}
					],
					"name": "userStakeIndexes",
					"outputs": [
						{
							"internalType": "uint256",
							"name": "",
							"type": "uint256"
						}
					],
					"stateMutability": "view",
					"type": "function"
				},
				{
					"inputs": [
						{
							"internalType": "address",
							"name": "",
							"type": "address"
						},
						{
							"internalType": "uint256",
							"name": "",
							"type": "uint256"
						}
					],
					"name": "userStakes",
					"outputs": [
						{
							"internalType": "uint256",
							"name": "amount",
							"type": "uint256"
						},
						{
							"internalType": "uint256",
							"name": "startTime",
							"type": "uint256"
						},
						{
							"internalType": "uint256",
							"name": "endTime",
							"type": "uint256"
						},
						{
							"internalType": "uint256",
							"name": "rewardRate",
							"type": "uint256"
						},
						{
							"internalType": "bool",
							"name": "isActive",
							"type": "bool"
						},
						{
							"internalType": "uint256",
							"name": "stakeIndex",
							"type": "uint256"
						}
					],
					"stateMutability": "view",
					"type": "function"
				},
				{
					"inputs": [
						{
							"internalType": "uint256",
							"name": "stakeIndex",
							"type": "uint256"
						}
					],
					"name": "withdraw",
					"outputs": [],
					"stateMutability": "nonpayable",
					"type": "function"
				}
			],
			"devdoc": {
				"kind": "dev",
				"methods": {},
				"version": 1
			},
			"evm": {
				"assembly": "    /* \"contracts/stake.sol\":168:5506  contract MtkContracts  {... */\n  mstore(0x40, 0x80)\n    /* \"contracts/stake.sol\":1414:1750  constructor(... */\n  callvalue\n  dup1\n  iszero\n  tag_1\n  jumpi\n  revert(0x00, 0x00)\ntag_1:\n  pop\n  mload(0x40)\n  sub(codesize, bytecodeSize)\n  dup1\n  bytecodeSize\n  dup4\n  codecopy\n  dup2\n  dup2\n  add\n  0x40\n  mstore\n  dup2\n  add\n  swap1\n  tag_2\n  swap2\n  swap1\n  tag_3\n  jump\t// in\ntag_2:\n    /* \"contracts/stake.sol\":1483:1492  _mtkToken */\n  dup1\n    /* \"contracts/stake.sol\":1470:1482  stakingToken */\n  0x00\n  0x00\n    /* \"contracts/stake.sol\":1470:1492  stakingToken=_mtkToken */\n  0x0100\n  exp\n  dup2\n  sload\n  dup2\n  0xffffffffffffffffffffffffffffffffffffffff\n  mul\n  not\n  and\n  swap1\n  dup4\n  0xffffffffffffffffffffffffffffffffffffffff\n  and\n  mul\n  or\n  swap1\n  sstore\n  pop\n    /* \"contracts/stake.sol\":1535:1537  10 */\n  0x0a\n    /* \"contracts/stake.sol\":1503:1506  apy */\n  0x01\n    /* \"contracts/stake.sol\":1503:1532  apy[StakingPeriod.ThirtyDays] */\n  0x00\n    /* \"contracts/stake.sol\":1507:1531  StakingPeriod.ThirtyDays */\n  0x00\n    /* \"contracts/stake.sol\":1503:1532  apy[StakingPeriod.ThirtyDays] */\n  0x03\n  dup2\n  gt\n  iszero\n  tag_6\n  jumpi\n  tag_7\n  tag_8\n  jump\t// in\ntag_7:\ntag_6:\n  0x03\n  dup2\n  gt\n  iszero\n  tag_9\n  jumpi\n  tag_10\n  tag_8\n  jump\t// in\ntag_10:\ntag_9:\n  dup2\n  mstore\n  0x20\n  add\n  swap1\n  dup2\n  mstore\n  0x20\n  add\n  0x00\n  keccak256\n    /* \"contracts/stake.sol\":1503:1537  apy[StakingPeriod.ThirtyDays] = 10 */\n  dup2\n  swap1\n  sstore\n  pop\n    /* \"contracts/stake.sol\":1595:1597  15 */\n  0x0f\n    /* \"contracts/stake.sol\":1563:1566  apy */\n  0x01\n    /* \"contracts/stake.sol\":1563:1592  apy[StakingPeriod.NinetyDays] */\n  0x00\n    /* \"contracts/stake.sol\":1567:1591  StakingPeriod.NinetyDays */\n  0x01\n    /* \"contracts/stake.sol\":1563:1592  apy[StakingPeriod.NinetyDays] */\n  0x03\n  dup2\n  gt\n  iszero\n  tag_11\n  jumpi\n  tag_12\n  tag_8\n  jump\t// in\ntag_12:\ntag_11:\n  0x03\n  dup2\n  gt\n  iszero\n  tag_13\n  jumpi\n  tag_14\n  tag_8\n  jump\t// in\ntag_14:\ntag_13:\n  dup2\n  mstore\n  0x20\n  add\n  swap1\n  dup2\n  mstore\n  0x20\n  add\n  0x00\n  keccak256\n    /* \"contracts/stake.sol\":1563:1597  apy[StakingPeriod.NinetyDays] = 15 */\n  dup2\n  swap1\n  sstore\n  pop\n    /* \"contracts/stake.sol\":1662:1664  20 */\n  0x14\n    /* \"contracts/stake.sol\":1623:1626  apy */\n  0x01\n    /* \"contracts/stake.sol\":1623:1659  apy[StakingPeriod.HundredEightyDays] */\n  0x00\n    /* \"contracts/stake.sol\":1627:1658  StakingPeriod.HundredEightyDays */\n  0x02\n    /* \"contracts/stake.sol\":1623:1659  apy[StakingPeriod.HundredEightyDays] */\n  0x03\n  dup2\n  gt\n  iszero\n  tag_15\n  jumpi\n  tag_16\n  tag_8\n  jump\t// in\ntag_16:\ntag_15:\n  0x03\n  dup2\n  gt\n  iszero\n  tag_17\n  jumpi\n  tag_18\n  tag_8\n  jump\t// in\ntag_18:\ntag_17:\n  dup2\n  mstore\n  0x20\n  add\n  swap1\n  dup2\n  mstore\n  0x20\n  add\n  0x00\n  keccak256\n    /* \"contracts/stake.sol\":1623:1664  apy[StakingPeriod.HundredEightyDays] = 20 */\n  dup2\n  swap1\n  sstore\n  pop\n    /* \"contracts/stake.sol\":1722:1724  25 */\n  0x19\n    /* \"contracts/stake.sol\":1693:1696  apy */\n  0x01\n    /* \"contracts/stake.sol\":1693:1719  apy[StakingPeriod.OneYear] */\n  0x00\n    /* \"contracts/stake.sol\":1697:1718  StakingPeriod.OneYear */\n  0x03\n    /* \"contracts/stake.sol\":1693:1719  apy[StakingPeriod.OneYear] */\n  dup1\n  dup2\n  gt\n  iszero\n  tag_19\n  jumpi\n  tag_20\n  tag_8\n  jump\t// in\ntag_20:\ntag_19:\n  0x03\n  dup2\n  gt\n  iszero\n  tag_21\n  jumpi\n  tag_22\n  tag_8\n  jump\t// in\ntag_22:\ntag_21:\n  dup2\n  mstore\n  0x20\n  add\n  swap1\n  dup2\n  mstore\n  0x20\n  add\n  0x00\n  keccak256\n    /* \"contracts/stake.sol\":1693:1724  apy[StakingPeriod.OneYear] = 25 */\n  dup2\n  swap1\n  sstore\n  pop\n    /* \"contracts/stake.sol\":1414:1750  constructor(... */\n  pop\n    /* \"contracts/stake.sol\":168:5506  contract MtkContracts  {... */\n  jump(tag_23)\n    /* \"#utility.yul\":88:205   */\ntag_25:\n    /* \"#utility.yul\":197:198   */\n  0x00\n    /* \"#utility.yul\":194:195   */\n  0x00\n    /* \"#utility.yul\":187:199   */\n  revert\n    /* \"#utility.yul\":334:460   */\ntag_27:\n    /* \"#utility.yul\":371:378   */\n  0x00\n    /* \"#utility.yul\":411:453   */\n  0xffffffffffffffffffffffffffffffffffffffff\n    /* \"#utility.yul\":404:409   */\n  dup3\n    /* \"#utility.yul\":400:454   */\n  and\n    /* \"#utility.yul\":389:454   */\n  swap1\n  pop\n    /* \"#utility.yul\":334:460   */\n  swap2\n  swap1\n  pop\n  jump\t// out\n    /* \"#utility.yul\":466:562   */\ntag_28:\n    /* \"#utility.yul\":503:510   */\n  0x00\n    /* \"#utility.yul\":532:556   */\n  tag_38\n    /* \"#utility.yul\":550:555   */\n  dup3\n    /* \"#utility.yul\":532:556   */\n  tag_27\n  jump\t// in\ntag_38:\n    /* \"#utility.yul\":521:556   */\n  swap1\n  pop\n    /* \"#utility.yul\":466:562   */\n  swap2\n  swap1\n  pop\n  jump\t// out\n    /* \"#utility.yul\":568:678   */\ntag_29:\n    /* \"#utility.yul\":619:626   */\n  0x00\n    /* \"#utility.yul\":648:672   */\n  tag_40\n    /* \"#utility.yul\":666:671   */\n  dup3\n    /* \"#utility.yul\":648:672   */\n  tag_28\n  jump\t// in\ntag_40:\n    /* \"#utility.yul\":637:672   */\n  swap1\n  pop\n    /* \"#utility.yul\":568:678   */\n  swap2\n  swap1\n  pop\n  jump\t// out\n    /* \"#utility.yul\":684:834   */\ntag_30:\n    /* \"#utility.yul\":771:809   */\n  tag_42\n    /* \"#utility.yul\":803:808   */\n  dup2\n    /* \"#utility.yul\":771:809   */\n  tag_29\n  jump\t// in\ntag_42:\n    /* \"#utility.yul\":764:769   */\n  dup2\n    /* \"#utility.yul\":761:810   */\n  eq\n    /* \"#utility.yul\":751:828   */\n  tag_43\n  jumpi\n    /* \"#utility.yul\":824:825   */\n  0x00\n    /* \"#utility.yul\":821:822   */\n  0x00\n    /* \"#utility.yul\":814:826   */\n  revert\n    /* \"#utility.yul\":751:828   */\ntag_43:\n    /* \"#utility.yul\":684:834   */\n  pop\n  jump\t// out\n    /* \"#utility.yul\":840:1011   */\ntag_31:\n    /* \"#utility.yul\":911:916   */\n  0x00\n    /* \"#utility.yul\":942:948   */\n  dup2\n    /* \"#utility.yul\":936:949   */\n  mload\n    /* \"#utility.yul\":927:949   */\n  swap1\n  pop\n    /* \"#utility.yul\":958:1005   */\n  tag_45\n    /* \"#utility.yul\":999:1004   */\n  dup2\n    /* \"#utility.yul\":958:1005   */\n  tag_30\n  jump\t// in\ntag_45:\n    /* \"#utility.yul\":840:1011   */\n  swap3\n  swap2\n  pop\n  pop\n  jump\t// out\n    /* \"#utility.yul\":1017:1396   */\ntag_3:\n    /* \"#utility.yul\":1101:1107   */\n  0x00\n    /* \"#utility.yul\":1150:1152   */\n  0x20\n    /* \"#utility.yul\":1138:1147   */\n  dup3\n    /* \"#utility.yul\":1129:1136   */\n  dup5\n    /* \"#utility.yul\":1125:1148   */\n  sub\n    /* \"#utility.yul\":1121:1153   */\n  slt\n    /* \"#utility.yul\":1118:1237   */\n  iszero\n  tag_47\n  jumpi\n    /* \"#utility.yul\":1156:1235   */\n  tag_48\n  tag_25\n  jump\t// in\ntag_48:\n    /* \"#utility.yul\":1118:1237   */\ntag_47:\n    /* \"#utility.yul\":1276:1277   */\n  0x00\n    /* \"#utility.yul\":1301:1379   */\n  tag_49\n    /* \"#utility.yul\":1371:1378   */\n  dup5\n    /* \"#utility.yul\":1362:1368   */\n  dup3\n    /* \"#utility.yul\":1351:1360   */\n  dup6\n    /* \"#utility.yul\":1347:1369   */\n  add\n    /* \"#utility.yul\":1301:1379   */\n  tag_31\n  jump\t// in\ntag_49:\n    /* \"#utility.yul\":1291:1379   */\n  swap2\n  pop\n    /* \"#utility.yul\":1247:1389   */\n  pop\n    /* \"#utility.yul\":1017:1396   */\n  swap3\n  swap2\n  pop\n  pop\n  jump\t// out\n    /* \"#utility.yul\":1402:1582   */\ntag_8:\n    /* \"#utility.yul\":1450:1527   */\n  0x4e487b7100000000000000000000000000000000000000000000000000000000\n    /* \"#utility.yul\":1447:1448   */\n  0x00\n    /* \"#utility.yul\":1440:1528   */\n  mstore\n    /* \"#utility.yul\":1547:1551   */\n  0x21\n    /* \"#utility.yul\":1544:1545   */\n  0x04\n    /* \"#utility.yul\":1537:1552   */\n  mstore\n    /* \"#utility.yul\":1571:1575   */\n  0x24\n    /* \"#utility.yul\":1568:1569   */\n  0x00\n    /* \"#utility.yul\":1561:1576   */\n  revert\n    /* \"contracts/stake.sol\":168:5506  contract MtkContracts  {... */\ntag_23:\n  dataSize(sub_0)\n  dup1\n  dataOffset(sub_0)\n  0x00\n  codecopy\n  0x00\n  return\nstop\n\nsub_0: assembly {\n        /* \"contracts/stake.sol\":168:5506  contract MtkContracts  {... */\n      mstore(0x40, 0x80)\n      callvalue\n      dup1\n      iszero\n      tag_1\n      jumpi\n      revert(0x00, 0x00)\n    tag_1:\n      pop\n      jumpi(tag_2, lt(calldatasize, 0x04))\n      shr(0xe0, calldataload(0x00))\n      dup1\n      0xa262ab35\n      gt\n      tag_11\n      jumpi\n      dup1\n      0xa262ab35\n      eq\n      tag_7\n      jumpi\n      dup1\n      0xa57a5304\n      eq\n      tag_8\n      jumpi\n      dup1\n      0xb5d5b5fa\n      eq\n      tag_9\n      jumpi\n      dup1\n      0xcc4a3eed\n      eq\n      tag_10\n      jumpi\n      jump(tag_2)\n    tag_11:\n      dup1\n      0x10087fb1\n      eq\n      tag_3\n      jumpi\n      dup1\n      0x1f1accb2\n      eq\n      tag_4\n      jumpi\n      dup1\n      0x2e1a7d4d\n      eq\n      tag_5\n      jumpi\n      dup1\n      0x72f702f3\n      eq\n      tag_6\n      jumpi\n    tag_2:\n      revert(0x00, 0x00)\n        /* \"contracts/stake.sol\":1758:2947  function stake(uint256 amount, StakingPeriod period) external {... */\n    tag_3:\n      tag_12\n      0x04\n      dup1\n      calldatasize\n      sub\n      dup2\n      add\n      swap1\n      tag_13\n      swap2\n      swap1\n      tag_14\n      jump\t// in\n    tag_13:\n      tag_15\n      jump\t// in\n    tag_12:\n      stop\n        /* \"contracts/stake.sol\":774:818  mapping(StakingPeriod => uint256) public apy */\n    tag_4:\n      tag_16\n      0x04\n      dup1\n      calldatasize\n      sub\n      dup2\n      add\n      swap1\n      tag_17\n      swap2\n      swap1\n      tag_18\n      jump\t// in\n    tag_17:\n      tag_19\n      jump\t// in\n    tag_16:\n      mload(0x40)\n      tag_20\n      swap2\n      swap1\n      tag_21\n      jump\t// in\n    tag_20:\n      mload(0x40)\n      dup1\n      swap2\n      sub\n      swap1\n      return\n        /* \"contracts/stake.sol\":3890:4460  function withdraw(uint256 stakeIndex) external {... */\n    tag_5:\n      tag_22\n      0x04\n      dup1\n      calldatasize\n      sub\n      dup2\n      add\n      swap1\n      tag_23\n      swap2\n      swap1\n      tag_24\n      jump\t// in\n    tag_23:\n      tag_25\n      jump\t// in\n    tag_22:\n      stop\n        /* \"contracts/stake.sol\":740:766  IERC20 public stakingToken */\n    tag_6:\n      tag_26\n      tag_27\n      jump\t// in\n    tag_26:\n      mload(0x40)\n      tag_28\n      swap2\n      swap1\n      tag_29\n      jump\t// in\n    tag_28:\n      mload(0x40)\n      dup1\n      swap2\n      sub\n      swap1\n      return\n        /* \"contracts/stake.sol\":4701:5499  function getUserActiveStakes(address user) external view returns (Stake[] memory) {       ... */\n    tag_7:\n      tag_30\n      0x04\n      dup1\n      calldatasize\n      sub\n      dup2\n      add\n      swap1\n      tag_31\n      swap2\n      swap1\n      tag_32\n      jump\t// in\n    tag_31:\n      tag_33\n      jump\t// in\n    tag_30:\n      mload(0x40)\n      tag_34\n      swap2\n      swap1\n      tag_35\n      jump\t// in\n    tag_34:\n      mload(0x40)\n      dup1\n      swap2\n      sub\n      swap1\n      return\n        /* \"contracts/stake.sol\":973:1023  mapping(uint256=>address) public stakeOwnerMapping */\n    tag_8:\n      tag_36\n      0x04\n      dup1\n      calldatasize\n      sub\n      dup2\n      add\n      swap1\n      tag_37\n      swap2\n      swap1\n      tag_24\n      jump\t// in\n    tag_37:\n      tag_38\n      jump\t// in\n    tag_36:\n      mload(0x40)\n      tag_39\n      swap2\n      swap1\n      tag_40\n      jump\t// in\n    tag_39:\n      mload(0x40)\n      dup1\n      swap2\n      sub\n      swap1\n      return\n        /* \"contracts/stake.sol\":875:936  mapping(address => mapping(uint256=>Stake)) public userStakes */\n    tag_9:\n      tag_41\n      0x04\n      dup1\n      calldatasize\n      sub\n      dup2\n      add\n      swap1\n      tag_42\n      swap2\n      swap1\n      tag_43\n      jump\t// in\n    tag_42:\n      tag_44\n      jump\t// in\n    tag_41:\n      mload(0x40)\n      tag_45\n      swap7\n      swap6\n      swap5\n      swap4\n      swap3\n      swap2\n      swap1\n      tag_46\n      jump\t// in\n    tag_45:\n      mload(0x40)\n      dup1\n      swap2\n      sub\n      swap1\n      return\n        /* \"contracts/stake.sol\":1029:1082  mapping(address => uint256[]) public userStakeIndexes */\n    tag_10:\n      tag_47\n      0x04\n      dup1\n      calldatasize\n      sub\n      dup2\n      add\n      swap1\n      tag_48\n      swap2\n      swap1\n      tag_43\n      jump\t// in\n    tag_48:\n      tag_49\n      jump\t// in\n    tag_47:\n      mload(0x40)\n      tag_50\n      swap2\n      swap1\n      tag_21\n      jump\t// in\n    tag_50:\n      mload(0x40)\n      dup1\n      swap2\n      sub\n      swap1\n      return\n        /* \"contracts/stake.sol\":1758:2947  function stake(uint256 amount, StakingPeriod period) external {... */\n    tag_15:\n        /* \"contracts/stake.sol\":1830:1847  uint256 amountWei */\n      0x00\n        /* \"contracts/stake.sol\":1855:1861  10**18 */\n      0x0de0b6b3a7640000\n        /* \"contracts/stake.sol\":1848:1854  amount */\n      dup4\n        /* \"contracts/stake.sol\":1848:1861  amount*10**18 */\n      tag_52\n      swap2\n      swap1\n      tag_53\n      jump\t// in\n    tag_52:\n        /* \"contracts/stake.sol\":1830:1861  uint256 amountWei=amount*10**18 */\n      swap1\n      pop\n        /* \"contracts/stake.sol\":1886:1887  0 */\n      0x00\n        /* \"contracts/stake.sol\":1879:1885  amount */\n      dup4\n        /* \"contracts/stake.sol\":1879:1887  amount>0 */\n      gt\n        /* \"contracts/stake.sol\":1871:1917  require(amount>0, \"Amount should be positive\") */\n      tag_54\n      jumpi\n      mload(0x40)\n      0x08c379a000000000000000000000000000000000000000000000000000000000\n      dup2\n      mstore\n      0x04\n      add\n      tag_55\n      swap1\n      tag_56\n      jump\t// in\n    tag_55:\n      mload(0x40)\n      dup1\n      swap2\n      sub\n      swap1\n      revert\n    tag_54:\n        /* \"contracts/stake.sol\":1971:1980  amountWei */\n      dup1\n        /* \"contracts/stake.sol\":1935:1947  stakingToken */\n      0x00\n      0x00\n      swap1\n      sload\n      swap1\n      0x0100\n      exp\n      swap1\n      div\n      0xffffffffffffffffffffffffffffffffffffffff\n      and\n        /* \"contracts/stake.sol\":1935:1957  stakingToken.balanceOf */\n      0xffffffffffffffffffffffffffffffffffffffff\n      and\n      0x70a08231\n        /* \"contracts/stake.sol\":1958:1968  msg.sender */\n      caller\n        /* \"contracts/stake.sol\":1935:1969  stakingToken.balanceOf(msg.sender) */\n      mload(0x40)\n      dup3\n      0xffffffff\n      and\n      0xe0\n      shl\n      dup2\n      mstore\n      0x04\n      add\n      tag_57\n      swap2\n      swap1\n      tag_40\n      jump\t// in\n    tag_57:\n      0x20\n      mload(0x40)\n      dup1\n      dup4\n      sub\n      dup2\n      dup7\n      gas\n      staticcall\n      iszero\n      dup1\n      iszero\n      tag_59\n      jumpi\n      returndatacopy(0x00, 0x00, returndatasize)\n      revert(0x00, returndatasize)\n    tag_59:\n      pop\n      pop\n      pop\n      pop\n      mload(0x40)\n      returndatasize\n      not(0x1f)\n      0x1f\n      dup3\n      add\n      and\n      dup3\n      add\n      dup1\n      0x40\n      mstore\n      pop\n      dup2\n      add\n      swap1\n      tag_60\n      swap2\n      swap1\n      tag_61\n      jump\t// in\n    tag_60:\n        /* \"contracts/stake.sol\":1935:1980  stakingToken.balanceOf(msg.sender)>=amountWei */\n      lt\n      iszero\n        /* \"contracts/stake.sol\":1927:2005  require(stakingToken.balanceOf(msg.sender)>=amountWei, \"Insufficient balance\") */\n      tag_62\n      jumpi\n      mload(0x40)\n      0x08c379a000000000000000000000000000000000000000000000000000000000\n      dup2\n      mstore\n      0x04\n      add\n      tag_63\n      swap1\n      tag_64\n      jump\t// in\n    tag_63:\n      mload(0x40)\n      dup1\n      swap2\n      sub\n      swap1\n      revert\n    tag_62:\n        /* \"contracts/stake.sol\":2023:2035  stakingToken */\n      0x00\n      0x00\n      swap1\n      sload\n      swap1\n      0x0100\n      exp\n      swap1\n      div\n      0xffffffffffffffffffffffffffffffffffffffff\n      and\n        /* \"contracts/stake.sol\":2023:2048  stakingToken.transferFrom */\n      0xffffffffffffffffffffffffffffffffffffffff\n      and\n      0x23b872dd\n        /* \"contracts/stake.sol\":2049:2059  msg.sender */\n      caller\n        /* \"contracts/stake.sol\":2069:2073  this */\n      address\n        /* \"contracts/stake.sol\":2076:2082  amount */\n      dup7\n        /* \"contracts/stake.sol\":2023:2083  stakingToken.transferFrom(msg.sender, address(this), amount) */\n      mload(0x40)\n      dup5\n      0xffffffff\n      and\n      0xe0\n      shl\n      dup2\n      mstore\n      0x04\n      add\n      tag_65\n      swap4\n      swap3\n      swap2\n      swap1\n      tag_66\n      jump\t// in\n    tag_65:\n      0x20\n      mload(0x40)\n      dup1\n      dup4\n      sub\n      dup2\n      0x00\n      dup8\n      gas\n      call\n      iszero\n      dup1\n      iszero\n      tag_68\n      jumpi\n      returndatacopy(0x00, 0x00, returndatasize)\n      revert(0x00, returndatasize)\n    tag_68:\n      pop\n      pop\n      pop\n      pop\n      mload(0x40)\n      returndatasize\n      not(0x1f)\n      0x1f\n      dup3\n      add\n      and\n      dup3\n      add\n      dup1\n      0x40\n      mstore\n      pop\n      dup2\n      add\n      swap1\n      tag_69\n      swap2\n      swap1\n      tag_70\n      jump\t// in\n    tag_69:\n        /* \"contracts/stake.sol\":2015:2111  require(stakingToken.transferFrom(msg.sender, address(this), amount),\"Staking: Transfer failed\") */\n      tag_71\n      jumpi\n      mload(0x40)\n      0x08c379a000000000000000000000000000000000000000000000000000000000\n      dup2\n      mstore\n      0x04\n      add\n      tag_72\n      swap1\n      tag_73\n      jump\t// in\n    tag_72:\n      mload(0x40)\n      dup1\n      swap2\n      sub\n      swap1\n      revert\n    tag_71:\n        /* \"contracts/stake.sol\":2130:2159  timeMapping memory durMapping */\n      0x00\n        /* \"contracts/stake.sol\":2162:2182  _getDuration(period) */\n      tag_74\n        /* \"contracts/stake.sol\":2175:2181  period */\n      dup4\n        /* \"contracts/stake.sol\":2162:2174  _getDuration */\n      tag_75\n        /* \"contracts/stake.sol\":2162:2182  _getDuration(period) */\n      jump\t// in\n    tag_74:\n        /* \"contracts/stake.sol\":2130:2182  timeMapping memory durMapping = _getDuration(period) */\n      swap1\n      pop\n        /* \"contracts/stake.sol\":2192:2203  uint256 dur */\n      0x00\n        /* \"contracts/stake.sol\":2204:2214  durMapping */\n      dup2\n        /* \"contracts/stake.sol\":2204:2219  durMapping.time */\n      0x20\n      add\n      mload\n        /* \"contracts/stake.sol\":2192:2219  uint256 dur=durMapping.time */\n      swap1\n      pop\n        /* \"contracts/stake.sol\":2229:2247  uint256 periodDays */\n      0x00\n        /* \"contracts/stake.sol\":2248:2258  durMapping */\n      dup3\n        /* \"contracts/stake.sol\":2248:2269  durMapping.periodDays */\n      0x00\n      add\n      mload\n        /* \"contracts/stake.sol\":2229:2269  uint256 periodDays=durMapping.periodDays */\n      swap1\n      pop\n        /* \"contracts/stake.sol\":2279:2293  uint256 startT */\n      0x00\n        /* \"contracts/stake.sol\":2294:2309  block.timestamp */\n      timestamp\n        /* \"contracts/stake.sol\":2279:2309  uint256 startT=block.timestamp */\n      swap1\n      pop\n        /* \"contracts/stake.sol\":2319:2331  uint256 endT */\n      0x00\n        /* \"contracts/stake.sol\":2342:2345  dur */\n      dup4\n        /* \"contracts/stake.sol\":2333:2339  startT */\n      dup3\n        /* \"contracts/stake.sol\":2333:2345  startT + dur */\n      tag_76\n      swap2\n      swap1\n      tag_77\n      jump\t// in\n    tag_76:\n        /* \"contracts/stake.sol\":2319:2345  uint256 endT= startT + dur */\n      swap1\n      pop\n        /* \"contracts/stake.sol\":2355:2368  uint256 index */\n      0x00\n        /* \"contracts/stake.sol\":2370:2388  _generateStakeId() */\n      tag_78\n        /* \"contracts/stake.sol\":2370:2386  _generateStakeId */\n      tag_79\n        /* \"contracts/stake.sol\":2370:2388  _generateStakeId() */\n      jump\t// in\n    tag_78:\n        /* \"contracts/stake.sol\":2355:2388  uint256 index =_generateStakeId() */\n      swap1\n      pop\n        /* \"contracts/stake.sol\":2398:2410  uint256 rate */\n      0x00\n        /* \"contracts/stake.sol\":2441:2444  360 */\n      0x0168\n        /* \"contracts/stake.sol\":2434:2440  10**18 */\n      0x0de0b6b3a7640000\n        /* \"contracts/stake.sol\":2423:2433  periodDays */\n      dup7\n        /* \"contracts/stake.sol\":2411:2414  apy */\n      0x01\n        /* \"contracts/stake.sol\":2411:2422  apy[period] */\n      0x00\n        /* \"contracts/stake.sol\":2415:2421  period */\n      dup14\n        /* \"contracts/stake.sol\":2411:2422  apy[period] */\n      0x03\n      dup2\n      gt\n      iszero\n      tag_80\n      jumpi\n      tag_81\n      tag_82\n      jump\t// in\n    tag_81:\n    tag_80:\n      0x03\n      dup2\n      gt\n      iszero\n      tag_83\n      jumpi\n      tag_84\n      tag_82\n      jump\t// in\n    tag_84:\n    tag_83:\n      dup2\n      mstore\n      0x20\n      add\n      swap1\n      dup2\n      mstore\n      0x20\n      add\n      0x00\n      keccak256\n      sload\n        /* \"contracts/stake.sol\":2411:2433  apy[period]*periodDays */\n      tag_85\n      swap2\n      swap1\n      tag_53\n      jump\t// in\n    tag_85:\n        /* \"contracts/stake.sol\":2411:2440  apy[period]*periodDays*10**18 */\n      tag_86\n      swap2\n      swap1\n      tag_53\n      jump\t// in\n    tag_86:\n        /* \"contracts/stake.sol\":2411:2444  apy[period]*periodDays*10**18/360 */\n      tag_87\n      swap2\n      swap1\n      tag_88\n      jump\t// in\n    tag_87:\n        /* \"contracts/stake.sol\":2398:2444  uint256 rate=apy[period]*periodDays*10**18/360 */\n      swap1\n      pop\n        /* \"contracts/stake.sol\":2467:2477  msg.sender */\n      caller\n        /* \"contracts/stake.sol\":2460:2506  Staked(msg.sender, amount, period, endT,index) */\n      0xffffffffffffffffffffffffffffffffffffffff\n      and\n      0x022dd619ee0d92140e5abde105761d6df71c05c4fcb761610ea0552064f91e6c\n        /* \"contracts/stake.sol\":2479:2485  amount */\n      dup12\n        /* \"contracts/stake.sol\":2487:2493  period */\n      dup12\n        /* \"contracts/stake.sol\":2495:2499  endT */\n      dup7\n        /* \"contracts/stake.sol\":2500:2505  index */\n      dup7\n        /* \"contracts/stake.sol\":2460:2506  Staked(msg.sender, amount, period, endT,index) */\n      mload(0x40)\n      tag_89\n      swap5\n      swap4\n      swap3\n      swap2\n      swap1\n      tag_90\n      jump\t// in\n    tag_89:\n      mload(0x40)\n      dup1\n      swap2\n      sub\n      swap1\n      log2\n        /* \"contracts/stake.sol\":2547:2836  Stake({... */\n      mload(0x40)\n      dup1\n      0xc0\n      add\n      0x40\n      mstore\n      dup1\n        /* \"contracts/stake.sol\":2574:2580  amount */\n      dup12\n        /* \"contracts/stake.sol\":2547:2836  Stake({... */\n      dup2\n      mstore\n      0x20\n      add\n        /* \"contracts/stake.sol\":2604:2610  startT */\n      dup6\n        /* \"contracts/stake.sol\":2547:2836  Stake({... */\n      dup2\n      mstore\n      0x20\n      add\n        /* \"contracts/stake.sol\":2632:2636  endT */\n      dup5\n        /* \"contracts/stake.sol\":2547:2836  Stake({... */\n      dup2\n      mstore\n      0x20\n      add\n        /* \"contracts/stake.sol\":2691:2695  rate */\n      dup3\n        /* \"contracts/stake.sol\":2547:2836  Stake({... */\n      dup2\n      mstore\n      0x20\n      add\n        /* \"contracts/stake.sol\":2759:2763  true */\n      0x01\n        /* \"contracts/stake.sol\":2547:2836  Stake({... */\n      iszero\n      iszero\n      dup2\n      mstore\n      0x20\n      add\n        /* \"contracts/stake.sol\":2820:2825  index */\n      dup4\n        /* \"contracts/stake.sol\":2547:2836  Stake({... */\n      dup2\n      mstore\n      pop\n        /* \"contracts/stake.sol\":2517:2527  userStakes */\n      0x02\n        /* \"contracts/stake.sol\":2517:2539  userStakes[msg.sender] */\n      0x00\n        /* \"contracts/stake.sol\":2528:2538  msg.sender */\n      caller\n        /* \"contracts/stake.sol\":2517:2539  userStakes[msg.sender] */\n      0xffffffffffffffffffffffffffffffffffffffff\n      and\n      0xffffffffffffffffffffffffffffffffffffffff\n      and\n      dup2\n      mstore\n      0x20\n      add\n      swap1\n      dup2\n      mstore\n      0x20\n      add\n      0x00\n      keccak256\n        /* \"contracts/stake.sol\":2517:2546  userStakes[msg.sender][index] */\n      0x00\n        /* \"contracts/stake.sol\":2540:2545  index */\n      dup5\n        /* \"contracts/stake.sol\":2517:2546  userStakes[msg.sender][index] */\n      dup2\n      mstore\n      0x20\n      add\n      swap1\n      dup2\n      mstore\n      0x20\n      add\n      0x00\n      keccak256\n        /* \"contracts/stake.sol\":2517:2836  userStakes[msg.sender][index]=Stake({... */\n      0x00\n      dup3\n      add\n      mload\n      dup2\n      0x00\n      add\n      sstore\n      0x20\n      dup3\n      add\n      mload\n      dup2\n      0x01\n      add\n      sstore\n      0x40\n      dup3\n      add\n      mload\n      dup2\n      0x02\n      add\n      sstore\n      0x60\n      dup3\n      add\n      mload\n      dup2\n      0x03\n      add\n      sstore\n      0x80\n      dup3\n      add\n      mload\n      dup2\n      0x04\n      add\n      exp(0x0100, 0x00)\n      dup2\n      sload\n      dup2\n      0xff\n      mul\n      not\n      and\n      swap1\n      dup4\n      iszero\n      iszero\n      mul\n      or\n      swap1\n      sstore\n      pop\n      0xa0\n      dup3\n      add\n      mload\n      dup2\n      0x05\n      add\n      sstore\n      swap1\n      pop\n      pop\n        /* \"contracts/stake.sol\":2871:2881  msg.sender */\n      caller\n        /* \"contracts/stake.sol\":2846:2863  stakeOwnerMapping */\n      0x03\n        /* \"contracts/stake.sol\":2846:2870  stakeOwnerMapping[index] */\n      0x00\n        /* \"contracts/stake.sol\":2864:2869  index */\n      dup5\n        /* \"contracts/stake.sol\":2846:2870  stakeOwnerMapping[index] */\n      dup2\n      mstore\n      0x20\n      add\n      swap1\n      dup2\n      mstore\n      0x20\n      add\n      0x00\n      keccak256\n      0x00\n        /* \"contracts/stake.sol\":2846:2881  stakeOwnerMapping[index]=msg.sender */\n      0x0100\n      exp\n      dup2\n      sload\n      dup2\n      0xffffffffffffffffffffffffffffffffffffffff\n      mul\n      not\n      and\n      swap1\n      dup4\n      0xffffffffffffffffffffffffffffffffffffffff\n      and\n      mul\n      or\n      swap1\n      sstore\n      pop\n        /* \"contracts/stake.sol\":2891:2907  userStakeIndexes */\n      0x04\n        /* \"contracts/stake.sol\":2891:2919  userStakeIndexes[msg.sender] */\n      0x00\n        /* \"contracts/stake.sol\":2908:2918  msg.sender */\n      caller\n        /* \"contracts/stake.sol\":2891:2919  userStakeIndexes[msg.sender] */\n      0xffffffffffffffffffffffffffffffffffffffff\n      and\n      0xffffffffffffffffffffffffffffffffffffffff\n      and\n      dup2\n      mstore\n      0x20\n      add\n      swap1\n      dup2\n      mstore\n      0x20\n      add\n      0x00\n      keccak256\n        /* \"contracts/stake.sol\":2925:2930  index */\n      dup3\n        /* \"contracts/stake.sol\":2891:2931  userStakeIndexes[msg.sender].push(index) */\n      swap1\n      dup1\n      0x01\n      dup2\n      sload\n      add\n      dup1\n      dup3\n      sstore\n      dup1\n      swap2\n      pop\n      pop\n      0x01\n      swap1\n      sub\n      swap1\n      0x00\n      mstore\n      keccak256(0x00, 0x20)\n      add\n      0x00\n      swap1\n      swap2\n      swap1\n      swap2\n      swap1\n      swap2\n      pop\n      sstore\n        /* \"contracts/stake.sol\":1820:2947  {... */\n      pop\n      pop\n      pop\n      pop\n      pop\n      pop\n      pop\n      pop\n        /* \"contracts/stake.sol\":1758:2947  function stake(uint256 amount, StakingPeriod period) external {... */\n      pop\n      pop\n      jump\t// out\n        /* \"contracts/stake.sol\":774:818  mapping(StakingPeriod => uint256) public apy */\n    tag_19:\n      mstore(0x20, 0x01)\n      dup1\n      0x00\n      mstore\n      keccak256(0x00, 0x40)\n      0x00\n      swap2\n      pop\n      swap1\n      pop\n      sload\n      dup2\n      jump\t// out\n        /* \"contracts/stake.sol\":3890:4460  function withdraw(uint256 stakeIndex) external {... */\n    tag_25:\n        /* \"contracts/stake.sol\":3986:3996  msg.sender */\n      caller\n        /* \"contracts/stake.sol\":3955:3996  stakeOwnerMapping[stakeIndex]==msg.sender */\n      0xffffffffffffffffffffffffffffffffffffffff\n      and\n        /* \"contracts/stake.sol\":3955:3972  stakeOwnerMapping */\n      0x03\n        /* \"contracts/stake.sol\":3955:3984  stakeOwnerMapping[stakeIndex] */\n      0x00\n        /* \"contracts/stake.sol\":3973:3983  stakeIndex */\n      dup4\n        /* \"contracts/stake.sol\":3955:3984  stakeOwnerMapping[stakeIndex] */\n      dup2\n      mstore\n      0x20\n      add\n      swap1\n      dup2\n      mstore\n      0x20\n      add\n      0x00\n      keccak256\n      0x00\n      swap1\n      sload\n      swap1\n      0x0100\n      exp\n      swap1\n      div\n      0xffffffffffffffffffffffffffffffffffffffff\n      and\n        /* \"contracts/stake.sol\":3955:3996  stakeOwnerMapping[stakeIndex]==msg.sender */\n      0xffffffffffffffffffffffffffffffffffffffff\n      and\n      eq\n        /* \"contracts/stake.sol\":3947:4036  require(stakeOwnerMapping[stakeIndex]==msg.sender, \"You are not the owner of this stake\") */\n      tag_93\n      jumpi\n      mload(0x40)\n      0x08c379a000000000000000000000000000000000000000000000000000000000\n      dup2\n      mstore\n      0x04\n      add\n      tag_94\n      swap1\n      tag_95\n      jump\t// in\n    tag_94:\n      mload(0x40)\n      dup1\n      swap2\n      sub\n      swap1\n      revert\n    tag_93:\n        /* \"contracts/stake.sol\":4047:4062  Stake storage s */\n      0x00\n        /* \"contracts/stake.sol\":4065:4075  userStakes */\n      0x02\n        /* \"contracts/stake.sol\":4065:4087  userStakes[msg.sender] */\n      0x00\n        /* \"contracts/stake.sol\":4076:4086  msg.sender */\n      caller\n        /* \"contracts/stake.sol\":4065:4087  userStakes[msg.sender] */\n      0xffffffffffffffffffffffffffffffffffffffff\n      and\n      0xffffffffffffffffffffffffffffffffffffffff\n      and\n      dup2\n      mstore\n      0x20\n      add\n      swap1\n      dup2\n      mstore\n      0x20\n      add\n      0x00\n      keccak256\n        /* \"contracts/stake.sol\":4065:4099  userStakes[msg.sender][stakeIndex] */\n      0x00\n        /* \"contracts/stake.sol\":4088:4098  stakeIndex */\n      dup4\n        /* \"contracts/stake.sol\":4065:4099  userStakes[msg.sender][stakeIndex] */\n      dup2\n      mstore\n      0x20\n      add\n      swap1\n      dup2\n      mstore\n      0x20\n      add\n      0x00\n      keccak256\n        /* \"contracts/stake.sol\":4047:4099  Stake storage s = userStakes[msg.sender][stakeIndex] */\n      swap1\n      pop\n        /* \"contracts/stake.sol\":4125:4126  s */\n      dup1\n        /* \"contracts/stake.sol\":4125:4135  s.isActive */\n      0x04\n      add\n      0x00\n      swap1\n      sload\n      swap1\n      0x0100\n      exp\n      swap1\n      div\n      0xff\n      and\n        /* \"contracts/stake.sol\":4117:4180  require(s.isActive, \"Stake is not active or already withdrawn\") */\n      tag_96\n      jumpi\n      mload(0x40)\n      0x08c379a000000000000000000000000000000000000000000000000000000000\n      dup2\n      mstore\n      0x04\n      add\n      tag_97\n      swap1\n      tag_98\n      jump\t// in\n    tag_97:\n      mload(0x40)\n      dup1\n      swap2\n      sub\n      swap1\n      revert\n    tag_96:\n        /* \"contracts/stake.sol\":4217:4218  s */\n      dup1\n        /* \"contracts/stake.sol\":4217:4226  s.endTime */\n      0x02\n      add\n      sload\n        /* \"contracts/stake.sol\":4198:4213  block.timestamp */\n      timestamp\n        /* \"contracts/stake.sol\":4198:4226  block.timestamp >= s.endTime */\n      lt\n      iszero\n        /* \"contracts/stake.sol\":4190:4256  require(block.timestamp >= s.endTime, \"Stake period is not ended\") */\n      tag_99\n      jumpi\n      mload(0x40)\n      0x08c379a000000000000000000000000000000000000000000000000000000000\n      dup2\n      mstore\n      0x04\n      add\n      tag_100\n      swap1\n      tag_101\n      jump\t// in\n    tag_100:\n      mload(0x40)\n      dup1\n      swap2\n      sub\n      swap1\n      revert\n    tag_99:\n        /* \"contracts/stake.sol\":4275:4289  uint256 reward */\n      0x00\n        /* \"contracts/stake.sol\":4316:4323  10** 18 */\n      0x0de0b6b3a7640000\n        /* \"contracts/stake.sol\":4312:4315  100 */\n      0x64\n        /* \"contracts/stake.sol\":4299:4300  s */\n      dup4\n        /* \"contracts/stake.sol\":4299:4311  s.rewardRate */\n      0x03\n      add\n      sload\n        /* \"contracts/stake.sol\":4290:4291  s */\n      dup5\n        /* \"contracts/stake.sol\":4290:4298  s.amount */\n      0x00\n      add\n      sload\n        /* \"contracts/stake.sol\":4290:4311  s.amount*s.rewardRate */\n      tag_102\n      swap2\n      swap1\n      tag_53\n      jump\t// in\n    tag_102:\n        /* \"contracts/stake.sol\":4290:4315  s.amount*s.rewardRate/100 */\n      tag_103\n      swap2\n      swap1\n      tag_88\n      jump\t// in\n    tag_103:\n        /* \"contracts/stake.sol\":4290:4323  s.amount*s.rewardRate/100/10** 18 */\n      tag_104\n      swap2\n      swap1\n      tag_88\n      jump\t// in\n    tag_104:\n        /* \"contracts/stake.sol\":4275:4323  uint256 reward=s.amount*s.rewardRate/100/10** 18 */\n      swap1\n      pop\n        /* \"contracts/stake.sol\":4333:4352  uint256 totalAmount */\n      0x00\n        /* \"contracts/stake.sol\":4362:4368  reward */\n      dup2\n        /* \"contracts/stake.sol\":4353:4354  s */\n      dup4\n        /* \"contracts/stake.sol\":4353:4361  s.amount */\n      0x00\n      add\n      sload\n        /* \"contracts/stake.sol\":4353:4368  s.amount+reward */\n      tag_105\n      swap2\n      swap1\n      tag_77\n      jump\t// in\n    tag_105:\n        /* \"contracts/stake.sol\":4333:4368  uint256 totalAmount=s.amount+reward */\n      swap1\n      pop\n        /* \"contracts/stake.sol\":4389:4394  false */\n      0x00\n        /* \"contracts/stake.sol\":4378:4379  s */\n      dup4\n        /* \"contracts/stake.sol\":4378:4388  s.isActive */\n      0x04\n      add\n      0x00\n        /* \"contracts/stake.sol\":4378:4394  s.isActive=false */\n      0x0100\n      exp\n      dup2\n      sload\n      dup2\n      0xff\n      mul\n      not\n      and\n      swap1\n      dup4\n      iszero\n      iszero\n      mul\n      or\n      swap1\n      sstore\n      pop\n        /* \"contracts/stake.sol\":4419:4429  msg.sender */\n      caller\n        /* \"contracts/stake.sol\":4409:4453  Withdrawn(msg.sender,totalAmount,stakeIndex) */\n      0xffffffffffffffffffffffffffffffffffffffff\n      and\n      0x92ccf450a286a957af52509bc1c9939d1a6a481783e142e41e2499f0bb66ebc6\n        /* \"contracts/stake.sol\":4430:4441  totalAmount */\n      dup3\n        /* \"contracts/stake.sol\":4442:4452  stakeIndex */\n      dup7\n        /* \"contracts/stake.sol\":4409:4453  Withdrawn(msg.sender,totalAmount,stakeIndex) */\n      mload(0x40)\n      tag_106\n      swap3\n      swap2\n      swap1\n      tag_107\n      jump\t// in\n    tag_106:\n      mload(0x40)\n      dup1\n      swap2\n      sub\n      swap1\n      log2\n        /* \"contracts/stake.sol\":3937:4460  {... */\n      pop\n      pop\n      pop\n        /* \"contracts/stake.sol\":3890:4460  function withdraw(uint256 stakeIndex) external {... */\n      pop\n      jump\t// out\n        /* \"contracts/stake.sol\":740:766  IERC20 public stakingToken */\n    tag_27:\n      0x00\n      0x00\n      swap1\n      sload\n      swap1\n      0x0100\n      exp\n      swap1\n      div\n      0xffffffffffffffffffffffffffffffffffffffff\n      and\n      dup2\n      jump\t// out\n        /* \"contracts/stake.sol\":4701:5499  function getUserActiveStakes(address user) external view returns (Stake[] memory) {       ... */\n    tag_33:\n        /* \"contracts/stake.sol\":4767:4781  Stake[] memory */\n      0x60\n        /* \"contracts/stake.sol\":4809:4828  uint256 activeCount */\n      0x00\n        /* \"contracts/stake.sol\":4843:4852  uint256 i */\n      0x00\n        /* \"contracts/stake.sol\":4853:4854  0 */\n      0x00\n        /* \"contracts/stake.sol\":4843:4854  uint256 i=0 */\n      swap1\n      pop\n        /* \"contracts/stake.sol\":4839:5051  for(uint256 i=0;i<userStakeIndexes[user].length;i++){... */\n    tag_109:\n        /* \"contracts/stake.sol\":4857:4873  userStakeIndexes */\n      0x04\n        /* \"contracts/stake.sol\":4857:4879  userStakeIndexes[user] */\n      0x00\n        /* \"contracts/stake.sol\":4874:4878  user */\n      dup6\n        /* \"contracts/stake.sol\":4857:4879  userStakeIndexes[user] */\n      0xffffffffffffffffffffffffffffffffffffffff\n      and\n      0xffffffffffffffffffffffffffffffffffffffff\n      and\n      dup2\n      mstore\n      0x20\n      add\n      swap1\n      dup2\n      mstore\n      0x20\n      add\n      0x00\n      keccak256\n        /* \"contracts/stake.sol\":4857:4886  userStakeIndexes[user].length */\n      dup1\n      sload\n      swap1\n      pop\n        /* \"contracts/stake.sol\":4855:4856  i */\n      dup2\n        /* \"contracts/stake.sol\":4855:4886  i<userStakeIndexes[user].length */\n      lt\n        /* \"contracts/stake.sol\":4839:5051  for(uint256 i=0;i<userStakeIndexes[user].length;i++){... */\n      iszero\n      tag_110\n      jumpi\n        /* \"contracts/stake.sol\":4905:4918  uint256 index */\n      0x00\n        /* \"contracts/stake.sol\":4919:4935  userStakeIndexes */\n      0x04\n        /* \"contracts/stake.sol\":4919:4941  userStakeIndexes[user] */\n      0x00\n        /* \"contracts/stake.sol\":4936:4940  user */\n      dup7\n        /* \"contracts/stake.sol\":4919:4941  userStakeIndexes[user] */\n      0xffffffffffffffffffffffffffffffffffffffff\n      and\n      0xffffffffffffffffffffffffffffffffffffffff\n      and\n      dup2\n      mstore\n      0x20\n      add\n      swap1\n      dup2\n      mstore\n      0x20\n      add\n      0x00\n      keccak256\n        /* \"contracts/stake.sol\":4942:4943  i */\n      dup3\n        /* \"contracts/stake.sol\":4919:4944  userStakeIndexes[user][i] */\n      dup2\n      sload\n      dup2\n      lt\n      tag_112\n      jumpi\n      tag_113\n      tag_114\n      jump\t// in\n    tag_113:\n    tag_112:\n      swap1\n      0x00\n      mstore\n      keccak256(0x00, 0x20)\n      add\n      sload\n        /* \"contracts/stake.sol\":4905:4944  uint256 index=userStakeIndexes[user][i] */\n      swap1\n      pop\n        /* \"contracts/stake.sol\":4961:4971  userStakes */\n      0x02\n        /* \"contracts/stake.sol\":4961:4977  userStakes[user] */\n      0x00\n        /* \"contracts/stake.sol\":4972:4976  user */\n      dup7\n        /* \"contracts/stake.sol\":4961:4977  userStakes[user] */\n      0xffffffffffffffffffffffffffffffffffffffff\n      and\n      0xffffffffffffffffffffffffffffffffffffffff\n      and\n      dup2\n      mstore\n      0x20\n      add\n      swap1\n      dup2\n      mstore\n      0x20\n      add\n      0x00\n      keccak256\n        /* \"contracts/stake.sol\":4961:4984  userStakes[user][index] */\n      0x00\n        /* \"contracts/stake.sol\":4978:4983  index */\n      dup3\n        /* \"contracts/stake.sol\":4961:4984  userStakes[user][index] */\n      dup2\n      mstore\n      0x20\n      add\n      swap1\n      dup2\n      mstore\n      0x20\n      add\n      0x00\n      keccak256\n        /* \"contracts/stake.sol\":4961:4993  userStakes[user][index].isActive */\n      0x04\n      add\n      0x00\n      swap1\n      sload\n      swap1\n      0x0100\n      exp\n      swap1\n      div\n      0xff\n      and\n        /* \"contracts/stake.sol\":4958:5040  if(userStakes[user][index].isActive){... */\n      iszero\n      tag_116\n      jumpi\n        /* \"contracts/stake.sol\":5012:5025  activeCount++ */\n      dup3\n      dup1\n      tag_117\n      swap1\n      tag_118\n      jump\t// in\n    tag_117:\n      swap4\n      pop\n      pop\n        /* \"contracts/stake.sol\":4958:5040  if(userStakes[user][index].isActive){... */\n    tag_116:\n        /* \"contracts/stake.sol\":4891:5051  {... */\n      pop\n        /* \"contracts/stake.sol\":4887:4890  i++ */\n      dup1\n      dup1\n      0x01\n      add\n      swap2\n      pop\n      pop\n        /* \"contracts/stake.sol\":4839:5051  for(uint256 i=0;i<userStakeIndexes[user].length;i++){... */\n      jump(tag_109)\n    tag_110:\n      pop\n        /* \"contracts/stake.sol\":5060:5087  Stake[] memory activeStakes */\n      0x00\n        /* \"contracts/stake.sol\":5102:5113  activeCount */\n      dup2\n        /* \"contracts/stake.sol\":5090:5114  new Stake[](activeCount) */\n      0xffffffffffffffff\n      dup2\n      gt\n      iszero\n      tag_119\n      jumpi\n      tag_120\n      tag_121\n      jump\t// in\n    tag_120:\n    tag_119:\n      mload(0x40)\n      swap1\n      dup1\n      dup3\n      mstore\n      dup1\n      0x20\n      mul\n      0x20\n      add\n      dup3\n      add\n      0x40\n      mstore\n      dup1\n      iszero\n      tag_122\n      jumpi\n      dup2\n      0x20\n      add\n    tag_123:\n      tag_124\n      tag_125\n      jump\t// in\n    tag_124:\n      dup2\n      mstore\n      0x20\n      add\n      swap1\n      0x01\n      swap1\n      sub\n      swap1\n      dup2\n      tag_123\n      jumpi\n      swap1\n      pop\n    tag_122:\n      pop\n        /* \"contracts/stake.sol\":5060:5114  Stake[] memory activeStakes = new Stake[](activeCount) */\n      swap1\n      pop\n        /* \"contracts/stake.sol\":5124:5143  uint256 activeIndex */\n      0x00\n        /* \"contracts/stake.sol\":5144:5145  0 */\n      0x00\n        /* \"contracts/stake.sol\":5124:5145  uint256 activeIndex=0 */\n      swap1\n      pop\n        /* \"contracts/stake.sol\":5161:5170  uint256 i */\n      0x00\n        /* \"contracts/stake.sol\":5173:5174  0 */\n      0x00\n        /* \"contracts/stake.sol\":5161:5174  uint256 i = 0 */\n      swap1\n      pop\n        /* \"contracts/stake.sol\":5156:5455  for (uint256 i = 0; i < userStakeIndexes[user].length; i++) {... */\n    tag_126:\n        /* \"contracts/stake.sol\":5180:5196  userStakeIndexes */\n      0x04\n        /* \"contracts/stake.sol\":5180:5202  userStakeIndexes[user] */\n      0x00\n        /* \"contracts/stake.sol\":5197:5201  user */\n      dup8\n        /* \"contracts/stake.sol\":5180:5202  userStakeIndexes[user] */\n      0xffffffffffffffffffffffffffffffffffffffff\n      and\n      0xffffffffffffffffffffffffffffffffffffffff\n      and\n      dup2\n      mstore\n      0x20\n      add\n      swap1\n      dup2\n      mstore\n      0x20\n      add\n      0x00\n      keccak256\n        /* \"contracts/stake.sol\":5180:5209  userStakeIndexes[user].length */\n      dup1\n      sload\n      swap1\n      pop\n        /* \"contracts/stake.sol\":5176:5177  i */\n      dup2\n        /* \"contracts/stake.sol\":5176:5209  i < userStakeIndexes[user].length */\n      lt\n        /* \"contracts/stake.sol\":5156:5455  for (uint256 i = 0; i < userStakeIndexes[user].length; i++) {... */\n      iszero\n      tag_127\n      jumpi\n        /* \"contracts/stake.sol\":5230:5243  uint256 index */\n      0x00\n        /* \"contracts/stake.sol\":5244:5260  userStakeIndexes */\n      0x04\n        /* \"contracts/stake.sol\":5244:5266  userStakeIndexes[user] */\n      0x00\n        /* \"contracts/stake.sol\":5261:5265  user */\n      dup9\n        /* \"contracts/stake.sol\":5244:5266  userStakeIndexes[user] */\n      0xffffffffffffffffffffffffffffffffffffffff\n      and\n      0xffffffffffffffffffffffffffffffffffffffff\n      and\n      dup2\n      mstore\n      0x20\n      add\n      swap1\n      dup2\n      mstore\n      0x20\n      add\n      0x00\n      keccak256\n        /* \"contracts/stake.sol\":5267:5268  i */\n      dup3\n        /* \"contracts/stake.sol\":5244:5269  userStakeIndexes[user][i] */\n      dup2\n      sload\n      dup2\n      lt\n      tag_129\n      jumpi\n      tag_130\n      tag_114\n      jump\t// in\n    tag_130:\n    tag_129:\n      swap1\n      0x00\n      mstore\n      keccak256(0x00, 0x20)\n      add\n      sload\n        /* \"contracts/stake.sol\":5230:5269  uint256 index=userStakeIndexes[user][i] */\n      swap1\n      pop\n        /* \"contracts/stake.sol\":5283:5298  Stake storage s */\n      0x00\n        /* \"contracts/stake.sol\":5301:5311  userStakes */\n      0x02\n        /* \"contracts/stake.sol\":5301:5317  userStakes[user] */\n      0x00\n        /* \"contracts/stake.sol\":5312:5316  user */\n      dup10\n        /* \"contracts/stake.sol\":5301:5317  userStakes[user] */\n      0xffffffffffffffffffffffffffffffffffffffff\n      and\n      0xffffffffffffffffffffffffffffffffffffffff\n      and\n      dup2\n      mstore\n      0x20\n      add\n      swap1\n      dup2\n      mstore\n      0x20\n      add\n      0x00\n      keccak256\n        /* \"contracts/stake.sol\":5301:5324  userStakes[user][index] */\n      0x00\n        /* \"contracts/stake.sol\":5318:5323  index */\n      dup4\n        /* \"contracts/stake.sol\":5301:5324  userStakes[user][index] */\n      dup2\n      mstore\n      0x20\n      add\n      swap1\n      dup2\n      mstore\n      0x20\n      add\n      0x00\n      keccak256\n        /* \"contracts/stake.sol\":5283:5324  Stake storage s = userStakes[user][index] */\n      swap1\n      pop\n        /* \"contracts/stake.sol\":5342:5343  s */\n      dup1\n        /* \"contracts/stake.sol\":5342:5352  s.isActive */\n      0x04\n      add\n      0x00\n      swap1\n      sload\n      swap1\n      0x0100\n      exp\n      swap1\n      div\n      0xff\n      and\n        /* \"contracts/stake.sol\":5338:5445  if (s.isActive) {... */\n      iszero\n      tag_132\n      jumpi\n        /* \"contracts/stake.sol\":5398:5399  s */\n      dup1\n        /* \"contracts/stake.sol\":5372:5399  activeStakes[activeIndex]=s */\n      mload(0x40)\n      dup1\n      0xc0\n      add\n      0x40\n      mstore\n      swap1\n      dup2\n      0x00\n      dup3\n      add\n      sload\n      dup2\n      mstore\n      0x20\n      add\n      0x01\n      dup3\n      add\n      sload\n      dup2\n      mstore\n      0x20\n      add\n      0x02\n      dup3\n      add\n      sload\n      dup2\n      mstore\n      0x20\n      add\n      0x03\n      dup3\n      add\n      sload\n      dup2\n      mstore\n      0x20\n      add\n      0x04\n      dup3\n      add\n      0x00\n      swap1\n      sload\n      swap1\n      0x0100\n      exp\n      swap1\n      div\n      0xff\n      and\n      iszero\n      iszero\n      iszero\n      iszero\n      dup2\n      mstore\n      0x20\n      add\n      0x05\n      dup3\n      add\n      sload\n      dup2\n      mstore\n      pop\n      pop\n        /* \"contracts/stake.sol\":5372:5384  activeStakes */\n      dup6\n        /* \"contracts/stake.sol\":5385:5396  activeIndex */\n      dup6\n        /* \"contracts/stake.sol\":5372:5397  activeStakes[activeIndex] */\n      dup2\n      mload\n      dup2\n      lt\n      tag_133\n      jumpi\n      tag_134\n      tag_114\n      jump\t// in\n    tag_134:\n    tag_133:\n      0x20\n      mul\n      0x20\n      add\n      add\n        /* \"contracts/stake.sol\":5372:5399  activeStakes[activeIndex]=s */\n      dup2\n      swap1\n      mstore\n      pop\n        /* \"contracts/stake.sol\":5417:5430  activeIndex++ */\n      dup4\n      dup1\n      tag_135\n      swap1\n      tag_118\n      jump\t// in\n    tag_135:\n      swap5\n      pop\n      pop\n        /* \"contracts/stake.sol\":5338:5445  if (s.isActive) {... */\n    tag_132:\n        /* \"contracts/stake.sol\":5216:5455  {... */\n      pop\n      pop\n        /* \"contracts/stake.sol\":5211:5214  i++ */\n      dup1\n      dup1\n      0x01\n      add\n      swap2\n      pop\n      pop\n        /* \"contracts/stake.sol\":5156:5455  for (uint256 i = 0; i < userStakeIndexes[user].length; i++) {... */\n      jump(tag_126)\n    tag_127:\n      pop\n        /* \"contracts/stake.sol\":5480:5492  activeStakes */\n      dup2\n        /* \"contracts/stake.sol\":5473:5492  return activeStakes */\n      swap4\n      pop\n      pop\n      pop\n      pop\n        /* \"contracts/stake.sol\":4701:5499  function getUserActiveStakes(address user) external view returns (Stake[] memory) {       ... */\n      swap2\n      swap1\n      pop\n      jump\t// out\n        /* \"contracts/stake.sol\":973:1023  mapping(uint256=>address) public stakeOwnerMapping */\n    tag_38:\n      mstore(0x20, 0x03)\n      dup1\n      0x00\n      mstore\n      keccak256(0x00, 0x40)\n      0x00\n      swap2\n      pop\n      sload\n      swap1\n      0x0100\n      exp\n      swap1\n      div\n      0xffffffffffffffffffffffffffffffffffffffff\n      and\n      dup2\n      jump\t// out\n        /* \"contracts/stake.sol\":875:936  mapping(address => mapping(uint256=>Stake)) public userStakes */\n    tag_44:\n      mstore(0x20, 0x02)\n      dup2\n      0x00\n      mstore\n      mstore(0x20, keccak256(0x00, 0x40))\n      dup1\n      0x00\n      mstore\n      keccak256(0x00, 0x40)\n      0x00\n      swap2\n      pop\n      swap2\n      pop\n      pop\n      dup1\n      0x00\n      add\n      sload\n      swap1\n      dup1\n      0x01\n      add\n      sload\n      swap1\n      dup1\n      0x02\n      add\n      sload\n      swap1\n      dup1\n      0x03\n      add\n      sload\n      swap1\n      dup1\n      0x04\n      add\n      0x00\n      swap1\n      sload\n      swap1\n      0x0100\n      exp\n      swap1\n      div\n      0xff\n      and\n      swap1\n      dup1\n      0x05\n      add\n      sload\n      swap1\n      pop\n      dup7\n      jump\t// out\n        /* \"contracts/stake.sol\":1029:1082  mapping(address => uint256[]) public userStakeIndexes */\n    tag_49:\n      mstore(0x20, 0x04)\n      dup2\n      0x00\n      mstore\n      keccak256(0x00, 0x40)\n      dup2\n      dup2\n      sload\n      dup2\n      lt\n      tag_136\n      jumpi\n      0x00\n      dup1\n      revert\n    tag_136:\n      swap1\n      0x00\n      mstore\n      keccak256(0x00, 0x20)\n      add\n      0x00\n      swap2\n      pop\n      swap2\n      pop\n      pop\n      sload\n      dup2\n      jump\t// out\n        /* \"contracts/stake.sol\":3000:3884  function _getDuration(StakingPeriod period) internal pure returns (timeMapping memory) {... */\n    tag_75:\n        /* \"contracts/stake.sol\":3067:3085  timeMapping memory */\n      tag_138\n      tag_139\n      jump\t// in\n    tag_138:\n        /* \"contracts/stake.sol\":3109:3133  StakingPeriod.ThirtyDays */\n      0x00\n        /* \"contracts/stake.sol\":3101:3133  period==StakingPeriod.ThirtyDays */\n      0x03\n      dup2\n      gt\n      iszero\n      tag_141\n      jumpi\n      tag_142\n      tag_82\n      jump\t// in\n    tag_142:\n    tag_141:\n        /* \"contracts/stake.sol\":3101:3107  period */\n      dup3\n        /* \"contracts/stake.sol\":3101:3133  period==StakingPeriod.ThirtyDays */\n      0x03\n      dup2\n      gt\n      iszero\n      tag_143\n      jumpi\n      tag_144\n      tag_82\n      jump\t// in\n    tag_144:\n    tag_143:\n      sub\n        /* \"contracts/stake.sol\":3098:3877  if(period==StakingPeriod.ThirtyDays){... */\n      tag_145\n      jumpi\n        /* \"contracts/stake.sol\":3155:3245  timeMapping({... */\n      mload(0x40)\n      dup1\n      0x40\n      add\n      0x40\n      mstore\n      dup1\n        /* \"contracts/stake.sol\":3196:3198  30 */\n      0x1e\n        /* \"contracts/stake.sol\":3155:3245  timeMapping({... */\n      dup2\n      mstore\n      0x20\n      add\n        /* \"contracts/stake.sol\":3221:3230  1 minutes */\n      0x3c\n        /* \"contracts/stake.sol\":3155:3245  timeMapping({... */\n      dup2\n      mstore\n      pop\n        /* \"contracts/stake.sol\":3148:3245  return timeMapping({... */\n      swap1\n      pop\n      jump(tag_140)\n        /* \"contracts/stake.sol\":3098:3877  if(period==StakingPeriod.ThirtyDays){... */\n    tag_145:\n        /* \"contracts/stake.sol\":3272:3296  StakingPeriod.NinetyDays */\n      0x01\n        /* \"contracts/stake.sol\":3264:3296  period==StakingPeriod.NinetyDays */\n      0x03\n      dup2\n      gt\n      iszero\n      tag_147\n      jumpi\n      tag_148\n      tag_82\n      jump\t// in\n    tag_148:\n    tag_147:\n        /* \"contracts/stake.sol\":3264:3270  period */\n      dup3\n        /* \"contracts/stake.sol\":3264:3296  period==StakingPeriod.NinetyDays */\n      0x03\n      dup2\n      gt\n      iszero\n      tag_149\n      jumpi\n      tag_150\n      tag_82\n      jump\t// in\n    tag_150:\n    tag_149:\n      sub\n        /* \"contracts/stake.sol\":3261:3877  if(period==StakingPeriod.NinetyDays){... */\n      tag_151\n      jumpi\n        /* \"contracts/stake.sol\":3318:3408  timeMapping({... */\n      mload(0x40)\n      dup1\n      0x40\n      add\n      0x40\n      mstore\n      dup1\n        /* \"contracts/stake.sol\":3359:3361  90 */\n      0x5a\n        /* \"contracts/stake.sol\":3318:3408  timeMapping({... */\n      dup2\n      mstore\n      0x20\n      add\n        /* \"contracts/stake.sol\":3384:3393  3 minutes */\n      0xb4\n        /* \"contracts/stake.sol\":3318:3408  timeMapping({... */\n      dup2\n      mstore\n      pop\n        /* \"contracts/stake.sol\":3311:3408  return timeMapping({... */\n      swap1\n      pop\n      jump(tag_140)\n        /* \"contracts/stake.sol\":3261:3877  if(period==StakingPeriod.NinetyDays){... */\n    tag_151:\n        /* \"contracts/stake.sol\":3435:3466  StakingPeriod.HundredEightyDays */\n      0x02\n        /* \"contracts/stake.sol\":3427:3466  period==StakingPeriod.HundredEightyDays */\n      0x03\n      dup2\n      gt\n      iszero\n      tag_153\n      jumpi\n      tag_154\n      tag_82\n      jump\t// in\n    tag_154:\n    tag_153:\n        /* \"contracts/stake.sol\":3427:3433  period */\n      dup3\n        /* \"contracts/stake.sol\":3427:3466  period==StakingPeriod.HundredEightyDays */\n      0x03\n      dup2\n      gt\n      iszero\n      tag_155\n      jumpi\n      tag_156\n      tag_82\n      jump\t// in\n    tag_156:\n    tag_155:\n      sub\n        /* \"contracts/stake.sol\":3424:3877  if(period==StakingPeriod.HundredEightyDays){... */\n      tag_157\n      jumpi\n        /* \"contracts/stake.sol\":3488:3579  timeMapping({... */\n      mload(0x40)\n      dup1\n      0x40\n      add\n      0x40\n      mstore\n      dup1\n        /* \"contracts/stake.sol\":3529:3532  180 */\n      0xb4\n        /* \"contracts/stake.sol\":3488:3579  timeMapping({... */\n      dup2\n      mstore\n      0x20\n      add\n        /* \"contracts/stake.sol\":3555:3564  5 minutes */\n      0x012c\n        /* \"contracts/stake.sol\":3488:3579  timeMapping({... */\n      dup2\n      mstore\n      pop\n        /* \"contracts/stake.sol\":3481:3579  return timeMapping({... */\n      swap1\n      pop\n      jump(tag_140)\n        /* \"contracts/stake.sol\":3424:3877  if(period==StakingPeriod.HundredEightyDays){... */\n    tag_157:\n        /* \"contracts/stake.sol\":3606:3627  StakingPeriod.OneYear */\n      0x03\n        /* \"contracts/stake.sol\":3598:3627  period==StakingPeriod.OneYear */\n      dup1\n      dup2\n      gt\n      iszero\n      tag_159\n      jumpi\n      tag_160\n      tag_82\n      jump\t// in\n    tag_160:\n    tag_159:\n        /* \"contracts/stake.sol\":3598:3604  period */\n      dup3\n        /* \"contracts/stake.sol\":3598:3627  period==StakingPeriod.OneYear */\n      0x03\n      dup2\n      gt\n      iszero\n      tag_161\n      jumpi\n      tag_162\n      tag_82\n      jump\t// in\n    tag_162:\n    tag_161:\n      sub\n        /* \"contracts/stake.sol\":3595:3877  if(period==StakingPeriod.OneYear){... */\n      tag_163\n      jumpi\n        /* \"contracts/stake.sol\":3649:3741  timeMapping({... */\n      mload(0x40)\n      dup1\n      0x40\n      add\n      0x40\n      mstore\n      dup1\n        /* \"contracts/stake.sol\":3690:3693  360 */\n      0x0168\n        /* \"contracts/stake.sol\":3649:3741  timeMapping({... */\n      dup2\n      mstore\n      0x20\n      add\n        /* \"contracts/stake.sol\":3716:3726  10 minutes */\n      0x0258\n        /* \"contracts/stake.sol\":3649:3741  timeMapping({... */\n      dup2\n      mstore\n      pop\n        /* \"contracts/stake.sol\":3642:3741  return timeMapping({... */\n      swap1\n      pop\n      jump(tag_140)\n        /* \"contracts/stake.sol\":3595:3877  if(period==StakingPeriod.OneYear){... */\n    tag_163:\n        /* \"contracts/stake.sol\":3777:3866  timeMapping({... */\n      mload(0x40)\n      dup1\n      0x40\n      add\n      0x40\n      mstore\n      dup1\n        /* \"contracts/stake.sol\":3818:3821  360 */\n      0x0168\n        /* \"contracts/stake.sol\":3777:3866  timeMapping({... */\n      dup2\n      mstore\n      0x20\n      add\n        /* \"contracts/stake.sol\":3844:3851  1 hours */\n      0x0e10\n        /* \"contracts/stake.sol\":3777:3866  timeMapping({... */\n      dup2\n      mstore\n      pop\n        /* \"contracts/stake.sol\":3770:3866  return timeMapping({... */\n      swap1\n      pop\n        /* \"contracts/stake.sol\":3000:3884  function _getDuration(StakingPeriod period) internal pure returns (timeMapping memory) {... */\n    tag_140:\n      swap2\n      swap1\n      pop\n      jump\t// out\n        /* \"contracts/stake.sol\":4497:4650  function _generateStakeId() internal returns (uint256) {... */\n    tag_79:\n        /* \"contracts/stake.sol\":4543:4550  uint256 */\n      0x00\n        /* \"contracts/stake.sol\":4604:4619  block.timestamp */\n      timestamp\n        /* \"contracts/stake.sol\":4621:4631  msg.sender */\n      caller\n        /* \"contracts/stake.sol\":4633:4638  nonce */\n      0x05\n      0x00\n        /* \"contracts/stake.sol\":4633:4640  nonce++ */\n      dup2\n      sload\n      dup1\n      swap3\n      swap2\n      swap1\n      tag_166\n      swap1\n      tag_118\n      jump\t// in\n    tag_166:\n      swap2\n      swap1\n      pop\n      sstore\n        /* \"contracts/stake.sol\":4587:4641  abi.encodePacked(block.timestamp, msg.sender, nonce++) */\n      add(0x20, mload(0x40))\n      tag_167\n      swap4\n      swap3\n      swap2\n      swap1\n      tag_168\n      jump\t// in\n    tag_167:\n      mload(0x40)\n      0x20\n      dup2\n      dup4\n      sub\n      sub\n      dup2\n      mstore\n      swap1\n      0x40\n      mstore\n        /* \"contracts/stake.sol\":4577:4642  keccak256(abi.encodePacked(block.timestamp, msg.sender, nonce++)) */\n      dup1\n      mload\n      swap1\n      0x20\n      add\n      keccak256\n        /* \"contracts/stake.sol\":4569:4643  uint256(keccak256(abi.encodePacked(block.timestamp, msg.sender, nonce++))) */\n      0x00\n      shr\n        /* \"contracts/stake.sol\":4562:4643  return uint256(keccak256(abi.encodePacked(block.timestamp, msg.sender, nonce++))) */\n      swap1\n      pop\n        /* \"contracts/stake.sol\":4497:4650  function _generateStakeId() internal returns (uint256) {... */\n      swap1\n      jump\t// out\n    tag_125:\n      mload(0x40)\n      dup1\n      0xc0\n      add\n      0x40\n      mstore\n      dup1\n      0x00\n      dup2\n      mstore\n      0x20\n      add\n      0x00\n      dup2\n      mstore\n      0x20\n      add\n      0x00\n      dup2\n      mstore\n      0x20\n      add\n      0x00\n      dup2\n      mstore\n      0x20\n      add\n      iszero(iszero(0x00))\n      dup2\n      mstore\n      0x20\n      add\n      0x00\n      dup2\n      mstore\n      pop\n      swap1\n      jump\t// out\n    tag_139:\n      mload(0x40)\n      dup1\n      0x40\n      add\n      0x40\n      mstore\n      dup1\n      0x00\n      dup2\n      mstore\n      0x20\n      add\n      0x00\n      dup2\n      mstore\n      pop\n      swap1\n      jump\t// out\n        /* \"#utility.yul\":88:205   */\n    tag_170:\n        /* \"#utility.yul\":197:198   */\n      0x00\n        /* \"#utility.yul\":194:195   */\n      0x00\n        /* \"#utility.yul\":187:199   */\n      revert\n        /* \"#utility.yul\":334:411   */\n    tag_172:\n        /* \"#utility.yul\":371:378   */\n      0x00\n        /* \"#utility.yul\":400:405   */\n      dup2\n        /* \"#utility.yul\":389:405   */\n      swap1\n      pop\n        /* \"#utility.yul\":334:411   */\n      swap2\n      swap1\n      pop\n      jump\t// out\n        /* \"#utility.yul\":417:539   */\n    tag_173:\n        /* \"#utility.yul\":490:514   */\n      tag_233\n        /* \"#utility.yul\":508:513   */\n      dup2\n        /* \"#utility.yul\":490:514   */\n      tag_172\n      jump\t// in\n    tag_233:\n        /* \"#utility.yul\":483:488   */\n      dup2\n        /* \"#utility.yul\":480:515   */\n      eq\n        /* \"#utility.yul\":470:533   */\n      tag_234\n      jumpi\n        /* \"#utility.yul\":529:530   */\n      0x00\n        /* \"#utility.yul\":526:527   */\n      0x00\n        /* \"#utility.yul\":519:531   */\n      revert\n        /* \"#utility.yul\":470:533   */\n    tag_234:\n        /* \"#utility.yul\":417:539   */\n      pop\n      jump\t// out\n        /* \"#utility.yul\":545:684   */\n    tag_174:\n        /* \"#utility.yul\":591:596   */\n      0x00\n        /* \"#utility.yul\":629:635   */\n      dup2\n        /* \"#utility.yul\":616:636   */\n      calldataload\n        /* \"#utility.yul\":607:636   */\n      swap1\n      pop\n        /* \"#utility.yul\":645:678   */\n      tag_236\n        /* \"#utility.yul\":672:677   */\n      dup2\n        /* \"#utility.yul\":645:678   */\n      tag_173\n      jump\t// in\n    tag_236:\n        /* \"#utility.yul\":545:684   */\n      swap3\n      swap2\n      pop\n      pop\n      jump\t// out\n        /* \"#utility.yul\":690:806   */\n    tag_175:\n        /* \"#utility.yul\":780:781   */\n      0x04\n        /* \"#utility.yul\":773:778   */\n      dup2\n        /* \"#utility.yul\":770:782   */\n      lt\n        /* \"#utility.yul\":760:800   */\n      tag_238\n      jumpi\n        /* \"#utility.yul\":796:797   */\n      0x00\n        /* \"#utility.yul\":793:794   */\n      0x00\n        /* \"#utility.yul\":786:798   */\n      revert\n        /* \"#utility.yul\":760:800   */\n    tag_238:\n        /* \"#utility.yul\":690:806   */\n      pop\n      jump\t// out\n        /* \"#utility.yul\":812:985   */\n    tag_176:\n        /* \"#utility.yul\":875:880   */\n      0x00\n        /* \"#utility.yul\":913:919   */\n      dup2\n        /* \"#utility.yul\":900:920   */\n      calldataload\n        /* \"#utility.yul\":891:920   */\n      swap1\n      pop\n        /* \"#utility.yul\":929:979   */\n      tag_240\n        /* \"#utility.yul\":973:978   */\n      dup2\n        /* \"#utility.yul\":929:979   */\n      tag_175\n      jump\t// in\n    tag_240:\n        /* \"#utility.yul\":812:985   */\n      swap3\n      swap2\n      pop\n      pop\n      jump\t// out\n        /* \"#utility.yul\":991:1499   */\n    tag_14:\n        /* \"#utility.yul\":1076:1082   */\n      0x00\n        /* \"#utility.yul\":1084:1090   */\n      0x00\n        /* \"#utility.yul\":1133:1135   */\n      0x40\n        /* \"#utility.yul\":1121:1130   */\n      dup4\n        /* \"#utility.yul\":1112:1119   */\n      dup6\n        /* \"#utility.yul\":1108:1131   */\n      sub\n        /* \"#utility.yul\":1104:1136   */\n      slt\n        /* \"#utility.yul\":1101:1220   */\n      iszero\n      tag_242\n      jumpi\n        /* \"#utility.yul\":1139:1218   */\n      tag_243\n      tag_170\n      jump\t// in\n    tag_243:\n        /* \"#utility.yul\":1101:1220   */\n    tag_242:\n        /* \"#utility.yul\":1259:1260   */\n      0x00\n        /* \"#utility.yul\":1284:1337   */\n      tag_244\n        /* \"#utility.yul\":1329:1336   */\n      dup6\n        /* \"#utility.yul\":1320:1326   */\n      dup3\n        /* \"#utility.yul\":1309:1318   */\n      dup7\n        /* \"#utility.yul\":1305:1327   */\n      add\n        /* \"#utility.yul\":1284:1337   */\n      tag_174\n      jump\t// in\n    tag_244:\n        /* \"#utility.yul\":1274:1337   */\n      swap3\n      pop\n        /* \"#utility.yul\":1230:1347   */\n      pop\n        /* \"#utility.yul\":1386:1388   */\n      0x20\n        /* \"#utility.yul\":1412:1482   */\n      tag_245\n        /* \"#utility.yul\":1474:1481   */\n      dup6\n        /* \"#utility.yul\":1465:1471   */\n      dup3\n        /* \"#utility.yul\":1454:1463   */\n      dup7\n        /* \"#utility.yul\":1450:1472   */\n      add\n        /* \"#utility.yul\":1412:1482   */\n      tag_176\n      jump\t// in\n    tag_245:\n        /* \"#utility.yul\":1402:1482   */\n      swap2\n      pop\n        /* \"#utility.yul\":1357:1492   */\n      pop\n        /* \"#utility.yul\":991:1499   */\n      swap3\n      pop\n      swap3\n      swap1\n      pop\n      jump\t// out\n        /* \"#utility.yul\":1505:1868   */\n    tag_18:\n        /* \"#utility.yul\":1581:1587   */\n      0x00\n        /* \"#utility.yul\":1630:1632   */\n      0x20\n        /* \"#utility.yul\":1618:1627   */\n      dup3\n        /* \"#utility.yul\":1609:1616   */\n      dup5\n        /* \"#utility.yul\":1605:1628   */\n      sub\n        /* \"#utility.yul\":1601:1633   */\n      slt\n        /* \"#utility.yul\":1598:1717   */\n      iszero\n      tag_247\n      jumpi\n        /* \"#utility.yul\":1636:1715   */\n      tag_248\n      tag_170\n      jump\t// in\n    tag_248:\n        /* \"#utility.yul\":1598:1717   */\n    tag_247:\n        /* \"#utility.yul\":1756:1757   */\n      0x00\n        /* \"#utility.yul\":1781:1851   */\n      tag_249\n        /* \"#utility.yul\":1843:1850   */\n      dup5\n        /* \"#utility.yul\":1834:1840   */\n      dup3\n        /* \"#utility.yul\":1823:1832   */\n      dup6\n        /* \"#utility.yul\":1819:1841   */\n      add\n        /* \"#utility.yul\":1781:1851   */\n      tag_176\n      jump\t// in\n    tag_249:\n        /* \"#utility.yul\":1771:1851   */\n      swap2\n      pop\n        /* \"#utility.yul\":1727:1861   */\n      pop\n        /* \"#utility.yul\":1505:1868   */\n      swap3\n      swap2\n      pop\n      pop\n      jump\t// out\n        /* \"#utility.yul\":1874:1992   */\n    tag_177:\n        /* \"#utility.yul\":1961:1985   */\n      tag_251\n        /* \"#utility.yul\":1979:1984   */\n      dup2\n        /* \"#utility.yul\":1961:1985   */\n      tag_172\n      jump\t// in\n    tag_251:\n        /* \"#utility.yul\":1956:1959   */\n      dup3\n        /* \"#utility.yul\":1949:1986   */\n      mstore\n        /* \"#utility.yul\":1874:1992   */\n      pop\n      pop\n      jump\t// out\n        /* \"#utility.yul\":1998:2220   */\n    tag_21:\n        /* \"#utility.yul\":2091:2095   */\n      0x00\n        /* \"#utility.yul\":2129:2131   */\n      0x20\n        /* \"#utility.yul\":2118:2127   */\n      dup3\n        /* \"#utility.yul\":2114:2132   */\n      add\n        /* \"#utility.yul\":2106:2132   */\n      swap1\n      pop\n        /* \"#utility.yul\":2142:2213   */\n      tag_253\n        /* \"#utility.yul\":2210:2211   */\n      0x00\n        /* \"#utility.yul\":2199:2208   */\n      dup4\n        /* \"#utility.yul\":2195:2212   */\n      add\n        /* \"#utility.yul\":2186:2192   */\n      dup5\n        /* \"#utility.yul\":2142:2213   */\n      tag_177\n      jump\t// in\n    tag_253:\n        /* \"#utility.yul\":1998:2220   */\n      swap3\n      swap2\n      pop\n      pop\n      jump\t// out\n        /* \"#utility.yul\":2226:2555   */\n    tag_24:\n        /* \"#utility.yul\":2285:2291   */\n      0x00\n        /* \"#utility.yul\":2334:2336   */\n      0x20\n        /* \"#utility.yul\":2322:2331   */\n      dup3\n        /* \"#utility.yul\":2313:2320   */\n      dup5\n        /* \"#utility.yul\":2309:2332   */\n      sub\n        /* \"#utility.yul\":2305:2337   */\n      slt\n        /* \"#utility.yul\":2302:2421   */\n      iszero\n      tag_255\n      jumpi\n        /* \"#utility.yul\":2340:2419   */\n      tag_256\n      tag_170\n      jump\t// in\n    tag_256:\n        /* \"#utility.yul\":2302:2421   */\n    tag_255:\n        /* \"#utility.yul\":2460:2461   */\n      0x00\n        /* \"#utility.yul\":2485:2538   */\n      tag_257\n        /* \"#utility.yul\":2530:2537   */\n      dup5\n        /* \"#utility.yul\":2521:2527   */\n      dup3\n        /* \"#utility.yul\":2510:2519   */\n      dup6\n        /* \"#utility.yul\":2506:2528   */\n      add\n        /* \"#utility.yul\":2485:2538   */\n      tag_174\n      jump\t// in\n    tag_257:\n        /* \"#utility.yul\":2475:2538   */\n      swap2\n      pop\n        /* \"#utility.yul\":2431:2548   */\n      pop\n        /* \"#utility.yul\":2226:2555   */\n      swap3\n      swap2\n      pop\n      pop\n      jump\t// out\n        /* \"#utility.yul\":2561:2687   */\n    tag_178:\n        /* \"#utility.yul\":2598:2605   */\n      0x00\n        /* \"#utility.yul\":2638:2680   */\n      0xffffffffffffffffffffffffffffffffffffffff\n        /* \"#utility.yul\":2631:2636   */\n      dup3\n        /* \"#utility.yul\":2627:2681   */\n      and\n        /* \"#utility.yul\":2616:2681   */\n      swap1\n      pop\n        /* \"#utility.yul\":2561:2687   */\n      swap2\n      swap1\n      pop\n      jump\t// out\n        /* \"#utility.yul\":2693:2753   */\n    tag_179:\n        /* \"#utility.yul\":2721:2724   */\n      0x00\n        /* \"#utility.yul\":2742:2747   */\n      dup2\n        /* \"#utility.yul\":2735:2747   */\n      swap1\n      pop\n        /* \"#utility.yul\":2693:2753   */\n      swap2\n      swap1\n      pop\n      jump\t// out\n        /* \"#utility.yul\":2759:2901   */\n    tag_180:\n        /* \"#utility.yul\":2809:2818   */\n      0x00\n        /* \"#utility.yul\":2842:2895   */\n      tag_261\n        /* \"#utility.yul\":2860:2894   */\n      tag_262\n        /* \"#utility.yul\":2869:2893   */\n      tag_263\n        /* \"#utility.yul\":2887:2892   */\n      dup5\n        /* \"#utility.yul\":2869:2893   */\n      tag_178\n      jump\t// in\n    tag_263:\n        /* \"#utility.yul\":2860:2894   */\n      tag_179\n      jump\t// in\n    tag_262:\n        /* \"#utility.yul\":2842:2895   */\n      tag_178\n      jump\t// in\n    tag_261:\n        /* \"#utility.yul\":2829:2895   */\n      swap1\n      pop\n        /* \"#utility.yul\":2759:2901   */\n      swap2\n      swap1\n      pop\n      jump\t// out\n        /* \"#utility.yul\":2907:3033   */\n    tag_181:\n        /* \"#utility.yul\":2957:2966   */\n      0x00\n        /* \"#utility.yul\":2990:3027   */\n      tag_265\n        /* \"#utility.yul\":3021:3026   */\n      dup3\n        /* \"#utility.yul\":2990:3027   */\n      tag_180\n      jump\t// in\n    tag_265:\n        /* \"#utility.yul\":2977:3027   */\n      swap1\n      pop\n        /* \"#utility.yul\":2907:3033   */\n      swap2\n      swap1\n      pop\n      jump\t// out\n        /* \"#utility.yul\":3039:3179   */\n    tag_182:\n        /* \"#utility.yul\":3103:3112   */\n      0x00\n        /* \"#utility.yul\":3136:3173   */\n      tag_267\n        /* \"#utility.yul\":3167:3172   */\n      dup3\n        /* \"#utility.yul\":3136:3173   */\n      tag_181\n      jump\t// in\n    tag_267:\n        /* \"#utility.yul\":3123:3173   */\n      swap1\n      pop\n        /* \"#utility.yul\":3039:3179   */\n      swap2\n      swap1\n      pop\n      jump\t// out\n        /* \"#utility.yul\":3185:3344   */\n    tag_183:\n        /* \"#utility.yul\":3286:3337   */\n      tag_269\n        /* \"#utility.yul\":3331:3336   */\n      dup2\n        /* \"#utility.yul\":3286:3337   */\n      tag_182\n      jump\t// in\n    tag_269:\n        /* \"#utility.yul\":3281:3284   */\n      dup3\n        /* \"#utility.yul\":3274:3338   */\n      mstore\n        /* \"#utility.yul\":3185:3344   */\n      pop\n      pop\n      jump\t// out\n        /* \"#utility.yul\":3350:3600   */\n    tag_29:\n        /* \"#utility.yul\":3457:3461   */\n      0x00\n        /* \"#utility.yul\":3495:3497   */\n      0x20\n        /* \"#utility.yul\":3484:3493   */\n      dup3\n        /* \"#utility.yul\":3480:3498   */\n      add\n        /* \"#utility.yul\":3472:3498   */\n      swap1\n      pop\n        /* \"#utility.yul\":3508:3593   */\n      tag_271\n        /* \"#utility.yul\":3590:3591   */\n      0x00\n        /* \"#utility.yul\":3579:3588   */\n      dup4\n        /* \"#utility.yul\":3575:3592   */\n      add\n        /* \"#utility.yul\":3566:3572   */\n      dup5\n        /* \"#utility.yul\":3508:3593   */\n      tag_183\n      jump\t// in\n    tag_271:\n        /* \"#utility.yul\":3350:3600   */\n      swap3\n      swap2\n      pop\n      pop\n      jump\t// out\n        /* \"#utility.yul\":3606:3702   */\n    tag_184:\n        /* \"#utility.yul\":3643:3650   */\n      0x00\n        /* \"#utility.yul\":3672:3696   */\n      tag_273\n        /* \"#utility.yul\":3690:3695   */\n      dup3\n        /* \"#utility.yul\":3672:3696   */\n      tag_178\n      jump\t// in\n    tag_273:\n        /* \"#utility.yul\":3661:3696   */\n      swap1\n      pop\n        /* \"#utility.yul\":3606:3702   */\n      swap2\n      swap1\n      pop\n      jump\t// out\n        /* \"#utility.yul\":3708:3830   */\n    tag_185:\n        /* \"#utility.yul\":3781:3805   */\n      tag_275\n        /* \"#utility.yul\":3799:3804   */\n      dup2\n        /* \"#utility.yul\":3781:3805   */\n      tag_184\n      jump\t// in\n    tag_275:\n        /* \"#utility.yul\":3774:3779   */\n      dup2\n        /* \"#utility.yul\":3771:3806   */\n      eq\n        /* \"#utility.yul\":3761:3824   */\n      tag_276\n      jumpi\n        /* \"#utility.yul\":3820:3821   */\n      0x00\n        /* \"#utility.yul\":3817:3818   */\n      0x00\n        /* \"#utility.yul\":3810:3822   */\n      revert\n        /* \"#utility.yul\":3761:3824   */\n    tag_276:\n        /* \"#utility.yul\":3708:3830   */\n      pop\n      jump\t// out\n        /* \"#utility.yul\":3836:3975   */\n    tag_186:\n        /* \"#utility.yul\":3882:3887   */\n      0x00\n        /* \"#utility.yul\":3920:3926   */\n      dup2\n        /* \"#utility.yul\":3907:3927   */\n      calldataload\n        /* \"#utility.yul\":3898:3927   */\n      swap1\n      pop\n        /* \"#utility.yul\":3936:3969   */\n      tag_278\n        /* \"#utility.yul\":3963:3968   */\n      dup2\n        /* \"#utility.yul\":3936:3969   */\n      tag_185\n      jump\t// in\n    tag_278:\n        /* \"#utility.yul\":3836:3975   */\n      swap3\n      swap2\n      pop\n      pop\n      jump\t// out\n        /* \"#utility.yul\":3981:4310   */\n    tag_32:\n        /* \"#utility.yul\":4040:4046   */\n      0x00\n        /* \"#utility.yul\":4089:4091   */\n      0x20\n        /* \"#utility.yul\":4077:4086   */\n      dup3\n        /* \"#utility.yul\":4068:4075   */\n      dup5\n        /* \"#utility.yul\":4064:4087   */\n      sub\n        /* \"#utility.yul\":4060:4092   */\n      slt\n        /* \"#utility.yul\":4057:4176   */\n      iszero\n      tag_280\n      jumpi\n        /* \"#utility.yul\":4095:4174   */\n      tag_281\n      tag_170\n      jump\t// in\n    tag_281:\n        /* \"#utility.yul\":4057:4176   */\n    tag_280:\n        /* \"#utility.yul\":4215:4216   */\n      0x00\n        /* \"#utility.yul\":4240:4293   */\n      tag_282\n        /* \"#utility.yul\":4285:4292   */\n      dup5\n        /* \"#utility.yul\":4276:4282   */\n      dup3\n        /* \"#utility.yul\":4265:4274   */\n      dup6\n        /* \"#utility.yul\":4261:4283   */\n      add\n        /* \"#utility.yul\":4240:4293   */\n      tag_186\n      jump\t// in\n    tag_282:\n        /* \"#utility.yul\":4230:4293   */\n      swap2\n      pop\n        /* \"#utility.yul\":4186:4303   */\n      pop\n        /* \"#utility.yul\":3981:4310   */\n      swap3\n      swap2\n      pop\n      pop\n      jump\t// out\n        /* \"#utility.yul\":4316:4452   */\n    tag_187:\n        /* \"#utility.yul\":4405:4411   */\n      0x00\n        /* \"#utility.yul\":4439:4444   */\n      dup2\n        /* \"#utility.yul\":4433:4445   */\n      mload\n        /* \"#utility.yul\":4423:4445   */\n      swap1\n      pop\n        /* \"#utility.yul\":4316:4452   */\n      swap2\n      swap1\n      pop\n      jump\t// out\n        /* \"#utility.yul\":4458:4664   */\n    tag_188:\n        /* \"#utility.yul\":4579:4590   */\n      0x00\n        /* \"#utility.yul\":4613:4619   */\n      dup3\n        /* \"#utility.yul\":4608:4611   */\n      dup3\n        /* \"#utility.yul\":4601:4620   */\n      mstore\n        /* \"#utility.yul\":4653:4657   */\n      0x20\n        /* \"#utility.yul\":4648:4651   */\n      dup3\n        /* \"#utility.yul\":4644:4658   */\n      add\n        /* \"#utility.yul\":4629:4658   */\n      swap1\n      pop\n        /* \"#utility.yul\":4458:4664   */\n      swap3\n      swap2\n      pop\n      pop\n      jump\t// out\n        /* \"#utility.yul\":4670:4824   */\n    tag_189:\n        /* \"#utility.yul\":4759:4763   */\n      0x00\n        /* \"#utility.yul\":4782:4785   */\n      dup2\n        /* \"#utility.yul\":4774:4785   */\n      swap1\n      pop\n        /* \"#utility.yul\":4812:4816   */\n      0x20\n        /* \"#utility.yul\":4807:4810   */\n      dup3\n        /* \"#utility.yul\":4803:4817   */\n      add\n        /* \"#utility.yul\":4795:4817   */\n      swap1\n      pop\n        /* \"#utility.yul\":4670:4824   */\n      swap2\n      swap1\n      pop\n      jump\t// out\n        /* \"#utility.yul\":4830:4938   */\n    tag_190:\n        /* \"#utility.yul\":4907:4931   */\n      tag_287\n        /* \"#utility.yul\":4925:4930   */\n      dup2\n        /* \"#utility.yul\":4907:4931   */\n      tag_172\n      jump\t// in\n    tag_287:\n        /* \"#utility.yul\":4902:4905   */\n      dup3\n        /* \"#utility.yul\":4895:4932   */\n      mstore\n        /* \"#utility.yul\":4830:4938   */\n      pop\n      pop\n      jump\t// out\n        /* \"#utility.yul\":4944:5034   */\n    tag_191:\n        /* \"#utility.yul\":4978:4985   */\n      0x00\n        /* \"#utility.yul\":5021:5026   */\n      dup2\n        /* \"#utility.yul\":5014:5027   */\n      iszero\n        /* \"#utility.yul\":5007:5028   */\n      iszero\n        /* \"#utility.yul\":4996:5028   */\n      swap1\n      pop\n        /* \"#utility.yul\":4944:5034   */\n      swap2\n      swap1\n      pop\n      jump\t// out\n        /* \"#utility.yul\":5040:5139   */\n    tag_192:\n        /* \"#utility.yul\":5111:5132   */\n      tag_290\n        /* \"#utility.yul\":5126:5131   */\n      dup2\n        /* \"#utility.yul\":5111:5132   */\n      tag_191\n      jump\t// in\n    tag_290:\n        /* \"#utility.yul\":5106:5109   */\n      dup3\n        /* \"#utility.yul\":5099:5133   */\n      mstore\n        /* \"#utility.yul\":5040:5139   */\n      pop\n      pop\n      jump\t// out\n        /* \"#utility.yul\":5207:6414   */\n    tag_193:\n        /* \"#utility.yul\":5338:5342   */\n      0xc0\n        /* \"#utility.yul\":5333:5336   */\n      dup3\n        /* \"#utility.yul\":5329:5343   */\n      add\n        /* \"#utility.yul\":5427:5431   */\n      0x00\n        /* \"#utility.yul\":5420:5425   */\n      dup3\n        /* \"#utility.yul\":5416:5432   */\n      add\n        /* \"#utility.yul\":5410:5433   */\n      mload\n        /* \"#utility.yul\":5446:5509   */\n      tag_292\n        /* \"#utility.yul\":5503:5507   */\n      0x00\n        /* \"#utility.yul\":5498:5501   */\n      dup6\n        /* \"#utility.yul\":5494:5508   */\n      add\n        /* \"#utility.yul\":5480:5492   */\n      dup3\n        /* \"#utility.yul\":5446:5509   */\n      tag_190\n      jump\t// in\n    tag_292:\n        /* \"#utility.yul\":5353:5519   */\n      pop\n        /* \"#utility.yul\":5606:5610   */\n      0x20\n        /* \"#utility.yul\":5599:5604   */\n      dup3\n        /* \"#utility.yul\":5595:5611   */\n      add\n        /* \"#utility.yul\":5589:5612   */\n      mload\n        /* \"#utility.yul\":5625:5688   */\n      tag_293\n        /* \"#utility.yul\":5682:5686   */\n      0x20\n        /* \"#utility.yul\":5677:5680   */\n      dup6\n        /* \"#utility.yul\":5673:5687   */\n      add\n        /* \"#utility.yul\":5659:5671   */\n      dup3\n        /* \"#utility.yul\":5625:5688   */\n      tag_190\n      jump\t// in\n    tag_293:\n        /* \"#utility.yul\":5529:5698   */\n      pop\n        /* \"#utility.yul\":5783:5787   */\n      0x40\n        /* \"#utility.yul\":5776:5781   */\n      dup3\n        /* \"#utility.yul\":5772:5788   */\n      add\n        /* \"#utility.yul\":5766:5789   */\n      mload\n        /* \"#utility.yul\":5802:5865   */\n      tag_294\n        /* \"#utility.yul\":5859:5863   */\n      0x40\n        /* \"#utility.yul\":5854:5857   */\n      dup6\n        /* \"#utility.yul\":5850:5864   */\n      add\n        /* \"#utility.yul\":5836:5848   */\n      dup3\n        /* \"#utility.yul\":5802:5865   */\n      tag_190\n      jump\t// in\n    tag_294:\n        /* \"#utility.yul\":5708:5875   */\n      pop\n        /* \"#utility.yul\":5963:5967   */\n      0x60\n        /* \"#utility.yul\":5956:5961   */\n      dup3\n        /* \"#utility.yul\":5952:5968   */\n      add\n        /* \"#utility.yul\":5946:5969   */\n      mload\n        /* \"#utility.yul\":5982:6045   */\n      tag_295\n        /* \"#utility.yul\":6039:6043   */\n      0x60\n        /* \"#utility.yul\":6034:6037   */\n      dup6\n        /* \"#utility.yul\":6030:6044   */\n      add\n        /* \"#utility.yul\":6016:6028   */\n      dup3\n        /* \"#utility.yul\":5982:6045   */\n      tag_190\n      jump\t// in\n    tag_295:\n        /* \"#utility.yul\":5885:6055   */\n      pop\n        /* \"#utility.yul\":6141:6145   */\n      0x80\n        /* \"#utility.yul\":6134:6139   */\n      dup3\n        /* \"#utility.yul\":6130:6146   */\n      add\n        /* \"#utility.yul\":6124:6147   */\n      mload\n        /* \"#utility.yul\":6160:6217   */\n      tag_296\n        /* \"#utility.yul\":6211:6215   */\n      0x80\n        /* \"#utility.yul\":6206:6209   */\n      dup6\n        /* \"#utility.yul\":6202:6216   */\n      add\n        /* \"#utility.yul\":6188:6200   */\n      dup3\n        /* \"#utility.yul\":6160:6217   */\n      tag_192\n      jump\t// in\n    tag_296:\n        /* \"#utility.yul\":6065:6227   */\n      pop\n        /* \"#utility.yul\":6315:6319   */\n      0xa0\n        /* \"#utility.yul\":6308:6313   */\n      dup3\n        /* \"#utility.yul\":6304:6320   */\n      add\n        /* \"#utility.yul\":6298:6321   */\n      mload\n        /* \"#utility.yul\":6334:6397   */\n      tag_297\n        /* \"#utility.yul\":6391:6395   */\n      0xa0\n        /* \"#utility.yul\":6386:6389   */\n      dup6\n        /* \"#utility.yul\":6382:6396   */\n      add\n        /* \"#utility.yul\":6368:6380   */\n      dup3\n        /* \"#utility.yul\":6334:6397   */\n      tag_190\n      jump\t// in\n    tag_297:\n        /* \"#utility.yul\":6237:6407   */\n      pop\n        /* \"#utility.yul\":5307:6414   */\n      pop\n        /* \"#utility.yul\":5207:6414   */\n      pop\n      pop\n      jump\t// out\n        /* \"#utility.yul\":6420:6687   */\n    tag_194:\n        /* \"#utility.yul\":6533:6543   */\n      0x00\n        /* \"#utility.yul\":6554:6644   */\n      tag_299\n        /* \"#utility.yul\":6640:6643   */\n      dup4\n        /* \"#utility.yul\":6632:6638   */\n      dup4\n        /* \"#utility.yul\":6554:6644   */\n      tag_193\n      jump\t// in\n    tag_299:\n        /* \"#utility.yul\":6676:6680   */\n      0xc0\n        /* \"#utility.yul\":6671:6674   */\n      dup4\n        /* \"#utility.yul\":6667:6681   */\n      add\n        /* \"#utility.yul\":6653:6681   */\n      swap1\n      pop\n        /* \"#utility.yul\":6420:6687   */\n      swap3\n      swap2\n      pop\n      pop\n      jump\t// out\n        /* \"#utility.yul\":6693:6828   */\n    tag_195:\n        /* \"#utility.yul\":6785:6789   */\n      0x00\n        /* \"#utility.yul\":6817:6821   */\n      0x20\n        /* \"#utility.yul\":6812:6815   */\n      dup3\n        /* \"#utility.yul\":6808:6822   */\n      add\n        /* \"#utility.yul\":6800:6822   */\n      swap1\n      pop\n        /* \"#utility.yul\":6693:6828   */\n      swap2\n      swap1\n      pop\n      jump\t// out\n        /* \"#utility.yul\":6900:7808   */\n    tag_196:\n        /* \"#utility.yul\":7063:7066   */\n      0x00\n        /* \"#utility.yul\":7092:7168   */\n      tag_302\n        /* \"#utility.yul\":7162:7167   */\n      dup3\n        /* \"#utility.yul\":7092:7168   */\n      tag_187\n      jump\t// in\n    tag_302:\n        /* \"#utility.yul\":7184:7292   */\n      tag_303\n        /* \"#utility.yul\":7285:7291   */\n      dup2\n        /* \"#utility.yul\":7280:7283   */\n      dup6\n        /* \"#utility.yul\":7184:7292   */\n      tag_188\n      jump\t// in\n    tag_303:\n        /* \"#utility.yul\":7177:7292   */\n      swap4\n      pop\n        /* \"#utility.yul\":7316:7394   */\n      tag_304\n        /* \"#utility.yul\":7388:7393   */\n      dup4\n        /* \"#utility.yul\":7316:7394   */\n      tag_189\n      jump\t// in\n    tag_304:\n        /* \"#utility.yul\":7417:7424   */\n      dup1\n        /* \"#utility.yul\":7448:7449   */\n      0x00\n        /* \"#utility.yul\":7433:7783   */\n    tag_305:\n        /* \"#utility.yul\":7458:7464   */\n      dup4\n        /* \"#utility.yul\":7455:7456   */\n      dup2\n        /* \"#utility.yul\":7452:7465   */\n      lt\n        /* \"#utility.yul\":7433:7783   */\n      iszero\n      tag_307\n      jumpi\n        /* \"#utility.yul\":7534:7540   */\n      dup2\n        /* \"#utility.yul\":7528:7541   */\n      mload\n        /* \"#utility.yul\":7561:7668   */\n      tag_308\n        /* \"#utility.yul\":7664:7667   */\n      dup9\n        /* \"#utility.yul\":7649:7662   */\n      dup3\n        /* \"#utility.yul\":7561:7668   */\n      tag_194\n      jump\t// in\n    tag_308:\n        /* \"#utility.yul\":7554:7668   */\n      swap8\n      pop\n        /* \"#utility.yul\":7691:7773   */\n      tag_309\n        /* \"#utility.yul\":7766:7772   */\n      dup4\n        /* \"#utility.yul\":7691:7773   */\n      tag_195\n      jump\t// in\n    tag_309:\n        /* \"#utility.yul\":7681:7773   */\n      swap3\n      pop\n        /* \"#utility.yul\":7493:7783   */\n      pop\n        /* \"#utility.yul\":7480:7481   */\n      0x01\n        /* \"#utility.yul\":7477:7478   */\n      dup2\n        /* \"#utility.yul\":7473:7482   */\n      add\n        /* \"#utility.yul\":7468:7482   */\n      swap1\n      pop\n        /* \"#utility.yul\":7433:7783   */\n      jump(tag_305)\n    tag_307:\n        /* \"#utility.yul\":7437:7451   */\n      pop\n        /* \"#utility.yul\":7799:7802   */\n      dup6\n        /* \"#utility.yul\":7792:7802   */\n      swap4\n      pop\n        /* \"#utility.yul\":7068:7808   */\n      pop\n      pop\n      pop\n        /* \"#utility.yul\":6900:7808   */\n      swap3\n      swap2\n      pop\n      pop\n      jump\t// out\n        /* \"#utility.yul\":7814:8275   */\n    tag_35:\n        /* \"#utility.yul\":8001:8005   */\n      0x00\n        /* \"#utility.yul\":8039:8041   */\n      0x20\n        /* \"#utility.yul\":8028:8037   */\n      dup3\n        /* \"#utility.yul\":8024:8042   */\n      add\n        /* \"#utility.yul\":8016:8042   */\n      swap1\n      pop\n        /* \"#utility.yul\":8088:8097   */\n      dup2\n        /* \"#utility.yul\":8082:8086   */\n      dup2\n        /* \"#utility.yul\":8078:8098   */\n      sub\n        /* \"#utility.yul\":8074:8075   */\n      0x00\n        /* \"#utility.yul\":8063:8072   */\n      dup4\n        /* \"#utility.yul\":8059:8076   */\n      add\n        /* \"#utility.yul\":8052:8099   */\n      mstore\n        /* \"#utility.yul\":8116:8268   */\n      tag_311\n        /* \"#utility.yul\":8263:8267   */\n      dup2\n        /* \"#utility.yul\":8254:8260   */\n      dup5\n        /* \"#utility.yul\":8116:8268   */\n      tag_196\n      jump\t// in\n    tag_311:\n        /* \"#utility.yul\":8108:8268   */\n      swap1\n      pop\n        /* \"#utility.yul\":7814:8275   */\n      swap3\n      swap2\n      pop\n      pop\n      jump\t// out\n        /* \"#utility.yul\":8281:8399   */\n    tag_197:\n        /* \"#utility.yul\":8368:8392   */\n      tag_313\n        /* \"#utility.yul\":8386:8391   */\n      dup2\n        /* \"#utility.yul\":8368:8392   */\n      tag_184\n      jump\t// in\n    tag_313:\n        /* \"#utility.yul\":8363:8366   */\n      dup3\n        /* \"#utility.yul\":8356:8393   */\n      mstore\n        /* \"#utility.yul\":8281:8399   */\n      pop\n      pop\n      jump\t// out\n        /* \"#utility.yul\":8405:8627   */\n    tag_40:\n        /* \"#utility.yul\":8498:8502   */\n      0x00\n        /* \"#utility.yul\":8536:8538   */\n      0x20\n        /* \"#utility.yul\":8525:8534   */\n      dup3\n        /* \"#utility.yul\":8521:8539   */\n      add\n        /* \"#utility.yul\":8513:8539   */\n      swap1\n      pop\n        /* \"#utility.yul\":8549:8620   */\n      tag_315\n        /* \"#utility.yul\":8617:8618   */\n      0x00\n        /* \"#utility.yul\":8606:8615   */\n      dup4\n        /* \"#utility.yul\":8602:8619   */\n      add\n        /* \"#utility.yul\":8593:8599   */\n      dup5\n        /* \"#utility.yul\":8549:8620   */\n      tag_197\n      jump\t// in\n    tag_315:\n        /* \"#utility.yul\":8405:8627   */\n      swap3\n      swap2\n      pop\n      pop\n      jump\t// out\n        /* \"#utility.yul\":8633:9107   */\n    tag_43:\n        /* \"#utility.yul\":8701:8707   */\n      0x00\n        /* \"#utility.yul\":8709:8715   */\n      0x00\n        /* \"#utility.yul\":8758:8760   */\n      0x40\n        /* \"#utility.yul\":8746:8755   */\n      dup4\n        /* \"#utility.yul\":8737:8744   */\n      dup6\n        /* \"#utility.yul\":8733:8756   */\n      sub\n        /* \"#utility.yul\":8729:8761   */\n      slt\n        /* \"#utility.yul\":8726:8845   */\n      iszero\n      tag_317\n      jumpi\n        /* \"#utility.yul\":8764:8843   */\n      tag_318\n      tag_170\n      jump\t// in\n    tag_318:\n        /* \"#utility.yul\":8726:8845   */\n    tag_317:\n        /* \"#utility.yul\":8884:8885   */\n      0x00\n        /* \"#utility.yul\":8909:8962   */\n      tag_319\n        /* \"#utility.yul\":8954:8961   */\n      dup6\n        /* \"#utility.yul\":8945:8951   */\n      dup3\n        /* \"#utility.yul\":8934:8943   */\n      dup7\n        /* \"#utility.yul\":8930:8952   */\n      add\n        /* \"#utility.yul\":8909:8962   */\n      tag_186\n      jump\t// in\n    tag_319:\n        /* \"#utility.yul\":8899:8962   */\n      swap3\n      pop\n        /* \"#utility.yul\":8855:8972   */\n      pop\n        /* \"#utility.yul\":9011:9013   */\n      0x20\n        /* \"#utility.yul\":9037:9090   */\n      tag_320\n        /* \"#utility.yul\":9082:9089   */\n      dup6\n        /* \"#utility.yul\":9073:9079   */\n      dup3\n        /* \"#utility.yul\":9062:9071   */\n      dup7\n        /* \"#utility.yul\":9058:9080   */\n      add\n        /* \"#utility.yul\":9037:9090   */\n      tag_174\n      jump\t// in\n    tag_320:\n        /* \"#utility.yul\":9027:9090   */\n      swap2\n      pop\n        /* \"#utility.yul\":8982:9100   */\n      pop\n        /* \"#utility.yul\":8633:9107   */\n      swap3\n      pop\n      swap3\n      swap1\n      pop\n      jump\t// out\n        /* \"#utility.yul\":9113:9222   */\n    tag_198:\n        /* \"#utility.yul\":9194:9215   */\n      tag_322\n        /* \"#utility.yul\":9209:9214   */\n      dup2\n        /* \"#utility.yul\":9194:9215   */\n      tag_191\n      jump\t// in\n    tag_322:\n        /* \"#utility.yul\":9189:9192   */\n      dup3\n        /* \"#utility.yul\":9182:9216   */\n      mstore\n        /* \"#utility.yul\":9113:9222   */\n      pop\n      pop\n      jump\t// out\n        /* \"#utility.yul\":9228:9991   */\n    tag_46:\n        /* \"#utility.yul\":9455:9459   */\n      0x00\n        /* \"#utility.yul\":9493:9496   */\n      0xc0\n        /* \"#utility.yul\":9482:9491   */\n      dup3\n        /* \"#utility.yul\":9478:9497   */\n      add\n        /* \"#utility.yul\":9470:9497   */\n      swap1\n      pop\n        /* \"#utility.yul\":9507:9578   */\n      tag_324\n        /* \"#utility.yul\":9575:9576   */\n      0x00\n        /* \"#utility.yul\":9564:9573   */\n      dup4\n        /* \"#utility.yul\":9560:9577   */\n      add\n        /* \"#utility.yul\":9551:9557   */\n      dup10\n        /* \"#utility.yul\":9507:9578   */\n      tag_177\n      jump\t// in\n    tag_324:\n        /* \"#utility.yul\":9588:9660   */\n      tag_325\n        /* \"#utility.yul\":9656:9658   */\n      0x20\n        /* \"#utility.yul\":9645:9654   */\n      dup4\n        /* \"#utility.yul\":9641:9659   */\n      add\n        /* \"#utility.yul\":9632:9638   */\n      dup9\n        /* \"#utility.yul\":9588:9660   */\n      tag_177\n      jump\t// in\n    tag_325:\n        /* \"#utility.yul\":9670:9742   */\n      tag_326\n        /* \"#utility.yul\":9738:9740   */\n      0x40\n        /* \"#utility.yul\":9727:9736   */\n      dup4\n        /* \"#utility.yul\":9723:9741   */\n      add\n        /* \"#utility.yul\":9714:9720   */\n      dup8\n        /* \"#utility.yul\":9670:9742   */\n      tag_177\n      jump\t// in\n    tag_326:\n        /* \"#utility.yul\":9752:9824   */\n      tag_327\n        /* \"#utility.yul\":9820:9822   */\n      0x60\n        /* \"#utility.yul\":9809:9818   */\n      dup4\n        /* \"#utility.yul\":9805:9823   */\n      add\n        /* \"#utility.yul\":9796:9802   */\n      dup7\n        /* \"#utility.yul\":9752:9824   */\n      tag_177\n      jump\t// in\n    tag_327:\n        /* \"#utility.yul\":9834:9901   */\n      tag_328\n        /* \"#utility.yul\":9896:9899   */\n      0x80\n        /* \"#utility.yul\":9885:9894   */\n      dup4\n        /* \"#utility.yul\":9881:9900   */\n      add\n        /* \"#utility.yul\":9872:9878   */\n      dup6\n        /* \"#utility.yul\":9834:9901   */\n      tag_198\n      jump\t// in\n    tag_328:\n        /* \"#utility.yul\":9911:9984   */\n      tag_329\n        /* \"#utility.yul\":9979:9982   */\n      0xa0\n        /* \"#utility.yul\":9968:9977   */\n      dup4\n        /* \"#utility.yul\":9964:9983   */\n      add\n        /* \"#utility.yul\":9955:9961   */\n      dup5\n        /* \"#utility.yul\":9911:9984   */\n      tag_177\n      jump\t// in\n    tag_329:\n        /* \"#utility.yul\":9228:9991   */\n      swap8\n      swap7\n      pop\n      pop\n      pop\n      pop\n      pop\n      pop\n      pop\n      jump\t// out\n        /* \"#utility.yul\":9997:10177   */\n    tag_199:\n        /* \"#utility.yul\":10045:10122   */\n      0x4e487b7100000000000000000000000000000000000000000000000000000000\n        /* \"#utility.yul\":10042:10043   */\n      0x00\n        /* \"#utility.yul\":10035:10123   */\n      mstore\n        /* \"#utility.yul\":10142:10146   */\n      0x11\n        /* \"#utility.yul\":10139:10140   */\n      0x04\n        /* \"#utility.yul\":10132:10147   */\n      mstore\n        /* \"#utility.yul\":10166:10170   */\n      0x24\n        /* \"#utility.yul\":10163:10164   */\n      0x00\n        /* \"#utility.yul\":10156:10171   */\n      revert\n        /* \"#utility.yul\":10183:10593   */\n    tag_53:\n        /* \"#utility.yul\":10223:10230   */\n      0x00\n        /* \"#utility.yul\":10246:10266   */\n      tag_332\n        /* \"#utility.yul\":10264:10265   */\n      dup3\n        /* \"#utility.yul\":10246:10266   */\n      tag_172\n      jump\t// in\n    tag_332:\n        /* \"#utility.yul\":10241:10266   */\n      swap2\n      pop\n        /* \"#utility.yul\":10280:10300   */\n      tag_333\n        /* \"#utility.yul\":10298:10299   */\n      dup4\n        /* \"#utility.yul\":10280:10300   */\n      tag_172\n      jump\t// in\n    tag_333:\n        /* \"#utility.yul\":10275:10300   */\n      swap3\n      pop\n        /* \"#utility.yul\":10335:10336   */\n      dup3\n        /* \"#utility.yul\":10332:10333   */\n      dup3\n        /* \"#utility.yul\":10328:10337   */\n      mul\n        /* \"#utility.yul\":10357:10387   */\n      tag_334\n        /* \"#utility.yul\":10375:10386   */\n      dup2\n        /* \"#utility.yul\":10357:10387   */\n      tag_172\n      jump\t// in\n    tag_334:\n        /* \"#utility.yul\":10346:10387   */\n      swap2\n      pop\n        /* \"#utility.yul\":10536:10537   */\n      dup3\n        /* \"#utility.yul\":10527:10534   */\n      dup3\n        /* \"#utility.yul\":10523:10538   */\n      div\n        /* \"#utility.yul\":10520:10521   */\n      dup5\n        /* \"#utility.yul\":10517:10539   */\n      eq\n        /* \"#utility.yul\":10497:10498   */\n      dup4\n        /* \"#utility.yul\":10490:10499   */\n      iszero\n        /* \"#utility.yul\":10470:10553   */\n      or\n        /* \"#utility.yul\":10447:10586   */\n      tag_335\n      jumpi\n        /* \"#utility.yul\":10566:10584   */\n      tag_336\n      tag_199\n      jump\t// in\n    tag_336:\n        /* \"#utility.yul\":10447:10586   */\n    tag_335:\n        /* \"#utility.yul\":10231:10593   */\n      pop\n        /* \"#utility.yul\":10183:10593   */\n      swap3\n      swap2\n      pop\n      pop\n      jump\t// out\n        /* \"#utility.yul\":10599:10768   */\n    tag_200:\n        /* \"#utility.yul\":10683:10694   */\n      0x00\n        /* \"#utility.yul\":10717:10723   */\n      dup3\n        /* \"#utility.yul\":10712:10715   */\n      dup3\n        /* \"#utility.yul\":10705:10724   */\n      mstore\n        /* \"#utility.yul\":10757:10761   */\n      0x20\n        /* \"#utility.yul\":10752:10755   */\n      dup3\n        /* \"#utility.yul\":10748:10762   */\n      add\n        /* \"#utility.yul\":10733:10762   */\n      swap1\n      pop\n        /* \"#utility.yul\":10599:10768   */\n      swap3\n      swap2\n      pop\n      pop\n      jump\t// out\n        /* \"#utility.yul\":10774:10949   */\n    tag_201:\n        /* \"#utility.yul\":10914:10941   */\n      0x416d6f756e742073686f756c6420626520706f73697469766500000000000000\n        /* \"#utility.yul\":10910:10911   */\n      0x00\n        /* \"#utility.yul\":10902:10908   */\n      dup3\n        /* \"#utility.yul\":10898:10912   */\n      add\n        /* \"#utility.yul\":10891:10942   */\n      mstore\n        /* \"#utility.yul\":10774:10949   */\n      pop\n      jump\t// out\n        /* \"#utility.yul\":10955:11321   */\n    tag_202:\n        /* \"#utility.yul\":11097:11100   */\n      0x00\n        /* \"#utility.yul\":11118:11185   */\n      tag_340\n        /* \"#utility.yul\":11182:11184   */\n      0x19\n        /* \"#utility.yul\":11177:11180   */\n      dup4\n        /* \"#utility.yul\":11118:11185   */\n      tag_200\n      jump\t// in\n    tag_340:\n        /* \"#utility.yul\":11111:11185   */\n      swap2\n      pop\n        /* \"#utility.yul\":11194:11287   */\n      tag_341\n        /* \"#utility.yul\":11283:11286   */\n      dup3\n        /* \"#utility.yul\":11194:11287   */\n      tag_201\n      jump\t// in\n    tag_341:\n        /* \"#utility.yul\":11312:11314   */\n      0x20\n        /* \"#utility.yul\":11307:11310   */\n      dup3\n        /* \"#utility.yul\":11303:11315   */\n      add\n        /* \"#utility.yul\":11296:11315   */\n      swap1\n      pop\n        /* \"#utility.yul\":10955:11321   */\n      swap2\n      swap1\n      pop\n      jump\t// out\n        /* \"#utility.yul\":11327:11746   */\n    tag_56:\n        /* \"#utility.yul\":11493:11497   */\n      0x00\n        /* \"#utility.yul\":11531:11533   */\n      0x20\n        /* \"#utility.yul\":11520:11529   */\n      dup3\n        /* \"#utility.yul\":11516:11534   */\n      add\n        /* \"#utility.yul\":11508:11534   */\n      swap1\n      pop\n        /* \"#utility.yul\":11580:11589   */\n      dup2\n        /* \"#utility.yul\":11574:11578   */\n      dup2\n        /* \"#utility.yul\":11570:11590   */\n      sub\n        /* \"#utility.yul\":11566:11567   */\n      0x00\n        /* \"#utility.yul\":11555:11564   */\n      dup4\n        /* \"#utility.yul\":11551:11568   */\n      add\n        /* \"#utility.yul\":11544:11591   */\n      mstore\n        /* \"#utility.yul\":11608:11739   */\n      tag_343\n        /* \"#utility.yul\":11734:11738   */\n      dup2\n        /* \"#utility.yul\":11608:11739   */\n      tag_202\n      jump\t// in\n    tag_343:\n        /* \"#utility.yul\":11600:11739   */\n      swap1\n      pop\n        /* \"#utility.yul\":11327:11746   */\n      swap2\n      swap1\n      pop\n      jump\t// out\n        /* \"#utility.yul\":11752:11895   */\n    tag_203:\n        /* \"#utility.yul\":11809:11814   */\n      0x00\n        /* \"#utility.yul\":11840:11846   */\n      dup2\n        /* \"#utility.yul\":11834:11847   */\n      mload\n        /* \"#utility.yul\":11825:11847   */\n      swap1\n      pop\n        /* \"#utility.yul\":11856:11889   */\n      tag_345\n        /* \"#utility.yul\":11883:11888   */\n      dup2\n        /* \"#utility.yul\":11856:11889   */\n      tag_173\n      jump\t// in\n    tag_345:\n        /* \"#utility.yul\":11752:11895   */\n      swap3\n      swap2\n      pop\n      pop\n      jump\t// out\n        /* \"#utility.yul\":11901:12252   */\n    tag_61:\n        /* \"#utility.yul\":11971:11977   */\n      0x00\n        /* \"#utility.yul\":12020:12022   */\n      0x20\n        /* \"#utility.yul\":12008:12017   */\n      dup3\n        /* \"#utility.yul\":11999:12006   */\n      dup5\n        /* \"#utility.yul\":11995:12018   */\n      sub\n        /* \"#utility.yul\":11991:12023   */\n      slt\n        /* \"#utility.yul\":11988:12107   */\n      iszero\n      tag_347\n      jumpi\n        /* \"#utility.yul\":12026:12105   */\n      tag_348\n      tag_170\n      jump\t// in\n    tag_348:\n        /* \"#utility.yul\":11988:12107   */\n    tag_347:\n        /* \"#utility.yul\":12146:12147   */\n      0x00\n        /* \"#utility.yul\":12171:12235   */\n      tag_349\n        /* \"#utility.yul\":12227:12234   */\n      dup5\n        /* \"#utility.yul\":12218:12224   */\n      dup3\n        /* \"#utility.yul\":12207:12216   */\n      dup6\n        /* \"#utility.yul\":12203:12225   */\n      add\n        /* \"#utility.yul\":12171:12235   */\n      tag_203\n      jump\t// in\n    tag_349:\n        /* \"#utility.yul\":12161:12235   */\n      swap2\n      pop\n        /* \"#utility.yul\":12117:12245   */\n      pop\n        /* \"#utility.yul\":11901:12252   */\n      swap3\n      swap2\n      pop\n      pop\n      jump\t// out\n        /* \"#utility.yul\":12258:12428   */\n    tag_204:\n        /* \"#utility.yul\":12398:12420   */\n      0x496e73756666696369656e742062616c616e6365000000000000000000000000\n        /* \"#utility.yul\":12394:12395   */\n      0x00\n        /* \"#utility.yul\":12386:12392   */\n      dup3\n        /* \"#utility.yul\":12382:12396   */\n      add\n        /* \"#utility.yul\":12375:12421   */\n      mstore\n        /* \"#utility.yul\":12258:12428   */\n      pop\n      jump\t// out\n        /* \"#utility.yul\":12434:12800   */\n    tag_205:\n        /* \"#utility.yul\":12576:12579   */\n      0x00\n        /* \"#utility.yul\":12597:12664   */\n      tag_352\n        /* \"#utility.yul\":12661:12663   */\n      0x14\n        /* \"#utility.yul\":12656:12659   */\n      dup4\n        /* \"#utility.yul\":12597:12664   */\n      tag_200\n      jump\t// in\n    tag_352:\n        /* \"#utility.yul\":12590:12664   */\n      swap2\n      pop\n        /* \"#utility.yul\":12673:12766   */\n      tag_353\n        /* \"#utility.yul\":12762:12765   */\n      dup3\n        /* \"#utility.yul\":12673:12766   */\n      tag_204\n      jump\t// in\n    tag_353:\n        /* \"#utility.yul\":12791:12793   */\n      0x20\n        /* \"#utility.yul\":12786:12789   */\n      dup3\n        /* \"#utility.yul\":12782:12794   */\n      add\n        /* \"#utility.yul\":12775:12794   */\n      swap1\n      pop\n        /* \"#utility.yul\":12434:12800   */\n      swap2\n      swap1\n      pop\n      jump\t// out\n        /* \"#utility.yul\":12806:13225   */\n    tag_64:\n        /* \"#utility.yul\":12972:12976   */\n      0x00\n        /* \"#utility.yul\":13010:13012   */\n      0x20\n        /* \"#utility.yul\":12999:13008   */\n      dup3\n        /* \"#utility.yul\":12995:13013   */\n      add\n        /* \"#utility.yul\":12987:13013   */\n      swap1\n      pop\n        /* \"#utility.yul\":13059:13068   */\n      dup2\n        /* \"#utility.yul\":13053:13057   */\n      dup2\n        /* \"#utility.yul\":13049:13069   */\n      sub\n        /* \"#utility.yul\":13045:13046   */\n      0x00\n        /* \"#utility.yul\":13034:13043   */\n      dup4\n        /* \"#utility.yul\":13030:13047   */\n      add\n        /* \"#utility.yul\":13023:13070   */\n      mstore\n        /* \"#utility.yul\":13087:13218   */\n      tag_355\n        /* \"#utility.yul\":13213:13217   */\n      dup2\n        /* \"#utility.yul\":13087:13218   */\n      tag_205\n      jump\t// in\n    tag_355:\n        /* \"#utility.yul\":13079:13218   */\n      swap1\n      pop\n        /* \"#utility.yul\":12806:13225   */\n      swap2\n      swap1\n      pop\n      jump\t// out\n        /* \"#utility.yul\":13231:13673   */\n    tag_66:\n        /* \"#utility.yul\":13380:13384   */\n      0x00\n        /* \"#utility.yul\":13418:13420   */\n      0x60\n        /* \"#utility.yul\":13407:13416   */\n      dup3\n        /* \"#utility.yul\":13403:13421   */\n      add\n        /* \"#utility.yul\":13395:13421   */\n      swap1\n      pop\n        /* \"#utility.yul\":13431:13502   */\n      tag_357\n        /* \"#utility.yul\":13499:13500   */\n      0x00\n        /* \"#utility.yul\":13488:13497   */\n      dup4\n        /* \"#utility.yul\":13484:13501   */\n      add\n        /* \"#utility.yul\":13475:13481   */\n      dup7\n        /* \"#utility.yul\":13431:13502   */\n      tag_197\n      jump\t// in\n    tag_357:\n        /* \"#utility.yul\":13512:13584   */\n      tag_358\n        /* \"#utility.yul\":13580:13582   */\n      0x20\n        /* \"#utility.yul\":13569:13578   */\n      dup4\n        /* \"#utility.yul\":13565:13583   */\n      add\n        /* \"#utility.yul\":13556:13562   */\n      dup6\n        /* \"#utility.yul\":13512:13584   */\n      tag_197\n      jump\t// in\n    tag_358:\n        /* \"#utility.yul\":13594:13666   */\n      tag_359\n        /* \"#utility.yul\":13662:13664   */\n      0x40\n        /* \"#utility.yul\":13651:13660   */\n      dup4\n        /* \"#utility.yul\":13647:13665   */\n      add\n        /* \"#utility.yul\":13638:13644   */\n      dup5\n        /* \"#utility.yul\":13594:13666   */\n      tag_177\n      jump\t// in\n    tag_359:\n        /* \"#utility.yul\":13231:13673   */\n      swap5\n      swap4\n      pop\n      pop\n      pop\n      pop\n      jump\t// out\n        /* \"#utility.yul\":13679:13795   */\n    tag_206:\n        /* \"#utility.yul\":13749:13770   */\n      tag_361\n        /* \"#utility.yul\":13764:13769   */\n      dup2\n        /* \"#utility.yul\":13749:13770   */\n      tag_191\n      jump\t// in\n    tag_361:\n        /* \"#utility.yul\":13742:13747   */\n      dup2\n        /* \"#utility.yul\":13739:13771   */\n      eq\n        /* \"#utility.yul\":13729:13789   */\n      tag_362\n      jumpi\n        /* \"#utility.yul\":13785:13786   */\n      0x00\n        /* \"#utility.yul\":13782:13783   */\n      0x00\n        /* \"#utility.yul\":13775:13787   */\n      revert\n        /* \"#utility.yul\":13729:13789   */\n    tag_362:\n        /* \"#utility.yul\":13679:13795   */\n      pop\n      jump\t// out\n        /* \"#utility.yul\":13801:13938   */\n    tag_207:\n        /* \"#utility.yul\":13855:13860   */\n      0x00\n        /* \"#utility.yul\":13886:13892   */\n      dup2\n        /* \"#utility.yul\":13880:13893   */\n      mload\n        /* \"#utility.yul\":13871:13893   */\n      swap1\n      pop\n        /* \"#utility.yul\":13902:13932   */\n      tag_364\n        /* \"#utility.yul\":13926:13931   */\n      dup2\n        /* \"#utility.yul\":13902:13932   */\n      tag_206\n      jump\t// in\n    tag_364:\n        /* \"#utility.yul\":13801:13938   */\n      swap3\n      swap2\n      pop\n      pop\n      jump\t// out\n        /* \"#utility.yul\":13944:14289   */\n    tag_70:\n        /* \"#utility.yul\":14011:14017   */\n      0x00\n        /* \"#utility.yul\":14060:14062   */\n      0x20\n        /* \"#utility.yul\":14048:14057   */\n      dup3\n        /* \"#utility.yul\":14039:14046   */\n      dup5\n        /* \"#utility.yul\":14035:14058   */\n      sub\n        /* \"#utility.yul\":14031:14063   */\n      slt\n        /* \"#utility.yul\":14028:14147   */\n      iszero\n      tag_366\n      jumpi\n        /* \"#utility.yul\":14066:14145   */\n      tag_367\n      tag_170\n      jump\t// in\n    tag_367:\n        /* \"#utility.yul\":14028:14147   */\n    tag_366:\n        /* \"#utility.yul\":14186:14187   */\n      0x00\n        /* \"#utility.yul\":14211:14272   */\n      tag_368\n        /* \"#utility.yul\":14264:14271   */\n      dup5\n        /* \"#utility.yul\":14255:14261   */\n      dup3\n        /* \"#utility.yul\":14244:14253   */\n      dup6\n        /* \"#utility.yul\":14240:14262   */\n      add\n        /* \"#utility.yul\":14211:14272   */\n      tag_207\n      jump\t// in\n    tag_368:\n        /* \"#utility.yul\":14201:14272   */\n      swap2\n      pop\n        /* \"#utility.yul\":14157:14282   */\n      pop\n        /* \"#utility.yul\":13944:14289   */\n      swap3\n      swap2\n      pop\n      pop\n      jump\t// out\n        /* \"#utility.yul\":14295:14469   */\n    tag_208:\n        /* \"#utility.yul\":14435:14461   */\n      0x5374616b696e673a205472616e73666572206661696c65640000000000000000\n        /* \"#utility.yul\":14431:14432   */\n      0x00\n        /* \"#utility.yul\":14423:14429   */\n      dup3\n        /* \"#utility.yul\":14419:14433   */\n      add\n        /* \"#utility.yul\":14412:14462   */\n      mstore\n        /* \"#utility.yul\":14295:14469   */\n      pop\n      jump\t// out\n        /* \"#utility.yul\":14475:14841   */\n    tag_209:\n        /* \"#utility.yul\":14617:14620   */\n      0x00\n        /* \"#utility.yul\":14638:14705   */\n      tag_371\n        /* \"#utility.yul\":14702:14704   */\n      0x18\n        /* \"#utility.yul\":14697:14700   */\n      dup4\n        /* \"#utility.yul\":14638:14705   */\n      tag_200\n      jump\t// in\n    tag_371:\n        /* \"#utility.yul\":14631:14705   */\n      swap2\n      pop\n        /* \"#utility.yul\":14714:14807   */\n      tag_372\n        /* \"#utility.yul\":14803:14806   */\n      dup3\n        /* \"#utility.yul\":14714:14807   */\n      tag_208\n      jump\t// in\n    tag_372:\n        /* \"#utility.yul\":14832:14834   */\n      0x20\n        /* \"#utility.yul\":14827:14830   */\n      dup3\n        /* \"#utility.yul\":14823:14835   */\n      add\n        /* \"#utility.yul\":14816:14835   */\n      swap1\n      pop\n        /* \"#utility.yul\":14475:14841   */\n      swap2\n      swap1\n      pop\n      jump\t// out\n        /* \"#utility.yul\":14847:15266   */\n    tag_73:\n        /* \"#utility.yul\":15013:15017   */\n      0x00\n        /* \"#utility.yul\":15051:15053   */\n      0x20\n        /* \"#utility.yul\":15040:15049   */\n      dup3\n        /* \"#utility.yul\":15036:15054   */\n      add\n        /* \"#utility.yul\":15028:15054   */\n      swap1\n      pop\n        /* \"#utility.yul\":15100:15109   */\n      dup2\n        /* \"#utility.yul\":15094:15098   */\n      dup2\n        /* \"#utility.yul\":15090:15110   */\n      sub\n        /* \"#utility.yul\":15086:15087   */\n      0x00\n        /* \"#utility.yul\":15075:15084   */\n      dup4\n        /* \"#utility.yul\":15071:15088   */\n      add\n        /* \"#utility.yul\":15064:15111   */\n      mstore\n        /* \"#utility.yul\":15128:15259   */\n      tag_374\n        /* \"#utility.yul\":15254:15258   */\n      dup2\n        /* \"#utility.yul\":15128:15259   */\n      tag_209\n      jump\t// in\n    tag_374:\n        /* \"#utility.yul\":15120:15259   */\n      swap1\n      pop\n        /* \"#utility.yul\":14847:15266   */\n      swap2\n      swap1\n      pop\n      jump\t// out\n        /* \"#utility.yul\":15272:15463   */\n    tag_77:\n        /* \"#utility.yul\":15312:15315   */\n      0x00\n        /* \"#utility.yul\":15331:15351   */\n      tag_376\n        /* \"#utility.yul\":15349:15350   */\n      dup3\n        /* \"#utility.yul\":15331:15351   */\n      tag_172\n      jump\t// in\n    tag_376:\n        /* \"#utility.yul\":15326:15351   */\n      swap2\n      pop\n        /* \"#utility.yul\":15365:15385   */\n      tag_377\n        /* \"#utility.yul\":15383:15384   */\n      dup4\n        /* \"#utility.yul\":15365:15385   */\n      tag_172\n      jump\t// in\n    tag_377:\n        /* \"#utility.yul\":15360:15385   */\n      swap3\n      pop\n        /* \"#utility.yul\":15408:15409   */\n      dup3\n        /* \"#utility.yul\":15405:15406   */\n      dup3\n        /* \"#utility.yul\":15401:15410   */\n      add\n        /* \"#utility.yul\":15394:15410   */\n      swap1\n      pop\n        /* \"#utility.yul\":15429:15432   */\n      dup1\n        /* \"#utility.yul\":15426:15427   */\n      dup3\n        /* \"#utility.yul\":15423:15433   */\n      gt\n        /* \"#utility.yul\":15420:15456   */\n      iszero\n      tag_378\n      jumpi\n        /* \"#utility.yul\":15436:15454   */\n      tag_379\n      tag_199\n      jump\t// in\n    tag_379:\n        /* \"#utility.yul\":15420:15456   */\n    tag_378:\n        /* \"#utility.yul\":15272:15463   */\n      swap3\n      swap2\n      pop\n      pop\n      jump\t// out\n        /* \"#utility.yul\":15469:15649   */\n    tag_82:\n        /* \"#utility.yul\":15517:15594   */\n      0x4e487b7100000000000000000000000000000000000000000000000000000000\n        /* \"#utility.yul\":15514:15515   */\n      0x00\n        /* \"#utility.yul\":15507:15595   */\n      mstore\n        /* \"#utility.yul\":15614:15618   */\n      0x21\n        /* \"#utility.yul\":15611:15612   */\n      0x04\n        /* \"#utility.yul\":15604:15619   */\n      mstore\n        /* \"#utility.yul\":15638:15642   */\n      0x24\n        /* \"#utility.yul\":15635:15636   */\n      0x00\n        /* \"#utility.yul\":15628:15643   */\n      revert\n        /* \"#utility.yul\":15655:15835   */\n    tag_210:\n        /* \"#utility.yul\":15703:15780   */\n      0x4e487b7100000000000000000000000000000000000000000000000000000000\n        /* \"#utility.yul\":15700:15701   */\n      0x00\n        /* \"#utility.yul\":15693:15781   */\n      mstore\n        /* \"#utility.yul\":15800:15804   */\n      0x12\n        /* \"#utility.yul\":15797:15798   */\n      0x04\n        /* \"#utility.yul\":15790:15805   */\n      mstore\n        /* \"#utility.yul\":15824:15828   */\n      0x24\n        /* \"#utility.yul\":15821:15822   */\n      0x00\n        /* \"#utility.yul\":15814:15829   */\n      revert\n        /* \"#utility.yul\":15841:16026   */\n    tag_88:\n        /* \"#utility.yul\":15881:15882   */\n      0x00\n        /* \"#utility.yul\":15898:15918   */\n      tag_383\n        /* \"#utility.yul\":15916:15917   */\n      dup3\n        /* \"#utility.yul\":15898:15918   */\n      tag_172\n      jump\t// in\n    tag_383:\n        /* \"#utility.yul\":15893:15918   */\n      swap2\n      pop\n        /* \"#utility.yul\":15932:15952   */\n      tag_384\n        /* \"#utility.yul\":15950:15951   */\n      dup4\n        /* \"#utility.yul\":15932:15952   */\n      tag_172\n      jump\t// in\n    tag_384:\n        /* \"#utility.yul\":15927:15952   */\n      swap3\n      pop\n        /* \"#utility.yul\":15971:15972   */\n      dup3\n        /* \"#utility.yul\":15961:15996   */\n      tag_385\n      jumpi\n        /* \"#utility.yul\":15976:15994   */\n      tag_386\n      tag_210\n      jump\t// in\n    tag_386:\n        /* \"#utility.yul\":15961:15996   */\n    tag_385:\n        /* \"#utility.yul\":16018:16019   */\n      dup3\n        /* \"#utility.yul\":16015:16016   */\n      dup3\n        /* \"#utility.yul\":16011:16020   */\n      div\n        /* \"#utility.yul\":16006:16020   */\n      swap1\n      pop\n        /* \"#utility.yul\":15841:16026   */\n      swap3\n      swap2\n      pop\n      pop\n      jump\t// out\n        /* \"#utility.yul\":16032:16154   */\n    tag_211:\n        /* \"#utility.yul\":16122:16123   */\n      0x04\n        /* \"#utility.yul\":16115:16120   */\n      dup2\n        /* \"#utility.yul\":16112:16124   */\n      lt\n        /* \"#utility.yul\":16102:16148   */\n      tag_388\n      jumpi\n        /* \"#utility.yul\":16128:16146   */\n      tag_389\n      tag_82\n      jump\t// in\n    tag_389:\n        /* \"#utility.yul\":16102:16148   */\n    tag_388:\n        /* \"#utility.yul\":16032:16154   */\n      pop\n      jump\t// out\n        /* \"#utility.yul\":16160:16305   */\n    tag_212:\n        /* \"#utility.yul\":16214:16221   */\n      0x00\n        /* \"#utility.yul\":16243:16248   */\n      dup2\n        /* \"#utility.yul\":16232:16248   */\n      swap1\n      pop\n        /* \"#utility.yul\":16249:16299   */\n      tag_391\n        /* \"#utility.yul\":16293:16298   */\n      dup3\n        /* \"#utility.yul\":16249:16299   */\n      tag_211\n      jump\t// in\n    tag_391:\n        /* \"#utility.yul\":16160:16305   */\n      swap2\n      swap1\n      pop\n      jump\t// out\n        /* \"#utility.yul\":16311:16456   */\n    tag_213:\n        /* \"#utility.yul\":16376:16385   */\n      0x00\n        /* \"#utility.yul\":16409:16450   */\n      tag_393\n        /* \"#utility.yul\":16444:16449   */\n      dup3\n        /* \"#utility.yul\":16409:16450   */\n      tag_212\n      jump\t// in\n    tag_393:\n        /* \"#utility.yul\":16396:16450   */\n      swap1\n      pop\n        /* \"#utility.yul\":16311:16456   */\n      swap2\n      swap1\n      pop\n      jump\t// out\n        /* \"#utility.yul\":16462:16623   */\n    tag_214:\n        /* \"#utility.yul\":16564:16616   */\n      tag_395\n        /* \"#utility.yul\":16610:16615   */\n      dup2\n        /* \"#utility.yul\":16564:16616   */\n      tag_213\n      jump\t// in\n    tag_395:\n        /* \"#utility.yul\":16559:16562   */\n      dup3\n        /* \"#utility.yul\":16552:16617   */\n      mstore\n        /* \"#utility.yul\":16462:16623   */\n      pop\n      pop\n      jump\t// out\n        /* \"#utility.yul\":16629:17212   */\n    tag_90:\n        /* \"#utility.yul\":16821:16825   */\n      0x00\n        /* \"#utility.yul\":16859:16862   */\n      0x80\n        /* \"#utility.yul\":16848:16857   */\n      dup3\n        /* \"#utility.yul\":16844:16863   */\n      add\n        /* \"#utility.yul\":16836:16863   */\n      swap1\n      pop\n        /* \"#utility.yul\":16873:16944   */\n      tag_397\n        /* \"#utility.yul\":16941:16942   */\n      0x00\n        /* \"#utility.yul\":16930:16939   */\n      dup4\n        /* \"#utility.yul\":16926:16943   */\n      add\n        /* \"#utility.yul\":16917:16923   */\n      dup8\n        /* \"#utility.yul\":16873:16944   */\n      tag_177\n      jump\t// in\n    tag_397:\n        /* \"#utility.yul\":16954:17041   */\n      tag_398\n        /* \"#utility.yul\":17037:17039   */\n      0x20\n        /* \"#utility.yul\":17026:17035   */\n      dup4\n        /* \"#utility.yul\":17022:17040   */\n      add\n        /* \"#utility.yul\":17013:17019   */\n      dup7\n        /* \"#utility.yul\":16954:17041   */\n      tag_214\n      jump\t// in\n    tag_398:\n        /* \"#utility.yul\":17051:17123   */\n      tag_399\n        /* \"#utility.yul\":17119:17121   */\n      0x40\n        /* \"#utility.yul\":17108:17117   */\n      dup4\n        /* \"#utility.yul\":17104:17122   */\n      add\n        /* \"#utility.yul\":17095:17101   */\n      dup6\n        /* \"#utility.yul\":17051:17123   */\n      tag_177\n      jump\t// in\n    tag_399:\n        /* \"#utility.yul\":17133:17205   */\n      tag_400\n        /* \"#utility.yul\":17201:17203   */\n      0x60\n        /* \"#utility.yul\":17190:17199   */\n      dup4\n        /* \"#utility.yul\":17186:17204   */\n      add\n        /* \"#utility.yul\":17177:17183   */\n      dup5\n        /* \"#utility.yul\":17133:17205   */\n      tag_177\n      jump\t// in\n    tag_400:\n        /* \"#utility.yul\":16629:17212   */\n      swap6\n      swap5\n      pop\n      pop\n      pop\n      pop\n      pop\n      jump\t// out\n        /* \"#utility.yul\":17218:17440   */\n    tag_215:\n        /* \"#utility.yul\":17358:17392   */\n      0x596f7520617265206e6f7420746865206f776e6572206f662074686973207374\n        /* \"#utility.yul\":17354:17355   */\n      0x00\n        /* \"#utility.yul\":17346:17352   */\n      dup3\n        /* \"#utility.yul\":17342:17356   */\n      add\n        /* \"#utility.yul\":17335:17393   */\n      mstore\n        /* \"#utility.yul\":17427:17432   */\n      0x616b650000000000000000000000000000000000000000000000000000000000\n        /* \"#utility.yul\":17422:17424   */\n      0x20\n        /* \"#utility.yul\":17414:17420   */\n      dup3\n        /* \"#utility.yul\":17410:17425   */\n      add\n        /* \"#utility.yul\":17403:17433   */\n      mstore\n        /* \"#utility.yul\":17218:17440   */\n      pop\n      jump\t// out\n        /* \"#utility.yul\":17446:17812   */\n    tag_216:\n        /* \"#utility.yul\":17588:17591   */\n      0x00\n        /* \"#utility.yul\":17609:17676   */\n      tag_403\n        /* \"#utility.yul\":17673:17675   */\n      0x23\n        /* \"#utility.yul\":17668:17671   */\n      dup4\n        /* \"#utility.yul\":17609:17676   */\n      tag_200\n      jump\t// in\n    tag_403:\n        /* \"#utility.yul\":17602:17676   */\n      swap2\n      pop\n        /* \"#utility.yul\":17685:17778   */\n      tag_404\n        /* \"#utility.yul\":17774:17777   */\n      dup3\n        /* \"#utility.yul\":17685:17778   */\n      tag_215\n      jump\t// in\n    tag_404:\n        /* \"#utility.yul\":17803:17805   */\n      0x40\n        /* \"#utility.yul\":17798:17801   */\n      dup3\n        /* \"#utility.yul\":17794:17806   */\n      add\n        /* \"#utility.yul\":17787:17806   */\n      swap1\n      pop\n        /* \"#utility.yul\":17446:17812   */\n      swap2\n      swap1\n      pop\n      jump\t// out\n        /* \"#utility.yul\":17818:18237   */\n    tag_95:\n        /* \"#utility.yul\":17984:17988   */\n      0x00\n        /* \"#utility.yul\":18022:18024   */\n      0x20\n        /* \"#utility.yul\":18011:18020   */\n      dup3\n        /* \"#utility.yul\":18007:18025   */\n      add\n        /* \"#utility.yul\":17999:18025   */\n      swap1\n      pop\n        /* \"#utility.yul\":18071:18080   */\n      dup2\n        /* \"#utility.yul\":18065:18069   */\n      dup2\n        /* \"#utility.yul\":18061:18081   */\n      sub\n        /* \"#utility.yul\":18057:18058   */\n      0x00\n        /* \"#utility.yul\":18046:18055   */\n      dup4\n        /* \"#utility.yul\":18042:18059   */\n      add\n        /* \"#utility.yul\":18035:18082   */\n      mstore\n        /* \"#utility.yul\":18099:18230   */\n      tag_406\n        /* \"#utility.yul\":18225:18229   */\n      dup2\n        /* \"#utility.yul\":18099:18230   */\n      tag_216\n      jump\t// in\n    tag_406:\n        /* \"#utility.yul\":18091:18230   */\n      swap1\n      pop\n        /* \"#utility.yul\":17818:18237   */\n      swap2\n      swap1\n      pop\n      jump\t// out\n        /* \"#utility.yul\":18243:18470   */\n    tag_217:\n        /* \"#utility.yul\":18383:18417   */\n      0x5374616b65206973206e6f7420616374697665206f7220616c72656164792077\n        /* \"#utility.yul\":18379:18380   */\n      0x00\n        /* \"#utility.yul\":18371:18377   */\n      dup3\n        /* \"#utility.yul\":18367:18381   */\n      add\n        /* \"#utility.yul\":18360:18418   */\n      mstore\n        /* \"#utility.yul\":18452:18462   */\n      0x697468647261776e000000000000000000000000000000000000000000000000\n        /* \"#utility.yul\":18447:18449   */\n      0x20\n        /* \"#utility.yul\":18439:18445   */\n      dup3\n        /* \"#utility.yul\":18435:18450   */\n      add\n        /* \"#utility.yul\":18428:18463   */\n      mstore\n        /* \"#utility.yul\":18243:18470   */\n      pop\n      jump\t// out\n        /* \"#utility.yul\":18476:18842   */\n    tag_218:\n        /* \"#utility.yul\":18618:18621   */\n      0x00\n        /* \"#utility.yul\":18639:18706   */\n      tag_409\n        /* \"#utility.yul\":18703:18705   */\n      0x28\n        /* \"#utility.yul\":18698:18701   */\n      dup4\n        /* \"#utility.yul\":18639:18706   */\n      tag_200\n      jump\t// in\n    tag_409:\n        /* \"#utility.yul\":18632:18706   */\n      swap2\n      pop\n        /* \"#utility.yul\":18715:18808   */\n      tag_410\n        /* \"#utility.yul\":18804:18807   */\n      dup3\n        /* \"#utility.yul\":18715:18808   */\n      tag_217\n      jump\t// in\n    tag_410:\n        /* \"#utility.yul\":18833:18835   */\n      0x40\n        /* \"#utility.yul\":18828:18831   */\n      dup3\n        /* \"#utility.yul\":18824:18836   */\n      add\n        /* \"#utility.yul\":18817:18836   */\n      swap1\n      pop\n        /* \"#utility.yul\":18476:18842   */\n      swap2\n      swap1\n      pop\n      jump\t// out\n        /* \"#utility.yul\":18848:19267   */\n    tag_98:\n        /* \"#utility.yul\":19014:19018   */\n      0x00\n        /* \"#utility.yul\":19052:19054   */\n      0x20\n        /* \"#utility.yul\":19041:19050   */\n      dup3\n        /* \"#utility.yul\":19037:19055   */\n      add\n        /* \"#utility.yul\":19029:19055   */\n      swap1\n      pop\n        /* \"#utility.yul\":19101:19110   */\n      dup2\n        /* \"#utility.yul\":19095:19099   */\n      dup2\n        /* \"#utility.yul\":19091:19111   */\n      sub\n        /* \"#utility.yul\":19087:19088   */\n      0x00\n        /* \"#utility.yul\":19076:19085   */\n      dup4\n        /* \"#utility.yul\":19072:19089   */\n      add\n        /* \"#utility.yul\":19065:19112   */\n      mstore\n        /* \"#utility.yul\":19129:19260   */\n      tag_412\n        /* \"#utility.yul\":19255:19259   */\n      dup2\n        /* \"#utility.yul\":19129:19260   */\n      tag_218\n      jump\t// in\n    tag_412:\n        /* \"#utility.yul\":19121:19260   */\n      swap1\n      pop\n        /* \"#utility.yul\":18848:19267   */\n      swap2\n      swap1\n      pop\n      jump\t// out\n        /* \"#utility.yul\":19273:19448   */\n    tag_219:\n        /* \"#utility.yul\":19413:19440   */\n      0x5374616b6520706572696f64206973206e6f7420656e64656400000000000000\n        /* \"#utility.yul\":19409:19410   */\n      0x00\n        /* \"#utility.yul\":19401:19407   */\n      dup3\n        /* \"#utility.yul\":19397:19411   */\n      add\n        /* \"#utility.yul\":19390:19441   */\n      mstore\n        /* \"#utility.yul\":19273:19448   */\n      pop\n      jump\t// out\n        /* \"#utility.yul\":19454:19820   */\n    tag_220:\n        /* \"#utility.yul\":19596:19599   */\n      0x00\n        /* \"#utility.yul\":19617:19684   */\n      tag_415\n        /* \"#utility.yul\":19681:19683   */\n      0x19\n        /* \"#utility.yul\":19676:19679   */\n      dup4\n        /* \"#utility.yul\":19617:19684   */\n      tag_200\n      jump\t// in\n    tag_415:\n        /* \"#utility.yul\":19610:19684   */\n      swap2\n      pop\n        /* \"#utility.yul\":19693:19786   */\n      tag_416\n        /* \"#utility.yul\":19782:19785   */\n      dup3\n        /* \"#utility.yul\":19693:19786   */\n      tag_219\n      jump\t// in\n    tag_416:\n        /* \"#utility.yul\":19811:19813   */\n      0x20\n        /* \"#utility.yul\":19806:19809   */\n      dup3\n        /* \"#utility.yul\":19802:19814   */\n      add\n        /* \"#utility.yul\":19795:19814   */\n      swap1\n      pop\n        /* \"#utility.yul\":19454:19820   */\n      swap2\n      swap1\n      pop\n      jump\t// out\n        /* \"#utility.yul\":19826:20245   */\n    tag_101:\n        /* \"#utility.yul\":19992:19996   */\n      0x00\n        /* \"#utility.yul\":20030:20032   */\n      0x20\n        /* \"#utility.yul\":20019:20028   */\n      dup3\n        /* \"#utility.yul\":20015:20033   */\n      add\n        /* \"#utility.yul\":20007:20033   */\n      swap1\n      pop\n        /* \"#utility.yul\":20079:20088   */\n      dup2\n        /* \"#utility.yul\":20073:20077   */\n      dup2\n        /* \"#utility.yul\":20069:20089   */\n      sub\n        /* \"#utility.yul\":20065:20066   */\n      0x00\n        /* \"#utility.yul\":20054:20063   */\n      dup4\n        /* \"#utility.yul\":20050:20067   */\n      add\n        /* \"#utility.yul\":20043:20090   */\n      mstore\n        /* \"#utility.yul\":20107:20238   */\n      tag_418\n        /* \"#utility.yul\":20233:20237   */\n      dup2\n        /* \"#utility.yul\":20107:20238   */\n      tag_220\n      jump\t// in\n    tag_418:\n        /* \"#utility.yul\":20099:20238   */\n      swap1\n      pop\n        /* \"#utility.yul\":19826:20245   */\n      swap2\n      swap1\n      pop\n      jump\t// out\n        /* \"#utility.yul\":20251:20583   */\n    tag_107:\n        /* \"#utility.yul\":20372:20376   */\n      0x00\n        /* \"#utility.yul\":20410:20412   */\n      0x40\n        /* \"#utility.yul\":20399:20408   */\n      dup3\n        /* \"#utility.yul\":20395:20413   */\n      add\n        /* \"#utility.yul\":20387:20413   */\n      swap1\n      pop\n        /* \"#utility.yul\":20423:20494   */\n      tag_420\n        /* \"#utility.yul\":20491:20492   */\n      0x00\n        /* \"#utility.yul\":20480:20489   */\n      dup4\n        /* \"#utility.yul\":20476:20493   */\n      add\n        /* \"#utility.yul\":20467:20473   */\n      dup6\n        /* \"#utility.yul\":20423:20494   */\n      tag_177\n      jump\t// in\n    tag_420:\n        /* \"#utility.yul\":20504:20576   */\n      tag_421\n        /* \"#utility.yul\":20572:20574   */\n      0x20\n        /* \"#utility.yul\":20561:20570   */\n      dup4\n        /* \"#utility.yul\":20557:20575   */\n      add\n        /* \"#utility.yul\":20548:20554   */\n      dup5\n        /* \"#utility.yul\":20504:20576   */\n      tag_177\n      jump\t// in\n    tag_421:\n        /* \"#utility.yul\":20251:20583   */\n      swap4\n      swap3\n      pop\n      pop\n      pop\n      jump\t// out\n        /* \"#utility.yul\":20589:20769   */\n    tag_114:\n        /* \"#utility.yul\":20637:20714   */\n      0x4e487b7100000000000000000000000000000000000000000000000000000000\n        /* \"#utility.yul\":20634:20635   */\n      0x00\n        /* \"#utility.yul\":20627:20715   */\n      mstore\n        /* \"#utility.yul\":20734:20738   */\n      0x32\n        /* \"#utility.yul\":20731:20732   */\n      0x04\n        /* \"#utility.yul\":20724:20739   */\n      mstore\n        /* \"#utility.yul\":20758:20762   */\n      0x24\n        /* \"#utility.yul\":20755:20756   */\n      0x00\n        /* \"#utility.yul\":20748:20763   */\n      revert\n        /* \"#utility.yul\":20775:21008   */\n    tag_118:\n        /* \"#utility.yul\":20814:20817   */\n      0x00\n        /* \"#utility.yul\":20837:20861   */\n      tag_424\n        /* \"#utility.yul\":20855:20860   */\n      dup3\n        /* \"#utility.yul\":20837:20861   */\n      tag_172\n      jump\t// in\n    tag_424:\n        /* \"#utility.yul\":20828:20861   */\n      swap2\n      pop\n        /* \"#utility.yul\":20883:20949   */\n      0xffffffffffffffffffffffffffffffffffffffffffffffffffffffffffffffff\n        /* \"#utility.yul\":20876:20881   */\n      dup3\n        /* \"#utility.yul\":20873:20950   */\n      sub\n        /* \"#utility.yul\":20870:20973   */\n      tag_425\n      jumpi\n        /* \"#utility.yul\":20953:20971   */\n      tag_426\n      tag_199\n      jump\t// in\n    tag_426:\n        /* \"#utility.yul\":20870:20973   */\n    tag_425:\n        /* \"#utility.yul\":21000:21001   */\n      0x01\n        /* \"#utility.yul\":20993:20998   */\n      dup3\n        /* \"#utility.yul\":20989:21002   */\n      add\n        /* \"#utility.yul\":20982:21002   */\n      swap1\n      pop\n        /* \"#utility.yul\":20775:21008   */\n      swap2\n      swap1\n      pop\n      jump\t// out\n        /* \"#utility.yul\":21014:21194   */\n    tag_121:\n        /* \"#utility.yul\":21062:21139   */\n      0x4e487b7100000000000000000000000000000000000000000000000000000000\n        /* \"#utility.yul\":21059:21060   */\n      0x00\n        /* \"#utility.yul\":21052:21140   */\n      mstore\n        /* \"#utility.yul\":21159:21163   */\n      0x41\n        /* \"#utility.yul\":21156:21157   */\n      0x04\n        /* \"#utility.yul\":21149:21164   */\n      mstore\n        /* \"#utility.yul\":21183:21187   */\n      0x24\n        /* \"#utility.yul\":21180:21181   */\n      0x00\n        /* \"#utility.yul\":21173:21188   */\n      revert\n        /* \"#utility.yul\":21200:21279   */\n    tag_221:\n        /* \"#utility.yul\":21239:21246   */\n      0x00\n        /* \"#utility.yul\":21268:21273   */\n      dup2\n        /* \"#utility.yul\":21257:21273   */\n      swap1\n      pop\n        /* \"#utility.yul\":21200:21279   */\n      swap2\n      swap1\n      pop\n      jump\t// out\n        /* \"#utility.yul\":21285:21442   */\n    tag_222:\n        /* \"#utility.yul\":21390:21435   */\n      tag_430\n        /* \"#utility.yul\":21410:21434   */\n      tag_431\n        /* \"#utility.yul\":21428:21433   */\n      dup3\n        /* \"#utility.yul\":21410:21434   */\n      tag_172\n      jump\t// in\n    tag_431:\n        /* \"#utility.yul\":21390:21435   */\n      tag_221\n      jump\t// in\n    tag_430:\n        /* \"#utility.yul\":21385:21388   */\n      dup3\n        /* \"#utility.yul\":21378:21436   */\n      mstore\n        /* \"#utility.yul\":21285:21442   */\n      pop\n      pop\n      jump\t// out\n        /* \"#utility.yul\":21448:21542   */\n    tag_223:\n        /* \"#utility.yul\":21481:21489   */\n      0x00\n        /* \"#utility.yul\":21529:21534   */\n      dup2\n        /* \"#utility.yul\":21525:21527   */\n      0x60\n        /* \"#utility.yul\":21521:21535   */\n      shl\n        /* \"#utility.yul\":21500:21535   */\n      swap1\n      pop\n        /* \"#utility.yul\":21448:21542   */\n      swap2\n      swap1\n      pop\n      jump\t// out\n        /* \"#utility.yul\":21548:21642   */\n    tag_224:\n        /* \"#utility.yul\":21587:21594   */\n      0x00\n        /* \"#utility.yul\":21616:21636   */\n      tag_434\n        /* \"#utility.yul\":21630:21635   */\n      dup3\n        /* \"#utility.yul\":21616:21636   */\n      tag_223\n      jump\t// in\n    tag_434:\n        /* \"#utility.yul\":21605:21636   */\n      swap1\n      pop\n        /* \"#utility.yul\":21548:21642   */\n      swap2\n      swap1\n      pop\n      jump\t// out\n        /* \"#utility.yul\":21648:21748   */\n    tag_225:\n        /* \"#utility.yul\":21687:21694   */\n      0x00\n        /* \"#utility.yul\":21716:21742   */\n      tag_436\n        /* \"#utility.yul\":21736:21741   */\n      dup3\n        /* \"#utility.yul\":21716:21742   */\n      tag_224\n      jump\t// in\n    tag_436:\n        /* \"#utility.yul\":21705:21742   */\n      swap1\n      pop\n        /* \"#utility.yul\":21648:21748   */\n      swap2\n      swap1\n      pop\n      jump\t// out\n        /* \"#utility.yul\":21754:21911   */\n    tag_226:\n        /* \"#utility.yul\":21859:21904   */\n      tag_438\n        /* \"#utility.yul\":21879:21903   */\n      tag_439\n        /* \"#utility.yul\":21897:21902   */\n      dup3\n        /* \"#utility.yul\":21879:21903   */\n      tag_184\n      jump\t// in\n    tag_439:\n        /* \"#utility.yul\":21859:21904   */\n      tag_225\n      jump\t// in\n    tag_438:\n        /* \"#utility.yul\":21854:21857   */\n      dup3\n        /* \"#utility.yul\":21847:21905   */\n      mstore\n        /* \"#utility.yul\":21754:21911   */\n      pop\n      pop\n      jump\t// out\n        /* \"#utility.yul\":21917:22455   */\n    tag_168:\n        /* \"#utility.yul\":22085:22088   */\n      0x00\n        /* \"#utility.yul\":22100:22175   */\n      tag_441\n        /* \"#utility.yul\":22171:22174   */\n      dup3\n        /* \"#utility.yul\":22162:22168   */\n      dup7\n        /* \"#utility.yul\":22100:22175   */\n      tag_222\n      jump\t// in\n    tag_441:\n        /* \"#utility.yul\":22200:22202   */\n      0x20\n        /* \"#utility.yul\":22195:22198   */\n      dup3\n        /* \"#utility.yul\":22191:22203   */\n      add\n        /* \"#utility.yul\":22184:22203   */\n      swap2\n      pop\n        /* \"#utility.yul\":22213:22288   */\n      tag_442\n        /* \"#utility.yul\":22284:22287   */\n      dup3\n        /* \"#utility.yul\":22275:22281   */\n      dup6\n        /* \"#utility.yul\":22213:22288   */\n      tag_226\n      jump\t// in\n    tag_442:\n        /* \"#utility.yul\":22313:22315   */\n      0x14\n        /* \"#utility.yul\":22308:22311   */\n      dup3\n        /* \"#utility.yul\":22304:22316   */\n      add\n        /* \"#utility.yul\":22297:22316   */\n      swap2\n      pop\n        /* \"#utility.yul\":22326:22401   */\n      tag_443\n        /* \"#utility.yul\":22397:22400   */\n      dup3\n        /* \"#utility.yul\":22388:22394   */\n      dup5\n        /* \"#utility.yul\":22326:22401   */\n      tag_222\n      jump\t// in\n    tag_443:\n        /* \"#utility.yul\":22426:22428   */\n      0x20\n        /* \"#utility.yul\":22421:22424   */\n      dup3\n        /* \"#utility.yul\":22417:22429   */\n      add\n        /* \"#utility.yul\":22410:22429   */\n      swap2\n      pop\n        /* \"#utility.yul\":22446:22449   */\n      dup2\n        /* \"#utility.yul\":22439:22449   */\n      swap1\n      pop\n        /* \"#utility.yul\":21917:22455   */\n      swap5\n      swap4\n      pop\n      pop\n      pop\n      pop\n      jump\t// out\n\n    auxdata: 0xa2646970667358221220dbaebea1e440fef0902a1087d69caf34fa7e2e7eb778ab4b1ca8ca9fe2f7103f64736f6c634300081e0033\n}\n",
				"bytecode": {
					"linkReferences": {},
					"object": "608060405234801561000f575f5ffd5b50604051611c00380380611c00833981810160405281019061003191906101d3565b805f5f6101000a81548173ffffffffffffffffffffffffffffffffffffffff021916908373ffffffffffffffffffffffffffffffffffffffff160217905550600a60015f5f6003811115610088576100876101fe565b5b600381111561009a576100996101fe565b5b81526020019081526020015f2081905550600f60015f600160038111156100c4576100c36101fe565b5b60038111156100d6576100d56101fe565b5b81526020019081526020015f2081905550601460015f60026003811115610100576100ff6101fe565b5b6003811115610112576101116101fe565b5b81526020019081526020015f2081905550601960015f60038081111561013b5761013a6101fe565b5b600381111561014d5761014c6101fe565b5b81526020019081526020015f20819055505061022b565b5f5ffd5b5f73ffffffffffffffffffffffffffffffffffffffff82169050919050565b5f61019182610168565b9050919050565b5f6101a282610187565b9050919050565b6101b281610198565b81146101bc575f5ffd5b50565b5f815190506101cd816101a9565b92915050565b5f602082840312156101e8576101e7610164565b5b5f6101f5848285016101bf565b91505092915050565b7f4e487b71000000000000000000000000000000000000000000000000000000005f52602160045260245ffd5b6119c8806102385f395ff3fe608060405234801561000f575f5ffd5b5060043610610086575f3560e01c8063a262ab3511610059578063a262ab3514610110578063a57a530414610140578063b5d5b5fa14610170578063cc4a3eed146101a557610086565b806310087fb11461008a5780631f1accb2146100a65780632e1a7d4d146100d657806372f702f3146100f2575b5f5ffd5b6100a4600480360381019061009f9190610eed565b6101d5565b005b6100c060048036038101906100bb9190610f2b565b61065f565b6040516100cd9190610f65565b60405180910390f35b6100f060048036038101906100eb9190610f7e565b610674565b005b6100fa6108b0565b6040516101079190611023565b60405180910390f35b61012a60048036038101906101259190611077565b6108d4565b60405161013791906111ec565b60405180910390f35b61015a60048036038101906101559190610f7e565b610c05565b604051610167919061121b565b60405180910390f35b61018a60048036038101906101859190611234565b610c35565b60405161019c96959493929190611281565b60405180910390f35b6101bf60048036038101906101ba9190611234565b610c84565b6040516101cc9190610f65565b60405180910390f35b5f670de0b6b3a7640000836101ea919061130d565b90505f831161022e576040517f08c379a0000000000000000000000000000000000000000000000000000000008152600401610225906113a8565b60405180910390fd5b805f5f9054906101000a900473ffffffffffffffffffffffffffffffffffffffff1673ffffffffffffffffffffffffffffffffffffffff166370a08231336040518263ffffffff1660e01b8152600401610288919061121b565b602060405180830381865afa1580156102a3573d5f5f3e3d5ffd5b505050506040513d601f19601f820116820180604052508101906102c791906113da565b1015610308576040517f08c379a00000000000000000000000000000000000000000000000000000000081526004016102ff9061144f565b60405180910390fd5b5f5f9054906101000a900473ffffffffffffffffffffffffffffffffffffffff1673ffffffffffffffffffffffffffffffffffffffff166323b872dd3330866040518463ffffffff1660e01b81526004016103659392919061146d565b6020604051808303815f875af1158015610381573d5f5f3e3d5ffd5b505050506040513d601f19601f820116820180604052508101906103a591906114cc565b6103e4576040517f08c379a00000000000000000000000000000000000000000000000000000000081526004016103db90611541565b60405180910390fd5b5f6103ee83610caf565b90505f816020015190505f825f015190505f4290505f8382610410919061155f565b90505f61041b610e01565b90505f610168670de0b6b3a76400008660015f8d600381111561044157610440611592565b5b600381111561045357610452611592565b5b81526020019081526020015f205461046b919061130d565b610475919061130d565b61047f91906115ec565b90503373ffffffffffffffffffffffffffffffffffffffff167f022dd619ee0d92140e5abde105761d6df71c05c4fcb761610ea0552064f91e6c8b8b86866040516104cd9493929190611662565b60405180910390a26040518060c001604052808b81526020018581526020018481526020018281526020016001151581526020018381525060025f3373ffffffffffffffffffffffffffffffffffffffff1673ffffffffffffffffffffffffffffffffffffffff1681526020019081526020015f205f8481526020019081526020015f205f820151815f01556020820151816001015560408201518160020155606082015181600301556080820151816004015f6101000a81548160ff02191690831515021790555060a082015181600501559050503360035f8481526020019081526020015f205f6101000a81548173ffffffffffffffffffffffffffffffffffffffff021916908373ffffffffffffffffffffffffffffffffffffffff16021790555060045f3373ffffffffffffffffffffffffffffffffffffffff1673ffffffffffffffffffffffffffffffffffffffff1681526020019081526020015f2082908060018154018082558091505060019003905f5260205f20015f909190919091505550505050505050505050565b6001602052805f5260405f205f915090505481565b3373ffffffffffffffffffffffffffffffffffffffff1660035f8381526020019081526020015f205f9054906101000a900473ffffffffffffffffffffffffffffffffffffffff1673ffffffffffffffffffffffffffffffffffffffff1614610712576040517f08c379a000000000000000000000000000000000000000000000000000000000815260040161070990611715565b60405180910390fd5b5f60025f3373ffffffffffffffffffffffffffffffffffffffff1673ffffffffffffffffffffffffffffffffffffffff1681526020019081526020015f205f8381526020019081526020015f209050806004015f9054906101000a900460ff166107b1576040517f08c379a00000000000000000000000000000000000000000000000000000000081526004016107a8906117a3565b60405180910390fd5b80600201544210156107f8576040517f08c379a00000000000000000000000000000000000000000000000000000000081526004016107ef9061180b565b60405180910390fd5b5f670de0b6b3a764000060648360030154845f0154610817919061130d565b61082191906115ec565b61082b91906115ec565b90505f81835f015461083d919061155f565b90505f836004015f6101000a81548160ff0219169083151502179055503373ffffffffffffffffffffffffffffffffffffffff167f92ccf450a286a957af52509bc1c9939d1a6a481783e142e41e2499f0bb66ebc682866040516108a2929190611829565b60405180910390a250505050565b5f5f9054906101000a900473ffffffffffffffffffffffffffffffffffffffff1681565b60605f5f5f90505b60045f8573ffffffffffffffffffffffffffffffffffffffff1673ffffffffffffffffffffffffffffffffffffffff1681526020019081526020015f20805490508110156109fd575f60045f8673ffffffffffffffffffffffffffffffffffffffff1673ffffffffffffffffffffffffffffffffffffffff1681526020019081526020015f20828154811061097457610973611850565b5b905f5260205f200154905060025f8673ffffffffffffffffffffffffffffffffffffffff1673ffffffffffffffffffffffffffffffffffffffff1681526020019081526020015f205f8281526020019081526020015f206004015f9054906101000a900460ff16156109ef5782806109eb9061187d565b9350505b5080806001019150506108dc565b505f8167ffffffffffffffff811115610a1957610a186118c4565b5b604051908082528060200260200182016040528015610a5257816020015b610a3f610e49565b815260200190600190039081610a375790505b5090505f5f90505f5f90505b60045f8773ffffffffffffffffffffffffffffffffffffffff1673ffffffffffffffffffffffffffffffffffffffff1681526020019081526020015f2080549050811015610bf9575f60045f8873ffffffffffffffffffffffffffffffffffffffff1673ffffffffffffffffffffffffffffffffffffffff1681526020019081526020015f208281548110610af657610af5611850565b5b905f5260205f20015490505f60025f8973ffffffffffffffffffffffffffffffffffffffff1673ffffffffffffffffffffffffffffffffffffffff1681526020019081526020015f205f8381526020019081526020015f209050806004015f9054906101000a900460ff1615610bea57806040518060c00160405290815f8201548152602001600182015481526020016002820154815260200160038201548152602001600482015f9054906101000a900460ff16151515158152602001600582015481525050858581518110610bd057610bcf611850565b5b60200260200101819052508380610be69061187d565b9450505b50508080600101915050610a5e565b50819350505050919050565b6003602052805f5260405f205f915054906101000a900473ffffffffffffffffffffffffffffffffffffffff1681565b6002602052815f5260405f20602052805f5260405f205f9150915050805f015490806001015490806002015490806003015490806004015f9054906101000a900460ff16908060050154905086565b6004602052815f5260405f208181548110610c9d575f80fd5b905f5260205f20015f91509150505481565b610cb7610e7b565b5f6003811115610cca57610cc9611592565b5b826003811115610cdd57610cdc611592565b5b03610d00576040518060400160405280601e8152602001603c8152509050610dfc565b60016003811115610d1457610d13611592565b5b826003811115610d2757610d26611592565b5b03610d4a576040518060400160405280605a815260200160b48152509050610dfc565b60026003811115610d5e57610d5d611592565b5b826003811115610d7157610d70611592565b5b03610d9557604051806040016040528060b4815260200161012c8152509050610dfc565b600380811115610da857610da7611592565b5b826003811115610dbb57610dba611592565b5b03610de057604051806040016040528061016881526020016102588152509050610dfc565b60405180604001604052806101688152602001610e1081525090505b919050565b5f423360055f815480929190610e169061187d565b91905055604051602001610e2c93929190611956565b604051602081830303815290604052805190602001205f1c905090565b6040518060c001604052805f81526020015f81526020015f81526020015f81526020015f151581526020015f81525090565b60405180604001604052805f81526020015f81525090565b5f5ffd5b5f819050919050565b610ea981610e97565b8114610eb3575f5ffd5b50565b5f81359050610ec481610ea0565b92915050565b60048110610ed6575f5ffd5b50565b5f81359050610ee781610eca565b92915050565b5f5f60408385031215610f0357610f02610e93565b5b5f610f1085828601610eb6565b9250506020610f2185828601610ed9565b9150509250929050565b5f60208284031215610f4057610f3f610e93565b5b5f610f4d84828501610ed9565b91505092915050565b610f5f81610e97565b82525050565b5f602082019050610f785f830184610f56565b92915050565b5f60208284031215610f9357610f92610e93565b5b5f610fa084828501610eb6565b91505092915050565b5f73ffffffffffffffffffffffffffffffffffffffff82169050919050565b5f819050919050565b5f610feb610fe6610fe184610fa9565b610fc8565b610fa9565b9050919050565b5f610ffc82610fd1565b9050919050565b5f61100d82610ff2565b9050919050565b61101d81611003565b82525050565b5f6020820190506110365f830184611014565b92915050565b5f61104682610fa9565b9050919050565b6110568161103c565b8114611060575f5ffd5b50565b5f813590506110718161104d565b92915050565b5f6020828403121561108c5761108b610e93565b5b5f61109984828501611063565b91505092915050565b5f81519050919050565b5f82825260208201905092915050565b5f819050602082019050919050565b6110d481610e97565b82525050565b5f8115159050919050565b6110ee816110da565b82525050565b60c082015f8201516111085f8501826110cb565b50602082015161111b60208501826110cb565b50604082015161112e60408501826110cb565b50606082015161114160608501826110cb565b50608082015161115460808501826110e5565b5060a082015161116760a08501826110cb565b50505050565b5f61117883836110f4565b60c08301905092915050565b5f602082019050919050565b5f61119a826110a2565b6111a481856110ac565b93506111af836110bc565b805f5b838110156111df5781516111c6888261116d565b97506111d183611184565b9250506001810190506111b2565b5085935050505092915050565b5f6020820190508181035f8301526112048184611190565b905092915050565b6112158161103c565b82525050565b5f60208201905061122e5f83018461120c565b92915050565b5f5f6040838503121561124a57611249610e93565b5b5f61125785828601611063565b925050602061126885828601610eb6565b9150509250929050565b61127b816110da565b82525050565b5f60c0820190506112945f830189610f56565b6112a16020830188610f56565b6112ae6040830187610f56565b6112bb6060830186610f56565b6112c86080830185611272565b6112d560a0830184610f56565b979650505050505050565b7f4e487b71000000000000000000000000000000000000000000000000000000005f52601160045260245ffd5b5f61131782610e97565b915061132283610e97565b925082820261133081610e97565b91508282048414831517611347576113466112e0565b5b5092915050565b5f82825260208201905092915050565b7f416d6f756e742073686f756c6420626520706f736974697665000000000000005f82015250565b5f61139260198361134e565b915061139d8261135e565b602082019050919050565b5f6020820190508181035f8301526113bf81611386565b9050919050565b5f815190506113d481610ea0565b92915050565b5f602082840312156113ef576113ee610e93565b5b5f6113fc848285016113c6565b91505092915050565b7f496e73756666696369656e742062616c616e63650000000000000000000000005f82015250565b5f61143960148361134e565b915061144482611405565b602082019050919050565b5f6020820190508181035f8301526114668161142d565b9050919050565b5f6060820190506114805f83018661120c565b61148d602083018561120c565b61149a6040830184610f56565b949350505050565b6114ab816110da565b81146114b5575f5ffd5b50565b5f815190506114c6816114a2565b92915050565b5f602082840312156114e1576114e0610e93565b5b5f6114ee848285016114b8565b91505092915050565b7f5374616b696e673a205472616e73666572206661696c656400000000000000005f82015250565b5f61152b60188361134e565b9150611536826114f7565b602082019050919050565b5f6020820190508181035f8301526115588161151f565b9050919050565b5f61156982610e97565b915061157483610e97565b925082820190508082111561158c5761158b6112e0565b5b92915050565b7f4e487b71000000000000000000000000000000000000000000000000000000005f52602160045260245ffd5b7f4e487b71000000000000000000000000000000000000000000000000000000005f52601260045260245ffd5b5f6115f682610e97565b915061160183610e97565b925082611611576116106115bf565b5b828204905092915050565b6004811061162d5761162c611592565b5b50565b5f81905061163d8261161c565b919050565b5f61164c82611630565b9050919050565b61165c81611642565b82525050565b5f6080820190506116755f830187610f56565b6116826020830186611653565b61168f6040830185610f56565b61169c6060830184610f56565b95945050505050565b7f596f7520617265206e6f7420746865206f776e6572206f6620746869732073745f8201527f616b650000000000000000000000000000000000000000000000000000000000602082015250565b5f6116ff60238361134e565b915061170a826116a5565b604082019050919050565b5f6020820190508181035f83015261172c816116f3565b9050919050565b7f5374616b65206973206e6f7420616374697665206f7220616c726561647920775f8201527f697468647261776e000000000000000000000000000000000000000000000000602082015250565b5f61178d60288361134e565b915061179882611733565b604082019050919050565b5f6020820190508181035f8301526117ba81611781565b9050919050565b7f5374616b6520706572696f64206973206e6f7420656e646564000000000000005f82015250565b5f6117f560198361134e565b9150611800826117c1565b602082019050919050565b5f6020820190508181035f830152611822816117e9565b9050919050565b5f60408201905061183c5f830185610f56565b6118496020830184610f56565b9392505050565b7f4e487b71000000000000000000000000000000000000000000000000000000005f52603260045260245ffd5b5f61188782610e97565b91507fffffffffffffffffffffffffffffffffffffffffffffffffffffffffffffffff82036118b9576118b86112e0565b5b600182019050919050565b7f4e487b71000000000000000000000000000000000000000000000000000000005f52604160045260245ffd5b5f819050919050565b61190b61190682610e97565b6118f1565b82525050565b5f8160601b9050919050565b5f61192782611911565b9050919050565b5f6119388261191d565b9050919050565b61195061194b8261103c565b61192e565b82525050565b5f61196182866118fa565b602082019150611971828561193f565b60148201915061198182846118fa565b60208201915081905094935050505056fea2646970667358221220dbaebea1e440fef0902a1087d69caf34fa7e2e7eb778ab4b1ca8ca9fe2f7103f64736f6c634300081e0033",
					"opcodes": "PUSH1 0x80 PUSH1 0x40 MSTORE CALLVALUE DUP1 ISZERO PUSH2 0xF JUMPI PUSH0 PUSH0 REVERT JUMPDEST POP PUSH1 0x40 MLOAD PUSH2 0x1C00 CODESIZE SUB DUP1 PUSH2 0x1C00 DUP4 CODECOPY DUP2 DUP2 ADD PUSH1 0x40 MSTORE DUP2 ADD SWAP1 PUSH2 0x31 SWAP2 SWAP1 PUSH2 0x1D3 JUMP JUMPDEST DUP1 PUSH0 PUSH0 PUSH2 0x100 EXP DUP2 SLOAD DUP2 PUSH20 0xFFFFFFFFFFFFFFFFFFFFFFFFFFFFFFFFFFFFFFFF MUL NOT AND SWAP1 DUP4 PUSH20 0xFFFFFFFFFFFFFFFFFFFFFFFFFFFFFFFFFFFFFFFF AND MUL OR SWAP1 SSTORE POP PUSH1 0xA PUSH1 0x1 PUSH0 PUSH0 PUSH1 0x3 DUP2 GT ISZERO PUSH2 0x88 JUMPI PUSH2 0x87 PUSH2 0x1FE JUMP JUMPDEST JUMPDEST PUSH1 0x3 DUP2 GT ISZERO PUSH2 0x9A JUMPI PUSH2 0x99 PUSH2 0x1FE JUMP JUMPDEST JUMPDEST DUP2 MSTORE PUSH1 0x20 ADD SWAP1 DUP2 MSTORE PUSH1 0x20 ADD PUSH0 KECCAK256 DUP2 SWAP1 SSTORE POP PUSH1 0xF PUSH1 0x1 PUSH0 PUSH1 0x1 PUSH1 0x3 DUP2 GT ISZERO PUSH2 0xC4 JUMPI PUSH2 0xC3 PUSH2 0x1FE JUMP JUMPDEST JUMPDEST PUSH1 0x3 DUP2 GT ISZERO PUSH2 0xD6 JUMPI PUSH2 0xD5 PUSH2 0x1FE JUMP JUMPDEST JUMPDEST DUP2 MSTORE PUSH1 0x20 ADD SWAP1 DUP2 MSTORE PUSH1 0x20 ADD PUSH0 KECCAK256 DUP2 SWAP1 SSTORE POP PUSH1 0x14 PUSH1 0x1 PUSH0 PUSH1 0x2 PUSH1 0x3 DUP2 GT ISZERO PUSH2 0x100 JUMPI PUSH2 0xFF PUSH2 0x1FE JUMP JUMPDEST JUMPDEST PUSH1 0x3 DUP2 GT ISZERO PUSH2 0x112 JUMPI PUSH2 0x111 PUSH2 0x1FE JUMP JUMPDEST JUMPDEST DUP2 MSTORE PUSH1 0x20 ADD SWAP1 DUP2 MSTORE PUSH1 0x20 ADD PUSH0 KECCAK256 DUP2 SWAP1 SSTORE POP PUSH1 0x19 PUSH1 0x1 PUSH0 PUSH1 0x3 DUP1 DUP2 GT ISZERO PUSH2 0x13B JUMPI PUSH2 0x13A PUSH2 0x1FE JUMP JUMPDEST JUMPDEST PUSH1 0x3 DUP2 GT ISZERO PUSH2 0x14D JUMPI PUSH2 0x14C PUSH2 0x1FE JUMP JUMPDEST JUMPDEST DUP2 MSTORE PUSH1 0x20 ADD SWAP1 DUP2 MSTORE PUSH1 0x20 ADD PUSH0 KECCAK256 DUP2 SWAP1 SSTORE POP POP PUSH2 0x22B JUMP JUMPDEST PUSH0 PUSH0 REVERT JUMPDEST PUSH0 PUSH20 0xFFFFFFFFFFFFFFFFFFFFFFFFFFFFFFFFFFFFFFFF DUP3 AND SWAP1 POP SWAP2 SWAP1 POP JUMP JUMPDEST PUSH0 PUSH2 0x191 DUP3 PUSH2 0x168 JUMP JUMPDEST SWAP1 POP SWAP2 SWAP1 POP JUMP JUMPDEST PUSH0 PUSH2 0x1A2 DUP3 PUSH2 0x187 JUMP JUMPDEST SWAP1 POP SWAP2 SWAP1 POP JUMP JUMPDEST PUSH2 0x1B2 DUP2 PUSH2 0x198 JUMP JUMPDEST DUP2 EQ PUSH2 0x1BC JUMPI PUSH0 PUSH0 REVERT JUMPDEST POP JUMP JUMPDEST PUSH0 DUP2 MLOAD SWAP1 POP PUSH2 0x1CD DUP2 PUSH2 0x1A9 JUMP JUMPDEST SWAP3 SWAP2 POP POP JUMP JUMPDEST PUSH0 PUSH1 0x20 DUP3 DUP5 SUB SLT ISZERO PUSH2 0x1E8 JUMPI PUSH2 0x1E7 PUSH2 0x164 JUMP JUMPDEST JUMPDEST PUSH0 PUSH2 0x1F5 DUP5 DUP3 DUP6 ADD PUSH2 0x1BF JUMP JUMPDEST SWAP2 POP POP SWAP3 SWAP2 POP POP JUMP JUMPDEST PUSH32 0x4E487B7100000000000000000000000000000000000000000000000000000000 PUSH0 MSTORE PUSH1 0x21 PUSH1 0x4 MSTORE PUSH1 0x24 PUSH0 REVERT JUMPDEST PUSH2 0x19C8 DUP1 PUSH2 0x238 PUSH0 CODECOPY PUSH0 RETURN INVALID PUSH1 0x80 PUSH1 0x40 MSTORE CALLVALUE DUP1 ISZERO PUSH2 0xF JUMPI PUSH0 PUSH0 REVERT JUMPDEST POP PUSH1 0x4 CALLDATASIZE LT PUSH2 0x86 JUMPI PUSH0 CALLDATALOAD PUSH1 0xE0 SHR DUP1 PUSH4 0xA262AB35 GT PUSH2 0x59 JUMPI DUP1 PUSH4 0xA262AB35 EQ PUSH2 0x110 JUMPI DUP1 PUSH4 0xA57A5304 EQ PUSH2 0x140 JUMPI DUP1 PUSH4 0xB5D5B5FA EQ PUSH2 0x170 JUMPI DUP1 PUSH4 0xCC4A3EED EQ PUSH2 0x1A5 JUMPI PUSH2 0x86 JUMP JUMPDEST DUP1 PUSH4 0x10087FB1 EQ PUSH2 0x8A JUMPI DUP1 PUSH4 0x1F1ACCB2 EQ PUSH2 0xA6 JUMPI DUP1 PUSH4 0x2E1A7D4D EQ PUSH2 0xD6 JUMPI DUP1 PUSH4 0x72F702F3 EQ PUSH2 0xF2 JUMPI JUMPDEST PUSH0 PUSH0 REVERT JUMPDEST PUSH2 0xA4 PUSH1 0x4 DUP1 CALLDATASIZE SUB DUP2 ADD SWAP1 PUSH2 0x9F SWAP2 SWAP1 PUSH2 0xEED JUMP JUMPDEST PUSH2 0x1D5 JUMP JUMPDEST STOP JUMPDEST PUSH2 0xC0 PUSH1 0x4 DUP1 CALLDATASIZE SUB DUP2 ADD SWAP1 PUSH2 0xBB SWAP2 SWAP1 PUSH2 0xF2B JUMP JUMPDEST PUSH2 0x65F JUMP JUMPDEST PUSH1 0x40 MLOAD PUSH2 0xCD SWAP2 SWAP1 PUSH2 0xF65 JUMP JUMPDEST PUSH1 0x40 MLOAD DUP1 SWAP2 SUB SWAP1 RETURN JUMPDEST PUSH2 0xF0 PUSH1 0x4 DUP1 CALLDATASIZE SUB DUP2 ADD SWAP1 PUSH2 0xEB SWAP2 SWAP1 PUSH2 0xF7E JUMP JUMPDEST PUSH2 0x674 JUMP JUMPDEST STOP JUMPDEST PUSH2 0xFA PUSH2 0x8B0 JUMP JUMPDEST PUSH1 0x40 MLOAD PUSH2 0x107 SWAP2 SWAP1 PUSH2 0x1023 JUMP JUMPDEST PUSH1 0x40 MLOAD DUP1 SWAP2 SUB SWAP1 RETURN JUMPDEST PUSH2 0x12A PUSH1 0x4 DUP1 CALLDATASIZE SUB DUP2 ADD SWAP1 PUSH2 0x125 SWAP2 SWAP1 PUSH2 0x1077 JUMP JUMPDEST PUSH2 0x8D4 JUMP JUMPDEST PUSH1 0x40 MLOAD PUSH2 0x137 SWAP2 SWAP1 PUSH2 0x11EC JUMP JUMPDEST PUSH1 0x40 MLOAD DUP1 SWAP2 SUB SWAP1 RETURN JUMPDEST PUSH2 0x15A PUSH1 0x4 DUP1 CALLDATASIZE SUB DUP2 ADD SWAP1 PUSH2 0x155 SWAP2 SWAP1 PUSH2 0xF7E JUMP JUMPDEST PUSH2 0xC05 JUMP JUMPDEST PUSH1 0x40 MLOAD PUSH2 0x167 SWAP2 SWAP1 PUSH2 0x121B JUMP JUMPDEST PUSH1 0x40 MLOAD DUP1 SWAP2 SUB SWAP1 RETURN JUMPDEST PUSH2 0x18A PUSH1 0x4 DUP1 CALLDATASIZE SUB DUP2 ADD SWAP1 PUSH2 0x185 SWAP2 SWAP1 PUSH2 0x1234 JUMP JUMPDEST PUSH2 0xC35 JUMP JUMPDEST PUSH1 0x40 MLOAD PUSH2 0x19C SWAP7 SWAP6 SWAP5 SWAP4 SWAP3 SWAP2 SWAP1 PUSH2 0x1281 JUMP JUMPDEST PUSH1 0x40 MLOAD DUP1 SWAP2 SUB SWAP1 RETURN JUMPDEST PUSH2 0x1BF PUSH1 0x4 DUP1 CALLDATASIZE SUB DUP2 ADD SWAP1 PUSH2 0x1BA SWAP2 SWAP1 PUSH2 0x1234 JUMP JUMPDEST PUSH2 0xC84 JUMP JUMPDEST PUSH1 0x40 MLOAD PUSH2 0x1CC SWAP2 SWAP1 PUSH2 0xF65 JUMP JUMPDEST PUSH1 0x40 MLOAD DUP1 SWAP2 SUB SWAP1 RETURN JUMPDEST PUSH0 PUSH8 0xDE0B6B3A7640000 DUP4 PUSH2 0x1EA SWAP2 SWAP1 PUSH2 0x130D JUMP JUMPDEST SWAP1 POP PUSH0 DUP4 GT PUSH2 0x22E JUMPI PUSH1 0x40 MLOAD PUSH32 0x8C379A000000000000000000000000000000000000000000000000000000000 DUP2 MSTORE PUSH1 0x4 ADD PUSH2 0x225 SWAP1 PUSH2 0x13A8 JUMP JUMPDEST PUSH1 0x40 MLOAD DUP1 SWAP2 SUB SWAP1 REVERT JUMPDEST DUP1 PUSH0 PUSH0 SWAP1 SLOAD SWAP1 PUSH2 0x100 EXP SWAP1 DIV PUSH20 0xFFFFFFFFFFFFFFFFFFFFFFFFFFFFFFFFFFFFFFFF AND PUSH20 0xFFFFFFFFFFFFFFFFFFFFFFFFFFFFFFFFFFFFFFFF AND PUSH4 0x70A08231 CALLER PUSH1 0x40 MLOAD DUP3 PUSH4 0xFFFFFFFF AND PUSH1 0xE0 SHL DUP2 MSTORE PUSH1 0x4 ADD PUSH2 0x288 SWAP2 SWAP1 PUSH2 0x121B JUMP JUMPDEST PUSH1 0x20 PUSH1 0x40 MLOAD DUP1 DUP4 SUB DUP2 DUP7 GAS STATICCALL ISZERO DUP1 ISZERO PUSH2 0x2A3 JUMPI RETURNDATASIZE PUSH0 PUSH0 RETURNDATACOPY RETURNDATASIZE PUSH0 REVERT JUMPDEST POP POP POP POP PUSH1 0x40 MLOAD RETURNDATASIZE PUSH1 0x1F NOT PUSH1 0x1F DUP3 ADD AND DUP3 ADD DUP1 PUSH1 0x40 MSTORE POP DUP2 ADD SWAP1 PUSH2 0x2C7 SWAP2 SWAP1 PUSH2 0x13DA JUMP JUMPDEST LT ISZERO PUSH2 0x308 JUMPI PUSH1 0x40 MLOAD PUSH32 0x8C379A000000000000000000000000000000000000000000000000000000000 DUP2 MSTORE PUSH1 0x4 ADD PUSH2 0x2FF SWAP1 PUSH2 0x144F JUMP JUMPDEST PUSH1 0x40 MLOAD DUP1 SWAP2 SUB SWAP1 REVERT JUMPDEST PUSH0 PUSH0 SWAP1 SLOAD SWAP1 PUSH2 0x100 EXP SWAP1 DIV PUSH20 0xFFFFFFFFFFFFFFFFFFFFFFFFFFFFFFFFFFFFFFFF AND PUSH20 0xFFFFFFFFFFFFFFFFFFFFFFFFFFFFFFFFFFFFFFFF AND PUSH4 0x23B872DD CALLER ADDRESS DUP7 PUSH1 0x40 MLOAD DUP5 PUSH4 0xFFFFFFFF AND PUSH1 0xE0 SHL DUP2 MSTORE PUSH1 0x4 ADD PUSH2 0x365 SWAP4 SWAP3 SWAP2 SWAP1 PUSH2 0x146D JUMP JUMPDEST PUSH1 0x20 PUSH1 0x40 MLOAD DUP1 DUP4 SUB DUP2 PUSH0 DUP8 GAS CALL ISZERO DUP1 ISZERO PUSH2 0x381 JUMPI RETURNDATASIZE PUSH0 PUSH0 RETURNDATACOPY RETURNDATASIZE PUSH0 REVERT JUMPDEST POP POP POP POP PUSH1 0x40 MLOAD RETURNDATASIZE PUSH1 0x1F NOT PUSH1 0x1F DUP3 ADD AND DUP3 ADD DUP1 PUSH1 0x40 MSTORE POP DUP2 ADD SWAP1 PUSH2 0x3A5 SWAP2 SWAP1 PUSH2 0x14CC JUMP JUMPDEST PUSH2 0x3E4 JUMPI PUSH1 0x40 MLOAD PUSH32 0x8C379A000000000000000000000000000000000000000000000000000000000 DUP2 MSTORE PUSH1 0x4 ADD PUSH2 0x3DB SWAP1 PUSH2 0x1541 JUMP JUMPDEST PUSH1 0x40 MLOAD DUP1 SWAP2 SUB SWAP1 REVERT JUMPDEST PUSH0 PUSH2 0x3EE DUP4 PUSH2 0xCAF JUMP JUMPDEST SWAP1 POP PUSH0 DUP2 PUSH1 0x20 ADD MLOAD SWAP1 POP PUSH0 DUP3 PUSH0 ADD MLOAD SWAP1 POP PUSH0 TIMESTAMP SWAP1 POP PUSH0 DUP4 DUP3 PUSH2 0x410 SWAP2 SWAP1 PUSH2 0x155F JUMP JUMPDEST SWAP1 POP PUSH0 PUSH2 0x41B PUSH2 0xE01 JUMP JUMPDEST SWAP1 POP PUSH0 PUSH2 0x168 PUSH8 0xDE0B6B3A7640000 DUP7 PUSH1 0x1 PUSH0 DUP14 PUSH1 0x3 DUP2 GT ISZERO PUSH2 0x441 JUMPI PUSH2 0x440 PUSH2 0x1592 JUMP JUMPDEST JUMPDEST PUSH1 0x3 DUP2 GT ISZERO PUSH2 0x453 JUMPI PUSH2 0x452 PUSH2 0x1592 JUMP JUMPDEST JUMPDEST DUP2 MSTORE PUSH1 0x20 ADD SWAP1 DUP2 MSTORE PUSH1 0x20 ADD PUSH0 KECCAK256 SLOAD PUSH2 0x46B SWAP2 SWAP1 PUSH2 0x130D JUMP JUMPDEST PUSH2 0x475 SWAP2 SWAP1 PUSH2 0x130D JUMP JUMPDEST PUSH2 0x47F SWAP2 SWAP1 PUSH2 0x15EC JUMP JUMPDEST SWAP1 POP CALLER PUSH20 0xFFFFFFFFFFFFFFFFFFFFFFFFFFFFFFFFFFFFFFFF AND PUSH32 0x22DD619EE0D92140E5ABDE105761D6DF71C05C4FCB761610EA0552064F91E6C DUP12 DUP12 DUP7 DUP7 PUSH1 0x40 MLOAD PUSH2 0x4CD SWAP5 SWAP4 SWAP3 SWAP2 SWAP1 PUSH2 0x1662 JUMP JUMPDEST PUSH1 0x40 MLOAD DUP1 SWAP2 SUB SWAP1 LOG2 PUSH1 0x40 MLOAD DUP1 PUSH1 0xC0 ADD PUSH1 0x40 MSTORE DUP1 DUP12 DUP2 MSTORE PUSH1 0x20 ADD DUP6 DUP2 MSTORE PUSH1 0x20 ADD DUP5 DUP2 MSTORE PUSH1 0x20 ADD DUP3 DUP2 MSTORE PUSH1 0x20 ADD PUSH1 0x1 ISZERO ISZERO DUP2 MSTORE PUSH1 0x20 ADD DUP4 DUP2 MSTORE POP PUSH1 0x2 PUSH0 CALLER PUSH20 0xFFFFFFFFFFFFFFFFFFFFFFFFFFFFFFFFFFFFFFFF AND PUSH20 0xFFFFFFFFFFFFFFFFFFFFFFFFFFFFFFFFFFFFFFFF AND DUP2 MSTORE PUSH1 0x20 ADD SWAP1 DUP2 MSTORE PUSH1 0x20 ADD PUSH0 KECCAK256 PUSH0 DUP5 DUP2 MSTORE PUSH1 0x20 ADD SWAP1 DUP2 MSTORE PUSH1 0x20 ADD PUSH0 KECCAK256 PUSH0 DUP3 ADD MLOAD DUP2 PUSH0 ADD SSTORE PUSH1 0x20 DUP3 ADD MLOAD DUP2 PUSH1 0x1 ADD SSTORE PUSH1 0x40 DUP3 ADD MLOAD DUP2 PUSH1 0x2 ADD SSTORE PUSH1 0x60 DUP3 ADD MLOAD DUP2 PUSH1 0x3 ADD SSTORE PUSH1 0x80 DUP3 ADD MLOAD DUP2 PUSH1 0x4 ADD PUSH0 PUSH2 0x100 EXP DUP2 SLOAD DUP2 PUSH1 0xFF MUL NOT AND SWAP1 DUP4 ISZERO ISZERO MUL OR SWAP1 SSTORE POP PUSH1 0xA0 DUP3 ADD MLOAD DUP2 PUSH1 0x5 ADD SSTORE SWAP1 POP POP CALLER PUSH1 0x3 PUSH0 DUP5 DUP2 MSTORE PUSH1 0x20 ADD SWAP1 DUP2 MSTORE PUSH1 0x20 ADD PUSH0 KECCAK256 PUSH0 PUSH2 0x100 EXP DUP2 SLOAD DUP2 PUSH20 0xFFFFFFFFFFFFFFFFFFFFFFFFFFFFFFFFFFFFFFFF MUL NOT AND SWAP1 DUP4 PUSH20 0xFFFFFFFFFFFFFFFFFFFFFFFFFFFFFFFFFFFFFFFF AND MUL OR SWAP1 SSTORE POP PUSH1 0x4 PUSH0 CALLER PUSH20 0xFFFFFFFFFFFFFFFFFFFFFFFFFFFFFFFFFFFFFFFF AND PUSH20 0xFFFFFFFFFFFFFFFFFFFFFFFFFFFFFFFFFFFFFFFF AND DUP2 MSTORE PUSH1 0x20 ADD SWAP1 DUP2 MSTORE PUSH1 0x20 ADD PUSH0 KECCAK256 DUP3 SWAP1 DUP1 PUSH1 0x1 DUP2 SLOAD ADD DUP1 DUP3 SSTORE DUP1 SWAP2 POP POP PUSH1 0x1 SWAP1 SUB SWAP1 PUSH0 MSTORE PUSH1 0x20 PUSH0 KECCAK256 ADD PUSH0 SWAP1 SWAP2 SWAP1 SWAP2 SWAP1 SWAP2 POP SSTORE POP POP POP POP POP POP POP POP POP POP JUMP JUMPDEST PUSH1 0x1 PUSH1 0x20 MSTORE DUP1 PUSH0 MSTORE PUSH1 0x40 PUSH0 KECCAK256 PUSH0 SWAP2 POP SWAP1 POP SLOAD DUP2 JUMP JUMPDEST CALLER PUSH20 0xFFFFFFFFFFFFFFFFFFFFFFFFFFFFFFFFFFFFFFFF AND PUSH1 0x3 PUSH0 DUP4 DUP2 MSTORE PUSH1 0x20 ADD SWAP1 DUP2 MSTORE PUSH1 0x20 ADD PUSH0 KECCAK256 PUSH0 SWAP1 SLOAD SWAP1 PUSH2 0x100 EXP SWAP1 DIV PUSH20 0xFFFFFFFFFFFFFFFFFFFFFFFFFFFFFFFFFFFFFFFF AND PUSH20 0xFFFFFFFFFFFFFFFFFFFFFFFFFFFFFFFFFFFFFFFF AND EQ PUSH2 0x712 JUMPI PUSH1 0x40 MLOAD PUSH32 0x8C379A000000000000000000000000000000000000000000000000000000000 DUP2 MSTORE PUSH1 0x4 ADD PUSH2 0x709 SWAP1 PUSH2 0x1715 JUMP JUMPDEST PUSH1 0x40 MLOAD DUP1 SWAP2 SUB SWAP1 REVERT JUMPDEST PUSH0 PUSH1 0x2 PUSH0 CALLER PUSH20 0xFFFFFFFFFFFFFFFFFFFFFFFFFFFFFFFFFFFFFFFF AND PUSH20 0xFFFFFFFFFFFFFFFFFFFFFFFFFFFFFFFFFFFFFFFF AND DUP2 MSTORE PUSH1 0x20 ADD SWAP1 DUP2 MSTORE PUSH1 0x20 ADD PUSH0 KECCAK256 PUSH0 DUP4 DUP2 MSTORE PUSH1 0x20 ADD SWAP1 DUP2 MSTORE PUSH1 0x20 ADD PUSH0 KECCAK256 SWAP1 POP DUP1 PUSH1 0x4 ADD PUSH0 SWAP1 SLOAD SWAP1 PUSH2 0x100 EXP SWAP1 DIV PUSH1 0xFF AND PUSH2 0x7B1 JUMPI PUSH1 0x40 MLOAD PUSH32 0x8C379A000000000000000000000000000000000000000000000000000000000 DUP2 MSTORE PUSH1 0x4 ADD PUSH2 0x7A8 SWAP1 PUSH2 0x17A3 JUMP JUMPDEST PUSH1 0x40 MLOAD DUP1 SWAP2 SUB SWAP1 REVERT JUMPDEST DUP1 PUSH1 0x2 ADD SLOAD TIMESTAMP LT ISZERO PUSH2 0x7F8 JUMPI PUSH1 0x40 MLOAD PUSH32 0x8C379A000000000000000000000000000000000000000000000000000000000 DUP2 MSTORE PUSH1 0x4 ADD PUSH2 0x7EF SWAP1 PUSH2 0x180B JUMP JUMPDEST PUSH1 0x40 MLOAD DUP1 SWAP2 SUB SWAP1 REVERT JUMPDEST PUSH0 PUSH8 0xDE0B6B3A7640000 PUSH1 0x64 DUP4 PUSH1 0x3 ADD SLOAD DUP5 PUSH0 ADD SLOAD PUSH2 0x817 SWAP2 SWAP1 PUSH2 0x130D JUMP JUMPDEST PUSH2 0x821 SWAP2 SWAP1 PUSH2 0x15EC JUMP JUMPDEST PUSH2 0x82B SWAP2 SWAP1 PUSH2 0x15EC JUMP JUMPDEST SWAP1 POP PUSH0 DUP2 DUP4 PUSH0 ADD SLOAD PUSH2 0x83D SWAP2 SWAP1 PUSH2 0x155F JUMP JUMPDEST SWAP1 POP PUSH0 DUP4 PUSH1 0x4 ADD PUSH0 PUSH2 0x100 EXP DUP2 SLOAD DUP2 PUSH1 0xFF MUL NOT AND SWAP1 DUP4 ISZERO ISZERO MUL OR SWAP1 SSTORE POP CALLER PUSH20 0xFFFFFFFFFFFFFFFFFFFFFFFFFFFFFFFFFFFFFFFF AND PUSH32 0x92CCF450A286A957AF52509BC1C9939D1A6A481783E142E41E2499F0BB66EBC6 DUP3 DUP7 PUSH1 0x40 MLOAD PUSH2 0x8A2 SWAP3 SWAP2 SWAP1 PUSH2 0x1829 JUMP JUMPDEST PUSH1 0x40 MLOAD DUP1 SWAP2 SUB SWAP1 LOG2 POP POP POP POP JUMP JUMPDEST PUSH0 PUSH0 SWAP1 SLOAD SWAP1 PUSH2 0x100 EXP SWAP1 DIV PUSH20 0xFFFFFFFFFFFFFFFFFFFFFFFFFFFFFFFFFFFFFFFF AND DUP2 JUMP JUMPDEST PUSH1 0x60 PUSH0 PUSH0 PUSH0 SWAP1 POP JUMPDEST PUSH1 0x4 PUSH0 DUP6 PUSH20 0xFFFFFFFFFFFFFFFFFFFFFFFFFFFFFFFFFFFFFFFF AND PUSH20 0xFFFFFFFFFFFFFFFFFFFFFFFFFFFFFFFFFFFFFFFF AND DUP2 MSTORE PUSH1 0x20 ADD SWAP1 DUP2 MSTORE PUSH1 0x20 ADD PUSH0 KECCAK256 DUP1 SLOAD SWAP1 POP DUP2 LT ISZERO PUSH2 0x9FD JUMPI PUSH0 PUSH1 0x4 PUSH0 DUP7 PUSH20 0xFFFFFFFFFFFFFFFFFFFFFFFFFFFFFFFFFFFFFFFF AND PUSH20 0xFFFFFFFFFFFFFFFFFFFFFFFFFFFFFFFFFFFFFFFF AND DUP2 MSTORE PUSH1 0x20 ADD SWAP1 DUP2 MSTORE PUSH1 0x20 ADD PUSH0 KECCAK256 DUP3 DUP2 SLOAD DUP2 LT PUSH2 0x974 JUMPI PUSH2 0x973 PUSH2 0x1850 JUMP JUMPDEST JUMPDEST SWAP1 PUSH0 MSTORE PUSH1 0x20 PUSH0 KECCAK256 ADD SLOAD SWAP1 POP PUSH1 0x2 PUSH0 DUP7 PUSH20 0xFFFFFFFFFFFFFFFFFFFFFFFFFFFFFFFFFFFFFFFF AND PUSH20 0xFFFFFFFFFFFFFFFFFFFFFFFFFFFFFFFFFFFFFFFF AND DUP2 MSTORE PUSH1 0x20 ADD SWAP1 DUP2 MSTORE PUSH1 0x20 ADD PUSH0 KECCAK256 PUSH0 DUP3 DUP2 MSTORE PUSH1 0x20 ADD SWAP1 DUP2 MSTORE PUSH1 0x20 ADD PUSH0 KECCAK256 PUSH1 0x4 ADD PUSH0 SWAP1 SLOAD SWAP1 PUSH2 0x100 EXP SWAP1 DIV PUSH1 0xFF AND ISZERO PUSH2 0x9EF JUMPI DUP3 DUP1 PUSH2 0x9EB SWAP1 PUSH2 0x187D JUMP JUMPDEST SWAP4 POP POP JUMPDEST POP DUP1 DUP1 PUSH1 0x1 ADD SWAP2 POP POP PUSH2 0x8DC JUMP JUMPDEST POP PUSH0 DUP2 PUSH8 0xFFFFFFFFFFFFFFFF DUP2 GT ISZERO PUSH2 0xA19 JUMPI PUSH2 0xA18 PUSH2 0x18C4 JUMP JUMPDEST JUMPDEST PUSH1 0x40 MLOAD SWAP1 DUP1 DUP3 MSTORE DUP1 PUSH1 0x20 MUL PUSH1 0x20 ADD DUP3 ADD PUSH1 0x40 MSTORE DUP1 ISZERO PUSH2 0xA52 JUMPI DUP2 PUSH1 0x20 ADD JUMPDEST PUSH2 0xA3F PUSH2 0xE49 JUMP JUMPDEST DUP2 MSTORE PUSH1 0x20 ADD SWAP1 PUSH1 0x1 SWAP1 SUB SWAP1 DUP2 PUSH2 0xA37 JUMPI SWAP1 POP JUMPDEST POP SWAP1 POP PUSH0 PUSH0 SWAP1 POP PUSH0 PUSH0 SWAP1 POP JUMPDEST PUSH1 0x4 PUSH0 DUP8 PUSH20 0xFFFFFFFFFFFFFFFFFFFFFFFFFFFFFFFFFFFFFFFF AND PUSH20 0xFFFFFFFFFFFFFFFFFFFFFFFFFFFFFFFFFFFFFFFF AND DUP2 MSTORE PUSH1 0x20 ADD SWAP1 DUP2 MSTORE PUSH1 0x20 ADD PUSH0 KECCAK256 DUP1 SLOAD SWAP1 POP DUP2 LT ISZERO PUSH2 0xBF9 JUMPI PUSH0 PUSH1 0x4 PUSH0 DUP9 PUSH20 0xFFFFFFFFFFFFFFFFFFFFFFFFFFFFFFFFFFFFFFFF AND PUSH20 0xFFFFFFFFFFFFFFFFFFFFFFFFFFFFFFFFFFFFFFFF AND DUP2 MSTORE PUSH1 0x20 ADD SWAP1 DUP2 MSTORE PUSH1 0x20 ADD PUSH0 KECCAK256 DUP3 DUP2 SLOAD DUP2 LT PUSH2 0xAF6 JUMPI PUSH2 0xAF5 PUSH2 0x1850 JUMP JUMPDEST JUMPDEST SWAP1 PUSH0 MSTORE PUSH1 0x20 PUSH0 KECCAK256 ADD SLOAD SWAP1 POP PUSH0 PUSH1 0x2 PUSH0 DUP10 PUSH20 0xFFFFFFFFFFFFFFFFFFFFFFFFFFFFFFFFFFFFFFFF AND PUSH20 0xFFFFFFFFFFFFFFFFFFFFFFFFFFFFFFFFFFFFFFFF AND DUP2 MSTORE PUSH1 0x20 ADD SWAP1 DUP2 MSTORE PUSH1 0x20 ADD PUSH0 KECCAK256 PUSH0 DUP4 DUP2 MSTORE PUSH1 0x20 ADD SWAP1 DUP2 MSTORE PUSH1 0x20 ADD PUSH0 KECCAK256 SWAP1 POP DUP1 PUSH1 0x4 ADD PUSH0 SWAP1 SLOAD SWAP1 PUSH2 0x100 EXP SWAP1 DIV PUSH1 0xFF AND ISZERO PUSH2 0xBEA JUMPI DUP1 PUSH1 0x40 MLOAD DUP1 PUSH1 0xC0 ADD PUSH1 0x40 MSTORE SWAP1 DUP2 PUSH0 DUP3 ADD SLOAD DUP2 MSTORE PUSH1 0x20 ADD PUSH1 0x1 DUP3 ADD SLOAD DUP2 MSTORE PUSH1 0x20 ADD PUSH1 0x2 DUP3 ADD SLOAD DUP2 MSTORE PUSH1 0x20 ADD PUSH1 0x3 DUP3 ADD SLOAD DUP2 MSTORE PUSH1 0x20 ADD PUSH1 0x4 DUP3 ADD PUSH0 SWAP1 SLOAD SWAP1 PUSH2 0x100 EXP SWAP1 DIV PUSH1 0xFF AND ISZERO ISZERO ISZERO ISZERO DUP2 MSTORE PUSH1 0x20 ADD PUSH1 0x5 DUP3 ADD SLOAD DUP2 MSTORE POP POP DUP6 DUP6 DUP2 MLOAD DUP2 LT PUSH2 0xBD0 JUMPI PUSH2 0xBCF PUSH2 0x1850 JUMP JUMPDEST JUMPDEST PUSH1 0x20 MUL PUSH1 0x20 ADD ADD DUP2 SWAP1 MSTORE POP DUP4 DUP1 PUSH2 0xBE6 SWAP1 PUSH2 0x187D JUMP JUMPDEST SWAP5 POP POP JUMPDEST POP POP DUP1 DUP1 PUSH1 0x1 ADD SWAP2 POP POP PUSH2 0xA5E JUMP JUMPDEST POP DUP2 SWAP4 POP POP POP POP SWAP2 SWAP1 POP JUMP JUMPDEST PUSH1 0x3 PUSH1 0x20 MSTORE DUP1 PUSH0 MSTORE PUSH1 0x40 PUSH0 KECCAK256 PUSH0 SWAP2 POP SLOAD SWAP1 PUSH2 0x100 EXP SWAP1 DIV PUSH20 0xFFFFFFFFFFFFFFFFFFFFFFFFFFFFFFFFFFFFFFFF AND DUP2 JUMP JUMPDEST PUSH1 0x2 PUSH1 0x20 MSTORE DUP2 PUSH0 MSTORE PUSH1 0x40 PUSH0 KECCAK256 PUSH1 0x20 MSTORE DUP1 PUSH0 MSTORE PUSH1 0x40 PUSH0 KECCAK256 PUSH0 SWAP2 POP SWAP2 POP POP DUP1 PUSH0 ADD SLOAD SWAP1 DUP1 PUSH1 0x1 ADD SLOAD SWAP1 DUP1 PUSH1 0x2 ADD SLOAD SWAP1 DUP1 PUSH1 0x3 ADD SLOAD SWAP1 DUP1 PUSH1 0x4 ADD PUSH0 SWAP1 SLOAD SWAP1 PUSH2 0x100 EXP SWAP1 DIV PUSH1 0xFF AND SWAP1 DUP1 PUSH1 0x5 ADD SLOAD SWAP1 POP DUP7 JUMP JUMPDEST PUSH1 0x4 PUSH1 0x20 MSTORE DUP2 PUSH0 MSTORE PUSH1 0x40 PUSH0 KECCAK256 DUP2 DUP2 SLOAD DUP2 LT PUSH2 0xC9D JUMPI PUSH0 DUP1 REVERT JUMPDEST SWAP1 PUSH0 MSTORE PUSH1 0x20 PUSH0 KECCAK256 ADD PUSH0 SWAP2 POP SWAP2 POP POP SLOAD DUP2 JUMP JUMPDEST PUSH2 0xCB7 PUSH2 0xE7B JUMP JUMPDEST PUSH0 PUSH1 0x3 DUP2 GT ISZERO PUSH2 0xCCA JUMPI PUSH2 0xCC9 PUSH2 0x1592 JUMP JUMPDEST JUMPDEST DUP3 PUSH1 0x3 DUP2 GT ISZERO PUSH2 0xCDD JUMPI PUSH2 0xCDC PUSH2 0x1592 JUMP JUMPDEST JUMPDEST SUB PUSH2 0xD00 JUMPI PUSH1 0x40 MLOAD DUP1 PUSH1 0x40 ADD PUSH1 0x40 MSTORE DUP1 PUSH1 0x1E DUP2 MSTORE PUSH1 0x20 ADD PUSH1 0x3C DUP2 MSTORE POP SWAP1 POP PUSH2 0xDFC JUMP JUMPDEST PUSH1 0x1 PUSH1 0x3 DUP2 GT ISZERO PUSH2 0xD14 JUMPI PUSH2 0xD13 PUSH2 0x1592 JUMP JUMPDEST JUMPDEST DUP3 PUSH1 0x3 DUP2 GT ISZERO PUSH2 0xD27 JUMPI PUSH2 0xD26 PUSH2 0x1592 JUMP JUMPDEST JUMPDEST SUB PUSH2 0xD4A JUMPI PUSH1 0x40 MLOAD DUP1 PUSH1 0x40 ADD PUSH1 0x40 MSTORE DUP1 PUSH1 0x5A DUP2 MSTORE PUSH1 0x20 ADD PUSH1 0xB4 DUP2 MSTORE POP SWAP1 POP PUSH2 0xDFC JUMP JUMPDEST PUSH1 0x2 PUSH1 0x3 DUP2 GT ISZERO PUSH2 0xD5E JUMPI PUSH2 0xD5D PUSH2 0x1592 JUMP JUMPDEST JUMPDEST DUP3 PUSH1 0x3 DUP2 GT ISZERO PUSH2 0xD71 JUMPI PUSH2 0xD70 PUSH2 0x1592 JUMP JUMPDEST JUMPDEST SUB PUSH2 0xD95 JUMPI PUSH1 0x40 MLOAD DUP1 PUSH1 0x40 ADD PUSH1 0x40 MSTORE DUP1 PUSH1 0xB4 DUP2 MSTORE PUSH1 0x20 ADD PUSH2 0x12C DUP2 MSTORE POP SWAP1 POP PUSH2 0xDFC JUMP JUMPDEST PUSH1 0x3 DUP1 DUP2 GT ISZERO PUSH2 0xDA8 JUMPI PUSH2 0xDA7 PUSH2 0x1592 JUMP JUMPDEST JUMPDEST DUP3 PUSH1 0x3 DUP2 GT ISZERO PUSH2 0xDBB JUMPI PUSH2 0xDBA PUSH2 0x1592 JUMP JUMPDEST JUMPDEST SUB PUSH2 0xDE0 JUMPI PUSH1 0x40 MLOAD DUP1 PUSH1 0x40 ADD PUSH1 0x40 MSTORE DUP1 PUSH2 0x168 DUP2 MSTORE PUSH1 0x20 ADD PUSH2 0x258 DUP2 MSTORE POP SWAP1 POP PUSH2 0xDFC JUMP JUMPDEST PUSH1 0x40 MLOAD DUP1 PUSH1 0x40 ADD PUSH1 0x40 MSTORE DUP1 PUSH2 0x168 DUP2 MSTORE PUSH1 0x20 ADD PUSH2 0xE10 DUP2 MSTORE POP SWAP1 POP JUMPDEST SWAP2 SWAP1 POP JUMP JUMPDEST PUSH0 TIMESTAMP CALLER PUSH1 0x5 PUSH0 DUP2 SLOAD DUP1 SWAP3 SWAP2 SWAP1 PUSH2 0xE16 SWAP1 PUSH2 0x187D JUMP JUMPDEST SWAP2 SWAP1 POP SSTORE PUSH1 0x40 MLOAD PUSH1 0x20 ADD PUSH2 0xE2C SWAP4 SWAP3 SWAP2 SWAP1 PUSH2 0x1956 JUMP JUMPDEST PUSH1 0x40 MLOAD PUSH1 0x20 DUP2 DUP4 SUB SUB DUP2 MSTORE SWAP1 PUSH1 0x40 MSTORE DUP1 MLOAD SWAP1 PUSH1 0x20 ADD KECCAK256 PUSH0 SHR SWAP1 POP SWAP1 JUMP JUMPDEST PUSH1 0x40 MLOAD DUP1 PUSH1 0xC0 ADD PUSH1 0x40 MSTORE DUP1 PUSH0 DUP2 MSTORE PUSH1 0x20 ADD PUSH0 DUP2 MSTORE PUSH1 0x20 ADD PUSH0 DUP2 MSTORE PUSH1 0x20 ADD PUSH0 DUP2 MSTORE PUSH1 0x20 ADD PUSH0 ISZERO ISZERO DUP2 MSTORE PUSH1 0x20 ADD PUSH0 DUP2 MSTORE POP SWAP1 JUMP JUMPDEST PUSH1 0x40 MLOAD DUP1 PUSH1 0x40 ADD PUSH1 0x40 MSTORE DUP1 PUSH0 DUP2 MSTORE PUSH1 0x20 ADD PUSH0 DUP2 MSTORE POP SWAP1 JUMP JUMPDEST PUSH0 PUSH0 REVERT JUMPDEST PUSH0 DUP2 SWAP1 POP SWAP2 SWAP1 POP JUMP JUMPDEST PUSH2 0xEA9 DUP2 PUSH2 0xE97 JUMP JUMPDEST DUP2 EQ PUSH2 0xEB3 JUMPI PUSH0 PUSH0 REVERT JUMPDEST POP JUMP JUMPDEST PUSH0 DUP2 CALLDATALOAD SWAP1 POP PUSH2 0xEC4 DUP2 PUSH2 0xEA0 JUMP JUMPDEST SWAP3 SWAP2 POP POP JUMP JUMPDEST PUSH1 0x4 DUP2 LT PUSH2 0xED6 JUMPI PUSH0 PUSH0 REVERT JUMPDEST POP JUMP JUMPDEST PUSH0 DUP2 CALLDATALOAD SWAP1 POP PUSH2 0xEE7 DUP2 PUSH2 0xECA JUMP JUMPDEST SWAP3 SWAP2 POP POP JUMP JUMPDEST PUSH0 PUSH0 PUSH1 0x40 DUP4 DUP6 SUB SLT ISZERO PUSH2 0xF03 JUMPI PUSH2 0xF02 PUSH2 0xE93 JUMP JUMPDEST JUMPDEST PUSH0 PUSH2 0xF10 DUP6 DUP3 DUP7 ADD PUSH2 0xEB6 JUMP JUMPDEST SWAP3 POP POP PUSH1 0x20 PUSH2 0xF21 DUP6 DUP3 DUP7 ADD PUSH2 0xED9 JUMP JUMPDEST SWAP2 POP POP SWAP3 POP SWAP3 SWAP1 POP JUMP JUMPDEST PUSH0 PUSH1 0x20 DUP3 DUP5 SUB SLT ISZERO PUSH2 0xF40 JUMPI PUSH2 0xF3F PUSH2 0xE93 JUMP JUMPDEST JUMPDEST PUSH0 PUSH2 0xF4D DUP5 DUP3 DUP6 ADD PUSH2 0xED9 JUMP JUMPDEST SWAP2 POP POP SWAP3 SWAP2 POP POP JUMP JUMPDEST PUSH2 0xF5F DUP2 PUSH2 0xE97 JUMP JUMPDEST DUP3 MSTORE POP POP JUMP JUMPDEST PUSH0 PUSH1 0x20 DUP3 ADD SWAP1 POP PUSH2 0xF78 PUSH0 DUP4 ADD DUP5 PUSH2 0xF56 JUMP JUMPDEST SWAP3 SWAP2 POP POP JUMP JUMPDEST PUSH0 PUSH1 0x20 DUP3 DUP5 SUB SLT ISZERO PUSH2 0xF93 JUMPI PUSH2 0xF92 PUSH2 0xE93 JUMP JUMPDEST JUMPDEST PUSH0 PUSH2 0xFA0 DUP5 DUP3 DUP6 ADD PUSH2 0xEB6 JUMP JUMPDEST SWAP2 POP POP SWAP3 SWAP2 POP POP JUMP JUMPDEST PUSH0 PUSH20 0xFFFFFFFFFFFFFFFFFFFFFFFFFFFFFFFFFFFFFFFF DUP3 AND SWAP1 POP SWAP2 SWAP1 POP JUMP JUMPDEST PUSH0 DUP2 SWAP1 POP SWAP2 SWAP1 POP JUMP JUMPDEST PUSH0 PUSH2 0xFEB PUSH2 0xFE6 PUSH2 0xFE1 DUP5 PUSH2 0xFA9 JUMP JUMPDEST PUSH2 0xFC8 JUMP JUMPDEST PUSH2 0xFA9 JUMP JUMPDEST SWAP1 POP SWAP2 SWAP1 POP JUMP JUMPDEST PUSH0 PUSH2 0xFFC DUP3 PUSH2 0xFD1 JUMP JUMPDEST SWAP1 POP SWAP2 SWAP1 POP JUMP JUMPDEST PUSH0 PUSH2 0x100D DUP3 PUSH2 0xFF2 JUMP JUMPDEST SWAP1 POP SWAP2 SWAP1 POP JUMP JUMPDEST PUSH2 0x101D DUP2 PUSH2 0x1003 JUMP JUMPDEST DUP3 MSTORE POP POP JUMP JUMPDEST PUSH0 PUSH1 0x20 DUP3 ADD SWAP1 POP PUSH2 0x1036 PUSH0 DUP4 ADD DUP5 PUSH2 0x1014 JUMP JUMPDEST SWAP3 SWAP2 POP POP JUMP JUMPDEST PUSH0 PUSH2 0x1046 DUP3 PUSH2 0xFA9 JUMP JUMPDEST SWAP1 POP SWAP2 SWAP1 POP JUMP JUMPDEST PUSH2 0x1056 DUP2 PUSH2 0x103C JUMP JUMPDEST DUP2 EQ PUSH2 0x1060 JUMPI PUSH0 PUSH0 REVERT JUMPDEST POP JUMP JUMPDEST PUSH0 DUP2 CALLDATALOAD SWAP1 POP PUSH2 0x1071 DUP2 PUSH2 0x104D JUMP JUMPDEST SWAP3 SWAP2 POP POP JUMP JUMPDEST PUSH0 PUSH1 0x20 DUP3 DUP5 SUB SLT ISZERO PUSH2 0x108C JUMPI PUSH2 0x108B PUSH2 0xE93 JUMP JUMPDEST JUMPDEST PUSH0 PUSH2 0x1099 DUP5 DUP3 DUP6 ADD PUSH2 0x1063 JUMP JUMPDEST SWAP2 POP POP SWAP3 SWAP2 POP POP JUMP JUMPDEST PUSH0 DUP2 MLOAD SWAP1 POP SWAP2 SWAP1 POP JUMP JUMPDEST PUSH0 DUP3 DUP3 MSTORE PUSH1 0x20 DUP3 ADD SWAP1 POP SWAP3 SWAP2 POP POP JUMP JUMPDEST PUSH0 DUP2 SWAP1 POP PUSH1 0x20 DUP3 ADD SWAP1 POP SWAP2 SWAP1 POP JUMP JUMPDEST PUSH2 0x10D4 DUP2 PUSH2 0xE97 JUMP JUMPDEST DUP3 MSTORE POP POP JUMP JUMPDEST PUSH0 DUP2 ISZERO ISZERO SWAP1 POP SWAP2 SWAP1 POP JUMP JUMPDEST PUSH2 0x10EE DUP2 PUSH2 0x10DA JUMP JUMPDEST DUP3 MSTORE POP POP JUMP JUMPDEST PUSH1 0xC0 DUP3 ADD PUSH0 DUP3 ADD MLOAD PUSH2 0x1108 PUSH0 DUP6 ADD DUP3 PUSH2 0x10CB JUMP JUMPDEST POP PUSH1 0x20 DUP3 ADD MLOAD PUSH2 0x111B PUSH1 0x20 DUP6 ADD DUP3 PUSH2 0x10CB JUMP JUMPDEST POP PUSH1 0x40 DUP3 ADD MLOAD PUSH2 0x112E PUSH1 0x40 DUP6 ADD DUP3 PUSH2 0x10CB JUMP JUMPDEST POP PUSH1 0x60 DUP3 ADD MLOAD PUSH2 0x1141 PUSH1 0x60 DUP6 ADD DUP3 PUSH2 0x10CB JUMP JUMPDEST POP PUSH1 0x80 DUP3 ADD MLOAD PUSH2 0x1154 PUSH1 0x80 DUP6 ADD DUP3 PUSH2 0x10E5 JUMP JUMPDEST POP PUSH1 0xA0 DUP3 ADD MLOAD PUSH2 0x1167 PUSH1 0xA0 DUP6 ADD DUP3 PUSH2 0x10CB JUMP JUMPDEST POP POP POP POP JUMP JUMPDEST PUSH0 PUSH2 0x1178 DUP4 DUP4 PUSH2 0x10F4 JUMP JUMPDEST PUSH1 0xC0 DUP4 ADD SWAP1 POP SWAP3 SWAP2 POP POP JUMP JUMPDEST PUSH0 PUSH1 0x20 DUP3 ADD SWAP1 POP SWAP2 SWAP1 POP JUMP JUMPDEST PUSH0 PUSH2 0x119A DUP3 PUSH2 0x10A2 JUMP JUMPDEST PUSH2 0x11A4 DUP2 DUP6 PUSH2 0x10AC JUMP JUMPDEST SWAP4 POP PUSH2 0x11AF DUP4 PUSH2 0x10BC JUMP JUMPDEST DUP1 PUSH0 JUMPDEST DUP4 DUP2 LT ISZERO PUSH2 0x11DF JUMPI DUP2 MLOAD PUSH2 0x11C6 DUP9 DUP3 PUSH2 0x116D JUMP JUMPDEST SWAP8 POP PUSH2 0x11D1 DUP4 PUSH2 0x1184 JUMP JUMPDEST SWAP3 POP POP PUSH1 0x1 DUP2 ADD SWAP1 POP PUSH2 0x11B2 JUMP JUMPDEST POP DUP6 SWAP4 POP POP POP POP SWAP3 SWAP2 POP POP JUMP JUMPDEST PUSH0 PUSH1 0x20 DUP3 ADD SWAP1 POP DUP2 DUP2 SUB PUSH0 DUP4 ADD MSTORE PUSH2 0x1204 DUP2 DUP5 PUSH2 0x1190 JUMP JUMPDEST SWAP1 POP SWAP3 SWAP2 POP POP JUMP JUMPDEST PUSH2 0x1215 DUP2 PUSH2 0x103C JUMP JUMPDEST DUP3 MSTORE POP POP JUMP JUMPDEST PUSH0 PUSH1 0x20 DUP3 ADD SWAP1 POP PUSH2 0x122E PUSH0 DUP4 ADD DUP5 PUSH2 0x120C JUMP JUMPDEST SWAP3 SWAP2 POP POP JUMP JUMPDEST PUSH0 PUSH0 PUSH1 0x40 DUP4 DUP6 SUB SLT ISZERO PUSH2 0x124A JUMPI PUSH2 0x1249 PUSH2 0xE93 JUMP JUMPDEST JUMPDEST PUSH0 PUSH2 0x1257 DUP6 DUP3 DUP7 ADD PUSH2 0x1063 JUMP JUMPDEST SWAP3 POP POP PUSH1 0x20 PUSH2 0x1268 DUP6 DUP3 DUP7 ADD PUSH2 0xEB6 JUMP JUMPDEST SWAP2 POP POP SWAP3 POP SWAP3 SWAP1 POP JUMP JUMPDEST PUSH2 0x127B DUP2 PUSH2 0x10DA JUMP JUMPDEST DUP3 MSTORE POP POP JUMP JUMPDEST PUSH0 PUSH1 0xC0 DUP3 ADD SWAP1 POP PUSH2 0x1294 PUSH0 DUP4 ADD DUP10 PUSH2 0xF56 JUMP JUMPDEST PUSH2 0x12A1 PUSH1 0x20 DUP4 ADD DUP9 PUSH2 0xF56 JUMP JUMPDEST PUSH2 0x12AE PUSH1 0x40 DUP4 ADD DUP8 PUSH2 0xF56 JUMP JUMPDEST PUSH2 0x12BB PUSH1 0x60 DUP4 ADD DUP7 PUSH2 0xF56 JUMP JUMPDEST PUSH2 0x12C8 PUSH1 0x80 DUP4 ADD DUP6 PUSH2 0x1272 JUMP JUMPDEST PUSH2 0x12D5 PUSH1 0xA0 DUP4 ADD DUP5 PUSH2 0xF56 JUMP JUMPDEST SWAP8 SWAP7 POP POP POP POP POP POP POP JUMP JUMPDEST PUSH32 0x4E487B7100000000000000000000000000000000000000000000000000000000 PUSH0 MSTORE PUSH1 0x11 PUSH1 0x4 MSTORE PUSH1 0x24 PUSH0 REVERT JUMPDEST PUSH0 PUSH2 0x1317 DUP3 PUSH2 0xE97 JUMP JUMPDEST SWAP2 POP PUSH2 0x1322 DUP4 PUSH2 0xE97 JUMP JUMPDEST SWAP3 POP DUP3 DUP3 MUL PUSH2 0x1330 DUP2 PUSH2 0xE97 JUMP JUMPDEST SWAP2 POP DUP3 DUP3 DIV DUP5 EQ DUP4 ISZERO OR PUSH2 0x1347 JUMPI PUSH2 0x1346 PUSH2 0x12E0 JUMP JUMPDEST JUMPDEST POP SWAP3 SWAP2 POP POP JUMP JUMPDEST PUSH0 DUP3 DUP3 MSTORE PUSH1 0x20 DUP3 ADD SWAP1 POP SWAP3 SWAP2 POP POP JUMP JUMPDEST PUSH32 0x416D6F756E742073686F756C6420626520706F73697469766500000000000000 PUSH0 DUP3 ADD MSTORE POP JUMP JUMPDEST PUSH0 PUSH2 0x1392 PUSH1 0x19 DUP4 PUSH2 0x134E JUMP JUMPDEST SWAP2 POP PUSH2 0x139D DUP3 PUSH2 0x135E JUMP JUMPDEST PUSH1 0x20 DUP3 ADD SWAP1 POP SWAP2 SWAP1 POP JUMP JUMPDEST PUSH0 PUSH1 0x20 DUP3 ADD SWAP1 POP DUP2 DUP2 SUB PUSH0 DUP4 ADD MSTORE PUSH2 0x13BF DUP2 PUSH2 0x1386 JUMP JUMPDEST SWAP1 POP SWAP2 SWAP1 POP JUMP JUMPDEST PUSH0 DUP2 MLOAD SWAP1 POP PUSH2 0x13D4 DUP2 PUSH2 0xEA0 JUMP JUMPDEST SWAP3 SWAP2 POP POP JUMP JUMPDEST PUSH0 PUSH1 0x20 DUP3 DUP5 SUB SLT ISZERO PUSH2 0x13EF JUMPI PUSH2 0x13EE PUSH2 0xE93 JUMP JUMPDEST JUMPDEST PUSH0 PUSH2 0x13FC DUP5 DUP3 DUP6 ADD PUSH2 0x13C6 JUMP JUMPDEST SWAP2 POP POP SWAP3 SWAP2 POP POP JUMP JUMPDEST PUSH32 0x496E73756666696369656E742062616C616E6365000000000000000000000000 PUSH0 DUP3 ADD MSTORE POP JUMP JUMPDEST PUSH0 PUSH2 0x1439 PUSH1 0x14 DUP4 PUSH2 0x134E JUMP JUMPDEST SWAP2 POP PUSH2 0x1444 DUP3 PUSH2 0x1405 JUMP JUMPDEST PUSH1 0x20 DUP3 ADD SWAP1 POP SWAP2 SWAP1 POP JUMP JUMPDEST PUSH0 PUSH1 0x20 DUP3 ADD SWAP1 POP DUP2 DUP2 SUB PUSH0 DUP4 ADD MSTORE PUSH2 0x1466 DUP2 PUSH2 0x142D JUMP JUMPDEST SWAP1 POP SWAP2 SWAP1 POP JUMP JUMPDEST PUSH0 PUSH1 0x60 DUP3 ADD SWAP1 POP PUSH2 0x1480 PUSH0 DUP4 ADD DUP7 PUSH2 0x120C JUMP JUMPDEST PUSH2 0x148D PUSH1 0x20 DUP4 ADD DUP6 PUSH2 0x120C JUMP JUMPDEST PUSH2 0x149A PUSH1 0x40 DUP4 ADD DUP5 PUSH2 0xF56 JUMP JUMPDEST SWAP5 SWAP4 POP POP POP POP JUMP JUMPDEST PUSH2 0x14AB DUP2 PUSH2 0x10DA JUMP JUMPDEST DUP2 EQ PUSH2 0x14B5 JUMPI PUSH0 PUSH0 REVERT JUMPDEST POP JUMP JUMPDEST PUSH0 DUP2 MLOAD SWAP1 POP PUSH2 0x14C6 DUP2 PUSH2 0x14A2 JUMP JUMPDEST SWAP3 SWAP2 POP POP JUMP JUMPDEST PUSH0 PUSH1 0x20 DUP3 DUP5 SUB SLT ISZERO PUSH2 0x14E1 JUMPI PUSH2 0x14E0 PUSH2 0xE93 JUMP JUMPDEST JUMPDEST PUSH0 PUSH2 0x14EE DUP5 DUP3 DUP6 ADD PUSH2 0x14B8 JUMP JUMPDEST SWAP2 POP POP SWAP3 SWAP2 POP POP JUMP JUMPDEST PUSH32 0x5374616B696E673A205472616E73666572206661696C65640000000000000000 PUSH0 DUP3 ADD MSTORE POP JUMP JUMPDEST PUSH0 PUSH2 0x152B PUSH1 0x18 DUP4 PUSH2 0x134E JUMP JUMPDEST SWAP2 POP PUSH2 0x1536 DUP3 PUSH2 0x14F7 JUMP JUMPDEST PUSH1 0x20 DUP3 ADD SWAP1 POP SWAP2 SWAP1 POP JUMP JUMPDEST PUSH0 PUSH1 0x20 DUP3 ADD SWAP1 POP DUP2 DUP2 SUB PUSH0 DUP4 ADD MSTORE PUSH2 0x1558 DUP2 PUSH2 0x151F JUMP JUMPDEST SWAP1 POP SWAP2 SWAP1 POP JUMP JUMPDEST PUSH0 PUSH2 0x1569 DUP3 PUSH2 0xE97 JUMP JUMPDEST SWAP2 POP PUSH2 0x1574 DUP4 PUSH2 0xE97 JUMP JUMPDEST SWAP3 POP DUP3 DUP3 ADD SWAP1 POP DUP1 DUP3 GT ISZERO PUSH2 0x158C JUMPI PUSH2 0x158B PUSH2 0x12E0 JUMP JUMPDEST JUMPDEST SWAP3 SWAP2 POP POP JUMP JUMPDEST PUSH32 0x4E487B7100000000000000000000000000000000000000000000000000000000 PUSH0 MSTORE PUSH1 0x21 PUSH1 0x4 MSTORE PUSH1 0x24 PUSH0 REVERT JUMPDEST PUSH32 0x4E487B7100000000000000000000000000000000000000000000000000000000 PUSH0 MSTORE PUSH1 0x12 PUSH1 0x4 MSTORE PUSH1 0x24 PUSH0 REVERT JUMPDEST PUSH0 PUSH2 0x15F6 DUP3 PUSH2 0xE97 JUMP JUMPDEST SWAP2 POP PUSH2 0x1601 DUP4 PUSH2 0xE97 JUMP JUMPDEST SWAP3 POP DUP3 PUSH2 0x1611 JUMPI PUSH2 0x1610 PUSH2 0x15BF JUMP JUMPDEST JUMPDEST DUP3 DUP3 DIV SWAP1 POP SWAP3 SWAP2 POP POP JUMP JUMPDEST PUSH1 0x4 DUP2 LT PUSH2 0x162D JUMPI PUSH2 0x162C PUSH2 0x1592 JUMP JUMPDEST JUMPDEST POP JUMP JUMPDEST PUSH0 DUP2 SWAP1 POP PUSH2 0x163D DUP3 PUSH2 0x161C JUMP JUMPDEST SWAP2 SWAP1 POP JUMP JUMPDEST PUSH0 PUSH2 0x164C DUP3 PUSH2 0x1630 JUMP JUMPDEST SWAP1 POP SWAP2 SWAP1 POP JUMP JUMPDEST PUSH2 0x165C DUP2 PUSH2 0x1642 JUMP JUMPDEST DUP3 MSTORE POP POP JUMP JUMPDEST PUSH0 PUSH1 0x80 DUP3 ADD SWAP1 POP PUSH2 0x1675 PUSH0 DUP4 ADD DUP8 PUSH2 0xF56 JUMP JUMPDEST PUSH2 0x1682 PUSH1 0x20 DUP4 ADD DUP7 PUSH2 0x1653 JUMP JUMPDEST PUSH2 0x168F PUSH1 0x40 DUP4 ADD DUP6 PUSH2 0xF56 JUMP JUMPDEST PUSH2 0x169C PUSH1 0x60 DUP4 ADD DUP5 PUSH2 0xF56 JUMP JUMPDEST SWAP6 SWAP5 POP POP POP POP POP JUMP JUMPDEST PUSH32 0x596F7520617265206E6F7420746865206F776E6572206F662074686973207374 PUSH0 DUP3 ADD MSTORE PUSH32 0x616B650000000000000000000000000000000000000000000000000000000000 PUSH1 0x20 DUP3 ADD MSTORE POP JUMP JUMPDEST PUSH0 PUSH2 0x16FF PUSH1 0x23 DUP4 PUSH2 0x134E JUMP JUMPDEST SWAP2 POP PUSH2 0x170A DUP3 PUSH2 0x16A5 JUMP JUMPDEST PUSH1 0x40 DUP3 ADD SWAP1 POP SWAP2 SWAP1 POP JUMP JUMPDEST PUSH0 PUSH1 0x20 DUP3 ADD SWAP1 POP DUP2 DUP2 SUB PUSH0 DUP4 ADD MSTORE PUSH2 0x172C DUP2 PUSH2 0x16F3 JUMP JUMPDEST SWAP1 POP SWAP2 SWAP1 POP JUMP JUMPDEST PUSH32 0x5374616B65206973206E6F7420616374697665206F7220616C72656164792077 PUSH0 DUP3 ADD MSTORE PUSH32 0x697468647261776E000000000000000000000000000000000000000000000000 PUSH1 0x20 DUP3 ADD MSTORE POP JUMP JUMPDEST PUSH0 PUSH2 0x178D PUSH1 0x28 DUP4 PUSH2 0x134E JUMP JUMPDEST SWAP2 POP PUSH2 0x1798 DUP3 PUSH2 0x1733 JUMP JUMPDEST PUSH1 0x40 DUP3 ADD SWAP1 POP SWAP2 SWAP1 POP JUMP JUMPDEST PUSH0 PUSH1 0x20 DUP3 ADD SWAP1 POP DUP2 DUP2 SUB PUSH0 DUP4 ADD MSTORE PUSH2 0x17BA DUP2 PUSH2 0x1781 JUMP JUMPDEST SWAP1 POP SWAP2 SWAP1 POP JUMP JUMPDEST PUSH32 0x5374616B6520706572696F64206973206E6F7420656E64656400000000000000 PUSH0 DUP3 ADD MSTORE POP JUMP JUMPDEST PUSH0 PUSH2 0x17F5 PUSH1 0x19 DUP4 PUSH2 0x134E JUMP JUMPDEST SWAP2 POP PUSH2 0x1800 DUP3 PUSH2 0x17C1 JUMP JUMPDEST PUSH1 0x20 DUP3 ADD SWAP1 POP SWAP2 SWAP1 POP JUMP JUMPDEST PUSH0 PUSH1 0x20 DUP3 ADD SWAP1 POP DUP2 DUP2 SUB PUSH0 DUP4 ADD MSTORE PUSH2 0x1822 DUP2 PUSH2 0x17E9 JUMP JUMPDEST SWAP1 POP SWAP2 SWAP1 POP JUMP JUMPDEST PUSH0 PUSH1 0x40 DUP3 ADD SWAP1 POP PUSH2 0x183C PUSH0 DUP4 ADD DUP6 PUSH2 0xF56 JUMP JUMPDEST PUSH2 0x1849 PUSH1 0x20 DUP4 ADD DUP5 PUSH2 0xF56 JUMP JUMPDEST SWAP4 SWAP3 POP POP POP JUMP JUMPDEST PUSH32 0x4E487B7100000000000000000000000000000000000000000000000000000000 PUSH0 MSTORE PUSH1 0x32 PUSH1 0x4 MSTORE PUSH1 0x24 PUSH0 REVERT JUMPDEST PUSH0 PUSH2 0x1887 DUP3 PUSH2 0xE97 JUMP JUMPDEST SWAP2 POP PUSH32 0xFFFFFFFFFFFFFFFFFFFFFFFFFFFFFFFFFFFFFFFFFFFFFFFFFFFFFFFFFFFFFFFF DUP3 SUB PUSH2 0x18B9 JUMPI PUSH2 0x18B8 PUSH2 0x12E0 JUMP JUMPDEST JUMPDEST PUSH1 0x1 DUP3 ADD SWAP1 POP SWAP2 SWAP1 POP JUMP JUMPDEST PUSH32 0x4E487B7100000000000000000000000000000000000000000000000000000000 PUSH0 MSTORE PUSH1 0x41 PUSH1 0x4 MSTORE PUSH1 0x24 PUSH0 REVERT JUMPDEST PUSH0 DUP2 SWAP1 POP SWAP2 SWAP1 POP JUMP JUMPDEST PUSH2 0x190B PUSH2 0x1906 DUP3 PUSH2 0xE97 JUMP JUMPDEST PUSH2 0x18F1 JUMP JUMPDEST DUP3 MSTORE POP POP JUMP JUMPDEST PUSH0 DUP2 PUSH1 0x60 SHL SWAP1 POP SWAP2 SWAP1 POP JUMP JUMPDEST PUSH0 PUSH2 0x1927 DUP3 PUSH2 0x1911 JUMP JUMPDEST SWAP1 POP SWAP2 SWAP1 POP JUMP JUMPDEST PUSH0 PUSH2 0x1938 DUP3 PUSH2 0x191D JUMP JUMPDEST SWAP1 POP SWAP2 SWAP1 POP JUMP JUMPDEST PUSH2 0x1950 PUSH2 0x194B DUP3 PUSH2 0x103C JUMP JUMPDEST PUSH2 0x192E JUMP JUMPDEST DUP3 MSTORE POP POP JUMP JUMPDEST PUSH0 PUSH2 0x1961 DUP3 DUP7 PUSH2 0x18FA JUMP JUMPDEST PUSH1 0x20 DUP3 ADD SWAP2 POP PUSH2 0x1971 DUP3 DUP6 PUSH2 0x193F JUMP JUMPDEST PUSH1 0x14 DUP3 ADD SWAP2 POP PUSH2 0x1981 DUP3 DUP5 PUSH2 0x18FA JUMP JUMPDEST PUSH1 0x20 DUP3 ADD SWAP2 POP DUP2 SWAP1 POP SWAP5 SWAP4 POP POP POP POP JUMP INVALID LOG2 PUSH5 0x6970667358 0x22 SLT KECCAK256 0xDB 0xAE 0xBE LOG1 RETF BLOCKHASH INVALID CREATE SWAP1 0x2A LT DUP8 0xD6 SWAP13 0xAF CALLVALUE STATICCALL PUSH31 0x2E7EB778AB4B1CA8CA9FE2F7103F64736F6C634300081E0033000000000000 "
				},
				"gasEstimates": {
					"creation": {
						"codeDepositCost": "1320000",
						"executionCost": "infinite",
						"totalCost": "infinite"
					},
					"external": {
						"apy(uint8)": "2735",
						"getUserActiveStakes(address)": "infinite",
						"stake(uint256,uint8)": "infinite",
						"stakeOwnerMapping(uint256)": "2849",
						"stakingToken()": "infinite",
						"userStakeIndexes(address,uint256)": "infinite",
						"userStakes(address,uint256)": "infinite",
						"withdraw(uint256)": "infinite"
					},
					"internal": {
						"_generateStakeId()": "infinite",
						"_getDuration(enum MtkContracts.StakingPeriod)": "infinite"
					}
				},
				"methodIdentifiers": {
					"apy(uint8)": "1f1accb2",
					"getUserActiveStakes(address)": "a262ab35",
					"stake(uint256,uint8)": "10087fb1",
					"stakeOwnerMapping(uint256)": "a57a5304",
					"stakingToken()": "72f702f3",
					"userStakeIndexes(address,uint256)": "cc4a3eed",
					"userStakes(address,uint256)": "b5d5b5fa",
					"withdraw(uint256)": "2e1a7d4d"
				}
			},
			"storageLayout": {
				"storage": [
					{
						"astId": 963,
						"contract": "contracts/stake.sol:MtkContracts",
						"label": "stakingToken",
						"offset": 0,
						"slot": "0",
						"type": "t_contract(IERC20)877"
					},
					{
						"astId": 968,
						"contract": "contracts/stake.sol:MtkContracts",
						"label": "apy",
						"offset": 0,
						"slot": "1",
						"type": "t_mapping(t_enum(StakingPeriod)960,t_uint256)"
					},
					{
						"astId": 975,
						"contract": "contracts/stake.sol:MtkContracts",
						"label": "userStakes",
						"offset": 0,
						"slot": "2",
						"type": "t_mapping(t_address,t_mapping(t_uint256,t_struct(Stake)950_storage))"
					},
					{
						"astId": 979,
						"contract": "contracts/stake.sol:MtkContracts",
						"label": "stakeOwnerMapping",
						"offset": 0,
						"slot": "3",
						"type": "t_mapping(t_uint256,t_address)"
					},
					{
						"astId": 984,
						"contract": "contracts/stake.sol:MtkContracts",
						"label": "userStakeIndexes",
						"offset": 0,
						"slot": "4",
						"type": "t_mapping(t_address,t_array(t_uint256)dyn_storage)"
					},
					{
						"astId": 986,
						"contract": "contracts/stake.sol:MtkContracts",
						"label": "nonce",
						"offset": 0,
						"slot": "5",
						"type": "t_uint256"
					}
				],
				"types": {
					"t_address": {
						"encoding": "inplace",
						"label": "address",
						"numberOfBytes": "20"
					},
					"t_array(t_uint256)dyn_storage": {
						"base": "t_uint256",
						"encoding": "dynamic_array",
						"label": "uint256[]",
						"numberOfBytes": "32"
					},
					"t_bool": {
						"encoding": "inplace",
						"label": "bool",
						"numberOfBytes": "1"
					},
					"t_contract(IERC20)877": {
						"encoding": "inplace",
						"label": "contract IERC20",
						"numberOfBytes": "20"
					},
					"t_enum(StakingPeriod)960": {
						"encoding": "inplace",
						"label": "enum MtkContracts.StakingPeriod",
						"numberOfBytes": "1"
					},
					"t_mapping(t_address,t_array(t_uint256)dyn_storage)": {
						"encoding": "mapping",
						"key": "t_address",
						"label": "mapping(address => uint256[])",
						"numberOfBytes": "32",
						"value": "t_array(t_uint256)dyn_storage"
					},
					"t_mapping(t_address,t_mapping(t_uint256,t_struct(Stake)950_storage))": {
						"encoding": "mapping",
						"key": "t_address",
						"label": "mapping(address => mapping(uint256 => struct MtkContracts.Stake))",
						"numberOfBytes": "32",
						"value": "t_mapping(t_uint256,t_struct(Stake)950_storage)"
					},
					"t_mapping(t_enum(StakingPeriod)960,t_uint256)": {
						"encoding": "mapping",
						"key": "t_enum(StakingPeriod)960",
						"label": "mapping(enum MtkContracts.StakingPeriod => uint256)",
						"numberOfBytes": "32",
						"value": "t_uint256"
					},
					"t_mapping(t_uint256,t_address)": {
						"encoding": "mapping",
						"key": "t_uint256",
						"label": "mapping(uint256 => address)",
						"numberOfBytes": "32",
						"value": "t_address"
					},
					"t_mapping(t_uint256,t_struct(Stake)950_storage)": {
						"encoding": "mapping",
						"key": "t_uint256",
						"label": "mapping(uint256 => struct MtkContracts.Stake)",
						"numberOfBytes": "32",
						"value": "t_struct(Stake)950_storage"
					},
					"t_struct(Stake)950_storage": {
						"encoding": "inplace",
						"label": "struct MtkContracts.Stake",
						"members": [
							{
								"astId": 939,
								"contract": "contracts/stake.sol:MtkContracts",
								"label": "amount",
								"offset": 0,
								"slot": "0",
								"type": "t_uint256"
							},
							{
								"astId": 941,
								"contract": "contracts/stake.sol:MtkContracts",
								"label": "startTime",
								"offset": 0,
								"slot": "1",
								"type": "t_uint256"
							},
							{
								"astId": 943,
								"contract": "contracts/stake.sol:MtkContracts",
								"label": "endTime",
								"offset": 0,
								"slot": "2",
								"type": "t_uint256"
							},
							{
								"astId": 945,
								"contract": "contracts/stake.sol:MtkContracts",
								"label": "rewardRate",
								"offset": 0,
								"slot": "3",
								"type": "t_uint256"
							},
							{
								"astId": 947,
								"contract": "contracts/stake.sol:MtkContracts",
								"label": "isActive",
								"offset": 0,
								"slot": "4",
								"type": "t_bool"
							},
							{
								"astId": 949,
								"contract": "contracts/stake.sol:MtkContracts",
								"label": "stakeIndex",
								"offset": 0,
								"slot": "5",
								"type": "t_uint256"
							}
						],
						"numberOfBytes": "192"
					},
					"t_uint256": {
						"encoding": "inplace",
						"label": "uint256",
						"numberOfBytes": "32"
					}
				}
			},
			"userdoc": {
				"kind": "user",
				"methods": {},
				"version": 1
			}
		}
	}
}