{
	"test-erc-2.sol": {
		"PepeToken": {
			"abi": [
				{
					"inputs": [
						{
							"internalType": "uint256",
							"name": "_totalSupply",
							"type": "uint256"
						}
					],
					"stateMutability": "nonpayable",
					"type": "constructor"
				},
				{
					"anonymous": false,
					"inputs": [
						{
							"indexed": true,
							"internalType": "address",
							"name": "owner",
							"type": "address"
						},
						{
							"indexed": true,
							"internalType": "address",
							"name": "spender",
							"type": "address"
						},
						{
							"indexed": false,
							"internalType": "uint256",
							"name": "value",
							"type": "uint256"
						}
					],
					"name": "Approval",
					"type": "event"
				},
				{
					"anonymous": false,
					"inputs": [
						{
							"indexed": true,
							"internalType": "address",
							"name": "previousOwner",
							"type": "address"
						},
						{
							"indexed": true,
							"internalType": "address",
							"name": "newOwner",
							"type": "address"
						}
					],
					"name": "OwnershipTransferred",
					"type": "event"
				},
				{
					"anonymous": false,
					"inputs": [
						{
							"indexed": true,
							"internalType": "address",
							"name": "from",
							"type": "address"
						},
						{
							"indexed": true,
							"internalType": "address",
							"name": "to",
							"type": "address"
						},
						{
							"indexed": false,
							"internalType": "uint256",
							"name": "value",
							"type": "uint256"
						}
					],
					"name": "Transfer",
					"type": "event"
				},
				{
					"inputs": [
						{
							"internalType": "address",
							"name": "owner",
							"type": "address"
						},
						{
							"internalType": "address",
							"name": "spender",
							"type": "address"
						}
					],
					"name": "allowance",
					"outputs": [
						{
							"internalType": "uint256",
							"name": "",
							"type": "uint256"
						}
					],
					"stateMutability": "view",
					"type": "function"
				},
				{
					"inputs": [
						{
							"internalType": "address",
							"name": "spender",
							"type": "address"
						},
						{
							"internalType": "uint256",
							"name": "amount",
							"type": "uint256"
						}
					],
					"name": "approve",
					"outputs": [
						{
							"internalType": "bool",
							"name": "",
							"type": "bool"
						}
					],
					"stateMutability": "nonpayable",
					"type": "function"
				},
				{
					"inputs": [
						{
							"internalType": "address",
							"name": "account",
							"type": "address"
						}
					],
					"name": "balanceOf",
					"outputs": [
						{
							"internalType": "uint256",
							"name": "",
							"type": "uint256"
						}
					],
					"stateMutability": "view",
					"type": "function"
				},
				{
					"inputs": [
						{
							"internalType": "address",
							"name": "_address",
							"type": "address"
						},
						{
							"internalType": "bool",
							"name": "_isBlacklisting",
							"type": "bool"
						}
					],
					"name": "blacklist",
					"outputs": [],
					"stateMutability": "nonpayable",
					"type": "function"
				},
				{
					"inputs": [
						{
							"internalType": "address",
							"name": "",
							"type": "address"
						}
					],
					"name": "blacklists",
					"outputs": [
						{
							"internalType": "bool",
							"name": "",
							"type": "bool"
						}
					],
					"stateMutability": "view",
					"type": "function"
				},
				{
					"inputs": [
						{
							"internalType": "uint256",
							"name": "value",
							"type": "uint256"
						}
					],
					"name": "burn",
					"outputs": [],
					"stateMutability": "nonpayable",
					"type": "function"
				},
				{
					"inputs": [],
					"name": "decimals",
					"outputs": [
						{
							"internalType": "uint8",
							"name": "",
							"type": "uint8"
						}
					],
					"stateMutability": "view",
					"type": "function"
				},
				{
					"inputs": [
						{
							"internalType": "address",
							"name": "spender",
							"type": "address"
						},
						{
							"internalType": "uint256",
							"name": "subtractedValue",
							"type": "uint256"
						}
					],
					"name": "decreaseAllowance",
					"outputs": [
						{
							"internalType": "bool",
							"name": "",
							"type": "bool"
						}
					],
					"stateMutability": "nonpayable",
					"type": "function"
				},
				{
					"inputs": [
						{
							"internalType": "address",
							"name": "spender",
							"type": "address"
						},
						{
							"internalType": "uint256",
							"name": "addedValue",
							"type": "uint256"
						}
					],
					"name": "increaseAllowance",
					"outputs": [
						{
							"internalType": "bool",
							"name": "",
							"type": "bool"
						}
					],
					"stateMutability": "nonpayable",
					"type": "function"
				},
				{
					"inputs": [],
					"name": "limited",
					"outputs": [
						{
							"internalType": "bool",
							"name": "",
							"type": "bool"
						}
					],
					"stateMutability": "view",
					"type": "function"
				},
				{
					"inputs": [],
					"name": "maxHoldingAmount",
					"outputs": [
						{
							"internalType": "uint256",
							"name": "",
							"type": "uint256"
						}
					],
					"stateMutability": "view",
					"type": "function"
				},
				{
					"inputs": [],
					"name": "minHoldingAmount",
					"outputs": [
						{
							"internalType": "uint256",
							"name": "",
							"type": "uint256"
						}
					],
					"stateMutability": "view",
					"type": "function"
				},
				{
					"inputs": [],
					"name": "name",
					"outputs": [
						{
							"internalType": "string",
							"name": "",
							"type": "string"
						}
					],
					"stateMutability": "view",
					"type": "function"
				},
				{
					"inputs": [],
					"name": "owner",
					"outputs": [
						{
							"internalType": "address",
							"name": "",
							"type": "address"
						}
					],
					"stateMutability": "view",
					"type": "function"
				},
				{
					"inputs": [],
					"name": "renounceOwnership",
					"outputs": [],
					"stateMutability": "nonpayable",
					"type": "function"
				},
				{
					"inputs": [
						{
							"internalType": "bool",
							"name": "_limited",
							"type": "bool"
						},
						{
							"internalType": "address",
							"name": "_uniswapV2Pair",
							"type": "address"
						},
						{
							"internalType": "uint256",
							"name": "_maxHoldingAmount",
							"type": "uint256"
						},
						{
							"internalType": "uint256",
							"name": "_minHoldingAmount",
							"type": "uint256"
						}
					],
					"name": "setRule",
					"outputs": [],
					"stateMutability": "nonpayable",
					"type": "function"
				},
				{
					"inputs": [],
					"name": "symbol",
					"outputs": [
						{
							"internalType": "string",
							"name": "",
							"type": "string"
						}
					],
					"stateMutability": "view",
					"type": "function"
				},
				{
					"inputs": [],
					"name": "totalSupply",
					"outputs": [
						{
							"internalType": "uint256",
							"name": "",
							"type": "uint256"
						}
					],
					"stateMutability": "view",
					"type": "function"
				},
				{
					"inputs": [
						{
							"internalType": "address",
							"name": "recipient",
							"type": "address"
						},
						{
							"internalType": "uint256",
							"name": "amount",
							"type": "uint256"
						}
					],
					"name": "transfer",
					"outputs": [
						{
							"internalType": "bool",
							"name": "",
							"type": "bool"
						}
					],
					"stateMutability": "nonpayable",
					"type": "function"
				},
				{
					"inputs": [
						{
							"internalType": "address",
							"name": "sender",
							"type": "address"
						},
						{
							"internalType": "address",
							"name": "recipient",
							"type": "address"
						},
						{
							"internalType": "uint256",
							"name": "amount",
							"type": "uint256"
						}
					],
					"name": "transferFrom",
					"outputs": [
						{
							"internalType": "bool",
							"name": "",
							"type": "bool"
						}
					],
					"stateMutability": "nonpayable",
					"type": "function"
				},
				{
					"inputs": [
						{
							"internalType": "address",
							"name": "newOwner",
							"type": "address"
						}
					],
					"name": "transferOwnership",
					"outputs": [],
					"stateMutability": "nonpayable",
					"type": "function"
				},
				{
					"inputs": [],
					"name": "uniswapV2Pair",
					"outputs": [
						{
							"internalType": "address",
							"name": "",
							"type": "address"
						}
					],
					"stateMutability": "view",
					"type": "function"
				}
			],
			"devdoc": {
				"events": {
					"Approval(address,address,uint256)": {
						"details": "Emitted when the allowance of a `spender` for an `owner` is set by a call to {approve}. `value` is the new allowance."
					},
					"Transfer(address,address,uint256)": {
						"details": "Emitted when `value` tokens are moved from one account (`from`) to another (`to`). Note that `value` may be zero."
					}
				},
				"kind": "dev",
				"methods": {
					"allowance(address,address)": {
						"details": "See {IERC20-allowance}."
					},
					"approve(address,uint256)": {
						"details": "See {IERC20-approve}. Requirements: - `spender` cannot be the zero address."
					},
					"balanceOf(address)": {
						"details": "See {IERC20-balanceOf}."
					},
					"decimals()": {
						"details": "Returns the number of decimals used to get its user representation. For example, if `decimals` equals `2`, a balance of `505` tokens should be displayed to a user as `5.05` (`505 / 10 ** 2`). Tokens usually opt for a value of 18, imitating the relationship between Ether and Wei. This is the value {ERC20} uses, unless this function is overridden; NOTE: This information is only used for _display_ purposes: it in no way affects any of the arithmetic of the contract, including {IERC20-balanceOf} and {IERC20-transfer}."
					},
					"decreaseAllowance(address,uint256)": {
						"details": "Atomically decreases the allowance granted to `spender` by the caller. This is an alternative to {approve} that can be used as a mitigation for problems described in {IERC20-approve}. Emits an {Approval} event indicating the updated allowance. Requirements: - `spender` cannot be the zero address. - `spender` must have allowance for the caller of at least `subtractedValue`."
					},
					"increaseAllowance(address,uint256)": {
						"details": "Atomically increases the allowance granted to `spender` by the caller. This is an alternative to {approve} that can be used as a mitigation for problems described in {IERC20-approve}. Emits an {Approval} event indicating the updated allowance. Requirements: - `spender` cannot be the zero address."
					},
					"name()": {
						"details": "Returns the name of the token."
					},
					"owner()": {
						"details": "Returns the address of the current owner."
					},
					"renounceOwnership()": {
						"details": "Leaves the contract without owner. It will not be possible to call `onlyOwner` functions anymore. Can only be called by the current owner. NOTE: Renouncing ownership will leave the contract without an owner, thereby removing any functionality that is only available to the owner."
					},
					"symbol()": {
						"details": "Returns the symbol of the token, usually a shorter version of the name."
					},
					"totalSupply()": {
						"details": "See {IERC20-totalSupply}."
					},
					"transfer(address,uint256)": {
						"details": "See {IERC20-transfer}. Requirements: - `recipient` cannot be the zero address. - the caller must have a balance of at least `amount`."
					},
					"transferFrom(address,address,uint256)": {
						"details": "See {IERC20-transferFrom}. Emits an {Approval} event indicating the updated allowance. This is not required by the EIP. See the note at the beginning of {ERC20}. Requirements: - `sender` and `recipient` cannot be the zero address. - `sender` must have a balance of at least `amount`. - the caller must have allowance for ``sender``'s tokens of at least `amount`."
					},
					"transferOwnership(address)": {
						"details": "Transfers ownership of the contract to a new account (`newOwner`). Can only be called by the current owner."
					}
				},
				"version": 1
			},
			"evm": {
				"assembly": "    /* \"test-erc-2.sol\":18821:20238  contract PepeToken is Ownable, ERC20 {... */\n  mstore(0x40, 0x80)\n    /* \"test-erc-2.sol\":19046:19152  constructor(uint256 _totalSupply) ERC20(\"Pepe2\", \"PEPE2\") {... */\n  callvalue\n  dup1\n  iszero\n  tag_1\n  jumpi\n  revert(0x00, 0x00)\ntag_1:\n  pop\n  mload(0x40)\n  sub(codesize, bytecodeSize)\n  dup1\n  bytecodeSize\n  dup4\n  codecopy\n  dup2\n  dup2\n  add\n  0x40\n  mstore\n  dup2\n  add\n  swap1\n  tag_2\n  swap2\n  swap1\n  tag_3\n  jump\t// in\ntag_2:\n    /* \"test-erc-2.sol\":8916:9029  constructor(string memory name_, string memory symbol_) {... */\n  mload(0x40)\n  dup1\n  0x40\n  add\n  0x40\n  mstore\n  dup1\n  0x05\n  dup2\n  mstore\n  0x20\n  add\n  0x5065706532000000000000000000000000000000000000000000000000000000\n  dup2\n  mstore\n  pop\n  mload(0x40)\n  dup1\n  0x40\n  add\n  0x40\n  mstore\n  dup1\n  0x05\n  dup2\n  mstore\n  0x20\n  add\n  0x5045504532000000000000000000000000000000000000000000000000000000\n  dup2\n  mstore\n  pop\n    /* \"test-erc-2.sol\":1950:1982  _transferOwnership(_msgSender()) */\n  tag_8\n    /* \"test-erc-2.sol\":1969:1981  _msgSender() */\n  tag_9\n    /* \"test-erc-2.sol\":1969:1979  _msgSender */\n  shl(0x20, tag_10)\n    /* \"test-erc-2.sol\":1969:1981  _msgSender() */\n  0x20\n  shr\n  jump\t// in\ntag_9:\n    /* \"test-erc-2.sol\":1950:1968  _transferOwnership */\n  shl(0x20, tag_11)\n    /* \"test-erc-2.sol\":1950:1982  _transferOwnership(_msgSender()) */\n  0x20\n  shr\n  jump\t// in\ntag_8:\n    /* \"test-erc-2.sol\":8990:8995  name_ */\n  dup2\n    /* \"test-erc-2.sol\":8982:8987  _name */\n  0x04\n    /* \"test-erc-2.sol\":8982:8995  _name = name_ */\n  swap1\n  dup2\n  tag_13\n  swap2\n  swap1\n  tag_14\n  jump\t// in\ntag_13:\n  pop\n    /* \"test-erc-2.sol\":9015:9022  symbol_ */\n  dup1\n    /* \"test-erc-2.sol\":9005:9012  _symbol */\n  0x05\n    /* \"test-erc-2.sol\":9005:9022  _symbol = symbol_ */\n  swap1\n  dup2\n  tag_15\n  swap2\n  swap1\n  tag_14\n  jump\t// in\ntag_15:\n  pop\n    /* \"test-erc-2.sol\":8916:9029  constructor(string memory name_, string memory symbol_) {... */\n  pop\n  pop\n    /* \"test-erc-2.sol\":19114:19145  _mint(msg.sender, _totalSupply) */\n  tag_17\n    /* \"test-erc-2.sol\":19120:19130  msg.sender */\n  caller\n    /* \"test-erc-2.sol\":19132:19144  _totalSupply */\n  dup3\n    /* \"test-erc-2.sol\":19114:19119  _mint */\n  shl(0x20, tag_18)\n    /* \"test-erc-2.sol\":19114:19145  _mint(msg.sender, _totalSupply) */\n  0x20\n  shr\n  jump\t// in\ntag_17:\n    /* \"test-erc-2.sol\":19046:19152  constructor(uint256 _totalSupply) ERC20(\"Pepe2\", \"PEPE2\") {... */\n  pop\n    /* \"test-erc-2.sol\":18821:20238  contract PepeToken is Ownable, ERC20 {... */\n  jump(tag_19)\n    /* \"test-erc-2.sol\":827:923  function _msgSender() internal view virtual returns (address) {... */\ntag_10:\n    /* \"test-erc-2.sol\":880:887  address */\n  0x00\n    /* \"test-erc-2.sol\":906:916  msg.sender */\n  caller\n    /* \"test-erc-2.sol\":899:916  return msg.sender */\n  swap1\n  pop\n    /* \"test-erc-2.sol\":827:923  function _msgSender() internal view virtual returns (address) {... */\n  swap1\n  jump\t// out\n    /* \"test-erc-2.sol\":3299:3486  function _transferOwnership(address newOwner) internal virtual {... */\ntag_11:\n    /* \"test-erc-2.sol\":3372:3388  address oldOwner */\n  0x00\n    /* \"test-erc-2.sol\":3391:3397  _owner */\n  0x00\n  0x00\n  swap1\n  sload\n  swap1\n  0x0100\n  exp\n  swap1\n  div\n  0xffffffffffffffffffffffffffffffffffffffff\n  and\n    /* \"test-erc-2.sol\":3372:3397  address oldOwner = _owner */\n  swap1\n  pop\n    /* \"test-erc-2.sol\":3416:3424  newOwner */\n  dup2\n    /* \"test-erc-2.sol\":3407:3413  _owner */\n  0x00\n  0x00\n    /* \"test-erc-2.sol\":3407:3424  _owner = newOwner */\n  0x0100\n  exp\n  dup2\n  sload\n  dup2\n  0xffffffffffffffffffffffffffffffffffffffff\n  mul\n  not\n  and\n  swap1\n  dup4\n  0xffffffffffffffffffffffffffffffffffffffff\n  and\n  mul\n  or\n  swap1\n  sstore\n  pop\n    /* \"test-erc-2.sol\":3470:3478  newOwner */\n  dup2\n    /* \"test-erc-2.sol\":3439:3479  OwnershipTransferred(oldOwner, newOwner) */\n  0xffffffffffffffffffffffffffffffffffffffff\n  and\n    /* \"test-erc-2.sol\":3460:3468  oldOwner */\n  dup2\n    /* \"test-erc-2.sol\":3439:3479  OwnershipTransferred(oldOwner, newOwner) */\n  0xffffffffffffffffffffffffffffffffffffffff\n  and\n  0x8be0079c531659141344cd1fd0a4f28419497f9722a3daafe3b4186f6b6457e0\n  mload(0x40)\n  mload(0x40)\n  dup1\n  swap2\n  sub\n  swap1\n  log3\n    /* \"test-erc-2.sol\":3362:3486  {... */\n  pop\n    /* \"test-erc-2.sol\":3299:3486  function _transferOwnership(address newOwner) internal virtual {... */\n  pop\n  jump\t// out\n    /* \"test-erc-2.sol\":15264:15653  function _mint(address account, uint256 amount) internal virtual {... */\ntag_18:\n    /* \"test-erc-2.sol\":15366:15367  0 */\n  0x00\n    /* \"test-erc-2.sol\":15347:15368  account != address(0) */\n  0xffffffffffffffffffffffffffffffffffffffff\n  and\n    /* \"test-erc-2.sol\":15347:15354  account */\n  dup3\n    /* \"test-erc-2.sol\":15347:15368  account != address(0) */\n  0xffffffffffffffffffffffffffffffffffffffff\n  and\n  sub\n    /* \"test-erc-2.sol\":15339:15404  require(account != address(0), \"ERC20: mint to the zero address\") */\n  tag_23\n  jumpi\n  mload(0x40)\n  0x08c379a000000000000000000000000000000000000000000000000000000000\n  dup2\n  mstore\n  0x04\n  add\n  tag_24\n  swap1\n  tag_25\n  jump\t// in\ntag_24:\n  mload(0x40)\n  dup1\n  swap2\n  sub\n  swap1\n  revert\ntag_23:\n    /* \"test-erc-2.sol\":15415:15464  _beforeTokenTransfer(address(0), account, amount) */\n  tag_26\n    /* \"test-erc-2.sol\":15444:15445  0 */\n  0x00\n    /* \"test-erc-2.sol\":15448:15455  account */\n  dup4\n    /* \"test-erc-2.sol\":15457:15463  amount */\n  dup4\n    /* \"test-erc-2.sol\":15415:15435  _beforeTokenTransfer */\n  shl(0x20, tag_27)\n    /* \"test-erc-2.sol\":15415:15464  _beforeTokenTransfer(address(0), account, amount) */\n  0x20\n  shr\n  jump\t// in\ntag_26:\n    /* \"test-erc-2.sol\":15491:15497  amount */\n  dup1\n    /* \"test-erc-2.sol\":15475:15487  _totalSupply */\n  0x03\n  0x00\n    /* \"test-erc-2.sol\":15475:15497  _totalSupply += amount */\n  dup3\n  dup3\n  sload\n  tag_28\n  swap2\n  swap1\n  tag_29\n  jump\t// in\ntag_28:\n  swap3\n  pop\n  pop\n  dup2\n  swap1\n  sstore\n  pop\n    /* \"test-erc-2.sol\":15529:15535  amount */\n  dup1\n    /* \"test-erc-2.sol\":15507:15516  _balances */\n  0x01\n    /* \"test-erc-2.sol\":15507:15525  _balances[account] */\n  0x00\n    /* \"test-erc-2.sol\":15517:15524  account */\n  dup5\n    /* \"test-erc-2.sol\":15507:15525  _balances[account] */\n  0xffffffffffffffffffffffffffffffffffffffff\n  and\n  0xffffffffffffffffffffffffffffffffffffffff\n  and\n  dup2\n  mstore\n  0x20\n  add\n  swap1\n  dup2\n  mstore\n  0x20\n  add\n  0x00\n  keccak256\n  0x00\n    /* \"test-erc-2.sol\":15507:15535  _balances[account] += amount */\n  dup3\n  dup3\n  sload\n  tag_30\n  swap2\n  swap1\n  tag_29\n  jump\t// in\ntag_30:\n  swap3\n  pop\n  pop\n  dup2\n  swap1\n  sstore\n  pop\n    /* \"test-erc-2.sol\":15571:15578  account */\n  dup2\n    /* \"test-erc-2.sol\":15550:15587  Transfer(address(0), account, amount) */\n  0xffffffffffffffffffffffffffffffffffffffff\n  and\n    /* \"test-erc-2.sol\":15567:15568  0 */\n  0x00\n    /* \"test-erc-2.sol\":15550:15587  Transfer(address(0), account, amount) */\n  0xffffffffffffffffffffffffffffffffffffffff\n  and\n  0xddf252ad1be2c89b69c2b068fc378daa952ba7f163c4a11628f55a4df523b3ef\n    /* \"test-erc-2.sol\":15580:15586  amount */\n  dup4\n    /* \"test-erc-2.sol\":15550:15587  Transfer(address(0), account, amount) */\n  mload(0x40)\n  tag_31\n  swap2\n  swap1\n  tag_32\n  jump\t// in\ntag_31:\n  mload(0x40)\n  dup1\n  swap2\n  sub\n  swap1\n  log3\n    /* \"test-erc-2.sol\":15598:15646  _afterTokenTransfer(address(0), account, amount) */\n  tag_33\n    /* \"test-erc-2.sol\":15626:15627  0 */\n  0x00\n    /* \"test-erc-2.sol\":15630:15637  account */\n  dup4\n    /* \"test-erc-2.sol\":15639:15645  amount */\n  dup4\n    /* \"test-erc-2.sol\":15598:15617  _afterTokenTransfer */\n  shl(0x20, tag_34)\n    /* \"test-erc-2.sol\":15598:15646  _afterTokenTransfer(address(0), account, amount) */\n  0x20\n  shr\n  jump\t// in\ntag_33:\n    /* \"test-erc-2.sol\":15264:15653  function _mint(address account, uint256 amount) internal virtual {... */\n  pop\n  pop\n  jump\t// out\n    /* \"test-erc-2.sol\":19599:20151  function _beforeTokenTransfer(... */\ntag_27:\n    /* \"test-erc-2.sol\":19746:19756  blacklists */\n  0x0a\n    /* \"test-erc-2.sol\":19746:19760  blacklists[to] */\n  0x00\n    /* \"test-erc-2.sol\":19757:19759  to */\n  dup4\n    /* \"test-erc-2.sol\":19746:19760  blacklists[to] */\n  0xffffffffffffffffffffffffffffffffffffffff\n  and\n  0xffffffffffffffffffffffffffffffffffffffff\n  and\n  dup2\n  mstore\n  0x20\n  add\n  swap1\n  dup2\n  mstore\n  0x20\n  add\n  0x00\n  keccak256\n  0x00\n  swap1\n  sload\n  swap1\n  0x0100\n  exp\n  swap1\n  div\n  0xff\n  and\n    /* \"test-erc-2.sol\":19745:19760  !blacklists[to] */\n  iszero\n    /* \"test-erc-2.sol\":19745:19781  !blacklists[to] && !blacklists[from] */\n  dup1\n  iszero\n  tag_36\n  jumpi\n  pop\n    /* \"test-erc-2.sol\":19765:19775  blacklists */\n  0x0a\n    /* \"test-erc-2.sol\":19765:19781  blacklists[from] */\n  0x00\n    /* \"test-erc-2.sol\":19776:19780  from */\n  dup5\n    /* \"test-erc-2.sol\":19765:19781  blacklists[from] */\n  0xffffffffffffffffffffffffffffffffffffffff\n  and\n  0xffffffffffffffffffffffffffffffffffffffff\n  and\n  dup2\n  mstore\n  0x20\n  add\n  swap1\n  dup2\n  mstore\n  0x20\n  add\n  0x00\n  keccak256\n  0x00\n  swap1\n  sload\n  swap1\n  0x0100\n  exp\n  swap1\n  div\n  0xff\n  and\n    /* \"test-erc-2.sol\":19764:19781  !blacklists[from] */\n  iszero\n    /* \"test-erc-2.sol\":19745:19781  !blacklists[to] && !blacklists[from] */\ntag_36:\n    /* \"test-erc-2.sol\":19737:19797  require(!blacklists[to] && !blacklists[from], \"Blacklisted\") */\n  tag_37\n  jumpi\n  mload(0x40)\n  0x08c379a000000000000000000000000000000000000000000000000000000000\n  dup2\n  mstore\n  0x04\n  add\n  tag_38\n  swap1\n  tag_39\n  jump\t// in\ntag_38:\n  mload(0x40)\n  dup1\n  swap2\n  sub\n  swap1\n  revert\ntag_37:\n    /* \"test-erc-2.sol\":19837:19838  0 */\n  0x00\n    /* \"test-erc-2.sol\":19812:19839  uniswapV2Pair == address(0) */\n  0xffffffffffffffffffffffffffffffffffffffff\n  and\n    /* \"test-erc-2.sol\":19812:19825  uniswapV2Pair */\n  0x09\n  0x00\n  swap1\n  sload\n  swap1\n  0x0100\n  exp\n  swap1\n  div\n  0xffffffffffffffffffffffffffffffffffffffff\n  and\n    /* \"test-erc-2.sol\":19812:19839  uniswapV2Pair == address(0) */\n  0xffffffffffffffffffffffffffffffffffffffff\n  and\n  sub\n    /* \"test-erc-2.sol\":19808:19953  if (uniswapV2Pair == address(0)) {... */\n  tag_40\n  jumpi\n    /* \"test-erc-2.sol\":19871:19878  owner() */\n  tag_41\n    /* \"test-erc-2.sol\":19871:19876  owner */\n  shl(0x20, tag_42)\n    /* \"test-erc-2.sol\":19871:19878  owner() */\n  0x20\n  shr\n  jump\t// in\ntag_41:\n    /* \"test-erc-2.sol\":19863:19878  from == owner() */\n  0xffffffffffffffffffffffffffffffffffffffff\n  and\n    /* \"test-erc-2.sol\":19863:19867  from */\n  dup4\n    /* \"test-erc-2.sol\":19863:19878  from == owner() */\n  0xffffffffffffffffffffffffffffffffffffffff\n  and\n  eq\n    /* \"test-erc-2.sol\":19863:19895  from == owner() || to == owner() */\n  dup1\n  tag_43\n  jumpi\n  pop\n    /* \"test-erc-2.sol\":19888:19895  owner() */\n  tag_44\n    /* \"test-erc-2.sol\":19888:19893  owner */\n  shl(0x20, tag_42)\n    /* \"test-erc-2.sol\":19888:19895  owner() */\n  0x20\n  shr\n  jump\t// in\ntag_44:\n    /* \"test-erc-2.sol\":19882:19895  to == owner() */\n  0xffffffffffffffffffffffffffffffffffffffff\n  and\n    /* \"test-erc-2.sol\":19882:19884  to */\n  dup3\n    /* \"test-erc-2.sol\":19882:19895  to == owner() */\n  0xffffffffffffffffffffffffffffffffffffffff\n  and\n  eq\n    /* \"test-erc-2.sol\":19863:19895  from == owner() || to == owner() */\ntag_43:\n    /* \"test-erc-2.sol\":19855:19922  require(from == owner() || to == owner(), \"trading is not started\") */\n  tag_45\n  jumpi\n  mload(0x40)\n  0x08c379a000000000000000000000000000000000000000000000000000000000\n  dup2\n  mstore\n  0x04\n  add\n  tag_46\n  swap1\n  tag_47\n  jump\t// in\ntag_46:\n  mload(0x40)\n  dup1\n  swap2\n  sub\n  swap1\n  revert\ntag_45:\n    /* \"test-erc-2.sol\":19936:19943  return; */\n  jump(tag_35)\n    /* \"test-erc-2.sol\":19808:19953  if (uniswapV2Pair == address(0)) {... */\ntag_40:\n    /* \"test-erc-2.sol\":19967:19974  limited */\n  0x06\n  0x00\n  swap1\n  sload\n  swap1\n  0x0100\n  exp\n  swap1\n  div\n  0xff\n  and\n    /* \"test-erc-2.sol\":19967:19999  limited && from == uniswapV2Pair */\n  dup1\n  iszero\n  tag_48\n  jumpi\n  pop\n    /* \"test-erc-2.sol\":19986:19999  uniswapV2Pair */\n  0x09\n  0x00\n  swap1\n  sload\n  swap1\n  0x0100\n  exp\n  swap1\n  div\n  0xffffffffffffffffffffffffffffffffffffffff\n  and\n    /* \"test-erc-2.sol\":19978:19999  from == uniswapV2Pair */\n  0xffffffffffffffffffffffffffffffffffffffff\n  and\n    /* \"test-erc-2.sol\":19978:19982  from */\n  dup4\n    /* \"test-erc-2.sol\":19978:19999  from == uniswapV2Pair */\n  0xffffffffffffffffffffffffffffffffffffffff\n  and\n  eq\n    /* \"test-erc-2.sol\":19967:19999  limited && from == uniswapV2Pair */\ntag_48:\n    /* \"test-erc-2.sol\":19963:20145  if (limited && from == uniswapV2Pair) {... */\n  iszero\n  tag_49\n  jumpi\n    /* \"test-erc-2.sol\":20055:20071  maxHoldingAmount */\n  sload(0x07)\n    /* \"test-erc-2.sol\":20045:20051  amount */\n  dup2\n    /* \"test-erc-2.sol\":20023:20042  super.balanceOf(to) */\n  tag_50\n    /* \"test-erc-2.sol\":20039:20041  to */\n  dup5\n    /* \"test-erc-2.sol\":20023:20038  super.balanceOf */\n  shl(0x20, tag_51)\n    /* \"test-erc-2.sol\":20023:20042  super.balanceOf(to) */\n  0x20\n  shr\n  jump\t// in\ntag_50:\n    /* \"test-erc-2.sol\":20023:20051  super.balanceOf(to) + amount */\n  tag_52\n  swap2\n  swap1\n  tag_29\n  jump\t// in\ntag_52:\n    /* \"test-erc-2.sol\":20023:20071  super.balanceOf(to) + amount <= maxHoldingAmount */\n  gt\n  iszero\n    /* \"test-erc-2.sol\":20023:20123  super.balanceOf(to) + amount <= maxHoldingAmount && super.balanceOf(to) + amount >= minHoldingAmount */\n  dup1\n  iszero\n  tag_53\n  jumpi\n  pop\n    /* \"test-erc-2.sol\":20107:20123  minHoldingAmount */\n  sload(0x08)\n    /* \"test-erc-2.sol\":20097:20103  amount */\n  dup2\n    /* \"test-erc-2.sol\":20075:20094  super.balanceOf(to) */\n  tag_54\n    /* \"test-erc-2.sol\":20091:20093  to */\n  dup5\n    /* \"test-erc-2.sol\":20075:20090  super.balanceOf */\n  shl(0x20, tag_51)\n    /* \"test-erc-2.sol\":20075:20094  super.balanceOf(to) */\n  0x20\n  shr\n  jump\t// in\ntag_54:\n    /* \"test-erc-2.sol\":20075:20103  super.balanceOf(to) + amount */\n  tag_55\n  swap2\n  swap1\n  tag_29\n  jump\t// in\ntag_55:\n    /* \"test-erc-2.sol\":20075:20123  super.balanceOf(to) + amount >= minHoldingAmount */\n  lt\n  iszero\n    /* \"test-erc-2.sol\":20023:20123  super.balanceOf(to) + amount <= maxHoldingAmount && super.balanceOf(to) + amount >= minHoldingAmount */\ntag_53:\n    /* \"test-erc-2.sol\":20015:20134  require(super.balanceOf(to) + amount <= maxHoldingAmount && super.balanceOf(to) + amount >= minHoldingAmount, \"Forbid\") */\n  tag_56\n  jumpi\n  mload(0x40)\n  0x08c379a000000000000000000000000000000000000000000000000000000000\n  dup2\n  mstore\n  0x04\n  add\n  tag_57\n  swap1\n  tag_58\n  jump\t// in\ntag_57:\n  mload(0x40)\n  dup1\n  swap2\n  sub\n  swap1\n  revert\ntag_56:\n    /* \"test-erc-2.sol\":19963:20145  if (limited && from == uniswapV2Pair) {... */\ntag_49:\n    /* \"test-erc-2.sol\":19599:20151  function _beforeTokenTransfer(... */\ntag_35:\n  pop\n  pop\n  pop\n  jump\t// out\n    /* \"test-erc-2.sol\":18635:18755  function _afterTokenTransfer(... */\ntag_34:\n  pop\n  pop\n  pop\n  jump\t// out\n    /* \"test-erc-2.sol\":2065:2150  function owner() public view virtual returns (address) {... */\ntag_42:\n    /* \"test-erc-2.sol\":2111:2118  address */\n  0x00\n    /* \"test-erc-2.sol\":2137:2143  _owner */\n  0x00\n  0x00\n  swap1\n  sload\n  swap1\n  0x0100\n  exp\n  swap1\n  div\n  0xffffffffffffffffffffffffffffffffffffffff\n  and\n    /* \"test-erc-2.sol\":2130:2143  return _owner */\n  swap1\n  pop\n    /* \"test-erc-2.sol\":2065:2150  function owner() public view virtual returns (address) {... */\n  swap1\n  jump\t// out\n    /* \"test-erc-2.sol\":10346:10471  function balanceOf(address account) public view virtual override returns (uint256) {... */\ntag_51:\n    /* \"test-erc-2.sol\":10420:10427  uint256 */\n  0x00\n    /* \"test-erc-2.sol\":10446:10455  _balances */\n  0x01\n    /* \"test-erc-2.sol\":10446:10464  _balances[account] */\n  0x00\n    /* \"test-erc-2.sol\":10456:10463  account */\n  dup4\n    /* \"test-erc-2.sol\":10446:10464  _balances[account] */\n  0xffffffffffffffffffffffffffffffffffffffff\n  and\n  0xffffffffffffffffffffffffffffffffffffffff\n  and\n  dup2\n  mstore\n  0x20\n  add\n  swap1\n  dup2\n  mstore\n  0x20\n  add\n  0x00\n  keccak256\n  sload\n    /* \"test-erc-2.sol\":10439:10464  return _balances[account] */\n  swap1\n  pop\n    /* \"test-erc-2.sol\":10346:10471  function balanceOf(address account) public view virtual override returns (uint256) {... */\n  swap2\n  swap1\n  pop\n  jump\t// out\n    /* \"#utility.yul\":88:205   */\ntag_63:\n    /* \"#utility.yul\":197:198   */\n  0x00\n    /* \"#utility.yul\":194:195   */\n  0x00\n    /* \"#utility.yul\":187:199   */\n  revert\n    /* \"#utility.yul\":334:411   */\ntag_65:\n    /* \"#utility.yul\":371:378   */\n  0x00\n    /* \"#utility.yul\":400:405   */\n  dup2\n    /* \"#utility.yul\":389:405   */\n  swap1\n  pop\n    /* \"#utility.yul\":334:411   */\n  swap2\n  swap1\n  pop\n  jump\t// out\n    /* \"#utility.yul\":417:539   */\ntag_66:\n    /* \"#utility.yul\":490:514   */\n  tag_104\n    /* \"#utility.yul\":508:513   */\n  dup2\n    /* \"#utility.yul\":490:514   */\n  tag_65\n  jump\t// in\ntag_104:\n    /* \"#utility.yul\":483:488   */\n  dup2\n    /* \"#utility.yul\":480:515   */\n  eq\n    /* \"#utility.yul\":470:533   */\n  tag_105\n  jumpi\n    /* \"#utility.yul\":529:530   */\n  0x00\n    /* \"#utility.yul\":526:527   */\n  0x00\n    /* \"#utility.yul\":519:531   */\n  revert\n    /* \"#utility.yul\":470:533   */\ntag_105:\n    /* \"#utility.yul\":417:539   */\n  pop\n  jump\t// out\n    /* \"#utility.yul\":545:688   */\ntag_67:\n    /* \"#utility.yul\":602:607   */\n  0x00\n    /* \"#utility.yul\":633:639   */\n  dup2\n    /* \"#utility.yul\":627:640   */\n  mload\n    /* \"#utility.yul\":618:640   */\n  swap1\n  pop\n    /* \"#utility.yul\":649:682   */\n  tag_107\n    /* \"#utility.yul\":676:681   */\n  dup2\n    /* \"#utility.yul\":649:682   */\n  tag_66\n  jump\t// in\ntag_107:\n    /* \"#utility.yul\":545:688   */\n  swap3\n  swap2\n  pop\n  pop\n  jump\t// out\n    /* \"#utility.yul\":694:1045   */\ntag_3:\n    /* \"#utility.yul\":764:770   */\n  0x00\n    /* \"#utility.yul\":813:815   */\n  0x20\n    /* \"#utility.yul\":801:810   */\n  dup3\n    /* \"#utility.yul\":792:799   */\n  dup5\n    /* \"#utility.yul\":788:811   */\n  sub\n    /* \"#utility.yul\":784:816   */\n  slt\n    /* \"#utility.yul\":781:900   */\n  iszero\n  tag_109\n  jumpi\n    /* \"#utility.yul\":819:898   */\n  tag_110\n  tag_63\n  jump\t// in\ntag_110:\n    /* \"#utility.yul\":781:900   */\ntag_109:\n    /* \"#utility.yul\":939:940   */\n  0x00\n    /* \"#utility.yul\":964:1028   */\n  tag_111\n    /* \"#utility.yul\":1020:1027   */\n  dup5\n    /* \"#utility.yul\":1011:1017   */\n  dup3\n    /* \"#utility.yul\":1000:1009   */\n  dup6\n    /* \"#utility.yul\":996:1018   */\n  add\n    /* \"#utility.yul\":964:1028   */\n  tag_67\n  jump\t// in\ntag_111:\n    /* \"#utility.yul\":954:1028   */\n  swap2\n  pop\n    /* \"#utility.yul\":910:1038   */\n  pop\n    /* \"#utility.yul\":694:1045   */\n  swap3\n  swap2\n  pop\n  pop\n  jump\t// out\n    /* \"#utility.yul\":1051:1150   */\ntag_68:\n    /* \"#utility.yul\":1103:1109   */\n  0x00\n    /* \"#utility.yul\":1137:1142   */\n  dup2\n    /* \"#utility.yul\":1131:1143   */\n  mload\n    /* \"#utility.yul\":1121:1143   */\n  swap1\n  pop\n    /* \"#utility.yul\":1051:1150   */\n  swap2\n  swap1\n  pop\n  jump\t// out\n    /* \"#utility.yul\":1156:1336   */\ntag_69:\n    /* \"#utility.yul\":1204:1281   */\n  0x4e487b7100000000000000000000000000000000000000000000000000000000\n    /* \"#utility.yul\":1201:1202   */\n  0x00\n    /* \"#utility.yul\":1194:1282   */\n  mstore\n    /* \"#utility.yul\":1301:1305   */\n  0x41\n    /* \"#utility.yul\":1298:1299   */\n  0x04\n    /* \"#utility.yul\":1291:1306   */\n  mstore\n    /* \"#utility.yul\":1325:1329   */\n  0x24\n    /* \"#utility.yul\":1322:1323   */\n  0x00\n    /* \"#utility.yul\":1315:1330   */\n  revert\n    /* \"#utility.yul\":1342:1522   */\ntag_70:\n    /* \"#utility.yul\":1390:1467   */\n  0x4e487b7100000000000000000000000000000000000000000000000000000000\n    /* \"#utility.yul\":1387:1388   */\n  0x00\n    /* \"#utility.yul\":1380:1468   */\n  mstore\n    /* \"#utility.yul\":1487:1491   */\n  0x22\n    /* \"#utility.yul\":1484:1485   */\n  0x04\n    /* \"#utility.yul\":1477:1492   */\n  mstore\n    /* \"#utility.yul\":1511:1515   */\n  0x24\n    /* \"#utility.yul\":1508:1509   */\n  0x00\n    /* \"#utility.yul\":1501:1516   */\n  revert\n    /* \"#utility.yul\":1528:1848   */\ntag_71:\n    /* \"#utility.yul\":1572:1578   */\n  0x00\n    /* \"#utility.yul\":1609:1610   */\n  0x02\n    /* \"#utility.yul\":1603:1607   */\n  dup3\n    /* \"#utility.yul\":1599:1611   */\n  div\n    /* \"#utility.yul\":1589:1611   */\n  swap1\n  pop\n    /* \"#utility.yul\":1656:1657   */\n  0x01\n    /* \"#utility.yul\":1650:1654   */\n  dup3\n    /* \"#utility.yul\":1646:1658   */\n  and\n    /* \"#utility.yul\":1677:1695   */\n  dup1\n    /* \"#utility.yul\":1667:1748   */\n  tag_116\n  jumpi\n    /* \"#utility.yul\":1733:1737   */\n  0x7f\n    /* \"#utility.yul\":1725:1731   */\n  dup3\n    /* \"#utility.yul\":1721:1738   */\n  and\n    /* \"#utility.yul\":1711:1738   */\n  swap2\n  pop\n    /* \"#utility.yul\":1667:1748   */\ntag_116:\n    /* \"#utility.yul\":1795:1797   */\n  0x20\n    /* \"#utility.yul\":1787:1793   */\n  dup3\n    /* \"#utility.yul\":1784:1798   */\n  lt\n    /* \"#utility.yul\":1764:1782   */\n  dup2\n    /* \"#utility.yul\":1761:1799   */\n  sub\n    /* \"#utility.yul\":1758:1842   */\n  tag_117\n  jumpi\n    /* \"#utility.yul\":1814:1832   */\n  tag_118\n  tag_70\n  jump\t// in\ntag_118:\n    /* \"#utility.yul\":1758:1842   */\ntag_117:\n    /* \"#utility.yul\":1579:1848   */\n  pop\n    /* \"#utility.yul\":1528:1848   */\n  swap2\n  swap1\n  pop\n  jump\t// out\n    /* \"#utility.yul\":1854:1995   */\ntag_72:\n    /* \"#utility.yul\":1903:1907   */\n  0x00\n    /* \"#utility.yul\":1926:1929   */\n  dup2\n    /* \"#utility.yul\":1918:1929   */\n  swap1\n  pop\n    /* \"#utility.yul\":1949:1952   */\n  dup2\n    /* \"#utility.yul\":1946:1947   */\n  0x00\n    /* \"#utility.yul\":1939:1953   */\n  mstore\n    /* \"#utility.yul\":1983:1987   */\n  0x20\n    /* \"#utility.yul\":1980:1981   */\n  0x00\n    /* \"#utility.yul\":1970:1988   */\n  keccak256\n    /* \"#utility.yul\":1962:1988   */\n  swap1\n  pop\n    /* \"#utility.yul\":1854:1995   */\n  swap2\n  swap1\n  pop\n  jump\t// out\n    /* \"#utility.yul\":2001:2094   */\ntag_73:\n    /* \"#utility.yul\":2038:2044   */\n  0x00\n    /* \"#utility.yul\":2085:2087   */\n  0x20\n    /* \"#utility.yul\":2080:2082   */\n  0x1f\n    /* \"#utility.yul\":2073:2078   */\n  dup4\n    /* \"#utility.yul\":2069:2083   */\n  add\n    /* \"#utility.yul\":2065:2088   */\n  div\n    /* \"#utility.yul\":2055:2088   */\n  swap1\n  pop\n    /* \"#utility.yul\":2001:2094   */\n  swap2\n  swap1\n  pop\n  jump\t// out\n    /* \"#utility.yul\":2100:2207   */\ntag_74:\n    /* \"#utility.yul\":2144:2152   */\n  0x00\n    /* \"#utility.yul\":2194:2199   */\n  dup3\n    /* \"#utility.yul\":2188:2192   */\n  dup3\n    /* \"#utility.yul\":2184:2200   */\n  shl\n    /* \"#utility.yul\":2163:2200   */\n  swap1\n  pop\n    /* \"#utility.yul\":2100:2207   */\n  swap3\n  swap2\n  pop\n  pop\n  jump\t// out\n    /* \"#utility.yul\":2213:2606   */\ntag_75:\n    /* \"#utility.yul\":2282:2288   */\n  0x00\n    /* \"#utility.yul\":2332:2333   */\n  0x08\n    /* \"#utility.yul\":2320:2330   */\n  dup4\n    /* \"#utility.yul\":2316:2334   */\n  mul\n    /* \"#utility.yul\":2355:2452   */\n  tag_123\n    /* \"#utility.yul\":2385:2451   */\n  0xffffffffffffffffffffffffffffffffffffffffffffffffffffffffffffffff\n    /* \"#utility.yul\":2374:2383   */\n  dup3\n    /* \"#utility.yul\":2355:2452   */\n  tag_74\n  jump\t// in\ntag_123:\n    /* \"#utility.yul\":2473:2512   */\n  tag_124\n    /* \"#utility.yul\":2503:2511   */\n  dup7\n    /* \"#utility.yul\":2492:2501   */\n  dup4\n    /* \"#utility.yul\":2473:2512   */\n  tag_74\n  jump\t// in\ntag_124:\n    /* \"#utility.yul\":2461:2512   */\n  swap6\n  pop\n    /* \"#utility.yul\":2545:2549   */\n  dup1\n    /* \"#utility.yul\":2541:2550   */\n  not\n    /* \"#utility.yul\":2534:2539   */\n  dup5\n    /* \"#utility.yul\":2530:2551   */\n  and\n    /* \"#utility.yul\":2521:2551   */\n  swap4\n  pop\n    /* \"#utility.yul\":2594:2598   */\n  dup1\n    /* \"#utility.yul\":2584:2592   */\n  dup7\n    /* \"#utility.yul\":2580:2599   */\n  and\n    /* \"#utility.yul\":2573:2578   */\n  dup5\n    /* \"#utility.yul\":2570:2600   */\n  or\n    /* \"#utility.yul\":2560:2600   */\n  swap3\n  pop\n    /* \"#utility.yul\":2289:2606   */\n  pop\n  pop\n    /* \"#utility.yul\":2213:2606   */\n  swap4\n  swap3\n  pop\n  pop\n  pop\n  jump\t// out\n    /* \"#utility.yul\":2612:2672   */\ntag_76:\n    /* \"#utility.yul\":2640:2643   */\n  0x00\n    /* \"#utility.yul\":2661:2666   */\n  dup2\n    /* \"#utility.yul\":2654:2666   */\n  swap1\n  pop\n    /* \"#utility.yul\":2612:2672   */\n  swap2\n  swap1\n  pop\n  jump\t// out\n    /* \"#utility.yul\":2678:2820   */\ntag_77:\n    /* \"#utility.yul\":2728:2737   */\n  0x00\n    /* \"#utility.yul\":2761:2814   */\n  tag_127\n    /* \"#utility.yul\":2779:2813   */\n  tag_128\n    /* \"#utility.yul\":2788:2812   */\n  tag_129\n    /* \"#utility.yul\":2806:2811   */\n  dup5\n    /* \"#utility.yul\":2788:2812   */\n  tag_65\n  jump\t// in\ntag_129:\n    /* \"#utility.yul\":2779:2813   */\n  tag_76\n  jump\t// in\ntag_128:\n    /* \"#utility.yul\":2761:2814   */\n  tag_65\n  jump\t// in\ntag_127:\n    /* \"#utility.yul\":2748:2814   */\n  swap1\n  pop\n    /* \"#utility.yul\":2678:2820   */\n  swap2\n  swap1\n  pop\n  jump\t// out\n    /* \"#utility.yul\":2826:2901   */\ntag_78:\n    /* \"#utility.yul\":2869:2872   */\n  0x00\n    /* \"#utility.yul\":2890:2895   */\n  dup2\n    /* \"#utility.yul\":2883:2895   */\n  swap1\n  pop\n    /* \"#utility.yul\":2826:2901   */\n  swap2\n  swap1\n  pop\n  jump\t// out\n    /* \"#utility.yul\":2907:3176   */\ntag_79:\n    /* \"#utility.yul\":3017:3056   */\n  tag_132\n    /* \"#utility.yul\":3048:3055   */\n  dup4\n    /* \"#utility.yul\":3017:3056   */\n  tag_77\n  jump\t// in\ntag_132:\n    /* \"#utility.yul\":3078:3169   */\n  tag_133\n    /* \"#utility.yul\":3127:3168   */\n  tag_134\n    /* \"#utility.yul\":3151:3167   */\n  dup3\n    /* \"#utility.yul\":3127:3168   */\n  tag_78\n  jump\t// in\ntag_134:\n    /* \"#utility.yul\":3119:3125   */\n  dup5\n    /* \"#utility.yul\":3112:3116   */\n  dup5\n    /* \"#utility.yul\":3106:3117   */\n  sload\n    /* \"#utility.yul\":3078:3169   */\n  tag_75\n  jump\t// in\ntag_133:\n    /* \"#utility.yul\":3072:3076   */\n  dup3\n    /* \"#utility.yul\":3065:3170   */\n  sstore\n    /* \"#utility.yul\":2983:3176   */\n  pop\n    /* \"#utility.yul\":2907:3176   */\n  pop\n  pop\n  pop\n  jump\t// out\n    /* \"#utility.yul\":3182:3255   */\ntag_80:\n    /* \"#utility.yul\":3227:3230   */\n  0x00\n    /* \"#utility.yul\":3248:3249   */\n  0x00\n    /* \"#utility.yul\":3241:3249   */\n  swap1\n  pop\n    /* \"#utility.yul\":3182:3255   */\n  swap1\n  jump\t// out\n    /* \"#utility.yul\":3261:3450   */\ntag_81:\n    /* \"#utility.yul\":3338:3370   */\n  tag_137\n  tag_80\n  jump\t// in\ntag_137:\n    /* \"#utility.yul\":3379:3444   */\n  tag_138\n    /* \"#utility.yul\":3437:3443   */\n  dup2\n    /* \"#utility.yul\":3429:3435   */\n  dup5\n    /* \"#utility.yul\":3423:3427   */\n  dup5\n    /* \"#utility.yul\":3379:3444   */\n  tag_79\n  jump\t// in\ntag_138:\n    /* \"#utility.yul\":3314:3450   */\n  pop\n    /* \"#utility.yul\":3261:3450   */\n  pop\n  pop\n  jump\t// out\n    /* \"#utility.yul\":3456:3642   */\ntag_82:\n    /* \"#utility.yul\":3516:3636   */\ntag_140:\n    /* \"#utility.yul\":3533:3536   */\n  dup2\n    /* \"#utility.yul\":3526:3531   */\n  dup2\n    /* \"#utility.yul\":3523:3537   */\n  lt\n    /* \"#utility.yul\":3516:3636   */\n  iszero\n  tag_142\n  jumpi\n    /* \"#utility.yul\":3587:3626   */\n  tag_143\n    /* \"#utility.yul\":3624:3625   */\n  0x00\n    /* \"#utility.yul\":3617:3622   */\n  dup3\n    /* \"#utility.yul\":3587:3626   */\n  tag_81\n  jump\t// in\ntag_143:\n    /* \"#utility.yul\":3560:3561   */\n  0x01\n    /* \"#utility.yul\":3553:3558   */\n  dup2\n    /* \"#utility.yul\":3549:3562   */\n  add\n    /* \"#utility.yul\":3540:3562   */\n  swap1\n  pop\n    /* \"#utility.yul\":3516:3636   */\n  jump(tag_140)\ntag_142:\n    /* \"#utility.yul\":3456:3642   */\n  pop\n  pop\n  jump\t// out\n    /* \"#utility.yul\":3648:4191   */\ntag_83:\n    /* \"#utility.yul\":3749:3751   */\n  0x1f\n    /* \"#utility.yul\":3744:3747   */\n  dup3\n    /* \"#utility.yul\":3741:3752   */\n  gt\n    /* \"#utility.yul\":3738:4184   */\n  iszero\n  tag_145\n  jumpi\n    /* \"#utility.yul\":3783:3821   */\n  tag_146\n    /* \"#utility.yul\":3815:3820   */\n  dup2\n    /* \"#utility.yul\":3783:3821   */\n  tag_72\n  jump\t// in\ntag_146:\n    /* \"#utility.yul\":3867:3896   */\n  tag_147\n    /* \"#utility.yul\":3885:3895   */\n  dup5\n    /* \"#utility.yul\":3867:3896   */\n  tag_73\n  jump\t// in\ntag_147:\n    /* \"#utility.yul\":3857:3865   */\n  dup2\n    /* \"#utility.yul\":3853:3897   */\n  add\n    /* \"#utility.yul\":4050:4052   */\n  0x20\n    /* \"#utility.yul\":4038:4048   */\n  dup6\n    /* \"#utility.yul\":4035:4053   */\n  lt\n    /* \"#utility.yul\":4032:4081   */\n  iszero\n  tag_148\n  jumpi\n    /* \"#utility.yul\":4071:4079   */\n  dup2\n    /* \"#utility.yul\":4056:4079   */\n  swap1\n  pop\n    /* \"#utility.yul\":4032:4081   */\ntag_148:\n    /* \"#utility.yul\":4094:4174   */\n  tag_149\n    /* \"#utility.yul\":4150:4172   */\n  tag_150\n    /* \"#utility.yul\":4168:4171   */\n  dup6\n    /* \"#utility.yul\":4150:4172   */\n  tag_73\n  jump\t// in\ntag_150:\n    /* \"#utility.yul\":4140:4148   */\n  dup4\n    /* \"#utility.yul\":4136:4173   */\n  add\n    /* \"#utility.yul\":4123:4134   */\n  dup3\n    /* \"#utility.yul\":4094:4174   */\n  tag_82\n  jump\t// in\ntag_149:\n    /* \"#utility.yul\":3753:4184   */\n  pop\n  pop\n    /* \"#utility.yul\":3738:4184   */\ntag_145:\n    /* \"#utility.yul\":3648:4191   */\n  pop\n  pop\n  pop\n  jump\t// out\n    /* \"#utility.yul\":4197:4314   */\ntag_84:\n    /* \"#utility.yul\":4251:4259   */\n  0x00\n    /* \"#utility.yul\":4301:4306   */\n  dup3\n    /* \"#utility.yul\":4295:4299   */\n  dup3\n    /* \"#utility.yul\":4291:4307   */\n  shr\n    /* \"#utility.yul\":4270:4307   */\n  swap1\n  pop\n    /* \"#utility.yul\":4197:4314   */\n  swap3\n  swap2\n  pop\n  pop\n  jump\t// out\n    /* \"#utility.yul\":4320:4489   */\ntag_85:\n    /* \"#utility.yul\":4364:4370   */\n  0x00\n    /* \"#utility.yul\":4397:4448   */\n  tag_153\n    /* \"#utility.yul\":4445:4446   */\n  0x00\n    /* \"#utility.yul\":4441:4447   */\n  not\n    /* \"#utility.yul\":4433:4438   */\n  dup5\n    /* \"#utility.yul\":4430:4431   */\n  0x08\n    /* \"#utility.yul\":4426:4439   */\n  mul\n    /* \"#utility.yul\":4397:4448   */\n  tag_84\n  jump\t// in\ntag_153:\n    /* \"#utility.yul\":4393:4449   */\n  not\n    /* \"#utility.yul\":4478:4482   */\n  dup1\n    /* \"#utility.yul\":4472:4476   */\n  dup4\n    /* \"#utility.yul\":4468:4483   */\n  and\n    /* \"#utility.yul\":4458:4483   */\n  swap2\n  pop\n    /* \"#utility.yul\":4371:4489   */\n  pop\n    /* \"#utility.yul\":4320:4489   */\n  swap3\n  swap2\n  pop\n  pop\n  jump\t// out\n    /* \"#utility.yul\":4494:4789   */\ntag_86:\n    /* \"#utility.yul\":4570:4574   */\n  0x00\n    /* \"#utility.yul\":4716:4745   */\n  tag_155\n    /* \"#utility.yul\":4741:4744   */\n  dup4\n    /* \"#utility.yul\":4735:4739   */\n  dup4\n    /* \"#utility.yul\":4716:4745   */\n  tag_85\n  jump\t// in\ntag_155:\n    /* \"#utility.yul\":4708:4745   */\n  swap2\n  pop\n    /* \"#utility.yul\":4778:4781   */\n  dup3\n    /* \"#utility.yul\":4775:4776   */\n  0x02\n    /* \"#utility.yul\":4771:4782   */\n  mul\n    /* \"#utility.yul\":4765:4769   */\n  dup3\n    /* \"#utility.yul\":4762:4783   */\n  or\n    /* \"#utility.yul\":4754:4783   */\n  swap1\n  pop\n    /* \"#utility.yul\":4494:4789   */\n  swap3\n  swap2\n  pop\n  pop\n  jump\t// out\n    /* \"#utility.yul\":4794:6189   */\ntag_14:\n    /* \"#utility.yul\":4911:4948   */\n  tag_157\n    /* \"#utility.yul\":4944:4947   */\n  dup3\n    /* \"#utility.yul\":4911:4948   */\n  tag_68\n  jump\t// in\ntag_157:\n    /* \"#utility.yul\":5013:5031   */\n  0xffffffffffffffff\n    /* \"#utility.yul\":5005:5011   */\n  dup2\n    /* \"#utility.yul\":5002:5032   */\n  gt\n    /* \"#utility.yul\":4999:5055   */\n  iszero\n  tag_158\n  jumpi\n    /* \"#utility.yul\":5035:5053   */\n  tag_159\n  tag_69\n  jump\t// in\ntag_159:\n    /* \"#utility.yul\":4999:5055   */\ntag_158:\n    /* \"#utility.yul\":5079:5117   */\n  tag_160\n    /* \"#utility.yul\":5111:5115   */\n  dup3\n    /* \"#utility.yul\":5105:5116   */\n  sload\n    /* \"#utility.yul\":5079:5117   */\n  tag_71\n  jump\t// in\ntag_160:\n    /* \"#utility.yul\":5164:5231   */\n  tag_161\n    /* \"#utility.yul\":5224:5230   */\n  dup3\n    /* \"#utility.yul\":5216:5222   */\n  dup3\n    /* \"#utility.yul\":5210:5214   */\n  dup6\n    /* \"#utility.yul\":5164:5231   */\n  tag_83\n  jump\t// in\ntag_161:\n    /* \"#utility.yul\":5258:5259   */\n  0x00\n    /* \"#utility.yul\":5282:5286   */\n  0x20\n    /* \"#utility.yul\":5269:5286   */\n  swap1\n  pop\n    /* \"#utility.yul\":5314:5316   */\n  0x1f\n    /* \"#utility.yul\":5306:5312   */\n  dup4\n    /* \"#utility.yul\":5303:5317   */\n  gt\n    /* \"#utility.yul\":5331:5332   */\n  0x01\n    /* \"#utility.yul\":5326:5944   */\n  dup2\n  eq\n  tag_163\n  jumpi\n    /* \"#utility.yul\":5988:5989   */\n  0x00\n    /* \"#utility.yul\":6005:6011   */\n  dup5\n    /* \"#utility.yul\":6002:6079   */\n  iszero\n  tag_164\n  jumpi\n    /* \"#utility.yul\":6054:6063   */\n  dup3\n    /* \"#utility.yul\":6049:6052   */\n  dup8\n    /* \"#utility.yul\":6045:6064   */\n  add\n    /* \"#utility.yul\":6039:6065   */\n  mload\n    /* \"#utility.yul\":6030:6065   */\n  swap1\n  pop\n    /* \"#utility.yul\":6002:6079   */\ntag_164:\n    /* \"#utility.yul\":6105:6172   */\n  tag_165\n    /* \"#utility.yul\":6165:6171   */\n  dup6\n    /* \"#utility.yul\":6158:6163   */\n  dup3\n    /* \"#utility.yul\":6105:6172   */\n  tag_86\n  jump\t// in\ntag_165:\n    /* \"#utility.yul\":6099:6103   */\n  dup7\n    /* \"#utility.yul\":6092:6173   */\n  sstore\n    /* \"#utility.yul\":5961:6183   */\n  pop\n    /* \"#utility.yul\":5296:6183   */\n  jump(tag_162)\n    /* \"#utility.yul\":5326:5944   */\ntag_163:\n    /* \"#utility.yul\":5378:5382   */\n  0x1f\n    /* \"#utility.yul\":5374:5383   */\n  not\n    /* \"#utility.yul\":5366:5372   */\n  dup5\n    /* \"#utility.yul\":5362:5384   */\n  and\n    /* \"#utility.yul\":5412:5449   */\n  tag_166\n    /* \"#utility.yul\":5444:5448   */\n  dup7\n    /* \"#utility.yul\":5412:5449   */\n  tag_72\n  jump\t// in\ntag_166:\n    /* \"#utility.yul\":5471:5472   */\n  0x00\n    /* \"#utility.yul\":5485:5693   */\ntag_167:\n    /* \"#utility.yul\":5499:5506   */\n  dup3\n    /* \"#utility.yul\":5496:5497   */\n  dup2\n    /* \"#utility.yul\":5493:5507   */\n  lt\n    /* \"#utility.yul\":5485:5693   */\n  iszero\n  tag_169\n  jumpi\n    /* \"#utility.yul\":5578:5587   */\n  dup5\n    /* \"#utility.yul\":5573:5576   */\n  dup10\n    /* \"#utility.yul\":5569:5588   */\n  add\n    /* \"#utility.yul\":5563:5589   */\n  mload\n    /* \"#utility.yul\":5555:5561   */\n  dup3\n    /* \"#utility.yul\":5548:5590   */\n  sstore\n    /* \"#utility.yul\":5629:5630   */\n  0x01\n    /* \"#utility.yul\":5621:5627   */\n  dup3\n    /* \"#utility.yul\":5617:5631   */\n  add\n    /* \"#utility.yul\":5607:5631   */\n  swap2\n  pop\n    /* \"#utility.yul\":5676:5678   */\n  0x20\n    /* \"#utility.yul\":5665:5674   */\n  dup6\n    /* \"#utility.yul\":5661:5679   */\n  add\n    /* \"#utility.yul\":5648:5679   */\n  swap5\n  pop\n    /* \"#utility.yul\":5522:5526   */\n  0x20\n    /* \"#utility.yul\":5519:5520   */\n  dup2\n    /* \"#utility.yul\":5515:5527   */\n  add\n    /* \"#utility.yul\":5510:5527   */\n  swap1\n  pop\n    /* \"#utility.yul\":5485:5693   */\n  jump(tag_167)\ntag_169:\n    /* \"#utility.yul\":5721:5727   */\n  dup7\n    /* \"#utility.yul\":5712:5719   */\n  dup4\n    /* \"#utility.yul\":5709:5728   */\n  lt\n    /* \"#utility.yul\":5706:5885   */\n  iszero\n  tag_170\n  jumpi\n    /* \"#utility.yul\":5779:5788   */\n  dup5\n    /* \"#utility.yul\":5774:5777   */\n  dup10\n    /* \"#utility.yul\":5770:5789   */\n  add\n    /* \"#utility.yul\":5764:5790   */\n  mload\n    /* \"#utility.yul\":5822:5870   */\n  tag_171\n    /* \"#utility.yul\":5864:5868   */\n  0x1f\n    /* \"#utility.yul\":5856:5862   */\n  dup10\n    /* \"#utility.yul\":5852:5869   */\n  and\n    /* \"#utility.yul\":5841:5850   */\n  dup3\n    /* \"#utility.yul\":5822:5870   */\n  tag_85\n  jump\t// in\ntag_171:\n    /* \"#utility.yul\":5814:5820   */\n  dup4\n    /* \"#utility.yul\":5807:5871   */\n  sstore\n    /* \"#utility.yul\":5729:5885   */\n  pop\n    /* \"#utility.yul\":5706:5885   */\ntag_170:\n    /* \"#utility.yul\":5931:5932   */\n  0x01\n    /* \"#utility.yul\":5927:5928   */\n  0x02\n    /* \"#utility.yul\":5919:5925   */\n  dup9\n    /* \"#utility.yul\":5915:5929   */\n  mul\n    /* \"#utility.yul\":5911:5933   */\n  add\n    /* \"#utility.yul\":5905:5909   */\n  dup9\n    /* \"#utility.yul\":5898:5934   */\n  sstore\n    /* \"#utility.yul\":5333:5944   */\n  pop\n  pop\n  pop\n    /* \"#utility.yul\":5296:6183   */\ntag_162:\n  pop\n    /* \"#utility.yul\":4886:6189   */\n  pop\n  pop\n  pop\n    /* \"#utility.yul\":4794:6189   */\n  pop\n  pop\n  jump\t// out\n    /* \"#utility.yul\":6195:6364   */\ntag_87:\n    /* \"#utility.yul\":6279:6290   */\n  0x00\n    /* \"#utility.yul\":6313:6319   */\n  dup3\n    /* \"#utility.yul\":6308:6311   */\n  dup3\n    /* \"#utility.yul\":6301:6320   */\n  mstore\n    /* \"#utility.yul\":6353:6357   */\n  0x20\n    /* \"#utility.yul\":6348:6351   */\n  dup3\n    /* \"#utility.yul\":6344:6358   */\n  add\n    /* \"#utility.yul\":6329:6358   */\n  swap1\n  pop\n    /* \"#utility.yul\":6195:6364   */\n  swap3\n  swap2\n  pop\n  pop\n  jump\t// out\n    /* \"#utility.yul\":6370:6551   */\ntag_88:\n    /* \"#utility.yul\":6510:6543   */\n  0x45524332303a206d696e7420746f20746865207a65726f206164647265737300\n    /* \"#utility.yul\":6506:6507   */\n  0x00\n    /* \"#utility.yul\":6498:6504   */\n  dup3\n    /* \"#utility.yul\":6494:6508   */\n  add\n    /* \"#utility.yul\":6487:6544   */\n  mstore\n    /* \"#utility.yul\":6370:6551   */\n  pop\n  jump\t// out\n    /* \"#utility.yul\":6557:6923   */\ntag_89:\n    /* \"#utility.yul\":6699:6702   */\n  0x00\n    /* \"#utility.yul\":6720:6787   */\n  tag_175\n    /* \"#utility.yul\":6784:6786   */\n  0x1f\n    /* \"#utility.yul\":6779:6782   */\n  dup4\n    /* \"#utility.yul\":6720:6787   */\n  tag_87\n  jump\t// in\ntag_175:\n    /* \"#utility.yul\":6713:6787   */\n  swap2\n  pop\n    /* \"#utility.yul\":6796:6889   */\n  tag_176\n    /* \"#utility.yul\":6885:6888   */\n  dup3\n    /* \"#utility.yul\":6796:6889   */\n  tag_88\n  jump\t// in\ntag_176:\n    /* \"#utility.yul\":6914:6916   */\n  0x20\n    /* \"#utility.yul\":6909:6912   */\n  dup3\n    /* \"#utility.yul\":6905:6917   */\n  add\n    /* \"#utility.yul\":6898:6917   */\n  swap1\n  pop\n    /* \"#utility.yul\":6557:6923   */\n  swap2\n  swap1\n  pop\n  jump\t// out\n    /* \"#utility.yul\":6929:7348   */\ntag_25:\n    /* \"#utility.yul\":7095:7099   */\n  0x00\n    /* \"#utility.yul\":7133:7135   */\n  0x20\n    /* \"#utility.yul\":7122:7131   */\n  dup3\n    /* \"#utility.yul\":7118:7136   */\n  add\n    /* \"#utility.yul\":7110:7136   */\n  swap1\n  pop\n    /* \"#utility.yul\":7182:7191   */\n  dup2\n    /* \"#utility.yul\":7176:7180   */\n  dup2\n    /* \"#utility.yul\":7172:7192   */\n  sub\n    /* \"#utility.yul\":7168:7169   */\n  0x00\n    /* \"#utility.yul\":7157:7166   */\n  dup4\n    /* \"#utility.yul\":7153:7170   */\n  add\n    /* \"#utility.yul\":7146:7193   */\n  mstore\n    /* \"#utility.yul\":7210:7341   */\n  tag_178\n    /* \"#utility.yul\":7336:7340   */\n  dup2\n    /* \"#utility.yul\":7210:7341   */\n  tag_89\n  jump\t// in\ntag_178:\n    /* \"#utility.yul\":7202:7341   */\n  swap1\n  pop\n    /* \"#utility.yul\":6929:7348   */\n  swap2\n  swap1\n  pop\n  jump\t// out\n    /* \"#utility.yul\":7354:7534   */\ntag_90:\n    /* \"#utility.yul\":7402:7479   */\n  0x4e487b7100000000000000000000000000000000000000000000000000000000\n    /* \"#utility.yul\":7399:7400   */\n  0x00\n    /* \"#utility.yul\":7392:7480   */\n  mstore\n    /* \"#utility.yul\":7499:7503   */\n  0x11\n    /* \"#utility.yul\":7496:7497   */\n  0x04\n    /* \"#utility.yul\":7489:7504   */\n  mstore\n    /* \"#utility.yul\":7523:7527   */\n  0x24\n    /* \"#utility.yul\":7520:7521   */\n  0x00\n    /* \"#utility.yul\":7513:7528   */\n  revert\n    /* \"#utility.yul\":7540:7731   */\ntag_29:\n    /* \"#utility.yul\":7580:7583   */\n  0x00\n    /* \"#utility.yul\":7599:7619   */\n  tag_181\n    /* \"#utility.yul\":7617:7618   */\n  dup3\n    /* \"#utility.yul\":7599:7619   */\n  tag_65\n  jump\t// in\ntag_181:\n    /* \"#utility.yul\":7594:7619   */\n  swap2\n  pop\n    /* \"#utility.yul\":7633:7653   */\n  tag_182\n    /* \"#utility.yul\":7651:7652   */\n  dup4\n    /* \"#utility.yul\":7633:7653   */\n  tag_65\n  jump\t// in\ntag_182:\n    /* \"#utility.yul\":7628:7653   */\n  swap3\n  pop\n    /* \"#utility.yul\":7676:7677   */\n  dup3\n    /* \"#utility.yul\":7673:7674   */\n  dup3\n    /* \"#utility.yul\":7669:7678   */\n  add\n    /* \"#utility.yul\":7662:7678   */\n  swap1\n  pop\n    /* \"#utility.yul\":7697:7700   */\n  dup1\n    /* \"#utility.yul\":7694:7695   */\n  dup3\n    /* \"#utility.yul\":7691:7701   */\n  gt\n    /* \"#utility.yul\":7688:7724   */\n  iszero\n  tag_183\n  jumpi\n    /* \"#utility.yul\":7704:7722   */\n  tag_184\n  tag_90\n  jump\t// in\ntag_184:\n    /* \"#utility.yul\":7688:7724   */\ntag_183:\n    /* \"#utility.yul\":7540:7731   */\n  swap3\n  swap2\n  pop\n  pop\n  jump\t// out\n    /* \"#utility.yul\":7737:7855   */\ntag_91:\n    /* \"#utility.yul\":7824:7848   */\n  tag_186\n    /* \"#utility.yul\":7842:7847   */\n  dup2\n    /* \"#utility.yul\":7824:7848   */\n  tag_65\n  jump\t// in\ntag_186:\n    /* \"#utility.yul\":7819:7822   */\n  dup3\n    /* \"#utility.yul\":7812:7849   */\n  mstore\n    /* \"#utility.yul\":7737:7855   */\n  pop\n  pop\n  jump\t// out\n    /* \"#utility.yul\":7861:8083   */\ntag_32:\n    /* \"#utility.yul\":7954:7958   */\n  0x00\n    /* \"#utility.yul\":7992:7994   */\n  0x20\n    /* \"#utility.yul\":7981:7990   */\n  dup3\n    /* \"#utility.yul\":7977:7995   */\n  add\n    /* \"#utility.yul\":7969:7995   */\n  swap1\n  pop\n    /* \"#utility.yul\":8005:8076   */\n  tag_188\n    /* \"#utility.yul\":8073:8074   */\n  0x00\n    /* \"#utility.yul\":8062:8071   */\n  dup4\n    /* \"#utility.yul\":8058:8075   */\n  add\n    /* \"#utility.yul\":8049:8055   */\n  dup5\n    /* \"#utility.yul\":8005:8076   */\n  tag_91\n  jump\t// in\ntag_188:\n    /* \"#utility.yul\":7861:8083   */\n  swap3\n  swap2\n  pop\n  pop\n  jump\t// out\n    /* \"#utility.yul\":8089:8250   */\ntag_92:\n    /* \"#utility.yul\":8229:8242   */\n  0x426c61636b6c6973746564000000000000000000000000000000000000000000\n    /* \"#utility.yul\":8225:8226   */\n  0x00\n    /* \"#utility.yul\":8217:8223   */\n  dup3\n    /* \"#utility.yul\":8213:8227   */\n  add\n    /* \"#utility.yul\":8206:8243   */\n  mstore\n    /* \"#utility.yul\":8089:8250   */\n  pop\n  jump\t// out\n    /* \"#utility.yul\":8256:8622   */\ntag_93:\n    /* \"#utility.yul\":8398:8401   */\n  0x00\n    /* \"#utility.yul\":8419:8486   */\n  tag_191\n    /* \"#utility.yul\":8483:8485   */\n  0x0b\n    /* \"#utility.yul\":8478:8481   */\n  dup4\n    /* \"#utility.yul\":8419:8486   */\n  tag_87\n  jump\t// in\ntag_191:\n    /* \"#utility.yul\":8412:8486   */\n  swap2\n  pop\n    /* \"#utility.yul\":8495:8588   */\n  tag_192\n    /* \"#utility.yul\":8584:8587   */\n  dup3\n    /* \"#utility.yul\":8495:8588   */\n  tag_92\n  jump\t// in\ntag_192:\n    /* \"#utility.yul\":8613:8615   */\n  0x20\n    /* \"#utility.yul\":8608:8611   */\n  dup3\n    /* \"#utility.yul\":8604:8616   */\n  add\n    /* \"#utility.yul\":8597:8616   */\n  swap1\n  pop\n    /* \"#utility.yul\":8256:8622   */\n  swap2\n  swap1\n  pop\n  jump\t// out\n    /* \"#utility.yul\":8628:9047   */\ntag_39:\n    /* \"#utility.yul\":8794:8798   */\n  0x00\n    /* \"#utility.yul\":8832:8834   */\n  0x20\n    /* \"#utility.yul\":8821:8830   */\n  dup3\n    /* \"#utility.yul\":8817:8835   */\n  add\n    /* \"#utility.yul\":8809:8835   */\n  swap1\n  pop\n    /* \"#utility.yul\":8881:8890   */\n  dup2\n    /* \"#utility.yul\":8875:8879   */\n  dup2\n    /* \"#utility.yul\":8871:8891   */\n  sub\n    /* \"#utility.yul\":8867:8868   */\n  0x00\n    /* \"#utility.yul\":8856:8865   */\n  dup4\n    /* \"#utility.yul\":8852:8869   */\n  add\n    /* \"#utility.yul\":8845:8892   */\n  mstore\n    /* \"#utility.yul\":8909:9040   */\n  tag_194\n    /* \"#utility.yul\":9035:9039   */\n  dup2\n    /* \"#utility.yul\":8909:9040   */\n  tag_93\n  jump\t// in\ntag_194:\n    /* \"#utility.yul\":8901:9040   */\n  swap1\n  pop\n    /* \"#utility.yul\":8628:9047   */\n  swap2\n  swap1\n  pop\n  jump\t// out\n    /* \"#utility.yul\":9053:9225   */\ntag_94:\n    /* \"#utility.yul\":9193:9217   */\n  0x74726164696e67206973206e6f74207374617274656400000000000000000000\n    /* \"#utility.yul\":9189:9190   */\n  0x00\n    /* \"#utility.yul\":9181:9187   */\n  dup3\n    /* \"#utility.yul\":9177:9191   */\n  add\n    /* \"#utility.yul\":9170:9218   */\n  mstore\n    /* \"#utility.yul\":9053:9225   */\n  pop\n  jump\t// out\n    /* \"#utility.yul\":9231:9597   */\ntag_95:\n    /* \"#utility.yul\":9373:9376   */\n  0x00\n    /* \"#utility.yul\":9394:9461   */\n  tag_197\n    /* \"#utility.yul\":9458:9460   */\n  0x16\n    /* \"#utility.yul\":9453:9456   */\n  dup4\n    /* \"#utility.yul\":9394:9461   */\n  tag_87\n  jump\t// in\ntag_197:\n    /* \"#utility.yul\":9387:9461   */\n  swap2\n  pop\n    /* \"#utility.yul\":9470:9563   */\n  tag_198\n    /* \"#utility.yul\":9559:9562   */\n  dup3\n    /* \"#utility.yul\":9470:9563   */\n  tag_94\n  jump\t// in\ntag_198:\n    /* \"#utility.yul\":9588:9590   */\n  0x20\n    /* \"#utility.yul\":9583:9586   */\n  dup3\n    /* \"#utility.yul\":9579:9591   */\n  add\n    /* \"#utility.yul\":9572:9591   */\n  swap1\n  pop\n    /* \"#utility.yul\":9231:9597   */\n  swap2\n  swap1\n  pop\n  jump\t// out\n    /* \"#utility.yul\":9603:10022   */\ntag_47:\n    /* \"#utility.yul\":9769:9773   */\n  0x00\n    /* \"#utility.yul\":9807:9809   */\n  0x20\n    /* \"#utility.yul\":9796:9805   */\n  dup3\n    /* \"#utility.yul\":9792:9810   */\n  add\n    /* \"#utility.yul\":9784:9810   */\n  swap1\n  pop\n    /* \"#utility.yul\":9856:9865   */\n  dup2\n    /* \"#utility.yul\":9850:9854   */\n  dup2\n    /* \"#utility.yul\":9846:9866   */\n  sub\n    /* \"#utility.yul\":9842:9843   */\n  0x00\n    /* \"#utility.yul\":9831:9840   */\n  dup4\n    /* \"#utility.yul\":9827:9844   */\n  add\n    /* \"#utility.yul\":9820:9867   */\n  mstore\n    /* \"#utility.yul\":9884:10015   */\n  tag_200\n    /* \"#utility.yul\":10010:10014   */\n  dup2\n    /* \"#utility.yul\":9884:10015   */\n  tag_95\n  jump\t// in\ntag_200:\n    /* \"#utility.yul\":9876:10015   */\n  swap1\n  pop\n    /* \"#utility.yul\":9603:10022   */\n  swap2\n  swap1\n  pop\n  jump\t// out\n    /* \"#utility.yul\":10028:10184   */\ntag_96:\n    /* \"#utility.yul\":10168:10176   */\n  0x466f726269640000000000000000000000000000000000000000000000000000\n    /* \"#utility.yul\":10164:10165   */\n  0x00\n    /* \"#utility.yul\":10156:10162   */\n  dup3\n    /* \"#utility.yul\":10152:10166   */\n  add\n    /* \"#utility.yul\":10145:10177   */\n  mstore\n    /* \"#utility.yul\":10028:10184   */\n  pop\n  jump\t// out\n    /* \"#utility.yul\":10190:10555   */\ntag_97:\n    /* \"#utility.yul\":10332:10335   */\n  0x00\n    /* \"#utility.yul\":10353:10419   */\n  tag_203\n    /* \"#utility.yul\":10417:10418   */\n  0x06\n    /* \"#utility.yul\":10412:10415   */\n  dup4\n    /* \"#utility.yul\":10353:10419   */\n  tag_87\n  jump\t// in\ntag_203:\n    /* \"#utility.yul\":10346:10419   */\n  swap2\n  pop\n    /* \"#utility.yul\":10428:10521   */\n  tag_204\n    /* \"#utility.yul\":10517:10520   */\n  dup3\n    /* \"#utility.yul\":10428:10521   */\n  tag_96\n  jump\t// in\ntag_204:\n    /* \"#utility.yul\":10546:10548   */\n  0x20\n    /* \"#utility.yul\":10541:10544   */\n  dup3\n    /* \"#utility.yul\":10537:10549   */\n  add\n    /* \"#utility.yul\":10530:10549   */\n  swap1\n  pop\n    /* \"#utility.yul\":10190:10555   */\n  swap2\n  swap1\n  pop\n  jump\t// out\n    /* \"#utility.yul\":10561:10980   */\ntag_58:\n    /* \"#utility.yul\":10727:10731   */\n  0x00\n    /* \"#utility.yul\":10765:10767   */\n  0x20\n    /* \"#utility.yul\":10754:10763   */\n  dup3\n    /* \"#utility.yul\":10750:10768   */\n  add\n    /* \"#utility.yul\":10742:10768   */\n  swap1\n  pop\n    /* \"#utility.yul\":10814:10823   */\n  dup2\n    /* \"#utility.yul\":10808:10812   */\n  dup2\n    /* \"#utility.yul\":10804:10824   */\n  sub\n    /* \"#utility.yul\":10800:10801   */\n  0x00\n    /* \"#utility.yul\":10789:10798   */\n  dup4\n    /* \"#utility.yul\":10785:10802   */\n  add\n    /* \"#utility.yul\":10778:10825   */\n  mstore\n    /* \"#utility.yul\":10842:10973   */\n  tag_206\n    /* \"#utility.yul\":10968:10972   */\n  dup2\n    /* \"#utility.yul\":10842:10973   */\n  tag_97\n  jump\t// in\ntag_206:\n    /* \"#utility.yul\":10834:10973   */\n  swap1\n  pop\n    /* \"#utility.yul\":10561:10980   */\n  swap2\n  swap1\n  pop\n  jump\t// out\n    /* \"test-erc-2.sol\":18821:20238  contract PepeToken is Ownable, ERC20 {... */\ntag_19:\n  dataSize(sub_0)\n  dup1\n  dataOffset(sub_0)\n  0x00\n  codecopy\n  0x00\n  return\nstop\n\nsub_0: assembly {\n        /* \"test-erc-2.sol\":18821:20238  contract PepeToken is Ownable, ERC20 {... */\n      mstore(0x40, 0x80)\n      callvalue\n      dup1\n      iszero\n      tag_1\n      jumpi\n      revert(0x00, 0x00)\n    tag_1:\n      pop\n      jumpi(tag_2, lt(calldatasize, 0x04))\n      shr(0xe0, calldataload(0x00))\n      dup1\n      0x49bd5a5e\n      gt\n      tag_25\n      jumpi\n      dup1\n      0x8da5cb5b\n      gt\n      tag_26\n      jumpi\n      dup1\n      0x8da5cb5b\n      eq\n      tag_19\n      jumpi\n      dup1\n      0x95d89b41\n      eq\n      tag_20\n      jumpi\n      dup1\n      0xa457c2d7\n      eq\n      tag_21\n      jumpi\n      dup1\n      0xa9059cbb\n      eq\n      tag_22\n      jumpi\n      dup1\n      0xdd62ed3e\n      eq\n      tag_23\n      jumpi\n      dup1\n      0xf2fde38b\n      eq\n      tag_24\n      jumpi\n      jump(tag_2)\n    tag_26:\n      dup1\n      0x49bd5a5e\n      eq\n      tag_14\n      jumpi\n      dup1\n      0x70a08231\n      eq\n      tag_15\n      jumpi\n      dup1\n      0x715018a6\n      eq\n      tag_16\n      jumpi\n      dup1\n      0x860a32ec\n      eq\n      tag_17\n      jumpi\n      dup1\n      0x89f9a1d3\n      eq\n      tag_18\n      jumpi\n      jump(tag_2)\n    tag_25:\n      dup1\n      0x23b872dd\n      gt\n      tag_27\n      jumpi\n      dup1\n      0x23b872dd\n      eq\n      tag_8\n      jumpi\n      dup1\n      0x313ce567\n      eq\n      tag_9\n      jumpi\n      dup1\n      0x39509351\n      eq\n      tag_10\n      jumpi\n      dup1\n      0x3aa633aa\n      eq\n      tag_11\n      jumpi\n      dup1\n      0x404e5129\n      eq\n      tag_12\n      jumpi\n      dup1\n      0x42966c68\n      eq\n      tag_13\n      jumpi\n      jump(tag_2)\n    tag_27:\n      dup1\n      0x06fdde03\n      eq\n      tag_3\n      jumpi\n      dup1\n      0x095ea7b3\n      eq\n      tag_4\n      jumpi\n      dup1\n      0x16c02129\n      eq\n      tag_5\n      jumpi\n      dup1\n      0x18160ddd\n      eq\n      tag_6\n      jumpi\n      dup1\n      0x1ab99e12\n      eq\n      tag_7\n      jumpi\n    tag_2:\n      revert(0x00, 0x00)\n        /* \"test-erc-2.sol\":9094:9192  function name() public view virtual override returns (string memory) {... */\n    tag_3:\n      tag_28\n      tag_29\n      jump\t// in\n    tag_28:\n      mload(0x40)\n      tag_30\n      swap2\n      swap1\n      tag_31\n      jump\t// in\n    tag_30:\n      mload(0x40)\n      dup1\n      swap2\n      sub\n      swap1\n      return\n        /* \"test-erc-2.sol\":11191:11357  function approve(address spender, uint256 amount) public virtual override returns (bool) {... */\n    tag_4:\n      tag_32\n      0x04\n      dup1\n      calldatasize\n      sub\n      dup2\n      add\n      swap1\n      tag_33\n      swap2\n      swap1\n      tag_34\n      jump\t// in\n    tag_33:\n      tag_35\n      jump\t// in\n    tag_32:\n      mload(0x40)\n      tag_36\n      swap2\n      swap1\n      tag_37\n      jump\t// in\n    tag_36:\n      mload(0x40)\n      dup1\n      swap2\n      sub\n      swap1\n      return\n        /* \"test-erc-2.sol\":18997:19039  mapping(address => bool) public blacklists */\n    tag_5:\n      tag_38\n      0x04\n      dup1\n      calldatasize\n      sub\n      dup2\n      add\n      swap1\n      tag_39\n      swap2\n      swap1\n      tag_40\n      jump\t// in\n    tag_39:\n      tag_41\n      jump\t// in\n    tag_38:\n      mload(0x40)\n      tag_42\n      swap2\n      swap1\n      tag_37\n      jump\t// in\n    tag_42:\n      mload(0x40)\n      dup1\n      swap2\n      sub\n      swap1\n      return\n        /* \"test-erc-2.sol\":10182:10288  function totalSupply() public view virtual override returns (uint256) {... */\n    tag_6:\n      tag_43\n      tag_44\n      jump\t// in\n    tag_43:\n      mload(0x40)\n      tag_45\n      swap2\n      swap1\n      tag_46\n      jump\t// in\n    tag_45:\n      mload(0x40)\n      dup1\n      swap2\n      sub\n      swap1\n      return\n        /* \"test-erc-2.sol\":18926:18957  uint256 public minHoldingAmount */\n    tag_7:\n      tag_47\n      tag_48\n      jump\t// in\n    tag_47:\n      mload(0x40)\n      tag_49\n      swap2\n      swap1\n      tag_46\n      jump\t// in\n    tag_49:\n      mload(0x40)\n      dup1\n      swap2\n      sub\n      swap1\n      return\n        /* \"test-erc-2.sol\":11824:12302  function transferFrom(... */\n    tag_8:\n      tag_50\n      0x04\n      dup1\n      calldatasize\n      sub\n      dup2\n      add\n      swap1\n      tag_51\n      swap2\n      swap1\n      tag_52\n      jump\t// in\n    tag_51:\n      tag_53\n      jump\t// in\n    tag_50:\n      mload(0x40)\n      tag_54\n      swap2\n      swap1\n      tag_37\n      jump\t// in\n    tag_54:\n      mload(0x40)\n      dup1\n      swap2\n      sub\n      swap1\n      return\n        /* \"test-erc-2.sol\":10031:10122  function decimals() public view virtual override returns (uint8) {... */\n    tag_9:\n      tag_55\n      tag_56\n      jump\t// in\n    tag_55:\n      mload(0x40)\n      tag_57\n      swap2\n      swap1\n      tag_58\n      jump\t// in\n    tag_57:\n      mload(0x40)\n      dup1\n      swap2\n      sub\n      swap1\n      return\n        /* \"test-erc-2.sol\":12697:12909  function increaseAllowance(address spender, uint256 addedValue) public virtual returns (bool) {... */\n    tag_10:\n      tag_59\n      0x04\n      dup1\n      calldatasize\n      sub\n      dup2\n      add\n      swap1\n      tag_60\n      swap2\n      swap1\n      tag_34\n      jump\t// in\n    tag_60:\n      tag_61\n      jump\t// in\n    tag_59:\n      mload(0x40)\n      tag_62\n      swap2\n      swap1\n      tag_37\n      jump\t// in\n    tag_62:\n      mload(0x40)\n      dup1\n      swap2\n      sub\n      swap1\n      return\n        /* \"test-erc-2.sol\":19297:19593  function setRule(bool _limited, address _uniswapV2Pair, uint256 _maxHoldingAmount, uint256 _minHoldingAmount) external onlyOwner {... */\n    tag_11:\n      tag_63\n      0x04\n      dup1\n      calldatasize\n      sub\n      dup2\n      add\n      swap1\n      tag_64\n      swap2\n      swap1\n      tag_65\n      jump\t// in\n    tag_64:\n      tag_66\n      jump\t// in\n    tag_63:\n      stop\n        /* \"test-erc-2.sol\":19158:19291  function blacklist(address _address, bool _isBlacklisting) external onlyOwner {... */\n    tag_12:\n      tag_67\n      0x04\n      dup1\n      calldatasize\n      sub\n      dup2\n      add\n      swap1\n      tag_68\n      swap2\n      swap1\n      tag_69\n      jump\t// in\n    tag_68:\n      tag_70\n      jump\t// in\n    tag_67:\n      stop\n        /* \"test-erc-2.sol\":20157:20236  function burn(uint256 value) external {... */\n    tag_13:\n      tag_71\n      0x04\n      dup1\n      calldatasize\n      sub\n      dup2\n      add\n      swap1\n      tag_72\n      swap2\n      swap1\n      tag_73\n      jump\t// in\n    tag_72:\n      tag_74\n      jump\t// in\n    tag_71:\n      stop\n        /* \"test-erc-2.sol\":18963:18991  address public uniswapV2Pair */\n    tag_14:\n      tag_75\n      tag_76\n      jump\t// in\n    tag_75:\n      mload(0x40)\n      tag_77\n      swap2\n      swap1\n      tag_78\n      jump\t// in\n    tag_77:\n      mload(0x40)\n      dup1\n      swap2\n      sub\n      swap1\n      return\n        /* \"test-erc-2.sol\":10346:10471  function balanceOf(address account) public view virtual override returns (uint256) {... */\n    tag_15:\n      tag_79\n      0x04\n      dup1\n      calldatasize\n      sub\n      dup2\n      add\n      swap1\n      tag_80\n      swap2\n      swap1\n      tag_40\n      jump\t// in\n    tag_80:\n      tag_81\n      jump\t// in\n    tag_79:\n      mload(0x40)\n      tag_82\n      swap2\n      swap1\n      tag_46\n      jump\t// in\n    tag_82:\n      mload(0x40)\n      dup1\n      swap2\n      sub\n      swap1\n      return\n        /* \"test-erc-2.sol\":2697:2798  function renounceOwnership() public virtual onlyOwner {... */\n    tag_16:\n      tag_83\n      tag_84\n      jump\t// in\n    tag_83:\n      stop\n        /* \"test-erc-2.sol\":18864:18883  bool public limited */\n    tag_17:\n      tag_85\n      tag_86\n      jump\t// in\n    tag_85:\n      mload(0x40)\n      tag_87\n      swap2\n      swap1\n      tag_37\n      jump\t// in\n    tag_87:\n      mload(0x40)\n      dup1\n      swap2\n      sub\n      swap1\n      return\n        /* \"test-erc-2.sol\":18889:18920  uint256 public maxHoldingAmount */\n    tag_18:\n      tag_88\n      tag_89\n      jump\t// in\n    tag_88:\n      mload(0x40)\n      tag_90\n      swap2\n      swap1\n      tag_46\n      jump\t// in\n    tag_90:\n      mload(0x40)\n      dup1\n      swap2\n      sub\n      swap1\n      return\n        /* \"test-erc-2.sol\":2065:2150  function owner() public view virtual returns (address) {... */\n    tag_19:\n      tag_91\n      tag_92\n      jump\t// in\n    tag_91:\n      mload(0x40)\n      tag_93\n      swap2\n      swap1\n      tag_78\n      jump\t// in\n    tag_93:\n      mload(0x40)\n      dup1\n      swap2\n      sub\n      swap1\n      return\n        /* \"test-erc-2.sol\":9305:9407  function symbol() public view virtual override returns (string memory) {... */\n    tag_20:\n      tag_94\n      tag_95\n      jump\t// in\n    tag_94:\n      mload(0x40)\n      tag_96\n      swap2\n      swap1\n      tag_31\n      jump\t// in\n    tag_96:\n      mload(0x40)\n      dup1\n      swap2\n      sub\n      swap1\n      return\n        /* \"test-erc-2.sol\":13396:13801  function decreaseAllowance(address spender, uint256 subtractedValue) public virtual returns (bool) {... */\n    tag_21:\n      tag_97\n      0x04\n      dup1\n      calldatasize\n      sub\n      dup2\n      add\n      swap1\n      tag_98\n      swap2\n      swap1\n      tag_34\n      jump\t// in\n    tag_98:\n      tag_99\n      jump\t// in\n    tag_97:\n      mload(0x40)\n      tag_100\n      swap2\n      swap1\n      tag_37\n      jump\t// in\n    tag_100:\n      mload(0x40)\n      dup1\n      swap2\n      sub\n      swap1\n      return\n        /* \"test-erc-2.sol\":10674:10846  function transfer(address recipient, uint256 amount) public virtual override returns (bool) {... */\n    tag_22:\n      tag_101\n      0x04\n      dup1\n      calldatasize\n      sub\n      dup2\n      add\n      swap1\n      tag_102\n      swap2\n      swap1\n      tag_34\n      jump\t// in\n    tag_102:\n      tag_103\n      jump\t// in\n    tag_101:\n      mload(0x40)\n      tag_104\n      swap2\n      swap1\n      tag_37\n      jump\t// in\n    tag_104:\n      mload(0x40)\n      dup1\n      swap2\n      sub\n      swap1\n      return\n        /* \"test-erc-2.sol\":10904:11053  function allowance(address owner, address spender) public view virtual override returns (uint256) {... */\n    tag_23:\n      tag_105\n      0x04\n      dup1\n      calldatasize\n      sub\n      dup2\n      add\n      swap1\n      tag_106\n      swap2\n      swap1\n      tag_107\n      jump\t// in\n    tag_106:\n      tag_108\n      jump\t// in\n    tag_105:\n      mload(0x40)\n      tag_109\n      swap2\n      swap1\n      tag_46\n      jump\t// in\n    tag_109:\n      mload(0x40)\n      dup1\n      swap2\n      sub\n      swap1\n      return\n        /* \"test-erc-2.sol\":2947:3145  function transferOwnership(address newOwner) public virtual onlyOwner {... */\n    tag_24:\n      tag_110\n      0x04\n      dup1\n      calldatasize\n      sub\n      dup2\n      add\n      swap1\n      tag_111\n      swap2\n      swap1\n      tag_40\n      jump\t// in\n    tag_111:\n      tag_112\n      jump\t// in\n    tag_110:\n      stop\n        /* \"test-erc-2.sol\":9094:9192  function name() public view virtual override returns (string memory) {... */\n    tag_29:\n        /* \"test-erc-2.sol\":9148:9161  string memory */\n      0x60\n        /* \"test-erc-2.sol\":9180:9185  _name */\n      0x04\n        /* \"test-erc-2.sol\":9173:9185  return _name */\n      dup1\n      sload\n      tag_114\n      swap1\n      tag_115\n      jump\t// in\n    tag_114:\n      dup1\n      0x1f\n      add\n      0x20\n      dup1\n      swap2\n      div\n      mul\n      0x20\n      add\n      mload(0x40)\n      swap1\n      dup2\n      add\n      0x40\n      mstore\n      dup1\n      swap3\n      swap2\n      swap1\n      dup2\n      dup2\n      mstore\n      0x20\n      add\n      dup3\n      dup1\n      sload\n      tag_116\n      swap1\n      tag_115\n      jump\t// in\n    tag_116:\n      dup1\n      iszero\n      tag_117\n      jumpi\n      dup1\n      0x1f\n      lt\n      tag_118\n      jumpi\n      0x0100\n      dup1\n      dup4\n      sload\n      div\n      mul\n      dup4\n      mstore\n      swap2\n      0x20\n      add\n      swap2\n      jump(tag_117)\n    tag_118:\n      dup3\n      add\n      swap2\n      swap1\n      0x00\n      mstore\n      keccak256(0x00, 0x20)\n      swap1\n    tag_119:\n      dup2\n      sload\n      dup2\n      mstore\n      swap1\n      0x01\n      add\n      swap1\n      0x20\n      add\n      dup1\n      dup4\n      gt\n      tag_119\n      jumpi\n      dup3\n      swap1\n      sub\n      0x1f\n      and\n      dup3\n      add\n      swap2\n    tag_117:\n      pop\n      pop\n      pop\n      pop\n      pop\n      swap1\n      pop\n        /* \"test-erc-2.sol\":9094:9192  function name() public view virtual override returns (string memory) {... */\n      swap1\n      jump\t// out\n        /* \"test-erc-2.sol\":11191:11357  function approve(address spender, uint256 amount) public virtual override returns (bool) {... */\n    tag_35:\n        /* \"test-erc-2.sol\":11274:11278  bool */\n      0x00\n        /* \"test-erc-2.sol\":11290:11329  _approve(_msgSender(), spender, amount) */\n      tag_121\n        /* \"test-erc-2.sol\":11299:11311  _msgSender() */\n      tag_122\n        /* \"test-erc-2.sol\":11299:11309  _msgSender */\n      tag_123\n        /* \"test-erc-2.sol\":11299:11311  _msgSender() */\n      jump\t// in\n    tag_122:\n        /* \"test-erc-2.sol\":11313:11320  spender */\n      dup5\n        /* \"test-erc-2.sol\":11322:11328  amount */\n      dup5\n        /* \"test-erc-2.sol\":11290:11298  _approve */\n      tag_124\n        /* \"test-erc-2.sol\":11290:11329  _approve(_msgSender(), spender, amount) */\n      jump\t// in\n    tag_121:\n        /* \"test-erc-2.sol\":11346:11350  true */\n      0x01\n        /* \"test-erc-2.sol\":11339:11350  return true */\n      swap1\n      pop\n        /* \"test-erc-2.sol\":11191:11357  function approve(address spender, uint256 amount) public virtual override returns (bool) {... */\n      swap3\n      swap2\n      pop\n      pop\n      jump\t// out\n        /* \"test-erc-2.sol\":18997:19039  mapping(address => bool) public blacklists */\n    tag_41:\n      mstore(0x20, 0x0a)\n      dup1\n      0x00\n      mstore\n      keccak256(0x00, 0x40)\n      0x00\n      swap2\n      pop\n      sload\n      swap1\n      0x0100\n      exp\n      swap1\n      div\n      0xff\n      and\n      dup2\n      jump\t// out\n        /* \"test-erc-2.sol\":10182:10288  function totalSupply() public view virtual override returns (uint256) {... */\n    tag_44:\n        /* \"test-erc-2.sol\":10243:10250  uint256 */\n      0x00\n        /* \"test-erc-2.sol\":10269:10281  _totalSupply */\n      sload(0x03)\n        /* \"test-erc-2.sol\":10262:10281  return _totalSupply */\n      swap1\n      pop\n        /* \"test-erc-2.sol\":10182:10288  function totalSupply() public view virtual override returns (uint256) {... */\n      swap1\n      jump\t// out\n        /* \"test-erc-2.sol\":18926:18957  uint256 public minHoldingAmount */\n    tag_48:\n      sload(0x08)\n      dup2\n      jump\t// out\n        /* \"test-erc-2.sol\":11824:12302  function transferFrom(... */\n    tag_53:\n        /* \"test-erc-2.sol\":11960:11964  bool */\n      0x00\n        /* \"test-erc-2.sol\":11976:12012  _transfer(sender, recipient, amount) */\n      tag_127\n        /* \"test-erc-2.sol\":11986:11992  sender */\n      dup5\n        /* \"test-erc-2.sol\":11994:12003  recipient */\n      dup5\n        /* \"test-erc-2.sol\":12005:12011  amount */\n      dup5\n        /* \"test-erc-2.sol\":11976:11985  _transfer */\n      tag_128\n        /* \"test-erc-2.sol\":11976:12012  _transfer(sender, recipient, amount) */\n      jump\t// in\n    tag_127:\n        /* \"test-erc-2.sol\":12023:12047  uint256 currentAllowance */\n      0x00\n        /* \"test-erc-2.sol\":12050:12061  _allowances */\n      0x02\n        /* \"test-erc-2.sol\":12050:12069  _allowances[sender] */\n      0x00\n        /* \"test-erc-2.sol\":12062:12068  sender */\n      dup7\n        /* \"test-erc-2.sol\":12050:12069  _allowances[sender] */\n      0xffffffffffffffffffffffffffffffffffffffff\n      and\n      0xffffffffffffffffffffffffffffffffffffffff\n      and\n      dup2\n      mstore\n      0x20\n      add\n      swap1\n      dup2\n      mstore\n      0x20\n      add\n      0x00\n      keccak256\n        /* \"test-erc-2.sol\":12050:12083  _allowances[sender][_msgSender()] */\n      0x00\n        /* \"test-erc-2.sol\":12070:12082  _msgSender() */\n      tag_129\n        /* \"test-erc-2.sol\":12070:12080  _msgSender */\n      tag_123\n        /* \"test-erc-2.sol\":12070:12082  _msgSender() */\n      jump\t// in\n    tag_129:\n        /* \"test-erc-2.sol\":12050:12083  _allowances[sender][_msgSender()] */\n      0xffffffffffffffffffffffffffffffffffffffff\n      and\n      0xffffffffffffffffffffffffffffffffffffffff\n      and\n      dup2\n      mstore\n      0x20\n      add\n      swap1\n      dup2\n      mstore\n      0x20\n      add\n      0x00\n      keccak256\n      sload\n        /* \"test-erc-2.sol\":12023:12083  uint256 currentAllowance = _allowances[sender][_msgSender()] */\n      swap1\n      pop\n        /* \"test-erc-2.sol\":12121:12127  amount */\n      dup3\n        /* \"test-erc-2.sol\":12101:12117  currentAllowance */\n      dup2\n        /* \"test-erc-2.sol\":12101:12127  currentAllowance >= amount */\n      lt\n      iszero\n        /* \"test-erc-2.sol\":12093:12172  require(currentAllowance >= amount, \"ERC20: transfer amount exceeds allowance\") */\n      tag_130\n      jumpi\n      mload(0x40)\n      0x08c379a000000000000000000000000000000000000000000000000000000000\n      dup2\n      mstore\n      0x04\n      add\n      tag_131\n      swap1\n      tag_132\n      jump\t// in\n    tag_131:\n      mload(0x40)\n      dup1\n      swap2\n      sub\n      swap1\n      revert\n    tag_130:\n        /* \"test-erc-2.sol\":12206:12263  _approve(sender, _msgSender(), currentAllowance - amount) */\n      tag_133\n        /* \"test-erc-2.sol\":12215:12221  sender */\n      dup6\n        /* \"test-erc-2.sol\":12223:12235  _msgSender() */\n      tag_134\n        /* \"test-erc-2.sol\":12223:12233  _msgSender */\n      tag_123\n        /* \"test-erc-2.sol\":12223:12235  _msgSender() */\n      jump\t// in\n    tag_134:\n        /* \"test-erc-2.sol\":12256:12262  amount */\n      dup6\n        /* \"test-erc-2.sol\":12237:12253  currentAllowance */\n      dup5\n        /* \"test-erc-2.sol\":12237:12262  currentAllowance - amount */\n      sub\n        /* \"test-erc-2.sol\":12206:12214  _approve */\n      tag_124\n        /* \"test-erc-2.sol\":12206:12263  _approve(sender, _msgSender(), currentAllowance - amount) */\n      jump\t// in\n    tag_133:\n        /* \"test-erc-2.sol\":12291:12295  true */\n      0x01\n        /* \"test-erc-2.sol\":12284:12295  return true */\n      swap2\n      pop\n      pop\n        /* \"test-erc-2.sol\":11824:12302  function transferFrom(... */\n      swap4\n      swap3\n      pop\n      pop\n      pop\n      jump\t// out\n        /* \"test-erc-2.sol\":10031:10122  function decimals() public view virtual override returns (uint8) {... */\n    tag_56:\n        /* \"test-erc-2.sol\":10089:10094  uint8 */\n      0x00\n        /* \"test-erc-2.sol\":10113:10115  18 */\n      0x12\n        /* \"test-erc-2.sol\":10106:10115  return 18 */\n      swap1\n      pop\n        /* \"test-erc-2.sol\":10031:10122  function decimals() public view virtual override returns (uint8) {... */\n      swap1\n      jump\t// out\n        /* \"test-erc-2.sol\":12697:12909  function increaseAllowance(address spender, uint256 addedValue) public virtual returns (bool) {... */\n    tag_61:\n        /* \"test-erc-2.sol\":12785:12789  bool */\n      0x00\n        /* \"test-erc-2.sol\":12801:12881  _approve(_msgSender(), spender, _allowances[_msgSender()][spender] + addedValue) */\n      tag_137\n        /* \"test-erc-2.sol\":12810:12822  _msgSender() */\n      tag_138\n        /* \"test-erc-2.sol\":12810:12820  _msgSender */\n      tag_123\n        /* \"test-erc-2.sol\":12810:12822  _msgSender() */\n      jump\t// in\n    tag_138:\n        /* \"test-erc-2.sol\":12824:12831  spender */\n      dup5\n        /* \"test-erc-2.sol\":12870:12880  addedValue */\n      dup5\n        /* \"test-erc-2.sol\":12833:12844  _allowances */\n      0x02\n        /* \"test-erc-2.sol\":12833:12858  _allowances[_msgSender()] */\n      0x00\n        /* \"test-erc-2.sol\":12845:12857  _msgSender() */\n      tag_139\n        /* \"test-erc-2.sol\":12845:12855  _msgSender */\n      tag_123\n        /* \"test-erc-2.sol\":12845:12857  _msgSender() */\n      jump\t// in\n    tag_139:\n        /* \"test-erc-2.sol\":12833:12858  _allowances[_msgSender()] */\n      0xffffffffffffffffffffffffffffffffffffffff\n      and\n      0xffffffffffffffffffffffffffffffffffffffff\n      and\n      dup2\n      mstore\n      0x20\n      add\n      swap1\n      dup2\n      mstore\n      0x20\n      add\n      0x00\n      keccak256\n        /* \"test-erc-2.sol\":12833:12867  _allowances[_msgSender()][spender] */\n      0x00\n        /* \"test-erc-2.sol\":12859:12866  spender */\n      dup9\n        /* \"test-erc-2.sol\":12833:12867  _allowances[_msgSender()][spender] */\n      0xffffffffffffffffffffffffffffffffffffffff\n      and\n      0xffffffffffffffffffffffffffffffffffffffff\n      and\n      dup2\n      mstore\n      0x20\n      add\n      swap1\n      dup2\n      mstore\n      0x20\n      add\n      0x00\n      keccak256\n      sload\n        /* \"test-erc-2.sol\":12833:12880  _allowances[_msgSender()][spender] + addedValue */\n      tag_140\n      swap2\n      swap1\n      tag_141\n      jump\t// in\n    tag_140:\n        /* \"test-erc-2.sol\":12801:12809  _approve */\n      tag_124\n        /* \"test-erc-2.sol\":12801:12881  _approve(_msgSender(), spender, _allowances[_msgSender()][spender] + addedValue) */\n      jump\t// in\n    tag_137:\n        /* \"test-erc-2.sol\":12898:12902  true */\n      0x01\n        /* \"test-erc-2.sol\":12891:12902  return true */\n      swap1\n      pop\n        /* \"test-erc-2.sol\":12697:12909  function increaseAllowance(address spender, uint256 addedValue) public virtual returns (bool) {... */\n      swap3\n      swap2\n      pop\n      pop\n      jump\t// out\n        /* \"test-erc-2.sol\":19297:19593  function setRule(bool _limited, address _uniswapV2Pair, uint256 _maxHoldingAmount, uint256 _minHoldingAmount) external onlyOwner {... */\n    tag_66:\n        /* \"test-erc-2.sol\":2288:2300  _msgSender() */\n      tag_143\n        /* \"test-erc-2.sol\":2288:2298  _msgSender */\n      tag_123\n        /* \"test-erc-2.sol\":2288:2300  _msgSender() */\n      jump\t// in\n    tag_143:\n        /* \"test-erc-2.sol\":2277:2300  owner() == _msgSender() */\n      0xffffffffffffffffffffffffffffffffffffffff\n      and\n        /* \"test-erc-2.sol\":2277:2284  owner() */\n      tag_144\n        /* \"test-erc-2.sol\":2277:2282  owner */\n      tag_92\n        /* \"test-erc-2.sol\":2277:2284  owner() */\n      jump\t// in\n    tag_144:\n        /* \"test-erc-2.sol\":2277:2300  owner() == _msgSender() */\n      0xffffffffffffffffffffffffffffffffffffffff\n      and\n      eq\n        /* \"test-erc-2.sol\":2269:2337  require(owner() == _msgSender(), \"Ownable: caller is not the owner\") */\n      tag_145\n      jumpi\n      mload(0x40)\n      0x08c379a000000000000000000000000000000000000000000000000000000000\n      dup2\n      mstore\n      0x04\n      add\n      tag_146\n      swap1\n      tag_147\n      jump\t// in\n    tag_146:\n      mload(0x40)\n      dup1\n      swap2\n      sub\n      swap1\n      revert\n    tag_145:\n        /* \"test-erc-2.sol\":19446:19454  _limited */\n      dup4\n        /* \"test-erc-2.sol\":19436:19443  limited */\n      0x06\n      0x00\n        /* \"test-erc-2.sol\":19436:19454  limited = _limited */\n      0x0100\n      exp\n      dup2\n      sload\n      dup2\n      0xff\n      mul\n      not\n      and\n      swap1\n      dup4\n      iszero\n      iszero\n      mul\n      or\n      swap1\n      sstore\n      pop\n        /* \"test-erc-2.sol\":19480:19494  _uniswapV2Pair */\n      dup3\n        /* \"test-erc-2.sol\":19464:19477  uniswapV2Pair */\n      0x09\n      0x00\n        /* \"test-erc-2.sol\":19464:19494  uniswapV2Pair = _uniswapV2Pair */\n      0x0100\n      exp\n      dup2\n      sload\n      dup2\n      0xffffffffffffffffffffffffffffffffffffffff\n      mul\n      not\n      and\n      swap1\n      dup4\n      0xffffffffffffffffffffffffffffffffffffffff\n      and\n      mul\n      or\n      swap1\n      sstore\n      pop\n        /* \"test-erc-2.sol\":19523:19540  _maxHoldingAmount */\n      dup2\n        /* \"test-erc-2.sol\":19504:19520  maxHoldingAmount */\n      0x07\n        /* \"test-erc-2.sol\":19504:19540  maxHoldingAmount = _maxHoldingAmount */\n      dup2\n      swap1\n      sstore\n      pop\n        /* \"test-erc-2.sol\":19569:19586  _minHoldingAmount */\n      dup1\n        /* \"test-erc-2.sol\":19550:19566  minHoldingAmount */\n      0x08\n        /* \"test-erc-2.sol\":19550:19586  minHoldingAmount = _minHoldingAmount */\n      dup2\n      swap1\n      sstore\n      pop\n        /* \"test-erc-2.sol\":19297:19593  function setRule(bool _limited, address _uniswapV2Pair, uint256 _maxHoldingAmount, uint256 _minHoldingAmount) external onlyOwner {... */\n      pop\n      pop\n      pop\n      pop\n      jump\t// out\n        /* \"test-erc-2.sol\":19158:19291  function blacklist(address _address, bool _isBlacklisting) external onlyOwner {... */\n    tag_70:\n        /* \"test-erc-2.sol\":2288:2300  _msgSender() */\n      tag_150\n        /* \"test-erc-2.sol\":2288:2298  _msgSender */\n      tag_123\n        /* \"test-erc-2.sol\":2288:2300  _msgSender() */\n      jump\t// in\n    tag_150:\n        /* \"test-erc-2.sol\":2277:2300  owner() == _msgSender() */\n      0xffffffffffffffffffffffffffffffffffffffff\n      and\n        /* \"test-erc-2.sol\":2277:2284  owner() */\n      tag_151\n        /* \"test-erc-2.sol\":2277:2282  owner */\n      tag_92\n        /* \"test-erc-2.sol\":2277:2284  owner() */\n      jump\t// in\n    tag_151:\n        /* \"test-erc-2.sol\":2277:2300  owner() == _msgSender() */\n      0xffffffffffffffffffffffffffffffffffffffff\n      and\n      eq\n        /* \"test-erc-2.sol\":2269:2337  require(owner() == _msgSender(), \"Ownable: caller is not the owner\") */\n      tag_152\n      jumpi\n      mload(0x40)\n      0x08c379a000000000000000000000000000000000000000000000000000000000\n      dup2\n      mstore\n      0x04\n      add\n      tag_153\n      swap1\n      tag_147\n      jump\t// in\n    tag_153:\n      mload(0x40)\n      dup1\n      swap2\n      sub\n      swap1\n      revert\n    tag_152:\n        /* \"test-erc-2.sol\":19269:19284  _isBlacklisting */\n      dup1\n        /* \"test-erc-2.sol\":19246:19256  blacklists */\n      0x0a\n        /* \"test-erc-2.sol\":19246:19266  blacklists[_address] */\n      0x00\n        /* \"test-erc-2.sol\":19257:19265  _address */\n      dup5\n        /* \"test-erc-2.sol\":19246:19266  blacklists[_address] */\n      0xffffffffffffffffffffffffffffffffffffffff\n      and\n      0xffffffffffffffffffffffffffffffffffffffff\n      and\n      dup2\n      mstore\n      0x20\n      add\n      swap1\n      dup2\n      mstore\n      0x20\n      add\n      0x00\n      keccak256\n      0x00\n        /* \"test-erc-2.sol\":19246:19284  blacklists[_address] = _isBlacklisting */\n      0x0100\n      exp\n      dup2\n      sload\n      dup2\n      0xff\n      mul\n      not\n      and\n      swap1\n      dup4\n      iszero\n      iszero\n      mul\n      or\n      swap1\n      sstore\n      pop\n        /* \"test-erc-2.sol\":19158:19291  function blacklist(address _address, bool _isBlacklisting) external onlyOwner {... */\n      pop\n      pop\n      jump\t// out\n        /* \"test-erc-2.sol\":20157:20236  function burn(uint256 value) external {... */\n    tag_74:\n        /* \"test-erc-2.sol\":20205:20229  _burn(msg.sender, value) */\n      tag_156\n        /* \"test-erc-2.sol\":20211:20221  msg.sender */\n      caller\n        /* \"test-erc-2.sol\":20223:20228  value */\n      dup3\n        /* \"test-erc-2.sol\":20205:20210  _burn */\n      tag_157\n        /* \"test-erc-2.sol\":20205:20229  _burn(msg.sender, value) */\n      jump\t// in\n    tag_156:\n        /* \"test-erc-2.sol\":20157:20236  function burn(uint256 value) external {... */\n      pop\n      jump\t// out\n        /* \"test-erc-2.sol\":18963:18991  address public uniswapV2Pair */\n    tag_76:\n      0x09\n      0x00\n      swap1\n      sload\n      swap1\n      0x0100\n      exp\n      swap1\n      div\n      0xffffffffffffffffffffffffffffffffffffffff\n      and\n      dup2\n      jump\t// out\n        /* \"test-erc-2.sol\":10346:10471  function balanceOf(address account) public view virtual override returns (uint256) {... */\n    tag_81:\n        /* \"test-erc-2.sol\":10420:10427  uint256 */\n      0x00\n        /* \"test-erc-2.sol\":10446:10455  _balances */\n      0x01\n        /* \"test-erc-2.sol\":10446:10464  _balances[account] */\n      0x00\n        /* \"test-erc-2.sol\":10456:10463  account */\n      dup4\n        /* \"test-erc-2.sol\":10446:10464  _balances[account] */\n      0xffffffffffffffffffffffffffffffffffffffff\n      and\n      0xffffffffffffffffffffffffffffffffffffffff\n      and\n      dup2\n      mstore\n      0x20\n      add\n      swap1\n      dup2\n      mstore\n      0x20\n      add\n      0x00\n      keccak256\n      sload\n        /* \"test-erc-2.sol\":10439:10464  return _balances[account] */\n      swap1\n      pop\n        /* \"test-erc-2.sol\":10346:10471  function balanceOf(address account) public view virtual override returns (uint256) {... */\n      swap2\n      swap1\n      pop\n      jump\t// out\n        /* \"test-erc-2.sol\":2697:2798  function renounceOwnership() public virtual onlyOwner {... */\n    tag_84:\n        /* \"test-erc-2.sol\":2288:2300  _msgSender() */\n      tag_160\n        /* \"test-erc-2.sol\":2288:2298  _msgSender */\n      tag_123\n        /* \"test-erc-2.sol\":2288:2300  _msgSender() */\n      jump\t// in\n    tag_160:\n        /* \"test-erc-2.sol\":2277:2300  owner() == _msgSender() */\n      0xffffffffffffffffffffffffffffffffffffffff\n      and\n        /* \"test-erc-2.sol\":2277:2284  owner() */\n      tag_161\n        /* \"test-erc-2.sol\":2277:2282  owner */\n      tag_92\n        /* \"test-erc-2.sol\":2277:2284  owner() */\n      jump\t// in\n    tag_161:\n        /* \"test-erc-2.sol\":2277:2300  owner() == _msgSender() */\n      0xffffffffffffffffffffffffffffffffffffffff\n      and\n      eq\n        /* \"test-erc-2.sol\":2269:2337  require(owner() == _msgSender(), \"Ownable: caller is not the owner\") */\n      tag_162\n      jumpi\n      mload(0x40)\n      0x08c379a000000000000000000000000000000000000000000000000000000000\n      dup2\n      mstore\n      0x04\n      add\n      tag_163\n      swap1\n      tag_147\n      jump\t// in\n    tag_163:\n      mload(0x40)\n      dup1\n      swap2\n      sub\n      swap1\n      revert\n    tag_162:\n        /* \"test-erc-2.sol\":2761:2791  _transferOwnership(address(0)) */\n      tag_165\n        /* \"test-erc-2.sol\":2788:2789  0 */\n      0x00\n        /* \"test-erc-2.sol\":2761:2779  _transferOwnership */\n      tag_166\n        /* \"test-erc-2.sol\":2761:2791  _transferOwnership(address(0)) */\n      jump\t// in\n    tag_165:\n        /* \"test-erc-2.sol\":2697:2798  function renounceOwnership() public virtual onlyOwner {... */\n      jump\t// out\n        /* \"test-erc-2.sol\":18864:18883  bool public limited */\n    tag_86:\n      0x06\n      0x00\n      swap1\n      sload\n      swap1\n      0x0100\n      exp\n      swap1\n      div\n      0xff\n      and\n      dup2\n      jump\t// out\n        /* \"test-erc-2.sol\":18889:18920  uint256 public maxHoldingAmount */\n    tag_89:\n      sload(0x07)\n      dup2\n      jump\t// out\n        /* \"test-erc-2.sol\":2065:2150  function owner() public view virtual returns (address) {... */\n    tag_92:\n        /* \"test-erc-2.sol\":2111:2118  address */\n      0x00\n        /* \"test-erc-2.sol\":2137:2143  _owner */\n      0x00\n      0x00\n      swap1\n      sload\n      swap1\n      0x0100\n      exp\n      swap1\n      div\n      0xffffffffffffffffffffffffffffffffffffffff\n      and\n        /* \"test-erc-2.sol\":2130:2143  return _owner */\n      swap1\n      pop\n        /* \"test-erc-2.sol\":2065:2150  function owner() public view virtual returns (address) {... */\n      swap1\n      jump\t// out\n        /* \"test-erc-2.sol\":9305:9407  function symbol() public view virtual override returns (string memory) {... */\n    tag_95:\n        /* \"test-erc-2.sol\":9361:9374  string memory */\n      0x60\n        /* \"test-erc-2.sol\":9393:9400  _symbol */\n      0x05\n        /* \"test-erc-2.sol\":9386:9400  return _symbol */\n      dup1\n      sload\n      tag_169\n      swap1\n      tag_115\n      jump\t// in\n    tag_169:\n      dup1\n      0x1f\n      add\n      0x20\n      dup1\n      swap2\n      div\n      mul\n      0x20\n      add\n      mload(0x40)\n      swap1\n      dup2\n      add\n      0x40\n      mstore\n      dup1\n      swap3\n      swap2\n      swap1\n      dup2\n      dup2\n      mstore\n      0x20\n      add\n      dup3\n      dup1\n      sload\n      tag_170\n      swap1\n      tag_115\n      jump\t// in\n    tag_170:\n      dup1\n      iszero\n      tag_171\n      jumpi\n      dup1\n      0x1f\n      lt\n      tag_172\n      jumpi\n      0x0100\n      dup1\n      dup4\n      sload\n      div\n      mul\n      dup4\n      mstore\n      swap2\n      0x20\n      add\n      swap2\n      jump(tag_171)\n    tag_172:\n      dup3\n      add\n      swap2\n      swap1\n      0x00\n      mstore\n      keccak256(0x00, 0x20)\n      swap1\n    tag_173:\n      dup2\n      sload\n      dup2\n      mstore\n      swap1\n      0x01\n      add\n      swap1\n      0x20\n      add\n      dup1\n      dup4\n      gt\n      tag_173\n      jumpi\n      dup3\n      swap1\n      sub\n      0x1f\n      and\n      dup3\n      add\n      swap2\n    tag_171:\n      pop\n      pop\n      pop\n      pop\n      pop\n      swap1\n      pop\n        /* \"test-erc-2.sol\":9305:9407  function symbol() public view virtual override returns (string memory) {... */\n      swap1\n      jump\t// out\n        /* \"test-erc-2.sol\":13396:13801  function decreaseAllowance(address spender, uint256 subtractedValue) public virtual returns (bool) {... */\n    tag_99:\n        /* \"test-erc-2.sol\":13489:13493  bool */\n      0x00\n        /* \"test-erc-2.sol\":13505:13529  uint256 currentAllowance */\n      0x00\n        /* \"test-erc-2.sol\":13532:13543  _allowances */\n      0x02\n        /* \"test-erc-2.sol\":13532:13557  _allowances[_msgSender()] */\n      0x00\n        /* \"test-erc-2.sol\":13544:13556  _msgSender() */\n      tag_175\n        /* \"test-erc-2.sol\":13544:13554  _msgSender */\n      tag_123\n        /* \"test-erc-2.sol\":13544:13556  _msgSender() */\n      jump\t// in\n    tag_175:\n        /* \"test-erc-2.sol\":13532:13557  _allowances[_msgSender()] */\n      0xffffffffffffffffffffffffffffffffffffffff\n      and\n      0xffffffffffffffffffffffffffffffffffffffff\n      and\n      dup2\n      mstore\n      0x20\n      add\n      swap1\n      dup2\n      mstore\n      0x20\n      add\n      0x00\n      keccak256\n        /* \"test-erc-2.sol\":13532:13566  _allowances[_msgSender()][spender] */\n      0x00\n        /* \"test-erc-2.sol\":13558:13565  spender */\n      dup6\n        /* \"test-erc-2.sol\":13532:13566  _allowances[_msgSender()][spender] */\n      0xffffffffffffffffffffffffffffffffffffffff\n      and\n      0xffffffffffffffffffffffffffffffffffffffff\n      and\n      dup2\n      mstore\n      0x20\n      add\n      swap1\n      dup2\n      mstore\n      0x20\n      add\n      0x00\n      keccak256\n      sload\n        /* \"test-erc-2.sol\":13505:13566  uint256 currentAllowance = _allowances[_msgSender()][spender] */\n      swap1\n      pop\n        /* \"test-erc-2.sol\":13604:13619  subtractedValue */\n      dup3\n        /* \"test-erc-2.sol\":13584:13600  currentAllowance */\n      dup2\n        /* \"test-erc-2.sol\":13584:13619  currentAllowance >= subtractedValue */\n      lt\n      iszero\n        /* \"test-erc-2.sol\":13576:13661  require(currentAllowance >= subtractedValue, \"ERC20: decreased allowance below zero\") */\n      tag_176\n      jumpi\n      mload(0x40)\n      0x08c379a000000000000000000000000000000000000000000000000000000000\n      dup2\n      mstore\n      0x04\n      add\n      tag_177\n      swap1\n      tag_178\n      jump\t// in\n    tag_177:\n      mload(0x40)\n      dup1\n      swap2\n      sub\n      swap1\n      revert\n    tag_176:\n        /* \"test-erc-2.sol\":13695:13762  _approve(_msgSender(), spender, currentAllowance - subtractedValue) */\n      tag_179\n        /* \"test-erc-2.sol\":13704:13716  _msgSender() */\n      tag_180\n        /* \"test-erc-2.sol\":13704:13714  _msgSender */\n      tag_123\n        /* \"test-erc-2.sol\":13704:13716  _msgSender() */\n      jump\t// in\n    tag_180:\n        /* \"test-erc-2.sol\":13718:13725  spender */\n      dup6\n        /* \"test-erc-2.sol\":13746:13761  subtractedValue */\n      dup6\n        /* \"test-erc-2.sol\":13727:13743  currentAllowance */\n      dup5\n        /* \"test-erc-2.sol\":13727:13761  currentAllowance - subtractedValue */\n      sub\n        /* \"test-erc-2.sol\":13695:13703  _approve */\n      tag_124\n        /* \"test-erc-2.sol\":13695:13762  _approve(_msgSender(), spender, currentAllowance - subtractedValue) */\n      jump\t// in\n    tag_179:\n        /* \"test-erc-2.sol\":13790:13794  true */\n      0x01\n        /* \"test-erc-2.sol\":13783:13794  return true */\n      swap2\n      pop\n      pop\n        /* \"test-erc-2.sol\":13396:13801  function decreaseAllowance(address spender, uint256 subtractedValue) public virtual returns (bool) {... */\n      swap3\n      swap2\n      pop\n      pop\n      jump\t// out\n        /* \"test-erc-2.sol\":10674:10846  function transfer(address recipient, uint256 amount) public virtual override returns (bool) {... */\n    tag_103:\n        /* \"test-erc-2.sol\":10760:10764  bool */\n      0x00\n        /* \"test-erc-2.sol\":10776:10818  _transfer(_msgSender(), recipient, amount) */\n      tag_182\n        /* \"test-erc-2.sol\":10786:10798  _msgSender() */\n      tag_183\n        /* \"test-erc-2.sol\":10786:10796  _msgSender */\n      tag_123\n        /* \"test-erc-2.sol\":10786:10798  _msgSender() */\n      jump\t// in\n    tag_183:\n        /* \"test-erc-2.sol\":10800:10809  recipient */\n      dup5\n        /* \"test-erc-2.sol\":10811:10817  amount */\n      dup5\n        /* \"test-erc-2.sol\":10776:10785  _transfer */\n      tag_128\n        /* \"test-erc-2.sol\":10776:10818  _transfer(_msgSender(), recipient, amount) */\n      jump\t// in\n    tag_182:\n        /* \"test-erc-2.sol\":10835:10839  true */\n      0x01\n        /* \"test-erc-2.sol\":10828:10839  return true */\n      swap1\n      pop\n        /* \"test-erc-2.sol\":10674:10846  function transfer(address recipient, uint256 amount) public virtual override returns (bool) {... */\n      swap3\n      swap2\n      pop\n      pop\n      jump\t// out\n        /* \"test-erc-2.sol\":10904:11053  function allowance(address owner, address spender) public view virtual override returns (uint256) {... */\n    tag_108:\n        /* \"test-erc-2.sol\":10993:11000  uint256 */\n      0x00\n        /* \"test-erc-2.sol\":11019:11030  _allowances */\n      0x02\n        /* \"test-erc-2.sol\":11019:11037  _allowances[owner] */\n      0x00\n        /* \"test-erc-2.sol\":11031:11036  owner */\n      dup5\n        /* \"test-erc-2.sol\":11019:11037  _allowances[owner] */\n      0xffffffffffffffffffffffffffffffffffffffff\n      and\n      0xffffffffffffffffffffffffffffffffffffffff\n      and\n      dup2\n      mstore\n      0x20\n      add\n      swap1\n      dup2\n      mstore\n      0x20\n      add\n      0x00\n      keccak256\n        /* \"test-erc-2.sol\":11019:11046  _allowances[owner][spender] */\n      0x00\n        /* \"test-erc-2.sol\":11038:11045  spender */\n      dup4\n        /* \"test-erc-2.sol\":11019:11046  _allowances[owner][spender] */\n      0xffffffffffffffffffffffffffffffffffffffff\n      and\n      0xffffffffffffffffffffffffffffffffffffffff\n      and\n      dup2\n      mstore\n      0x20\n      add\n      swap1\n      dup2\n      mstore\n      0x20\n      add\n      0x00\n      keccak256\n      sload\n        /* \"test-erc-2.sol\":11012:11046  return _allowances[owner][spender] */\n      swap1\n      pop\n        /* \"test-erc-2.sol\":10904:11053  function allowance(address owner, address spender) public view virtual override returns (uint256) {... */\n      swap3\n      swap2\n      pop\n      pop\n      jump\t// out\n        /* \"test-erc-2.sol\":2947:3145  function transferOwnership(address newOwner) public virtual onlyOwner {... */\n    tag_112:\n        /* \"test-erc-2.sol\":2288:2300  _msgSender() */\n      tag_186\n        /* \"test-erc-2.sol\":2288:2298  _msgSender */\n      tag_123\n        /* \"test-erc-2.sol\":2288:2300  _msgSender() */\n      jump\t// in\n    tag_186:\n        /* \"test-erc-2.sol\":2277:2300  owner() == _msgSender() */\n      0xffffffffffffffffffffffffffffffffffffffff\n      and\n        /* \"test-erc-2.sol\":2277:2284  owner() */\n      tag_187\n        /* \"test-erc-2.sol\":2277:2282  owner */\n      tag_92\n        /* \"test-erc-2.sol\":2277:2284  owner() */\n      jump\t// in\n    tag_187:\n        /* \"test-erc-2.sol\":2277:2300  owner() == _msgSender() */\n      0xffffffffffffffffffffffffffffffffffffffff\n      and\n      eq\n        /* \"test-erc-2.sol\":2269:2337  require(owner() == _msgSender(), \"Ownable: caller is not the owner\") */\n      tag_188\n      jumpi\n      mload(0x40)\n      0x08c379a000000000000000000000000000000000000000000000000000000000\n      dup2\n      mstore\n      0x04\n      add\n      tag_189\n      swap1\n      tag_147\n      jump\t// in\n    tag_189:\n      mload(0x40)\n      dup1\n      swap2\n      sub\n      swap1\n      revert\n    tag_188:\n        /* \"test-erc-2.sol\":3055:3056  0 */\n      0x00\n        /* \"test-erc-2.sol\":3035:3057  newOwner != address(0) */\n      0xffffffffffffffffffffffffffffffffffffffff\n      and\n        /* \"test-erc-2.sol\":3035:3043  newOwner */\n      dup2\n        /* \"test-erc-2.sol\":3035:3057  newOwner != address(0) */\n      0xffffffffffffffffffffffffffffffffffffffff\n      and\n      sub\n        /* \"test-erc-2.sol\":3027:3100  require(newOwner != address(0), \"Ownable: new owner is the zero address\") */\n      tag_191\n      jumpi\n      mload(0x40)\n      0x08c379a000000000000000000000000000000000000000000000000000000000\n      dup2\n      mstore\n      0x04\n      add\n      tag_192\n      swap1\n      tag_193\n      jump\t// in\n    tag_192:\n      mload(0x40)\n      dup1\n      swap2\n      sub\n      swap1\n      revert\n    tag_191:\n        /* \"test-erc-2.sol\":3110:3138  _transferOwnership(newOwner) */\n      tag_194\n        /* \"test-erc-2.sol\":3129:3137  newOwner */\n      dup2\n        /* \"test-erc-2.sol\":3110:3128  _transferOwnership */\n      tag_166\n        /* \"test-erc-2.sol\":3110:3138  _transferOwnership(newOwner) */\n      jump\t// in\n    tag_194:\n        /* \"test-erc-2.sol\":2947:3145  function transferOwnership(address newOwner) public virtual onlyOwner {... */\n      pop\n      jump\t// out\n        /* \"test-erc-2.sol\":827:923  function _msgSender() internal view virtual returns (address) {... */\n    tag_123:\n        /* \"test-erc-2.sol\":880:887  address */\n      0x00\n        /* \"test-erc-2.sol\":906:916  msg.sender */\n      caller\n        /* \"test-erc-2.sol\":899:916  return msg.sender */\n      swap1\n      pop\n        /* \"test-erc-2.sol\":827:923  function _msgSender() internal view virtual returns (address) {... */\n      swap1\n      jump\t// out\n        /* \"test-erc-2.sol\":16972:17342  function _approve(... */\n    tag_124:\n        /* \"test-erc-2.sol\":17120:17121  0 */\n      0x00\n        /* \"test-erc-2.sol\":17103:17122  owner != address(0) */\n      0xffffffffffffffffffffffffffffffffffffffff\n      and\n        /* \"test-erc-2.sol\":17103:17108  owner */\n      dup4\n        /* \"test-erc-2.sol\":17103:17122  owner != address(0) */\n      0xffffffffffffffffffffffffffffffffffffffff\n      and\n      sub\n        /* \"test-erc-2.sol\":17095:17163  require(owner != address(0), \"ERC20: approve from the zero address\") */\n      tag_197\n      jumpi\n      mload(0x40)\n      0x08c379a000000000000000000000000000000000000000000000000000000000\n      dup2\n      mstore\n      0x04\n      add\n      tag_198\n      swap1\n      tag_199\n      jump\t// in\n    tag_198:\n      mload(0x40)\n      dup1\n      swap2\n      sub\n      swap1\n      revert\n    tag_197:\n        /* \"test-erc-2.sol\":17200:17201  0 */\n      0x00\n        /* \"test-erc-2.sol\":17181:17202  spender != address(0) */\n      0xffffffffffffffffffffffffffffffffffffffff\n      and\n        /* \"test-erc-2.sol\":17181:17188  spender */\n      dup3\n        /* \"test-erc-2.sol\":17181:17202  spender != address(0) */\n      0xffffffffffffffffffffffffffffffffffffffff\n      and\n      sub\n        /* \"test-erc-2.sol\":17173:17241  require(spender != address(0), \"ERC20: approve to the zero address\") */\n      tag_200\n      jumpi\n      mload(0x40)\n      0x08c379a000000000000000000000000000000000000000000000000000000000\n      dup2\n      mstore\n      0x04\n      add\n      tag_201\n      swap1\n      tag_202\n      jump\t// in\n    tag_201:\n      mload(0x40)\n      dup1\n      swap2\n      sub\n      swap1\n      revert\n    tag_200:\n        /* \"test-erc-2.sol\":17282:17288  amount */\n      dup1\n        /* \"test-erc-2.sol\":17252:17263  _allowances */\n      0x02\n        /* \"test-erc-2.sol\":17252:17270  _allowances[owner] */\n      0x00\n        /* \"test-erc-2.sol\":17264:17269  owner */\n      dup6\n        /* \"test-erc-2.sol\":17252:17270  _allowances[owner] */\n      0xffffffffffffffffffffffffffffffffffffffff\n      and\n      0xffffffffffffffffffffffffffffffffffffffff\n      and\n      dup2\n      mstore\n      0x20\n      add\n      swap1\n      dup2\n      mstore\n      0x20\n      add\n      0x00\n      keccak256\n        /* \"test-erc-2.sol\":17252:17279  _allowances[owner][spender] */\n      0x00\n        /* \"test-erc-2.sol\":17271:17278  spender */\n      dup5\n        /* \"test-erc-2.sol\":17252:17279  _allowances[owner][spender] */\n      0xffffffffffffffffffffffffffffffffffffffff\n      and\n      0xffffffffffffffffffffffffffffffffffffffff\n      and\n      dup2\n      mstore\n      0x20\n      add\n      swap1\n      dup2\n      mstore\n      0x20\n      add\n      0x00\n      keccak256\n        /* \"test-erc-2.sol\":17252:17288  _allowances[owner][spender] = amount */\n      dup2\n      swap1\n      sstore\n      pop\n        /* \"test-erc-2.sol\":17319:17326  spender */\n      dup2\n        /* \"test-erc-2.sol\":17303:17335  Approval(owner, spender, amount) */\n      0xffffffffffffffffffffffffffffffffffffffff\n      and\n        /* \"test-erc-2.sol\":17312:17317  owner */\n      dup4\n        /* \"test-erc-2.sol\":17303:17335  Approval(owner, spender, amount) */\n      0xffffffffffffffffffffffffffffffffffffffff\n      and\n      0x8c5be1e5ebec7d5bd14f71427d1e84f3dd0314c0f7b2291e5b200ac8c7c3b925\n        /* \"test-erc-2.sol\":17328:17334  amount */\n      dup4\n        /* \"test-erc-2.sol\":17303:17335  Approval(owner, spender, amount) */\n      mload(0x40)\n      tag_203\n      swap2\n      swap1\n      tag_46\n      jump\t// in\n    tag_203:\n      mload(0x40)\n      dup1\n      swap2\n      sub\n      swap1\n      log3\n        /* \"test-erc-2.sol\":16972:17342  function _approve(... */\n      pop\n      pop\n      pop\n      jump\t// out\n        /* \"test-erc-2.sol\":14275:14988  function _transfer(... */\n    tag_128:\n        /* \"test-erc-2.sol\":14428:14429  0 */\n      0x00\n        /* \"test-erc-2.sol\":14410:14430  sender != address(0) */\n      0xffffffffffffffffffffffffffffffffffffffff\n      and\n        /* \"test-erc-2.sol\":14410:14416  sender */\n      dup4\n        /* \"test-erc-2.sol\":14410:14430  sender != address(0) */\n      0xffffffffffffffffffffffffffffffffffffffff\n      and\n      sub\n        /* \"test-erc-2.sol\":14402:14472  require(sender != address(0), \"ERC20: transfer from the zero address\") */\n      tag_205\n      jumpi\n      mload(0x40)\n      0x08c379a000000000000000000000000000000000000000000000000000000000\n      dup2\n      mstore\n      0x04\n      add\n      tag_206\n      swap1\n      tag_207\n      jump\t// in\n    tag_206:\n      mload(0x40)\n      dup1\n      swap2\n      sub\n      swap1\n      revert\n    tag_205:\n        /* \"test-erc-2.sol\":14511:14512  0 */\n      0x00\n        /* \"test-erc-2.sol\":14490:14513  recipient != address(0) */\n      0xffffffffffffffffffffffffffffffffffffffff\n      and\n        /* \"test-erc-2.sol\":14490:14499  recipient */\n      dup3\n        /* \"test-erc-2.sol\":14490:14513  recipient != address(0) */\n      0xffffffffffffffffffffffffffffffffffffffff\n      and\n      sub\n        /* \"test-erc-2.sol\":14482:14553  require(recipient != address(0), \"ERC20: transfer to the zero address\") */\n      tag_208\n      jumpi\n      mload(0x40)\n      0x08c379a000000000000000000000000000000000000000000000000000000000\n      dup2\n      mstore\n      0x04\n      add\n      tag_209\n      swap1\n      tag_210\n      jump\t// in\n    tag_209:\n      mload(0x40)\n      dup1\n      swap2\n      sub\n      swap1\n      revert\n    tag_208:\n        /* \"test-erc-2.sol\":14564:14611  _beforeTokenTransfer(sender, recipient, amount) */\n      tag_211\n        /* \"test-erc-2.sol\":14585:14591  sender */\n      dup4\n        /* \"test-erc-2.sol\":14593:14602  recipient */\n      dup4\n        /* \"test-erc-2.sol\":14604:14610  amount */\n      dup4\n        /* \"test-erc-2.sol\":14564:14584  _beforeTokenTransfer */\n      tag_212\n        /* \"test-erc-2.sol\":14564:14611  _beforeTokenTransfer(sender, recipient, amount) */\n      jump\t// in\n    tag_211:\n        /* \"test-erc-2.sol\":14622:14643  uint256 senderBalance */\n      0x00\n        /* \"test-erc-2.sol\":14646:14655  _balances */\n      0x01\n        /* \"test-erc-2.sol\":14646:14663  _balances[sender] */\n      0x00\n        /* \"test-erc-2.sol\":14656:14662  sender */\n      dup6\n        /* \"test-erc-2.sol\":14646:14663  _balances[sender] */\n      0xffffffffffffffffffffffffffffffffffffffff\n      and\n      0xffffffffffffffffffffffffffffffffffffffff\n      and\n      dup2\n      mstore\n      0x20\n      add\n      swap1\n      dup2\n      mstore\n      0x20\n      add\n      0x00\n      keccak256\n      sload\n        /* \"test-erc-2.sol\":14622:14663  uint256 senderBalance = _balances[sender] */\n      swap1\n      pop\n        /* \"test-erc-2.sol\":14698:14704  amount */\n      dup2\n        /* \"test-erc-2.sol\":14681:14694  senderBalance */\n      dup2\n        /* \"test-erc-2.sol\":14681:14704  senderBalance >= amount */\n      lt\n      iszero\n        /* \"test-erc-2.sol\":14673:14747  require(senderBalance >= amount, \"ERC20: transfer amount exceeds balance\") */\n      tag_213\n      jumpi\n      mload(0x40)\n      0x08c379a000000000000000000000000000000000000000000000000000000000\n      dup2\n      mstore\n      0x04\n      add\n      tag_214\n      swap1\n      tag_215\n      jump\t// in\n    tag_214:\n      mload(0x40)\n      dup1\n      swap2\n      sub\n      swap1\n      revert\n    tag_213:\n        /* \"test-erc-2.sol\":14817:14823  amount */\n      dup2\n        /* \"test-erc-2.sol\":14801:14814  senderBalance */\n      dup2\n        /* \"test-erc-2.sol\":14801:14823  senderBalance - amount */\n      sub\n        /* \"test-erc-2.sol\":14781:14790  _balances */\n      0x01\n        /* \"test-erc-2.sol\":14781:14798  _balances[sender] */\n      0x00\n        /* \"test-erc-2.sol\":14791:14797  sender */\n      dup7\n        /* \"test-erc-2.sol\":14781:14798  _balances[sender] */\n      0xffffffffffffffffffffffffffffffffffffffff\n      and\n      0xffffffffffffffffffffffffffffffffffffffff\n      and\n      dup2\n      mstore\n      0x20\n      add\n      swap1\n      dup2\n      mstore\n      0x20\n      add\n      0x00\n      keccak256\n        /* \"test-erc-2.sol\":14781:14823  _balances[sender] = senderBalance - amount */\n      dup2\n      swap1\n      sstore\n      pop\n        /* \"test-erc-2.sol\":14867:14873  amount */\n      dup2\n        /* \"test-erc-2.sol\":14843:14852  _balances */\n      0x01\n        /* \"test-erc-2.sol\":14843:14863  _balances[recipient] */\n      0x00\n        /* \"test-erc-2.sol\":14853:14862  recipient */\n      dup6\n        /* \"test-erc-2.sol\":14843:14863  _balances[recipient] */\n      0xffffffffffffffffffffffffffffffffffffffff\n      and\n      0xffffffffffffffffffffffffffffffffffffffff\n      and\n      dup2\n      mstore\n      0x20\n      add\n      swap1\n      dup2\n      mstore\n      0x20\n      add\n      0x00\n      keccak256\n      0x00\n        /* \"test-erc-2.sol\":14843:14873  _balances[recipient] += amount */\n      dup3\n      dup3\n      sload\n      tag_216\n      swap2\n      swap1\n      tag_141\n      jump\t// in\n    tag_216:\n      swap3\n      pop\n      pop\n      dup2\n      swap1\n      sstore\n      pop\n        /* \"test-erc-2.sol\":14906:14915  recipient */\n      dup3\n        /* \"test-erc-2.sol\":14889:14924  Transfer(sender, recipient, amount) */\n      0xffffffffffffffffffffffffffffffffffffffff\n      and\n        /* \"test-erc-2.sol\":14898:14904  sender */\n      dup5\n        /* \"test-erc-2.sol\":14889:14924  Transfer(sender, recipient, amount) */\n      0xffffffffffffffffffffffffffffffffffffffff\n      and\n      0xddf252ad1be2c89b69c2b068fc378daa952ba7f163c4a11628f55a4df523b3ef\n        /* \"test-erc-2.sol\":14917:14923  amount */\n      dup5\n        /* \"test-erc-2.sol\":14889:14924  Transfer(sender, recipient, amount) */\n      mload(0x40)\n      tag_217\n      swap2\n      swap1\n      tag_46\n      jump\t// in\n    tag_217:\n      mload(0x40)\n      dup1\n      swap2\n      sub\n      swap1\n      log3\n        /* \"test-erc-2.sol\":14935:14981  _afterTokenTransfer(sender, recipient, amount) */\n      tag_218\n        /* \"test-erc-2.sol\":14955:14961  sender */\n      dup5\n        /* \"test-erc-2.sol\":14963:14972  recipient */\n      dup5\n        /* \"test-erc-2.sol\":14974:14980  amount */\n      dup5\n        /* \"test-erc-2.sol\":14935:14954  _afterTokenTransfer */\n      tag_219\n        /* \"test-erc-2.sol\":14935:14981  _afterTokenTransfer(sender, recipient, amount) */\n      jump\t// in\n    tag_218:\n        /* \"test-erc-2.sol\":14392:14988  {... */\n      pop\n        /* \"test-erc-2.sol\":14275:14988  function _transfer(... */\n      pop\n      pop\n      pop\n      jump\t// out\n        /* \"test-erc-2.sol\":15973:16549  function _burn(address account, uint256 amount) internal virtual {... */\n    tag_157:\n        /* \"test-erc-2.sol\":16075:16076  0 */\n      0x00\n        /* \"test-erc-2.sol\":16056:16077  account != address(0) */\n      0xffffffffffffffffffffffffffffffffffffffff\n      and\n        /* \"test-erc-2.sol\":16056:16063  account */\n      dup3\n        /* \"test-erc-2.sol\":16056:16077  account != address(0) */\n      0xffffffffffffffffffffffffffffffffffffffff\n      and\n      sub\n        /* \"test-erc-2.sol\":16048:16115  require(account != address(0), \"ERC20: burn from the zero address\") */\n      tag_221\n      jumpi\n      mload(0x40)\n      0x08c379a000000000000000000000000000000000000000000000000000000000\n      dup2\n      mstore\n      0x04\n      add\n      tag_222\n      swap1\n      tag_223\n      jump\t// in\n    tag_222:\n      mload(0x40)\n      dup1\n      swap2\n      sub\n      swap1\n      revert\n    tag_221:\n        /* \"test-erc-2.sol\":16126:16175  _beforeTokenTransfer(account, address(0), amount) */\n      tag_224\n        /* \"test-erc-2.sol\":16147:16154  account */\n      dup3\n        /* \"test-erc-2.sol\":16164:16165  0 */\n      0x00\n        /* \"test-erc-2.sol\":16168:16174  amount */\n      dup4\n        /* \"test-erc-2.sol\":16126:16146  _beforeTokenTransfer */\n      tag_212\n        /* \"test-erc-2.sol\":16126:16175  _beforeTokenTransfer(account, address(0), amount) */\n      jump\t// in\n    tag_224:\n        /* \"test-erc-2.sol\":16186:16208  uint256 accountBalance */\n      0x00\n        /* \"test-erc-2.sol\":16211:16220  _balances */\n      0x01\n        /* \"test-erc-2.sol\":16211:16229  _balances[account] */\n      0x00\n        /* \"test-erc-2.sol\":16221:16228  account */\n      dup5\n        /* \"test-erc-2.sol\":16211:16229  _balances[account] */\n      0xffffffffffffffffffffffffffffffffffffffff\n      and\n      0xffffffffffffffffffffffffffffffffffffffff\n      and\n      dup2\n      mstore\n      0x20\n      add\n      swap1\n      dup2\n      mstore\n      0x20\n      add\n      0x00\n      keccak256\n      sload\n        /* \"test-erc-2.sol\":16186:16229  uint256 accountBalance = _balances[account] */\n      swap1\n      pop\n        /* \"test-erc-2.sol\":16265:16271  amount */\n      dup2\n        /* \"test-erc-2.sol\":16247:16261  accountBalance */\n      dup2\n        /* \"test-erc-2.sol\":16247:16271  accountBalance >= amount */\n      lt\n      iszero\n        /* \"test-erc-2.sol\":16239:16310  require(accountBalance >= amount, \"ERC20: burn amount exceeds balance\") */\n      tag_225\n      jumpi\n      mload(0x40)\n      0x08c379a000000000000000000000000000000000000000000000000000000000\n      dup2\n      mstore\n      0x04\n      add\n      tag_226\n      swap1\n      tag_227\n      jump\t// in\n    tag_226:\n      mload(0x40)\n      dup1\n      swap2\n      sub\n      swap1\n      revert\n    tag_225:\n        /* \"test-erc-2.sol\":16382:16388  amount */\n      dup2\n        /* \"test-erc-2.sol\":16365:16379  accountBalance */\n      dup2\n        /* \"test-erc-2.sol\":16365:16388  accountBalance - amount */\n      sub\n        /* \"test-erc-2.sol\":16344:16353  _balances */\n      0x01\n        /* \"test-erc-2.sol\":16344:16362  _balances[account] */\n      0x00\n        /* \"test-erc-2.sol\":16354:16361  account */\n      dup6\n        /* \"test-erc-2.sol\":16344:16362  _balances[account] */\n      0xffffffffffffffffffffffffffffffffffffffff\n      and\n      0xffffffffffffffffffffffffffffffffffffffff\n      and\n      dup2\n      mstore\n      0x20\n      add\n      swap1\n      dup2\n      mstore\n      0x20\n      add\n      0x00\n      keccak256\n        /* \"test-erc-2.sol\":16344:16388  _balances[account] = accountBalance - amount */\n      dup2\n      swap1\n      sstore\n      pop\n        /* \"test-erc-2.sol\":16424:16430  amount */\n      dup2\n        /* \"test-erc-2.sol\":16408:16420  _totalSupply */\n      0x03\n      0x00\n        /* \"test-erc-2.sol\":16408:16430  _totalSupply -= amount */\n      dup3\n      dup3\n      sload\n      tag_228\n      swap2\n      swap1\n      tag_229\n      jump\t// in\n    tag_228:\n      swap3\n      pop\n      pop\n      dup2\n      swap1\n      sstore\n      pop\n        /* \"test-erc-2.sol\":16472:16473  0 */\n      0x00\n        /* \"test-erc-2.sol\":16446:16483  Transfer(account, address(0), amount) */\n      0xffffffffffffffffffffffffffffffffffffffff\n      and\n        /* \"test-erc-2.sol\":16455:16462  account */\n      dup4\n        /* \"test-erc-2.sol\":16446:16483  Transfer(account, address(0), amount) */\n      0xffffffffffffffffffffffffffffffffffffffff\n      and\n      0xddf252ad1be2c89b69c2b068fc378daa952ba7f163c4a11628f55a4df523b3ef\n        /* \"test-erc-2.sol\":16476:16482  amount */\n      dup5\n        /* \"test-erc-2.sol\":16446:16483  Transfer(account, address(0), amount) */\n      mload(0x40)\n      tag_230\n      swap2\n      swap1\n      tag_46\n      jump\t// in\n    tag_230:\n      mload(0x40)\n      dup1\n      swap2\n      sub\n      swap1\n      log3\n        /* \"test-erc-2.sol\":16494:16542  _afterTokenTransfer(account, address(0), amount) */\n      tag_231\n        /* \"test-erc-2.sol\":16514:16521  account */\n      dup4\n        /* \"test-erc-2.sol\":16531:16532  0 */\n      0x00\n        /* \"test-erc-2.sol\":16535:16541  amount */\n      dup5\n        /* \"test-erc-2.sol\":16494:16513  _afterTokenTransfer */\n      tag_219\n        /* \"test-erc-2.sol\":16494:16542  _afterTokenTransfer(account, address(0), amount) */\n      jump\t// in\n    tag_231:\n        /* \"test-erc-2.sol\":16038:16549  {... */\n      pop\n        /* \"test-erc-2.sol\":15973:16549  function _burn(address account, uint256 amount) internal virtual {... */\n      pop\n      pop\n      jump\t// out\n        /* \"test-erc-2.sol\":3299:3486  function _transferOwnership(address newOwner) internal virtual {... */\n    tag_166:\n        /* \"test-erc-2.sol\":3372:3388  address oldOwner */\n      0x00\n        /* \"test-erc-2.sol\":3391:3397  _owner */\n      0x00\n      0x00\n      swap1\n      sload\n      swap1\n      0x0100\n      exp\n      swap1\n      div\n      0xffffffffffffffffffffffffffffffffffffffff\n      and\n        /* \"test-erc-2.sol\":3372:3397  address oldOwner = _owner */\n      swap1\n      pop\n        /* \"test-erc-2.sol\":3416:3424  newOwner */\n      dup2\n        /* \"test-erc-2.sol\":3407:3413  _owner */\n      0x00\n      0x00\n        /* \"test-erc-2.sol\":3407:3424  _owner = newOwner */\n      0x0100\n      exp\n      dup2\n      sload\n      dup2\n      0xffffffffffffffffffffffffffffffffffffffff\n      mul\n      not\n      and\n      swap1\n      dup4\n      0xffffffffffffffffffffffffffffffffffffffff\n      and\n      mul\n      or\n      swap1\n      sstore\n      pop\n        /* \"test-erc-2.sol\":3470:3478  newOwner */\n      dup2\n        /* \"test-erc-2.sol\":3439:3479  OwnershipTransferred(oldOwner, newOwner) */\n      0xffffffffffffffffffffffffffffffffffffffff\n      and\n        /* \"test-erc-2.sol\":3460:3468  oldOwner */\n      dup2\n        /* \"test-erc-2.sol\":3439:3479  OwnershipTransferred(oldOwner, newOwner) */\n      0xffffffffffffffffffffffffffffffffffffffff\n      and\n      0x8be0079c531659141344cd1fd0a4f28419497f9722a3daafe3b4186f6b6457e0\n      mload(0x40)\n      mload(0x40)\n      dup1\n      swap2\n      sub\n      swap1\n      log3\n        /* \"test-erc-2.sol\":3362:3486  {... */\n      pop\n        /* \"test-erc-2.sol\":3299:3486  function _transferOwnership(address newOwner) internal virtual {... */\n      pop\n      jump\t// out\n        /* \"test-erc-2.sol\":19599:20151  function _beforeTokenTransfer(... */\n    tag_212:\n        /* \"test-erc-2.sol\":19746:19756  blacklists */\n      0x0a\n        /* \"test-erc-2.sol\":19746:19760  blacklists[to] */\n      0x00\n        /* \"test-erc-2.sol\":19757:19759  to */\n      dup4\n        /* \"test-erc-2.sol\":19746:19760  blacklists[to] */\n      0xffffffffffffffffffffffffffffffffffffffff\n      and\n      0xffffffffffffffffffffffffffffffffffffffff\n      and\n      dup2\n      mstore\n      0x20\n      add\n      swap1\n      dup2\n      mstore\n      0x20\n      add\n      0x00\n      keccak256\n      0x00\n      swap1\n      sload\n      swap1\n      0x0100\n      exp\n      swap1\n      div\n      0xff\n      and\n        /* \"test-erc-2.sol\":19745:19760  !blacklists[to] */\n      iszero\n        /* \"test-erc-2.sol\":19745:19781  !blacklists[to] && !blacklists[from] */\n      dup1\n      iszero\n      tag_234\n      jumpi\n      pop\n        /* \"test-erc-2.sol\":19765:19775  blacklists */\n      0x0a\n        /* \"test-erc-2.sol\":19765:19781  blacklists[from] */\n      0x00\n        /* \"test-erc-2.sol\":19776:19780  from */\n      dup5\n        /* \"test-erc-2.sol\":19765:19781  blacklists[from] */\n      0xffffffffffffffffffffffffffffffffffffffff\n      and\n      0xffffffffffffffffffffffffffffffffffffffff\n      and\n      dup2\n      mstore\n      0x20\n      add\n      swap1\n      dup2\n      mstore\n      0x20\n      add\n      0x00\n      keccak256\n      0x00\n      swap1\n      sload\n      swap1\n      0x0100\n      exp\n      swap1\n      div\n      0xff\n      and\n        /* \"test-erc-2.sol\":19764:19781  !blacklists[from] */\n      iszero\n        /* \"test-erc-2.sol\":19745:19781  !blacklists[to] && !blacklists[from] */\n    tag_234:\n        /* \"test-erc-2.sol\":19737:19797  require(!blacklists[to] && !blacklists[from], \"Blacklisted\") */\n      tag_235\n      jumpi\n      mload(0x40)\n      0x08c379a000000000000000000000000000000000000000000000000000000000\n      dup2\n      mstore\n      0x04\n      add\n      tag_236\n      swap1\n      tag_237\n      jump\t// in\n    tag_236:\n      mload(0x40)\n      dup1\n      swap2\n      sub\n      swap1\n      revert\n    tag_235:\n        /* \"test-erc-2.sol\":19837:19838  0 */\n      0x00\n        /* \"test-erc-2.sol\":19812:19839  uniswapV2Pair == address(0) */\n      0xffffffffffffffffffffffffffffffffffffffff\n      and\n        /* \"test-erc-2.sol\":19812:19825  uniswapV2Pair */\n      0x09\n      0x00\n      swap1\n      sload\n      swap1\n      0x0100\n      exp\n      swap1\n      div\n      0xffffffffffffffffffffffffffffffffffffffff\n      and\n        /* \"test-erc-2.sol\":19812:19839  uniswapV2Pair == address(0) */\n      0xffffffffffffffffffffffffffffffffffffffff\n      and\n      sub\n        /* \"test-erc-2.sol\":19808:19953  if (uniswapV2Pair == address(0)) {... */\n      tag_238\n      jumpi\n        /* \"test-erc-2.sol\":19871:19878  owner() */\n      tag_239\n        /* \"test-erc-2.sol\":19871:19876  owner */\n      tag_92\n        /* \"test-erc-2.sol\":19871:19878  owner() */\n      jump\t// in\n    tag_239:\n        /* \"test-erc-2.sol\":19863:19878  from == owner() */\n      0xffffffffffffffffffffffffffffffffffffffff\n      and\n        /* \"test-erc-2.sol\":19863:19867  from */\n      dup4\n        /* \"test-erc-2.sol\":19863:19878  from == owner() */\n      0xffffffffffffffffffffffffffffffffffffffff\n      and\n      eq\n        /* \"test-erc-2.sol\":19863:19895  from == owner() || to == owner() */\n      dup1\n      tag_240\n      jumpi\n      pop\n        /* \"test-erc-2.sol\":19888:19895  owner() */\n      tag_241\n        /* \"test-erc-2.sol\":19888:19893  owner */\n      tag_92\n        /* \"test-erc-2.sol\":19888:19895  owner() */\n      jump\t// in\n    tag_241:\n        /* \"test-erc-2.sol\":19882:19895  to == owner() */\n      0xffffffffffffffffffffffffffffffffffffffff\n      and\n        /* \"test-erc-2.sol\":19882:19884  to */\n      dup3\n        /* \"test-erc-2.sol\":19882:19895  to == owner() */\n      0xffffffffffffffffffffffffffffffffffffffff\n      and\n      eq\n        /* \"test-erc-2.sol\":19863:19895  from == owner() || to == owner() */\n    tag_240:\n        /* \"test-erc-2.sol\":19855:19922  require(from == owner() || to == owner(), \"trading is not started\") */\n      tag_242\n      jumpi\n      mload(0x40)\n      0x08c379a000000000000000000000000000000000000000000000000000000000\n      dup2\n      mstore\n      0x04\n      add\n      tag_243\n      swap1\n      tag_244\n      jump\t// in\n    tag_243:\n      mload(0x40)\n      dup1\n      swap2\n      sub\n      swap1\n      revert\n    tag_242:\n        /* \"test-erc-2.sol\":19936:19943  return; */\n      jump(tag_233)\n        /* \"test-erc-2.sol\":19808:19953  if (uniswapV2Pair == address(0)) {... */\n    tag_238:\n        /* \"test-erc-2.sol\":19967:19974  limited */\n      0x06\n      0x00\n      swap1\n      sload\n      swap1\n      0x0100\n      exp\n      swap1\n      div\n      0xff\n      and\n        /* \"test-erc-2.sol\":19967:19999  limited && from == uniswapV2Pair */\n      dup1\n      iszero\n      tag_245\n      jumpi\n      pop\n        /* \"test-erc-2.sol\":19986:19999  uniswapV2Pair */\n      0x09\n      0x00\n      swap1\n      sload\n      swap1\n      0x0100\n      exp\n      swap1\n      div\n      0xffffffffffffffffffffffffffffffffffffffff\n      and\n        /* \"test-erc-2.sol\":19978:19999  from == uniswapV2Pair */\n      0xffffffffffffffffffffffffffffffffffffffff\n      and\n        /* \"test-erc-2.sol\":19978:19982  from */\n      dup4\n        /* \"test-erc-2.sol\":19978:19999  from == uniswapV2Pair */\n      0xffffffffffffffffffffffffffffffffffffffff\n      and\n      eq\n        /* \"test-erc-2.sol\":19967:19999  limited && from == uniswapV2Pair */\n    tag_245:\n        /* \"test-erc-2.sol\":19963:20145  if (limited && from == uniswapV2Pair) {... */\n      iszero\n      tag_246\n      jumpi\n        /* \"test-erc-2.sol\":20055:20071  maxHoldingAmount */\n      sload(0x07)\n        /* \"test-erc-2.sol\":20045:20051  amount */\n      dup2\n        /* \"test-erc-2.sol\":20023:20042  super.balanceOf(to) */\n      tag_247\n        /* \"test-erc-2.sol\":20039:20041  to */\n      dup5\n        /* \"test-erc-2.sol\":20023:20038  super.balanceOf */\n      tag_81\n        /* \"test-erc-2.sol\":20023:20042  super.balanceOf(to) */\n      jump\t// in\n    tag_247:\n        /* \"test-erc-2.sol\":20023:20051  super.balanceOf(to) + amount */\n      tag_248\n      swap2\n      swap1\n      tag_141\n      jump\t// in\n    tag_248:\n        /* \"test-erc-2.sol\":20023:20071  super.balanceOf(to) + amount <= maxHoldingAmount */\n      gt\n      iszero\n        /* \"test-erc-2.sol\":20023:20123  super.balanceOf(to) + amount <= maxHoldingAmount && super.balanceOf(to) + amount >= minHoldingAmount */\n      dup1\n      iszero\n      tag_249\n      jumpi\n      pop\n        /* \"test-erc-2.sol\":20107:20123  minHoldingAmount */\n      sload(0x08)\n        /* \"test-erc-2.sol\":20097:20103  amount */\n      dup2\n        /* \"test-erc-2.sol\":20075:20094  super.balanceOf(to) */\n      tag_250\n        /* \"test-erc-2.sol\":20091:20093  to */\n      dup5\n        /* \"test-erc-2.sol\":20075:20090  super.balanceOf */\n      tag_81\n        /* \"test-erc-2.sol\":20075:20094  super.balanceOf(to) */\n      jump\t// in\n    tag_250:\n        /* \"test-erc-2.sol\":20075:20103  super.balanceOf(to) + amount */\n      tag_251\n      swap2\n      swap1\n      tag_141\n      jump\t// in\n    tag_251:\n        /* \"test-erc-2.sol\":20075:20123  super.balanceOf(to) + amount >= minHoldingAmount */\n      lt\n      iszero\n        /* \"test-erc-2.sol\":20023:20123  super.balanceOf(to) + amount <= maxHoldingAmount && super.balanceOf(to) + amount >= minHoldingAmount */\n    tag_249:\n        /* \"test-erc-2.sol\":20015:20134  require(super.balanceOf(to) + amount <= maxHoldingAmount && super.balanceOf(to) + amount >= minHoldingAmount, \"Forbid\") */\n      tag_252\n      jumpi\n      mload(0x40)\n      0x08c379a000000000000000000000000000000000000000000000000000000000\n      dup2\n      mstore\n      0x04\n      add\n      tag_253\n      swap1\n      tag_254\n      jump\t// in\n    tag_253:\n      mload(0x40)\n      dup1\n      swap2\n      sub\n      swap1\n      revert\n    tag_252:\n        /* \"test-erc-2.sol\":19963:20145  if (limited && from == uniswapV2Pair) {... */\n    tag_246:\n        /* \"test-erc-2.sol\":19599:20151  function _beforeTokenTransfer(... */\n    tag_233:\n      pop\n      pop\n      pop\n      jump\t// out\n        /* \"test-erc-2.sol\":18635:18755  function _afterTokenTransfer(... */\n    tag_219:\n      pop\n      pop\n      pop\n      jump\t// out\n        /* \"#utility.yul\":7:106   */\n    tag_256:\n        /* \"#utility.yul\":59:65   */\n      0x00\n        /* \"#utility.yul\":93:98   */\n      dup2\n        /* \"#utility.yul\":87:99   */\n      mload\n        /* \"#utility.yul\":77:99   */\n      swap1\n      pop\n        /* \"#utility.yul\":7:106   */\n      swap2\n      swap1\n      pop\n      jump\t// out\n        /* \"#utility.yul\":112:281   */\n    tag_257:\n        /* \"#utility.yul\":196:207   */\n      0x00\n        /* \"#utility.yul\":230:236   */\n      dup3\n        /* \"#utility.yul\":225:228   */\n      dup3\n        /* \"#utility.yul\":218:237   */\n      mstore\n        /* \"#utility.yul\":270:274   */\n      0x20\n        /* \"#utility.yul\":265:268   */\n      dup3\n        /* \"#utility.yul\":261:275   */\n      add\n        /* \"#utility.yul\":246:275   */\n      swap1\n      pop\n        /* \"#utility.yul\":112:281   */\n      swap3\n      swap2\n      pop\n      pop\n      jump\t// out\n        /* \"#utility.yul\":287:426   */\n    tag_258:\n        /* \"#utility.yul\":376:382   */\n      dup3\n        /* \"#utility.yul\":371:374   */\n      dup2\n        /* \"#utility.yul\":366:369   */\n      dup4\n        /* \"#utility.yul\":360:383   */\n      mcopy\n        /* \"#utility.yul\":417:418   */\n      0x00\n        /* \"#utility.yul\":408:414   */\n      dup4\n        /* \"#utility.yul\":403:406   */\n      dup4\n        /* \"#utility.yul\":399:415   */\n      add\n        /* \"#utility.yul\":392:419   */\n      mstore\n        /* \"#utility.yul\":287:426   */\n      pop\n      pop\n      pop\n      jump\t// out\n        /* \"#utility.yul\":432:534   */\n    tag_259:\n        /* \"#utility.yul\":473:479   */\n      0x00\n        /* \"#utility.yul\":524:526   */\n      0x1f\n        /* \"#utility.yul\":520:527   */\n      not\n        /* \"#utility.yul\":515:517   */\n      0x1f\n        /* \"#utility.yul\":508:513   */\n      dup4\n        /* \"#utility.yul\":504:518   */\n      add\n        /* \"#utility.yul\":500:528   */\n      and\n        /* \"#utility.yul\":490:528   */\n      swap1\n      pop\n        /* \"#utility.yul\":432:534   */\n      swap2\n      swap1\n      pop\n      jump\t// out\n        /* \"#utility.yul\":540:917   */\n    tag_260:\n        /* \"#utility.yul\":628:631   */\n      0x00\n        /* \"#utility.yul\":656:695   */\n      tag_315\n        /* \"#utility.yul\":689:694   */\n      dup3\n        /* \"#utility.yul\":656:695   */\n      tag_256\n      jump\t// in\n    tag_315:\n        /* \"#utility.yul\":711:782   */\n      tag_316\n        /* \"#utility.yul\":775:781   */\n      dup2\n        /* \"#utility.yul\":770:773   */\n      dup6\n        /* \"#utility.yul\":711:782   */\n      tag_257\n      jump\t// in\n    tag_316:\n        /* \"#utility.yul\":704:782   */\n      swap4\n      pop\n        /* \"#utility.yul\":791:856   */\n      tag_317\n        /* \"#utility.yul\":849:855   */\n      dup2\n        /* \"#utility.yul\":844:847   */\n      dup6\n        /* \"#utility.yul\":837:841   */\n      0x20\n        /* \"#utility.yul\":830:835   */\n      dup7\n        /* \"#utility.yul\":826:842   */\n      add\n        /* \"#utility.yul\":791:856   */\n      tag_258\n      jump\t// in\n    tag_317:\n        /* \"#utility.yul\":881:910   */\n      tag_318\n        /* \"#utility.yul\":903:909   */\n      dup2\n        /* \"#utility.yul\":881:910   */\n      tag_259\n      jump\t// in\n    tag_318:\n        /* \"#utility.yul\":876:879   */\n      dup5\n        /* \"#utility.yul\":872:911   */\n      add\n        /* \"#utility.yul\":865:911   */\n      swap2\n      pop\n        /* \"#utility.yul\":632:917   */\n      pop\n        /* \"#utility.yul\":540:917   */\n      swap3\n      swap2\n      pop\n      pop\n      jump\t// out\n        /* \"#utility.yul\":923:1236   */\n    tag_31:\n        /* \"#utility.yul\":1036:1040   */\n      0x00\n        /* \"#utility.yul\":1074:1076   */\n      0x20\n        /* \"#utility.yul\":1063:1072   */\n      dup3\n        /* \"#utility.yul\":1059:1077   */\n      add\n        /* \"#utility.yul\":1051:1077   */\n      swap1\n      pop\n        /* \"#utility.yul\":1123:1132   */\n      dup2\n        /* \"#utility.yul\":1117:1121   */\n      dup2\n        /* \"#utility.yul\":1113:1133   */\n      sub\n        /* \"#utility.yul\":1109:1110   */\n      0x00\n        /* \"#utility.yul\":1098:1107   */\n      dup4\n        /* \"#utility.yul\":1094:1111   */\n      add\n        /* \"#utility.yul\":1087:1134   */\n      mstore\n        /* \"#utility.yul\":1151:1229   */\n      tag_320\n        /* \"#utility.yul\":1224:1228   */\n      dup2\n        /* \"#utility.yul\":1215:1221   */\n      dup5\n        /* \"#utility.yul\":1151:1229   */\n      tag_260\n      jump\t// in\n    tag_320:\n        /* \"#utility.yul\":1143:1229   */\n      swap1\n      pop\n        /* \"#utility.yul\":923:1236   */\n      swap3\n      swap2\n      pop\n      pop\n      jump\t// out\n        /* \"#utility.yul\":1323:1440   */\n    tag_262:\n        /* \"#utility.yul\":1432:1433   */\n      0x00\n        /* \"#utility.yul\":1429:1430   */\n      0x00\n        /* \"#utility.yul\":1422:1434   */\n      revert\n        /* \"#utility.yul\":1569:1695   */\n    tag_264:\n        /* \"#utility.yul\":1606:1613   */\n      0x00\n        /* \"#utility.yul\":1646:1688   */\n      0xffffffffffffffffffffffffffffffffffffffff\n        /* \"#utility.yul\":1639:1644   */\n      dup3\n        /* \"#utility.yul\":1635:1689   */\n      and\n        /* \"#utility.yul\":1624:1689   */\n      swap1\n      pop\n        /* \"#utility.yul\":1569:1695   */\n      swap2\n      swap1\n      pop\n      jump\t// out\n        /* \"#utility.yul\":1701:1797   */\n    tag_265:\n        /* \"#utility.yul\":1738:1745   */\n      0x00\n        /* \"#utility.yul\":1767:1791   */\n      tag_326\n        /* \"#utility.yul\":1785:1790   */\n      dup3\n        /* \"#utility.yul\":1767:1791   */\n      tag_264\n      jump\t// in\n    tag_326:\n        /* \"#utility.yul\":1756:1791   */\n      swap1\n      pop\n        /* \"#utility.yul\":1701:1797   */\n      swap2\n      swap1\n      pop\n      jump\t// out\n        /* \"#utility.yul\":1803:1925   */\n    tag_266:\n        /* \"#utility.yul\":1876:1900   */\n      tag_328\n        /* \"#utility.yul\":1894:1899   */\n      dup2\n        /* \"#utility.yul\":1876:1900   */\n      tag_265\n      jump\t// in\n    tag_328:\n        /* \"#utility.yul\":1869:1874   */\n      dup2\n        /* \"#utility.yul\":1866:1901   */\n      eq\n        /* \"#utility.yul\":1856:1919   */\n      tag_329\n      jumpi\n        /* \"#utility.yul\":1915:1916   */\n      0x00\n        /* \"#utility.yul\":1912:1913   */\n      0x00\n        /* \"#utility.yul\":1905:1917   */\n      revert\n        /* \"#utility.yul\":1856:1919   */\n    tag_329:\n        /* \"#utility.yul\":1803:1925   */\n      pop\n      jump\t// out\n        /* \"#utility.yul\":1931:2070   */\n    tag_267:\n        /* \"#utility.yul\":1977:1982   */\n      0x00\n        /* \"#utility.yul\":2015:2021   */\n      dup2\n        /* \"#utility.yul\":2002:2022   */\n      calldataload\n        /* \"#utility.yul\":1993:2022   */\n      swap1\n      pop\n        /* \"#utility.yul\":2031:2064   */\n      tag_331\n        /* \"#utility.yul\":2058:2063   */\n      dup2\n        /* \"#utility.yul\":2031:2064   */\n      tag_266\n      jump\t// in\n    tag_331:\n        /* \"#utility.yul\":1931:2070   */\n      swap3\n      swap2\n      pop\n      pop\n      jump\t// out\n        /* \"#utility.yul\":2076:2153   */\n    tag_268:\n        /* \"#utility.yul\":2113:2120   */\n      0x00\n        /* \"#utility.yul\":2142:2147   */\n      dup2\n        /* \"#utility.yul\":2131:2147   */\n      swap1\n      pop\n        /* \"#utility.yul\":2076:2153   */\n      swap2\n      swap1\n      pop\n      jump\t// out\n        /* \"#utility.yul\":2159:2281   */\n    tag_269:\n        /* \"#utility.yul\":2232:2256   */\n      tag_334\n        /* \"#utility.yul\":2250:2255   */\n      dup2\n        /* \"#utility.yul\":2232:2256   */\n      tag_268\n      jump\t// in\n    tag_334:\n        /* \"#utility.yul\":2225:2230   */\n      dup2\n        /* \"#utility.yul\":2222:2257   */\n      eq\n        /* \"#utility.yul\":2212:2275   */\n      tag_335\n      jumpi\n        /* \"#utility.yul\":2271:2272   */\n      0x00\n        /* \"#utility.yul\":2268:2269   */\n      0x00\n        /* \"#utility.yul\":2261:2273   */\n      revert\n        /* \"#utility.yul\":2212:2275   */\n    tag_335:\n        /* \"#utility.yul\":2159:2281   */\n      pop\n      jump\t// out\n        /* \"#utility.yul\":2287:2426   */\n    tag_270:\n        /* \"#utility.yul\":2333:2338   */\n      0x00\n        /* \"#utility.yul\":2371:2377   */\n      dup2\n        /* \"#utility.yul\":2358:2378   */\n      calldataload\n        /* \"#utility.yul\":2349:2378   */\n      swap1\n      pop\n        /* \"#utility.yul\":2387:2420   */\n      tag_337\n        /* \"#utility.yul\":2414:2419   */\n      dup2\n        /* \"#utility.yul\":2387:2420   */\n      tag_269\n      jump\t// in\n    tag_337:\n        /* \"#utility.yul\":2287:2426   */\n      swap3\n      swap2\n      pop\n      pop\n      jump\t// out\n        /* \"#utility.yul\":2432:2906   */\n    tag_34:\n        /* \"#utility.yul\":2500:2506   */\n      0x00\n        /* \"#utility.yul\":2508:2514   */\n      0x00\n        /* \"#utility.yul\":2557:2559   */\n      0x40\n        /* \"#utility.yul\":2545:2554   */\n      dup4\n        /* \"#utility.yul\":2536:2543   */\n      dup6\n        /* \"#utility.yul\":2532:2555   */\n      sub\n        /* \"#utility.yul\":2528:2560   */\n      slt\n        /* \"#utility.yul\":2525:2644   */\n      iszero\n      tag_339\n      jumpi\n        /* \"#utility.yul\":2563:2642   */\n      tag_340\n      tag_262\n      jump\t// in\n    tag_340:\n        /* \"#utility.yul\":2525:2644   */\n    tag_339:\n        /* \"#utility.yul\":2683:2684   */\n      0x00\n        /* \"#utility.yul\":2708:2761   */\n      tag_341\n        /* \"#utility.yul\":2753:2760   */\n      dup6\n        /* \"#utility.yul\":2744:2750   */\n      dup3\n        /* \"#utility.yul\":2733:2742   */\n      dup7\n        /* \"#utility.yul\":2729:2751   */\n      add\n        /* \"#utility.yul\":2708:2761   */\n      tag_267\n      jump\t// in\n    tag_341:\n        /* \"#utility.yul\":2698:2761   */\n      swap3\n      pop\n        /* \"#utility.yul\":2654:2771   */\n      pop\n        /* \"#utility.yul\":2810:2812   */\n      0x20\n        /* \"#utility.yul\":2836:2889   */\n      tag_342\n        /* \"#utility.yul\":2881:2888   */\n      dup6\n        /* \"#utility.yul\":2872:2878   */\n      dup3\n        /* \"#utility.yul\":2861:2870   */\n      dup7\n        /* \"#utility.yul\":2857:2879   */\n      add\n        /* \"#utility.yul\":2836:2889   */\n      tag_270\n      jump\t// in\n    tag_342:\n        /* \"#utility.yul\":2826:2889   */\n      swap2\n      pop\n        /* \"#utility.yul\":2781:2899   */\n      pop\n        /* \"#utility.yul\":2432:2906   */\n      swap3\n      pop\n      swap3\n      swap1\n      pop\n      jump\t// out\n        /* \"#utility.yul\":2912:3002   */\n    tag_271:\n        /* \"#utility.yul\":2946:2953   */\n      0x00\n        /* \"#utility.yul\":2989:2994   */\n      dup2\n        /* \"#utility.yul\":2982:2995   */\n      iszero\n        /* \"#utility.yul\":2975:2996   */\n      iszero\n        /* \"#utility.yul\":2964:2996   */\n      swap1\n      pop\n        /* \"#utility.yul\":2912:3002   */\n      swap2\n      swap1\n      pop\n      jump\t// out\n        /* \"#utility.yul\":3008:3117   */\n    tag_272:\n        /* \"#utility.yul\":3089:3110   */\n      tag_345\n        /* \"#utility.yul\":3104:3109   */\n      dup2\n        /* \"#utility.yul\":3089:3110   */\n      tag_271\n      jump\t// in\n    tag_345:\n        /* \"#utility.yul\":3084:3087   */\n      dup3\n        /* \"#utility.yul\":3077:3111   */\n      mstore\n        /* \"#utility.yul\":3008:3117   */\n      pop\n      pop\n      jump\t// out\n        /* \"#utility.yul\":3123:3333   */\n    tag_37:\n        /* \"#utility.yul\":3210:3214   */\n      0x00\n        /* \"#utility.yul\":3248:3250   */\n      0x20\n        /* \"#utility.yul\":3237:3246   */\n      dup3\n        /* \"#utility.yul\":3233:3251   */\n      add\n        /* \"#utility.yul\":3225:3251   */\n      swap1\n      pop\n        /* \"#utility.yul\":3261:3326   */\n      tag_347\n        /* \"#utility.yul\":3323:3324   */\n      0x00\n        /* \"#utility.yul\":3312:3321   */\n      dup4\n        /* \"#utility.yul\":3308:3325   */\n      add\n        /* \"#utility.yul\":3299:3305   */\n      dup5\n        /* \"#utility.yul\":3261:3326   */\n      tag_272\n      jump\t// in\n    tag_347:\n        /* \"#utility.yul\":3123:3333   */\n      swap3\n      swap2\n      pop\n      pop\n      jump\t// out\n        /* \"#utility.yul\":3339:3668   */\n    tag_40:\n        /* \"#utility.yul\":3398:3404   */\n      0x00\n        /* \"#utility.yul\":3447:3449   */\n      0x20\n        /* \"#utility.yul\":3435:3444   */\n      dup3\n        /* \"#utility.yul\":3426:3433   */\n      dup5\n        /* \"#utility.yul\":3422:3445   */\n      sub\n        /* \"#utility.yul\":3418:3450   */\n      slt\n        /* \"#utility.yul\":3415:3534   */\n      iszero\n      tag_349\n      jumpi\n        /* \"#utility.yul\":3453:3532   */\n      tag_350\n      tag_262\n      jump\t// in\n    tag_350:\n        /* \"#utility.yul\":3415:3534   */\n    tag_349:\n        /* \"#utility.yul\":3573:3574   */\n      0x00\n        /* \"#utility.yul\":3598:3651   */\n      tag_351\n        /* \"#utility.yul\":3643:3650   */\n      dup5\n        /* \"#utility.yul\":3634:3640   */\n      dup3\n        /* \"#utility.yul\":3623:3632   */\n      dup6\n        /* \"#utility.yul\":3619:3641   */\n      add\n        /* \"#utility.yul\":3598:3651   */\n      tag_267\n      jump\t// in\n    tag_351:\n        /* \"#utility.yul\":3588:3651   */\n      swap2\n      pop\n        /* \"#utility.yul\":3544:3661   */\n      pop\n        /* \"#utility.yul\":3339:3668   */\n      swap3\n      swap2\n      pop\n      pop\n      jump\t// out\n        /* \"#utility.yul\":3674:3792   */\n    tag_273:\n        /* \"#utility.yul\":3761:3785   */\n      tag_353\n        /* \"#utility.yul\":3779:3784   */\n      dup2\n        /* \"#utility.yul\":3761:3785   */\n      tag_268\n      jump\t// in\n    tag_353:\n        /* \"#utility.yul\":3756:3759   */\n      dup3\n        /* \"#utility.yul\":3749:3786   */\n      mstore\n        /* \"#utility.yul\":3674:3792   */\n      pop\n      pop\n      jump\t// out\n        /* \"#utility.yul\":3798:4020   */\n    tag_46:\n        /* \"#utility.yul\":3891:3895   */\n      0x00\n        /* \"#utility.yul\":3929:3931   */\n      0x20\n        /* \"#utility.yul\":3918:3927   */\n      dup3\n        /* \"#utility.yul\":3914:3932   */\n      add\n        /* \"#utility.yul\":3906:3932   */\n      swap1\n      pop\n        /* \"#utility.yul\":3942:4013   */\n      tag_355\n        /* \"#utility.yul\":4010:4011   */\n      0x00\n        /* \"#utility.yul\":3999:4008   */\n      dup4\n        /* \"#utility.yul\":3995:4012   */\n      add\n        /* \"#utility.yul\":3986:3992   */\n      dup5\n        /* \"#utility.yul\":3942:4013   */\n      tag_273\n      jump\t// in\n    tag_355:\n        /* \"#utility.yul\":3798:4020   */\n      swap3\n      swap2\n      pop\n      pop\n      jump\t// out\n        /* \"#utility.yul\":4026:4645   */\n    tag_52:\n        /* \"#utility.yul\":4103:4109   */\n      0x00\n        /* \"#utility.yul\":4111:4117   */\n      0x00\n        /* \"#utility.yul\":4119:4125   */\n      0x00\n        /* \"#utility.yul\":4168:4170   */\n      0x60\n        /* \"#utility.yul\":4156:4165   */\n      dup5\n        /* \"#utility.yul\":4147:4154   */\n      dup7\n        /* \"#utility.yul\":4143:4166   */\n      sub\n        /* \"#utility.yul\":4139:4171   */\n      slt\n        /* \"#utility.yul\":4136:4255   */\n      iszero\n      tag_357\n      jumpi\n        /* \"#utility.yul\":4174:4253   */\n      tag_358\n      tag_262\n      jump\t// in\n    tag_358:\n        /* \"#utility.yul\":4136:4255   */\n    tag_357:\n        /* \"#utility.yul\":4294:4295   */\n      0x00\n        /* \"#utility.yul\":4319:4372   */\n      tag_359\n        /* \"#utility.yul\":4364:4371   */\n      dup7\n        /* \"#utility.yul\":4355:4361   */\n      dup3\n        /* \"#utility.yul\":4344:4353   */\n      dup8\n        /* \"#utility.yul\":4340:4362   */\n      add\n        /* \"#utility.yul\":4319:4372   */\n      tag_267\n      jump\t// in\n    tag_359:\n        /* \"#utility.yul\":4309:4372   */\n      swap4\n      pop\n        /* \"#utility.yul\":4265:4382   */\n      pop\n        /* \"#utility.yul\":4421:4423   */\n      0x20\n        /* \"#utility.yul\":4447:4500   */\n      tag_360\n        /* \"#utility.yul\":4492:4499   */\n      dup7\n        /* \"#utility.yul\":4483:4489   */\n      dup3\n        /* \"#utility.yul\":4472:4481   */\n      dup8\n        /* \"#utility.yul\":4468:4490   */\n      add\n        /* \"#utility.yul\":4447:4500   */\n      tag_267\n      jump\t// in\n    tag_360:\n        /* \"#utility.yul\":4437:4500   */\n      swap3\n      pop\n        /* \"#utility.yul\":4392:4510   */\n      pop\n        /* \"#utility.yul\":4549:4551   */\n      0x40\n        /* \"#utility.yul\":4575:4628   */\n      tag_361\n        /* \"#utility.yul\":4620:4627   */\n      dup7\n        /* \"#utility.yul\":4611:4617   */\n      dup3\n        /* \"#utility.yul\":4600:4609   */\n      dup8\n        /* \"#utility.yul\":4596:4618   */\n      add\n        /* \"#utility.yul\":4575:4628   */\n      tag_270\n      jump\t// in\n    tag_361:\n        /* \"#utility.yul\":4565:4628   */\n      swap2\n      pop\n        /* \"#utility.yul\":4520:4638   */\n      pop\n        /* \"#utility.yul\":4026:4645   */\n      swap3\n      pop\n      swap3\n      pop\n      swap3\n      jump\t// out\n        /* \"#utility.yul\":4651:4737   */\n    tag_274:\n        /* \"#utility.yul\":4686:4693   */\n      0x00\n        /* \"#utility.yul\":4726:4730   */\n      0xff\n        /* \"#utility.yul\":4719:4724   */\n      dup3\n        /* \"#utility.yul\":4715:4731   */\n      and\n        /* \"#utility.yul\":4704:4731   */\n      swap1\n      pop\n        /* \"#utility.yul\":4651:4737   */\n      swap2\n      swap1\n      pop\n      jump\t// out\n        /* \"#utility.yul\":4743:4855   */\n    tag_275:\n        /* \"#utility.yul\":4826:4848   */\n      tag_364\n        /* \"#utility.yul\":4842:4847   */\n      dup2\n        /* \"#utility.yul\":4826:4848   */\n      tag_274\n      jump\t// in\n    tag_364:\n        /* \"#utility.yul\":4821:4824   */\n      dup3\n        /* \"#utility.yul\":4814:4849   */\n      mstore\n        /* \"#utility.yul\":4743:4855   */\n      pop\n      pop\n      jump\t// out\n        /* \"#utility.yul\":4861:5075   */\n    tag_58:\n        /* \"#utility.yul\":4950:4954   */\n      0x00\n        /* \"#utility.yul\":4988:4990   */\n      0x20\n        /* \"#utility.yul\":4977:4986   */\n      dup3\n        /* \"#utility.yul\":4973:4991   */\n      add\n        /* \"#utility.yul\":4965:4991   */\n      swap1\n      pop\n        /* \"#utility.yul\":5001:5068   */\n      tag_366\n        /* \"#utility.yul\":5065:5066   */\n      0x00\n        /* \"#utility.yul\":5054:5063   */\n      dup4\n        /* \"#utility.yul\":5050:5067   */\n      add\n        /* \"#utility.yul\":5041:5047   */\n      dup5\n        /* \"#utility.yul\":5001:5068   */\n      tag_275\n      jump\t// in\n    tag_366:\n        /* \"#utility.yul\":4861:5075   */\n      swap3\n      swap2\n      pop\n      pop\n      jump\t// out\n        /* \"#utility.yul\":5081:5197   */\n    tag_276:\n        /* \"#utility.yul\":5151:5172   */\n      tag_368\n        /* \"#utility.yul\":5166:5171   */\n      dup2\n        /* \"#utility.yul\":5151:5172   */\n      tag_271\n      jump\t// in\n    tag_368:\n        /* \"#utility.yul\":5144:5149   */\n      dup2\n        /* \"#utility.yul\":5141:5173   */\n      eq\n        /* \"#utility.yul\":5131:5191   */\n      tag_369\n      jumpi\n        /* \"#utility.yul\":5187:5188   */\n      0x00\n        /* \"#utility.yul\":5184:5185   */\n      0x00\n        /* \"#utility.yul\":5177:5189   */\n      revert\n        /* \"#utility.yul\":5131:5191   */\n    tag_369:\n        /* \"#utility.yul\":5081:5197   */\n      pop\n      jump\t// out\n        /* \"#utility.yul\":5203:5336   */\n    tag_277:\n        /* \"#utility.yul\":5246:5251   */\n      0x00\n        /* \"#utility.yul\":5284:5290   */\n      dup2\n        /* \"#utility.yul\":5271:5291   */\n      calldataload\n        /* \"#utility.yul\":5262:5291   */\n      swap1\n      pop\n        /* \"#utility.yul\":5300:5330   */\n      tag_371\n        /* \"#utility.yul\":5324:5329   */\n      dup2\n        /* \"#utility.yul\":5300:5330   */\n      tag_276\n      jump\t// in\n    tag_371:\n        /* \"#utility.yul\":5203:5336   */\n      swap3\n      swap2\n      pop\n      pop\n      jump\t// out\n        /* \"#utility.yul\":5342:6101   */\n    tag_65:\n        /* \"#utility.yul\":5425:5431   */\n      0x00\n        /* \"#utility.yul\":5433:5439   */\n      0x00\n        /* \"#utility.yul\":5441:5447   */\n      0x00\n        /* \"#utility.yul\":5449:5455   */\n      0x00\n        /* \"#utility.yul\":5498:5501   */\n      0x80\n        /* \"#utility.yul\":5486:5495   */\n      dup6\n        /* \"#utility.yul\":5477:5484   */\n      dup8\n        /* \"#utility.yul\":5473:5496   */\n      sub\n        /* \"#utility.yul\":5469:5502   */\n      slt\n        /* \"#utility.yul\":5466:5586   */\n      iszero\n      tag_373\n      jumpi\n        /* \"#utility.yul\":5505:5584   */\n      tag_374\n      tag_262\n      jump\t// in\n    tag_374:\n        /* \"#utility.yul\":5466:5586   */\n    tag_373:\n        /* \"#utility.yul\":5625:5626   */\n      0x00\n        /* \"#utility.yul\":5650:5700   */\n      tag_375\n        /* \"#utility.yul\":5692:5699   */\n      dup8\n        /* \"#utility.yul\":5683:5689   */\n      dup3\n        /* \"#utility.yul\":5672:5681   */\n      dup9\n        /* \"#utility.yul\":5668:5690   */\n      add\n        /* \"#utility.yul\":5650:5700   */\n      tag_277\n      jump\t// in\n    tag_375:\n        /* \"#utility.yul\":5640:5700   */\n      swap5\n      pop\n        /* \"#utility.yul\":5596:5710   */\n      pop\n        /* \"#utility.yul\":5749:5751   */\n      0x20\n        /* \"#utility.yul\":5775:5828   */\n      tag_376\n        /* \"#utility.yul\":5820:5827   */\n      dup8\n        /* \"#utility.yul\":5811:5817   */\n      dup3\n        /* \"#utility.yul\":5800:5809   */\n      dup9\n        /* \"#utility.yul\":5796:5818   */\n      add\n        /* \"#utility.yul\":5775:5828   */\n      tag_267\n      jump\t// in\n    tag_376:\n        /* \"#utility.yul\":5765:5828   */\n      swap4\n      pop\n        /* \"#utility.yul\":5720:5838   */\n      pop\n        /* \"#utility.yul\":5877:5879   */\n      0x40\n        /* \"#utility.yul\":5903:5956   */\n      tag_377\n        /* \"#utility.yul\":5948:5955   */\n      dup8\n        /* \"#utility.yul\":5939:5945   */\n      dup3\n        /* \"#utility.yul\":5928:5937   */\n      dup9\n        /* \"#utility.yul\":5924:5946   */\n      add\n        /* \"#utility.yul\":5903:5956   */\n      tag_270\n      jump\t// in\n    tag_377:\n        /* \"#utility.yul\":5893:5956   */\n      swap3\n      pop\n        /* \"#utility.yul\":5848:5966   */\n      pop\n        /* \"#utility.yul\":6005:6007   */\n      0x60\n        /* \"#utility.yul\":6031:6084   */\n      tag_378\n        /* \"#utility.yul\":6076:6083   */\n      dup8\n        /* \"#utility.yul\":6067:6073   */\n      dup3\n        /* \"#utility.yul\":6056:6065   */\n      dup9\n        /* \"#utility.yul\":6052:6074   */\n      add\n        /* \"#utility.yul\":6031:6084   */\n      tag_270\n      jump\t// in\n    tag_378:\n        /* \"#utility.yul\":6021:6084   */\n      swap2\n      pop\n        /* \"#utility.yul\":5976:6094   */\n      pop\n        /* \"#utility.yul\":5342:6101   */\n      swap3\n      swap6\n      swap2\n      swap5\n      pop\n      swap3\n      pop\n      jump\t// out\n        /* \"#utility.yul\":6107:6575   */\n    tag_69:\n        /* \"#utility.yul\":6172:6178   */\n      0x00\n        /* \"#utility.yul\":6180:6186   */\n      0x00\n        /* \"#utility.yul\":6229:6231   */\n      0x40\n        /* \"#utility.yul\":6217:6226   */\n      dup4\n        /* \"#utility.yul\":6208:6215   */\n      dup6\n        /* \"#utility.yul\":6204:6227   */\n      sub\n        /* \"#utility.yul\":6200:6232   */\n      slt\n        /* \"#utility.yul\":6197:6316   */\n      iszero\n      tag_380\n      jumpi\n        /* \"#utility.yul\":6235:6314   */\n      tag_381\n      tag_262\n      jump\t// in\n    tag_381:\n        /* \"#utility.yul\":6197:6316   */\n    tag_380:\n        /* \"#utility.yul\":6355:6356   */\n      0x00\n        /* \"#utility.yul\":6380:6433   */\n      tag_382\n        /* \"#utility.yul\":6425:6432   */\n      dup6\n        /* \"#utility.yul\":6416:6422   */\n      dup3\n        /* \"#utility.yul\":6405:6414   */\n      dup7\n        /* \"#utility.yul\":6401:6423   */\n      add\n        /* \"#utility.yul\":6380:6433   */\n      tag_267\n      jump\t// in\n    tag_382:\n        /* \"#utility.yul\":6370:6433   */\n      swap3\n      pop\n        /* \"#utility.yul\":6326:6443   */\n      pop\n        /* \"#utility.yul\":6482:6484   */\n      0x20\n        /* \"#utility.yul\":6508:6558   */\n      tag_383\n        /* \"#utility.yul\":6550:6557   */\n      dup6\n        /* \"#utility.yul\":6541:6547   */\n      dup3\n        /* \"#utility.yul\":6530:6539   */\n      dup7\n        /* \"#utility.yul\":6526:6548   */\n      add\n        /* \"#utility.yul\":6508:6558   */\n      tag_277\n      jump\t// in\n    tag_383:\n        /* \"#utility.yul\":6498:6558   */\n      swap2\n      pop\n        /* \"#utility.yul\":6453:6568   */\n      pop\n        /* \"#utility.yul\":6107:6575   */\n      swap3\n      pop\n      swap3\n      swap1\n      pop\n      jump\t// out\n        /* \"#utility.yul\":6581:6910   */\n    tag_73:\n        /* \"#utility.yul\":6640:6646   */\n      0x00\n        /* \"#utility.yul\":6689:6691   */\n      0x20\n        /* \"#utility.yul\":6677:6686   */\n      dup3\n        /* \"#utility.yul\":6668:6675   */\n      dup5\n        /* \"#utility.yul\":6664:6687   */\n      sub\n        /* \"#utility.yul\":6660:6692   */\n      slt\n        /* \"#utility.yul\":6657:6776   */\n      iszero\n      tag_385\n      jumpi\n        /* \"#utility.yul\":6695:6774   */\n      tag_386\n      tag_262\n      jump\t// in\n    tag_386:\n        /* \"#utility.yul\":6657:6776   */\n    tag_385:\n        /* \"#utility.yul\":6815:6816   */\n      0x00\n        /* \"#utility.yul\":6840:6893   */\n      tag_387\n        /* \"#utility.yul\":6885:6892   */\n      dup5\n        /* \"#utility.yul\":6876:6882   */\n      dup3\n        /* \"#utility.yul\":6865:6874   */\n      dup6\n        /* \"#utility.yul\":6861:6883   */\n      add\n        /* \"#utility.yul\":6840:6893   */\n      tag_270\n      jump\t// in\n    tag_387:\n        /* \"#utility.yul\":6830:6893   */\n      swap2\n      pop\n        /* \"#utility.yul\":6786:6903   */\n      pop\n        /* \"#utility.yul\":6581:6910   */\n      swap3\n      swap2\n      pop\n      pop\n      jump\t// out\n        /* \"#utility.yul\":6916:7034   */\n    tag_278:\n        /* \"#utility.yul\":7003:7027   */\n      tag_389\n        /* \"#utility.yul\":7021:7026   */\n      dup2\n        /* \"#utility.yul\":7003:7027   */\n      tag_265\n      jump\t// in\n    tag_389:\n        /* \"#utility.yul\":6998:7001   */\n      dup3\n        /* \"#utility.yul\":6991:7028   */\n      mstore\n        /* \"#utility.yul\":6916:7034   */\n      pop\n      pop\n      jump\t// out\n        /* \"#utility.yul\":7040:7262   */\n    tag_78:\n        /* \"#utility.yul\":7133:7137   */\n      0x00\n        /* \"#utility.yul\":7171:7173   */\n      0x20\n        /* \"#utility.yul\":7160:7169   */\n      dup3\n        /* \"#utility.yul\":7156:7174   */\n      add\n        /* \"#utility.yul\":7148:7174   */\n      swap1\n      pop\n        /* \"#utility.yul\":7184:7255   */\n      tag_391\n        /* \"#utility.yul\":7252:7253   */\n      0x00\n        /* \"#utility.yul\":7241:7250   */\n      dup4\n        /* \"#utility.yul\":7237:7254   */\n      add\n        /* \"#utility.yul\":7228:7234   */\n      dup5\n        /* \"#utility.yul\":7184:7255   */\n      tag_278\n      jump\t// in\n    tag_391:\n        /* \"#utility.yul\":7040:7262   */\n      swap3\n      swap2\n      pop\n      pop\n      jump\t// out\n        /* \"#utility.yul\":7268:7742   */\n    tag_107:\n        /* \"#utility.yul\":7336:7342   */\n      0x00\n        /* \"#utility.yul\":7344:7350   */\n      0x00\n        /* \"#utility.yul\":7393:7395   */\n      0x40\n        /* \"#utility.yul\":7381:7390   */\n      dup4\n        /* \"#utility.yul\":7372:7379   */\n      dup6\n        /* \"#utility.yul\":7368:7391   */\n      sub\n        /* \"#utility.yul\":7364:7396   */\n      slt\n        /* \"#utility.yul\":7361:7480   */\n      iszero\n      tag_393\n      jumpi\n        /* \"#utility.yul\":7399:7478   */\n      tag_394\n      tag_262\n      jump\t// in\n    tag_394:\n        /* \"#utility.yul\":7361:7480   */\n    tag_393:\n        /* \"#utility.yul\":7519:7520   */\n      0x00\n        /* \"#utility.yul\":7544:7597   */\n      tag_395\n        /* \"#utility.yul\":7589:7596   */\n      dup6\n        /* \"#utility.yul\":7580:7586   */\n      dup3\n        /* \"#utility.yul\":7569:7578   */\n      dup7\n        /* \"#utility.yul\":7565:7587   */\n      add\n        /* \"#utility.yul\":7544:7597   */\n      tag_267\n      jump\t// in\n    tag_395:\n        /* \"#utility.yul\":7534:7597   */\n      swap3\n      pop\n        /* \"#utility.yul\":7490:7607   */\n      pop\n        /* \"#utility.yul\":7646:7648   */\n      0x20\n        /* \"#utility.yul\":7672:7725   */\n      tag_396\n        /* \"#utility.yul\":7717:7724   */\n      dup6\n        /* \"#utility.yul\":7708:7714   */\n      dup3\n        /* \"#utility.yul\":7697:7706   */\n      dup7\n        /* \"#utility.yul\":7693:7715   */\n      add\n        /* \"#utility.yul\":7672:7725   */\n      tag_267\n      jump\t// in\n    tag_396:\n        /* \"#utility.yul\":7662:7725   */\n      swap2\n      pop\n        /* \"#utility.yul\":7617:7735   */\n      pop\n        /* \"#utility.yul\":7268:7742   */\n      swap3\n      pop\n      swap3\n      swap1\n      pop\n      jump\t// out\n        /* \"#utility.yul\":7748:7928   */\n    tag_279:\n        /* \"#utility.yul\":7796:7873   */\n      0x4e487b7100000000000000000000000000000000000000000000000000000000\n        /* \"#utility.yul\":7793:7794   */\n      0x00\n        /* \"#utility.yul\":7786:7874   */\n      mstore\n        /* \"#utility.yul\":7893:7897   */\n      0x22\n        /* \"#utility.yul\":7890:7891   */\n      0x04\n        /* \"#utility.yul\":7883:7898   */\n      mstore\n        /* \"#utility.yul\":7917:7921   */\n      0x24\n        /* \"#utility.yul\":7914:7915   */\n      0x00\n        /* \"#utility.yul\":7907:7922   */\n      revert\n        /* \"#utility.yul\":7934:8254   */\n    tag_115:\n        /* \"#utility.yul\":7978:7984   */\n      0x00\n        /* \"#utility.yul\":8015:8016   */\n      0x02\n        /* \"#utility.yul\":8009:8013   */\n      dup3\n        /* \"#utility.yul\":8005:8017   */\n      div\n        /* \"#utility.yul\":7995:8017   */\n      swap1\n      pop\n        /* \"#utility.yul\":8062:8063   */\n      0x01\n        /* \"#utility.yul\":8056:8060   */\n      dup3\n        /* \"#utility.yul\":8052:8064   */\n      and\n        /* \"#utility.yul\":8083:8101   */\n      dup1\n        /* \"#utility.yul\":8073:8154   */\n      tag_399\n      jumpi\n        /* \"#utility.yul\":8139:8143   */\n      0x7f\n        /* \"#utility.yul\":8131:8137   */\n      dup3\n        /* \"#utility.yul\":8127:8144   */\n      and\n        /* \"#utility.yul\":8117:8144   */\n      swap2\n      pop\n        /* \"#utility.yul\":8073:8154   */\n    tag_399:\n        /* \"#utility.yul\":8201:8203   */\n      0x20\n        /* \"#utility.yul\":8193:8199   */\n      dup3\n        /* \"#utility.yul\":8190:8204   */\n      lt\n        /* \"#utility.yul\":8170:8188   */\n      dup2\n        /* \"#utility.yul\":8167:8205   */\n      sub\n        /* \"#utility.yul\":8164:8248   */\n      tag_400\n      jumpi\n        /* \"#utility.yul\":8220:8238   */\n      tag_401\n      tag_279\n      jump\t// in\n    tag_401:\n        /* \"#utility.yul\":8164:8248   */\n    tag_400:\n        /* \"#utility.yul\":7985:8254   */\n      pop\n        /* \"#utility.yul\":7934:8254   */\n      swap2\n      swap1\n      pop\n      jump\t// out\n        /* \"#utility.yul\":8260:8487   */\n    tag_280:\n        /* \"#utility.yul\":8400:8434   */\n      0x45524332303a207472616e7366657220616d6f756e7420657863656564732061\n        /* \"#utility.yul\":8396:8397   */\n      0x00\n        /* \"#utility.yul\":8388:8394   */\n      dup3\n        /* \"#utility.yul\":8384:8398   */\n      add\n        /* \"#utility.yul\":8377:8435   */\n      mstore\n        /* \"#utility.yul\":8469:8479   */\n      0x6c6c6f77616e6365000000000000000000000000000000000000000000000000\n        /* \"#utility.yul\":8464:8466   */\n      0x20\n        /* \"#utility.yul\":8456:8462   */\n      dup3\n        /* \"#utility.yul\":8452:8467   */\n      add\n        /* \"#utility.yul\":8445:8480   */\n      mstore\n        /* \"#utility.yul\":8260:8487   */\n      pop\n      jump\t// out\n        /* \"#utility.yul\":8493:8859   */\n    tag_281:\n        /* \"#utility.yul\":8635:8638   */\n      0x00\n        /* \"#utility.yul\":8656:8723   */\n      tag_404\n        /* \"#utility.yul\":8720:8722   */\n      0x28\n        /* \"#utility.yul\":8715:8718   */\n      dup4\n        /* \"#utility.yul\":8656:8723   */\n      tag_257\n      jump\t// in\n    tag_404:\n        /* \"#utility.yul\":8649:8723   */\n      swap2\n      pop\n        /* \"#utility.yul\":8732:8825   */\n      tag_405\n        /* \"#utility.yul\":8821:8824   */\n      dup3\n        /* \"#utility.yul\":8732:8825   */\n      tag_280\n      jump\t// in\n    tag_405:\n        /* \"#utility.yul\":8850:8852   */\n      0x40\n        /* \"#utility.yul\":8845:8848   */\n      dup3\n        /* \"#utility.yul\":8841:8853   */\n      add\n        /* \"#utility.yul\":8834:8853   */\n      swap1\n      pop\n        /* \"#utility.yul\":8493:8859   */\n      swap2\n      swap1\n      pop\n      jump\t// out\n        /* \"#utility.yul\":8865:9284   */\n    tag_132:\n        /* \"#utility.yul\":9031:9035   */\n      0x00\n        /* \"#utility.yul\":9069:9071   */\n      0x20\n        /* \"#utility.yul\":9058:9067   */\n      dup3\n        /* \"#utility.yul\":9054:9072   */\n      add\n        /* \"#utility.yul\":9046:9072   */\n      swap1\n      pop\n        /* \"#utility.yul\":9118:9127   */\n      dup2\n        /* \"#utility.yul\":9112:9116   */\n      dup2\n        /* \"#utility.yul\":9108:9128   */\n      sub\n        /* \"#utility.yul\":9104:9105   */\n      0x00\n        /* \"#utility.yul\":9093:9102   */\n      dup4\n        /* \"#utility.yul\":9089:9106   */\n      add\n        /* \"#utility.yul\":9082:9129   */\n      mstore\n        /* \"#utility.yul\":9146:9277   */\n      tag_407\n        /* \"#utility.yul\":9272:9276   */\n      dup2\n        /* \"#utility.yul\":9146:9277   */\n      tag_281\n      jump\t// in\n    tag_407:\n        /* \"#utility.yul\":9138:9277   */\n      swap1\n      pop\n        /* \"#utility.yul\":8865:9284   */\n      swap2\n      swap1\n      pop\n      jump\t// out\n        /* \"#utility.yul\":9290:9470   */\n    tag_282:\n        /* \"#utility.yul\":9338:9415   */\n      0x4e487b7100000000000000000000000000000000000000000000000000000000\n        /* \"#utility.yul\":9335:9336   */\n      0x00\n        /* \"#utility.yul\":9328:9416   */\n      mstore\n        /* \"#utility.yul\":9435:9439   */\n      0x11\n        /* \"#utility.yul\":9432:9433   */\n      0x04\n        /* \"#utility.yul\":9425:9440   */\n      mstore\n        /* \"#utility.yul\":9459:9463   */\n      0x24\n        /* \"#utility.yul\":9456:9457   */\n      0x00\n        /* \"#utility.yul\":9449:9464   */\n      revert\n        /* \"#utility.yul\":9476:9667   */\n    tag_141:\n        /* \"#utility.yul\":9516:9519   */\n      0x00\n        /* \"#utility.yul\":9535:9555   */\n      tag_410\n        /* \"#utility.yul\":9553:9554   */\n      dup3\n        /* \"#utility.yul\":9535:9555   */\n      tag_268\n      jump\t// in\n    tag_410:\n        /* \"#utility.yul\":9530:9555   */\n      swap2\n      pop\n        /* \"#utility.yul\":9569:9589   */\n      tag_411\n        /* \"#utility.yul\":9587:9588   */\n      dup4\n        /* \"#utility.yul\":9569:9589   */\n      tag_268\n      jump\t// in\n    tag_411:\n        /* \"#utility.yul\":9564:9589   */\n      swap3\n      pop\n        /* \"#utility.yul\":9612:9613   */\n      dup3\n        /* \"#utility.yul\":9609:9610   */\n      dup3\n        /* \"#utility.yul\":9605:9614   */\n      add\n        /* \"#utility.yul\":9598:9614   */\n      swap1\n      pop\n        /* \"#utility.yul\":9633:9636   */\n      dup1\n        /* \"#utility.yul\":9630:9631   */\n      dup3\n        /* \"#utility.yul\":9627:9637   */\n      gt\n        /* \"#utility.yul\":9624:9660   */\n      iszero\n      tag_412\n      jumpi\n        /* \"#utility.yul\":9640:9658   */\n      tag_413\n      tag_282\n      jump\t// in\n    tag_413:\n        /* \"#utility.yul\":9624:9660   */\n    tag_412:\n        /* \"#utility.yul\":9476:9667   */\n      swap3\n      swap2\n      pop\n      pop\n      jump\t// out\n        /* \"#utility.yul\":9673:9855   */\n    tag_283:\n        /* \"#utility.yul\":9813:9847   */\n      0x4f776e61626c653a2063616c6c6572206973206e6f7420746865206f776e6572\n        /* \"#utility.yul\":9809:9810   */\n      0x00\n        /* \"#utility.yul\":9801:9807   */\n      dup3\n        /* \"#utility.yul\":9797:9811   */\n      add\n        /* \"#utility.yul\":9790:9848   */\n      mstore\n        /* \"#utility.yul\":9673:9855   */\n      pop\n      jump\t// out\n        /* \"#utility.yul\":9861:10227   */\n    tag_284:\n        /* \"#utility.yul\":10003:10006   */\n      0x00\n        /* \"#utility.yul\":10024:10091   */\n      tag_416\n        /* \"#utility.yul\":10088:10090   */\n      0x20\n        /* \"#utility.yul\":10083:10086   */\n      dup4\n        /* \"#utility.yul\":10024:10091   */\n      tag_257\n      jump\t// in\n    tag_416:\n        /* \"#utility.yul\":10017:10091   */\n      swap2\n      pop\n        /* \"#utility.yul\":10100:10193   */\n      tag_417\n        /* \"#utility.yul\":10189:10192   */\n      dup3\n        /* \"#utility.yul\":10100:10193   */\n      tag_283\n      jump\t// in\n    tag_417:\n        /* \"#utility.yul\":10218:10220   */\n      0x20\n        /* \"#utility.yul\":10213:10216   */\n      dup3\n        /* \"#utility.yul\":10209:10221   */\n      add\n        /* \"#utility.yul\":10202:10221   */\n      swap1\n      pop\n        /* \"#utility.yul\":9861:10227   */\n      swap2\n      swap1\n      pop\n      jump\t// out\n        /* \"#utility.yul\":10233:10652   */\n    tag_147:\n        /* \"#utility.yul\":10399:10403   */\n      0x00\n        /* \"#utility.yul\":10437:10439   */\n      0x20\n        /* \"#utility.yul\":10426:10435   */\n      dup3\n        /* \"#utility.yul\":10422:10440   */\n      add\n        /* \"#utility.yul\":10414:10440   */\n      swap1\n      pop\n        /* \"#utility.yul\":10486:10495   */\n      dup2\n        /* \"#utility.yul\":10480:10484   */\n      dup2\n        /* \"#utility.yul\":10476:10496   */\n      sub\n        /* \"#utility.yul\":10472:10473   */\n      0x00\n        /* \"#utility.yul\":10461:10470   */\n      dup4\n        /* \"#utility.yul\":10457:10474   */\n      add\n        /* \"#utility.yul\":10450:10497   */\n      mstore\n        /* \"#utility.yul\":10514:10645   */\n      tag_419\n        /* \"#utility.yul\":10640:10644   */\n      dup2\n        /* \"#utility.yul\":10514:10645   */\n      tag_284\n      jump\t// in\n    tag_419:\n        /* \"#utility.yul\":10506:10645   */\n      swap1\n      pop\n        /* \"#utility.yul\":10233:10652   */\n      swap2\n      swap1\n      pop\n      jump\t// out\n        /* \"#utility.yul\":10658:10882   */\n    tag_285:\n        /* \"#utility.yul\":10798:10832   */\n      0x45524332303a2064656372656173656420616c6c6f77616e63652062656c6f77\n        /* \"#utility.yul\":10794:10795   */\n      0x00\n        /* \"#utility.yul\":10786:10792   */\n      dup3\n        /* \"#utility.yul\":10782:10796   */\n      add\n        /* \"#utility.yul\":10775:10833   */\n      mstore\n        /* \"#utility.yul\":10867:10874   */\n      0x207a65726f000000000000000000000000000000000000000000000000000000\n        /* \"#utility.yul\":10862:10864   */\n      0x20\n        /* \"#utility.yul\":10854:10860   */\n      dup3\n        /* \"#utility.yul\":10850:10865   */\n      add\n        /* \"#utility.yul\":10843:10875   */\n      mstore\n        /* \"#utility.yul\":10658:10882   */\n      pop\n      jump\t// out\n        /* \"#utility.yul\":10888:11254   */\n    tag_286:\n        /* \"#utility.yul\":11030:11033   */\n      0x00\n        /* \"#utility.yul\":11051:11118   */\n      tag_422\n        /* \"#utility.yul\":11115:11117   */\n      0x25\n        /* \"#utility.yul\":11110:11113   */\n      dup4\n        /* \"#utility.yul\":11051:11118   */\n      tag_257\n      jump\t// in\n    tag_422:\n        /* \"#utility.yul\":11044:11118   */\n      swap2\n      pop\n        /* \"#utility.yul\":11127:11220   */\n      tag_423\n        /* \"#utility.yul\":11216:11219   */\n      dup3\n        /* \"#utility.yul\":11127:11220   */\n      tag_285\n      jump\t// in\n    tag_423:\n        /* \"#utility.yul\":11245:11247   */\n      0x40\n        /* \"#utility.yul\":11240:11243   */\n      dup3\n        /* \"#utility.yul\":11236:11248   */\n      add\n        /* \"#utility.yul\":11229:11248   */\n      swap1\n      pop\n        /* \"#utility.yul\":10888:11254   */\n      swap2\n      swap1\n      pop\n      jump\t// out\n        /* \"#utility.yul\":11260:11679   */\n    tag_178:\n        /* \"#utility.yul\":11426:11430   */\n      0x00\n        /* \"#utility.yul\":11464:11466   */\n      0x20\n        /* \"#utility.yul\":11453:11462   */\n      dup3\n        /* \"#utility.yul\":11449:11467   */\n      add\n        /* \"#utility.yul\":11441:11467   */\n      swap1\n      pop\n        /* \"#utility.yul\":11513:11522   */\n      dup2\n        /* \"#utility.yul\":11507:11511   */\n      dup2\n        /* \"#utility.yul\":11503:11523   */\n      sub\n        /* \"#utility.yul\":11499:11500   */\n      0x00\n        /* \"#utility.yul\":11488:11497   */\n      dup4\n        /* \"#utility.yul\":11484:11501   */\n      add\n        /* \"#utility.yul\":11477:11524   */\n      mstore\n        /* \"#utility.yul\":11541:11672   */\n      tag_425\n        /* \"#utility.yul\":11667:11671   */\n      dup2\n        /* \"#utility.yul\":11541:11672   */\n      tag_286\n      jump\t// in\n    tag_425:\n        /* \"#utility.yul\":11533:11672   */\n      swap1\n      pop\n        /* \"#utility.yul\":11260:11679   */\n      swap2\n      swap1\n      pop\n      jump\t// out\n        /* \"#utility.yul\":11685:11910   */\n    tag_287:\n        /* \"#utility.yul\":11825:11859   */\n      0x4f776e61626c653a206e6577206f776e657220697320746865207a65726f2061\n        /* \"#utility.yul\":11821:11822   */\n      0x00\n        /* \"#utility.yul\":11813:11819   */\n      dup3\n        /* \"#utility.yul\":11809:11823   */\n      add\n        /* \"#utility.yul\":11802:11860   */\n      mstore\n        /* \"#utility.yul\":11894:11902   */\n      0x6464726573730000000000000000000000000000000000000000000000000000\n        /* \"#utility.yul\":11889:11891   */\n      0x20\n        /* \"#utility.yul\":11881:11887   */\n      dup3\n        /* \"#utility.yul\":11877:11892   */\n      add\n        /* \"#utility.yul\":11870:11903   */\n      mstore\n        /* \"#utility.yul\":11685:11910   */\n      pop\n      jump\t// out\n        /* \"#utility.yul\":11916:12282   */\n    tag_288:\n        /* \"#utility.yul\":12058:12061   */\n      0x00\n        /* \"#utility.yul\":12079:12146   */\n      tag_428\n        /* \"#utility.yul\":12143:12145   */\n      0x26\n        /* \"#utility.yul\":12138:12141   */\n      dup4\n        /* \"#utility.yul\":12079:12146   */\n      tag_257\n      jump\t// in\n    tag_428:\n        /* \"#utility.yul\":12072:12146   */\n      swap2\n      pop\n        /* \"#utility.yul\":12155:12248   */\n      tag_429\n        /* \"#utility.yul\":12244:12247   */\n      dup3\n        /* \"#utility.yul\":12155:12248   */\n      tag_287\n      jump\t// in\n    tag_429:\n        /* \"#utility.yul\":12273:12275   */\n      0x40\n        /* \"#utility.yul\":12268:12271   */\n      dup3\n        /* \"#utility.yul\":12264:12276   */\n      add\n        /* \"#utility.yul\":12257:12276   */\n      swap1\n      pop\n        /* \"#utility.yul\":11916:12282   */\n      swap2\n      swap1\n      pop\n      jump\t// out\n        /* \"#utility.yul\":12288:12707   */\n    tag_193:\n        /* \"#utility.yul\":12454:12458   */\n      0x00\n        /* \"#utility.yul\":12492:12494   */\n      0x20\n        /* \"#utility.yul\":12481:12490   */\n      dup3\n        /* \"#utility.yul\":12477:12495   */\n      add\n        /* \"#utility.yul\":12469:12495   */\n      swap1\n      pop\n        /* \"#utility.yul\":12541:12550   */\n      dup2\n        /* \"#utility.yul\":12535:12539   */\n      dup2\n        /* \"#utility.yul\":12531:12551   */\n      sub\n        /* \"#utility.yul\":12527:12528   */\n      0x00\n        /* \"#utility.yul\":12516:12525   */\n      dup4\n        /* \"#utility.yul\":12512:12529   */\n      add\n        /* \"#utility.yul\":12505:12552   */\n      mstore\n        /* \"#utility.yul\":12569:12700   */\n      tag_431\n        /* \"#utility.yul\":12695:12699   */\n      dup2\n        /* \"#utility.yul\":12569:12700   */\n      tag_288\n      jump\t// in\n    tag_431:\n        /* \"#utility.yul\":12561:12700   */\n      swap1\n      pop\n        /* \"#utility.yul\":12288:12707   */\n      swap2\n      swap1\n      pop\n      jump\t// out\n        /* \"#utility.yul\":12713:12936   */\n    tag_289:\n        /* \"#utility.yul\":12853:12887   */\n      0x45524332303a20617070726f76652066726f6d20746865207a65726f20616464\n        /* \"#utility.yul\":12849:12850   */\n      0x00\n        /* \"#utility.yul\":12841:12847   */\n      dup3\n        /* \"#utility.yul\":12837:12851   */\n      add\n        /* \"#utility.yul\":12830:12888   */\n      mstore\n        /* \"#utility.yul\":12922:12928   */\n      0x7265737300000000000000000000000000000000000000000000000000000000\n        /* \"#utility.yul\":12917:12919   */\n      0x20\n        /* \"#utility.yul\":12909:12915   */\n      dup3\n        /* \"#utility.yul\":12905:12920   */\n      add\n        /* \"#utility.yul\":12898:12929   */\n      mstore\n        /* \"#utility.yul\":12713:12936   */\n      pop\n      jump\t// out\n        /* \"#utility.yul\":12942:13308   */\n    tag_290:\n        /* \"#utility.yul\":13084:13087   */\n      0x00\n        /* \"#utility.yul\":13105:13172   */\n      tag_434\n        /* \"#utility.yul\":13169:13171   */\n      0x24\n        /* \"#utility.yul\":13164:13167   */\n      dup4\n        /* \"#utility.yul\":13105:13172   */\n      tag_257\n      jump\t// in\n    tag_434:\n        /* \"#utility.yul\":13098:13172   */\n      swap2\n      pop\n        /* \"#utility.yul\":13181:13274   */\n      tag_435\n        /* \"#utility.yul\":13270:13273   */\n      dup3\n        /* \"#utility.yul\":13181:13274   */\n      tag_289\n      jump\t// in\n    tag_435:\n        /* \"#utility.yul\":13299:13301   */\n      0x40\n        /* \"#utility.yul\":13294:13297   */\n      dup3\n        /* \"#utility.yul\":13290:13302   */\n      add\n        /* \"#utility.yul\":13283:13302   */\n      swap1\n      pop\n        /* \"#utility.yul\":12942:13308   */\n      swap2\n      swap1\n      pop\n      jump\t// out\n        /* \"#utility.yul\":13314:13733   */\n    tag_199:\n        /* \"#utility.yul\":13480:13484   */\n      0x00\n        /* \"#utility.yul\":13518:13520   */\n      0x20\n        /* \"#utility.yul\":13507:13516   */\n      dup3\n        /* \"#utility.yul\":13503:13521   */\n      add\n        /* \"#utility.yul\":13495:13521   */\n      swap1\n      pop\n        /* \"#utility.yul\":13567:13576   */\n      dup2\n        /* \"#utility.yul\":13561:13565   */\n      dup2\n        /* \"#utility.yul\":13557:13577   */\n      sub\n        /* \"#utility.yul\":13553:13554   */\n      0x00\n        /* \"#utility.yul\":13542:13551   */\n      dup4\n        /* \"#utility.yul\":13538:13555   */\n      add\n        /* \"#utility.yul\":13531:13578   */\n      mstore\n        /* \"#utility.yul\":13595:13726   */\n      tag_437\n        /* \"#utility.yul\":13721:13725   */\n      dup2\n        /* \"#utility.yul\":13595:13726   */\n      tag_290\n      jump\t// in\n    tag_437:\n        /* \"#utility.yul\":13587:13726   */\n      swap1\n      pop\n        /* \"#utility.yul\":13314:13733   */\n      swap2\n      swap1\n      pop\n      jump\t// out\n        /* \"#utility.yul\":13739:13960   */\n    tag_291:\n        /* \"#utility.yul\":13879:13913   */\n      0x45524332303a20617070726f766520746f20746865207a65726f206164647265\n        /* \"#utility.yul\":13875:13876   */\n      0x00\n        /* \"#utility.yul\":13867:13873   */\n      dup3\n        /* \"#utility.yul\":13863:13877   */\n      add\n        /* \"#utility.yul\":13856:13914   */\n      mstore\n        /* \"#utility.yul\":13948:13952   */\n      0x7373000000000000000000000000000000000000000000000000000000000000\n        /* \"#utility.yul\":13943:13945   */\n      0x20\n        /* \"#utility.yul\":13935:13941   */\n      dup3\n        /* \"#utility.yul\":13931:13946   */\n      add\n        /* \"#utility.yul\":13924:13953   */\n      mstore\n        /* \"#utility.yul\":13739:13960   */\n      pop\n      jump\t// out\n        /* \"#utility.yul\":13966:14332   */\n    tag_292:\n        /* \"#utility.yul\":14108:14111   */\n      0x00\n        /* \"#utility.yul\":14129:14196   */\n      tag_440\n        /* \"#utility.yul\":14193:14195   */\n      0x22\n        /* \"#utility.yul\":14188:14191   */\n      dup4\n        /* \"#utility.yul\":14129:14196   */\n      tag_257\n      jump\t// in\n    tag_440:\n        /* \"#utility.yul\":14122:14196   */\n      swap2\n      pop\n        /* \"#utility.yul\":14205:14298   */\n      tag_441\n        /* \"#utility.yul\":14294:14297   */\n      dup3\n        /* \"#utility.yul\":14205:14298   */\n      tag_291\n      jump\t// in\n    tag_441:\n        /* \"#utility.yul\":14323:14325   */\n      0x40\n        /* \"#utility.yul\":14318:14321   */\n      dup3\n        /* \"#utility.yul\":14314:14326   */\n      add\n        /* \"#utility.yul\":14307:14326   */\n      swap1\n      pop\n        /* \"#utility.yul\":13966:14332   */\n      swap2\n      swap1\n      pop\n      jump\t// out\n        /* \"#utility.yul\":14338:14757   */\n    tag_202:\n        /* \"#utility.yul\":14504:14508   */\n      0x00\n        /* \"#utility.yul\":14542:14544   */\n      0x20\n        /* \"#utility.yul\":14531:14540   */\n      dup3\n        /* \"#utility.yul\":14527:14545   */\n      add\n        /* \"#utility.yul\":14519:14545   */\n      swap1\n      pop\n        /* \"#utility.yul\":14591:14600   */\n      dup2\n        /* \"#utility.yul\":14585:14589   */\n      dup2\n        /* \"#utility.yul\":14581:14601   */\n      sub\n        /* \"#utility.yul\":14577:14578   */\n      0x00\n        /* \"#utility.yul\":14566:14575   */\n      dup4\n        /* \"#utility.yul\":14562:14579   */\n      add\n        /* \"#utility.yul\":14555:14602   */\n      mstore\n        /* \"#utility.yul\":14619:14750   */\n      tag_443\n        /* \"#utility.yul\":14745:14749   */\n      dup2\n        /* \"#utility.yul\":14619:14750   */\n      tag_292\n      jump\t// in\n    tag_443:\n        /* \"#utility.yul\":14611:14750   */\n      swap1\n      pop\n        /* \"#utility.yul\":14338:14757   */\n      swap2\n      swap1\n      pop\n      jump\t// out\n        /* \"#utility.yul\":14763:14987   */\n    tag_293:\n        /* \"#utility.yul\":14903:14937   */\n      0x45524332303a207472616e736665722066726f6d20746865207a65726f206164\n        /* \"#utility.yul\":14899:14900   */\n      0x00\n        /* \"#utility.yul\":14891:14897   */\n      dup3\n        /* \"#utility.yul\":14887:14901   */\n      add\n        /* \"#utility.yul\":14880:14938   */\n      mstore\n        /* \"#utility.yul\":14972:14979   */\n      0x6472657373000000000000000000000000000000000000000000000000000000\n        /* \"#utility.yul\":14967:14969   */\n      0x20\n        /* \"#utility.yul\":14959:14965   */\n      dup3\n        /* \"#utility.yul\":14955:14970   */\n      add\n        /* \"#utility.yul\":14948:14980   */\n      mstore\n        /* \"#utility.yul\":14763:14987   */\n      pop\n      jump\t// out\n        /* \"#utility.yul\":14993:15359   */\n    tag_294:\n        /* \"#utility.yul\":15135:15138   */\n      0x00\n        /* \"#utility.yul\":15156:15223   */\n      tag_446\n        /* \"#utility.yul\":15220:15222   */\n      0x25\n        /* \"#utility.yul\":15215:15218   */\n      dup4\n        /* \"#utility.yul\":15156:15223   */\n      tag_257\n      jump\t// in\n    tag_446:\n        /* \"#utility.yul\":15149:15223   */\n      swap2\n      pop\n        /* \"#utility.yul\":15232:15325   */\n      tag_447\n        /* \"#utility.yul\":15321:15324   */\n      dup3\n        /* \"#utility.yul\":15232:15325   */\n      tag_293\n      jump\t// in\n    tag_447:\n        /* \"#utility.yul\":15350:15352   */\n      0x40\n        /* \"#utility.yul\":15345:15348   */\n      dup3\n        /* \"#utility.yul\":15341:15353   */\n      add\n        /* \"#utility.yul\":15334:15353   */\n      swap1\n      pop\n        /* \"#utility.yul\":14993:15359   */\n      swap2\n      swap1\n      pop\n      jump\t// out\n        /* \"#utility.yul\":15365:15784   */\n    tag_207:\n        /* \"#utility.yul\":15531:15535   */\n      0x00\n        /* \"#utility.yul\":15569:15571   */\n      0x20\n        /* \"#utility.yul\":15558:15567   */\n      dup3\n        /* \"#utility.yul\":15554:15572   */\n      add\n        /* \"#utility.yul\":15546:15572   */\n      swap1\n      pop\n        /* \"#utility.yul\":15618:15627   */\n      dup2\n        /* \"#utility.yul\":15612:15616   */\n      dup2\n        /* \"#utility.yul\":15608:15628   */\n      sub\n        /* \"#utility.yul\":15604:15605   */\n      0x00\n        /* \"#utility.yul\":15593:15602   */\n      dup4\n        /* \"#utility.yul\":15589:15606   */\n      add\n        /* \"#utility.yul\":15582:15629   */\n      mstore\n        /* \"#utility.yul\":15646:15777   */\n      tag_449\n        /* \"#utility.yul\":15772:15776   */\n      dup2\n        /* \"#utility.yul\":15646:15777   */\n      tag_294\n      jump\t// in\n    tag_449:\n        /* \"#utility.yul\":15638:15777   */\n      swap1\n      pop\n        /* \"#utility.yul\":15365:15784   */\n      swap2\n      swap1\n      pop\n      jump\t// out\n        /* \"#utility.yul\":15790:16012   */\n    tag_295:\n        /* \"#utility.yul\":15930:15964   */\n      0x45524332303a207472616e7366657220746f20746865207a65726f2061646472\n        /* \"#utility.yul\":15926:15927   */\n      0x00\n        /* \"#utility.yul\":15918:15924   */\n      dup3\n        /* \"#utility.yul\":15914:15928   */\n      add\n        /* \"#utility.yul\":15907:15965   */\n      mstore\n        /* \"#utility.yul\":15999:16004   */\n      0x6573730000000000000000000000000000000000000000000000000000000000\n        /* \"#utility.yul\":15994:15996   */\n      0x20\n        /* \"#utility.yul\":15986:15992   */\n      dup3\n        /* \"#utility.yul\":15982:15997   */\n      add\n        /* \"#utility.yul\":15975:16005   */\n      mstore\n        /* \"#utility.yul\":15790:16012   */\n      pop\n      jump\t// out\n        /* \"#utility.yul\":16018:16384   */\n    tag_296:\n        /* \"#utility.yul\":16160:16163   */\n      0x00\n        /* \"#utility.yul\":16181:16248   */\n      tag_452\n        /* \"#utility.yul\":16245:16247   */\n      0x23\n        /* \"#utility.yul\":16240:16243   */\n      dup4\n        /* \"#utility.yul\":16181:16248   */\n      tag_257\n      jump\t// in\n    tag_452:\n        /* \"#utility.yul\":16174:16248   */\n      swap2\n      pop\n        /* \"#utility.yul\":16257:16350   */\n      tag_453\n        /* \"#utility.yul\":16346:16349   */\n      dup3\n        /* \"#utility.yul\":16257:16350   */\n      tag_295\n      jump\t// in\n    tag_453:\n        /* \"#utility.yul\":16375:16377   */\n      0x40\n        /* \"#utility.yul\":16370:16373   */\n      dup3\n        /* \"#utility.yul\":16366:16378   */\n      add\n        /* \"#utility.yul\":16359:16378   */\n      swap1\n      pop\n        /* \"#utility.yul\":16018:16384   */\n      swap2\n      swap1\n      pop\n      jump\t// out\n        /* \"#utility.yul\":16390:16809   */\n    tag_210:\n        /* \"#utility.yul\":16556:16560   */\n      0x00\n        /* \"#utility.yul\":16594:16596   */\n      0x20\n        /* \"#utility.yul\":16583:16592   */\n      dup3\n        /* \"#utility.yul\":16579:16597   */\n      add\n        /* \"#utility.yul\":16571:16597   */\n      swap1\n      pop\n        /* \"#utility.yul\":16643:16652   */\n      dup2\n        /* \"#utility.yul\":16637:16641   */\n      dup2\n        /* \"#utility.yul\":16633:16653   */\n      sub\n        /* \"#utility.yul\":16629:16630   */\n      0x00\n        /* \"#utility.yul\":16618:16627   */\n      dup4\n        /* \"#utility.yul\":16614:16631   */\n      add\n        /* \"#utility.yul\":16607:16654   */\n      mstore\n        /* \"#utility.yul\":16671:16802   */\n      tag_455\n        /* \"#utility.yul\":16797:16801   */\n      dup2\n        /* \"#utility.yul\":16671:16802   */\n      tag_296\n      jump\t// in\n    tag_455:\n        /* \"#utility.yul\":16663:16802   */\n      swap1\n      pop\n        /* \"#utility.yul\":16390:16809   */\n      swap2\n      swap1\n      pop\n      jump\t// out\n        /* \"#utility.yul\":16815:17040   */\n    tag_297:\n        /* \"#utility.yul\":16955:16989   */\n      0x45524332303a207472616e7366657220616d6f756e7420657863656564732062\n        /* \"#utility.yul\":16951:16952   */\n      0x00\n        /* \"#utility.yul\":16943:16949   */\n      dup3\n        /* \"#utility.yul\":16939:16953   */\n      add\n        /* \"#utility.yul\":16932:16990   */\n      mstore\n        /* \"#utility.yul\":17024:17032   */\n      0x616c616e63650000000000000000000000000000000000000000000000000000\n        /* \"#utility.yul\":17019:17021   */\n      0x20\n        /* \"#utility.yul\":17011:17017   */\n      dup3\n        /* \"#utility.yul\":17007:17022   */\n      add\n        /* \"#utility.yul\":17000:17033   */\n      mstore\n        /* \"#utility.yul\":16815:17040   */\n      pop\n      jump\t// out\n        /* \"#utility.yul\":17046:17412   */\n    tag_298:\n        /* \"#utility.yul\":17188:17191   */\n      0x00\n        /* \"#utility.yul\":17209:17276   */\n      tag_458\n        /* \"#utility.yul\":17273:17275   */\n      0x26\n        /* \"#utility.yul\":17268:17271   */\n      dup4\n        /* \"#utility.yul\":17209:17276   */\n      tag_257\n      jump\t// in\n    tag_458:\n        /* \"#utility.yul\":17202:17276   */\n      swap2\n      pop\n        /* \"#utility.yul\":17285:17378   */\n      tag_459\n        /* \"#utility.yul\":17374:17377   */\n      dup3\n        /* \"#utility.yul\":17285:17378   */\n      tag_297\n      jump\t// in\n    tag_459:\n        /* \"#utility.yul\":17403:17405   */\n      0x40\n        /* \"#utility.yul\":17398:17401   */\n      dup3\n        /* \"#utility.yul\":17394:17406   */\n      add\n        /* \"#utility.yul\":17387:17406   */\n      swap1\n      pop\n        /* \"#utility.yul\":17046:17412   */\n      swap2\n      swap1\n      pop\n      jump\t// out\n        /* \"#utility.yul\":17418:17837   */\n    tag_215:\n        /* \"#utility.yul\":17584:17588   */\n      0x00\n        /* \"#utility.yul\":17622:17624   */\n      0x20\n        /* \"#utility.yul\":17611:17620   */\n      dup3\n        /* \"#utility.yul\":17607:17625   */\n      add\n        /* \"#utility.yul\":17599:17625   */\n      swap1\n      pop\n        /* \"#utility.yul\":17671:17680   */\n      dup2\n        /* \"#utility.yul\":17665:17669   */\n      dup2\n        /* \"#utility.yul\":17661:17681   */\n      sub\n        /* \"#utility.yul\":17657:17658   */\n      0x00\n        /* \"#utility.yul\":17646:17655   */\n      dup4\n        /* \"#utility.yul\":17642:17659   */\n      add\n        /* \"#utility.yul\":17635:17682   */\n      mstore\n        /* \"#utility.yul\":17699:17830   */\n      tag_461\n        /* \"#utility.yul\":17825:17829   */\n      dup2\n        /* \"#utility.yul\":17699:17830   */\n      tag_298\n      jump\t// in\n    tag_461:\n        /* \"#utility.yul\":17691:17830   */\n      swap1\n      pop\n        /* \"#utility.yul\":17418:17837   */\n      swap2\n      swap1\n      pop\n      jump\t// out\n        /* \"#utility.yul\":17843:18063   */\n    tag_299:\n        /* \"#utility.yul\":17983:18017   */\n      0x45524332303a206275726e2066726f6d20746865207a65726f20616464726573\n        /* \"#utility.yul\":17979:17980   */\n      0x00\n        /* \"#utility.yul\":17971:17977   */\n      dup3\n        /* \"#utility.yul\":17967:17981   */\n      add\n        /* \"#utility.yul\":17960:18018   */\n      mstore\n        /* \"#utility.yul\":18052:18055   */\n      0x7300000000000000000000000000000000000000000000000000000000000000\n        /* \"#utility.yul\":18047:18049   */\n      0x20\n        /* \"#utility.yul\":18039:18045   */\n      dup3\n        /* \"#utility.yul\":18035:18050   */\n      add\n        /* \"#utility.yul\":18028:18056   */\n      mstore\n        /* \"#utility.yul\":17843:18063   */\n      pop\n      jump\t// out\n        /* \"#utility.yul\":18069:18435   */\n    tag_300:\n        /* \"#utility.yul\":18211:18214   */\n      0x00\n        /* \"#utility.yul\":18232:18299   */\n      tag_464\n        /* \"#utility.yul\":18296:18298   */\n      0x21\n        /* \"#utility.yul\":18291:18294   */\n      dup4\n        /* \"#utility.yul\":18232:18299   */\n      tag_257\n      jump\t// in\n    tag_464:\n        /* \"#utility.yul\":18225:18299   */\n      swap2\n      pop\n        /* \"#utility.yul\":18308:18401   */\n      tag_465\n        /* \"#utility.yul\":18397:18400   */\n      dup3\n        /* \"#utility.yul\":18308:18401   */\n      tag_299\n      jump\t// in\n    tag_465:\n        /* \"#utility.yul\":18426:18428   */\n      0x40\n        /* \"#utility.yul\":18421:18424   */\n      dup3\n        /* \"#utility.yul\":18417:18429   */\n      add\n        /* \"#utility.yul\":18410:18429   */\n      swap1\n      pop\n        /* \"#utility.yul\":18069:18435   */\n      swap2\n      swap1\n      pop\n      jump\t// out\n        /* \"#utility.yul\":18441:18860   */\n    tag_223:\n        /* \"#utility.yul\":18607:18611   */\n      0x00\n        /* \"#utility.yul\":18645:18647   */\n      0x20\n        /* \"#utility.yul\":18634:18643   */\n      dup3\n        /* \"#utility.yul\":18630:18648   */\n      add\n        /* \"#utility.yul\":18622:18648   */\n      swap1\n      pop\n        /* \"#utility.yul\":18694:18703   */\n      dup2\n        /* \"#utility.yul\":18688:18692   */\n      dup2\n        /* \"#utility.yul\":18684:18704   */\n      sub\n        /* \"#utility.yul\":18680:18681   */\n      0x00\n        /* \"#utility.yul\":18669:18678   */\n      dup4\n        /* \"#utility.yul\":18665:18682   */\n      add\n        /* \"#utility.yul\":18658:18705   */\n      mstore\n        /* \"#utility.yul\":18722:18853   */\n      tag_467\n        /* \"#utility.yul\":18848:18852   */\n      dup2\n        /* \"#utility.yul\":18722:18853   */\n      tag_300\n      jump\t// in\n    tag_467:\n        /* \"#utility.yul\":18714:18853   */\n      swap1\n      pop\n        /* \"#utility.yul\":18441:18860   */\n      swap2\n      swap1\n      pop\n      jump\t// out\n        /* \"#utility.yul\":18866:19087   */\n    tag_301:\n        /* \"#utility.yul\":19006:19040   */\n      0x45524332303a206275726e20616d6f756e7420657863656564732062616c616e\n        /* \"#utility.yul\":19002:19003   */\n      0x00\n        /* \"#utility.yul\":18994:19000   */\n      dup3\n        /* \"#utility.yul\":18990:19004   */\n      add\n        /* \"#utility.yul\":18983:19041   */\n      mstore\n        /* \"#utility.yul\":19075:19079   */\n      0x6365000000000000000000000000000000000000000000000000000000000000\n        /* \"#utility.yul\":19070:19072   */\n      0x20\n        /* \"#utility.yul\":19062:19068   */\n      dup3\n        /* \"#utility.yul\":19058:19073   */\n      add\n        /* \"#utility.yul\":19051:19080   */\n      mstore\n        /* \"#utility.yul\":18866:19087   */\n      pop\n      jump\t// out\n        /* \"#utility.yul\":19093:19459   */\n    tag_302:\n        /* \"#utility.yul\":19235:19238   */\n      0x00\n        /* \"#utility.yul\":19256:19323   */\n      tag_470\n        /* \"#utility.yul\":19320:19322   */\n      0x22\n        /* \"#utility.yul\":19315:19318   */\n      dup4\n        /* \"#utility.yul\":19256:19323   */\n      tag_257\n      jump\t// in\n    tag_470:\n        /* \"#utility.yul\":19249:19323   */\n      swap2\n      pop\n        /* \"#utility.yul\":19332:19425   */\n      tag_471\n        /* \"#utility.yul\":19421:19424   */\n      dup3\n        /* \"#utility.yul\":19332:19425   */\n      tag_301\n      jump\t// in\n    tag_471:\n        /* \"#utility.yul\":19450:19452   */\n      0x40\n        /* \"#utility.yul\":19445:19448   */\n      dup3\n        /* \"#utility.yul\":19441:19453   */\n      add\n        /* \"#utility.yul\":19434:19453   */\n      swap1\n      pop\n        /* \"#utility.yul\":19093:19459   */\n      swap2\n      swap1\n      pop\n      jump\t// out\n        /* \"#utility.yul\":19465:19884   */\n    tag_227:\n        /* \"#utility.yul\":19631:19635   */\n      0x00\n        /* \"#utility.yul\":19669:19671   */\n      0x20\n        /* \"#utility.yul\":19658:19667   */\n      dup3\n        /* \"#utility.yul\":19654:19672   */\n      add\n        /* \"#utility.yul\":19646:19672   */\n      swap1\n      pop\n        /* \"#utility.yul\":19718:19727   */\n      dup2\n        /* \"#utility.yul\":19712:19716   */\n      dup2\n        /* \"#utility.yul\":19708:19728   */\n      sub\n        /* \"#utility.yul\":19704:19705   */\n      0x00\n        /* \"#utility.yul\":19693:19702   */\n      dup4\n        /* \"#utility.yul\":19689:19706   */\n      add\n        /* \"#utility.yul\":19682:19729   */\n      mstore\n        /* \"#utility.yul\":19746:19877   */\n      tag_473\n        /* \"#utility.yul\":19872:19876   */\n      dup2\n        /* \"#utility.yul\":19746:19877   */\n      tag_302\n      jump\t// in\n    tag_473:\n        /* \"#utility.yul\":19738:19877   */\n      swap1\n      pop\n        /* \"#utility.yul\":19465:19884   */\n      swap2\n      swap1\n      pop\n      jump\t// out\n        /* \"#utility.yul\":19890:20084   */\n    tag_229:\n        /* \"#utility.yul\":19930:19934   */\n      0x00\n        /* \"#utility.yul\":19950:19970   */\n      tag_475\n        /* \"#utility.yul\":19968:19969   */\n      dup3\n        /* \"#utility.yul\":19950:19970   */\n      tag_268\n      jump\t// in\n    tag_475:\n        /* \"#utility.yul\":19945:19970   */\n      swap2\n      pop\n        /* \"#utility.yul\":19984:20004   */\n      tag_476\n        /* \"#utility.yul\":20002:20003   */\n      dup4\n        /* \"#utility.yul\":19984:20004   */\n      tag_268\n      jump\t// in\n    tag_476:\n        /* \"#utility.yul\":19979:20004   */\n      swap3\n      pop\n        /* \"#utility.yul\":20028:20029   */\n      dup3\n        /* \"#utility.yul\":20025:20026   */\n      dup3\n        /* \"#utility.yul\":20021:20030   */\n      sub\n        /* \"#utility.yul\":20013:20030   */\n      swap1\n      pop\n        /* \"#utility.yul\":20052:20053   */\n      dup2\n        /* \"#utility.yul\":20046:20050   */\n      dup2\n        /* \"#utility.yul\":20043:20054   */\n      gt\n        /* \"#utility.yul\":20040:20077   */\n      iszero\n      tag_477\n      jumpi\n        /* \"#utility.yul\":20057:20075   */\n      tag_478\n      tag_282\n      jump\t// in\n    tag_478:\n        /* \"#utility.yul\":20040:20077   */\n    tag_477:\n        /* \"#utility.yul\":19890:20084   */\n      swap3\n      swap2\n      pop\n      pop\n      jump\t// out\n        /* \"#utility.yul\":20090:20251   */\n    tag_303:\n        /* \"#utility.yul\":20230:20243   */\n      0x426c61636b6c6973746564000000000000000000000000000000000000000000\n        /* \"#utility.yul\":20226:20227   */\n      0x00\n        /* \"#utility.yul\":20218:20224   */\n      dup3\n        /* \"#utility.yul\":20214:20228   */\n      add\n        /* \"#utility.yul\":20207:20244   */\n      mstore\n        /* \"#utility.yul\":20090:20251   */\n      pop\n      jump\t// out\n        /* \"#utility.yul\":20257:20623   */\n    tag_304:\n        /* \"#utility.yul\":20399:20402   */\n      0x00\n        /* \"#utility.yul\":20420:20487   */\n      tag_481\n        /* \"#utility.yul\":20484:20486   */\n      0x0b\n        /* \"#utility.yul\":20479:20482   */\n      dup4\n        /* \"#utility.yul\":20420:20487   */\n      tag_257\n      jump\t// in\n    tag_481:\n        /* \"#utility.yul\":20413:20487   */\n      swap2\n      pop\n        /* \"#utility.yul\":20496:20589   */\n      tag_482\n        /* \"#utility.yul\":20585:20588   */\n      dup3\n        /* \"#utility.yul\":20496:20589   */\n      tag_303\n      jump\t// in\n    tag_482:\n        /* \"#utility.yul\":20614:20616   */\n      0x20\n        /* \"#utility.yul\":20609:20612   */\n      dup3\n        /* \"#utility.yul\":20605:20617   */\n      add\n        /* \"#utility.yul\":20598:20617   */\n      swap1\n      pop\n        /* \"#utility.yul\":20257:20623   */\n      swap2\n      swap1\n      pop\n      jump\t// out\n        /* \"#utility.yul\":20629:21048   */\n    tag_237:\n        /* \"#utility.yul\":20795:20799   */\n      0x00\n        /* \"#utility.yul\":20833:20835   */\n      0x20\n        /* \"#utility.yul\":20822:20831   */\n      dup3\n        /* \"#utility.yul\":20818:20836   */\n      add\n        /* \"#utility.yul\":20810:20836   */\n      swap1\n      pop\n        /* \"#utility.yul\":20882:20891   */\n      dup2\n        /* \"#utility.yul\":20876:20880   */\n      dup2\n        /* \"#utility.yul\":20872:20892   */\n      sub\n        /* \"#utility.yul\":20868:20869   */\n      0x00\n        /* \"#utility.yul\":20857:20866   */\n      dup4\n        /* \"#utility.yul\":20853:20870   */\n      add\n        /* \"#utility.yul\":20846:20893   */\n      mstore\n        /* \"#utility.yul\":20910:21041   */\n      tag_484\n        /* \"#utility.yul\":21036:21040   */\n      dup2\n        /* \"#utility.yul\":20910:21041   */\n      tag_304\n      jump\t// in\n    tag_484:\n        /* \"#utility.yul\":20902:21041   */\n      swap1\n      pop\n        /* \"#utility.yul\":20629:21048   */\n      swap2\n      swap1\n      pop\n      jump\t// out\n        /* \"#utility.yul\":21054:21226   */\n    tag_305:\n        /* \"#utility.yul\":21194:21218   */\n      0x74726164696e67206973206e6f74207374617274656400000000000000000000\n        /* \"#utility.yul\":21190:21191   */\n      0x00\n        /* \"#utility.yul\":21182:21188   */\n      dup3\n        /* \"#utility.yul\":21178:21192   */\n      add\n        /* \"#utility.yul\":21171:21219   */\n      mstore\n        /* \"#utility.yul\":21054:21226   */\n      pop\n      jump\t// out\n        /* \"#utility.yul\":21232:21598   */\n    tag_306:\n        /* \"#utility.yul\":21374:21377   */\n      0x00\n        /* \"#utility.yul\":21395:21462   */\n      tag_487\n        /* \"#utility.yul\":21459:21461   */\n      0x16\n        /* \"#utility.yul\":21454:21457   */\n      dup4\n        /* \"#utility.yul\":21395:21462   */\n      tag_257\n      jump\t// in\n    tag_487:\n        /* \"#utility.yul\":21388:21462   */\n      swap2\n      pop\n        /* \"#utility.yul\":21471:21564   */\n      tag_488\n        /* \"#utility.yul\":21560:21563   */\n      dup3\n        /* \"#utility.yul\":21471:21564   */\n      tag_305\n      jump\t// in\n    tag_488:\n        /* \"#utility.yul\":21589:21591   */\n      0x20\n        /* \"#utility.yul\":21584:21587   */\n      dup3\n        /* \"#utility.yul\":21580:21592   */\n      add\n        /* \"#utility.yul\":21573:21592   */\n      swap1\n      pop\n        /* \"#utility.yul\":21232:21598   */\n      swap2\n      swap1\n      pop\n      jump\t// out\n        /* \"#utility.yul\":21604:22023   */\n    tag_244:\n        /* \"#utility.yul\":21770:21774   */\n      0x00\n        /* \"#utility.yul\":21808:21810   */\n      0x20\n        /* \"#utility.yul\":21797:21806   */\n      dup3\n        /* \"#utility.yul\":21793:21811   */\n      add\n        /* \"#utility.yul\":21785:21811   */\n      swap1\n      pop\n        /* \"#utility.yul\":21857:21866   */\n      dup2\n        /* \"#utility.yul\":21851:21855   */\n      dup2\n        /* \"#utility.yul\":21847:21867   */\n      sub\n        /* \"#utility.yul\":21843:21844   */\n      0x00\n        /* \"#utility.yul\":21832:21841   */\n      dup4\n        /* \"#utility.yul\":21828:21845   */\n      add\n        /* \"#utility.yul\":21821:21868   */\n      mstore\n        /* \"#utility.yul\":21885:22016   */\n      tag_490\n        /* \"#utility.yul\":22011:22015   */\n      dup2\n        /* \"#utility.yul\":21885:22016   */\n      tag_306\n      jump\t// in\n    tag_490:\n        /* \"#utility.yul\":21877:22016   */\n      swap1\n      pop\n        /* \"#utility.yul\":21604:22023   */\n      swap2\n      swap1\n      pop\n      jump\t// out\n        /* \"#utility.yul\":22029:22185   */\n    tag_307:\n        /* \"#utility.yul\":22169:22177   */\n      0x466f726269640000000000000000000000000000000000000000000000000000\n        /* \"#utility.yul\":22165:22166   */\n      0x00\n        /* \"#utility.yul\":22157:22163   */\n      dup3\n        /* \"#utility.yul\":22153:22167   */\n      add\n        /* \"#utility.yul\":22146:22178   */\n      mstore\n        /* \"#utility.yul\":22029:22185   */\n      pop\n      jump\t// out\n        /* \"#utility.yul\":22191:22556   */\n    tag_308:\n        /* \"#utility.yul\":22333:22336   */\n      0x00\n        /* \"#utility.yul\":22354:22420   */\n      tag_493\n        /* \"#utility.yul\":22418:22419   */\n      0x06\n        /* \"#utility.yul\":22413:22416   */\n      dup4\n        /* \"#utility.yul\":22354:22420   */\n      tag_257\n      jump\t// in\n    tag_493:\n        /* \"#utility.yul\":22347:22420   */\n      swap2\n      pop\n        /* \"#utility.yul\":22429:22522   */\n      tag_494\n        /* \"#utility.yul\":22518:22521   */\n      dup3\n        /* \"#utility.yul\":22429:22522   */\n      tag_307\n      jump\t// in\n    tag_494:\n        /* \"#utility.yul\":22547:22549   */\n      0x20\n        /* \"#utility.yul\":22542:22545   */\n      dup3\n        /* \"#utility.yul\":22538:22550   */\n      add\n        /* \"#utility.yul\":22531:22550   */\n      swap1\n      pop\n        /* \"#utility.yul\":22191:22556   */\n      swap2\n      swap1\n      pop\n      jump\t// out\n        /* \"#utility.yul\":22562:22981   */\n    tag_254:\n        /* \"#utility.yul\":22728:22732   */\n      0x00\n        /* \"#utility.yul\":22766:22768   */\n      0x20\n        /* \"#utility.yul\":22755:22764   */\n      dup3\n        /* \"#utility.yul\":22751:22769   */\n      add\n        /* \"#utility.yul\":22743:22769   */\n      swap1\n      pop\n        /* \"#utility.yul\":22815:22824   */\n      dup2\n        /* \"#utility.yul\":22809:22813   */\n      dup2\n        /* \"#utility.yul\":22805:22825   */\n      sub\n        /* \"#utility.yul\":22801:22802   */\n      0x00\n        /* \"#utility.yul\":22790:22799   */\n      dup4\n        /* \"#utility.yul\":22786:22803   */\n      add\n        /* \"#utility.yul\":22779:22826   */\n      mstore\n        /* \"#utility.yul\":22843:22974   */\n      tag_496\n        /* \"#utility.yul\":22969:22973   */\n      dup2\n        /* \"#utility.yul\":22843:22974   */\n      tag_308\n      jump\t// in\n    tag_496:\n        /* \"#utility.yul\":22835:22974   */\n      swap1\n      pop\n        /* \"#utility.yul\":22562:22981   */\n      swap2\n      swap1\n      pop\n      jump\t// out\n\n    auxdata: 0xa264697066735822122009334c0cb66fe55e518fccbe39e0ba279dc3c6af049e1417aace3db496a237d064736f6c634300081e0033\n}\n",
				"bytecode": {
					"linkReferences": {},
					"object": "608060405234801561000f575f5ffd5b50604051612eb3380380612eb3833981810160405281019061003191906106b2565b6040518060400160405280600581526020017f50657065320000000000000000000000000000000000000000000000000000008152506040518060400160405280600581526020017f50455045320000000000000000000000000000000000000000000000000000008152506100b96100ae6100f160201b60201c565b6100f860201b60201c565b81600490816100c89190610911565b5080600590816100d89190610911565b5050506100eb33826101b960201b60201c565b50610c18565b5f33905090565b5f5f5f9054906101000a900473ffffffffffffffffffffffffffffffffffffffff169050815f5f6101000a81548173ffffffffffffffffffffffffffffffffffffffff021916908373ffffffffffffffffffffffffffffffffffffffff1602179055508173ffffffffffffffffffffffffffffffffffffffff168173ffffffffffffffffffffffffffffffffffffffff167f8be0079c531659141344cd1fd0a4f28419497f9722a3daafe3b4186f6b6457e060405160405180910390a35050565b5f73ffffffffffffffffffffffffffffffffffffffff168273ffffffffffffffffffffffffffffffffffffffff1603610227576040517f08c379a000000000000000000000000000000000000000000000000000000000815260040161021e90610a3a565b60405180910390fd5b6102385f838361031d60201b60201c565b8060035f8282546102499190610a85565b925050819055508060015f8473ffffffffffffffffffffffffffffffffffffffff1673ffffffffffffffffffffffffffffffffffffffff1681526020019081526020015f205f82825461029c9190610a85565b925050819055508173ffffffffffffffffffffffffffffffffffffffff165f73ffffffffffffffffffffffffffffffffffffffff167fddf252ad1be2c89b69c2b068fc378daa952ba7f163c4a11628f55a4df523b3ef836040516103009190610ac7565b60405180910390a36103195f838361060960201b60201c565b5050565b600a5f8373ffffffffffffffffffffffffffffffffffffffff1673ffffffffffffffffffffffffffffffffffffffff1681526020019081526020015f205f9054906101000a900460ff161580156103bb5750600a5f8473ffffffffffffffffffffffffffffffffffffffff1673ffffffffffffffffffffffffffffffffffffffff1681526020019081526020015f205f9054906101000a900460ff16155b6103fa576040517f08c379a00000000000000000000000000000000000000000000000000000000081526004016103f190610b2a565b60405180910390fd5b5f73ffffffffffffffffffffffffffffffffffffffff1660095f9054906101000a900473ffffffffffffffffffffffffffffffffffffffff1673ffffffffffffffffffffffffffffffffffffffff16036105115761045c61060e60201b60201c565b73ffffffffffffffffffffffffffffffffffffffff168373ffffffffffffffffffffffffffffffffffffffff1614806104cd575061049e61060e60201b60201c565b73ffffffffffffffffffffffffffffffffffffffff168273ffffffffffffffffffffffffffffffffffffffff16145b61050c576040517f08c379a000000000000000000000000000000000000000000000000000000000815260040161050390610b92565b60405180910390fd5b610604565b60065f9054906101000a900460ff168015610578575060095f9054906101000a900473ffffffffffffffffffffffffffffffffffffffff1673ffffffffffffffffffffffffffffffffffffffff168373ffffffffffffffffffffffffffffffffffffffff16145b1561060357600754816105908461063560201b60201c565b61059a9190610a85565b111580156105c35750600854816105b68461063560201b60201c565b6105c09190610a85565b10155b610602576040517f08c379a00000000000000000000000000000000000000000000000000000000081526004016105f990610bfa565b60405180910390fd5b5b5b505050565b505050565b5f5f5f9054906101000a900473ffffffffffffffffffffffffffffffffffffffff16905090565b5f60015f8373ffffffffffffffffffffffffffffffffffffffff1673ffffffffffffffffffffffffffffffffffffffff1681526020019081526020015f20549050919050565b5f5ffd5b5f819050919050565b6106918161067f565b811461069b575f5ffd5b50565b5f815190506106ac81610688565b92915050565b5f602082840312156106c7576106c661067b565b5b5f6106d48482850161069e565b91505092915050565b5f81519050919050565b7f4e487b71000000000000000000000000000000000000000000000000000000005f52604160045260245ffd5b7f4e487b71000000000000000000000000000000000000000000000000000000005f52602260045260245ffd5b5f600282049050600182168061075857607f821691505b60208210810361076b5761076a610714565b5b50919050565b5f819050815f5260205f209050919050565b5f6020601f8301049050919050565b5f82821b905092915050565b5f600883026107cd7fffffffffffffffffffffffffffffffffffffffffffffffffffffffffffffffff82610792565b6107d78683610792565b95508019841693508086168417925050509392505050565b5f819050919050565b5f61081261080d6108088461067f565b6107ef565b61067f565b9050919050565b5f819050919050565b61082b836107f8565b61083f61083782610819565b84845461079e565b825550505050565b5f5f905090565b610856610847565b610861818484610822565b505050565b5b81811015610884576108795f8261084e565b600181019050610867565b5050565b601f8211156108c95761089a81610771565b6108a384610783565b810160208510156108b2578190505b6108c66108be85610783565b830182610866565b50505b505050565b5f82821c905092915050565b5f6108e95f19846008026108ce565b1980831691505092915050565b5f61090183836108da565b9150826002028217905092915050565b61091a826106dd565b67ffffffffffffffff811115610933576109326106e7565b5b61093d8254610741565b610948828285610888565b5f60209050601f831160018114610979575f8415610967578287015190505b61097185826108f6565b8655506109d8565b601f19841661098786610771565b5f5b828110156109ae57848901518255600182019150602085019450602081019050610989565b868310156109cb57848901516109c7601f8916826108da565b8355505b6001600288020188555050505b505050505050565b5f82825260208201905092915050565b7f45524332303a206d696e7420746f20746865207a65726f2061646472657373005f82015250565b5f610a24601f836109e0565b9150610a2f826109f0565b602082019050919050565b5f6020820190508181035f830152610a5181610a18565b9050919050565b7f4e487b71000000000000000000000000000000000000000000000000000000005f52601160045260245ffd5b5f610a8f8261067f565b9150610a9a8361067f565b9250828201905080821115610ab257610ab1610a58565b5b92915050565b610ac18161067f565b82525050565b5f602082019050610ada5f830184610ab8565b92915050565b7f426c61636b6c69737465640000000000000000000000000000000000000000005f82015250565b5f610b14600b836109e0565b9150610b1f82610ae0565b602082019050919050565b5f6020820190508181035f830152610b4181610b08565b9050919050565b7f74726164696e67206973206e6f742073746172746564000000000000000000005f82015250565b5f610b7c6016836109e0565b9150610b8782610b48565b602082019050919050565b5f6020820190508181035f830152610ba981610b70565b9050919050565b7f466f7262696400000000000000000000000000000000000000000000000000005f82015250565b5f610be46006836109e0565b9150610bef82610bb0565b602082019050919050565b5f6020820190508181035f830152610c1181610bd8565b9050919050565b61228e80610c255f395ff3fe608060405234801561000f575f5ffd5b5060043610610140575f3560e01c806349bd5a5e116100b65780638da5cb5b1161007a5780638da5cb5b1461036457806395d89b4114610382578063a457c2d7146103a0578063a9059cbb146103d0578063dd62ed3e14610400578063f2fde38b1461043057610140565b806349bd5a5e146102d057806370a08231146102ee578063715018a61461031e578063860a32ec1461032857806389f9a1d31461034657610140565b806323b872dd1161010857806323b872dd146101fe578063313ce5671461022e578063395093511461024c5780633aa633aa1461027c578063404e51291461029857806342966c68146102b457610140565b806306fdde0314610144578063095ea7b31461016257806316c021291461019257806318160ddd146101c25780631ab99e12146101e0575b5f5ffd5b61014c61044c565b60405161015991906116e6565b60405180910390f35b61017c60048036038101906101779190611797565b6104dc565b60405161018991906117ef565b60405180910390f35b6101ac60048036038101906101a79190611808565b6104f9565b6040516101b991906117ef565b60405180910390f35b6101ca610516565b6040516101d79190611842565b60405180910390f35b6101e861051f565b6040516101f59190611842565b60405180910390f35b6102186004803603810190610213919061185b565b610525565b60405161022591906117ef565b60405180910390f35b610236610617565b60405161024391906118c6565b60405180910390f35b61026660048036038101906102619190611797565b61061f565b60405161027391906117ef565b60405180910390f35b61029660048036038101906102919190611909565b6106c6565b005b6102b260048036038101906102ad919061196d565b6107af565b005b6102ce60048036038101906102c991906119ab565b610883565b005b6102d8610890565b6040516102e591906119e5565b60405180910390f35b61030860048036038101906103039190611808565b6108b5565b6040516103159190611842565b60405180910390f35b6103266108fb565b005b610330610982565b60405161033d91906117ef565b60405180910390f35b61034e610994565b60405161035b9190611842565b60405180910390f35b61036c61099a565b60405161037991906119e5565b60405180910390f35b61038a6109c1565b60405161039791906116e6565b60405180910390f35b6103ba60048036038101906103b59190611797565b610a51565b6040516103c791906117ef565b60405180910390f35b6103ea60048036038101906103e59190611797565b610b37565b6040516103f791906117ef565b60405180910390f35b61041a600480360381019061041591906119fe565b610b54565b6040516104279190611842565b60405180910390f35b61044a60048036038101906104459190611808565b610bd6565b005b60606004805461045b90611a69565b80601f016020809104026020016040519081016040528092919081815260200182805461048790611a69565b80156104d25780601f106104a9576101008083540402835291602001916104d2565b820191905f5260205f20905b8154815290600101906020018083116104b557829003601f168201915b5050505050905090565b5f6104ef6104e8610ccc565b8484610cd3565b6001905092915050565b600a602052805f5260405f205f915054906101000a900460ff1681565b5f600354905090565b60085481565b5f610531848484610e96565b5f60025f8673ffffffffffffffffffffffffffffffffffffffff1673ffffffffffffffffffffffffffffffffffffffff1681526020019081526020015f205f610578610ccc565b73ffffffffffffffffffffffffffffffffffffffff1673ffffffffffffffffffffffffffffffffffffffff1681526020019081526020015f20549050828110156105f7576040517f08c379a00000000000000000000000000000000000000000000000000000000081526004016105ee90611b09565b60405180910390fd5b61060b85610603610ccc565b858403610cd3565b60019150509392505050565b5f6012905090565b5f6106bc61062b610ccc565b848460025f610638610ccc565b73ffffffffffffffffffffffffffffffffffffffff1673ffffffffffffffffffffffffffffffffffffffff1681526020019081526020015f205f8873ffffffffffffffffffffffffffffffffffffffff1673ffffffffffffffffffffffffffffffffffffffff1681526020019081526020015f20546106b79190611b54565b610cd3565b6001905092915050565b6106ce610ccc565b73ffffffffffffffffffffffffffffffffffffffff166106ec61099a565b73ffffffffffffffffffffffffffffffffffffffff1614610742576040517f08c379a000000000000000000000000000000000000000000000000000000000815260040161073990611bd1565b60405180910390fd5b8360065f6101000a81548160ff0219169083151502179055508260095f6101000a81548173ffffffffffffffffffffffffffffffffffffffff021916908373ffffffffffffffffffffffffffffffffffffffff160217905550816007819055508060088190555050505050565b6107b7610ccc565b73ffffffffffffffffffffffffffffffffffffffff166107d561099a565b73ffffffffffffffffffffffffffffffffffffffff161461082b576040517f08c379a000000000000000000000000000000000000000000000000000000000815260040161082290611bd1565b60405180910390fd5b80600a5f8473ffffffffffffffffffffffffffffffffffffffff1673ffffffffffffffffffffffffffffffffffffffff1681526020019081526020015f205f6101000a81548160ff0219169083151502179055505050565b61088d338261110e565b50565b60095f9054906101000a900473ffffffffffffffffffffffffffffffffffffffff1681565b5f60015f8373ffffffffffffffffffffffffffffffffffffffff1673ffffffffffffffffffffffffffffffffffffffff1681526020019081526020015f20549050919050565b610903610ccc565b73ffffffffffffffffffffffffffffffffffffffff1661092161099a565b73ffffffffffffffffffffffffffffffffffffffff1614610977576040517f08c379a000000000000000000000000000000000000000000000000000000000815260040161096e90611bd1565b60405180910390fd5b6109805f6112dc565b565b60065f9054906101000a900460ff1681565b60075481565b5f5f5f9054906101000a900473ffffffffffffffffffffffffffffffffffffffff16905090565b6060600580546109d090611a69565b80601f01602080910402602001604051908101604052809291908181526020018280546109fc90611a69565b8015610a475780601f10610a1e57610100808354040283529160200191610a47565b820191905f5260205f20905b815481529060010190602001808311610a2a57829003601f168201915b5050505050905090565b5f5f60025f610a5e610ccc565b73ffffffffffffffffffffffffffffffffffffffff1673ffffffffffffffffffffffffffffffffffffffff1681526020019081526020015f205f8573ffffffffffffffffffffffffffffffffffffffff1673ffffffffffffffffffffffffffffffffffffffff1681526020019081526020015f2054905082811015610b18576040517f08c379a0000000000000000000000000000000000000000000000000000000008152600401610b0f90611c5f565b60405180910390fd5b610b2c610b23610ccc565b85858403610cd3565b600191505092915050565b5f610b4a610b43610ccc565b8484610e96565b6001905092915050565b5f60025f8473ffffffffffffffffffffffffffffffffffffffff1673ffffffffffffffffffffffffffffffffffffffff1681526020019081526020015f205f8373ffffffffffffffffffffffffffffffffffffffff1673ffffffffffffffffffffffffffffffffffffffff1681526020019081526020015f2054905092915050565b610bde610ccc565b73ffffffffffffffffffffffffffffffffffffffff16610bfc61099a565b73ffffffffffffffffffffffffffffffffffffffff1614610c52576040517f08c379a0000000000000000000000000000000000000000000000000000000008152600401610c4990611bd1565b60405180910390fd5b5f73ffffffffffffffffffffffffffffffffffffffff168173ffffffffffffffffffffffffffffffffffffffff1603610cc0576040517f08c379a0000000000000000000000000000000000000000000000000000000008152600401610cb790611ced565b60405180910390fd5b610cc9816112dc565b50565b5f33905090565b5f73ffffffffffffffffffffffffffffffffffffffff168373ffffffffffffffffffffffffffffffffffffffff1603610d41576040517f08c379a0000000000000000000000000000000000000000000000000000000008152600401610d3890611d7b565b60405180910390fd5b5f73ffffffffffffffffffffffffffffffffffffffff168273ffffffffffffffffffffffffffffffffffffffff1603610daf576040517f08c379a0000000000000000000000000000000000000000000000000000000008152600401610da690611e09565b60405180910390fd5b8060025f8573ffffffffffffffffffffffffffffffffffffffff1673ffffffffffffffffffffffffffffffffffffffff1681526020019081526020015f205f8473ffffffffffffffffffffffffffffffffffffffff1673ffffffffffffffffffffffffffffffffffffffff1681526020019081526020015f20819055508173ffffffffffffffffffffffffffffffffffffffff168373ffffffffffffffffffffffffffffffffffffffff167f8c5be1e5ebec7d5bd14f71427d1e84f3dd0314c0f7b2291e5b200ac8c7c3b92583604051610e899190611842565b60405180910390a3505050565b5f73ffffffffffffffffffffffffffffffffffffffff168373ffffffffffffffffffffffffffffffffffffffff1603610f04576040517f08c379a0000000000000000000000000000000000000000000000000000000008152600401610efb90611e97565b60405180910390fd5b5f73ffffffffffffffffffffffffffffffffffffffff168273ffffffffffffffffffffffffffffffffffffffff1603610f72576040517f08c379a0000000000000000000000000000000000000000000000000000000008152600401610f6990611f25565b60405180910390fd5b610f7d83838361139d565b5f60015f8573ffffffffffffffffffffffffffffffffffffffff1673ffffffffffffffffffffffffffffffffffffffff1681526020019081526020015f2054905081811015611001576040517f08c379a0000000000000000000000000000000000000000000000000000000008152600401610ff890611fb3565b60405180910390fd5b81810360015f8673ffffffffffffffffffffffffffffffffffffffff1673ffffffffffffffffffffffffffffffffffffffff1681526020019081526020015f20819055508160015f8573ffffffffffffffffffffffffffffffffffffffff1673ffffffffffffffffffffffffffffffffffffffff1681526020019081526020015f205f8282546110919190611b54565b925050819055508273ffffffffffffffffffffffffffffffffffffffff168473ffffffffffffffffffffffffffffffffffffffff167fddf252ad1be2c89b69c2b068fc378daa952ba7f163c4a11628f55a4df523b3ef846040516110f59190611842565b60405180910390a3611108848484611671565b50505050565b5f73ffffffffffffffffffffffffffffffffffffffff168273ffffffffffffffffffffffffffffffffffffffff160361117c576040517f08c379a000000000000000000000000000000000000000000000000000000000815260040161117390612041565b60405180910390fd5b611187825f8361139d565b5f60015f8473ffffffffffffffffffffffffffffffffffffffff1673ffffffffffffffffffffffffffffffffffffffff1681526020019081526020015f205490508181101561120b576040517f08c379a0000000000000000000000000000000000000000000000000000000008152600401611202906120cf565b60405180910390fd5b81810360015f8573ffffffffffffffffffffffffffffffffffffffff1673ffffffffffffffffffffffffffffffffffffffff1681526020019081526020015f20819055508160035f82825461126091906120ed565b925050819055505f73ffffffffffffffffffffffffffffffffffffffff168373ffffffffffffffffffffffffffffffffffffffff167fddf252ad1be2c89b69c2b068fc378daa952ba7f163c4a11628f55a4df523b3ef846040516112c49190611842565b60405180910390a36112d7835f84611671565b505050565b5f5f5f9054906101000a900473ffffffffffffffffffffffffffffffffffffffff169050815f5f6101000a81548173ffffffffffffffffffffffffffffffffffffffff021916908373ffffffffffffffffffffffffffffffffffffffff1602179055508173ffffffffffffffffffffffffffffffffffffffff168173ffffffffffffffffffffffffffffffffffffffff167f8be0079c531659141344cd1fd0a4f28419497f9722a3daafe3b4186f6b6457e060405160405180910390a35050565b600a5f8373ffffffffffffffffffffffffffffffffffffffff1673ffffffffffffffffffffffffffffffffffffffff1681526020019081526020015f205f9054906101000a900460ff1615801561143b5750600a5f8473ffffffffffffffffffffffffffffffffffffffff1673ffffffffffffffffffffffffffffffffffffffff1681526020019081526020015f205f9054906101000a900460ff16155b61147a576040517f08c379a00000000000000000000000000000000000000000000000000000000081526004016114719061216a565b60405180910390fd5b5f73ffffffffffffffffffffffffffffffffffffffff1660095f9054906101000a900473ffffffffffffffffffffffffffffffffffffffff1673ffffffffffffffffffffffffffffffffffffffff1603611585576114d661099a565b73ffffffffffffffffffffffffffffffffffffffff168373ffffffffffffffffffffffffffffffffffffffff161480611541575061151261099a565b73ffffffffffffffffffffffffffffffffffffffff168273ffffffffffffffffffffffffffffffffffffffff16145b611580576040517f08c379a0000000000000000000000000000000000000000000000000000000008152600401611577906121d2565b60405180910390fd5b61166c565b60065f9054906101000a900460ff1680156115ec575060095f9054906101000a900473ffffffffffffffffffffffffffffffffffffffff1673ffffffffffffffffffffffffffffffffffffffff168373ffffffffffffffffffffffffffffffffffffffff16145b1561166b57600754816115fe846108b5565b6116089190611b54565b1115801561162b57506008548161161e846108b5565b6116289190611b54565b10155b61166a576040517f08c379a00000000000000000000000000000000000000000000000000000000081526004016116619061223a565b60405180910390fd5b5b5b505050565b505050565b5f81519050919050565b5f82825260208201905092915050565b8281835e5f83830152505050565b5f601f19601f8301169050919050565b5f6116b882611676565b6116c28185611680565b93506116d2818560208601611690565b6116db8161169e565b840191505092915050565b5f6020820190508181035f8301526116fe81846116ae565b905092915050565b5f5ffd5b5f73ffffffffffffffffffffffffffffffffffffffff82169050919050565b5f6117338261170a565b9050919050565b61174381611729565b811461174d575f5ffd5b50565b5f8135905061175e8161173a565b92915050565b5f819050919050565b61177681611764565b8114611780575f5ffd5b50565b5f813590506117918161176d565b92915050565b5f5f604083850312156117ad576117ac611706565b5b5f6117ba85828601611750565b92505060206117cb85828601611783565b9150509250929050565b5f8115159050919050565b6117e9816117d5565b82525050565b5f6020820190506118025f8301846117e0565b92915050565b5f6020828403121561181d5761181c611706565b5b5f61182a84828501611750565b91505092915050565b61183c81611764565b82525050565b5f6020820190506118555f830184611833565b92915050565b5f5f5f6060848603121561187257611871611706565b5b5f61187f86828701611750565b935050602061189086828701611750565b92505060406118a186828701611783565b9150509250925092565b5f60ff82169050919050565b6118c0816118ab565b82525050565b5f6020820190506118d95f8301846118b7565b92915050565b6118e8816117d5565b81146118f2575f5ffd5b50565b5f81359050611903816118df565b92915050565b5f5f5f5f6080858703121561192157611920611706565b5b5f61192e878288016118f5565b945050602061193f87828801611750565b935050604061195087828801611783565b925050606061196187828801611783565b91505092959194509250565b5f5f6040838503121561198357611982611706565b5b5f61199085828601611750565b92505060206119a1858286016118f5565b9150509250929050565b5f602082840312156119c0576119bf611706565b5b5f6119cd84828501611783565b91505092915050565b6119df81611729565b82525050565b5f6020820190506119f85f8301846119d6565b92915050565b5f5f60408385031215611a1457611a13611706565b5b5f611a2185828601611750565b9250506020611a3285828601611750565b9150509250929050565b7f4e487b71000000000000000000000000000000000000000000000000000000005f52602260045260245ffd5b5f6002820490506001821680611a8057607f821691505b602082108103611a9357611a92611a3c565b5b50919050565b7f45524332303a207472616e7366657220616d6f756e74206578636565647320615f8201527f6c6c6f77616e6365000000000000000000000000000000000000000000000000602082015250565b5f611af3602883611680565b9150611afe82611a99565b604082019050919050565b5f6020820190508181035f830152611b2081611ae7565b9050919050565b7f4e487b71000000000000000000000000000000000000000000000000000000005f52601160045260245ffd5b5f611b5e82611764565b9150611b6983611764565b9250828201905080821115611b8157611b80611b27565b5b92915050565b7f4f776e61626c653a2063616c6c6572206973206e6f7420746865206f776e65725f82015250565b5f611bbb602083611680565b9150611bc682611b87565b602082019050919050565b5f6020820190508181035f830152611be881611baf565b9050919050565b7f45524332303a2064656372656173656420616c6c6f77616e63652062656c6f775f8201527f207a65726f000000000000000000000000000000000000000000000000000000602082015250565b5f611c49602583611680565b9150611c5482611bef565b604082019050919050565b5f6020820190508181035f830152611c7681611c3d565b9050919050565b7f4f776e61626c653a206e6577206f776e657220697320746865207a65726f20615f8201527f6464726573730000000000000000000000000000000000000000000000000000602082015250565b5f611cd7602683611680565b9150611ce282611c7d565b604082019050919050565b5f6020820190508181035f830152611d0481611ccb565b9050919050565b7f45524332303a20617070726f76652066726f6d20746865207a65726f206164645f8201527f7265737300000000000000000000000000000000000000000000000000000000602082015250565b5f611d65602483611680565b9150611d7082611d0b565b604082019050919050565b5f6020820190508181035f830152611d9281611d59565b9050919050565b7f45524332303a20617070726f766520746f20746865207a65726f2061646472655f8201527f7373000000000000000000000000000000000000000000000000000000000000602082015250565b5f611df3602283611680565b9150611dfe82611d99565b604082019050919050565b5f6020820190508181035f830152611e2081611de7565b9050919050565b7f45524332303a207472616e736665722066726f6d20746865207a65726f2061645f8201527f6472657373000000000000000000000000000000000000000000000000000000602082015250565b5f611e81602583611680565b9150611e8c82611e27565b604082019050919050565b5f6020820190508181035f830152611eae81611e75565b9050919050565b7f45524332303a207472616e7366657220746f20746865207a65726f20616464725f8201527f6573730000000000000000000000000000000000000000000000000000000000602082015250565b5f611f0f602383611680565b9150611f1a82611eb5565b604082019050919050565b5f6020820190508181035f830152611f3c81611f03565b9050919050565b7f45524332303a207472616e7366657220616d6f756e74206578636565647320625f8201527f616c616e63650000000000000000000000000000000000000000000000000000602082015250565b5f611f9d602683611680565b9150611fa882611f43565b604082019050919050565b5f6020820190508181035f830152611fca81611f91565b9050919050565b7f45524332303a206275726e2066726f6d20746865207a65726f206164647265735f8201527f7300000000000000000000000000000000000000000000000000000000000000602082015250565b5f61202b602183611680565b915061203682611fd1565b604082019050919050565b5f6020820190508181035f8301526120588161201f565b9050919050565b7f45524332303a206275726e20616d6f756e7420657863656564732062616c616e5f8201527f6365000000000000000000000000000000000000000000000000000000000000602082015250565b5f6120b9602283611680565b91506120c48261205f565b604082019050919050565b5f6020820190508181035f8301526120e6816120ad565b9050919050565b5f6120f782611764565b915061210283611764565b925082820390508181111561211a57612119611b27565b5b92915050565b7f426c61636b6c69737465640000000000000000000000000000000000000000005f82015250565b5f612154600b83611680565b915061215f82612120565b602082019050919050565b5f6020820190508181035f83015261218181612148565b9050919050565b7f74726164696e67206973206e6f742073746172746564000000000000000000005f82015250565b5f6121bc601683611680565b91506121c782612188565b602082019050919050565b5f6020820190508181035f8301526121e9816121b0565b9050919050565b7f466f7262696400000000000000000000000000000000000000000000000000005f82015250565b5f612224600683611680565b915061222f826121f0565b602082019050919050565b5f6020820190508181035f83015261225181612218565b905091905056fea264697066735822122009334c0cb66fe55e518fccbe39e0ba279dc3c6af049e1417aace3db496a237d064736f6c634300081e0033",
					"opcodes": "PUSH1 0x80 PUSH1 0x40 MSTORE CALLVALUE DUP1 ISZERO PUSH2 0xF JUMPI PUSH0 PUSH0 REVERT JUMPDEST POP PUSH1 0x40 MLOAD PUSH2 0x2EB3 CODESIZE SUB DUP1 PUSH2 0x2EB3 DUP4 CODECOPY DUP2 DUP2 ADD PUSH1 0x40 MSTORE DUP2 ADD SWAP1 PUSH2 0x31 SWAP2 SWAP1 PUSH2 0x6B2 JUMP JUMPDEST PUSH1 0x40 MLOAD DUP1 PUSH1 0x40 ADD PUSH1 0x40 MSTORE DUP1 PUSH1 0x5 DUP2 MSTORE PUSH1 0x20 ADD PUSH32 0x5065706532000000000000000000000000000000000000000000000000000000 DUP2 MSTORE POP PUSH1 0x40 MLOAD DUP1 PUSH1 0x40 ADD PUSH1 0x40 MSTORE DUP1 PUSH1 0x5 DUP2 MSTORE PUSH1 0x20 ADD PUSH32 0x5045504532000000000000000000000000000000000000000000000000000000 DUP2 MSTORE POP PUSH2 0xB9 PUSH2 0xAE PUSH2 0xF1 PUSH1 0x20 SHL PUSH1 0x20 SHR JUMP JUMPDEST PUSH2 0xF8 PUSH1 0x20 SHL PUSH1 0x20 SHR JUMP JUMPDEST DUP2 PUSH1 0x4 SWAP1 DUP2 PUSH2 0xC8 SWAP2 SWAP1 PUSH2 0x911 JUMP JUMPDEST POP DUP1 PUSH1 0x5 SWAP1 DUP2 PUSH2 0xD8 SWAP2 SWAP1 PUSH2 0x911 JUMP JUMPDEST POP POP POP PUSH2 0xEB CALLER DUP3 PUSH2 0x1B9 PUSH1 0x20 SHL PUSH1 0x20 SHR JUMP JUMPDEST POP PUSH2 0xC18 JUMP JUMPDEST PUSH0 CALLER SWAP1 POP SWAP1 JUMP JUMPDEST PUSH0 PUSH0 PUSH0 SWAP1 SLOAD SWAP1 PUSH2 0x100 EXP SWAP1 DIV PUSH20 0xFFFFFFFFFFFFFFFFFFFFFFFFFFFFFFFFFFFFFFFF AND SWAP1 POP DUP2 PUSH0 PUSH0 PUSH2 0x100 EXP DUP2 SLOAD DUP2 PUSH20 0xFFFFFFFFFFFFFFFFFFFFFFFFFFFFFFFFFFFFFFFF MUL NOT AND SWAP1 DUP4 PUSH20 0xFFFFFFFFFFFFFFFFFFFFFFFFFFFFFFFFFFFFFFFF AND MUL OR SWAP1 SSTORE POP DUP2 PUSH20 0xFFFFFFFFFFFFFFFFFFFFFFFFFFFFFFFFFFFFFFFF AND DUP2 PUSH20 0xFFFFFFFFFFFFFFFFFFFFFFFFFFFFFFFFFFFFFFFF AND PUSH32 0x8BE0079C531659141344CD1FD0A4F28419497F9722A3DAAFE3B4186F6B6457E0 PUSH1 0x40 MLOAD PUSH1 0x40 MLOAD DUP1 SWAP2 SUB SWAP1 LOG3 POP POP JUMP JUMPDEST PUSH0 PUSH20 0xFFFFFFFFFFFFFFFFFFFFFFFFFFFFFFFFFFFFFFFF AND DUP3 PUSH20 0xFFFFFFFFFFFFFFFFFFFFFFFFFFFFFFFFFFFFFFFF AND SUB PUSH2 0x227 JUMPI PUSH1 0x40 MLOAD PUSH32 0x8C379A000000000000000000000000000000000000000000000000000000000 DUP2 MSTORE PUSH1 0x4 ADD PUSH2 0x21E SWAP1 PUSH2 0xA3A JUMP JUMPDEST PUSH1 0x40 MLOAD DUP1 SWAP2 SUB SWAP1 REVERT JUMPDEST PUSH2 0x238 PUSH0 DUP4 DUP4 PUSH2 0x31D PUSH1 0x20 SHL PUSH1 0x20 SHR JUMP JUMPDEST DUP1 PUSH1 0x3 PUSH0 DUP3 DUP3 SLOAD PUSH2 0x249 SWAP2 SWAP1 PUSH2 0xA85 JUMP JUMPDEST SWAP3 POP POP DUP2 SWAP1 SSTORE POP DUP1 PUSH1 0x1 PUSH0 DUP5 PUSH20 0xFFFFFFFFFFFFFFFFFFFFFFFFFFFFFFFFFFFFFFFF AND PUSH20 0xFFFFFFFFFFFFFFFFFFFFFFFFFFFFFFFFFFFFFFFF AND DUP2 MSTORE PUSH1 0x20 ADD SWAP1 DUP2 MSTORE PUSH1 0x20 ADD PUSH0 KECCAK256 PUSH0 DUP3 DUP3 SLOAD PUSH2 0x29C SWAP2 SWAP1 PUSH2 0xA85 JUMP JUMPDEST SWAP3 POP POP DUP2 SWAP1 SSTORE POP DUP2 PUSH20 0xFFFFFFFFFFFFFFFFFFFFFFFFFFFFFFFFFFFFFFFF AND PUSH0 PUSH20 0xFFFFFFFFFFFFFFFFFFFFFFFFFFFFFFFFFFFFFFFF AND PUSH32 0xDDF252AD1BE2C89B69C2B068FC378DAA952BA7F163C4A11628F55A4DF523B3EF DUP4 PUSH1 0x40 MLOAD PUSH2 0x300 SWAP2 SWAP1 PUSH2 0xAC7 JUMP JUMPDEST PUSH1 0x40 MLOAD DUP1 SWAP2 SUB SWAP1 LOG3 PUSH2 0x319 PUSH0 DUP4 DUP4 PUSH2 0x609 PUSH1 0x20 SHL PUSH1 0x20 SHR JUMP JUMPDEST POP POP JUMP JUMPDEST PUSH1 0xA PUSH0 DUP4 PUSH20 0xFFFFFFFFFFFFFFFFFFFFFFFFFFFFFFFFFFFFFFFF AND PUSH20 0xFFFFFFFFFFFFFFFFFFFFFFFFFFFFFFFFFFFFFFFF AND DUP2 MSTORE PUSH1 0x20 ADD SWAP1 DUP2 MSTORE PUSH1 0x20 ADD PUSH0 KECCAK256 PUSH0 SWAP1 SLOAD SWAP1 PUSH2 0x100 EXP SWAP1 DIV PUSH1 0xFF AND ISZERO DUP1 ISZERO PUSH2 0x3BB JUMPI POP PUSH1 0xA PUSH0 DUP5 PUSH20 0xFFFFFFFFFFFFFFFFFFFFFFFFFFFFFFFFFFFFFFFF AND PUSH20 0xFFFFFFFFFFFFFFFFFFFFFFFFFFFFFFFFFFFFFFFF AND DUP2 MSTORE PUSH1 0x20 ADD SWAP1 DUP2 MSTORE PUSH1 0x20 ADD PUSH0 KECCAK256 PUSH0 SWAP1 SLOAD SWAP1 PUSH2 0x100 EXP SWAP1 DIV PUSH1 0xFF AND ISZERO JUMPDEST PUSH2 0x3FA JUMPI PUSH1 0x40 MLOAD PUSH32 0x8C379A000000000000000000000000000000000000000000000000000000000 DUP2 MSTORE PUSH1 0x4 ADD PUSH2 0x3F1 SWAP1 PUSH2 0xB2A JUMP JUMPDEST PUSH1 0x40 MLOAD DUP1 SWAP2 SUB SWAP1 REVERT JUMPDEST PUSH0 PUSH20 0xFFFFFFFFFFFFFFFFFFFFFFFFFFFFFFFFFFFFFFFF AND PUSH1 0x9 PUSH0 SWAP1 SLOAD SWAP1 PUSH2 0x100 EXP SWAP1 DIV PUSH20 0xFFFFFFFFFFFFFFFFFFFFFFFFFFFFFFFFFFFFFFFF AND PUSH20 0xFFFFFFFFFFFFFFFFFFFFFFFFFFFFFFFFFFFFFFFF AND SUB PUSH2 0x511 JUMPI PUSH2 0x45C PUSH2 0x60E PUSH1 0x20 SHL PUSH1 0x20 SHR JUMP JUMPDEST PUSH20 0xFFFFFFFFFFFFFFFFFFFFFFFFFFFFFFFFFFFFFFFF AND DUP4 PUSH20 0xFFFFFFFFFFFFFFFFFFFFFFFFFFFFFFFFFFFFFFFF AND EQ DUP1 PUSH2 0x4CD JUMPI POP PUSH2 0x49E PUSH2 0x60E PUSH1 0x20 SHL PUSH1 0x20 SHR JUMP JUMPDEST PUSH20 0xFFFFFFFFFFFFFFFFFFFFFFFFFFFFFFFFFFFFFFFF AND DUP3 PUSH20 0xFFFFFFFFFFFFFFFFFFFFFFFFFFFFFFFFFFFFFFFF AND EQ JUMPDEST PUSH2 0x50C JUMPI PUSH1 0x40 MLOAD PUSH32 0x8C379A000000000000000000000000000000000000000000000000000000000 DUP2 MSTORE PUSH1 0x4 ADD PUSH2 0x503 SWAP1 PUSH2 0xB92 JUMP JUMPDEST PUSH1 0x40 MLOAD DUP1 SWAP2 SUB SWAP1 REVERT JUMPDEST PUSH2 0x604 JUMP JUMPDEST PUSH1 0x6 PUSH0 SWAP1 SLOAD SWAP1 PUSH2 0x100 EXP SWAP1 DIV PUSH1 0xFF AND DUP1 ISZERO PUSH2 0x578 JUMPI POP PUSH1 0x9 PUSH0 SWAP1 SLOAD SWAP1 PUSH2 0x100 EXP SWAP1 DIV PUSH20 0xFFFFFFFFFFFFFFFFFFFFFFFFFFFFFFFFFFFFFFFF AND PUSH20 0xFFFFFFFFFFFFFFFFFFFFFFFFFFFFFFFFFFFFFFFF AND DUP4 PUSH20 0xFFFFFFFFFFFFFFFFFFFFFFFFFFFFFFFFFFFFFFFF AND EQ JUMPDEST ISZERO PUSH2 0x603 JUMPI PUSH1 0x7 SLOAD DUP2 PUSH2 0x590 DUP5 PUSH2 0x635 PUSH1 0x20 SHL PUSH1 0x20 SHR JUMP JUMPDEST PUSH2 0x59A SWAP2 SWAP1 PUSH2 0xA85 JUMP JUMPDEST GT ISZERO DUP1 ISZERO PUSH2 0x5C3 JUMPI POP PUSH1 0x8 SLOAD DUP2 PUSH2 0x5B6 DUP5 PUSH2 0x635 PUSH1 0x20 SHL PUSH1 0x20 SHR JUMP JUMPDEST PUSH2 0x5C0 SWAP2 SWAP1 PUSH2 0xA85 JUMP JUMPDEST LT ISZERO JUMPDEST PUSH2 0x602 JUMPI PUSH1 0x40 MLOAD PUSH32 0x8C379A000000000000000000000000000000000000000000000000000000000 DUP2 MSTORE PUSH1 0x4 ADD PUSH2 0x5F9 SWAP1 PUSH2 0xBFA JUMP JUMPDEST PUSH1 0x40 MLOAD DUP1 SWAP2 SUB SWAP1 REVERT JUMPDEST JUMPDEST JUMPDEST POP POP POP JUMP JUMPDEST POP POP POP JUMP JUMPDEST PUSH0 PUSH0 PUSH0 SWAP1 SLOAD SWAP1 PUSH2 0x100 EXP SWAP1 DIV PUSH20 0xFFFFFFFFFFFFFFFFFFFFFFFFFFFFFFFFFFFFFFFF AND SWAP1 POP SWAP1 JUMP JUMPDEST PUSH0 PUSH1 0x1 PUSH0 DUP4 PUSH20 0xFFFFFFFFFFFFFFFFFFFFFFFFFFFFFFFFFFFFFFFF AND PUSH20 0xFFFFFFFFFFFFFFFFFFFFFFFFFFFFFFFFFFFFFFFF AND DUP2 MSTORE PUSH1 0x20 ADD SWAP1 DUP2 MSTORE PUSH1 0x20 ADD PUSH0 KECCAK256 SLOAD SWAP1 POP SWAP2 SWAP1 POP JUMP JUMPDEST PUSH0 PUSH0 REVERT JUMPDEST PUSH0 DUP2 SWAP1 POP SWAP2 SWAP1 POP JUMP JUMPDEST PUSH2 0x691 DUP2 PUSH2 0x67F JUMP JUMPDEST DUP2 EQ PUSH2 0x69B JUMPI PUSH0 PUSH0 REVERT JUMPDEST POP JUMP JUMPDEST PUSH0 DUP2 MLOAD SWAP1 POP PUSH2 0x6AC DUP2 PUSH2 0x688 JUMP JUMPDEST SWAP3 SWAP2 POP POP JUMP JUMPDEST PUSH0 PUSH1 0x20 DUP3 DUP5 SUB SLT ISZERO PUSH2 0x6C7 JUMPI PUSH2 0x6C6 PUSH2 0x67B JUMP JUMPDEST JUMPDEST PUSH0 PUSH2 0x6D4 DUP5 DUP3 DUP6 ADD PUSH2 0x69E JUMP JUMPDEST SWAP2 POP POP SWAP3 SWAP2 POP POP JUMP JUMPDEST PUSH0 DUP2 MLOAD SWAP1 POP SWAP2 SWAP1 POP JUMP JUMPDEST PUSH32 0x4E487B7100000000000000000000000000000000000000000000000000000000 PUSH0 MSTORE PUSH1 0x41 PUSH1 0x4 MSTORE PUSH1 0x24 PUSH0 REVERT JUMPDEST PUSH32 0x4E487B7100000000000000000000000000000000000000000000000000000000 PUSH0 MSTORE PUSH1 0x22 PUSH1 0x4 MSTORE PUSH1 0x24 PUSH0 REVERT JUMPDEST PUSH0 PUSH1 0x2 DUP3 DIV SWAP1 POP PUSH1 0x1 DUP3 AND DUP1 PUSH2 0x758 JUMPI PUSH1 0x7F DUP3 AND SWAP2 POP JUMPDEST PUSH1 0x20 DUP3 LT DUP2 SUB PUSH2 0x76B JUMPI PUSH2 0x76A PUSH2 0x714 JUMP JUMPDEST JUMPDEST POP SWAP2 SWAP1 POP JUMP JUMPDEST PUSH0 DUP2 SWAP1 POP DUP2 PUSH0 MSTORE PUSH1 0x20 PUSH0 KECCAK256 SWAP1 POP SWAP2 SWAP1 POP JUMP JUMPDEST PUSH0 PUSH1 0x20 PUSH1 0x1F DUP4 ADD DIV SWAP1 POP SWAP2 SWAP1 POP JUMP JUMPDEST PUSH0 DUP3 DUP3 SHL SWAP1 POP SWAP3 SWAP2 POP POP JUMP JUMPDEST PUSH0 PUSH1 0x8 DUP4 MUL PUSH2 0x7CD PUSH32 0xFFFFFFFFFFFFFFFFFFFFFFFFFFFFFFFFFFFFFFFFFFFFFFFFFFFFFFFFFFFFFFFF DUP3 PUSH2 0x792 JUMP JUMPDEST PUSH2 0x7D7 DUP7 DUP4 PUSH2 0x792 JUMP JUMPDEST SWAP6 POP DUP1 NOT DUP5 AND SWAP4 POP DUP1 DUP7 AND DUP5 OR SWAP3 POP POP POP SWAP4 SWAP3 POP POP POP JUMP JUMPDEST PUSH0 DUP2 SWAP1 POP SWAP2 SWAP1 POP JUMP JUMPDEST PUSH0 PUSH2 0x812 PUSH2 0x80D PUSH2 0x808 DUP5 PUSH2 0x67F JUMP JUMPDEST PUSH2 0x7EF JUMP JUMPDEST PUSH2 0x67F JUMP JUMPDEST SWAP1 POP SWAP2 SWAP1 POP JUMP JUMPDEST PUSH0 DUP2 SWAP1 POP SWAP2 SWAP1 POP JUMP JUMPDEST PUSH2 0x82B DUP4 PUSH2 0x7F8 JUMP JUMPDEST PUSH2 0x83F PUSH2 0x837 DUP3 PUSH2 0x819 JUMP JUMPDEST DUP5 DUP5 SLOAD PUSH2 0x79E JUMP JUMPDEST DUP3 SSTORE POP POP POP POP JUMP JUMPDEST PUSH0 PUSH0 SWAP1 POP SWAP1 JUMP JUMPDEST PUSH2 0x856 PUSH2 0x847 JUMP JUMPDEST PUSH2 0x861 DUP2 DUP5 DUP5 PUSH2 0x822 JUMP JUMPDEST POP POP POP JUMP JUMPDEST JUMPDEST DUP2 DUP2 LT ISZERO PUSH2 0x884 JUMPI PUSH2 0x879 PUSH0 DUP3 PUSH2 0x84E JUMP JUMPDEST PUSH1 0x1 DUP2 ADD SWAP1 POP PUSH2 0x867 JUMP JUMPDEST POP POP JUMP JUMPDEST PUSH1 0x1F DUP3 GT ISZERO PUSH2 0x8C9 JUMPI PUSH2 0x89A DUP2 PUSH2 0x771 JUMP JUMPDEST PUSH2 0x8A3 DUP5 PUSH2 0x783 JUMP JUMPDEST DUP2 ADD PUSH1 0x20 DUP6 LT ISZERO PUSH2 0x8B2 JUMPI DUP2 SWAP1 POP JUMPDEST PUSH2 0x8C6 PUSH2 0x8BE DUP6 PUSH2 0x783 JUMP JUMPDEST DUP4 ADD DUP3 PUSH2 0x866 JUMP JUMPDEST POP POP JUMPDEST POP POP POP JUMP JUMPDEST PUSH0 DUP3 DUP3 SHR SWAP1 POP SWAP3 SWAP2 POP POP JUMP JUMPDEST PUSH0 PUSH2 0x8E9 PUSH0 NOT DUP5 PUSH1 0x8 MUL PUSH2 0x8CE JUMP JUMPDEST NOT DUP1 DUP4 AND SWAP2 POP POP SWAP3 SWAP2 POP POP JUMP JUMPDEST PUSH0 PUSH2 0x901 DUP4 DUP4 PUSH2 0x8DA JUMP JUMPDEST SWAP2 POP DUP3 PUSH1 0x2 MUL DUP3 OR SWAP1 POP SWAP3 SWAP2 POP POP JUMP JUMPDEST PUSH2 0x91A DUP3 PUSH2 0x6DD JUMP JUMPDEST PUSH8 0xFFFFFFFFFFFFFFFF DUP2 GT ISZERO PUSH2 0x933 JUMPI PUSH2 0x932 PUSH2 0x6E7 JUMP JUMPDEST JUMPDEST PUSH2 0x93D DUP3 SLOAD PUSH2 0x741 JUMP JUMPDEST PUSH2 0x948 DUP3 DUP3 DUP6 PUSH2 0x888 JUMP JUMPDEST PUSH0 PUSH1 0x20 SWAP1 POP PUSH1 0x1F DUP4 GT PUSH1 0x1 DUP2 EQ PUSH2 0x979 JUMPI PUSH0 DUP5 ISZERO PUSH2 0x967 JUMPI DUP3 DUP8 ADD MLOAD SWAP1 POP JUMPDEST PUSH2 0x971 DUP6 DUP3 PUSH2 0x8F6 JUMP JUMPDEST DUP7 SSTORE POP PUSH2 0x9D8 JUMP JUMPDEST PUSH1 0x1F NOT DUP5 AND PUSH2 0x987 DUP7 PUSH2 0x771 JUMP JUMPDEST PUSH0 JUMPDEST DUP3 DUP2 LT ISZERO PUSH2 0x9AE JUMPI DUP5 DUP10 ADD MLOAD DUP3 SSTORE PUSH1 0x1 DUP3 ADD SWAP2 POP PUSH1 0x20 DUP6 ADD SWAP5 POP PUSH1 0x20 DUP2 ADD SWAP1 POP PUSH2 0x989 JUMP JUMPDEST DUP7 DUP4 LT ISZERO PUSH2 0x9CB JUMPI DUP5 DUP10 ADD MLOAD PUSH2 0x9C7 PUSH1 0x1F DUP10 AND DUP3 PUSH2 0x8DA JUMP JUMPDEST DUP4 SSTORE POP JUMPDEST PUSH1 0x1 PUSH1 0x2 DUP9 MUL ADD DUP9 SSTORE POP POP POP JUMPDEST POP POP POP POP POP POP JUMP JUMPDEST PUSH0 DUP3 DUP3 MSTORE PUSH1 0x20 DUP3 ADD SWAP1 POP SWAP3 SWAP2 POP POP JUMP JUMPDEST PUSH32 0x45524332303A206D696E7420746F20746865207A65726F206164647265737300 PUSH0 DUP3 ADD MSTORE POP JUMP JUMPDEST PUSH0 PUSH2 0xA24 PUSH1 0x1F DUP4 PUSH2 0x9E0 JUMP JUMPDEST SWAP2 POP PUSH2 0xA2F DUP3 PUSH2 0x9F0 JUMP JUMPDEST PUSH1 0x20 DUP3 ADD SWAP1 POP SWAP2 SWAP1 POP JUMP JUMPDEST PUSH0 PUSH1 0x20 DUP3 ADD SWAP1 POP DUP2 DUP2 SUB PUSH0 DUP4 ADD MSTORE PUSH2 0xA51 DUP2 PUSH2 0xA18 JUMP JUMPDEST SWAP1 POP SWAP2 SWAP1 POP JUMP JUMPDEST PUSH32 0x4E487B7100000000000000000000000000000000000000000000000000000000 PUSH0 MSTORE PUSH1 0x11 PUSH1 0x4 MSTORE PUSH1 0x24 PUSH0 REVERT JUMPDEST PUSH0 PUSH2 0xA8F DUP3 PUSH2 0x67F JUMP JUMPDEST SWAP2 POP PUSH2 0xA9A DUP4 PUSH2 0x67F JUMP JUMPDEST SWAP3 POP DUP3 DUP3 ADD SWAP1 POP DUP1 DUP3 GT ISZERO PUSH2 0xAB2 JUMPI PUSH2 0xAB1 PUSH2 0xA58 JUMP JUMPDEST JUMPDEST SWAP3 SWAP2 POP POP JUMP JUMPDEST PUSH2 0xAC1 DUP2 PUSH2 0x67F JUMP JUMPDEST DUP3 MSTORE POP POP JUMP JUMPDEST PUSH0 PUSH1 0x20 DUP3 ADD SWAP1 POP PUSH2 0xADA PUSH0 DUP4 ADD DUP5 PUSH2 0xAB8 JUMP JUMPDEST SWAP3 SWAP2 POP POP JUMP JUMPDEST PUSH32 0x426C61636B6C6973746564000000000000000000000000000000000000000000 PUSH0 DUP3 ADD MSTORE POP JUMP JUMPDEST PUSH0 PUSH2 0xB14 PUSH1 0xB DUP4 PUSH2 0x9E0 JUMP JUMPDEST SWAP2 POP PUSH2 0xB1F DUP3 PUSH2 0xAE0 JUMP JUMPDEST PUSH1 0x20 DUP3 ADD SWAP1 POP SWAP2 SWAP1 POP JUMP JUMPDEST PUSH0 PUSH1 0x20 DUP3 ADD SWAP1 POP DUP2 DUP2 SUB PUSH0 DUP4 ADD MSTORE PUSH2 0xB41 DUP2 PUSH2 0xB08 JUMP JUMPDEST SWAP1 POP SWAP2 SWAP1 POP JUMP JUMPDEST PUSH32 0x74726164696E67206973206E6F74207374617274656400000000000000000000 PUSH0 DUP3 ADD MSTORE POP JUMP JUMPDEST PUSH0 PUSH2 0xB7C PUSH1 0x16 DUP4 PUSH2 0x9E0 JUMP JUMPDEST SWAP2 POP PUSH2 0xB87 DUP3 PUSH2 0xB48 JUMP JUMPDEST PUSH1 0x20 DUP3 ADD SWAP1 POP SWAP2 SWAP1 POP JUMP JUMPDEST PUSH0 PUSH1 0x20 DUP3 ADD SWAP1 POP DUP2 DUP2 SUB PUSH0 DUP4 ADD MSTORE PUSH2 0xBA9 DUP2 PUSH2 0xB70 JUMP JUMPDEST SWAP1 POP SWAP2 SWAP1 POP JUMP JUMPDEST PUSH32 0x466F726269640000000000000000000000000000000000000000000000000000 PUSH0 DUP3 ADD MSTORE POP JUMP JUMPDEST PUSH0 PUSH2 0xBE4 PUSH1 0x6 DUP4 PUSH2 0x9E0 JUMP JUMPDEST SWAP2 POP PUSH2 0xBEF DUP3 PUSH2 0xBB0 JUMP JUMPDEST PUSH1 0x20 DUP3 ADD SWAP1 POP SWAP2 SWAP1 POP JUMP JUMPDEST PUSH0 PUSH1 0x20 DUP3 ADD SWAP1 POP DUP2 DUP2 SUB PUSH0 DUP4 ADD MSTORE PUSH2 0xC11 DUP2 PUSH2 0xBD8 JUMP JUMPDEST SWAP1 POP SWAP2 SWAP1 POP JUMP JUMPDEST PUSH2 0x228E DUP1 PUSH2 0xC25 PUSH0 CODECOPY PUSH0 RETURN INVALID PUSH1 0x80 PUSH1 0x40 MSTORE CALLVALUE DUP1 ISZERO PUSH2 0xF JUMPI PUSH0 PUSH0 REVERT JUMPDEST POP PUSH1 0x4 CALLDATASIZE LT PUSH2 0x140 JUMPI PUSH0 CALLDATALOAD PUSH1 0xE0 SHR DUP1 PUSH4 0x49BD5A5E GT PUSH2 0xB6 JUMPI DUP1 PUSH4 0x8DA5CB5B GT PUSH2 0x7A JUMPI DUP1 PUSH4 0x8DA5CB5B EQ PUSH2 0x364 JUMPI DUP1 PUSH4 0x95D89B41 EQ PUSH2 0x382 JUMPI DUP1 PUSH4 0xA457C2D7 EQ PUSH2 0x3A0 JUMPI DUP1 PUSH4 0xA9059CBB EQ PUSH2 0x3D0 JUMPI DUP1 PUSH4 0xDD62ED3E EQ PUSH2 0x400 JUMPI DUP1 PUSH4 0xF2FDE38B EQ PUSH2 0x430 JUMPI PUSH2 0x140 JUMP JUMPDEST DUP1 PUSH4 0x49BD5A5E EQ PUSH2 0x2D0 JUMPI DUP1 PUSH4 0x70A08231 EQ PUSH2 0x2EE JUMPI DUP1 PUSH4 0x715018A6 EQ PUSH2 0x31E JUMPI DUP1 PUSH4 0x860A32EC EQ PUSH2 0x328 JUMPI DUP1 PUSH4 0x89F9A1D3 EQ PUSH2 0x346 JUMPI PUSH2 0x140 JUMP JUMPDEST DUP1 PUSH4 0x23B872DD GT PUSH2 0x108 JUMPI DUP1 PUSH4 0x23B872DD EQ PUSH2 0x1FE JUMPI DUP1 PUSH4 0x313CE567 EQ PUSH2 0x22E JUMPI DUP1 PUSH4 0x39509351 EQ PUSH2 0x24C JUMPI DUP1 PUSH4 0x3AA633AA EQ PUSH2 0x27C JUMPI DUP1 PUSH4 0x404E5129 EQ PUSH2 0x298 JUMPI DUP1 PUSH4 0x42966C68 EQ PUSH2 0x2B4 JUMPI PUSH2 0x140 JUMP JUMPDEST DUP1 PUSH4 0x6FDDE03 EQ PUSH2 0x144 JUMPI DUP1 PUSH4 0x95EA7B3 EQ PUSH2 0x162 JUMPI DUP1 PUSH4 0x16C02129 EQ PUSH2 0x192 JUMPI DUP1 PUSH4 0x18160DDD EQ PUSH2 0x1C2 JUMPI DUP1 PUSH4 0x1AB99E12 EQ PUSH2 0x1E0 JUMPI JUMPDEST PUSH0 PUSH0 REVERT JUMPDEST PUSH2 0x14C PUSH2 0x44C JUMP JUMPDEST PUSH1 0x40 MLOAD PUSH2 0x159 SWAP2 SWAP1 PUSH2 0x16E6 JUMP JUMPDEST PUSH1 0x40 MLOAD DUP1 SWAP2 SUB SWAP1 RETURN JUMPDEST PUSH2 0x17C PUSH1 0x4 DUP1 CALLDATASIZE SUB DUP2 ADD SWAP1 PUSH2 0x177 SWAP2 SWAP1 PUSH2 0x1797 JUMP JUMPDEST PUSH2 0x4DC JUMP JUMPDEST PUSH1 0x40 MLOAD PUSH2 0x189 SWAP2 SWAP1 PUSH2 0x17EF JUMP JUMPDEST PUSH1 0x40 MLOAD DUP1 SWAP2 SUB SWAP1 RETURN JUMPDEST PUSH2 0x1AC PUSH1 0x4 DUP1 CALLDATASIZE SUB DUP2 ADD SWAP1 PUSH2 0x1A7 SWAP2 SWAP1 PUSH2 0x1808 JUMP JUMPDEST PUSH2 0x4F9 JUMP JUMPDEST PUSH1 0x40 MLOAD PUSH2 0x1B9 SWAP2 SWAP1 PUSH2 0x17EF JUMP JUMPDEST PUSH1 0x40 MLOAD DUP1 SWAP2 SUB SWAP1 RETURN JUMPDEST PUSH2 0x1CA PUSH2 0x516 JUMP JUMPDEST PUSH1 0x40 MLOAD PUSH2 0x1D7 SWAP2 SWAP1 PUSH2 0x1842 JUMP JUMPDEST PUSH1 0x40 MLOAD DUP1 SWAP2 SUB SWAP1 RETURN JUMPDEST PUSH2 0x1E8 PUSH2 0x51F JUMP JUMPDEST PUSH1 0x40 MLOAD PUSH2 0x1F5 SWAP2 SWAP1 PUSH2 0x1842 JUMP JUMPDEST PUSH1 0x40 MLOAD DUP1 SWAP2 SUB SWAP1 RETURN JUMPDEST PUSH2 0x218 PUSH1 0x4 DUP1 CALLDATASIZE SUB DUP2 ADD SWAP1 PUSH2 0x213 SWAP2 SWAP1 PUSH2 0x185B JUMP JUMPDEST PUSH2 0x525 JUMP JUMPDEST PUSH1 0x40 MLOAD PUSH2 0x225 SWAP2 SWAP1 PUSH2 0x17EF JUMP JUMPDEST PUSH1 0x40 MLOAD DUP1 SWAP2 SUB SWAP1 RETURN JUMPDEST PUSH2 0x236 PUSH2 0x617 JUMP JUMPDEST PUSH1 0x40 MLOAD PUSH2 0x243 SWAP2 SWAP1 PUSH2 0x18C6 JUMP JUMPDEST PUSH1 0x40 MLOAD DUP1 SWAP2 SUB SWAP1 RETURN JUMPDEST PUSH2 0x266 PUSH1 0x4 DUP1 CALLDATASIZE SUB DUP2 ADD SWAP1 PUSH2 0x261 SWAP2 SWAP1 PUSH2 0x1797 JUMP JUMPDEST PUSH2 0x61F JUMP JUMPDEST PUSH1 0x40 MLOAD PUSH2 0x273 SWAP2 SWAP1 PUSH2 0x17EF JUMP JUMPDEST PUSH1 0x40 MLOAD DUP1 SWAP2 SUB SWAP1 RETURN JUMPDEST PUSH2 0x296 PUSH1 0x4 DUP1 CALLDATASIZE SUB DUP2 ADD SWAP1 PUSH2 0x291 SWAP2 SWAP1 PUSH2 0x1909 JUMP JUMPDEST PUSH2 0x6C6 JUMP JUMPDEST STOP JUMPDEST PUSH2 0x2B2 PUSH1 0x4 DUP1 CALLDATASIZE SUB DUP2 ADD SWAP1 PUSH2 0x2AD SWAP2 SWAP1 PUSH2 0x196D JUMP JUMPDEST PUSH2 0x7AF JUMP JUMPDEST STOP JUMPDEST PUSH2 0x2CE PUSH1 0x4 DUP1 CALLDATASIZE SUB DUP2 ADD SWAP1 PUSH2 0x2C9 SWAP2 SWAP1 PUSH2 0x19AB JUMP JUMPDEST PUSH2 0x883 JUMP JUMPDEST STOP JUMPDEST PUSH2 0x2D8 PUSH2 0x890 JUMP JUMPDEST PUSH1 0x40 MLOAD PUSH2 0x2E5 SWAP2 SWAP1 PUSH2 0x19E5 JUMP JUMPDEST PUSH1 0x40 MLOAD DUP1 SWAP2 SUB SWAP1 RETURN JUMPDEST PUSH2 0x308 PUSH1 0x4 DUP1 CALLDATASIZE SUB DUP2 ADD SWAP1 PUSH2 0x303 SWAP2 SWAP1 PUSH2 0x1808 JUMP JUMPDEST PUSH2 0x8B5 JUMP JUMPDEST PUSH1 0x40 MLOAD PUSH2 0x315 SWAP2 SWAP1 PUSH2 0x1842 JUMP JUMPDEST PUSH1 0x40 MLOAD DUP1 SWAP2 SUB SWAP1 RETURN JUMPDEST PUSH2 0x326 PUSH2 0x8FB JUMP JUMPDEST STOP JUMPDEST PUSH2 0x330 PUSH2 0x982 JUMP JUMPDEST PUSH1 0x40 MLOAD PUSH2 0x33D SWAP2 SWAP1 PUSH2 0x17EF JUMP JUMPDEST PUSH1 0x40 MLOAD DUP1 SWAP2 SUB SWAP1 RETURN JUMPDEST PUSH2 0x34E PUSH2 0x994 JUMP JUMPDEST PUSH1 0x40 MLOAD PUSH2 0x35B SWAP2 SWAP1 PUSH2 0x1842 JUMP JUMPDEST PUSH1 0x40 MLOAD DUP1 SWAP2 SUB SWAP1 RETURN JUMPDEST PUSH2 0x36C PUSH2 0x99A JUMP JUMPDEST PUSH1 0x40 MLOAD PUSH2 0x379 SWAP2 SWAP1 PUSH2 0x19E5 JUMP JUMPDEST PUSH1 0x40 MLOAD DUP1 SWAP2 SUB SWAP1 RETURN JUMPDEST PUSH2 0x38A PUSH2 0x9C1 JUMP JUMPDEST PUSH1 0x40 MLOAD PUSH2 0x397 SWAP2 SWAP1 PUSH2 0x16E6 JUMP JUMPDEST PUSH1 0x40 MLOAD DUP1 SWAP2 SUB SWAP1 RETURN JUMPDEST PUSH2 0x3BA PUSH1 0x4 DUP1 CALLDATASIZE SUB DUP2 ADD SWAP1 PUSH2 0x3B5 SWAP2 SWAP1 PUSH2 0x1797 JUMP JUMPDEST PUSH2 0xA51 JUMP JUMPDEST PUSH1 0x40 MLOAD PUSH2 0x3C7 SWAP2 SWAP1 PUSH2 0x17EF JUMP JUMPDEST PUSH1 0x40 MLOAD DUP1 SWAP2 SUB SWAP1 RETURN JUMPDEST PUSH2 0x3EA PUSH1 0x4 DUP1 CALLDATASIZE SUB DUP2 ADD SWAP1 PUSH2 0x3E5 SWAP2 SWAP1 PUSH2 0x1797 JUMP JUMPDEST PUSH2 0xB37 JUMP JUMPDEST PUSH1 0x40 MLOAD PUSH2 0x3F7 SWAP2 SWAP1 PUSH2 0x17EF JUMP JUMPDEST PUSH1 0x40 MLOAD DUP1 SWAP2 SUB SWAP1 RETURN JUMPDEST PUSH2 0x41A PUSH1 0x4 DUP1 CALLDATASIZE SUB DUP2 ADD SWAP1 PUSH2 0x415 SWAP2 SWAP1 PUSH2 0x19FE JUMP JUMPDEST PUSH2 0xB54 JUMP JUMPDEST PUSH1 0x40 MLOAD PUSH2 0x427 SWAP2 SWAP1 PUSH2 0x1842 JUMP JUMPDEST PUSH1 0x40 MLOAD DUP1 SWAP2 SUB SWAP1 RETURN JUMPDEST PUSH2 0x44A PUSH1 0x4 DUP1 CALLDATASIZE SUB DUP2 ADD SWAP1 PUSH2 0x445 SWAP2 SWAP1 PUSH2 0x1808 JUMP JUMPDEST PUSH2 0xBD6 JUMP JUMPDEST STOP JUMPDEST PUSH1 0x60 PUSH1 0x4 DUP1 SLOAD PUSH2 0x45B SWAP1 PUSH2 0x1A69 JUMP JUMPDEST DUP1 PUSH1 0x1F ADD PUSH1 0x20 DUP1 SWAP2 DIV MUL PUSH1 0x20 ADD PUSH1 0x40 MLOAD SWAP1 DUP2 ADD PUSH1 0x40 MSTORE DUP1 SWAP3 SWAP2 SWAP1 DUP2 DUP2 MSTORE PUSH1 0x20 ADD DUP3 DUP1 SLOAD PUSH2 0x487 SWAP1 PUSH2 0x1A69 JUMP JUMPDEST DUP1 ISZERO PUSH2 0x4D2 JUMPI DUP1 PUSH1 0x1F LT PUSH2 0x4A9 JUMPI PUSH2 0x100 DUP1 DUP4 SLOAD DIV MUL DUP4 MSTORE SWAP2 PUSH1 0x20 ADD SWAP2 PUSH2 0x4D2 JUMP JUMPDEST DUP3 ADD SWAP2 SWAP1 PUSH0 MSTORE PUSH1 0x20 PUSH0 KECCAK256 SWAP1 JUMPDEST DUP2 SLOAD DUP2 MSTORE SWAP1 PUSH1 0x1 ADD SWAP1 PUSH1 0x20 ADD DUP1 DUP4 GT PUSH2 0x4B5 JUMPI DUP3 SWAP1 SUB PUSH1 0x1F AND DUP3 ADD SWAP2 JUMPDEST POP POP POP POP POP SWAP1 POP SWAP1 JUMP JUMPDEST PUSH0 PUSH2 0x4EF PUSH2 0x4E8 PUSH2 0xCCC JUMP JUMPDEST DUP5 DUP5 PUSH2 0xCD3 JUMP JUMPDEST PUSH1 0x1 SWAP1 POP SWAP3 SWAP2 POP POP JUMP JUMPDEST PUSH1 0xA PUSH1 0x20 MSTORE DUP1 PUSH0 MSTORE PUSH1 0x40 PUSH0 KECCAK256 PUSH0 SWAP2 POP SLOAD SWAP1 PUSH2 0x100 EXP SWAP1 DIV PUSH1 0xFF AND DUP2 JUMP JUMPDEST PUSH0 PUSH1 0x3 SLOAD SWAP1 POP SWAP1 JUMP JUMPDEST PUSH1 0x8 SLOAD DUP2 JUMP JUMPDEST PUSH0 PUSH2 0x531 DUP5 DUP5 DUP5 PUSH2 0xE96 JUMP JUMPDEST PUSH0 PUSH1 0x2 PUSH0 DUP7 PUSH20 0xFFFFFFFFFFFFFFFFFFFFFFFFFFFFFFFFFFFFFFFF AND PUSH20 0xFFFFFFFFFFFFFFFFFFFFFFFFFFFFFFFFFFFFFFFF AND DUP2 MSTORE PUSH1 0x20 ADD SWAP1 DUP2 MSTORE PUSH1 0x20 ADD PUSH0 KECCAK256 PUSH0 PUSH2 0x578 PUSH2 0xCCC JUMP JUMPDEST PUSH20 0xFFFFFFFFFFFFFFFFFFFFFFFFFFFFFFFFFFFFFFFF AND PUSH20 0xFFFFFFFFFFFFFFFFFFFFFFFFFFFFFFFFFFFFFFFF AND DUP2 MSTORE PUSH1 0x20 ADD SWAP1 DUP2 MSTORE PUSH1 0x20 ADD PUSH0 KECCAK256 SLOAD SWAP1 POP DUP3 DUP2 LT ISZERO PUSH2 0x5F7 JUMPI PUSH1 0x40 MLOAD PUSH32 0x8C379A000000000000000000000000000000000000000000000000000000000 DUP2 MSTORE PUSH1 0x4 ADD PUSH2 0x5EE SWAP1 PUSH2 0x1B09 JUMP JUMPDEST PUSH1 0x40 MLOAD DUP1 SWAP2 SUB SWAP1 REVERT JUMPDEST PUSH2 0x60B DUP6 PUSH2 0x603 PUSH2 0xCCC JUMP JUMPDEST DUP6 DUP5 SUB PUSH2 0xCD3 JUMP JUMPDEST PUSH1 0x1 SWAP2 POP POP SWAP4 SWAP3 POP POP POP JUMP JUMPDEST PUSH0 PUSH1 0x12 SWAP1 POP SWAP1 JUMP JUMPDEST PUSH0 PUSH2 0x6BC PUSH2 0x62B PUSH2 0xCCC JUMP JUMPDEST DUP5 DUP5 PUSH1 0x2 PUSH0 PUSH2 0x638 PUSH2 0xCCC JUMP JUMPDEST PUSH20 0xFFFFFFFFFFFFFFFFFFFFFFFFFFFFFFFFFFFFFFFF AND PUSH20 0xFFFFFFFFFFFFFFFFFFFFFFFFFFFFFFFFFFFFFFFF AND DUP2 MSTORE PUSH1 0x20 ADD SWAP1 DUP2 MSTORE PUSH1 0x20 ADD PUSH0 KECCAK256 PUSH0 DUP9 PUSH20 0xFFFFFFFFFFFFFFFFFFFFFFFFFFFFFFFFFFFFFFFF AND PUSH20 0xFFFFFFFFFFFFFFFFFFFFFFFFFFFFFFFFFFFFFFFF AND DUP2 MSTORE PUSH1 0x20 ADD SWAP1 DUP2 MSTORE PUSH1 0x20 ADD PUSH0 KECCAK256 SLOAD PUSH2 0x6B7 SWAP2 SWAP1 PUSH2 0x1B54 JUMP JUMPDEST PUSH2 0xCD3 JUMP JUMPDEST PUSH1 0x1 SWAP1 POP SWAP3 SWAP2 POP POP JUMP JUMPDEST PUSH2 0x6CE PUSH2 0xCCC JUMP JUMPDEST PUSH20 0xFFFFFFFFFFFFFFFFFFFFFFFFFFFFFFFFFFFFFFFF AND PUSH2 0x6EC PUSH2 0x99A JUMP JUMPDEST PUSH20 0xFFFFFFFFFFFFFFFFFFFFFFFFFFFFFFFFFFFFFFFF AND EQ PUSH2 0x742 JUMPI PUSH1 0x40 MLOAD PUSH32 0x8C379A000000000000000000000000000000000000000000000000000000000 DUP2 MSTORE PUSH1 0x4 ADD PUSH2 0x739 SWAP1 PUSH2 0x1BD1 JUMP JUMPDEST PUSH1 0x40 MLOAD DUP1 SWAP2 SUB SWAP1 REVERT JUMPDEST DUP4 PUSH1 0x6 PUSH0 PUSH2 0x100 EXP DUP2 SLOAD DUP2 PUSH1 0xFF MUL NOT AND SWAP1 DUP4 ISZERO ISZERO MUL OR SWAP1 SSTORE POP DUP3 PUSH1 0x9 PUSH0 PUSH2 0x100 EXP DUP2 SLOAD DUP2 PUSH20 0xFFFFFFFFFFFFFFFFFFFFFFFFFFFFFFFFFFFFFFFF MUL NOT AND SWAP1 DUP4 PUSH20 0xFFFFFFFFFFFFFFFFFFFFFFFFFFFFFFFFFFFFFFFF AND MUL OR SWAP1 SSTORE POP DUP2 PUSH1 0x7 DUP2 SWAP1 SSTORE POP DUP1 PUSH1 0x8 DUP2 SWAP1 SSTORE POP POP POP POP POP JUMP JUMPDEST PUSH2 0x7B7 PUSH2 0xCCC JUMP JUMPDEST PUSH20 0xFFFFFFFFFFFFFFFFFFFFFFFFFFFFFFFFFFFFFFFF AND PUSH2 0x7D5 PUSH2 0x99A JUMP JUMPDEST PUSH20 0xFFFFFFFFFFFFFFFFFFFFFFFFFFFFFFFFFFFFFFFF AND EQ PUSH2 0x82B JUMPI PUSH1 0x40 MLOAD PUSH32 0x8C379A000000000000000000000000000000000000000000000000000000000 DUP2 MSTORE PUSH1 0x4 ADD PUSH2 0x822 SWAP1 PUSH2 0x1BD1 JUMP JUMPDEST PUSH1 0x40 MLOAD DUP1 SWAP2 SUB SWAP1 REVERT JUMPDEST DUP1 PUSH1 0xA PUSH0 DUP5 PUSH20 0xFFFFFFFFFFFFFFFFFFFFFFFFFFFFFFFFFFFFFFFF AND PUSH20 0xFFFFFFFFFFFFFFFFFFFFFFFFFFFFFFFFFFFFFFFF AND DUP2 MSTORE PUSH1 0x20 ADD SWAP1 DUP2 MSTORE PUSH1 0x20 ADD PUSH0 KECCAK256 PUSH0 PUSH2 0x100 EXP DUP2 SLOAD DUP2 PUSH1 0xFF MUL NOT AND SWAP1 DUP4 ISZERO ISZERO MUL OR SWAP1 SSTORE POP POP POP JUMP JUMPDEST PUSH2 0x88D CALLER DUP3 PUSH2 0x110E JUMP JUMPDEST POP JUMP JUMPDEST PUSH1 0x9 PUSH0 SWAP1 SLOAD SWAP1 PUSH2 0x100 EXP SWAP1 DIV PUSH20 0xFFFFFFFFFFFFFFFFFFFFFFFFFFFFFFFFFFFFFFFF AND DUP2 JUMP JUMPDEST PUSH0 PUSH1 0x1 PUSH0 DUP4 PUSH20 0xFFFFFFFFFFFFFFFFFFFFFFFFFFFFFFFFFFFFFFFF AND PUSH20 0xFFFFFFFFFFFFFFFFFFFFFFFFFFFFFFFFFFFFFFFF AND DUP2 MSTORE PUSH1 0x20 ADD SWAP1 DUP2 MSTORE PUSH1 0x20 ADD PUSH0 KECCAK256 SLOAD SWAP1 POP SWAP2 SWAP1 POP JUMP JUMPDEST PUSH2 0x903 PUSH2 0xCCC JUMP JUMPDEST PUSH20 0xFFFFFFFFFFFFFFFFFFFFFFFFFFFFFFFFFFFFFFFF AND PUSH2 0x921 PUSH2 0x99A JUMP JUMPDEST PUSH20 0xFFFFFFFFFFFFFFFFFFFFFFFFFFFFFFFFFFFFFFFF AND EQ PUSH2 0x977 JUMPI PUSH1 0x40 MLOAD PUSH32 0x8C379A000000000000000000000000000000000000000000000000000000000 DUP2 MSTORE PUSH1 0x4 ADD PUSH2 0x96E SWAP1 PUSH2 0x1BD1 JUMP JUMPDEST PUSH1 0x40 MLOAD DUP1 SWAP2 SUB SWAP1 REVERT JUMPDEST PUSH2 0x980 PUSH0 PUSH2 0x12DC JUMP JUMPDEST JUMP JUMPDEST PUSH1 0x6 PUSH0 SWAP1 SLOAD SWAP1 PUSH2 0x100 EXP SWAP1 DIV PUSH1 0xFF AND DUP2 JUMP JUMPDEST PUSH1 0x7 SLOAD DUP2 JUMP JUMPDEST PUSH0 PUSH0 PUSH0 SWAP1 SLOAD SWAP1 PUSH2 0x100 EXP SWAP1 DIV PUSH20 0xFFFFFFFFFFFFFFFFFFFFFFFFFFFFFFFFFFFFFFFF AND SWAP1 POP SWAP1 JUMP JUMPDEST PUSH1 0x60 PUSH1 0x5 DUP1 SLOAD PUSH2 0x9D0 SWAP1 PUSH2 0x1A69 JUMP JUMPDEST DUP1 PUSH1 0x1F ADD PUSH1 0x20 DUP1 SWAP2 DIV MUL PUSH1 0x20 ADD PUSH1 0x40 MLOAD SWAP1 DUP2 ADD PUSH1 0x40 MSTORE DUP1 SWAP3 SWAP2 SWAP1 DUP2 DUP2 MSTORE PUSH1 0x20 ADD DUP3 DUP1 SLOAD PUSH2 0x9FC SWAP1 PUSH2 0x1A69 JUMP JUMPDEST DUP1 ISZERO PUSH2 0xA47 JUMPI DUP1 PUSH1 0x1F LT PUSH2 0xA1E JUMPI PUSH2 0x100 DUP1 DUP4 SLOAD DIV MUL DUP4 MSTORE SWAP2 PUSH1 0x20 ADD SWAP2 PUSH2 0xA47 JUMP JUMPDEST DUP3 ADD SWAP2 SWAP1 PUSH0 MSTORE PUSH1 0x20 PUSH0 KECCAK256 SWAP1 JUMPDEST DUP2 SLOAD DUP2 MSTORE SWAP1 PUSH1 0x1 ADD SWAP1 PUSH1 0x20 ADD DUP1 DUP4 GT PUSH2 0xA2A JUMPI DUP3 SWAP1 SUB PUSH1 0x1F AND DUP3 ADD SWAP2 JUMPDEST POP POP POP POP POP SWAP1 POP SWAP1 JUMP JUMPDEST PUSH0 PUSH0 PUSH1 0x2 PUSH0 PUSH2 0xA5E PUSH2 0xCCC JUMP JUMPDEST PUSH20 0xFFFFFFFFFFFFFFFFFFFFFFFFFFFFFFFFFFFFFFFF AND PUSH20 0xFFFFFFFFFFFFFFFFFFFFFFFFFFFFFFFFFFFFFFFF AND DUP2 MSTORE PUSH1 0x20 ADD SWAP1 DUP2 MSTORE PUSH1 0x20 ADD PUSH0 KECCAK256 PUSH0 DUP6 PUSH20 0xFFFFFFFFFFFFFFFFFFFFFFFFFFFFFFFFFFFFFFFF AND PUSH20 0xFFFFFFFFFFFFFFFFFFFFFFFFFFFFFFFFFFFFFFFF AND DUP2 MSTORE PUSH1 0x20 ADD SWAP1 DUP2 MSTORE PUSH1 0x20 ADD PUSH0 KECCAK256 SLOAD SWAP1 POP DUP3 DUP2 LT ISZERO PUSH2 0xB18 JUMPI PUSH1 0x40 MLOAD PUSH32 0x8C379A000000000000000000000000000000000000000000000000000000000 DUP2 MSTORE PUSH1 0x4 ADD PUSH2 0xB0F SWAP1 PUSH2 0x1C5F JUMP JUMPDEST PUSH1 0x40 MLOAD DUP1 SWAP2 SUB SWAP1 REVERT JUMPDEST PUSH2 0xB2C PUSH2 0xB23 PUSH2 0xCCC JUMP JUMPDEST DUP6 DUP6 DUP5 SUB PUSH2 0xCD3 JUMP JUMPDEST PUSH1 0x1 SWAP2 POP POP SWAP3 SWAP2 POP POP JUMP JUMPDEST PUSH0 PUSH2 0xB4A PUSH2 0xB43 PUSH2 0xCCC JUMP JUMPDEST DUP5 DUP5 PUSH2 0xE96 JUMP JUMPDEST PUSH1 0x1 SWAP1 POP SWAP3 SWAP2 POP POP JUMP JUMPDEST PUSH0 PUSH1 0x2 PUSH0 DUP5 PUSH20 0xFFFFFFFFFFFFFFFFFFFFFFFFFFFFFFFFFFFFFFFF AND PUSH20 0xFFFFFFFFFFFFFFFFFFFFFFFFFFFFFFFFFFFFFFFF AND DUP2 MSTORE PUSH1 0x20 ADD SWAP1 DUP2 MSTORE PUSH1 0x20 ADD PUSH0 KECCAK256 PUSH0 DUP4 PUSH20 0xFFFFFFFFFFFFFFFFFFFFFFFFFFFFFFFFFFFFFFFF AND PUSH20 0xFFFFFFFFFFFFFFFFFFFFFFFFFFFFFFFFFFFFFFFF AND DUP2 MSTORE PUSH1 0x20 ADD SWAP1 DUP2 MSTORE PUSH1 0x20 ADD PUSH0 KECCAK256 SLOAD SWAP1 POP SWAP3 SWAP2 POP POP JUMP JUMPDEST PUSH2 0xBDE PUSH2 0xCCC JUMP JUMPDEST PUSH20 0xFFFFFFFFFFFFFFFFFFFFFFFFFFFFFFFFFFFFFFFF AND PUSH2 0xBFC PUSH2 0x99A JUMP JUMPDEST PUSH20 0xFFFFFFFFFFFFFFFFFFFFFFFFFFFFFFFFFFFFFFFF AND EQ PUSH2 0xC52 JUMPI PUSH1 0x40 MLOAD PUSH32 0x8C379A000000000000000000000000000000000000000000000000000000000 DUP2 MSTORE PUSH1 0x4 ADD PUSH2 0xC49 SWAP1 PUSH2 0x1BD1 JUMP JUMPDEST PUSH1 0x40 MLOAD DUP1 SWAP2 SUB SWAP1 REVERT JUMPDEST PUSH0 PUSH20 0xFFFFFFFFFFFFFFFFFFFFFFFFFFFFFFFFFFFFFFFF AND DUP2 PUSH20 0xFFFFFFFFFFFFFFFFFFFFFFFFFFFFFFFFFFFFFFFF AND SUB PUSH2 0xCC0 JUMPI PUSH1 0x40 MLOAD PUSH32 0x8C379A000000000000000000000000000000000000000000000000000000000 DUP2 MSTORE PUSH1 0x4 ADD PUSH2 0xCB7 SWAP1 PUSH2 0x1CED JUMP JUMPDEST PUSH1 0x40 MLOAD DUP1 SWAP2 SUB SWAP1 REVERT JUMPDEST PUSH2 0xCC9 DUP2 PUSH2 0x12DC JUMP JUMPDEST POP JUMP JUMPDEST PUSH0 CALLER SWAP1 POP SWAP1 JUMP JUMPDEST PUSH0 PUSH20 0xFFFFFFFFFFFFFFFFFFFFFFFFFFFFFFFFFFFFFFFF AND DUP4 PUSH20 0xFFFFFFFFFFFFFFFFFFFFFFFFFFFFFFFFFFFFFFFF AND SUB PUSH2 0xD41 JUMPI PUSH1 0x40 MLOAD PUSH32 0x8C379A000000000000000000000000000000000000000000000000000000000 DUP2 MSTORE PUSH1 0x4 ADD PUSH2 0xD38 SWAP1 PUSH2 0x1D7B JUMP JUMPDEST PUSH1 0x40 MLOAD DUP1 SWAP2 SUB SWAP1 REVERT JUMPDEST PUSH0 PUSH20 0xFFFFFFFFFFFFFFFFFFFFFFFFFFFFFFFFFFFFFFFF AND DUP3 PUSH20 0xFFFFFFFFFFFFFFFFFFFFFFFFFFFFFFFFFFFFFFFF AND SUB PUSH2 0xDAF JUMPI PUSH1 0x40 MLOAD PUSH32 0x8C379A000000000000000000000000000000000000000000000000000000000 DUP2 MSTORE PUSH1 0x4 ADD PUSH2 0xDA6 SWAP1 PUSH2 0x1E09 JUMP JUMPDEST PUSH1 0x40 MLOAD DUP1 SWAP2 SUB SWAP1 REVERT JUMPDEST DUP1 PUSH1 0x2 PUSH0 DUP6 PUSH20 0xFFFFFFFFFFFFFFFFFFFFFFFFFFFFFFFFFFFFFFFF AND PUSH20 0xFFFFFFFFFFFFFFFFFFFFFFFFFFFFFFFFFFFFFFFF AND DUP2 MSTORE PUSH1 0x20 ADD SWAP1 DUP2 MSTORE PUSH1 0x20 ADD PUSH0 KECCAK256 PUSH0 DUP5 PUSH20 0xFFFFFFFFFFFFFFFFFFFFFFFFFFFFFFFFFFFFFFFF AND PUSH20 0xFFFFFFFFFFFFFFFFFFFFFFFFFFFFFFFFFFFFFFFF AND DUP2 MSTORE PUSH1 0x20 ADD SWAP1 DUP2 MSTORE PUSH1 0x20 ADD PUSH0 KECCAK256 DUP2 SWAP1 SSTORE POP DUP2 PUSH20 0xFFFFFFFFFFFFFFFFFFFFFFFFFFFFFFFFFFFFFFFF AND DUP4 PUSH20 0xFFFFFFFFFFFFFFFFFFFFFFFFFFFFFFFFFFFFFFFF AND PUSH32 0x8C5BE1E5EBEC7D5BD14F71427D1E84F3DD0314C0F7B2291E5B200AC8C7C3B925 DUP4 PUSH1 0x40 MLOAD PUSH2 0xE89 SWAP2 SWAP1 PUSH2 0x1842 JUMP JUMPDEST PUSH1 0x40 MLOAD DUP1 SWAP2 SUB SWAP1 LOG3 POP POP POP JUMP JUMPDEST PUSH0 PUSH20 0xFFFFFFFFFFFFFFFFFFFFFFFFFFFFFFFFFFFFFFFF AND DUP4 PUSH20 0xFFFFFFFFFFFFFFFFFFFFFFFFFFFFFFFFFFFFFFFF AND SUB PUSH2 0xF04 JUMPI PUSH1 0x40 MLOAD PUSH32 0x8C379A000000000000000000000000000000000000000000000000000000000 DUP2 MSTORE PUSH1 0x4 ADD PUSH2 0xEFB SWAP1 PUSH2 0x1E97 JUMP JUMPDEST PUSH1 0x40 MLOAD DUP1 SWAP2 SUB SWAP1 REVERT JUMPDEST PUSH0 PUSH20 0xFFFFFFFFFFFFFFFFFFFFFFFFFFFFFFFFFFFFFFFF AND DUP3 PUSH20 0xFFFFFFFFFFFFFFFFFFFFFFFFFFFFFFFFFFFFFFFF AND SUB PUSH2 0xF72 JUMPI PUSH1 0x40 MLOAD PUSH32 0x8C379A000000000000000000000000000000000000000000000000000000000 DUP2 MSTORE PUSH1 0x4 ADD PUSH2 0xF69 SWAP1 PUSH2 0x1F25 JUMP JUMPDEST PUSH1 0x40 MLOAD DUP1 SWAP2 SUB SWAP1 REVERT JUMPDEST PUSH2 0xF7D DUP4 DUP4 DUP4 PUSH2 0x139D JUMP JUMPDEST PUSH0 PUSH1 0x1 PUSH0 DUP6 PUSH20 0xFFFFFFFFFFFFFFFFFFFFFFFFFFFFFFFFFFFFFFFF AND PUSH20 0xFFFFFFFFFFFFFFFFFFFFFFFFFFFFFFFFFFFFFFFF AND DUP2 MSTORE PUSH1 0x20 ADD SWAP1 DUP2 MSTORE PUSH1 0x20 ADD PUSH0 KECCAK256 SLOAD SWAP1 POP DUP2 DUP2 LT ISZERO PUSH2 0x1001 JUMPI PUSH1 0x40 MLOAD PUSH32 0x8C379A000000000000000000000000000000000000000000000000000000000 DUP2 MSTORE PUSH1 0x4 ADD PUSH2 0xFF8 SWAP1 PUSH2 0x1FB3 JUMP JUMPDEST PUSH1 0x40 MLOAD DUP1 SWAP2 SUB SWAP1 REVERT JUMPDEST DUP2 DUP2 SUB PUSH1 0x1 PUSH0 DUP7 PUSH20 0xFFFFFFFFFFFFFFFFFFFFFFFFFFFFFFFFFFFFFFFF AND PUSH20 0xFFFFFFFFFFFFFFFFFFFFFFFFFFFFFFFFFFFFFFFF AND DUP2 MSTORE PUSH1 0x20 ADD SWAP1 DUP2 MSTORE PUSH1 0x20 ADD PUSH0 KECCAK256 DUP2 SWAP1 SSTORE POP DUP2 PUSH1 0x1 PUSH0 DUP6 PUSH20 0xFFFFFFFFFFFFFFFFFFFFFFFFFFFFFFFFFFFFFFFF AND PUSH20 0xFFFFFFFFFFFFFFFFFFFFFFFFFFFFFFFFFFFFFFFF AND DUP2 MSTORE PUSH1 0x20 ADD SWAP1 DUP2 MSTORE PUSH1 0x20 ADD PUSH0 KECCAK256 PUSH0 DUP3 DUP3 SLOAD PUSH2 0x1091 SWAP2 SWAP1 PUSH2 0x1B54 JUMP JUMPDEST SWAP3 POP POP DUP2 SWAP1 SSTORE POP DUP3 PUSH20 0xFFFFFFFFFFFFFFFFFFFFFFFFFFFFFFFFFFFFFFFF AND DUP5 PUSH20 0xFFFFFFFFFFFFFFFFFFFFFFFFFFFFFFFFFFFFFFFF AND PUSH32 0xDDF252AD1BE2C89B69C2B068FC378DAA952BA7F163C4A11628F55A4DF523B3EF DUP5 PUSH1 0x40 MLOAD PUSH2 0x10F5 SWAP2 SWAP1 PUSH2 0x1842 JUMP JUMPDEST PUSH1 0x40 MLOAD DUP1 SWAP2 SUB SWAP1 LOG3 PUSH2 0x1108 DUP5 DUP5 DUP5 PUSH2 0x1671 JUMP JUMPDEST POP POP POP POP JUMP JUMPDEST PUSH0 PUSH20 0xFFFFFFFFFFFFFFFFFFFFFFFFFFFFFFFFFFFFFFFF AND DUP3 PUSH20 0xFFFFFFFFFFFFFFFFFFFFFFFFFFFFFFFFFFFFFFFF AND SUB PUSH2 0x117C JUMPI PUSH1 0x40 MLOAD PUSH32 0x8C379A000000000000000000000000000000000000000000000000000000000 DUP2 MSTORE PUSH1 0x4 ADD PUSH2 0x1173 SWAP1 PUSH2 0x2041 JUMP JUMPDEST PUSH1 0x40 MLOAD DUP1 SWAP2 SUB SWAP1 REVERT JUMPDEST PUSH2 0x1187 DUP3 PUSH0 DUP4 PUSH2 0x139D JUMP JUMPDEST PUSH0 PUSH1 0x1 PUSH0 DUP5 PUSH20 0xFFFFFFFFFFFFFFFFFFFFFFFFFFFFFFFFFFFFFFFF AND PUSH20 0xFFFFFFFFFFFFFFFFFFFFFFFFFFFFFFFFFFFFFFFF AND DUP2 MSTORE PUSH1 0x20 ADD SWAP1 DUP2 MSTORE PUSH1 0x20 ADD PUSH0 KECCAK256 SLOAD SWAP1 POP DUP2 DUP2 LT ISZERO PUSH2 0x120B JUMPI PUSH1 0x40 MLOAD PUSH32 0x8C379A000000000000000000000000000000000000000000000000000000000 DUP2 MSTORE PUSH1 0x4 ADD PUSH2 0x1202 SWAP1 PUSH2 0x20CF JUMP JUMPDEST PUSH1 0x40 MLOAD DUP1 SWAP2 SUB SWAP1 REVERT JUMPDEST DUP2 DUP2 SUB PUSH1 0x1 PUSH0 DUP6 PUSH20 0xFFFFFFFFFFFFFFFFFFFFFFFFFFFFFFFFFFFFFFFF AND PUSH20 0xFFFFFFFFFFFFFFFFFFFFFFFFFFFFFFFFFFFFFFFF AND DUP2 MSTORE PUSH1 0x20 ADD SWAP1 DUP2 MSTORE PUSH1 0x20 ADD PUSH0 KECCAK256 DUP2 SWAP1 SSTORE POP DUP2 PUSH1 0x3 PUSH0 DUP3 DUP3 SLOAD PUSH2 0x1260 SWAP2 SWAP1 PUSH2 0x20ED JUMP JUMPDEST SWAP3 POP POP DUP2 SWAP1 SSTORE POP PUSH0 PUSH20 0xFFFFFFFFFFFFFFFFFFFFFFFFFFFFFFFFFFFFFFFF AND DUP4 PUSH20 0xFFFFFFFFFFFFFFFFFFFFFFFFFFFFFFFFFFFFFFFF AND PUSH32 0xDDF252AD1BE2C89B69C2B068FC378DAA952BA7F163C4A11628F55A4DF523B3EF DUP5 PUSH1 0x40 MLOAD PUSH2 0x12C4 SWAP2 SWAP1 PUSH2 0x1842 JUMP JUMPDEST PUSH1 0x40 MLOAD DUP1 SWAP2 SUB SWAP1 LOG3 PUSH2 0x12D7 DUP4 PUSH0 DUP5 PUSH2 0x1671 JUMP JUMPDEST POP POP POP JUMP JUMPDEST PUSH0 PUSH0 PUSH0 SWAP1 SLOAD SWAP1 PUSH2 0x100 EXP SWAP1 DIV PUSH20 0xFFFFFFFFFFFFFFFFFFFFFFFFFFFFFFFFFFFFFFFF AND SWAP1 POP DUP2 PUSH0 PUSH0 PUSH2 0x100 EXP DUP2 SLOAD DUP2 PUSH20 0xFFFFFFFFFFFFFFFFFFFFFFFFFFFFFFFFFFFFFFFF MUL NOT AND SWAP1 DUP4 PUSH20 0xFFFFFFFFFFFFFFFFFFFFFFFFFFFFFFFFFFFFFFFF AND MUL OR SWAP1 SSTORE POP DUP2 PUSH20 0xFFFFFFFFFFFFFFFFFFFFFFFFFFFFFFFFFFFFFFFF AND DUP2 PUSH20 0xFFFFFFFFFFFFFFFFFFFFFFFFFFFFFFFFFFFFFFFF AND PUSH32 0x8BE0079C531659141344CD1FD0A4F28419497F9722A3DAAFE3B4186F6B6457E0 PUSH1 0x40 MLOAD PUSH1 0x40 MLOAD DUP1 SWAP2 SUB SWAP1 LOG3 POP POP JUMP JUMPDEST PUSH1 0xA PUSH0 DUP4 PUSH20 0xFFFFFFFFFFFFFFFFFFFFFFFFFFFFFFFFFFFFFFFF AND PUSH20 0xFFFFFFFFFFFFFFFFFFFFFFFFFFFFFFFFFFFFFFFF AND DUP2 MSTORE PUSH1 0x20 ADD SWAP1 DUP2 MSTORE PUSH1 0x20 ADD PUSH0 KECCAK256 PUSH0 SWAP1 SLOAD SWAP1 PUSH2 0x100 EXP SWAP1 DIV PUSH1 0xFF AND ISZERO DUP1 ISZERO PUSH2 0x143B JUMPI POP PUSH1 0xA PUSH0 DUP5 PUSH20 0xFFFFFFFFFFFFFFFFFFFFFFFFFFFFFFFFFFFFFFFF AND PUSH20 0xFFFFFFFFFFFFFFFFFFFFFFFFFFFFFFFFFFFFFFFF AND DUP2 MSTORE PUSH1 0x20 ADD SWAP1 DUP2 MSTORE PUSH1 0x20 ADD PUSH0 KECCAK256 PUSH0 SWAP1 SLOAD SWAP1 PUSH2 0x100 EXP SWAP1 DIV PUSH1 0xFF AND ISZERO JUMPDEST PUSH2 0x147A JUMPI PUSH1 0x40 MLOAD PUSH32 0x8C379A000000000000000000000000000000000000000000000000000000000 DUP2 MSTORE PUSH1 0x4 ADD PUSH2 0x1471 SWAP1 PUSH2 0x216A JUMP JUMPDEST PUSH1 0x40 MLOAD DUP1 SWAP2 SUB SWAP1 REVERT JUMPDEST PUSH0 PUSH20 0xFFFFFFFFFFFFFFFFFFFFFFFFFFFFFFFFFFFFFFFF AND PUSH1 0x9 PUSH0 SWAP1 SLOAD SWAP1 PUSH2 0x100 EXP SWAP1 DIV PUSH20 0xFFFFFFFFFFFFFFFFFFFFFFFFFFFFFFFFFFFFFFFF AND PUSH20 0xFFFFFFFFFFFFFFFFFFFFFFFFFFFFFFFFFFFFFFFF AND SUB PUSH2 0x1585 JUMPI PUSH2 0x14D6 PUSH2 0x99A JUMP JUMPDEST PUSH20 0xFFFFFFFFFFFFFFFFFFFFFFFFFFFFFFFFFFFFFFFF AND DUP4 PUSH20 0xFFFFFFFFFFFFFFFFFFFFFFFFFFFFFFFFFFFFFFFF AND EQ DUP1 PUSH2 0x1541 JUMPI POP PUSH2 0x1512 PUSH2 0x99A JUMP JUMPDEST PUSH20 0xFFFFFFFFFFFFFFFFFFFFFFFFFFFFFFFFFFFFFFFF AND DUP3 PUSH20 0xFFFFFFFFFFFFFFFFFFFFFFFFFFFFFFFFFFFFFFFF AND EQ JUMPDEST PUSH2 0x1580 JUMPI PUSH1 0x40 MLOAD PUSH32 0x8C379A000000000000000000000000000000000000000000000000000000000 DUP2 MSTORE PUSH1 0x4 ADD PUSH2 0x1577 SWAP1 PUSH2 0x21D2 JUMP JUMPDEST PUSH1 0x40 MLOAD DUP1 SWAP2 SUB SWAP1 REVERT JUMPDEST PUSH2 0x166C JUMP JUMPDEST PUSH1 0x6 PUSH0 SWAP1 SLOAD SWAP1 PUSH2 0x100 EXP SWAP1 DIV PUSH1 0xFF AND DUP1 ISZERO PUSH2 0x15EC JUMPI POP PUSH1 0x9 PUSH0 SWAP1 SLOAD SWAP1 PUSH2 0x100 EXP SWAP1 DIV PUSH20 0xFFFFFFFFFFFFFFFFFFFFFFFFFFFFFFFFFFFFFFFF AND PUSH20 0xFFFFFFFFFFFFFFFFFFFFFFFFFFFFFFFFFFFFFFFF AND DUP4 PUSH20 0xFFFFFFFFFFFFFFFFFFFFFFFFFFFFFFFFFFFFFFFF AND EQ JUMPDEST ISZERO PUSH2 0x166B JUMPI PUSH1 0x7 SLOAD DUP2 PUSH2 0x15FE DUP5 PUSH2 0x8B5 JUMP JUMPDEST PUSH2 0x1608 SWAP2 SWAP1 PUSH2 0x1B54 JUMP JUMPDEST GT ISZERO DUP1 ISZERO PUSH2 0x162B JUMPI POP PUSH1 0x8 SLOAD DUP2 PUSH2 0x161E DUP5 PUSH2 0x8B5 JUMP JUMPDEST PUSH2 0x1628 SWAP2 SWAP1 PUSH2 0x1B54 JUMP JUMPDEST LT ISZERO JUMPDEST PUSH2 0x166A JUMPI PUSH1 0x40 MLOAD PUSH32 0x8C379A000000000000000000000000000000000000000000000000000000000 DUP2 MSTORE PUSH1 0x4 ADD PUSH2 0x1661 SWAP1 PUSH2 0x223A JUMP JUMPDEST PUSH1 0x40 MLOAD DUP1 SWAP2 SUB SWAP1 REVERT JUMPDEST JUMPDEST JUMPDEST POP POP POP JUMP JUMPDEST POP POP POP JUMP JUMPDEST PUSH0 DUP2 MLOAD SWAP1 POP SWAP2 SWAP1 POP JUMP JUMPDEST PUSH0 DUP3 DUP3 MSTORE PUSH1 0x20 DUP3 ADD SWAP1 POP SWAP3 SWAP2 POP POP JUMP JUMPDEST DUP3 DUP2 DUP4 MCOPY PUSH0 DUP4 DUP4 ADD MSTORE POP POP POP JUMP JUMPDEST PUSH0 PUSH1 0x1F NOT PUSH1 0x1F DUP4 ADD AND SWAP1 POP SWAP2 SWAP1 POP JUMP JUMPDEST PUSH0 PUSH2 0x16B8 DUP3 PUSH2 0x1676 JUMP JUMPDEST PUSH2 0x16C2 DUP2 DUP6 PUSH2 0x1680 JUMP JUMPDEST SWAP4 POP PUSH2 0x16D2 DUP2 DUP6 PUSH1 0x20 DUP7 ADD PUSH2 0x1690 JUMP JUMPDEST PUSH2 0x16DB DUP2 PUSH2 0x169E JUMP JUMPDEST DUP5 ADD SWAP2 POP POP SWAP3 SWAP2 POP POP JUMP JUMPDEST PUSH0 PUSH1 0x20 DUP3 ADD SWAP1 POP DUP2 DUP2 SUB PUSH0 DUP4 ADD MSTORE PUSH2 0x16FE DUP2 DUP5 PUSH2 0x16AE JUMP JUMPDEST SWAP1 POP SWAP3 SWAP2 POP POP JUMP JUMPDEST PUSH0 PUSH0 REVERT JUMPDEST PUSH0 PUSH20 0xFFFFFFFFFFFFFFFFFFFFFFFFFFFFFFFFFFFFFFFF DUP3 AND SWAP1 POP SWAP2 SWAP1 POP JUMP JUMPDEST PUSH0 PUSH2 0x1733 DUP3 PUSH2 0x170A JUMP JUMPDEST SWAP1 POP SWAP2 SWAP1 POP JUMP JUMPDEST PUSH2 0x1743 DUP2 PUSH2 0x1729 JUMP JUMPDEST DUP2 EQ PUSH2 0x174D JUMPI PUSH0 PUSH0 REVERT JUMPDEST POP JUMP JUMPDEST PUSH0 DUP2 CALLDATALOAD SWAP1 POP PUSH2 0x175E DUP2 PUSH2 0x173A JUMP JUMPDEST SWAP3 SWAP2 POP POP JUMP JUMPDEST PUSH0 DUP2 SWAP1 POP SWAP2 SWAP1 POP JUMP JUMPDEST PUSH2 0x1776 DUP2 PUSH2 0x1764 JUMP JUMPDEST DUP2 EQ PUSH2 0x1780 JUMPI PUSH0 PUSH0 REVERT JUMPDEST POP JUMP JUMPDEST PUSH0 DUP2 CALLDATALOAD SWAP1 POP PUSH2 0x1791 DUP2 PUSH2 0x176D JUMP JUMPDEST SWAP3 SWAP2 POP POP JUMP JUMPDEST PUSH0 PUSH0 PUSH1 0x40 DUP4 DUP6 SUB SLT ISZERO PUSH2 0x17AD JUMPI PUSH2 0x17AC PUSH2 0x1706 JUMP JUMPDEST JUMPDEST PUSH0 PUSH2 0x17BA DUP6 DUP3 DUP7 ADD PUSH2 0x1750 JUMP JUMPDEST SWAP3 POP POP PUSH1 0x20 PUSH2 0x17CB DUP6 DUP3 DUP7 ADD PUSH2 0x1783 JUMP JUMPDEST SWAP2 POP POP SWAP3 POP SWAP3 SWAP1 POP JUMP JUMPDEST PUSH0 DUP2 ISZERO ISZERO SWAP1 POP SWAP2 SWAP1 POP JUMP JUMPDEST PUSH2 0x17E9 DUP2 PUSH2 0x17D5 JUMP JUMPDEST DUP3 MSTORE POP POP JUMP JUMPDEST PUSH0 PUSH1 0x20 DUP3 ADD SWAP1 POP PUSH2 0x1802 PUSH0 DUP4 ADD DUP5 PUSH2 0x17E0 JUMP JUMPDEST SWAP3 SWAP2 POP POP JUMP JUMPDEST PUSH0 PUSH1 0x20 DUP3 DUP5 SUB SLT ISZERO PUSH2 0x181D JUMPI PUSH2 0x181C PUSH2 0x1706 JUMP JUMPDEST JUMPDEST PUSH0 PUSH2 0x182A DUP5 DUP3 DUP6 ADD PUSH2 0x1750 JUMP JUMPDEST SWAP2 POP POP SWAP3 SWAP2 POP POP JUMP JUMPDEST PUSH2 0x183C DUP2 PUSH2 0x1764 JUMP JUMPDEST DUP3 MSTORE POP POP JUMP JUMPDEST PUSH0 PUSH1 0x20 DUP3 ADD SWAP1 POP PUSH2 0x1855 PUSH0 DUP4 ADD DUP5 PUSH2 0x1833 JUMP JUMPDEST SWAP3 SWAP2 POP POP JUMP JUMPDEST PUSH0 PUSH0 PUSH0 PUSH1 0x60 DUP5 DUP7 SUB SLT ISZERO PUSH2 0x1872 JUMPI PUSH2 0x1871 PUSH2 0x1706 JUMP JUMPDEST JUMPDEST PUSH0 PUSH2 0x187F DUP7 DUP3 DUP8 ADD PUSH2 0x1750 JUMP JUMPDEST SWAP4 POP POP PUSH1 0x20 PUSH2 0x1890 DUP7 DUP3 DUP8 ADD PUSH2 0x1750 JUMP JUMPDEST SWAP3 POP POP PUSH1 0x40 PUSH2 0x18A1 DUP7 DUP3 DUP8 ADD PUSH2 0x1783 JUMP JUMPDEST SWAP2 POP POP SWAP3 POP SWAP3 POP SWAP3 JUMP JUMPDEST PUSH0 PUSH1 0xFF DUP3 AND SWAP1 POP SWAP2 SWAP1 POP JUMP JUMPDEST PUSH2 0x18C0 DUP2 PUSH2 0x18AB JUMP JUMPDEST DUP3 MSTORE POP POP JUMP JUMPDEST PUSH0 PUSH1 0x20 DUP3 ADD SWAP1 POP PUSH2 0x18D9 PUSH0 DUP4 ADD DUP5 PUSH2 0x18B7 JUMP JUMPDEST SWAP3 SWAP2 POP POP JUMP JUMPDEST PUSH2 0x18E8 DUP2 PUSH2 0x17D5 JUMP JUMPDEST DUP2 EQ PUSH2 0x18F2 JUMPI PUSH0 PUSH0 REVERT JUMPDEST POP JUMP JUMPDEST PUSH0 DUP2 CALLDATALOAD SWAP1 POP PUSH2 0x1903 DUP2 PUSH2 0x18DF JUMP JUMPDEST SWAP3 SWAP2 POP POP JUMP JUMPDEST PUSH0 PUSH0 PUSH0 PUSH0 PUSH1 0x80 DUP6 DUP8 SUB SLT ISZERO PUSH2 0x1921 JUMPI PUSH2 0x1920 PUSH2 0x1706 JUMP JUMPDEST JUMPDEST PUSH0 PUSH2 0x192E DUP8 DUP3 DUP9 ADD PUSH2 0x18F5 JUMP JUMPDEST SWAP5 POP POP PUSH1 0x20 PUSH2 0x193F DUP8 DUP3 DUP9 ADD PUSH2 0x1750 JUMP JUMPDEST SWAP4 POP POP PUSH1 0x40 PUSH2 0x1950 DUP8 DUP3 DUP9 ADD PUSH2 0x1783 JUMP JUMPDEST SWAP3 POP POP PUSH1 0x60 PUSH2 0x1961 DUP8 DUP3 DUP9 ADD PUSH2 0x1783 JUMP JUMPDEST SWAP2 POP POP SWAP3 SWAP6 SWAP2 SWAP5 POP SWAP3 POP JUMP JUMPDEST PUSH0 PUSH0 PUSH1 0x40 DUP4 DUP6 SUB SLT ISZERO PUSH2 0x1983 JUMPI PUSH2 0x1982 PUSH2 0x1706 JUMP JUMPDEST JUMPDEST PUSH0 PUSH2 0x1990 DUP6 DUP3 DUP7 ADD PUSH2 0x1750 JUMP JUMPDEST SWAP3 POP POP PUSH1 0x20 PUSH2 0x19A1 DUP6 DUP3 DUP7 ADD PUSH2 0x18F5 JUMP JUMPDEST SWAP2 POP POP SWAP3 POP SWAP3 SWAP1 POP JUMP JUMPDEST PUSH0 PUSH1 0x20 DUP3 DUP5 SUB SLT ISZERO PUSH2 0x19C0 JUMPI PUSH2 0x19BF PUSH2 0x1706 JUMP JUMPDEST JUMPDEST PUSH0 PUSH2 0x19CD DUP5 DUP3 DUP6 ADD PUSH2 0x1783 JUMP JUMPDEST SWAP2 POP POP SWAP3 SWAP2 POP POP JUMP JUMPDEST PUSH2 0x19DF DUP2 PUSH2 0x1729 JUMP JUMPDEST DUP3 MSTORE POP POP JUMP JUMPDEST PUSH0 PUSH1 0x20 DUP3 ADD SWAP1 POP PUSH2 0x19F8 PUSH0 DUP4 ADD DUP5 PUSH2 0x19D6 JUMP JUMPDEST SWAP3 SWAP2 POP POP JUMP JUMPDEST PUSH0 PUSH0 PUSH1 0x40 DUP4 DUP6 SUB SLT ISZERO PUSH2 0x1A14 JUMPI PUSH2 0x1A13 PUSH2 0x1706 JUMP JUMPDEST JUMPDEST PUSH0 PUSH2 0x1A21 DUP6 DUP3 DUP7 ADD PUSH2 0x1750 JUMP JUMPDEST SWAP3 POP POP PUSH1 0x20 PUSH2 0x1A32 DUP6 DUP3 DUP7 ADD PUSH2 0x1750 JUMP JUMPDEST SWAP2 POP POP SWAP3 POP SWAP3 SWAP1 POP JUMP JUMPDEST PUSH32 0x4E487B7100000000000000000000000000000000000000000000000000000000 PUSH0 MSTORE PUSH1 0x22 PUSH1 0x4 MSTORE PUSH1 0x24 PUSH0 REVERT JUMPDEST PUSH0 PUSH1 0x2 DUP3 DIV SWAP1 POP PUSH1 0x1 DUP3 AND DUP1 PUSH2 0x1A80 JUMPI PUSH1 0x7F DUP3 AND SWAP2 POP JUMPDEST PUSH1 0x20 DUP3 LT DUP2 SUB PUSH2 0x1A93 JUMPI PUSH2 0x1A92 PUSH2 0x1A3C JUMP JUMPDEST JUMPDEST POP SWAP2 SWAP1 POP JUMP JUMPDEST PUSH32 0x45524332303A207472616E7366657220616D6F756E7420657863656564732061 PUSH0 DUP3 ADD MSTORE PUSH32 0x6C6C6F77616E6365000000000000000000000000000000000000000000000000 PUSH1 0x20 DUP3 ADD MSTORE POP JUMP JUMPDEST PUSH0 PUSH2 0x1AF3 PUSH1 0x28 DUP4 PUSH2 0x1680 JUMP JUMPDEST SWAP2 POP PUSH2 0x1AFE DUP3 PUSH2 0x1A99 JUMP JUMPDEST PUSH1 0x40 DUP3 ADD SWAP1 POP SWAP2 SWAP1 POP JUMP JUMPDEST PUSH0 PUSH1 0x20 DUP3 ADD SWAP1 POP DUP2 DUP2 SUB PUSH0 DUP4 ADD MSTORE PUSH2 0x1B20 DUP2 PUSH2 0x1AE7 JUMP JUMPDEST SWAP1 POP SWAP2 SWAP1 POP JUMP JUMPDEST PUSH32 0x4E487B7100000000000000000000000000000000000000000000000000000000 PUSH0 MSTORE PUSH1 0x11 PUSH1 0x4 MSTORE PUSH1 0x24 PUSH0 REVERT JUMPDEST PUSH0 PUSH2 0x1B5E DUP3 PUSH2 0x1764 JUMP JUMPDEST SWAP2 POP PUSH2 0x1B69 DUP4 PUSH2 0x1764 JUMP JUMPDEST SWAP3 POP DUP3 DUP3 ADD SWAP1 POP DUP1 DUP3 GT ISZERO PUSH2 0x1B81 JUMPI PUSH2 0x1B80 PUSH2 0x1B27 JUMP JUMPDEST JUMPDEST SWAP3 SWAP2 POP POP JUMP JUMPDEST PUSH32 0x4F776E61626C653A2063616C6C6572206973206E6F7420746865206F776E6572 PUSH0 DUP3 ADD MSTORE POP JUMP JUMPDEST PUSH0 PUSH2 0x1BBB PUSH1 0x20 DUP4 PUSH2 0x1680 JUMP JUMPDEST SWAP2 POP PUSH2 0x1BC6 DUP3 PUSH2 0x1B87 JUMP JUMPDEST PUSH1 0x20 DUP3 ADD SWAP1 POP SWAP2 SWAP1 POP JUMP JUMPDEST PUSH0 PUSH1 0x20 DUP3 ADD SWAP1 POP DUP2 DUP2 SUB PUSH0 DUP4 ADD MSTORE PUSH2 0x1BE8 DUP2 PUSH2 0x1BAF JUMP JUMPDEST SWAP1 POP SWAP2 SWAP1 POP JUMP JUMPDEST PUSH32 0x45524332303A2064656372656173656420616C6C6F77616E63652062656C6F77 PUSH0 DUP3 ADD MSTORE PUSH32 0x207A65726F000000000000000000000000000000000000000000000000000000 PUSH1 0x20 DUP3 ADD MSTORE POP JUMP JUMPDEST PUSH0 PUSH2 0x1C49 PUSH1 0x25 DUP4 PUSH2 0x1680 JUMP JUMPDEST SWAP2 POP PUSH2 0x1C54 DUP3 PUSH2 0x1BEF JUMP JUMPDEST PUSH1 0x40 DUP3 ADD SWAP1 POP SWAP2 SWAP1 POP JUMP JUMPDEST PUSH0 PUSH1 0x20 DUP3 ADD SWAP1 POP DUP2 DUP2 SUB PUSH0 DUP4 ADD MSTORE PUSH2 0x1C76 DUP2 PUSH2 0x1C3D JUMP JUMPDEST SWAP1 POP SWAP2 SWAP1 POP JUMP JUMPDEST PUSH32 0x4F776E61626C653A206E6577206F776E657220697320746865207A65726F2061 PUSH0 DUP3 ADD MSTORE PUSH32 0x6464726573730000000000000000000000000000000000000000000000000000 PUSH1 0x20 DUP3 ADD MSTORE POP JUMP JUMPDEST PUSH0 PUSH2 0x1CD7 PUSH1 0x26 DUP4 PUSH2 0x1680 JUMP JUMPDEST SWAP2 POP PUSH2 0x1CE2 DUP3 PUSH2 0x1C7D JUMP JUMPDEST PUSH1 0x40 DUP3 ADD SWAP1 POP SWAP2 SWAP1 POP JUMP JUMPDEST PUSH0 PUSH1 0x20 DUP3 ADD SWAP1 POP DUP2 DUP2 SUB PUSH0 DUP4 ADD MSTORE PUSH2 0x1D04 DUP2 PUSH2 0x1CCB JUMP JUMPDEST SWAP1 POP SWAP2 SWAP1 POP JUMP JUMPDEST PUSH32 0x45524332303A20617070726F76652066726F6D20746865207A65726F20616464 PUSH0 DUP3 ADD MSTORE PUSH32 0x7265737300000000000000000000000000000000000000000000000000000000 PUSH1 0x20 DUP3 ADD MSTORE POP JUMP JUMPDEST PUSH0 PUSH2 0x1D65 PUSH1 0x24 DUP4 PUSH2 0x1680 JUMP JUMPDEST SWAP2 POP PUSH2 0x1D70 DUP3 PUSH2 0x1D0B JUMP JUMPDEST PUSH1 0x40 DUP3 ADD SWAP1 POP SWAP2 SWAP1 POP JUMP JUMPDEST PUSH0 PUSH1 0x20 DUP3 ADD SWAP1 POP DUP2 DUP2 SUB PUSH0 DUP4 ADD MSTORE PUSH2 0x1D92 DUP2 PUSH2 0x1D59 JUMP JUMPDEST SWAP1 POP SWAP2 SWAP1 POP JUMP JUMPDEST PUSH32 0x45524332303A20617070726F766520746F20746865207A65726F206164647265 PUSH0 DUP3 ADD MSTORE PUSH32 0x7373000000000000000000000000000000000000000000000000000000000000 PUSH1 0x20 DUP3 ADD MSTORE POP JUMP JUMPDEST PUSH0 PUSH2 0x1DF3 PUSH1 0x22 DUP4 PUSH2 0x1680 JUMP JUMPDEST SWAP2 POP PUSH2 0x1DFE DUP3 PUSH2 0x1D99 JUMP JUMPDEST PUSH1 0x40 DUP3 ADD SWAP1 POP SWAP2 SWAP1 POP JUMP JUMPDEST PUSH0 PUSH1 0x20 DUP3 ADD SWAP1 POP DUP2 DUP2 SUB PUSH0 DUP4 ADD MSTORE PUSH2 0x1E20 DUP2 PUSH2 0x1DE7 JUMP JUMPDEST SWAP1 POP SWAP2 SWAP1 POP JUMP JUMPDEST PUSH32 0x45524332303A207472616E736665722066726F6D20746865207A65726F206164 PUSH0 DUP3 ADD MSTORE PUSH32 0x6472657373000000000000000000000000000000000000000000000000000000 PUSH1 0x20 DUP3 ADD MSTORE POP JUMP JUMPDEST PUSH0 PUSH2 0x1E81 PUSH1 0x25 DUP4 PUSH2 0x1680 JUMP JUMPDEST SWAP2 POP PUSH2 0x1E8C DUP3 PUSH2 0x1E27 JUMP JUMPDEST PUSH1 0x40 DUP3 ADD SWAP1 POP SWAP2 SWAP1 POP JUMP JUMPDEST PUSH0 PUSH1 0x20 DUP3 ADD SWAP1 POP DUP2 DUP2 SUB PUSH0 DUP4 ADD MSTORE PUSH2 0x1EAE DUP2 PUSH2 0x1E75 JUMP JUMPDEST SWAP1 POP SWAP2 SWAP1 POP JUMP JUMPDEST PUSH32 0x45524332303A207472616E7366657220746F20746865207A65726F2061646472 PUSH0 DUP3 ADD MSTORE PUSH32 0x6573730000000000000000000000000000000000000000000000000000000000 PUSH1 0x20 DUP3 ADD MSTORE POP JUMP JUMPDEST PUSH0 PUSH2 0x1F0F PUSH1 0x23 DUP4 PUSH2 0x1680 JUMP JUMPDEST SWAP2 POP PUSH2 0x1F1A DUP3 PUSH2 0x1EB5 JUMP JUMPDEST PUSH1 0x40 DUP3 ADD SWAP1 POP SWAP2 SWAP1 POP JUMP JUMPDEST PUSH0 PUSH1 0x20 DUP3 ADD SWAP1 POP DUP2 DUP2 SUB PUSH0 DUP4 ADD MSTORE PUSH2 0x1F3C DUP2 PUSH2 0x1F03 JUMP JUMPDEST SWAP1 POP SWAP2 SWAP1 POP JUMP JUMPDEST PUSH32 0x45524332303A207472616E7366657220616D6F756E7420657863656564732062 PUSH0 DUP3 ADD MSTORE PUSH32 0x616C616E63650000000000000000000000000000000000000000000000000000 PUSH1 0x20 DUP3 ADD MSTORE POP JUMP JUMPDEST PUSH0 PUSH2 0x1F9D PUSH1 0x26 DUP4 PUSH2 0x1680 JUMP JUMPDEST SWAP2 POP PUSH2 0x1FA8 DUP3 PUSH2 0x1F43 JUMP JUMPDEST PUSH1 0x40 DUP3 ADD SWAP1 POP SWAP2 SWAP1 POP JUMP JUMPDEST PUSH0 PUSH1 0x20 DUP3 ADD SWAP1 POP DUP2 DUP2 SUB PUSH0 DUP4 ADD MSTORE PUSH2 0x1FCA DUP2 PUSH2 0x1F91 JUMP JUMPDEST SWAP1 POP SWAP2 SWAP1 POP JUMP JUMPDEST PUSH32 0x45524332303A206275726E2066726F6D20746865207A65726F20616464726573 PUSH0 DUP3 ADD MSTORE PUSH32 0x7300000000000000000000000000000000000000000000000000000000000000 PUSH1 0x20 DUP3 ADD MSTORE POP JUMP JUMPDEST PUSH0 PUSH2 0x202B PUSH1 0x21 DUP4 PUSH2 0x1680 JUMP JUMPDEST SWAP2 POP PUSH2 0x2036 DUP3 PUSH2 0x1FD1 JUMP JUMPDEST PUSH1 0x40 DUP3 ADD SWAP1 POP SWAP2 SWAP1 POP JUMP JUMPDEST PUSH0 PUSH1 0x20 DUP3 ADD SWAP1 POP DUP2 DUP2 SUB PUSH0 DUP4 ADD MSTORE PUSH2 0x2058 DUP2 PUSH2 0x201F JUMP JUMPDEST SWAP1 POP SWAP2 SWAP1 POP JUMP JUMPDEST PUSH32 0x45524332303A206275726E20616D6F756E7420657863656564732062616C616E PUSH0 DUP3 ADD MSTORE PUSH32 0x6365000000000000000000000000000000000000000000000000000000000000 PUSH1 0x20 DUP3 ADD MSTORE POP JUMP JUMPDEST PUSH0 PUSH2 0x20B9 PUSH1 0x22 DUP4 PUSH2 0x1680 JUMP JUMPDEST SWAP2 POP PUSH2 0x20C4 DUP3 PUSH2 0x205F JUMP JUMPDEST PUSH1 0x40 DUP3 ADD SWAP1 POP SWAP2 SWAP1 POP JUMP JUMPDEST PUSH0 PUSH1 0x20 DUP3 ADD SWAP1 POP DUP2 DUP2 SUB PUSH0 DUP4 ADD MSTORE PUSH2 0x20E6 DUP2 PUSH2 0x20AD JUMP JUMPDEST SWAP1 POP SWAP2 SWAP1 POP JUMP JUMPDEST PUSH0 PUSH2 0x20F7 DUP3 PUSH2 0x1764 JUMP JUMPDEST SWAP2 POP PUSH2 0x2102 DUP4 PUSH2 0x1764 JUMP JUMPDEST SWAP3 POP DUP3 DUP3 SUB SWAP1 POP DUP2 DUP2 GT ISZERO PUSH2 0x211A JUMPI PUSH2 0x2119 PUSH2 0x1B27 JUMP JUMPDEST JUMPDEST SWAP3 SWAP2 POP POP JUMP JUMPDEST PUSH32 0x426C61636B6C6973746564000000000000000000000000000000000000000000 PUSH0 DUP3 ADD MSTORE POP JUMP JUMPDEST PUSH0 PUSH2 0x2154 PUSH1 0xB DUP4 PUSH2 0x1680 JUMP JUMPDEST SWAP2 POP PUSH2 0x215F DUP3 PUSH2 0x2120 JUMP JUMPDEST PUSH1 0x20 DUP3 ADD SWAP1 POP SWAP2 SWAP1 POP JUMP JUMPDEST PUSH0 PUSH1 0x20 DUP3 ADD SWAP1 POP DUP2 DUP2 SUB PUSH0 DUP4 ADD MSTORE PUSH2 0x2181 DUP2 PUSH2 0x2148 JUMP JUMPDEST SWAP1 POP SWAP2 SWAP1 POP JUMP JUMPDEST PUSH32 0x74726164696E67206973206E6F74207374617274656400000000000000000000 PUSH0 DUP3 ADD MSTORE POP JUMP JUMPDEST PUSH0 PUSH2 0x21BC PUSH1 0x16 DUP4 PUSH2 0x1680 JUMP JUMPDEST SWAP2 POP PUSH2 0x21C7 DUP3 PUSH2 0x2188 JUMP JUMPDEST PUSH1 0x20 DUP3 ADD SWAP1 POP SWAP2 SWAP1 POP JUMP JUMPDEST PUSH0 PUSH1 0x20 DUP3 ADD SWAP1 POP DUP2 DUP2 SUB PUSH0 DUP4 ADD MSTORE PUSH2 0x21E9 DUP2 PUSH2 0x21B0 JUMP JUMPDEST SWAP1 POP SWAP2 SWAP1 POP JUMP JUMPDEST PUSH32 0x466F726269640000000000000000000000000000000000000000000000000000 PUSH0 DUP3 ADD MSTORE POP JUMP JUMPDEST PUSH0 PUSH2 0x2224 PUSH1 0x6 DUP4 PUSH2 0x1680 JUMP JUMPDEST SWAP2 POP PUSH2 0x222F DUP3 PUSH2 0x21F0 JUMP JUMPDEST PUSH1 0x20 DUP3 ADD SWAP1 POP SWAP2 SWAP1 POP JUMP JUMPDEST PUSH0 PUSH1 0x20 DUP3 ADD SWAP1 POP DUP2 DUP2 SUB PUSH0 DUP4 ADD MSTORE PUSH2 0x2251 DUP2 PUSH2 0x2218 JUMP JUMPDEST SWAP1 POP SWAP2 SWAP1 POP JUMP INVALID LOG2 PUSH5 0x6970667358 0x22 SLT KECCAK256 MULMOD CALLER 0x4C 0xC 0xB6 PUSH16 0xE55E518FCCBE39E0BA279DC3C6AF049E EQ OR 0xAA 0xCE RETURNDATASIZE 0xB4 SWAP7 LOG2 CALLDATACOPY 0xD0 PUSH5 0x736F6C6343 STOP ADDMOD 0x1E STOP CALLER "
				},
				"gasEstimates": {
					"creation": {
						"codeDepositCost": "1769200",
						"executionCost": "infinite",
						"totalCost": "infinite"
					},
					"external": {
						"allowance(address,address)": "infinite",
						"approve(address,uint256)": "infinite",
						"balanceOf(address)": "2874",
						"blacklist(address,bool)": "27326",
						"blacklists(address)": "2901",
						"burn(uint256)": "infinite",
						"decimals()": "383",
						"decreaseAllowance(address,uint256)": "infinite",
						"increaseAllowance(address,uint256)": "infinite",
						"limited()": "2555",
						"maxHoldingAmount()": "2536",
						"minHoldingAmount()": "2537",
						"name()": "infinite",
						"owner()": "2536",
						"renounceOwnership()": "30430",
						"setRule(bool,address,uint256,uint256)": "infinite",
						"symbol()": "infinite",
						"totalSupply()": "2522",
						"transfer(address,uint256)": "infinite",
						"transferFrom(address,address,uint256)": "infinite",
						"transferOwnership(address)": "30836",
						"uniswapV2Pair()": "2531"
					},
					"internal": {
						"_beforeTokenTransfer(address,address,uint256)": "infinite"
					}
				},
				"methodIdentifiers": {
					"allowance(address,address)": "dd62ed3e",
					"approve(address,uint256)": "095ea7b3",
					"balanceOf(address)": "70a08231",
					"blacklist(address,bool)": "404e5129",
					"blacklists(address)": "16c02129",
					"burn(uint256)": "42966c68",
					"decimals()": "313ce567",
					"decreaseAllowance(address,uint256)": "a457c2d7",
					"increaseAllowance(address,uint256)": "39509351",
					"limited()": "860a32ec",
					"maxHoldingAmount()": "89f9a1d3",
					"minHoldingAmount()": "1ab99e12",
					"name()": "06fdde03",
					"owner()": "8da5cb5b",
					"renounceOwnership()": "715018a6",
					"setRule(bool,address,uint256,uint256)": "3aa633aa",
					"symbol()": "95d89b41",
					"totalSupply()": "18160ddd",
					"transfer(address,uint256)": "a9059cbb",
					"transferFrom(address,address,uint256)": "23b872dd",
					"transferOwnership(address)": "f2fde38b",
					"uniswapV2Pair()": "49bd5a5e"
				}
			},
			"storageLayout": {
				"storage": [
					{
						"astId": 27,
						"contract": "test-erc-2.sol:PepeToken",
						"label": "_owner",
						"offset": 0,
						"slot": "0",
						"type": "t_address"
					},
					{
						"astId": 236,
						"contract": "test-erc-2.sol:PepeToken",
						"label": "_balances",
						"offset": 0,
						"slot": "1",
						"type": "t_mapping(t_address,t_uint256)"
					},
					{
						"astId": 242,
						"contract": "test-erc-2.sol:PepeToken",
						"label": "_allowances",
						"offset": 0,
						"slot": "2",
						"type": "t_mapping(t_address,t_mapping(t_address,t_uint256))"
					},
					{
						"astId": 244,
						"contract": "test-erc-2.sol:PepeToken",
						"label": "_totalSupply",
						"offset": 0,
						"slot": "3",
						"type": "t_uint256"
					},
					{
						"astId": 246,
						"contract": "test-erc-2.sol:PepeToken",
						"label": "_name",
						"offset": 0,
						"slot": "4",
						"type": "t_string_storage"
					},
					{
						"astId": 248,
						"contract": "test-erc-2.sol:PepeToken",
						"label": "_symbol",
						"offset": 0,
						"slot": "5",
						"type": "t_string_storage"
					},
					{
						"astId": 773,
						"contract": "test-erc-2.sol:PepeToken",
						"label": "limited",
						"offset": 0,
						"slot": "6",
						"type": "t_bool"
					},
					{
						"astId": 775,
						"contract": "test-erc-2.sol:PepeToken",
						"label": "maxHoldingAmount",
						"offset": 0,
						"slot": "7",
						"type": "t_uint256"
					},
					{
						"astId": 777,
						"contract": "test-erc-2.sol:PepeToken",
						"label": "minHoldingAmount",
						"offset": 0,
						"slot": "8",
						"type": "t_uint256"
					},
					{
						"astId": 779,
						"contract": "test-erc-2.sol:PepeToken",
						"label": "uniswapV2Pair",
						"offset": 0,
						"slot": "9",
						"type": "t_address"
					},
					{
						"astId": 783,
						"contract": "test-erc-2.sol:PepeToken",
						"label": "blacklists",
						"offset": 0,
						"slot": "10",
						"type": "t_mapping(t_address,t_bool)"
					}
				],
				"types": {
					"t_address": {
						"encoding": "inplace",
						"label": "address",
						"numberOfBytes": "20"
					},
					"t_bool": {
						"encoding": "inplace",
						"label": "bool",
						"numberOfBytes": "1"
					},
					"t_mapping(t_address,t_bool)": {
						"encoding": "mapping",
						"key": "t_address",
						"label": "mapping(address => bool)",
						"numberOfBytes": "32",
						"value": "t_bool"
					},
					"t_mapping(t_address,t_mapping(t_address,t_uint256))": {
						"encoding": "mapping",
						"key": "t_address",
						"label": "mapping(address => mapping(address => uint256))",
						"numberOfBytes": "32",
						"value": "t_mapping(t_address,t_uint256)"
					},
					"t_mapping(t_address,t_uint256)": {
						"encoding": "mapping",
						"key": "t_address",
						"label": "mapping(address => uint256)",
						"numberOfBytes": "32",
						"value": "t_uint256"
					},
					"t_string_storage": {
						"encoding": "bytes",
						"label": "string",
						"numberOfBytes": "32"
					},
					"t_uint256": {
						"encoding": "inplace",
						"label": "uint256",
						"numberOfBytes": "32"
					}
				}
			},
			"userdoc": {
				"kind": "user",
				"methods": {},
				"version": 1
			}
		}
	}
}