{
	"contracts/MyToken.sol": {
		"MyToken": {
			"abi": [
				{
					"inputs": [
						{
							"internalType": "string",
							"name": "name",
							"type": "string"
						},
						{
							"internalType": "string",
							"name": "symbol",
							"type": "string"
						},
						{
							"internalType": "uint256",
							"name": "initialSupply",
							"type": "uint256"
						}
					],
					"stateMutability": "nonpayable",
					"type": "constructor"
				},
				{
					"inputs": [
						{
							"internalType": "address",
							"name": "spender",
							"type": "address"
						},
						{
							"internalType": "uint256",
							"name": "allowance",
							"type": "uint256"
						},
						{
							"internalType": "uint256",
							"name": "needed",
							"type": "uint256"
						}
					],
					"name": "ERC20InsufficientAllowance",
					"type": "error"
				},
				{
					"inputs": [
						{
							"internalType": "address",
							"name": "sender",
							"type": "address"
						},
						{
							"internalType": "uint256",
							"name": "balance",
							"type": "uint256"
						},
						{
							"internalType": "uint256",
							"name": "needed",
							"type": "uint256"
						}
					],
					"name": "ERC20InsufficientBalance",
					"type": "error"
				},
				{
					"inputs": [
						{
							"internalType": "address",
							"name": "approver",
							"type": "address"
						}
					],
					"name": "ERC20InvalidApprover",
					"type": "error"
				},
				{
					"inputs": [
						{
							"internalType": "address",
							"name": "receiver",
							"type": "address"
						}
					],
					"name": "ERC20InvalidReceiver",
					"type": "error"
				},
				{
					"inputs": [
						{
							"internalType": "address",
							"name": "sender",
							"type": "address"
						}
					],
					"name": "ERC20InvalidSender",
					"type": "error"
				},
				{
					"inputs": [
						{
							"internalType": "address",
							"name": "spender",
							"type": "address"
						}
					],
					"name": "ERC20InvalidSpender",
					"type": "error"
				},
				{
					"inputs": [
						{
							"internalType": "address",
							"name": "owner",
							"type": "address"
						}
					],
					"name": "OwnableInvalidOwner",
					"type": "error"
				},
				{
					"inputs": [
						{
							"internalType": "address",
							"name": "account",
							"type": "address"
						}
					],
					"name": "OwnableUnauthorizedAccount",
					"type": "error"
				},
				{
					"anonymous": false,
					"inputs": [
						{
							"indexed": true,
							"internalType": "address",
							"name": "owner",
							"type": "address"
						},
						{
							"indexed": true,
							"internalType": "address",
							"name": "spender",
							"type": "address"
						},
						{
							"indexed": false,
							"internalType": "uint256",
							"name": "value",
							"type": "uint256"
						}
					],
					"name": "Approval",
					"type": "event"
				},
				{
					"anonymous": false,
					"inputs": [
						{
							"indexed": true,
							"internalType": "address",
							"name": "previousOwner",
							"type": "address"
						},
						{
							"indexed": true,
							"internalType": "address",
							"name": "newOwner",
							"type": "address"
						}
					],
					"name": "OwnershipTransferred",
					"type": "event"
				},
				{
					"anonymous": false,
					"inputs": [
						{
							"indexed": true,
							"internalType": "address",
							"name": "user",
							"type": "address"
						},
						{
							"indexed": false,
							"internalType": "uint256",
							"name": "amount",
							"type": "uint256"
						},
						{
							"indexed": false,
							"internalType": "enum MyToken.StakingPeriod",
							"name": "period",
							"type": "uint8"
						},
						{
							"indexed": false,
							"internalType": "uint256",
							"name": "timestamp",
							"type": "uint256"
						},
						{
							"indexed": false,
							"internalType": "uint256",
							"name": "stakeIndex",
							"type": "uint256"
						}
					],
					"name": "Staked",
					"type": "event"
				},
				{
					"anonymous": false,
					"inputs": [
						{
							"indexed": true,
							"internalType": "address",
							"name": "from",
							"type": "address"
						},
						{
							"indexed": true,
							"internalType": "address",
							"name": "to",
							"type": "address"
						},
						{
							"indexed": false,
							"internalType": "uint256",
							"name": "value",
							"type": "uint256"
						}
					],
					"name": "Transfer",
					"type": "event"
				},
				{
					"anonymous": false,
					"inputs": [
						{
							"indexed": true,
							"internalType": "address",
							"name": "user",
							"type": "address"
						},
						{
							"indexed": false,
							"internalType": "uint256",
							"name": "totalAmount",
							"type": "uint256"
						},
						{
							"indexed": false,
							"internalType": "uint256",
							"name": "stakeIndex",
							"type": "uint256"
						}
					],
					"name": "Withdrawn",
					"type": "event"
				},
				{
					"inputs": [
						{
							"internalType": "address",
							"name": "owner",
							"type": "address"
						},
						{
							"internalType": "address",
							"name": "spender",
							"type": "address"
						}
					],
					"name": "allowance",
					"outputs": [
						{
							"internalType": "uint256",
							"name": "",
							"type": "uint256"
						}
					],
					"stateMutability": "view",
					"type": "function"
				},
				{
					"inputs": [
						{
							"internalType": "address",
							"name": "spender",
							"type": "address"
						},
						{
							"internalType": "uint256",
							"name": "value",
							"type": "uint256"
						}
					],
					"name": "approve",
					"outputs": [
						{
							"internalType": "bool",
							"name": "",
							"type": "bool"
						}
					],
					"stateMutability": "nonpayable",
					"type": "function"
				},
				{
					"inputs": [
						{
							"internalType": "enum MyToken.StakingPeriod",
							"name": "",
							"type": "uint8"
						}
					],
					"name": "apy",
					"outputs": [
						{
							"internalType": "uint256",
							"name": "",
							"type": "uint256"
						}
					],
					"stateMutability": "view",
					"type": "function"
				},
				{
					"inputs": [
						{
							"internalType": "address",
							"name": "account",
							"type": "address"
						}
					],
					"name": "balanceOf",
					"outputs": [
						{
							"internalType": "uint256",
							"name": "",
							"type": "uint256"
						}
					],
					"stateMutability": "view",
					"type": "function"
				},
				{
					"inputs": [],
					"name": "decimals",
					"outputs": [
						{
							"internalType": "uint8",
							"name": "",
							"type": "uint8"
						}
					],
					"stateMutability": "view",
					"type": "function"
				},
				{
					"inputs": [
						{
							"internalType": "address",
							"name": "to",
							"type": "address"
						},
						{
							"internalType": "uint256",
							"name": "amount",
							"type": "uint256"
						}
					],
					"name": "mint",
					"outputs": [],
					"stateMutability": "nonpayable",
					"type": "function"
				},
				{
					"inputs": [],
					"name": "name",
					"outputs": [
						{
							"internalType": "string",
							"name": "",
							"type": "string"
						}
					],
					"stateMutability": "view",
					"type": "function"
				},
				{
					"inputs": [
						{
							"internalType": "address",
							"name": "",
							"type": "address"
						}
					],
					"name": "nextStakeId",
					"outputs": [
						{
							"internalType": "uint256",
							"name": "",
							"type": "uint256"
						}
					],
					"stateMutability": "view",
					"type": "function"
				},
				{
					"inputs": [],
					"name": "owner",
					"outputs": [
						{
							"internalType": "address",
							"name": "",
							"type": "address"
						}
					],
					"stateMutability": "view",
					"type": "function"
				},
				{
					"inputs": [],
					"name": "renounceOwnership",
					"outputs": [],
					"stateMutability": "nonpayable",
					"type": "function"
				},
				{
					"inputs": [
						{
							"internalType": "uint256",
							"name": "amount",
							"type": "uint256"
						},
						{
							"internalType": "enum MyToken.StakingPeriod",
							"name": "period",
							"type": "uint8"
						}
					],
					"name": "stake",
					"outputs": [],
					"stateMutability": "nonpayable",
					"type": "function"
				},
				{
					"inputs": [],
					"name": "symbol",
					"outputs": [
						{
							"internalType": "string",
							"name": "",
							"type": "string"
						}
					],
					"stateMutability": "view",
					"type": "function"
				},
				{
					"inputs": [],
					"name": "totalSupply",
					"outputs": [
						{
							"internalType": "uint256",
							"name": "",
							"type": "uint256"
						}
					],
					"stateMutability": "view",
					"type": "function"
				},
				{
					"inputs": [
						{
							"internalType": "address",
							"name": "to",
							"type": "address"
						},
						{
							"internalType": "uint256",
							"name": "value",
							"type": "uint256"
						}
					],
					"name": "transfer",
					"outputs": [
						{
							"internalType": "bool",
							"name": "",
							"type": "bool"
						}
					],
					"stateMutability": "nonpayable",
					"type": "function"
				},
				{
					"inputs": [
						{
							"internalType": "address",
							"name": "from",
							"type": "address"
						},
						{
							"internalType": "address",
							"name": "to",
							"type": "address"
						},
						{
							"internalType": "uint256",
							"name": "value",
							"type": "uint256"
						}
					],
					"name": "transferFrom",
					"outputs": [
						{
							"internalType": "bool",
							"name": "",
							"type": "bool"
						}
					],
					"stateMutability": "nonpayable",
					"type": "function"
				},
				{
					"inputs": [
						{
							"internalType": "address",
							"name": "newOwner",
							"type": "address"
						}
					],
					"name": "transferOwnership",
					"outputs": [],
					"stateMutability": "nonpayable",
					"type": "function"
				},
				{
					"inputs": [
						{
							"internalType": "address",
							"name": "",
							"type": "address"
						},
						{
							"internalType": "uint256",
							"name": "",
							"type": "uint256"
						}
					],
					"name": "userStakes",
					"outputs": [
						{
							"internalType": "uint256",
							"name": "amount",
							"type": "uint256"
						},
						{
							"internalType": "uint256",
							"name": "startTime",
							"type": "uint256"
						},
						{
							"internalType": "uint256",
							"name": "endTime",
							"type": "uint256"
						},
						{
							"internalType": "uint256",
							"name": "rewardRate",
							"type": "uint256"
						},
						{
							"internalType": "bool",
							"name": "isActive",
							"type": "bool"
						}
					],
					"stateMutability": "view",
					"type": "function"
				},
				{
					"inputs": [
						{
							"internalType": "uint256",
							"name": "stakeIndex",
							"type": "uint256"
						}
					],
					"name": "withdraw",
					"outputs": [],
					"stateMutability": "nonpayable",
					"type": "function"
				}
			],
			"devdoc": {
				"errors": {
					"ERC20InsufficientAllowance(address,uint256,uint256)": [
						{
							"details": "Indicates a failure with the `spender`’s `allowance`. Used in transfers.",
							"params": {
								"allowance": "Amount of tokens a `spender` is allowed to operate with.",
								"needed": "Minimum amount required to perform a transfer.",
								"spender": "Address that may be allowed to operate on tokens without being their owner."
							}
						}
					],
					"ERC20InsufficientBalance(address,uint256,uint256)": [
						{
							"details": "Indicates an error related to the current `balance` of a `sender`. Used in transfers.",
							"params": {
								"balance": "Current balance for the interacting account.",
								"needed": "Minimum amount required to perform a transfer.",
								"sender": "Address whose tokens are being transferred."
							}
						}
					],
					"ERC20InvalidApprover(address)": [
						{
							"details": "Indicates a failure with the `approver` of a token to be approved. Used in approvals.",
							"params": {
								"approver": "Address initiating an approval operation."
							}
						}
					],
					"ERC20InvalidReceiver(address)": [
						{
							"details": "Indicates a failure with the token `receiver`. Used in transfers.",
							"params": {
								"receiver": "Address to which tokens are being transferred."
							}
						}
					],
					"ERC20InvalidSender(address)": [
						{
							"details": "Indicates a failure with the token `sender`. Used in transfers.",
							"params": {
								"sender": "Address whose tokens are being transferred."
							}
						}
					],
					"ERC20InvalidSpender(address)": [
						{
							"details": "Indicates a failure with the `spender` to be approved. Used in approvals.",
							"params": {
								"spender": "Address that may be allowed to operate on tokens without being their owner."
							}
						}
					],
					"OwnableInvalidOwner(address)": [
						{
							"details": "The owner is not a valid owner account. (eg. `address(0)`)"
						}
					],
					"OwnableUnauthorizedAccount(address)": [
						{
							"details": "The caller account is not authorized to perform an operation."
						}
					]
				},
				"events": {
					"Approval(address,address,uint256)": {
						"details": "Emitted when the allowance of a `spender` for an `owner` is set by a call to {approve}. `value` is the new allowance."
					},
					"Transfer(address,address,uint256)": {
						"details": "Emitted when `value` tokens are moved from one account (`from`) to another (`to`). Note that `value` may be zero."
					}
				},
				"kind": "dev",
				"methods": {
					"allowance(address,address)": {
						"details": "Returns the remaining number of tokens that `spender` will be allowed to spend on behalf of `owner` through {transferFrom}. This is zero by default. This value changes when {approve} or {transferFrom} are called."
					},
					"approve(address,uint256)": {
						"details": "See {IERC20-approve}. NOTE: If `value` is the maximum `uint256`, the allowance is not updated on `transferFrom`. This is semantically equivalent to an infinite approval. Requirements: - `spender` cannot be the zero address."
					},
					"balanceOf(address)": {
						"details": "Returns the value of tokens owned by `account`."
					},
					"decimals()": {
						"details": "Returns the number of decimals used to get its user representation. For example, if `decimals` equals `2`, a balance of `505` tokens should be displayed to a user as `5.05` (`505 / 10 ** 2`). Tokens usually opt for a value of 18, imitating the relationship between Ether and Wei. This is the default value returned by this function, unless it's overridden. NOTE: This information is only used for _display_ purposes: it in no way affects any of the arithmetic of the contract, including {IERC20-balanceOf} and {IERC20-transfer}."
					},
					"name()": {
						"details": "Returns the name of the token."
					},
					"owner()": {
						"details": "Returns the address of the current owner."
					},
					"renounceOwnership()": {
						"details": "Leaves the contract without owner. It will not be possible to call `onlyOwner` functions. Can only be called by the current owner. NOTE: Renouncing ownership will leave the contract without an owner, thereby disabling any functionality that is only available to the owner."
					},
					"symbol()": {
						"details": "Returns the symbol of the token, usually a shorter version of the name."
					},
					"totalSupply()": {
						"details": "Returns the value of tokens in existence."
					},
					"transfer(address,uint256)": {
						"details": "See {IERC20-transfer}. Requirements: - `to` cannot be the zero address. - the caller must have a balance of at least `value`."
					},
					"transferFrom(address,address,uint256)": {
						"details": "See {IERC20-transferFrom}. Skips emitting an {Approval} event indicating an allowance update. This is not required by the ERC. See {xref-ERC20-_approve-address-address-uint256-bool-}[_approve]. NOTE: Does not update the allowance if the current allowance is the maximum `uint256`. Requirements: - `from` and `to` cannot be the zero address. - `from` must have a balance of at least `value`. - the caller must have allowance for ``from``'s tokens of at least `value`."
					},
					"transferOwnership(address)": {
						"details": "Transfers ownership of the contract to a new account (`newOwner`). Can only be called by the current owner."
					}
				},
				"version": 1
			},
			"evm": {
				"assembly": "    /* \"contracts/MyToken.sol\":167:4210  contract MyToken is ERC20, Ownable {... */\n  mstore(0x40, 0x80)\n    /* \"contracts/MyToken.sol\":1269:1736  constructor(... */\n  callvalue\n  dup1\n  iszero\n  tag_1\n  jumpi\n  revert(0x00, 0x00)\ntag_1:\n  pop\n  mload(0x40)\n  sub(codesize, bytecodeSize)\n  dup1\n  bytecodeSize\n  dup4\n  codecopy\n  dup2\n  dup2\n  add\n  0x40\n  mstore\n  dup2\n  add\n  swap1\n  tag_2\n  swap2\n  swap1\n  tag_3\n  jump\t// in\ntag_2:\n    /* \"contracts/MyToken.sol\":1404:1414  msg.sender */\n  caller\n    /* \"contracts/MyToken.sol\":1382:1386  name */\n  dup4\n    /* \"contracts/MyToken.sol\":1388:1394  symbol */\n  dup4\n    /* \"@openzeppelin/contracts/token/ERC20/ERC20.sol\":1656:1661  name_ */\n  dup2\n    /* \"@openzeppelin/contracts/token/ERC20/ERC20.sol\":1648:1653  _name */\n  0x03\n    /* \"@openzeppelin/contracts/token/ERC20/ERC20.sol\":1648:1661  _name = name_ */\n  swap1\n  dup2\n  tag_8\n  swap2\n  swap1\n  tag_9\n  jump\t// in\ntag_8:\n  pop\n    /* \"@openzeppelin/contracts/token/ERC20/ERC20.sol\":1681:1688  symbol_ */\n  dup1\n    /* \"@openzeppelin/contracts/token/ERC20/ERC20.sol\":1671:1678  _symbol */\n  0x04\n    /* \"@openzeppelin/contracts/token/ERC20/ERC20.sol\":1671:1688  _symbol = symbol_ */\n  swap1\n  dup2\n  tag_10\n  swap2\n  swap1\n  tag_9\n  jump\t// in\ntag_10:\n  pop\n    /* \"@openzeppelin/contracts/token/ERC20/ERC20.sol\":1582:1695  constructor(string memory name_, string memory symbol_) {... */\n  pop\n  pop\n    /* \"@openzeppelin/contracts/access/Ownable.sol\":1297:1298  0 */\n  0x00\n    /* \"@openzeppelin/contracts/access/Ownable.sol\":1273:1299  initialOwner == address(0) */\n  0xffffffffffffffffffffffffffffffffffffffff\n  and\n    /* \"@openzeppelin/contracts/access/Ownable.sol\":1273:1285  initialOwner */\n  dup2\n    /* \"@openzeppelin/contracts/access/Ownable.sol\":1273:1299  initialOwner == address(0) */\n  0xffffffffffffffffffffffffffffffffffffffff\n  and\n  sub\n    /* \"@openzeppelin/contracts/access/Ownable.sol\":1269:1364  if (initialOwner == address(0)) {... */\n  tag_12\n  jumpi\n    /* \"@openzeppelin/contracts/access/Ownable.sol\":1350:1351  0 */\n  0x00\n    /* \"@openzeppelin/contracts/access/Ownable.sol\":1322:1353  OwnableInvalidOwner(address(0)) */\n  mload(0x40)\n  0x1e4fbdf700000000000000000000000000000000000000000000000000000000\n  dup2\n  mstore\n  0x04\n  add\n  tag_13\n  swap2\n  swap1\n  tag_14\n  jump\t// in\ntag_13:\n  mload(0x40)\n  dup1\n  swap2\n  sub\n  swap1\n  revert\n    /* \"@openzeppelin/contracts/access/Ownable.sol\":1269:1364  if (initialOwner == address(0)) {... */\ntag_12:\n    /* \"@openzeppelin/contracts/access/Ownable.sol\":1373:1405  _transferOwnership(initialOwner) */\n  tag_15\n    /* \"@openzeppelin/contracts/access/Ownable.sol\":1392:1404  initialOwner */\n  dup2\n    /* \"@openzeppelin/contracts/access/Ownable.sol\":1373:1391  _transferOwnership */\n  shl(0x20, tag_16)\n    /* \"@openzeppelin/contracts/access/Ownable.sol\":1373:1405  _transferOwnership(initialOwner) */\n  0x20\n  shr\n  jump\t// in\ntag_15:\n    /* \"@openzeppelin/contracts/access/Ownable.sol\":1225:1412  constructor(address initialOwner) {... */\n  pop\n    /* \"contracts/MyToken.sol\":1428:1479  _mint(msg.sender, initialSupply * 10 ** decimals()) */\n  tag_18\n    /* \"contracts/MyToken.sol\":1434:1444  msg.sender */\n  caller\n    /* \"contracts/MyToken.sol\":1468:1478  decimals() */\n  tag_19\n    /* \"contracts/MyToken.sol\":1468:1476  decimals */\n  shl(0x20, tag_20)\n    /* \"contracts/MyToken.sol\":1468:1478  decimals() */\n  0x20\n  shr\n  jump\t// in\ntag_19:\n    /* \"contracts/MyToken.sol\":1462:1464  10 */\n  0x0a\n    /* \"contracts/MyToken.sol\":1462:1478  10 ** decimals() */\n  tag_21\n  swap2\n  swap1\n  tag_22\n  jump\t// in\ntag_21:\n    /* \"contracts/MyToken.sol\":1446:1459  initialSupply */\n  dup4\n    /* \"contracts/MyToken.sol\":1446:1478  initialSupply * 10 ** decimals() */\n  tag_23\n  swap2\n  swap1\n  tag_24\n  jump\t// in\ntag_23:\n    /* \"contracts/MyToken.sol\":1428:1433  _mint */\n  shl(0x20, tag_25)\n    /* \"contracts/MyToken.sol\":1428:1479  _mint(msg.sender, initialSupply * 10 ** decimals()) */\n  0x20\n  shr\n  jump\t// in\ntag_18:\n    /* \"contracts/MyToken.sol\":1521:1523  10 */\n  0x0a\n    /* \"contracts/MyToken.sol\":1489:1492  apy */\n  0x06\n    /* \"contracts/MyToken.sol\":1489:1518  apy[StakingPeriod.ThirtyDays] */\n  0x00\n    /* \"contracts/MyToken.sol\":1493:1517  StakingPeriod.ThirtyDays */\n  0x00\n    /* \"contracts/MyToken.sol\":1489:1518  apy[StakingPeriod.ThirtyDays] */\n  0x03\n  dup2\n  gt\n  iszero\n  tag_26\n  jumpi\n  tag_27\n  tag_28\n  jump\t// in\ntag_27:\ntag_26:\n  0x03\n  dup2\n  gt\n  iszero\n  tag_29\n  jumpi\n  tag_30\n  tag_28\n  jump\t// in\ntag_30:\ntag_29:\n  dup2\n  mstore\n  0x20\n  add\n  swap1\n  dup2\n  mstore\n  0x20\n  add\n  0x00\n  keccak256\n    /* \"contracts/MyToken.sol\":1489:1523  apy[StakingPeriod.ThirtyDays] = 10 */\n  dup2\n  swap1\n  sstore\n  pop\n    /* \"contracts/MyToken.sol\":1581:1583  15 */\n  0x0f\n    /* \"contracts/MyToken.sol\":1549:1552  apy */\n  0x06\n    /* \"contracts/MyToken.sol\":1549:1578  apy[StakingPeriod.NinetyDays] */\n  0x00\n    /* \"contracts/MyToken.sol\":1553:1577  StakingPeriod.NinetyDays */\n  0x01\n    /* \"contracts/MyToken.sol\":1549:1578  apy[StakingPeriod.NinetyDays] */\n  0x03\n  dup2\n  gt\n  iszero\n  tag_31\n  jumpi\n  tag_32\n  tag_28\n  jump\t// in\ntag_32:\ntag_31:\n  0x03\n  dup2\n  gt\n  iszero\n  tag_33\n  jumpi\n  tag_34\n  tag_28\n  jump\t// in\ntag_34:\ntag_33:\n  dup2\n  mstore\n  0x20\n  add\n  swap1\n  dup2\n  mstore\n  0x20\n  add\n  0x00\n  keccak256\n    /* \"contracts/MyToken.sol\":1549:1583  apy[StakingPeriod.NinetyDays] = 15 */\n  dup2\n  swap1\n  sstore\n  pop\n    /* \"contracts/MyToken.sol\":1648:1650  20 */\n  0x14\n    /* \"contracts/MyToken.sol\":1609:1612  apy */\n  0x06\n    /* \"contracts/MyToken.sol\":1609:1645  apy[StakingPeriod.HundredEightyDays] */\n  0x00\n    /* \"contracts/MyToken.sol\":1613:1644  StakingPeriod.HundredEightyDays */\n  0x02\n    /* \"contracts/MyToken.sol\":1609:1645  apy[StakingPeriod.HundredEightyDays] */\n  0x03\n  dup2\n  gt\n  iszero\n  tag_35\n  jumpi\n  tag_36\n  tag_28\n  jump\t// in\ntag_36:\ntag_35:\n  0x03\n  dup2\n  gt\n  iszero\n  tag_37\n  jumpi\n  tag_38\n  tag_28\n  jump\t// in\ntag_38:\ntag_37:\n  dup2\n  mstore\n  0x20\n  add\n  swap1\n  dup2\n  mstore\n  0x20\n  add\n  0x00\n  keccak256\n    /* \"contracts/MyToken.sol\":1609:1650  apy[StakingPeriod.HundredEightyDays] = 20 */\n  dup2\n  swap1\n  sstore\n  pop\n    /* \"contracts/MyToken.sol\":1708:1710  25 */\n  0x19\n    /* \"contracts/MyToken.sol\":1679:1682  apy */\n  0x06\n    /* \"contracts/MyToken.sol\":1679:1705  apy[StakingPeriod.OneYear] */\n  0x00\n    /* \"contracts/MyToken.sol\":1683:1704  StakingPeriod.OneYear */\n  0x03\n    /* \"contracts/MyToken.sol\":1679:1705  apy[StakingPeriod.OneYear] */\n  dup1\n  dup2\n  gt\n  iszero\n  tag_39\n  jumpi\n  tag_40\n  tag_28\n  jump\t// in\ntag_40:\ntag_39:\n  0x03\n  dup2\n  gt\n  iszero\n  tag_41\n  jumpi\n  tag_42\n  tag_28\n  jump\t// in\ntag_42:\ntag_41:\n  dup2\n  mstore\n  0x20\n  add\n  swap1\n  dup2\n  mstore\n  0x20\n  add\n  0x00\n  keccak256\n    /* \"contracts/MyToken.sol\":1679:1710  apy[StakingPeriod.OneYear] = 25 */\n  dup2\n  swap1\n  sstore\n  pop\n    /* \"contracts/MyToken.sol\":1269:1736  constructor(... */\n  pop\n  pop\n  pop\n    /* \"contracts/MyToken.sol\":167:4210  contract MyToken is ERC20, Ownable {... */\n  jump(tag_43)\n    /* \"@openzeppelin/contracts/access/Ownable.sol\":2912:3099  function _transferOwnership(address newOwner) internal virtual {... */\ntag_16:\n    /* \"@openzeppelin/contracts/access/Ownable.sol\":2985:3001  address oldOwner */\n  0x00\n    /* \"@openzeppelin/contracts/access/Ownable.sol\":3004:3010  _owner */\n  0x05\n  0x00\n  swap1\n  sload\n  swap1\n  0x0100\n  exp\n  swap1\n  div\n  0xffffffffffffffffffffffffffffffffffffffff\n  and\n    /* \"@openzeppelin/contracts/access/Ownable.sol\":2985:3010  address oldOwner = _owner */\n  swap1\n  pop\n    /* \"@openzeppelin/contracts/access/Ownable.sol\":3029:3037  newOwner */\n  dup2\n    /* \"@openzeppelin/contracts/access/Ownable.sol\":3020:3026  _owner */\n  0x05\n  0x00\n    /* \"@openzeppelin/contracts/access/Ownable.sol\":3020:3037  _owner = newOwner */\n  0x0100\n  exp\n  dup2\n  sload\n  dup2\n  0xffffffffffffffffffffffffffffffffffffffff\n  mul\n  not\n  and\n  swap1\n  dup4\n  0xffffffffffffffffffffffffffffffffffffffff\n  and\n  mul\n  or\n  swap1\n  sstore\n  pop\n    /* \"@openzeppelin/contracts/access/Ownable.sol\":3083:3091  newOwner */\n  dup2\n    /* \"@openzeppelin/contracts/access/Ownable.sol\":3052:3092  OwnershipTransferred(oldOwner, newOwner) */\n  0xffffffffffffffffffffffffffffffffffffffff\n  and\n    /* \"@openzeppelin/contracts/access/Ownable.sol\":3073:3081  oldOwner */\n  dup2\n    /* \"@openzeppelin/contracts/access/Ownable.sol\":3052:3092  OwnershipTransferred(oldOwner, newOwner) */\n  0xffffffffffffffffffffffffffffffffffffffff\n  and\n  0x8be0079c531659141344cd1fd0a4f28419497f9722a3daafe3b4186f6b6457e0\n  mload(0x40)\n  mload(0x40)\n  dup1\n  swap2\n  sub\n  swap1\n  log3\n    /* \"@openzeppelin/contracts/access/Ownable.sol\":2975:3099  {... */\n  pop\n    /* \"@openzeppelin/contracts/access/Ownable.sol\":2912:3099  function _transferOwnership(address newOwner) internal virtual {... */\n  pop\n  jump\t// out\n    /* \"@openzeppelin/contracts/token/ERC20/ERC20.sol\":2688:2770  function decimals() public view virtual returns (uint8) {... */\ntag_20:\n    /* \"@openzeppelin/contracts/token/ERC20/ERC20.sol\":2737:2742  uint8 */\n  0x00\n    /* \"@openzeppelin/contracts/token/ERC20/ERC20.sol\":2761:2763  18 */\n  0x12\n    /* \"@openzeppelin/contracts/token/ERC20/ERC20.sol\":2754:2763  return 18 */\n  swap1\n  pop\n    /* \"@openzeppelin/contracts/token/ERC20/ERC20.sol\":2688:2770  function decimals() public view virtual returns (uint8) {... */\n  swap1\n  jump\t// out\n    /* \"@openzeppelin/contracts/token/ERC20/ERC20.sol\":7362:7570  function _mint(address account, uint256 value) internal {... */\ntag_25:\n    /* \"@openzeppelin/contracts/token/ERC20/ERC20.sol\":7451:7452  0 */\n  0x00\n    /* \"@openzeppelin/contracts/token/ERC20/ERC20.sol\":7432:7453  account == address(0) */\n  0xffffffffffffffffffffffffffffffffffffffff\n  and\n    /* \"@openzeppelin/contracts/token/ERC20/ERC20.sol\":7432:7439  account */\n  dup3\n    /* \"@openzeppelin/contracts/token/ERC20/ERC20.sol\":7432:7453  account == address(0) */\n  0xffffffffffffffffffffffffffffffffffffffff\n  and\n  sub\n    /* \"@openzeppelin/contracts/token/ERC20/ERC20.sol\":7428:7519  if (account == address(0)) {... */\n  tag_47\n  jumpi\n    /* \"@openzeppelin/contracts/token/ERC20/ERC20.sol\":7505:7506  0 */\n  0x00\n    /* \"@openzeppelin/contracts/token/ERC20/ERC20.sol\":7476:7508  ERC20InvalidReceiver(address(0)) */\n  mload(0x40)\n  0xec442f0500000000000000000000000000000000000000000000000000000000\n  dup2\n  mstore\n  0x04\n  add\n  tag_48\n  swap2\n  swap1\n  tag_14\n  jump\t// in\ntag_48:\n  mload(0x40)\n  dup1\n  swap2\n  sub\n  swap1\n  revert\n    /* \"@openzeppelin/contracts/token/ERC20/ERC20.sol\":7428:7519  if (account == address(0)) {... */\ntag_47:\n    /* \"@openzeppelin/contracts/token/ERC20/ERC20.sol\":7528:7563  _update(address(0), account, value) */\n  tag_49\n    /* \"@openzeppelin/contracts/token/ERC20/ERC20.sol\":7544:7545  0 */\n  0x00\n    /* \"@openzeppelin/contracts/token/ERC20/ERC20.sol\":7548:7555  account */\n  dup4\n    /* \"@openzeppelin/contracts/token/ERC20/ERC20.sol\":7557:7562  value */\n  dup4\n    /* \"@openzeppelin/contracts/token/ERC20/ERC20.sol\":7528:7535  _update */\n  shl(0x20, tag_50)\n    /* \"@openzeppelin/contracts/token/ERC20/ERC20.sol\":7528:7563  _update(address(0), account, value) */\n  0x20\n  shr\n  jump\t// in\ntag_49:\n    /* \"@openzeppelin/contracts/token/ERC20/ERC20.sol\":7362:7570  function _mint(address account, uint256 value) internal {... */\n  pop\n  pop\n  jump\t// out\n    /* \"@openzeppelin/contracts/token/ERC20/ERC20.sol\":5912:7019  function _update(address from, address to, uint256 value) internal virtual {... */\ntag_50:\n    /* \"@openzeppelin/contracts/token/ERC20/ERC20.sol\":6017:6018  0 */\n  0x00\n    /* \"@openzeppelin/contracts/token/ERC20/ERC20.sol\":6001:6019  from == address(0) */\n  0xffffffffffffffffffffffffffffffffffffffff\n  and\n    /* \"@openzeppelin/contracts/token/ERC20/ERC20.sol\":6001:6005  from */\n  dup4\n    /* \"@openzeppelin/contracts/token/ERC20/ERC20.sol\":6001:6019  from == address(0) */\n  0xffffffffffffffffffffffffffffffffffffffff\n  and\n  sub\n    /* \"@openzeppelin/contracts/token/ERC20/ERC20.sol\":5997:6537  if (from == address(0)) {... */\n  tag_52\n  jumpi\n    /* \"@openzeppelin/contracts/token/ERC20/ERC20.sol\":6153:6158  value */\n  dup1\n    /* \"@openzeppelin/contracts/token/ERC20/ERC20.sol\":6137:6149  _totalSupply */\n  0x02\n  0x00\n    /* \"@openzeppelin/contracts/token/ERC20/ERC20.sol\":6137:6158  _totalSupply += value */\n  dup3\n  dup3\n  sload\n  tag_53\n  swap2\n  swap1\n  tag_54\n  jump\t// in\ntag_53:\n  swap3\n  pop\n  pop\n  dup2\n  swap1\n  sstore\n  pop\n    /* \"@openzeppelin/contracts/token/ERC20/ERC20.sol\":5997:6537  if (from == address(0)) {... */\n  jump(tag_55)\ntag_52:\n    /* \"@openzeppelin/contracts/token/ERC20/ERC20.sol\":6189:6208  uint256 fromBalance */\n  0x00\n    /* \"@openzeppelin/contracts/token/ERC20/ERC20.sol\":6211:6220  _balances */\n  0x00\n    /* \"@openzeppelin/contracts/token/ERC20/ERC20.sol\":6211:6226  _balances[from] */\n  0x00\n    /* \"@openzeppelin/contracts/token/ERC20/ERC20.sol\":6221:6225  from */\n  dup6\n    /* \"@openzeppelin/contracts/token/ERC20/ERC20.sol\":6211:6226  _balances[from] */\n  0xffffffffffffffffffffffffffffffffffffffff\n  and\n  0xffffffffffffffffffffffffffffffffffffffff\n  and\n  dup2\n  mstore\n  0x20\n  add\n  swap1\n  dup2\n  mstore\n  0x20\n  add\n  0x00\n  keccak256\n  sload\n    /* \"@openzeppelin/contracts/token/ERC20/ERC20.sol\":6189:6226  uint256 fromBalance = _balances[from] */\n  swap1\n  pop\n    /* \"@openzeppelin/contracts/token/ERC20/ERC20.sol\":6258:6263  value */\n  dup2\n    /* \"@openzeppelin/contracts/token/ERC20/ERC20.sol\":6244:6255  fromBalance */\n  dup2\n    /* \"@openzeppelin/contracts/token/ERC20/ERC20.sol\":6244:6263  fromBalance < value */\n  lt\n    /* \"@openzeppelin/contracts/token/ERC20/ERC20.sol\":6240:6355  if (fromBalance < value) {... */\n  iszero\n  tag_56\n  jumpi\n    /* \"@openzeppelin/contracts/token/ERC20/ERC20.sol\":6315:6319  from */\n  dup4\n    /* \"@openzeppelin/contracts/token/ERC20/ERC20.sol\":6321:6332  fromBalance */\n  dup2\n    /* \"@openzeppelin/contracts/token/ERC20/ERC20.sol\":6334:6339  value */\n  dup4\n    /* \"@openzeppelin/contracts/token/ERC20/ERC20.sol\":6290:6340  ERC20InsufficientBalance(from, fromBalance, value) */\n  mload(0x40)\n  0xe450d38c00000000000000000000000000000000000000000000000000000000\n  dup2\n  mstore\n  0x04\n  add\n  tag_57\n  swap4\n  swap3\n  swap2\n  swap1\n  tag_58\n  jump\t// in\ntag_57:\n  mload(0x40)\n  dup1\n  swap2\n  sub\n  swap1\n  revert\n    /* \"@openzeppelin/contracts/token/ERC20/ERC20.sol\":6240:6355  if (fromBalance < value) {... */\ntag_56:\n    /* \"@openzeppelin/contracts/token/ERC20/ERC20.sol\":6507:6512  value */\n  dup2\n    /* \"@openzeppelin/contracts/token/ERC20/ERC20.sol\":6493:6504  fromBalance */\n  dup2\n    /* \"@openzeppelin/contracts/token/ERC20/ERC20.sol\":6493:6512  fromBalance - value */\n  sub\n    /* \"@openzeppelin/contracts/token/ERC20/ERC20.sol\":6475:6484  _balances */\n  0x00\n    /* \"@openzeppelin/contracts/token/ERC20/ERC20.sol\":6475:6490  _balances[from] */\n  0x00\n    /* \"@openzeppelin/contracts/token/ERC20/ERC20.sol\":6485:6489  from */\n  dup7\n    /* \"@openzeppelin/contracts/token/ERC20/ERC20.sol\":6475:6490  _balances[from] */\n  0xffffffffffffffffffffffffffffffffffffffff\n  and\n  0xffffffffffffffffffffffffffffffffffffffff\n  and\n  dup2\n  mstore\n  0x20\n  add\n  swap1\n  dup2\n  mstore\n  0x20\n  add\n  0x00\n  keccak256\n    /* \"@openzeppelin/contracts/token/ERC20/ERC20.sol\":6475:6512  _balances[from] = fromBalance - value */\n  dup2\n  swap1\n  sstore\n  pop\n    /* \"@openzeppelin/contracts/token/ERC20/ERC20.sol\":6175:6537  {... */\n  pop\n    /* \"@openzeppelin/contracts/token/ERC20/ERC20.sol\":5997:6537  if (from == address(0)) {... */\ntag_55:\n    /* \"@openzeppelin/contracts/token/ERC20/ERC20.sol\":6565:6566  0 */\n  0x00\n    /* \"@openzeppelin/contracts/token/ERC20/ERC20.sol\":6551:6567  to == address(0) */\n  0xffffffffffffffffffffffffffffffffffffffff\n  and\n    /* \"@openzeppelin/contracts/token/ERC20/ERC20.sol\":6551:6553  to */\n  dup3\n    /* \"@openzeppelin/contracts/token/ERC20/ERC20.sol\":6551:6567  to == address(0) */\n  0xffffffffffffffffffffffffffffffffffffffff\n  and\n  sub\n    /* \"@openzeppelin/contracts/token/ERC20/ERC20.sol\":6547:6972  if (to == address(0)) {... */\n  tag_59\n  jumpi\n    /* \"@openzeppelin/contracts/token/ERC20/ERC20.sol\":6730:6735  value */\n  dup1\n    /* \"@openzeppelin/contracts/token/ERC20/ERC20.sol\":6714:6726  _totalSupply */\n  0x02\n  0x00\n    /* \"@openzeppelin/contracts/token/ERC20/ERC20.sol\":6714:6735  _totalSupply -= value */\n  dup3\n  dup3\n  sload\n  sub\n  swap3\n  pop\n  pop\n  dup2\n  swap1\n  sstore\n  pop\n    /* \"@openzeppelin/contracts/token/ERC20/ERC20.sol\":6547:6972  if (to == address(0)) {... */\n  jump(tag_60)\ntag_59:\n    /* \"@openzeppelin/contracts/token/ERC20/ERC20.sol\":6942:6947  value */\n  dup1\n    /* \"@openzeppelin/contracts/token/ERC20/ERC20.sol\":6925:6934  _balances */\n  0x00\n    /* \"@openzeppelin/contracts/token/ERC20/ERC20.sol\":6925:6938  _balances[to] */\n  0x00\n    /* \"@openzeppelin/contracts/token/ERC20/ERC20.sol\":6935:6937  to */\n  dup5\n    /* \"@openzeppelin/contracts/token/ERC20/ERC20.sol\":6925:6938  _balances[to] */\n  0xffffffffffffffffffffffffffffffffffffffff\n  and\n  0xffffffffffffffffffffffffffffffffffffffff\n  and\n  dup2\n  mstore\n  0x20\n  add\n  swap1\n  dup2\n  mstore\n  0x20\n  add\n  0x00\n  keccak256\n  0x00\n    /* \"@openzeppelin/contracts/token/ERC20/ERC20.sol\":6925:6947  _balances[to] += value */\n  dup3\n  dup3\n  sload\n  add\n  swap3\n  pop\n  pop\n  dup2\n  swap1\n  sstore\n  pop\n    /* \"@openzeppelin/contracts/token/ERC20/ERC20.sol\":6547:6972  if (to == address(0)) {... */\ntag_60:\n    /* \"@openzeppelin/contracts/token/ERC20/ERC20.sol\":7002:7004  to */\n  dup2\n    /* \"@openzeppelin/contracts/token/ERC20/ERC20.sol\":6987:7012  Transfer(from, to, value) */\n  0xffffffffffffffffffffffffffffffffffffffff\n  and\n    /* \"@openzeppelin/contracts/token/ERC20/ERC20.sol\":6996:7000  from */\n  dup4\n    /* \"@openzeppelin/contracts/token/ERC20/ERC20.sol\":6987:7012  Transfer(from, to, value) */\n  0xffffffffffffffffffffffffffffffffffffffff\n  and\n  0xddf252ad1be2c89b69c2b068fc378daa952ba7f163c4a11628f55a4df523b3ef\n    /* \"@openzeppelin/contracts/token/ERC20/ERC20.sol\":7006:7011  value */\n  dup4\n    /* \"@openzeppelin/contracts/token/ERC20/ERC20.sol\":6987:7012  Transfer(from, to, value) */\n  mload(0x40)\n  tag_61\n  swap2\n  swap1\n  tag_62\n  jump\t// in\ntag_61:\n  mload(0x40)\n  dup1\n  swap2\n  sub\n  swap1\n  log3\n    /* \"@openzeppelin/contracts/token/ERC20/ERC20.sol\":5912:7019  function _update(address from, address to, uint256 value) internal virtual {... */\n  pop\n  pop\n  pop\n  jump\t// out\n    /* \"#utility.yul\":7:82   */\ntag_63:\n    /* \"#utility.yul\":40:46   */\n  0x00\n    /* \"#utility.yul\":73:75   */\n  0x40\n    /* \"#utility.yul\":67:76   */\n  mload\n    /* \"#utility.yul\":57:76   */\n  swap1\n  pop\n    /* \"#utility.yul\":7:82   */\n  swap1\n  jump\t// out\n    /* \"#utility.yul\":88:205   */\ntag_64:\n    /* \"#utility.yul\":197:198   */\n  0x00\n    /* \"#utility.yul\":194:195   */\n  0x00\n    /* \"#utility.yul\":187:199   */\n  revert\n    /* \"#utility.yul\":211:328   */\ntag_65:\n    /* \"#utility.yul\":320:321   */\n  0x00\n    /* \"#utility.yul\":317:318   */\n  0x00\n    /* \"#utility.yul\":310:322   */\n  revert\n    /* \"#utility.yul\":334:451   */\ntag_66:\n    /* \"#utility.yul\":443:444   */\n  0x00\n    /* \"#utility.yul\":440:441   */\n  0x00\n    /* \"#utility.yul\":433:445   */\n  revert\n    /* \"#utility.yul\":457:574   */\ntag_67:\n    /* \"#utility.yul\":566:567   */\n  0x00\n    /* \"#utility.yul\":563:564   */\n  0x00\n    /* \"#utility.yul\":556:568   */\n  revert\n    /* \"#utility.yul\":580:682   */\ntag_68:\n    /* \"#utility.yul\":621:627   */\n  0x00\n    /* \"#utility.yul\":672:674   */\n  0x1f\n    /* \"#utility.yul\":668:675   */\n  not\n    /* \"#utility.yul\":663:665   */\n  0x1f\n    /* \"#utility.yul\":656:661   */\n  dup4\n    /* \"#utility.yul\":652:666   */\n  add\n    /* \"#utility.yul\":648:676   */\n  and\n    /* \"#utility.yul\":638:676   */\n  swap1\n  pop\n    /* \"#utility.yul\":580:682   */\n  swap2\n  swap1\n  pop\n  jump\t// out\n    /* \"#utility.yul\":688:868   */\ntag_69:\n    /* \"#utility.yul\":736:813   */\n  0x4e487b7100000000000000000000000000000000000000000000000000000000\n    /* \"#utility.yul\":733:734   */\n  0x00\n    /* \"#utility.yul\":726:814   */\n  mstore\n    /* \"#utility.yul\":833:837   */\n  0x41\n    /* \"#utility.yul\":830:831   */\n  0x04\n    /* \"#utility.yul\":823:838   */\n  mstore\n    /* \"#utility.yul\":857:861   */\n  0x24\n    /* \"#utility.yul\":854:855   */\n  0x00\n    /* \"#utility.yul\":847:862   */\n  revert\n    /* \"#utility.yul\":874:1155   */\ntag_70:\n    /* \"#utility.yul\":957:984   */\n  tag_115\n    /* \"#utility.yul\":979:983   */\n  dup3\n    /* \"#utility.yul\":957:984   */\n  tag_68\n  jump\t// in\ntag_115:\n    /* \"#utility.yul\":949:955   */\n  dup2\n    /* \"#utility.yul\":945:985   */\n  add\n    /* \"#utility.yul\":1087:1093   */\n  dup2\n    /* \"#utility.yul\":1075:1085   */\n  dup2\n    /* \"#utility.yul\":1072:1094   */\n  lt\n    /* \"#utility.yul\":1051:1069   */\n  0xffffffffffffffff\n    /* \"#utility.yul\":1039:1049   */\n  dup3\n    /* \"#utility.yul\":1036:1070   */\n  gt\n    /* \"#utility.yul\":1033:1095   */\n  or\n    /* \"#utility.yul\":1030:1118   */\n  iszero\n  tag_116\n  jumpi\n    /* \"#utility.yul\":1098:1116   */\n  tag_117\n  tag_69\n  jump\t// in\ntag_117:\n    /* \"#utility.yul\":1030:1118   */\ntag_116:\n    /* \"#utility.yul\":1138:1148   */\n  dup1\n    /* \"#utility.yul\":1134:1136   */\n  0x40\n    /* \"#utility.yul\":1127:1149   */\n  mstore\n    /* \"#utility.yul\":917:1155   */\n  pop\n    /* \"#utility.yul\":874:1155   */\n  pop\n  pop\n  jump\t// out\n    /* \"#utility.yul\":1161:1290   */\ntag_71:\n    /* \"#utility.yul\":1195:1201   */\n  0x00\n    /* \"#utility.yul\":1222:1242   */\n  tag_119\n  tag_63\n  jump\t// in\ntag_119:\n    /* \"#utility.yul\":1212:1242   */\n  swap1\n  pop\n    /* \"#utility.yul\":1251:1284   */\n  tag_120\n    /* \"#utility.yul\":1279:1283   */\n  dup3\n    /* \"#utility.yul\":1271:1277   */\n  dup3\n    /* \"#utility.yul\":1251:1284   */\n  tag_70\n  jump\t// in\ntag_120:\n    /* \"#utility.yul\":1161:1290   */\n  swap2\n  swap1\n  pop\n  jump\t// out\n    /* \"#utility.yul\":1296:1604   */\ntag_72:\n    /* \"#utility.yul\":1358:1362   */\n  0x00\n    /* \"#utility.yul\":1448:1466   */\n  0xffffffffffffffff\n    /* \"#utility.yul\":1440:1446   */\n  dup3\n    /* \"#utility.yul\":1437:1467   */\n  gt\n    /* \"#utility.yul\":1434:1490   */\n  iszero\n  tag_122\n  jumpi\n    /* \"#utility.yul\":1470:1488   */\n  tag_123\n  tag_69\n  jump\t// in\ntag_123:\n    /* \"#utility.yul\":1434:1490   */\ntag_122:\n    /* \"#utility.yul\":1508:1537   */\n  tag_124\n    /* \"#utility.yul\":1530:1536   */\n  dup3\n    /* \"#utility.yul\":1508:1537   */\n  tag_68\n  jump\t// in\ntag_124:\n    /* \"#utility.yul\":1500:1537   */\n  swap1\n  pop\n    /* \"#utility.yul\":1592:1596   */\n  0x20\n    /* \"#utility.yul\":1586:1590   */\n  dup2\n    /* \"#utility.yul\":1582:1597   */\n  add\n    /* \"#utility.yul\":1574:1597   */\n  swap1\n  pop\n    /* \"#utility.yul\":1296:1604   */\n  swap2\n  swap1\n  pop\n  jump\t// out\n    /* \"#utility.yul\":1610:1749   */\ntag_73:\n    /* \"#utility.yul\":1699:1705   */\n  dup3\n    /* \"#utility.yul\":1694:1697   */\n  dup2\n    /* \"#utility.yul\":1689:1692   */\n  dup4\n    /* \"#utility.yul\":1683:1706   */\n  mcopy\n    /* \"#utility.yul\":1740:1741   */\n  0x00\n    /* \"#utility.yul\":1731:1737   */\n  dup4\n    /* \"#utility.yul\":1726:1729   */\n  dup4\n    /* \"#utility.yul\":1722:1738   */\n  add\n    /* \"#utility.yul\":1715:1742   */\n  mstore\n    /* \"#utility.yul\":1610:1749   */\n  pop\n  pop\n  pop\n  jump\t// out\n    /* \"#utility.yul\":1755:2189   */\ntag_74:\n    /* \"#utility.yul\":1844:1849   */\n  0x00\n    /* \"#utility.yul\":1869:1935   */\n  tag_127\n    /* \"#utility.yul\":1885:1934   */\n  tag_128\n    /* \"#utility.yul\":1927:1933   */\n  dup5\n    /* \"#utility.yul\":1885:1934   */\n  tag_72\n  jump\t// in\ntag_128:\n    /* \"#utility.yul\":1869:1935   */\n  tag_71\n  jump\t// in\ntag_127:\n    /* \"#utility.yul\":1860:1935   */\n  swap1\n  pop\n    /* \"#utility.yul\":1958:1964   */\n  dup3\n    /* \"#utility.yul\":1951:1956   */\n  dup2\n    /* \"#utility.yul\":1944:1965   */\n  mstore\n    /* \"#utility.yul\":1996:2000   */\n  0x20\n    /* \"#utility.yul\":1989:1994   */\n  dup2\n    /* \"#utility.yul\":1985:2001   */\n  add\n    /* \"#utility.yul\":2034:2037   */\n  dup5\n    /* \"#utility.yul\":2025:2031   */\n  dup5\n    /* \"#utility.yul\":2020:2023   */\n  dup5\n    /* \"#utility.yul\":2016:2032   */\n  add\n    /* \"#utility.yul\":2013:2038   */\n  gt\n    /* \"#utility.yul\":2010:2122   */\n  iszero\n  tag_129\n  jumpi\n    /* \"#utility.yul\":2041:2120   */\n  tag_130\n  tag_67\n  jump\t// in\ntag_130:\n    /* \"#utility.yul\":2010:2122   */\ntag_129:\n    /* \"#utility.yul\":2131:2183   */\n  tag_131\n    /* \"#utility.yul\":2176:2182   */\n  dup5\n    /* \"#utility.yul\":2171:2174   */\n  dup3\n    /* \"#utility.yul\":2166:2169   */\n  dup6\n    /* \"#utility.yul\":2131:2183   */\n  tag_73\n  jump\t// in\ntag_131:\n    /* \"#utility.yul\":1850:2189   */\n  pop\n    /* \"#utility.yul\":1755:2189   */\n  swap4\n  swap3\n  pop\n  pop\n  pop\n  jump\t// out\n    /* \"#utility.yul\":2209:2564   */\ntag_75:\n    /* \"#utility.yul\":2276:2281   */\n  0x00\n    /* \"#utility.yul\":2325:2328   */\n  dup3\n    /* \"#utility.yul\":2318:2322   */\n  0x1f\n    /* \"#utility.yul\":2310:2316   */\n  dup4\n    /* \"#utility.yul\":2306:2323   */\n  add\n    /* \"#utility.yul\":2302:2329   */\n  slt\n    /* \"#utility.yul\":2292:2414   */\n  tag_133\n  jumpi\n    /* \"#utility.yul\":2333:2412   */\n  tag_134\n  tag_66\n  jump\t// in\ntag_134:\n    /* \"#utility.yul\":2292:2414   */\ntag_133:\n    /* \"#utility.yul\":2443:2449   */\n  dup2\n    /* \"#utility.yul\":2437:2450   */\n  mload\n    /* \"#utility.yul\":2468:2558   */\n  tag_135\n    /* \"#utility.yul\":2554:2557   */\n  dup5\n    /* \"#utility.yul\":2546:2552   */\n  dup3\n    /* \"#utility.yul\":2539:2543   */\n  0x20\n    /* \"#utility.yul\":2531:2537   */\n  dup7\n    /* \"#utility.yul\":2527:2544   */\n  add\n    /* \"#utility.yul\":2468:2558   */\n  tag_74\n  jump\t// in\ntag_135:\n    /* \"#utility.yul\":2459:2558   */\n  swap2\n  pop\n    /* \"#utility.yul\":2282:2564   */\n  pop\n    /* \"#utility.yul\":2209:2564   */\n  swap3\n  swap2\n  pop\n  pop\n  jump\t// out\n    /* \"#utility.yul\":2570:2647   */\ntag_76:\n    /* \"#utility.yul\":2607:2614   */\n  0x00\n    /* \"#utility.yul\":2636:2641   */\n  dup2\n    /* \"#utility.yul\":2625:2641   */\n  swap1\n  pop\n    /* \"#utility.yul\":2570:2647   */\n  swap2\n  swap1\n  pop\n  jump\t// out\n    /* \"#utility.yul\":2653:2775   */\ntag_77:\n    /* \"#utility.yul\":2726:2750   */\n  tag_138\n    /* \"#utility.yul\":2744:2749   */\n  dup2\n    /* \"#utility.yul\":2726:2750   */\n  tag_76\n  jump\t// in\ntag_138:\n    /* \"#utility.yul\":2719:2724   */\n  dup2\n    /* \"#utility.yul\":2716:2751   */\n  eq\n    /* \"#utility.yul\":2706:2769   */\n  tag_139\n  jumpi\n    /* \"#utility.yul\":2765:2766   */\n  0x00\n    /* \"#utility.yul\":2762:2763   */\n  0x00\n    /* \"#utility.yul\":2755:2767   */\n  revert\n    /* \"#utility.yul\":2706:2769   */\ntag_139:\n    /* \"#utility.yul\":2653:2775   */\n  pop\n  jump\t// out\n    /* \"#utility.yul\":2781:2924   */\ntag_78:\n    /* \"#utility.yul\":2838:2843   */\n  0x00\n    /* \"#utility.yul\":2869:2875   */\n  dup2\n    /* \"#utility.yul\":2863:2876   */\n  mload\n    /* \"#utility.yul\":2854:2876   */\n  swap1\n  pop\n    /* \"#utility.yul\":2885:2918   */\n  tag_141\n    /* \"#utility.yul\":2912:2917   */\n  dup2\n    /* \"#utility.yul\":2885:2918   */\n  tag_77\n  jump\t// in\ntag_141:\n    /* \"#utility.yul\":2781:2924   */\n  swap3\n  swap2\n  pop\n  pop\n  jump\t// out\n    /* \"#utility.yul\":2930:3939   */\ntag_3:\n    /* \"#utility.yul\":3038:3044   */\n  0x00\n    /* \"#utility.yul\":3046:3052   */\n  0x00\n    /* \"#utility.yul\":3054:3060   */\n  0x00\n    /* \"#utility.yul\":3103:3105   */\n  0x60\n    /* \"#utility.yul\":3091:3100   */\n  dup5\n    /* \"#utility.yul\":3082:3089   */\n  dup7\n    /* \"#utility.yul\":3078:3101   */\n  sub\n    /* \"#utility.yul\":3074:3106   */\n  slt\n    /* \"#utility.yul\":3071:3190   */\n  iszero\n  tag_143\n  jumpi\n    /* \"#utility.yul\":3109:3188   */\n  tag_144\n  tag_64\n  jump\t// in\ntag_144:\n    /* \"#utility.yul\":3071:3190   */\ntag_143:\n    /* \"#utility.yul\":3250:3251   */\n  0x00\n    /* \"#utility.yul\":3239:3248   */\n  dup5\n    /* \"#utility.yul\":3235:3252   */\n  add\n    /* \"#utility.yul\":3229:3253   */\n  mload\n    /* \"#utility.yul\":3280:3298   */\n  0xffffffffffffffff\n    /* \"#utility.yul\":3272:3278   */\n  dup2\n    /* \"#utility.yul\":3269:3299   */\n  gt\n    /* \"#utility.yul\":3266:3383   */\n  iszero\n  tag_145\n  jumpi\n    /* \"#utility.yul\":3302:3381   */\n  tag_146\n  tag_65\n  jump\t// in\ntag_146:\n    /* \"#utility.yul\":3266:3383   */\ntag_145:\n    /* \"#utility.yul\":3407:3481   */\n  tag_147\n    /* \"#utility.yul\":3473:3480   */\n  dup7\n    /* \"#utility.yul\":3464:3470   */\n  dup3\n    /* \"#utility.yul\":3453:3462   */\n  dup8\n    /* \"#utility.yul\":3449:3471   */\n  add\n    /* \"#utility.yul\":3407:3481   */\n  tag_75\n  jump\t// in\ntag_147:\n    /* \"#utility.yul\":3397:3481   */\n  swap4\n  pop\n    /* \"#utility.yul\":3200:3491   */\n  pop\n    /* \"#utility.yul\":3551:3553   */\n  0x20\n    /* \"#utility.yul\":3540:3549   */\n  dup5\n    /* \"#utility.yul\":3536:3554   */\n  add\n    /* \"#utility.yul\":3530:3555   */\n  mload\n    /* \"#utility.yul\":3582:3600   */\n  0xffffffffffffffff\n    /* \"#utility.yul\":3574:3580   */\n  dup2\n    /* \"#utility.yul\":3571:3601   */\n  gt\n    /* \"#utility.yul\":3568:3685   */\n  iszero\n  tag_148\n  jumpi\n    /* \"#utility.yul\":3604:3683   */\n  tag_149\n  tag_65\n  jump\t// in\ntag_149:\n    /* \"#utility.yul\":3568:3685   */\ntag_148:\n    /* \"#utility.yul\":3709:3783   */\n  tag_150\n    /* \"#utility.yul\":3775:3782   */\n  dup7\n    /* \"#utility.yul\":3766:3772   */\n  dup3\n    /* \"#utility.yul\":3755:3764   */\n  dup8\n    /* \"#utility.yul\":3751:3773   */\n  add\n    /* \"#utility.yul\":3709:3783   */\n  tag_75\n  jump\t// in\ntag_150:\n    /* \"#utility.yul\":3699:3783   */\n  swap3\n  pop\n    /* \"#utility.yul\":3501:3793   */\n  pop\n    /* \"#utility.yul\":3832:3834   */\n  0x40\n    /* \"#utility.yul\":3858:3922   */\n  tag_151\n    /* \"#utility.yul\":3914:3921   */\n  dup7\n    /* \"#utility.yul\":3905:3911   */\n  dup3\n    /* \"#utility.yul\":3894:3903   */\n  dup8\n    /* \"#utility.yul\":3890:3912   */\n  add\n    /* \"#utility.yul\":3858:3922   */\n  tag_78\n  jump\t// in\ntag_151:\n    /* \"#utility.yul\":3848:3922   */\n  swap2\n  pop\n    /* \"#utility.yul\":3803:3932   */\n  pop\n    /* \"#utility.yul\":2930:3939   */\n  swap3\n  pop\n  swap3\n  pop\n  swap3\n  jump\t// out\n    /* \"#utility.yul\":3945:4044   */\ntag_79:\n    /* \"#utility.yul\":3997:4003   */\n  0x00\n    /* \"#utility.yul\":4031:4036   */\n  dup2\n    /* \"#utility.yul\":4025:4037   */\n  mload\n    /* \"#utility.yul\":4015:4037   */\n  swap1\n  pop\n    /* \"#utility.yul\":3945:4044   */\n  swap2\n  swap1\n  pop\n  jump\t// out\n    /* \"#utility.yul\":4050:4230   */\ntag_80:\n    /* \"#utility.yul\":4098:4175   */\n  0x4e487b7100000000000000000000000000000000000000000000000000000000\n    /* \"#utility.yul\":4095:4096   */\n  0x00\n    /* \"#utility.yul\":4088:4176   */\n  mstore\n    /* \"#utility.yul\":4195:4199   */\n  0x22\n    /* \"#utility.yul\":4192:4193   */\n  0x04\n    /* \"#utility.yul\":4185:4200   */\n  mstore\n    /* \"#utility.yul\":4219:4223   */\n  0x24\n    /* \"#utility.yul\":4216:4217   */\n  0x00\n    /* \"#utility.yul\":4209:4224   */\n  revert\n    /* \"#utility.yul\":4236:4556   */\ntag_81:\n    /* \"#utility.yul\":4280:4286   */\n  0x00\n    /* \"#utility.yul\":4317:4318   */\n  0x02\n    /* \"#utility.yul\":4311:4315   */\n  dup3\n    /* \"#utility.yul\":4307:4319   */\n  div\n    /* \"#utility.yul\":4297:4319   */\n  swap1\n  pop\n    /* \"#utility.yul\":4364:4365   */\n  0x01\n    /* \"#utility.yul\":4358:4362   */\n  dup3\n    /* \"#utility.yul\":4354:4366   */\n  and\n    /* \"#utility.yul\":4385:4403   */\n  dup1\n    /* \"#utility.yul\":4375:4456   */\n  tag_155\n  jumpi\n    /* \"#utility.yul\":4441:4445   */\n  0x7f\n    /* \"#utility.yul\":4433:4439   */\n  dup3\n    /* \"#utility.yul\":4429:4446   */\n  and\n    /* \"#utility.yul\":4419:4446   */\n  swap2\n  pop\n    /* \"#utility.yul\":4375:4456   */\ntag_155:\n    /* \"#utility.yul\":4503:4505   */\n  0x20\n    /* \"#utility.yul\":4495:4501   */\n  dup3\n    /* \"#utility.yul\":4492:4506   */\n  lt\n    /* \"#utility.yul\":4472:4490   */\n  dup2\n    /* \"#utility.yul\":4469:4507   */\n  sub\n    /* \"#utility.yul\":4466:4550   */\n  tag_156\n  jumpi\n    /* \"#utility.yul\":4522:4540   */\n  tag_157\n  tag_80\n  jump\t// in\ntag_157:\n    /* \"#utility.yul\":4466:4550   */\ntag_156:\n    /* \"#utility.yul\":4287:4556   */\n  pop\n    /* \"#utility.yul\":4236:4556   */\n  swap2\n  swap1\n  pop\n  jump\t// out\n    /* \"#utility.yul\":4562:4703   */\ntag_82:\n    /* \"#utility.yul\":4611:4615   */\n  0x00\n    /* \"#utility.yul\":4634:4637   */\n  dup2\n    /* \"#utility.yul\":4626:4637   */\n  swap1\n  pop\n    /* \"#utility.yul\":4657:4660   */\n  dup2\n    /* \"#utility.yul\":4654:4655   */\n  0x00\n    /* \"#utility.yul\":4647:4661   */\n  mstore\n    /* \"#utility.yul\":4691:4695   */\n  0x20\n    /* \"#utility.yul\":4688:4689   */\n  0x00\n    /* \"#utility.yul\":4678:4696   */\n  keccak256\n    /* \"#utility.yul\":4670:4696   */\n  swap1\n  pop\n    /* \"#utility.yul\":4562:4703   */\n  swap2\n  swap1\n  pop\n  jump\t// out\n    /* \"#utility.yul\":4709:4802   */\ntag_83:\n    /* \"#utility.yul\":4746:4752   */\n  0x00\n    /* \"#utility.yul\":4793:4795   */\n  0x20\n    /* \"#utility.yul\":4788:4790   */\n  0x1f\n    /* \"#utility.yul\":4781:4786   */\n  dup4\n    /* \"#utility.yul\":4777:4791   */\n  add\n    /* \"#utility.yul\":4773:4796   */\n  div\n    /* \"#utility.yul\":4763:4796   */\n  swap1\n  pop\n    /* \"#utility.yul\":4709:4802   */\n  swap2\n  swap1\n  pop\n  jump\t// out\n    /* \"#utility.yul\":4808:4915   */\ntag_84:\n    /* \"#utility.yul\":4852:4860   */\n  0x00\n    /* \"#utility.yul\":4902:4907   */\n  dup3\n    /* \"#utility.yul\":4896:4900   */\n  dup3\n    /* \"#utility.yul\":4892:4908   */\n  shl\n    /* \"#utility.yul\":4871:4908   */\n  swap1\n  pop\n    /* \"#utility.yul\":4808:4915   */\n  swap3\n  swap2\n  pop\n  pop\n  jump\t// out\n    /* \"#utility.yul\":4921:5314   */\ntag_85:\n    /* \"#utility.yul\":4990:4996   */\n  0x00\n    /* \"#utility.yul\":5040:5041   */\n  0x08\n    /* \"#utility.yul\":5028:5038   */\n  dup4\n    /* \"#utility.yul\":5024:5042   */\n  mul\n    /* \"#utility.yul\":5063:5160   */\n  tag_162\n    /* \"#utility.yul\":5093:5159   */\n  0xffffffffffffffffffffffffffffffffffffffffffffffffffffffffffffffff\n    /* \"#utility.yul\":5082:5091   */\n  dup3\n    /* \"#utility.yul\":5063:5160   */\n  tag_84\n  jump\t// in\ntag_162:\n    /* \"#utility.yul\":5181:5220   */\n  tag_163\n    /* \"#utility.yul\":5211:5219   */\n  dup7\n    /* \"#utility.yul\":5200:5209   */\n  dup4\n    /* \"#utility.yul\":5181:5220   */\n  tag_84\n  jump\t// in\ntag_163:\n    /* \"#utility.yul\":5169:5220   */\n  swap6\n  pop\n    /* \"#utility.yul\":5253:5257   */\n  dup1\n    /* \"#utility.yul\":5249:5258   */\n  not\n    /* \"#utility.yul\":5242:5247   */\n  dup5\n    /* \"#utility.yul\":5238:5259   */\n  and\n    /* \"#utility.yul\":5229:5259   */\n  swap4\n  pop\n    /* \"#utility.yul\":5302:5306   */\n  dup1\n    /* \"#utility.yul\":5292:5300   */\n  dup7\n    /* \"#utility.yul\":5288:5307   */\n  and\n    /* \"#utility.yul\":5281:5286   */\n  dup5\n    /* \"#utility.yul\":5278:5308   */\n  or\n    /* \"#utility.yul\":5268:5308   */\n  swap3\n  pop\n    /* \"#utility.yul\":4997:5314   */\n  pop\n  pop\n    /* \"#utility.yul\":4921:5314   */\n  swap4\n  swap3\n  pop\n  pop\n  pop\n  jump\t// out\n    /* \"#utility.yul\":5320:5380   */\ntag_86:\n    /* \"#utility.yul\":5348:5351   */\n  0x00\n    /* \"#utility.yul\":5369:5374   */\n  dup2\n    /* \"#utility.yul\":5362:5374   */\n  swap1\n  pop\n    /* \"#utility.yul\":5320:5380   */\n  swap2\n  swap1\n  pop\n  jump\t// out\n    /* \"#utility.yul\":5386:5528   */\ntag_87:\n    /* \"#utility.yul\":5436:5445   */\n  0x00\n    /* \"#utility.yul\":5469:5522   */\n  tag_166\n    /* \"#utility.yul\":5487:5521   */\n  tag_167\n    /* \"#utility.yul\":5496:5520   */\n  tag_168\n    /* \"#utility.yul\":5514:5519   */\n  dup5\n    /* \"#utility.yul\":5496:5520   */\n  tag_76\n  jump\t// in\ntag_168:\n    /* \"#utility.yul\":5487:5521   */\n  tag_86\n  jump\t// in\ntag_167:\n    /* \"#utility.yul\":5469:5522   */\n  tag_76\n  jump\t// in\ntag_166:\n    /* \"#utility.yul\":5456:5522   */\n  swap1\n  pop\n    /* \"#utility.yul\":5386:5528   */\n  swap2\n  swap1\n  pop\n  jump\t// out\n    /* \"#utility.yul\":5534:5609   */\ntag_88:\n    /* \"#utility.yul\":5577:5580   */\n  0x00\n    /* \"#utility.yul\":5598:5603   */\n  dup2\n    /* \"#utility.yul\":5591:5603   */\n  swap1\n  pop\n    /* \"#utility.yul\":5534:5609   */\n  swap2\n  swap1\n  pop\n  jump\t// out\n    /* \"#utility.yul\":5615:5884   */\ntag_89:\n    /* \"#utility.yul\":5725:5764   */\n  tag_171\n    /* \"#utility.yul\":5756:5763   */\n  dup4\n    /* \"#utility.yul\":5725:5764   */\n  tag_87\n  jump\t// in\ntag_171:\n    /* \"#utility.yul\":5786:5877   */\n  tag_172\n    /* \"#utility.yul\":5835:5876   */\n  tag_173\n    /* \"#utility.yul\":5859:5875   */\n  dup3\n    /* \"#utility.yul\":5835:5876   */\n  tag_88\n  jump\t// in\ntag_173:\n    /* \"#utility.yul\":5827:5833   */\n  dup5\n    /* \"#utility.yul\":5820:5824   */\n  dup5\n    /* \"#utility.yul\":5814:5825   */\n  sload\n    /* \"#utility.yul\":5786:5877   */\n  tag_85\n  jump\t// in\ntag_172:\n    /* \"#utility.yul\":5780:5784   */\n  dup3\n    /* \"#utility.yul\":5773:5878   */\n  sstore\n    /* \"#utility.yul\":5691:5884   */\n  pop\n    /* \"#utility.yul\":5615:5884   */\n  pop\n  pop\n  pop\n  jump\t// out\n    /* \"#utility.yul\":5890:5963   */\ntag_90:\n    /* \"#utility.yul\":5935:5938   */\n  0x00\n    /* \"#utility.yul\":5956:5957   */\n  0x00\n    /* \"#utility.yul\":5949:5957   */\n  swap1\n  pop\n    /* \"#utility.yul\":5890:5963   */\n  swap1\n  jump\t// out\n    /* \"#utility.yul\":5969:6158   */\ntag_91:\n    /* \"#utility.yul\":6046:6078   */\n  tag_176\n  tag_90\n  jump\t// in\ntag_176:\n    /* \"#utility.yul\":6087:6152   */\n  tag_177\n    /* \"#utility.yul\":6145:6151   */\n  dup2\n    /* \"#utility.yul\":6137:6143   */\n  dup5\n    /* \"#utility.yul\":6131:6135   */\n  dup5\n    /* \"#utility.yul\":6087:6152   */\n  tag_89\n  jump\t// in\ntag_177:\n    /* \"#utility.yul\":6022:6158   */\n  pop\n    /* \"#utility.yul\":5969:6158   */\n  pop\n  pop\n  jump\t// out\n    /* \"#utility.yul\":6164:6350   */\ntag_92:\n    /* \"#utility.yul\":6224:6344   */\ntag_179:\n    /* \"#utility.yul\":6241:6244   */\n  dup2\n    /* \"#utility.yul\":6234:6239   */\n  dup2\n    /* \"#utility.yul\":6231:6245   */\n  lt\n    /* \"#utility.yul\":6224:6344   */\n  iszero\n  tag_181\n  jumpi\n    /* \"#utility.yul\":6295:6334   */\n  tag_182\n    /* \"#utility.yul\":6332:6333   */\n  0x00\n    /* \"#utility.yul\":6325:6330   */\n  dup3\n    /* \"#utility.yul\":6295:6334   */\n  tag_91\n  jump\t// in\ntag_182:\n    /* \"#utility.yul\":6268:6269   */\n  0x01\n    /* \"#utility.yul\":6261:6266   */\n  dup2\n    /* \"#utility.yul\":6257:6270   */\n  add\n    /* \"#utility.yul\":6248:6270   */\n  swap1\n  pop\n    /* \"#utility.yul\":6224:6344   */\n  jump(tag_179)\ntag_181:\n    /* \"#utility.yul\":6164:6350   */\n  pop\n  pop\n  jump\t// out\n    /* \"#utility.yul\":6356:6899   */\ntag_93:\n    /* \"#utility.yul\":6457:6459   */\n  0x1f\n    /* \"#utility.yul\":6452:6455   */\n  dup3\n    /* \"#utility.yul\":6449:6460   */\n  gt\n    /* \"#utility.yul\":6446:6892   */\n  iszero\n  tag_184\n  jumpi\n    /* \"#utility.yul\":6491:6529   */\n  tag_185\n    /* \"#utility.yul\":6523:6528   */\n  dup2\n    /* \"#utility.yul\":6491:6529   */\n  tag_82\n  jump\t// in\ntag_185:\n    /* \"#utility.yul\":6575:6604   */\n  tag_186\n    /* \"#utility.yul\":6593:6603   */\n  dup5\n    /* \"#utility.yul\":6575:6604   */\n  tag_83\n  jump\t// in\ntag_186:\n    /* \"#utility.yul\":6565:6573   */\n  dup2\n    /* \"#utility.yul\":6561:6605   */\n  add\n    /* \"#utility.yul\":6758:6760   */\n  0x20\n    /* \"#utility.yul\":6746:6756   */\n  dup6\n    /* \"#utility.yul\":6743:6761   */\n  lt\n    /* \"#utility.yul\":6740:6789   */\n  iszero\n  tag_187\n  jumpi\n    /* \"#utility.yul\":6779:6787   */\n  dup2\n    /* \"#utility.yul\":6764:6787   */\n  swap1\n  pop\n    /* \"#utility.yul\":6740:6789   */\ntag_187:\n    /* \"#utility.yul\":6802:6882   */\n  tag_188\n    /* \"#utility.yul\":6858:6880   */\n  tag_189\n    /* \"#utility.yul\":6876:6879   */\n  dup6\n    /* \"#utility.yul\":6858:6880   */\n  tag_83\n  jump\t// in\ntag_189:\n    /* \"#utility.yul\":6848:6856   */\n  dup4\n    /* \"#utility.yul\":6844:6881   */\n  add\n    /* \"#utility.yul\":6831:6842   */\n  dup3\n    /* \"#utility.yul\":6802:6882   */\n  tag_92\n  jump\t// in\ntag_188:\n    /* \"#utility.yul\":6461:6892   */\n  pop\n  pop\n    /* \"#utility.yul\":6446:6892   */\ntag_184:\n    /* \"#utility.yul\":6356:6899   */\n  pop\n  pop\n  pop\n  jump\t// out\n    /* \"#utility.yul\":6905:7022   */\ntag_94:\n    /* \"#utility.yul\":6959:6967   */\n  0x00\n    /* \"#utility.yul\":7009:7014   */\n  dup3\n    /* \"#utility.yul\":7003:7007   */\n  dup3\n    /* \"#utility.yul\":6999:7015   */\n  shr\n    /* \"#utility.yul\":6978:7015   */\n  swap1\n  pop\n    /* \"#utility.yul\":6905:7022   */\n  swap3\n  swap2\n  pop\n  pop\n  jump\t// out\n    /* \"#utility.yul\":7028:7197   */\ntag_95:\n    /* \"#utility.yul\":7072:7078   */\n  0x00\n    /* \"#utility.yul\":7105:7156   */\n  tag_192\n    /* \"#utility.yul\":7153:7154   */\n  0x00\n    /* \"#utility.yul\":7149:7155   */\n  not\n    /* \"#utility.yul\":7141:7146   */\n  dup5\n    /* \"#utility.yul\":7138:7139   */\n  0x08\n    /* \"#utility.yul\":7134:7147   */\n  mul\n    /* \"#utility.yul\":7105:7156   */\n  tag_94\n  jump\t// in\ntag_192:\n    /* \"#utility.yul\":7101:7157   */\n  not\n    /* \"#utility.yul\":7186:7190   */\n  dup1\n    /* \"#utility.yul\":7180:7184   */\n  dup4\n    /* \"#utility.yul\":7176:7191   */\n  and\n    /* \"#utility.yul\":7166:7191   */\n  swap2\n  pop\n    /* \"#utility.yul\":7079:7197   */\n  pop\n    /* \"#utility.yul\":7028:7197   */\n  swap3\n  swap2\n  pop\n  pop\n  jump\t// out\n    /* \"#utility.yul\":7202:7497   */\ntag_96:\n    /* \"#utility.yul\":7278:7282   */\n  0x00\n    /* \"#utility.yul\":7424:7453   */\n  tag_194\n    /* \"#utility.yul\":7449:7452   */\n  dup4\n    /* \"#utility.yul\":7443:7447   */\n  dup4\n    /* \"#utility.yul\":7424:7453   */\n  tag_95\n  jump\t// in\ntag_194:\n    /* \"#utility.yul\":7416:7453   */\n  swap2\n  pop\n    /* \"#utility.yul\":7486:7489   */\n  dup3\n    /* \"#utility.yul\":7483:7484   */\n  0x02\n    /* \"#utility.yul\":7479:7490   */\n  mul\n    /* \"#utility.yul\":7473:7477   */\n  dup3\n    /* \"#utility.yul\":7470:7491   */\n  or\n    /* \"#utility.yul\":7462:7491   */\n  swap1\n  pop\n    /* \"#utility.yul\":7202:7497   */\n  swap3\n  swap2\n  pop\n  pop\n  jump\t// out\n    /* \"#utility.yul\":7502:8897   */\ntag_9:\n    /* \"#utility.yul\":7619:7656   */\n  tag_196\n    /* \"#utility.yul\":7652:7655   */\n  dup3\n    /* \"#utility.yul\":7619:7656   */\n  tag_79\n  jump\t// in\ntag_196:\n    /* \"#utility.yul\":7721:7739   */\n  0xffffffffffffffff\n    /* \"#utility.yul\":7713:7719   */\n  dup2\n    /* \"#utility.yul\":7710:7740   */\n  gt\n    /* \"#utility.yul\":7707:7763   */\n  iszero\n  tag_197\n  jumpi\n    /* \"#utility.yul\":7743:7761   */\n  tag_198\n  tag_69\n  jump\t// in\ntag_198:\n    /* \"#utility.yul\":7707:7763   */\ntag_197:\n    /* \"#utility.yul\":7787:7825   */\n  tag_199\n    /* \"#utility.yul\":7819:7823   */\n  dup3\n    /* \"#utility.yul\":7813:7824   */\n  sload\n    /* \"#utility.yul\":7787:7825   */\n  tag_81\n  jump\t// in\ntag_199:\n    /* \"#utility.yul\":7872:7939   */\n  tag_200\n    /* \"#utility.yul\":7932:7938   */\n  dup3\n    /* \"#utility.yul\":7924:7930   */\n  dup3\n    /* \"#utility.yul\":7918:7922   */\n  dup6\n    /* \"#utility.yul\":7872:7939   */\n  tag_93\n  jump\t// in\ntag_200:\n    /* \"#utility.yul\":7966:7967   */\n  0x00\n    /* \"#utility.yul\":7990:7994   */\n  0x20\n    /* \"#utility.yul\":7977:7994   */\n  swap1\n  pop\n    /* \"#utility.yul\":8022:8024   */\n  0x1f\n    /* \"#utility.yul\":8014:8020   */\n  dup4\n    /* \"#utility.yul\":8011:8025   */\n  gt\n    /* \"#utility.yul\":8039:8040   */\n  0x01\n    /* \"#utility.yul\":8034:8652   */\n  dup2\n  eq\n  tag_202\n  jumpi\n    /* \"#utility.yul\":8696:8697   */\n  0x00\n    /* \"#utility.yul\":8713:8719   */\n  dup5\n    /* \"#utility.yul\":8710:8787   */\n  iszero\n  tag_203\n  jumpi\n    /* \"#utility.yul\":8762:8771   */\n  dup3\n    /* \"#utility.yul\":8757:8760   */\n  dup8\n    /* \"#utility.yul\":8753:8772   */\n  add\n    /* \"#utility.yul\":8747:8773   */\n  mload\n    /* \"#utility.yul\":8738:8773   */\n  swap1\n  pop\n    /* \"#utility.yul\":8710:8787   */\ntag_203:\n    /* \"#utility.yul\":8813:8880   */\n  tag_204\n    /* \"#utility.yul\":8873:8879   */\n  dup6\n    /* \"#utility.yul\":8866:8871   */\n  dup3\n    /* \"#utility.yul\":8813:8880   */\n  tag_96\n  jump\t// in\ntag_204:\n    /* \"#utility.yul\":8807:8811   */\n  dup7\n    /* \"#utility.yul\":8800:8881   */\n  sstore\n    /* \"#utility.yul\":8669:8891   */\n  pop\n    /* \"#utility.yul\":8004:8891   */\n  jump(tag_201)\n    /* \"#utility.yul\":8034:8652   */\ntag_202:\n    /* \"#utility.yul\":8086:8090   */\n  0x1f\n    /* \"#utility.yul\":8082:8091   */\n  not\n    /* \"#utility.yul\":8074:8080   */\n  dup5\n    /* \"#utility.yul\":8070:8092   */\n  and\n    /* \"#utility.yul\":8120:8157   */\n  tag_205\n    /* \"#utility.yul\":8152:8156   */\n  dup7\n    /* \"#utility.yul\":8120:8157   */\n  tag_82\n  jump\t// in\ntag_205:\n    /* \"#utility.yul\":8179:8180   */\n  0x00\n    /* \"#utility.yul\":8193:8401   */\ntag_206:\n    /* \"#utility.yul\":8207:8214   */\n  dup3\n    /* \"#utility.yul\":8204:8205   */\n  dup2\n    /* \"#utility.yul\":8201:8215   */\n  lt\n    /* \"#utility.yul\":8193:8401   */\n  iszero\n  tag_208\n  jumpi\n    /* \"#utility.yul\":8286:8295   */\n  dup5\n    /* \"#utility.yul\":8281:8284   */\n  dup10\n    /* \"#utility.yul\":8277:8296   */\n  add\n    /* \"#utility.yul\":8271:8297   */\n  mload\n    /* \"#utility.yul\":8263:8269   */\n  dup3\n    /* \"#utility.yul\":8256:8298   */\n  sstore\n    /* \"#utility.yul\":8337:8338   */\n  0x01\n    /* \"#utility.yul\":8329:8335   */\n  dup3\n    /* \"#utility.yul\":8325:8339   */\n  add\n    /* \"#utility.yul\":8315:8339   */\n  swap2\n  pop\n    /* \"#utility.yul\":8384:8386   */\n  0x20\n    /* \"#utility.yul\":8373:8382   */\n  dup6\n    /* \"#utility.yul\":8369:8387   */\n  add\n    /* \"#utility.yul\":8356:8387   */\n  swap5\n  pop\n    /* \"#utility.yul\":8230:8234   */\n  0x20\n    /* \"#utility.yul\":8227:8228   */\n  dup2\n    /* \"#utility.yul\":8223:8235   */\n  add\n    /* \"#utility.yul\":8218:8235   */\n  swap1\n  pop\n    /* \"#utility.yul\":8193:8401   */\n  jump(tag_206)\ntag_208:\n    /* \"#utility.yul\":8429:8435   */\n  dup7\n    /* \"#utility.yul\":8420:8427   */\n  dup4\n    /* \"#utility.yul\":8417:8436   */\n  lt\n    /* \"#utility.yul\":8414:8593   */\n  iszero\n  tag_209\n  jumpi\n    /* \"#utility.yul\":8487:8496   */\n  dup5\n    /* \"#utility.yul\":8482:8485   */\n  dup10\n    /* \"#utility.yul\":8478:8497   */\n  add\n    /* \"#utility.yul\":8472:8498   */\n  mload\n    /* \"#utility.yul\":8530:8578   */\n  tag_210\n    /* \"#utility.yul\":8572:8576   */\n  0x1f\n    /* \"#utility.yul\":8564:8570   */\n  dup10\n    /* \"#utility.yul\":8560:8577   */\n  and\n    /* \"#utility.yul\":8549:8558   */\n  dup3\n    /* \"#utility.yul\":8530:8578   */\n  tag_95\n  jump\t// in\ntag_210:\n    /* \"#utility.yul\":8522:8528   */\n  dup4\n    /* \"#utility.yul\":8515:8579   */\n  sstore\n    /* \"#utility.yul\":8437:8593   */\n  pop\n    /* \"#utility.yul\":8414:8593   */\ntag_209:\n    /* \"#utility.yul\":8639:8640   */\n  0x01\n    /* \"#utility.yul\":8635:8636   */\n  0x02\n    /* \"#utility.yul\":8627:8633   */\n  dup9\n    /* \"#utility.yul\":8623:8637   */\n  mul\n    /* \"#utility.yul\":8619:8641   */\n  add\n    /* \"#utility.yul\":8613:8617   */\n  dup9\n    /* \"#utility.yul\":8606:8642   */\n  sstore\n    /* \"#utility.yul\":8041:8652   */\n  pop\n  pop\n  pop\n    /* \"#utility.yul\":8004:8891   */\ntag_201:\n  pop\n    /* \"#utility.yul\":7594:8897   */\n  pop\n  pop\n  pop\n    /* \"#utility.yul\":7502:8897   */\n  pop\n  pop\n  jump\t// out\n    /* \"#utility.yul\":8903:9029   */\ntag_97:\n    /* \"#utility.yul\":8940:8947   */\n  0x00\n    /* \"#utility.yul\":8980:9022   */\n  0xffffffffffffffffffffffffffffffffffffffff\n    /* \"#utility.yul\":8973:8978   */\n  dup3\n    /* \"#utility.yul\":8969:9023   */\n  and\n    /* \"#utility.yul\":8958:9023   */\n  swap1\n  pop\n    /* \"#utility.yul\":8903:9029   */\n  swap2\n  swap1\n  pop\n  jump\t// out\n    /* \"#utility.yul\":9035:9131   */\ntag_98:\n    /* \"#utility.yul\":9072:9079   */\n  0x00\n    /* \"#utility.yul\":9101:9125   */\n  tag_213\n    /* \"#utility.yul\":9119:9124   */\n  dup3\n    /* \"#utility.yul\":9101:9125   */\n  tag_97\n  jump\t// in\ntag_213:\n    /* \"#utility.yul\":9090:9125   */\n  swap1\n  pop\n    /* \"#utility.yul\":9035:9131   */\n  swap2\n  swap1\n  pop\n  jump\t// out\n    /* \"#utility.yul\":9137:9255   */\ntag_99:\n    /* \"#utility.yul\":9224:9248   */\n  tag_215\n    /* \"#utility.yul\":9242:9247   */\n  dup2\n    /* \"#utility.yul\":9224:9248   */\n  tag_98\n  jump\t// in\ntag_215:\n    /* \"#utility.yul\":9219:9222   */\n  dup3\n    /* \"#utility.yul\":9212:9249   */\n  mstore\n    /* \"#utility.yul\":9137:9255   */\n  pop\n  pop\n  jump\t// out\n    /* \"#utility.yul\":9261:9483   */\ntag_14:\n    /* \"#utility.yul\":9354:9358   */\n  0x00\n    /* \"#utility.yul\":9392:9394   */\n  0x20\n    /* \"#utility.yul\":9381:9390   */\n  dup3\n    /* \"#utility.yul\":9377:9395   */\n  add\n    /* \"#utility.yul\":9369:9395   */\n  swap1\n  pop\n    /* \"#utility.yul\":9405:9476   */\n  tag_217\n    /* \"#utility.yul\":9473:9474   */\n  0x00\n    /* \"#utility.yul\":9462:9471   */\n  dup4\n    /* \"#utility.yul\":9458:9475   */\n  add\n    /* \"#utility.yul\":9449:9455   */\n  dup5\n    /* \"#utility.yul\":9405:9476   */\n  tag_99\n  jump\t// in\ntag_217:\n    /* \"#utility.yul\":9261:9483   */\n  swap3\n  swap2\n  pop\n  pop\n  jump\t// out\n    /* \"#utility.yul\":9489:9669   */\ntag_100:\n    /* \"#utility.yul\":9537:9614   */\n  0x4e487b7100000000000000000000000000000000000000000000000000000000\n    /* \"#utility.yul\":9534:9535   */\n  0x00\n    /* \"#utility.yul\":9527:9615   */\n  mstore\n    /* \"#utility.yul\":9634:9638   */\n  0x11\n    /* \"#utility.yul\":9631:9632   */\n  0x04\n    /* \"#utility.yul\":9624:9639   */\n  mstore\n    /* \"#utility.yul\":9658:9662   */\n  0x24\n    /* \"#utility.yul\":9655:9656   */\n  0x00\n    /* \"#utility.yul\":9648:9663   */\n  revert\n    /* \"#utility.yul\":9675:9777   */\ntag_101:\n    /* \"#utility.yul\":9717:9725   */\n  0x00\n    /* \"#utility.yul\":9764:9769   */\n  dup2\n    /* \"#utility.yul\":9761:9762   */\n  0x01\n    /* \"#utility.yul\":9757:9770   */\n  shr\n    /* \"#utility.yul\":9736:9770   */\n  swap1\n  pop\n    /* \"#utility.yul\":9675:9777   */\n  swap2\n  swap1\n  pop\n  jump\t// out\n    /* \"#utility.yul\":9783:10631   */\ntag_102:\n    /* \"#utility.yul\":9844:9849   */\n  0x00\n    /* \"#utility.yul\":9851:9855   */\n  0x00\n    /* \"#utility.yul\":9875:9881   */\n  dup3\n    /* \"#utility.yul\":9866:9881   */\n  swap2\n  pop\n    /* \"#utility.yul\":9899:9904   */\n  dup4\n    /* \"#utility.yul\":9890:9904   */\n  swap1\n  pop\n    /* \"#utility.yul\":9913:10625   */\ntag_221:\n    /* \"#utility.yul\":9934:9935   */\n  0x01\n    /* \"#utility.yul\":9924:9932   */\n  dup6\n    /* \"#utility.yul\":9921:9936   */\n  gt\n    /* \"#utility.yul\":9913:10625   */\n  iszero\n  tag_223\n  jumpi\n    /* \"#utility.yul\":10029:10033   */\n  dup1\n    /* \"#utility.yul\":10024:10027   */\n  dup7\n    /* \"#utility.yul\":10020:10034   */\n  div\n    /* \"#utility.yul\":10014:10018   */\n  dup2\n    /* \"#utility.yul\":10011:10035   */\n  gt\n    /* \"#utility.yul\":10008:10058   */\n  iszero\n  tag_224\n  jumpi\n    /* \"#utility.yul\":10038:10056   */\n  tag_225\n  tag_100\n  jump\t// in\ntag_225:\n    /* \"#utility.yul\":10008:10058   */\ntag_224:\n    /* \"#utility.yul\":10088:10089   */\n  0x01\n    /* \"#utility.yul\":10078:10086   */\n  dup6\n    /* \"#utility.yul\":10074:10090   */\n  and\n    /* \"#utility.yul\":10071:10522   */\n  iszero\n  tag_226\n  jumpi\n    /* \"#utility.yul\":10503:10507   */\n  dup1\n    /* \"#utility.yul\":10496:10501   */\n  dup3\n    /* \"#utility.yul\":10492:10508   */\n  mul\n    /* \"#utility.yul\":10483:10508   */\n  swap2\n  pop\n    /* \"#utility.yul\":10071:10522   */\ntag_226:\n    /* \"#utility.yul\":10553:10557   */\n  dup1\n    /* \"#utility.yul\":10547:10551   */\n  dup2\n    /* \"#utility.yul\":10543:10558   */\n  mul\n    /* \"#utility.yul\":10535:10558   */\n  swap1\n  pop\n    /* \"#utility.yul\":10583:10615   */\n  tag_227\n    /* \"#utility.yul\":10606:10614   */\n  dup6\n    /* \"#utility.yul\":10583:10615   */\n  tag_101\n  jump\t// in\ntag_227:\n    /* \"#utility.yul\":10571:10615   */\n  swap5\n  pop\n    /* \"#utility.yul\":9913:10625   */\n  jump(tag_221)\ntag_223:\n    /* \"#utility.yul\":9783:10631   */\n  swap5\n  pop\n  swap5\n  swap3\n  pop\n  pop\n  pop\n  jump\t// out\n    /* \"#utility.yul\":10637:11710   */\ntag_103:\n    /* \"#utility.yul\":10691:10696   */\n  0x00\n    /* \"#utility.yul\":10882:10890   */\n  dup3\n    /* \"#utility.yul\":10872:10912   */\n  tag_229\n  jumpi\n    /* \"#utility.yul\":10903:10904   */\n  0x01\n    /* \"#utility.yul\":10894:10904   */\n  swap1\n  pop\n    /* \"#utility.yul\":10905:10910   */\n  jump(tag_228)\n    /* \"#utility.yul\":10872:10912   */\ntag_229:\n    /* \"#utility.yul\":10931:10935   */\n  dup2\n    /* \"#utility.yul\":10921:10957   */\n  tag_230\n  jumpi\n    /* \"#utility.yul\":10948:10949   */\n  0x00\n    /* \"#utility.yul\":10939:10949   */\n  swap1\n  pop\n    /* \"#utility.yul\":10950:10955   */\n  jump(tag_228)\n    /* \"#utility.yul\":10921:10957   */\ntag_230:\n    /* \"#utility.yul\":11017:11021   */\n  dup2\n    /* \"#utility.yul\":11065:11066   */\n  0x01\n    /* \"#utility.yul\":11060:11087   */\n  dup2\n  eq\n  tag_232\n  jumpi\n    /* \"#utility.yul\":11101:11102   */\n  0x02\n    /* \"#utility.yul\":11096:11287   */\n  dup2\n  eq\n  tag_233\n  jumpi\n    /* \"#utility.yul\":11010:11287   */\n  jump(tag_231)\n    /* \"#utility.yul\":11060:11087   */\ntag_232:\n    /* \"#utility.yul\":11078:11079   */\n  0x01\n    /* \"#utility.yul\":11069:11079   */\n  swap2\n  pop\n    /* \"#utility.yul\":11080:11085   */\n  pop\n  jump(tag_228)\n    /* \"#utility.yul\":11096:11287   */\ntag_233:\n    /* \"#utility.yul\":11141:11144   */\n  0xff\n    /* \"#utility.yul\":11131:11139   */\n  dup5\n    /* \"#utility.yul\":11128:11145   */\n  gt\n    /* \"#utility.yul\":11125:11168   */\n  iszero\n  tag_234\n  jumpi\n    /* \"#utility.yul\":11148:11166   */\n  tag_235\n  tag_100\n  jump\t// in\ntag_235:\n    /* \"#utility.yul\":11125:11168   */\ntag_234:\n    /* \"#utility.yul\":11197:11205   */\n  dup4\n    /* \"#utility.yul\":11194:11195   */\n  0x02\n    /* \"#utility.yul\":11190:11206   */\n  exp\n    /* \"#utility.yul\":11181:11206   */\n  swap2\n  pop\n    /* \"#utility.yul\":11232:11235   */\n  dup5\n    /* \"#utility.yul\":11225:11230   */\n  dup3\n    /* \"#utility.yul\":11222:11236   */\n  gt\n    /* \"#utility.yul\":11219:11259   */\n  iszero\n  tag_236\n  jumpi\n    /* \"#utility.yul\":11239:11257   */\n  tag_237\n  tag_100\n  jump\t// in\ntag_237:\n    /* \"#utility.yul\":11219:11259   */\ntag_236:\n    /* \"#utility.yul\":11272:11277   */\n  pop\n  jump(tag_228)\n    /* \"#utility.yul\":11010:11287   */\ntag_231:\n  pop\n    /* \"#utility.yul\":11396:11398   */\n  0x20\n    /* \"#utility.yul\":11386:11394   */\n  dup4\n    /* \"#utility.yul\":11383:11399   */\n  lt\n    /* \"#utility.yul\":11377:11380   */\n  0x0133\n    /* \"#utility.yul\":11371:11375   */\n  dup4\n    /* \"#utility.yul\":11368:11381   */\n  lt\n    /* \"#utility.yul\":11364:11400   */\n  and\n    /* \"#utility.yul\":11346:11348   */\n  0x4e\n    /* \"#utility.yul\":11336:11344   */\n  dup5\n    /* \"#utility.yul\":11333:11349   */\n  lt\n    /* \"#utility.yul\":11328:11330   */\n  0x0b\n    /* \"#utility.yul\":11322:11326   */\n  dup5\n    /* \"#utility.yul\":11319:11331   */\n  lt\n    /* \"#utility.yul\":11315:11350   */\n  and\n    /* \"#utility.yul\":11299:11410   */\n  or\n    /* \"#utility.yul\":11296:11542   */\n  iszero\n  tag_238\n  jumpi\n    /* \"#utility.yul\":11452:11460   */\n  dup3\n    /* \"#utility.yul\":11446:11450   */\n  dup3\n    /* \"#utility.yul\":11442:11461   */\n  exp\n    /* \"#utility.yul\":11433:11461   */\n  swap1\n  pop\n    /* \"#utility.yul\":11487:11490   */\n  dup4\n    /* \"#utility.yul\":11480:11485   */\n  dup2\n    /* \"#utility.yul\":11477:11491   */\n  gt\n    /* \"#utility.yul\":11474:11514   */\n  iszero\n  tag_239\n  jumpi\n    /* \"#utility.yul\":11494:11512   */\n  tag_240\n  tag_100\n  jump\t// in\ntag_240:\n    /* \"#utility.yul\":11474:11514   */\ntag_239:\n    /* \"#utility.yul\":11527:11532   */\n  jump(tag_228)\n    /* \"#utility.yul\":11296:11542   */\ntag_238:\n    /* \"#utility.yul\":11567:11609   */\n  tag_241\n    /* \"#utility.yul\":11605:11608   */\n  dup5\n    /* \"#utility.yul\":11595:11603   */\n  dup5\n    /* \"#utility.yul\":11589:11593   */\n  dup5\n    /* \"#utility.yul\":11586:11587   */\n  0x01\n    /* \"#utility.yul\":11567:11609   */\n  tag_102\n  jump\t// in\ntag_241:\n    /* \"#utility.yul\":11552:11609   */\n  swap3\n  pop\n  swap1\n  pop\n    /* \"#utility.yul\":11641:11645   */\n  dup2\n    /* \"#utility.yul\":11636:11639   */\n  dup5\n    /* \"#utility.yul\":11632:11646   */\n  div\n    /* \"#utility.yul\":11625:11630   */\n  dup2\n    /* \"#utility.yul\":11622:11647   */\n  gt\n    /* \"#utility.yul\":11619:11670   */\n  iszero\n  tag_242\n  jumpi\n    /* \"#utility.yul\":11650:11668   */\n  tag_243\n  tag_100\n  jump\t// in\ntag_243:\n    /* \"#utility.yul\":11619:11670   */\ntag_242:\n    /* \"#utility.yul\":11699:11703   */\n  dup2\n    /* \"#utility.yul\":11692:11697   */\n  dup2\n    /* \"#utility.yul\":11688:11704   */\n  mul\n    /* \"#utility.yul\":11679:11704   */\n  swap1\n  pop\n    /* \"#utility.yul\":10637:11710   */\ntag_228:\n  swap4\n  swap3\n  pop\n  pop\n  pop\n  jump\t// out\n    /* \"#utility.yul\":11716:11802   */\ntag_104:\n    /* \"#utility.yul\":11751:11758   */\n  0x00\n    /* \"#utility.yul\":11791:11795   */\n  0xff\n    /* \"#utility.yul\":11784:11789   */\n  dup3\n    /* \"#utility.yul\":11780:11796   */\n  and\n    /* \"#utility.yul\":11769:11796   */\n  swap1\n  pop\n    /* \"#utility.yul\":11716:11802   */\n  swap2\n  swap1\n  pop\n  jump\t// out\n    /* \"#utility.yul\":11808:12089   */\ntag_22:\n    /* \"#utility.yul\":11866:11871   */\n  0x00\n    /* \"#utility.yul\":11890:11913   */\n  tag_246\n    /* \"#utility.yul\":11908:11912   */\n  dup3\n    /* \"#utility.yul\":11890:11913   */\n  tag_76\n  jump\t// in\ntag_246:\n    /* \"#utility.yul\":11882:11913   */\n  swap2\n  pop\n    /* \"#utility.yul\":11934:11959   */\n  tag_247\n    /* \"#utility.yul\":11950:11958   */\n  dup4\n    /* \"#utility.yul\":11934:11959   */\n  tag_104\n  jump\t// in\ntag_247:\n    /* \"#utility.yul\":11922:11959   */\n  swap3\n  pop\n    /* \"#utility.yul\":11978:12082   */\n  tag_248\n    /* \"#utility.yul\":12015:12081   */\n  0xffffffffffffffffffffffffffffffffffffffffffffffffffffffffffffffff\n    /* \"#utility.yul\":12005:12013   */\n  dup5\n    /* \"#utility.yul\":11999:12003   */\n  dup5\n    /* \"#utility.yul\":11978:12082   */\n  tag_103\n  jump\t// in\ntag_248:\n    /* \"#utility.yul\":11969:12082   */\n  swap1\n  pop\n    /* \"#utility.yul\":11808:12089   */\n  swap3\n  swap2\n  pop\n  pop\n  jump\t// out\n    /* \"#utility.yul\":12095:12505   */\ntag_24:\n    /* \"#utility.yul\":12135:12142   */\n  0x00\n    /* \"#utility.yul\":12158:12178   */\n  tag_250\n    /* \"#utility.yul\":12176:12177   */\n  dup3\n    /* \"#utility.yul\":12158:12178   */\n  tag_76\n  jump\t// in\ntag_250:\n    /* \"#utility.yul\":12153:12178   */\n  swap2\n  pop\n    /* \"#utility.yul\":12192:12212   */\n  tag_251\n    /* \"#utility.yul\":12210:12211   */\n  dup4\n    /* \"#utility.yul\":12192:12212   */\n  tag_76\n  jump\t// in\ntag_251:\n    /* \"#utility.yul\":12187:12212   */\n  swap3\n  pop\n    /* \"#utility.yul\":12247:12248   */\n  dup3\n    /* \"#utility.yul\":12244:12245   */\n  dup3\n    /* \"#utility.yul\":12240:12249   */\n  mul\n    /* \"#utility.yul\":12269:12299   */\n  tag_252\n    /* \"#utility.yul\":12287:12298   */\n  dup2\n    /* \"#utility.yul\":12269:12299   */\n  tag_76\n  jump\t// in\ntag_252:\n    /* \"#utility.yul\":12258:12299   */\n  swap2\n  pop\n    /* \"#utility.yul\":12448:12449   */\n  dup3\n    /* \"#utility.yul\":12439:12446   */\n  dup3\n    /* \"#utility.yul\":12435:12450   */\n  div\n    /* \"#utility.yul\":12432:12433   */\n  dup5\n    /* \"#utility.yul\":12429:12451   */\n  eq\n    /* \"#utility.yul\":12409:12410   */\n  dup4\n    /* \"#utility.yul\":12402:12411   */\n  iszero\n    /* \"#utility.yul\":12382:12465   */\n  or\n    /* \"#utility.yul\":12359:12498   */\n  tag_253\n  jumpi\n    /* \"#utility.yul\":12478:12496   */\n  tag_254\n  tag_100\n  jump\t// in\ntag_254:\n    /* \"#utility.yul\":12359:12498   */\ntag_253:\n    /* \"#utility.yul\":12143:12505   */\n  pop\n    /* \"#utility.yul\":12095:12505   */\n  swap3\n  swap2\n  pop\n  pop\n  jump\t// out\n    /* \"#utility.yul\":12511:12691   */\ntag_28:\n    /* \"#utility.yul\":12559:12636   */\n  0x4e487b7100000000000000000000000000000000000000000000000000000000\n    /* \"#utility.yul\":12556:12557   */\n  0x00\n    /* \"#utility.yul\":12549:12637   */\n  mstore\n    /* \"#utility.yul\":12656:12660   */\n  0x21\n    /* \"#utility.yul\":12653:12654   */\n  0x04\n    /* \"#utility.yul\":12646:12661   */\n  mstore\n    /* \"#utility.yul\":12680:12684   */\n  0x24\n    /* \"#utility.yul\":12677:12678   */\n  0x00\n    /* \"#utility.yul\":12670:12685   */\n  revert\n    /* \"#utility.yul\":12697:12888   */\ntag_54:\n    /* \"#utility.yul\":12737:12740   */\n  0x00\n    /* \"#utility.yul\":12756:12776   */\n  tag_257\n    /* \"#utility.yul\":12774:12775   */\n  dup3\n    /* \"#utility.yul\":12756:12776   */\n  tag_76\n  jump\t// in\ntag_257:\n    /* \"#utility.yul\":12751:12776   */\n  swap2\n  pop\n    /* \"#utility.yul\":12790:12810   */\n  tag_258\n    /* \"#utility.yul\":12808:12809   */\n  dup4\n    /* \"#utility.yul\":12790:12810   */\n  tag_76\n  jump\t// in\ntag_258:\n    /* \"#utility.yul\":12785:12810   */\n  swap3\n  pop\n    /* \"#utility.yul\":12833:12834   */\n  dup3\n    /* \"#utility.yul\":12830:12831   */\n  dup3\n    /* \"#utility.yul\":12826:12835   */\n  add\n    /* \"#utility.yul\":12819:12835   */\n  swap1\n  pop\n    /* \"#utility.yul\":12854:12857   */\n  dup1\n    /* \"#utility.yul\":12851:12852   */\n  dup3\n    /* \"#utility.yul\":12848:12858   */\n  gt\n    /* \"#utility.yul\":12845:12881   */\n  iszero\n  tag_259\n  jumpi\n    /* \"#utility.yul\":12861:12879   */\n  tag_260\n  tag_100\n  jump\t// in\ntag_260:\n    /* \"#utility.yul\":12845:12881   */\ntag_259:\n    /* \"#utility.yul\":12697:12888   */\n  swap3\n  swap2\n  pop\n  pop\n  jump\t// out\n    /* \"#utility.yul\":12894:13012   */\ntag_105:\n    /* \"#utility.yul\":12981:13005   */\n  tag_262\n    /* \"#utility.yul\":12999:13004   */\n  dup2\n    /* \"#utility.yul\":12981:13005   */\n  tag_76\n  jump\t// in\ntag_262:\n    /* \"#utility.yul\":12976:12979   */\n  dup3\n    /* \"#utility.yul\":12969:13006   */\n  mstore\n    /* \"#utility.yul\":12894:13012   */\n  pop\n  pop\n  jump\t// out\n    /* \"#utility.yul\":13018:13460   */\ntag_58:\n    /* \"#utility.yul\":13167:13171   */\n  0x00\n    /* \"#utility.yul\":13205:13207   */\n  0x60\n    /* \"#utility.yul\":13194:13203   */\n  dup3\n    /* \"#utility.yul\":13190:13208   */\n  add\n    /* \"#utility.yul\":13182:13208   */\n  swap1\n  pop\n    /* \"#utility.yul\":13218:13289   */\n  tag_264\n    /* \"#utility.yul\":13286:13287   */\n  0x00\n    /* \"#utility.yul\":13275:13284   */\n  dup4\n    /* \"#utility.yul\":13271:13288   */\n  add\n    /* \"#utility.yul\":13262:13268   */\n  dup7\n    /* \"#utility.yul\":13218:13289   */\n  tag_99\n  jump\t// in\ntag_264:\n    /* \"#utility.yul\":13299:13371   */\n  tag_265\n    /* \"#utility.yul\":13367:13369   */\n  0x20\n    /* \"#utility.yul\":13356:13365   */\n  dup4\n    /* \"#utility.yul\":13352:13370   */\n  add\n    /* \"#utility.yul\":13343:13349   */\n  dup6\n    /* \"#utility.yul\":13299:13371   */\n  tag_105\n  jump\t// in\ntag_265:\n    /* \"#utility.yul\":13381:13453   */\n  tag_266\n    /* \"#utility.yul\":13449:13451   */\n  0x40\n    /* \"#utility.yul\":13438:13447   */\n  dup4\n    /* \"#utility.yul\":13434:13452   */\n  add\n    /* \"#utility.yul\":13425:13431   */\n  dup5\n    /* \"#utility.yul\":13381:13453   */\n  tag_105\n  jump\t// in\ntag_266:\n    /* \"#utility.yul\":13018:13460   */\n  swap5\n  swap4\n  pop\n  pop\n  pop\n  pop\n  jump\t// out\n    /* \"#utility.yul\":13466:13688   */\ntag_62:\n    /* \"#utility.yul\":13559:13563   */\n  0x00\n    /* \"#utility.yul\":13597:13599   */\n  0x20\n    /* \"#utility.yul\":13586:13595   */\n  dup3\n    /* \"#utility.yul\":13582:13600   */\n  add\n    /* \"#utility.yul\":13574:13600   */\n  swap1\n  pop\n    /* \"#utility.yul\":13610:13681   */\n  tag_268\n    /* \"#utility.yul\":13678:13679   */\n  0x00\n    /* \"#utility.yul\":13667:13676   */\n  dup4\n    /* \"#utility.yul\":13663:13680   */\n  add\n    /* \"#utility.yul\":13654:13660   */\n  dup5\n    /* \"#utility.yul\":13610:13681   */\n  tag_105\n  jump\t// in\ntag_268:\n    /* \"#utility.yul\":13466:13688   */\n  swap3\n  swap2\n  pop\n  pop\n  jump\t// out\n    /* \"contracts/MyToken.sol\":167:4210  contract MyToken is ERC20, Ownable {... */\ntag_43:\n  dataSize(sub_0)\n  dup1\n  dataOffset(sub_0)\n  0x00\n  codecopy\n  0x00\n  return\nstop\n\nsub_0: assembly {\n        /* \"contracts/MyToken.sol\":167:4210  contract MyToken is ERC20, Ownable {... */\n      mstore(0x40, 0x80)\n      callvalue\n      dup1\n      iszero\n      tag_1\n      jumpi\n      revert(0x00, 0x00)\n    tag_1:\n      pop\n      jumpi(tag_2, lt(calldatasize, 0x04))\n      shr(0xe0, calldataload(0x00))\n      dup1\n      0x70a08231\n      gt\n      tag_21\n      jumpi\n      dup1\n      0x95d89b41\n      gt\n      tag_22\n      jumpi\n      dup1\n      0x95d89b41\n      eq\n      tag_16\n      jumpi\n      dup1\n      0xa9059cbb\n      eq\n      tag_17\n      jumpi\n      dup1\n      0xb5d5b5fa\n      eq\n      tag_18\n      jumpi\n      dup1\n      0xdd62ed3e\n      eq\n      tag_19\n      jumpi\n      dup1\n      0xf2fde38b\n      eq\n      tag_20\n      jumpi\n      jump(tag_2)\n    tag_22:\n      dup1\n      0x70a08231\n      eq\n      tag_12\n      jumpi\n      dup1\n      0x715018a6\n      eq\n      tag_13\n      jumpi\n      dup1\n      0x762e54fc\n      eq\n      tag_14\n      jumpi\n      dup1\n      0x8da5cb5b\n      eq\n      tag_15\n      jumpi\n      jump(tag_2)\n    tag_21:\n      dup1\n      0x1f1accb2\n      gt\n      tag_23\n      jumpi\n      dup1\n      0x1f1accb2\n      eq\n      tag_7\n      jumpi\n      dup1\n      0x23b872dd\n      eq\n      tag_8\n      jumpi\n      dup1\n      0x2e1a7d4d\n      eq\n      tag_9\n      jumpi\n      dup1\n      0x313ce567\n      eq\n      tag_10\n      jumpi\n      dup1\n      0x40c10f19\n      eq\n      tag_11\n      jumpi\n      jump(tag_2)\n    tag_23:\n      dup1\n      0x06fdde03\n      eq\n      tag_3\n      jumpi\n      dup1\n      0x095ea7b3\n      eq\n      tag_4\n      jumpi\n      dup1\n      0x10087fb1\n      eq\n      tag_5\n      jumpi\n      dup1\n      0x18160ddd\n      eq\n      tag_6\n      jumpi\n    tag_2:\n      revert(0x00, 0x00)\n        /* \"@openzeppelin/contracts/token/ERC20/ERC20.sol\":1760:1849  function name() public view virtual returns (string memory) {... */\n    tag_3:\n      tag_24\n      tag_25\n      jump\t// in\n    tag_24:\n      mload(0x40)\n      tag_26\n      swap2\n      swap1\n      tag_27\n      jump\t// in\n    tag_26:\n      mload(0x40)\n      dup1\n      swap2\n      sub\n      swap1\n      return\n        /* \"@openzeppelin/contracts/token/ERC20/ERC20.sol\":3902:4088  function approve(address spender, uint256 value) public virtual returns (bool) {... */\n    tag_4:\n      tag_28\n      0x04\n      dup1\n      calldatasize\n      sub\n      dup2\n      add\n      swap1\n      tag_29\n      swap2\n      swap1\n      tag_30\n      jump\t// in\n    tag_29:\n      tag_31\n      jump\t// in\n    tag_28:\n      mload(0x40)\n      tag_32\n      swap2\n      swap1\n      tag_33\n      jump\t// in\n    tag_32:\n      mload(0x40)\n      dup1\n      swap2\n      sub\n      swap1\n      return\n        /* \"contracts/MyToken.sol\":1903:2811  function stake(uint256 amount, StakingPeriod period) external {... */\n    tag_5:\n      tag_34\n      0x04\n      dup1\n      calldatasize\n      sub\n      dup2\n      add\n      swap1\n      tag_35\n      swap2\n      swap1\n      tag_36\n      jump\t// in\n    tag_35:\n      tag_37\n      jump\t// in\n    tag_34:\n      stop\n        /* \"@openzeppelin/contracts/token/ERC20/ERC20.sol\":2803:2900  function totalSupply() public view virtual returns (uint256) {... */\n    tag_6:\n      tag_38\n      tag_39\n      jump\t// in\n    tag_38:\n      mload(0x40)\n      tag_40\n      swap2\n      swap1\n      tag_41\n      jump\t// in\n    tag_40:\n      mload(0x40)\n      dup1\n      swap2\n      sub\n      swap1\n      return\n        /* \"contracts/MyToken.sol\":719:763  mapping(StakingPeriod => uint256) public apy */\n    tag_7:\n      tag_42\n      0x04\n      dup1\n      calldatasize\n      sub\n      dup2\n      add\n      swap1\n      tag_43\n      swap2\n      swap1\n      tag_44\n      jump\t// in\n    tag_43:\n      tag_45\n      jump\t// in\n    tag_42:\n      mload(0x40)\n      tag_46\n      swap2\n      swap1\n      tag_41\n      jump\t// in\n    tag_46:\n      mload(0x40)\n      dup1\n      swap2\n      sub\n      swap1\n      return\n        /* \"@openzeppelin/contracts/token/ERC20/ERC20.sol\":4680:4924  function transferFrom(address from, address to, uint256 value) public virtual returns (bool) {... */\n    tag_8:\n      tag_47\n      0x04\n      dup1\n      calldatasize\n      sub\n      dup2\n      add\n      swap1\n      tag_48\n      swap2\n      swap1\n      tag_49\n      jump\t// in\n    tag_48:\n      tag_50\n      jump\t// in\n    tag_47:\n      mload(0x40)\n      tag_51\n      swap2\n      swap1\n      tag_33\n      jump\t// in\n    tag_51:\n      mload(0x40)\n      dup1\n      swap2\n      sub\n      swap1\n      return\n        /* \"contracts/MyToken.sol\":3754:4208  function withdraw(uint256 stakeIndex) external {... */\n    tag_9:\n      tag_52\n      0x04\n      dup1\n      calldatasize\n      sub\n      dup2\n      add\n      swap1\n      tag_53\n      swap2\n      swap1\n      tag_54\n      jump\t// in\n    tag_53:\n      tag_55\n      jump\t// in\n    tag_52:\n      stop\n        /* \"@openzeppelin/contracts/token/ERC20/ERC20.sol\":2688:2770  function decimals() public view virtual returns (uint8) {... */\n    tag_10:\n      tag_56\n      tag_57\n      jump\t// in\n    tag_56:\n      mload(0x40)\n      tag_58\n      swap2\n      swap1\n      tag_59\n      jump\t// in\n    tag_58:\n      mload(0x40)\n      dup1\n      swap2\n      sub\n      swap1\n      return\n        /* \"contracts/MyToken.sol\":1804:1897  function mint(address to, uint256 amount) public onlyOwner {... */\n    tag_11:\n      tag_60\n      0x04\n      dup1\n      calldatasize\n      sub\n      dup2\n      add\n      swap1\n      tag_61\n      swap2\n      swap1\n      tag_30\n      jump\t// in\n    tag_61:\n      tag_62\n      jump\t// in\n    tag_60:\n      stop\n        /* \"@openzeppelin/contracts/token/ERC20/ERC20.sol\":2933:3049  function balanceOf(address account) public view virtual returns (uint256) {... */\n    tag_12:\n      tag_63\n      0x04\n      dup1\n      calldatasize\n      sub\n      dup2\n      add\n      swap1\n      tag_64\n      swap2\n      swap1\n      tag_65\n      jump\t// in\n    tag_64:\n      tag_66\n      jump\t// in\n    tag_63:\n      mload(0x40)\n      tag_67\n      swap2\n      swap1\n      tag_41\n      jump\t// in\n    tag_67:\n      mload(0x40)\n      dup1\n      swap2\n      sub\n      swap1\n      return\n        /* \"@openzeppelin/contracts/access/Ownable.sol\":2293:2394  function renounceOwnership() public virtual onlyOwner {... */\n    tag_13:\n      tag_68\n      tag_69\n      jump\t// in\n    tag_68:\n      stop\n        /* \"contracts/MyToken.sol\":918:964  mapping(address => uint256) public nextStakeId */\n    tag_14:\n      tag_70\n      0x04\n      dup1\n      calldatasize\n      sub\n      dup2\n      add\n      swap1\n      tag_71\n      swap2\n      swap1\n      tag_65\n      jump\t// in\n    tag_71:\n      tag_72\n      jump\t// in\n    tag_70:\n      mload(0x40)\n      tag_73\n      swap2\n      swap1\n      tag_41\n      jump\t// in\n    tag_73:\n      mload(0x40)\n      dup1\n      swap2\n      sub\n      swap1\n      return\n        /* \"@openzeppelin/contracts/access/Ownable.sol\":1638:1723  function owner() public view virtual returns (address) {... */\n    tag_15:\n      tag_74\n      tag_75\n      jump\t// in\n    tag_74:\n      mload(0x40)\n      tag_76\n      swap2\n      swap1\n      tag_77\n      jump\t// in\n    tag_76:\n      mload(0x40)\n      dup1\n      swap2\n      sub\n      swap1\n      return\n        /* \"@openzeppelin/contracts/token/ERC20/ERC20.sol\":1962:2055  function symbol() public view virtual returns (string memory) {... */\n    tag_16:\n      tag_78\n      tag_79\n      jump\t// in\n    tag_78:\n      mload(0x40)\n      tag_80\n      swap2\n      swap1\n      tag_27\n      jump\t// in\n    tag_80:\n      mload(0x40)\n      dup1\n      swap2\n      sub\n      swap1\n      return\n        /* \"@openzeppelin/contracts/token/ERC20/ERC20.sol\":3244:3422  function transfer(address to, uint256 value) public virtual returns (bool) {... */\n    tag_17:\n      tag_81\n      0x04\n      dup1\n      calldatasize\n      sub\n      dup2\n      add\n      swap1\n      tag_82\n      swap2\n      swap1\n      tag_30\n      jump\t// in\n    tag_82:\n      tag_83\n      jump\t// in\n    tag_81:\n      mload(0x40)\n      tag_84\n      swap2\n      swap1\n      tag_33\n      jump\t// in\n    tag_84:\n      mload(0x40)\n      dup1\n      swap2\n      sub\n      swap1\n      return\n        /* \"contracts/MyToken.sol\":820:881  mapping(address => mapping(uint256=>Stake)) public userStakes */\n    tag_18:\n      tag_85\n      0x04\n      dup1\n      calldatasize\n      sub\n      dup2\n      add\n      swap1\n      tag_86\n      swap2\n      swap1\n      tag_30\n      jump\t// in\n    tag_86:\n      tag_87\n      jump\t// in\n    tag_85:\n      mload(0x40)\n      tag_88\n      swap6\n      swap5\n      swap4\n      swap3\n      swap2\n      swap1\n      tag_89\n      jump\t// in\n    tag_88:\n      mload(0x40)\n      dup1\n      swap2\n      sub\n      swap1\n      return\n        /* \"@openzeppelin/contracts/token/ERC20/ERC20.sol\":3455:3595  function allowance(address owner, address spender) public view virtual returns (uint256) {... */\n    tag_19:\n      tag_90\n      0x04\n      dup1\n      calldatasize\n      sub\n      dup2\n      add\n      swap1\n      tag_91\n      swap2\n      swap1\n      tag_92\n      jump\t// in\n    tag_91:\n      tag_93\n      jump\t// in\n    tag_90:\n      mload(0x40)\n      tag_94\n      swap2\n      swap1\n      tag_41\n      jump\t// in\n    tag_94:\n      mload(0x40)\n      dup1\n      swap2\n      sub\n      swap1\n      return\n        /* \"@openzeppelin/contracts/access/Ownable.sol\":2543:2758  function transferOwnership(address newOwner) public virtual onlyOwner {... */\n    tag_20:\n      tag_95\n      0x04\n      dup1\n      calldatasize\n      sub\n      dup2\n      add\n      swap1\n      tag_96\n      swap2\n      swap1\n      tag_65\n      jump\t// in\n    tag_96:\n      tag_97\n      jump\t// in\n    tag_95:\n      stop\n        /* \"@openzeppelin/contracts/token/ERC20/ERC20.sol\":1760:1849  function name() public view virtual returns (string memory) {... */\n    tag_25:\n        /* \"@openzeppelin/contracts/token/ERC20/ERC20.sol\":1805:1818  string memory */\n      0x60\n        /* \"@openzeppelin/contracts/token/ERC20/ERC20.sol\":1837:1842  _name */\n      0x03\n        /* \"@openzeppelin/contracts/token/ERC20/ERC20.sol\":1830:1842  return _name */\n      dup1\n      sload\n      tag_99\n      swap1\n      tag_100\n      jump\t// in\n    tag_99:\n      dup1\n      0x1f\n      add\n      0x20\n      dup1\n      swap2\n      div\n      mul\n      0x20\n      add\n      mload(0x40)\n      swap1\n      dup2\n      add\n      0x40\n      mstore\n      dup1\n      swap3\n      swap2\n      swap1\n      dup2\n      dup2\n      mstore\n      0x20\n      add\n      dup3\n      dup1\n      sload\n      tag_101\n      swap1\n      tag_100\n      jump\t// in\n    tag_101:\n      dup1\n      iszero\n      tag_102\n      jumpi\n      dup1\n      0x1f\n      lt\n      tag_103\n      jumpi\n      0x0100\n      dup1\n      dup4\n      sload\n      div\n      mul\n      dup4\n      mstore\n      swap2\n      0x20\n      add\n      swap2\n      jump(tag_102)\n    tag_103:\n      dup3\n      add\n      swap2\n      swap1\n      0x00\n      mstore\n      keccak256(0x00, 0x20)\n      swap1\n    tag_104:\n      dup2\n      sload\n      dup2\n      mstore\n      swap1\n      0x01\n      add\n      swap1\n      0x20\n      add\n      dup1\n      dup4\n      gt\n      tag_104\n      jumpi\n      dup3\n      swap1\n      sub\n      0x1f\n      and\n      dup3\n      add\n      swap2\n    tag_102:\n      pop\n      pop\n      pop\n      pop\n      pop\n      swap1\n      pop\n        /* \"@openzeppelin/contracts/token/ERC20/ERC20.sol\":1760:1849  function name() public view virtual returns (string memory) {... */\n      swap1\n      jump\t// out\n        /* \"@openzeppelin/contracts/token/ERC20/ERC20.sol\":3902:4088  function approve(address spender, uint256 value) public virtual returns (bool) {... */\n    tag_31:\n        /* \"@openzeppelin/contracts/token/ERC20/ERC20.sol\":3975:3979  bool */\n      0x00\n        /* \"@openzeppelin/contracts/token/ERC20/ERC20.sol\":3991:4004  address owner */\n      0x00\n        /* \"@openzeppelin/contracts/token/ERC20/ERC20.sol\":4007:4019  _msgSender() */\n      tag_106\n        /* \"@openzeppelin/contracts/token/ERC20/ERC20.sol\":4007:4017  _msgSender */\n      tag_107\n        /* \"@openzeppelin/contracts/token/ERC20/ERC20.sol\":4007:4019  _msgSender() */\n      jump\t// in\n    tag_106:\n        /* \"@openzeppelin/contracts/token/ERC20/ERC20.sol\":3991:4019  address owner = _msgSender() */\n      swap1\n      pop\n        /* \"@openzeppelin/contracts/token/ERC20/ERC20.sol\":4029:4060  _approve(owner, spender, value) */\n      tag_108\n        /* \"@openzeppelin/contracts/token/ERC20/ERC20.sol\":4038:4043  owner */\n      dup2\n        /* \"@openzeppelin/contracts/token/ERC20/ERC20.sol\":4045:4052  spender */\n      dup6\n        /* \"@openzeppelin/contracts/token/ERC20/ERC20.sol\":4054:4059  value */\n      dup6\n        /* \"@openzeppelin/contracts/token/ERC20/ERC20.sol\":4029:4037  _approve */\n      tag_109\n        /* \"@openzeppelin/contracts/token/ERC20/ERC20.sol\":4029:4060  _approve(owner, spender, value) */\n      jump\t// in\n    tag_108:\n        /* \"@openzeppelin/contracts/token/ERC20/ERC20.sol\":4077:4081  true */\n      0x01\n        /* \"@openzeppelin/contracts/token/ERC20/ERC20.sol\":4070:4081  return true */\n      swap2\n      pop\n      pop\n        /* \"@openzeppelin/contracts/token/ERC20/ERC20.sol\":3902:4088  function approve(address spender, uint256 value) public virtual returns (bool) {... */\n      swap3\n      swap2\n      pop\n      pop\n      jump\t// out\n        /* \"contracts/MyToken.sol\":1903:2811  function stake(uint256 amount, StakingPeriod period) external {... */\n    tag_37:\n        /* \"contracts/MyToken.sol\":1975:1992  uint256 amountWei */\n      0x00\n        /* \"contracts/MyToken.sol\":2000:2006  10**18 */\n      0x0de0b6b3a7640000\n        /* \"contracts/MyToken.sol\":1993:1999  amount */\n      dup4\n        /* \"contracts/MyToken.sol\":1993:2006  amount*10**18 */\n      tag_111\n      swap2\n      swap1\n      tag_112\n      jump\t// in\n    tag_111:\n        /* \"contracts/MyToken.sol\":1975:2006  uint256 amountWei=amount*10**18 */\n      swap1\n      pop\n        /* \"contracts/MyToken.sol\":2031:2032  0 */\n      0x00\n        /* \"contracts/MyToken.sol\":2024:2030  amount */\n      dup4\n        /* \"contracts/MyToken.sol\":2024:2032  amount>0 */\n      gt\n        /* \"contracts/MyToken.sol\":2016:2062  require(amount>0, \"Amount should be positive\") */\n      tag_113\n      jumpi\n      mload(0x40)\n      0x08c379a000000000000000000000000000000000000000000000000000000000\n      dup2\n      mstore\n      0x04\n      add\n      tag_114\n      swap1\n      tag_115\n      jump\t// in\n    tag_114:\n      mload(0x40)\n      dup1\n      swap2\n      sub\n      swap1\n      revert\n    tag_113:\n        /* \"contracts/MyToken.sol\":2103:2112  amountWei */\n      dup1\n        /* \"contracts/MyToken.sol\":2080:2101  balanceOf(msg.sender) */\n      tag_116\n        /* \"contracts/MyToken.sol\":2090:2100  msg.sender */\n      caller\n        /* \"contracts/MyToken.sol\":2080:2089  balanceOf */\n      tag_66\n        /* \"contracts/MyToken.sol\":2080:2101  balanceOf(msg.sender) */\n      jump\t// in\n    tag_116:\n        /* \"contracts/MyToken.sol\":2080:2112  balanceOf(msg.sender)>=amountWei */\n      lt\n      iszero\n        /* \"contracts/MyToken.sol\":2072:2137  require(balanceOf(msg.sender)>=amountWei, \"Insufficient balance\") */\n      tag_117\n      jumpi\n      mload(0x40)\n      0x08c379a000000000000000000000000000000000000000000000000000000000\n      dup2\n      mstore\n      0x04\n      add\n      tag_118\n      swap1\n      tag_119\n      jump\t// in\n    tag_118:\n      mload(0x40)\n      dup1\n      swap2\n      sub\n      swap1\n      revert\n    tag_117:\n        /* \"contracts/MyToken.sol\":2148:2177  timeMapping memory durMapping */\n      0x00\n        /* \"contracts/MyToken.sol\":2180:2200  _getDuration(period) */\n      tag_120\n        /* \"contracts/MyToken.sol\":2193:2199  period */\n      dup4\n        /* \"contracts/MyToken.sol\":2180:2192  _getDuration */\n      tag_121\n        /* \"contracts/MyToken.sol\":2180:2200  _getDuration(period) */\n      jump\t// in\n    tag_120:\n        /* \"contracts/MyToken.sol\":2148:2200  timeMapping memory durMapping = _getDuration(period) */\n      swap1\n      pop\n        /* \"contracts/MyToken.sol\":2210:2221  uint256 dur */\n      0x00\n        /* \"contracts/MyToken.sol\":2222:2232  durMapping */\n      dup2\n        /* \"contracts/MyToken.sol\":2222:2237  durMapping.time */\n      0x20\n      add\n      mload\n        /* \"contracts/MyToken.sol\":2210:2237  uint256 dur=durMapping.time */\n      swap1\n      pop\n        /* \"contracts/MyToken.sol\":2247:2265  uint256 periodDays */\n      0x00\n        /* \"contracts/MyToken.sol\":2266:2276  durMapping */\n      dup3\n        /* \"contracts/MyToken.sol\":2266:2287  durMapping.periodDays */\n      0x00\n      add\n      mload\n        /* \"contracts/MyToken.sol\":2247:2287  uint256 periodDays=durMapping.periodDays */\n      swap1\n      pop\n        /* \"contracts/MyToken.sol\":2297:2311  uint256 startT */\n      0x00\n        /* \"contracts/MyToken.sol\":2312:2327  block.timestamp */\n      timestamp\n        /* \"contracts/MyToken.sol\":2297:2327  uint256 startT=block.timestamp */\n      swap1\n      pop\n        /* \"contracts/MyToken.sol\":2337:2349  uint256 endT */\n      0x00\n        /* \"contracts/MyToken.sol\":2360:2363  dur */\n      dup4\n        /* \"contracts/MyToken.sol\":2351:2357  startT */\n      dup3\n        /* \"contracts/MyToken.sol\":2351:2363  startT + dur */\n      tag_122\n      swap2\n      swap1\n      tag_123\n      jump\t// in\n    tag_122:\n        /* \"contracts/MyToken.sol\":2337:2363  uint256 endT= startT + dur */\n      swap1\n      pop\n        /* \"contracts/MyToken.sol\":2373:2386  uint256 index */\n      0x00\n        /* \"contracts/MyToken.sol\":2388:2399  nextStakeId */\n      0x08\n        /* \"contracts/MyToken.sol\":2388:2411  nextStakeId[msg.sender] */\n      0x00\n        /* \"contracts/MyToken.sol\":2400:2410  msg.sender */\n      caller\n        /* \"contracts/MyToken.sol\":2388:2411  nextStakeId[msg.sender] */\n      0xffffffffffffffffffffffffffffffffffffffff\n      and\n      0xffffffffffffffffffffffffffffffffffffffff\n      and\n      dup2\n      mstore\n      0x20\n      add\n      swap1\n      dup2\n      mstore\n      0x20\n      add\n      0x00\n      keccak256\n      0x00\n        /* \"contracts/MyToken.sol\":2388:2413  nextStakeId[msg.sender]++ */\n      dup2\n      sload\n      dup1\n      swap3\n      swap2\n      swap1\n      tag_124\n      swap1\n      tag_125\n      jump\t// in\n    tag_124:\n      swap2\n      swap1\n      pop\n      sstore\n        /* \"contracts/MyToken.sol\":2373:2413  uint256 index =nextStakeId[msg.sender]++ */\n      swap1\n      pop\n        /* \"contracts/MyToken.sol\":2436:2446  msg.sender */\n      caller\n        /* \"contracts/MyToken.sol\":2429:2475  Staked(msg.sender, amount, period, endT,index) */\n      0xffffffffffffffffffffffffffffffffffffffff\n      and\n      0x022dd619ee0d92140e5abde105761d6df71c05c4fcb761610ea0552064f91e6c\n        /* \"contracts/MyToken.sol\":2448:2454  amount */\n      dup11\n        /* \"contracts/MyToken.sol\":2456:2462  period */\n      dup11\n        /* \"contracts/MyToken.sol\":2464:2468  endT */\n      dup6\n        /* \"contracts/MyToken.sol\":2469:2474  index */\n      dup6\n        /* \"contracts/MyToken.sol\":2429:2475  Staked(msg.sender, amount, period, endT,index) */\n      mload(0x40)\n      tag_126\n      swap5\n      swap4\n      swap3\n      swap2\n      swap1\n      tag_127\n      jump\t// in\n    tag_126:\n      mload(0x40)\n      dup1\n      swap2\n      sub\n      swap1\n      log2\n        /* \"contracts/MyToken.sol\":2516:2804  Stake({... */\n      mload(0x40)\n      dup1\n      0xa0\n      add\n      0x40\n      mstore\n      dup1\n        /* \"contracts/MyToken.sol\":2543:2549  amount */\n      dup11\n        /* \"contracts/MyToken.sol\":2516:2804  Stake({... */\n      dup2\n      mstore\n      0x20\n      add\n        /* \"contracts/MyToken.sol\":2573:2579  startT */\n      dup5\n        /* \"contracts/MyToken.sol\":2516:2804  Stake({... */\n      dup2\n      mstore\n      0x20\n      add\n        /* \"contracts/MyToken.sol\":2601:2605  endT */\n      dup4\n        /* \"contracts/MyToken.sol\":2516:2804  Stake({... */\n      dup2\n      mstore\n      0x20\n      add\n        /* \"contracts/MyToken.sol\":2690:2693  360 */\n      0x0168\n        /* \"contracts/MyToken.sol\":2683:2689  10**18 */\n      0x0de0b6b3a7640000\n        /* \"contracts/MyToken.sol\":2672:2682  periodDays */\n      dup8\n        /* \"contracts/MyToken.sol\":2660:2663  apy */\n      0x06\n        /* \"contracts/MyToken.sol\":2660:2671  apy[period] */\n      0x00\n        /* \"contracts/MyToken.sol\":2664:2670  period */\n      dup15\n        /* \"contracts/MyToken.sol\":2660:2671  apy[period] */\n      0x03\n      dup2\n      gt\n      iszero\n      tag_128\n      jumpi\n      tag_129\n      tag_130\n      jump\t// in\n    tag_129:\n    tag_128:\n      0x03\n      dup2\n      gt\n      iszero\n      tag_131\n      jumpi\n      tag_132\n      tag_130\n      jump\t// in\n    tag_132:\n    tag_131:\n      dup2\n      mstore\n      0x20\n      add\n      swap1\n      dup2\n      mstore\n      0x20\n      add\n      0x00\n      keccak256\n      sload\n        /* \"contracts/MyToken.sol\":2660:2682  apy[period]*periodDays */\n      tag_133\n      swap2\n      swap1\n      tag_112\n      jump\t// in\n    tag_133:\n        /* \"contracts/MyToken.sol\":2660:2689  apy[period]*periodDays*10**18 */\n      tag_134\n      swap2\n      swap1\n      tag_112\n      jump\t// in\n    tag_134:\n        /* \"contracts/MyToken.sol\":2660:2693  apy[period]*periodDays*10**18/360 */\n      tag_135\n      swap2\n      swap1\n      tag_136\n      jump\t// in\n    tag_135:\n        /* \"contracts/MyToken.sol\":2516:2804  Stake({... */\n      dup2\n      mstore\n      0x20\n      add\n        /* \"contracts/MyToken.sol\":2757:2761  true */\n      0x01\n        /* \"contracts/MyToken.sol\":2516:2804  Stake({... */\n      iszero\n      iszero\n      dup2\n      mstore\n      pop\n        /* \"contracts/MyToken.sol\":2486:2496  userStakes */\n      0x07\n        /* \"contracts/MyToken.sol\":2486:2508  userStakes[msg.sender] */\n      0x00\n        /* \"contracts/MyToken.sol\":2497:2507  msg.sender */\n      caller\n        /* \"contracts/MyToken.sol\":2486:2508  userStakes[msg.sender] */\n      0xffffffffffffffffffffffffffffffffffffffff\n      and\n      0xffffffffffffffffffffffffffffffffffffffff\n      and\n      dup2\n      mstore\n      0x20\n      add\n      swap1\n      dup2\n      mstore\n      0x20\n      add\n      0x00\n      keccak256\n        /* \"contracts/MyToken.sol\":2486:2515  userStakes[msg.sender][index] */\n      0x00\n        /* \"contracts/MyToken.sol\":2509:2514  index */\n      dup4\n        /* \"contracts/MyToken.sol\":2486:2515  userStakes[msg.sender][index] */\n      dup2\n      mstore\n      0x20\n      add\n      swap1\n      dup2\n      mstore\n      0x20\n      add\n      0x00\n      keccak256\n        /* \"contracts/MyToken.sol\":2486:2804  userStakes[msg.sender][index]=Stake({... */\n      0x00\n      dup3\n      add\n      mload\n      dup2\n      0x00\n      add\n      sstore\n      0x20\n      dup3\n      add\n      mload\n      dup2\n      0x01\n      add\n      sstore\n      0x40\n      dup3\n      add\n      mload\n      dup2\n      0x02\n      add\n      sstore\n      0x60\n      dup3\n      add\n      mload\n      dup2\n      0x03\n      add\n      sstore\n      0x80\n      dup3\n      add\n      mload\n      dup2\n      0x04\n      add\n      exp(0x0100, 0x00)\n      dup2\n      sload\n      dup2\n      0xff\n      mul\n      not\n      and\n      swap1\n      dup4\n      iszero\n      iszero\n      mul\n      or\n      swap1\n      sstore\n      pop\n      swap1\n      pop\n      pop\n        /* \"contracts/MyToken.sol\":1965:2811  {... */\n      pop\n      pop\n      pop\n      pop\n      pop\n      pop\n      pop\n        /* \"contracts/MyToken.sol\":1903:2811  function stake(uint256 amount, StakingPeriod period) external {... */\n      pop\n      pop\n      jump\t// out\n        /* \"@openzeppelin/contracts/token/ERC20/ERC20.sol\":2803:2900  function totalSupply() public view virtual returns (uint256) {... */\n    tag_39:\n        /* \"@openzeppelin/contracts/token/ERC20/ERC20.sol\":2855:2862  uint256 */\n      0x00\n        /* \"@openzeppelin/contracts/token/ERC20/ERC20.sol\":2881:2893  _totalSupply */\n      sload(0x02)\n        /* \"@openzeppelin/contracts/token/ERC20/ERC20.sol\":2874:2893  return _totalSupply */\n      swap1\n      pop\n        /* \"@openzeppelin/contracts/token/ERC20/ERC20.sol\":2803:2900  function totalSupply() public view virtual returns (uint256) {... */\n      swap1\n      jump\t// out\n        /* \"contracts/MyToken.sol\":719:763  mapping(StakingPeriod => uint256) public apy */\n    tag_45:\n      mstore(0x20, 0x06)\n      dup1\n      0x00\n      mstore\n      keccak256(0x00, 0x40)\n      0x00\n      swap2\n      pop\n      swap1\n      pop\n      sload\n      dup2\n      jump\t// out\n        /* \"@openzeppelin/contracts/token/ERC20/ERC20.sol\":4680:4924  function transferFrom(address from, address to, uint256 value) public virtual returns (bool) {... */\n    tag_50:\n        /* \"@openzeppelin/contracts/token/ERC20/ERC20.sol\":4767:4771  bool */\n      0x00\n        /* \"@openzeppelin/contracts/token/ERC20/ERC20.sol\":4783:4798  address spender */\n      0x00\n        /* \"@openzeppelin/contracts/token/ERC20/ERC20.sol\":4801:4813  _msgSender() */\n      tag_139\n        /* \"@openzeppelin/contracts/token/ERC20/ERC20.sol\":4801:4811  _msgSender */\n      tag_107\n        /* \"@openzeppelin/contracts/token/ERC20/ERC20.sol\":4801:4813  _msgSender() */\n      jump\t// in\n    tag_139:\n        /* \"@openzeppelin/contracts/token/ERC20/ERC20.sol\":4783:4813  address spender = _msgSender() */\n      swap1\n      pop\n        /* \"@openzeppelin/contracts/token/ERC20/ERC20.sol\":4823:4860  _spendAllowance(from, spender, value) */\n      tag_140\n        /* \"@openzeppelin/contracts/token/ERC20/ERC20.sol\":4839:4843  from */\n      dup6\n        /* \"@openzeppelin/contracts/token/ERC20/ERC20.sol\":4845:4852  spender */\n      dup3\n        /* \"@openzeppelin/contracts/token/ERC20/ERC20.sol\":4854:4859  value */\n      dup6\n        /* \"@openzeppelin/contracts/token/ERC20/ERC20.sol\":4823:4838  _spendAllowance */\n      tag_141\n        /* \"@openzeppelin/contracts/token/ERC20/ERC20.sol\":4823:4860  _spendAllowance(from, spender, value) */\n      jump\t// in\n    tag_140:\n        /* \"@openzeppelin/contracts/token/ERC20/ERC20.sol\":4870:4896  _transfer(from, to, value) */\n      tag_142\n        /* \"@openzeppelin/contracts/token/ERC20/ERC20.sol\":4880:4884  from */\n      dup6\n        /* \"@openzeppelin/contracts/token/ERC20/ERC20.sol\":4886:4888  to */\n      dup6\n        /* \"@openzeppelin/contracts/token/ERC20/ERC20.sol\":4890:4895  value */\n      dup6\n        /* \"@openzeppelin/contracts/token/ERC20/ERC20.sol\":4870:4879  _transfer */\n      tag_143\n        /* \"@openzeppelin/contracts/token/ERC20/ERC20.sol\":4870:4896  _transfer(from, to, value) */\n      jump\t// in\n    tag_142:\n        /* \"@openzeppelin/contracts/token/ERC20/ERC20.sol\":4913:4917  true */\n      0x01\n        /* \"@openzeppelin/contracts/token/ERC20/ERC20.sol\":4906:4917  return true */\n      swap2\n      pop\n      pop\n        /* \"@openzeppelin/contracts/token/ERC20/ERC20.sol\":4680:4924  function transferFrom(address from, address to, uint256 value) public virtual returns (bool) {... */\n      swap4\n      swap3\n      pop\n      pop\n      pop\n      jump\t// out\n        /* \"contracts/MyToken.sol\":3754:4208  function withdraw(uint256 stakeIndex) external {... */\n    tag_55:\n        /* \"contracts/MyToken.sol\":3811:3826  Stake storage s */\n      0x00\n        /* \"contracts/MyToken.sol\":3829:3839  userStakes */\n      0x07\n        /* \"contracts/MyToken.sol\":3829:3851  userStakes[msg.sender] */\n      0x00\n        /* \"contracts/MyToken.sol\":3840:3850  msg.sender */\n      caller\n        /* \"contracts/MyToken.sol\":3829:3851  userStakes[msg.sender] */\n      0xffffffffffffffffffffffffffffffffffffffff\n      and\n      0xffffffffffffffffffffffffffffffffffffffff\n      and\n      dup2\n      mstore\n      0x20\n      add\n      swap1\n      dup2\n      mstore\n      0x20\n      add\n      0x00\n      keccak256\n        /* \"contracts/MyToken.sol\":3829:3863  userStakes[msg.sender][stakeIndex] */\n      0x00\n        /* \"contracts/MyToken.sol\":3852:3862  stakeIndex */\n      dup4\n        /* \"contracts/MyToken.sol\":3829:3863  userStakes[msg.sender][stakeIndex] */\n      dup2\n      mstore\n      0x20\n      add\n      swap1\n      dup2\n      mstore\n      0x20\n      add\n      0x00\n      keccak256\n        /* \"contracts/MyToken.sol\":3811:3863  Stake storage s = userStakes[msg.sender][stakeIndex] */\n      swap1\n      pop\n        /* \"contracts/MyToken.sol\":3881:3882  s */\n      dup1\n        /* \"contracts/MyToken.sol\":3881:3891  s.isActive */\n      0x04\n      add\n      0x00\n      swap1\n      sload\n      swap1\n      0x0100\n      exp\n      swap1\n      div\n      0xff\n      and\n        /* \"contracts/MyToken.sol\":3873:3936  require(s.isActive, \"Stake is not active or already withdrawn\") */\n      tag_145\n      jumpi\n      mload(0x40)\n      0x08c379a000000000000000000000000000000000000000000000000000000000\n      dup2\n      mstore\n      0x04\n      add\n      tag_146\n      swap1\n      tag_147\n      jump\t// in\n    tag_146:\n      mload(0x40)\n      dup1\n      swap2\n      sub\n      swap1\n      revert\n    tag_145:\n        /* \"contracts/MyToken.sol\":3973:3974  s */\n      dup1\n        /* \"contracts/MyToken.sol\":3973:3982  s.endTime */\n      0x02\n      add\n      sload\n        /* \"contracts/MyToken.sol\":3954:3969  block.timestamp */\n      timestamp\n        /* \"contracts/MyToken.sol\":3954:3982  block.timestamp >= s.endTime */\n      lt\n      iszero\n        /* \"contracts/MyToken.sol\":3946:4012  require(block.timestamp >= s.endTime, \"Stake period is not ended\") */\n      tag_148\n      jumpi\n      mload(0x40)\n      0x08c379a000000000000000000000000000000000000000000000000000000000\n      dup2\n      mstore\n      0x04\n      add\n      tag_149\n      swap1\n      tag_150\n      jump\t// in\n    tag_149:\n      mload(0x40)\n      dup1\n      swap2\n      sub\n      swap1\n      revert\n    tag_148:\n        /* \"contracts/MyToken.sol\":4022:4036  uint256 reward */\n      0x00\n        /* \"contracts/MyToken.sol\":4063:4070  10** 18 */\n      0x0de0b6b3a7640000\n        /* \"contracts/MyToken.sol\":4059:4062  100 */\n      0x64\n        /* \"contracts/MyToken.sol\":4046:4047  s */\n      dup4\n        /* \"contracts/MyToken.sol\":4046:4058  s.rewardRate */\n      0x03\n      add\n      sload\n        /* \"contracts/MyToken.sol\":4037:4038  s */\n      dup5\n        /* \"contracts/MyToken.sol\":4037:4045  s.amount */\n      0x00\n      add\n      sload\n        /* \"contracts/MyToken.sol\":4037:4058  s.amount*s.rewardRate */\n      tag_151\n      swap2\n      swap1\n      tag_112\n      jump\t// in\n    tag_151:\n        /* \"contracts/MyToken.sol\":4037:4062  s.amount*s.rewardRate/100 */\n      tag_152\n      swap2\n      swap1\n      tag_136\n      jump\t// in\n    tag_152:\n        /* \"contracts/MyToken.sol\":4037:4070  s.amount*s.rewardRate/100/10** 18 */\n      tag_153\n      swap2\n      swap1\n      tag_136\n      jump\t// in\n    tag_153:\n        /* \"contracts/MyToken.sol\":4022:4070  uint256 reward=s.amount*s.rewardRate/100/10** 18 */\n      swap1\n      pop\n        /* \"contracts/MyToken.sol\":4080:4099  uint256 totalAmount */\n      0x00\n        /* \"contracts/MyToken.sol\":4109:4115  reward */\n      dup2\n        /* \"contracts/MyToken.sol\":4100:4101  s */\n      dup4\n        /* \"contracts/MyToken.sol\":4100:4108  s.amount */\n      0x00\n      add\n      sload\n        /* \"contracts/MyToken.sol\":4100:4115  s.amount+reward */\n      tag_154\n      swap2\n      swap1\n      tag_123\n      jump\t// in\n    tag_154:\n        /* \"contracts/MyToken.sol\":4080:4115  uint256 totalAmount=s.amount+reward */\n      swap1\n      pop\n        /* \"contracts/MyToken.sol\":4136:4141  false */\n      0x00\n        /* \"contracts/MyToken.sol\":4125:4126  s */\n      dup4\n        /* \"contracts/MyToken.sol\":4125:4135  s.isActive */\n      0x04\n      add\n      0x00\n        /* \"contracts/MyToken.sol\":4125:4141  s.isActive=false */\n      0x0100\n      exp\n      dup2\n      sload\n      dup2\n      0xff\n      mul\n      not\n      and\n      swap1\n      dup4\n      iszero\n      iszero\n      mul\n      or\n      swap1\n      sstore\n      pop\n        /* \"contracts/MyToken.sol\":4167:4177  msg.sender */\n      caller\n        /* \"contracts/MyToken.sol\":4157:4201  Withdrawn(msg.sender,totalAmount,stakeIndex) */\n      0xffffffffffffffffffffffffffffffffffffffff\n      and\n      0x92ccf450a286a957af52509bc1c9939d1a6a481783e142e41e2499f0bb66ebc6\n        /* \"contracts/MyToken.sol\":4178:4189  totalAmount */\n      dup3\n        /* \"contracts/MyToken.sol\":4190:4200  stakeIndex */\n      dup7\n        /* \"contracts/MyToken.sol\":4157:4201  Withdrawn(msg.sender,totalAmount,stakeIndex) */\n      mload(0x40)\n      tag_155\n      swap3\n      swap2\n      swap1\n      tag_156\n      jump\t// in\n    tag_155:\n      mload(0x40)\n      dup1\n      swap2\n      sub\n      swap1\n      log2\n        /* \"contracts/MyToken.sol\":3801:4208  {... */\n      pop\n      pop\n      pop\n        /* \"contracts/MyToken.sol\":3754:4208  function withdraw(uint256 stakeIndex) external {... */\n      pop\n      jump\t// out\n        /* \"@openzeppelin/contracts/token/ERC20/ERC20.sol\":2688:2770  function decimals() public view virtual returns (uint8) {... */\n    tag_57:\n        /* \"@openzeppelin/contracts/token/ERC20/ERC20.sol\":2737:2742  uint8 */\n      0x00\n        /* \"@openzeppelin/contracts/token/ERC20/ERC20.sol\":2761:2763  18 */\n      0x12\n        /* \"@openzeppelin/contracts/token/ERC20/ERC20.sol\":2754:2763  return 18 */\n      swap1\n      pop\n        /* \"@openzeppelin/contracts/token/ERC20/ERC20.sol\":2688:2770  function decimals() public view virtual returns (uint8) {... */\n      swap1\n      jump\t// out\n        /* \"contracts/MyToken.sol\":1804:1897  function mint(address to, uint256 amount) public onlyOwner {... */\n    tag_62:\n        /* \"@openzeppelin/contracts/access/Ownable.sol\":1531:1544  _checkOwner() */\n      tag_159\n        /* \"@openzeppelin/contracts/access/Ownable.sol\":1531:1542  _checkOwner */\n      tag_160\n        /* \"@openzeppelin/contracts/access/Ownable.sol\":1531:1544  _checkOwner() */\n      jump\t// in\n    tag_159:\n        /* \"contracts/MyToken.sol\":1873:1890  _mint(to, amount) */\n      tag_162\n        /* \"contracts/MyToken.sol\":1879:1881  to */\n      dup3\n        /* \"contracts/MyToken.sol\":1883:1889  amount */\n      dup3\n        /* \"contracts/MyToken.sol\":1873:1878  _mint */\n      tag_163\n        /* \"contracts/MyToken.sol\":1873:1890  _mint(to, amount) */\n      jump\t// in\n    tag_162:\n        /* \"contracts/MyToken.sol\":1804:1897  function mint(address to, uint256 amount) public onlyOwner {... */\n      pop\n      pop\n      jump\t// out\n        /* \"@openzeppelin/contracts/token/ERC20/ERC20.sol\":2933:3049  function balanceOf(address account) public view virtual returns (uint256) {... */\n    tag_66:\n        /* \"@openzeppelin/contracts/token/ERC20/ERC20.sol\":2998:3005  uint256 */\n      0x00\n        /* \"@openzeppelin/contracts/token/ERC20/ERC20.sol\":3024:3033  _balances */\n      0x00\n        /* \"@openzeppelin/contracts/token/ERC20/ERC20.sol\":3024:3042  _balances[account] */\n      0x00\n        /* \"@openzeppelin/contracts/token/ERC20/ERC20.sol\":3034:3041  account */\n      dup4\n        /* \"@openzeppelin/contracts/token/ERC20/ERC20.sol\":3024:3042  _balances[account] */\n      0xffffffffffffffffffffffffffffffffffffffff\n      and\n      0xffffffffffffffffffffffffffffffffffffffff\n      and\n      dup2\n      mstore\n      0x20\n      add\n      swap1\n      dup2\n      mstore\n      0x20\n      add\n      0x00\n      keccak256\n      sload\n        /* \"@openzeppelin/contracts/token/ERC20/ERC20.sol\":3017:3042  return _balances[account] */\n      swap1\n      pop\n        /* \"@openzeppelin/contracts/token/ERC20/ERC20.sol\":2933:3049  function balanceOf(address account) public view virtual returns (uint256) {... */\n      swap2\n      swap1\n      pop\n      jump\t// out\n        /* \"@openzeppelin/contracts/access/Ownable.sol\":2293:2394  function renounceOwnership() public virtual onlyOwner {... */\n    tag_69:\n        /* \"@openzeppelin/contracts/access/Ownable.sol\":1531:1544  _checkOwner() */\n      tag_166\n        /* \"@openzeppelin/contracts/access/Ownable.sol\":1531:1542  _checkOwner */\n      tag_160\n        /* \"@openzeppelin/contracts/access/Ownable.sol\":1531:1544  _checkOwner() */\n      jump\t// in\n    tag_166:\n        /* \"@openzeppelin/contracts/access/Ownable.sol\":2357:2387  _transferOwnership(address(0)) */\n      tag_168\n        /* \"@openzeppelin/contracts/access/Ownable.sol\":2384:2385  0 */\n      0x00\n        /* \"@openzeppelin/contracts/access/Ownable.sol\":2357:2375  _transferOwnership */\n      tag_169\n        /* \"@openzeppelin/contracts/access/Ownable.sol\":2357:2387  _transferOwnership(address(0)) */\n      jump\t// in\n    tag_168:\n        /* \"@openzeppelin/contracts/access/Ownable.sol\":2293:2394  function renounceOwnership() public virtual onlyOwner {... */\n      jump\t// out\n        /* \"contracts/MyToken.sol\":918:964  mapping(address => uint256) public nextStakeId */\n    tag_72:\n      mstore(0x20, 0x08)\n      dup1\n      0x00\n      mstore\n      keccak256(0x00, 0x40)\n      0x00\n      swap2\n      pop\n      swap1\n      pop\n      sload\n      dup2\n      jump\t// out\n        /* \"@openzeppelin/contracts/access/Ownable.sol\":1638:1723  function owner() public view virtual returns (address) {... */\n    tag_75:\n        /* \"@openzeppelin/contracts/access/Ownable.sol\":1684:1691  address */\n      0x00\n        /* \"@openzeppelin/contracts/access/Ownable.sol\":1710:1716  _owner */\n      0x05\n      0x00\n      swap1\n      sload\n      swap1\n      0x0100\n      exp\n      swap1\n      div\n      0xffffffffffffffffffffffffffffffffffffffff\n      and\n        /* \"@openzeppelin/contracts/access/Ownable.sol\":1703:1716  return _owner */\n      swap1\n      pop\n        /* \"@openzeppelin/contracts/access/Ownable.sol\":1638:1723  function owner() public view virtual returns (address) {... */\n      swap1\n      jump\t// out\n        /* \"@openzeppelin/contracts/token/ERC20/ERC20.sol\":1962:2055  function symbol() public view virtual returns (string memory) {... */\n    tag_79:\n        /* \"@openzeppelin/contracts/token/ERC20/ERC20.sol\":2009:2022  string memory */\n      0x60\n        /* \"@openzeppelin/contracts/token/ERC20/ERC20.sol\":2041:2048  _symbol */\n      0x04\n        /* \"@openzeppelin/contracts/token/ERC20/ERC20.sol\":2034:2048  return _symbol */\n      dup1\n      sload\n      tag_172\n      swap1\n      tag_100\n      jump\t// in\n    tag_172:\n      dup1\n      0x1f\n      add\n      0x20\n      dup1\n      swap2\n      div\n      mul\n      0x20\n      add\n      mload(0x40)\n      swap1\n      dup2\n      add\n      0x40\n      mstore\n      dup1\n      swap3\n      swap2\n      swap1\n      dup2\n      dup2\n      mstore\n      0x20\n      add\n      dup3\n      dup1\n      sload\n      tag_173\n      swap1\n      tag_100\n      jump\t// in\n    tag_173:\n      dup1\n      iszero\n      tag_174\n      jumpi\n      dup1\n      0x1f\n      lt\n      tag_175\n      jumpi\n      0x0100\n      dup1\n      dup4\n      sload\n      div\n      mul\n      dup4\n      mstore\n      swap2\n      0x20\n      add\n      swap2\n      jump(tag_174)\n    tag_175:\n      dup3\n      add\n      swap2\n      swap1\n      0x00\n      mstore\n      keccak256(0x00, 0x20)\n      swap1\n    tag_176:\n      dup2\n      sload\n      dup2\n      mstore\n      swap1\n      0x01\n      add\n      swap1\n      0x20\n      add\n      dup1\n      dup4\n      gt\n      tag_176\n      jumpi\n      dup3\n      swap1\n      sub\n      0x1f\n      and\n      dup3\n      add\n      swap2\n    tag_174:\n      pop\n      pop\n      pop\n      pop\n      pop\n      swap1\n      pop\n        /* \"@openzeppelin/contracts/token/ERC20/ERC20.sol\":1962:2055  function symbol() public view virtual returns (string memory) {... */\n      swap1\n      jump\t// out\n        /* \"@openzeppelin/contracts/token/ERC20/ERC20.sol\":3244:3422  function transfer(address to, uint256 value) public virtual returns (bool) {... */\n    tag_83:\n        /* \"@openzeppelin/contracts/token/ERC20/ERC20.sol\":3313:3317  bool */\n      0x00\n        /* \"@openzeppelin/contracts/token/ERC20/ERC20.sol\":3329:3342  address owner */\n      0x00\n        /* \"@openzeppelin/contracts/token/ERC20/ERC20.sol\":3345:3357  _msgSender() */\n      tag_178\n        /* \"@openzeppelin/contracts/token/ERC20/ERC20.sol\":3345:3355  _msgSender */\n      tag_107\n        /* \"@openzeppelin/contracts/token/ERC20/ERC20.sol\":3345:3357  _msgSender() */\n      jump\t// in\n    tag_178:\n        /* \"@openzeppelin/contracts/token/ERC20/ERC20.sol\":3329:3357  address owner = _msgSender() */\n      swap1\n      pop\n        /* \"@openzeppelin/contracts/token/ERC20/ERC20.sol\":3367:3394  _transfer(owner, to, value) */\n      tag_179\n        /* \"@openzeppelin/contracts/token/ERC20/ERC20.sol\":3377:3382  owner */\n      dup2\n        /* \"@openzeppelin/contracts/token/ERC20/ERC20.sol\":3384:3386  to */\n      dup6\n        /* \"@openzeppelin/contracts/token/ERC20/ERC20.sol\":3388:3393  value */\n      dup6\n        /* \"@openzeppelin/contracts/token/ERC20/ERC20.sol\":3367:3376  _transfer */\n      tag_143\n        /* \"@openzeppelin/contracts/token/ERC20/ERC20.sol\":3367:3394  _transfer(owner, to, value) */\n      jump\t// in\n    tag_179:\n        /* \"@openzeppelin/contracts/token/ERC20/ERC20.sol\":3411:3415  true */\n      0x01\n        /* \"@openzeppelin/contracts/token/ERC20/ERC20.sol\":3404:3415  return true */\n      swap2\n      pop\n      pop\n        /* \"@openzeppelin/contracts/token/ERC20/ERC20.sol\":3244:3422  function transfer(address to, uint256 value) public virtual returns (bool) {... */\n      swap3\n      swap2\n      pop\n      pop\n      jump\t// out\n        /* \"contracts/MyToken.sol\":820:881  mapping(address => mapping(uint256=>Stake)) public userStakes */\n    tag_87:\n      mstore(0x20, 0x07)\n      dup2\n      0x00\n      mstore\n      mstore(0x20, keccak256(0x00, 0x40))\n      dup1\n      0x00\n      mstore\n      keccak256(0x00, 0x40)\n      0x00\n      swap2\n      pop\n      swap2\n      pop\n      pop\n      dup1\n      0x00\n      add\n      sload\n      swap1\n      dup1\n      0x01\n      add\n      sload\n      swap1\n      dup1\n      0x02\n      add\n      sload\n      swap1\n      dup1\n      0x03\n      add\n      sload\n      swap1\n      dup1\n      0x04\n      add\n      0x00\n      swap1\n      sload\n      swap1\n      0x0100\n      exp\n      swap1\n      div\n      0xff\n      and\n      swap1\n      pop\n      dup6\n      jump\t// out\n        /* \"@openzeppelin/contracts/token/ERC20/ERC20.sol\":3455:3595  function allowance(address owner, address spender) public view virtual returns (uint256) {... */\n    tag_93:\n        /* \"@openzeppelin/contracts/token/ERC20/ERC20.sol\":3535:3542  uint256 */\n      0x00\n        /* \"@openzeppelin/contracts/token/ERC20/ERC20.sol\":3561:3572  _allowances */\n      0x01\n        /* \"@openzeppelin/contracts/token/ERC20/ERC20.sol\":3561:3579  _allowances[owner] */\n      0x00\n        /* \"@openzeppelin/contracts/token/ERC20/ERC20.sol\":3573:3578  owner */\n      dup5\n        /* \"@openzeppelin/contracts/token/ERC20/ERC20.sol\":3561:3579  _allowances[owner] */\n      0xffffffffffffffffffffffffffffffffffffffff\n      and\n      0xffffffffffffffffffffffffffffffffffffffff\n      and\n      dup2\n      mstore\n      0x20\n      add\n      swap1\n      dup2\n      mstore\n      0x20\n      add\n      0x00\n      keccak256\n        /* \"@openzeppelin/contracts/token/ERC20/ERC20.sol\":3561:3588  _allowances[owner][spender] */\n      0x00\n        /* \"@openzeppelin/contracts/token/ERC20/ERC20.sol\":3580:3587  spender */\n      dup4\n        /* \"@openzeppelin/contracts/token/ERC20/ERC20.sol\":3561:3588  _allowances[owner][spender] */\n      0xffffffffffffffffffffffffffffffffffffffff\n      and\n      0xffffffffffffffffffffffffffffffffffffffff\n      and\n      dup2\n      mstore\n      0x20\n      add\n      swap1\n      dup2\n      mstore\n      0x20\n      add\n      0x00\n      keccak256\n      sload\n        /* \"@openzeppelin/contracts/token/ERC20/ERC20.sol\":3554:3588  return _allowances[owner][spender] */\n      swap1\n      pop\n        /* \"@openzeppelin/contracts/token/ERC20/ERC20.sol\":3455:3595  function allowance(address owner, address spender) public view virtual returns (uint256) {... */\n      swap3\n      swap2\n      pop\n      pop\n      jump\t// out\n        /* \"@openzeppelin/contracts/access/Ownable.sol\":2543:2758  function transferOwnership(address newOwner) public virtual onlyOwner {... */\n    tag_97:\n        /* \"@openzeppelin/contracts/access/Ownable.sol\":1531:1544  _checkOwner() */\n      tag_182\n        /* \"@openzeppelin/contracts/access/Ownable.sol\":1531:1542  _checkOwner */\n      tag_160\n        /* \"@openzeppelin/contracts/access/Ownable.sol\":1531:1544  _checkOwner() */\n      jump\t// in\n    tag_182:\n        /* \"@openzeppelin/contracts/access/Ownable.sol\":2647:2648  0 */\n      0x00\n        /* \"@openzeppelin/contracts/access/Ownable.sol\":2627:2649  newOwner == address(0) */\n      0xffffffffffffffffffffffffffffffffffffffff\n      and\n        /* \"@openzeppelin/contracts/access/Ownable.sol\":2627:2635  newOwner */\n      dup2\n        /* \"@openzeppelin/contracts/access/Ownable.sol\":2627:2649  newOwner == address(0) */\n      0xffffffffffffffffffffffffffffffffffffffff\n      and\n      sub\n        /* \"@openzeppelin/contracts/access/Ownable.sol\":2623:2714  if (newOwner == address(0)) {... */\n      tag_184\n      jumpi\n        /* \"@openzeppelin/contracts/access/Ownable.sol\":2700:2701  0 */\n      0x00\n        /* \"@openzeppelin/contracts/access/Ownable.sol\":2672:2703  OwnableInvalidOwner(address(0)) */\n      mload(0x40)\n      0x1e4fbdf700000000000000000000000000000000000000000000000000000000\n      dup2\n      mstore\n      0x04\n      add\n      tag_185\n      swap2\n      swap1\n      tag_77\n      jump\t// in\n    tag_185:\n      mload(0x40)\n      dup1\n      swap2\n      sub\n      swap1\n      revert\n        /* \"@openzeppelin/contracts/access/Ownable.sol\":2623:2714  if (newOwner == address(0)) {... */\n    tag_184:\n        /* \"@openzeppelin/contracts/access/Ownable.sol\":2723:2751  _transferOwnership(newOwner) */\n      tag_186\n        /* \"@openzeppelin/contracts/access/Ownable.sol\":2742:2750  newOwner */\n      dup2\n        /* \"@openzeppelin/contracts/access/Ownable.sol\":2723:2741  _transferOwnership */\n      tag_169\n        /* \"@openzeppelin/contracts/access/Ownable.sol\":2723:2751  _transferOwnership(newOwner) */\n      jump\t// in\n    tag_186:\n        /* \"@openzeppelin/contracts/access/Ownable.sol\":2543:2758  function transferOwnership(address newOwner) public virtual onlyOwner {... */\n      pop\n      jump\t// out\n        /* \"@openzeppelin/contracts/utils/Context.sol\":656:752  function _msgSender() internal view virtual returns (address) {... */\n    tag_107:\n        /* \"@openzeppelin/contracts/utils/Context.sol\":709:716  address */\n      0x00\n        /* \"@openzeppelin/contracts/utils/Context.sol\":735:745  msg.sender */\n      caller\n        /* \"@openzeppelin/contracts/utils/Context.sol\":728:745  return msg.sender */\n      swap1\n      pop\n        /* \"@openzeppelin/contracts/utils/Context.sol\":656:752  function _msgSender() internal view virtual returns (address) {... */\n      swap1\n      jump\t// out\n        /* \"@openzeppelin/contracts/token/ERC20/ERC20.sol\":8630:8758  function _approve(address owner, address spender, uint256 value) internal {... */\n    tag_109:\n        /* \"@openzeppelin/contracts/token/ERC20/ERC20.sol\":8714:8751  _approve(owner, spender, value, true) */\n      tag_189\n        /* \"@openzeppelin/contracts/token/ERC20/ERC20.sol\":8723:8728  owner */\n      dup4\n        /* \"@openzeppelin/contracts/token/ERC20/ERC20.sol\":8730:8737  spender */\n      dup4\n        /* \"@openzeppelin/contracts/token/ERC20/ERC20.sol\":8739:8744  value */\n      dup4\n        /* \"@openzeppelin/contracts/token/ERC20/ERC20.sol\":8746:8750  true */\n      0x01\n        /* \"@openzeppelin/contracts/token/ERC20/ERC20.sol\":8714:8722  _approve */\n      tag_190\n        /* \"@openzeppelin/contracts/token/ERC20/ERC20.sol\":8714:8751  _approve(owner, spender, value, true) */\n      jump\t// in\n    tag_189:\n        /* \"@openzeppelin/contracts/token/ERC20/ERC20.sol\":8630:8758  function _approve(address owner, address spender, uint256 value) internal {... */\n      pop\n      pop\n      pop\n      jump\t// out\n        /* \"contracts/MyToken.sol\":2864:3748  function _getDuration(StakingPeriod period) internal pure returns (timeMapping memory) {... */\n    tag_121:\n        /* \"contracts/MyToken.sol\":2931:2949  timeMapping memory */\n      tag_191\n      tag_192\n      jump\t// in\n    tag_191:\n        /* \"contracts/MyToken.sol\":2973:2997  StakingPeriod.ThirtyDays */\n      0x00\n        /* \"contracts/MyToken.sol\":2965:2997  period==StakingPeriod.ThirtyDays */\n      0x03\n      dup2\n      gt\n      iszero\n      tag_194\n      jumpi\n      tag_195\n      tag_130\n      jump\t// in\n    tag_195:\n    tag_194:\n        /* \"contracts/MyToken.sol\":2965:2971  period */\n      dup3\n        /* \"contracts/MyToken.sol\":2965:2997  period==StakingPeriod.ThirtyDays */\n      0x03\n      dup2\n      gt\n      iszero\n      tag_196\n      jumpi\n      tag_197\n      tag_130\n      jump\t// in\n    tag_197:\n    tag_196:\n      sub\n        /* \"contracts/MyToken.sol\":2962:3741  if(period==StakingPeriod.ThirtyDays){... */\n      tag_198\n      jumpi\n        /* \"contracts/MyToken.sol\":3019:3109  timeMapping({... */\n      mload(0x40)\n      dup1\n      0x40\n      add\n      0x40\n      mstore\n      dup1\n        /* \"contracts/MyToken.sol\":3060:3062  30 */\n      0x1e\n        /* \"contracts/MyToken.sol\":3019:3109  timeMapping({... */\n      dup2\n      mstore\n      0x20\n      add\n        /* \"contracts/MyToken.sol\":3085:3094  1 minutes */\n      0x3c\n        /* \"contracts/MyToken.sol\":3019:3109  timeMapping({... */\n      dup2\n      mstore\n      pop\n        /* \"contracts/MyToken.sol\":3012:3109  return timeMapping({... */\n      swap1\n      pop\n      jump(tag_193)\n        /* \"contracts/MyToken.sol\":2962:3741  if(period==StakingPeriod.ThirtyDays){... */\n    tag_198:\n        /* \"contracts/MyToken.sol\":3136:3160  StakingPeriod.NinetyDays */\n      0x01\n        /* \"contracts/MyToken.sol\":3128:3160  period==StakingPeriod.NinetyDays */\n      0x03\n      dup2\n      gt\n      iszero\n      tag_200\n      jumpi\n      tag_201\n      tag_130\n      jump\t// in\n    tag_201:\n    tag_200:\n        /* \"contracts/MyToken.sol\":3128:3134  period */\n      dup3\n        /* \"contracts/MyToken.sol\":3128:3160  period==StakingPeriod.NinetyDays */\n      0x03\n      dup2\n      gt\n      iszero\n      tag_202\n      jumpi\n      tag_203\n      tag_130\n      jump\t// in\n    tag_203:\n    tag_202:\n      sub\n        /* \"contracts/MyToken.sol\":3125:3741  if(period==StakingPeriod.NinetyDays){... */\n      tag_204\n      jumpi\n        /* \"contracts/MyToken.sol\":3182:3272  timeMapping({... */\n      mload(0x40)\n      dup1\n      0x40\n      add\n      0x40\n      mstore\n      dup1\n        /* \"contracts/MyToken.sol\":3223:3225  90 */\n      0x5a\n        /* \"contracts/MyToken.sol\":3182:3272  timeMapping({... */\n      dup2\n      mstore\n      0x20\n      add\n        /* \"contracts/MyToken.sol\":3248:3257  3 minutes */\n      0xb4\n        /* \"contracts/MyToken.sol\":3182:3272  timeMapping({... */\n      dup2\n      mstore\n      pop\n        /* \"contracts/MyToken.sol\":3175:3272  return timeMapping({... */\n      swap1\n      pop\n      jump(tag_193)\n        /* \"contracts/MyToken.sol\":3125:3741  if(period==StakingPeriod.NinetyDays){... */\n    tag_204:\n        /* \"contracts/MyToken.sol\":3299:3330  StakingPeriod.HundredEightyDays */\n      0x02\n        /* \"contracts/MyToken.sol\":3291:3330  period==StakingPeriod.HundredEightyDays */\n      0x03\n      dup2\n      gt\n      iszero\n      tag_206\n      jumpi\n      tag_207\n      tag_130\n      jump\t// in\n    tag_207:\n    tag_206:\n        /* \"contracts/MyToken.sol\":3291:3297  period */\n      dup3\n        /* \"contracts/MyToken.sol\":3291:3330  period==StakingPeriod.HundredEightyDays */\n      0x03\n      dup2\n      gt\n      iszero\n      tag_208\n      jumpi\n      tag_209\n      tag_130\n      jump\t// in\n    tag_209:\n    tag_208:\n      sub\n        /* \"contracts/MyToken.sol\":3288:3741  if(period==StakingPeriod.HundredEightyDays){... */\n      tag_210\n      jumpi\n        /* \"contracts/MyToken.sol\":3352:3443  timeMapping({... */\n      mload(0x40)\n      dup1\n      0x40\n      add\n      0x40\n      mstore\n      dup1\n        /* \"contracts/MyToken.sol\":3393:3396  180 */\n      0xb4\n        /* \"contracts/MyToken.sol\":3352:3443  timeMapping({... */\n      dup2\n      mstore\n      0x20\n      add\n        /* \"contracts/MyToken.sol\":3419:3428  5 minutes */\n      0x012c\n        /* \"contracts/MyToken.sol\":3352:3443  timeMapping({... */\n      dup2\n      mstore\n      pop\n        /* \"contracts/MyToken.sol\":3345:3443  return timeMapping({... */\n      swap1\n      pop\n      jump(tag_193)\n        /* \"contracts/MyToken.sol\":3288:3741  if(period==StakingPeriod.HundredEightyDays){... */\n    tag_210:\n        /* \"contracts/MyToken.sol\":3470:3491  StakingPeriod.OneYear */\n      0x03\n        /* \"contracts/MyToken.sol\":3462:3491  period==StakingPeriod.OneYear */\n      dup1\n      dup2\n      gt\n      iszero\n      tag_212\n      jumpi\n      tag_213\n      tag_130\n      jump\t// in\n    tag_213:\n    tag_212:\n        /* \"contracts/MyToken.sol\":3462:3468  period */\n      dup3\n        /* \"contracts/MyToken.sol\":3462:3491  period==StakingPeriod.OneYear */\n      0x03\n      dup2\n      gt\n      iszero\n      tag_214\n      jumpi\n      tag_215\n      tag_130\n      jump\t// in\n    tag_215:\n    tag_214:\n      sub\n        /* \"contracts/MyToken.sol\":3459:3741  if(period==StakingPeriod.OneYear){... */\n      tag_216\n      jumpi\n        /* \"contracts/MyToken.sol\":3513:3605  timeMapping({... */\n      mload(0x40)\n      dup1\n      0x40\n      add\n      0x40\n      mstore\n      dup1\n        /* \"contracts/MyToken.sol\":3554:3557  360 */\n      0x0168\n        /* \"contracts/MyToken.sol\":3513:3605  timeMapping({... */\n      dup2\n      mstore\n      0x20\n      add\n        /* \"contracts/MyToken.sol\":3580:3590  10 minutes */\n      0x0258\n        /* \"contracts/MyToken.sol\":3513:3605  timeMapping({... */\n      dup2\n      mstore\n      pop\n        /* \"contracts/MyToken.sol\":3506:3605  return timeMapping({... */\n      swap1\n      pop\n      jump(tag_193)\n        /* \"contracts/MyToken.sol\":3459:3741  if(period==StakingPeriod.OneYear){... */\n    tag_216:\n        /* \"contracts/MyToken.sol\":3641:3730  timeMapping({... */\n      mload(0x40)\n      dup1\n      0x40\n      add\n      0x40\n      mstore\n      dup1\n        /* \"contracts/MyToken.sol\":3682:3685  360 */\n      0x0168\n        /* \"contracts/MyToken.sol\":3641:3730  timeMapping({... */\n      dup2\n      mstore\n      0x20\n      add\n        /* \"contracts/MyToken.sol\":3708:3715  1 hours */\n      0x0e10\n        /* \"contracts/MyToken.sol\":3641:3730  timeMapping({... */\n      dup2\n      mstore\n      pop\n        /* \"contracts/MyToken.sol\":3634:3730  return timeMapping({... */\n      swap1\n      pop\n        /* \"contracts/MyToken.sol\":2864:3748  function _getDuration(StakingPeriod period) internal pure returns (timeMapping memory) {... */\n    tag_193:\n      swap2\n      swap1\n      pop\n      jump\t// out\n        /* \"@openzeppelin/contracts/token/ERC20/ERC20.sol\":10319:10795  function _spendAllowance(address owner, address spender, uint256 value) internal virtual {... */\n    tag_141:\n        /* \"@openzeppelin/contracts/token/ERC20/ERC20.sol\":10418:10442  uint256 currentAllowance */\n      0x00\n        /* \"@openzeppelin/contracts/token/ERC20/ERC20.sol\":10445:10470  allowance(owner, spender) */\n      tag_219\n        /* \"@openzeppelin/contracts/token/ERC20/ERC20.sol\":10455:10460  owner */\n      dup5\n        /* \"@openzeppelin/contracts/token/ERC20/ERC20.sol\":10462:10469  spender */\n      dup5\n        /* \"@openzeppelin/contracts/token/ERC20/ERC20.sol\":10445:10454  allowance */\n      tag_93\n        /* \"@openzeppelin/contracts/token/ERC20/ERC20.sol\":10445:10470  allowance(owner, spender) */\n      jump\t// in\n    tag_219:\n        /* \"@openzeppelin/contracts/token/ERC20/ERC20.sol\":10418:10470  uint256 currentAllowance = allowance(owner, spender) */\n      swap1\n      pop\n        /* \"@openzeppelin/contracts/token/ERC20/ERC20.sol\":10503:10520  type(uint256).max */\n      0xffffffffffffffffffffffffffffffffffffffffffffffffffffffffffffffff\n        /* \"@openzeppelin/contracts/token/ERC20/ERC20.sol\":10484:10500  currentAllowance */\n      dup2\n        /* \"@openzeppelin/contracts/token/ERC20/ERC20.sol\":10484:10520  currentAllowance < type(uint256).max */\n      lt\n        /* \"@openzeppelin/contracts/token/ERC20/ERC20.sol\":10480:10789  if (currentAllowance < type(uint256).max) {... */\n      iszero\n      tag_220\n      jumpi\n        /* \"@openzeppelin/contracts/token/ERC20/ERC20.sol\":10559:10564  value */\n      dup2\n        /* \"@openzeppelin/contracts/token/ERC20/ERC20.sol\":10540:10556  currentAllowance */\n      dup2\n        /* \"@openzeppelin/contracts/token/ERC20/ERC20.sol\":10540:10564  currentAllowance < value */\n      lt\n        /* \"@openzeppelin/contracts/token/ERC20/ERC20.sol\":10536:10666  if (currentAllowance < value) {... */\n      iszero\n      tag_221\n      jumpi\n        /* \"@openzeppelin/contracts/token/ERC20/ERC20.sol\":10618:10625  spender */\n      dup3\n        /* \"@openzeppelin/contracts/token/ERC20/ERC20.sol\":10627:10643  currentAllowance */\n      dup2\n        /* \"@openzeppelin/contracts/token/ERC20/ERC20.sol\":10645:10650  value */\n      dup4\n        /* \"@openzeppelin/contracts/token/ERC20/ERC20.sol\":10591:10651  ERC20InsufficientAllowance(spender, currentAllowance, value) */\n      mload(0x40)\n      0xfb8f41b200000000000000000000000000000000000000000000000000000000\n      dup2\n      mstore\n      0x04\n      add\n      tag_222\n      swap4\n      swap3\n      swap2\n      swap1\n      tag_223\n      jump\t// in\n    tag_222:\n      mload(0x40)\n      dup1\n      swap2\n      sub\n      swap1\n      revert\n        /* \"@openzeppelin/contracts/token/ERC20/ERC20.sol\":10536:10666  if (currentAllowance < value) {... */\n    tag_221:\n        /* \"@openzeppelin/contracts/token/ERC20/ERC20.sol\":10707:10764  _approve(owner, spender, currentAllowance - value, false) */\n      tag_224\n        /* \"@openzeppelin/contracts/token/ERC20/ERC20.sol\":10716:10721  owner */\n      dup5\n        /* \"@openzeppelin/contracts/token/ERC20/ERC20.sol\":10723:10730  spender */\n      dup5\n        /* \"@openzeppelin/contracts/token/ERC20/ERC20.sol\":10751:10756  value */\n      dup5\n        /* \"@openzeppelin/contracts/token/ERC20/ERC20.sol\":10732:10748  currentAllowance */\n      dup5\n        /* \"@openzeppelin/contracts/token/ERC20/ERC20.sol\":10732:10756  currentAllowance - value */\n      sub\n        /* \"@openzeppelin/contracts/token/ERC20/ERC20.sol\":10758:10763  false */\n      0x00\n        /* \"@openzeppelin/contracts/token/ERC20/ERC20.sol\":10707:10715  _approve */\n      tag_190\n        /* \"@openzeppelin/contracts/token/ERC20/ERC20.sol\":10707:10764  _approve(owner, spender, currentAllowance - value, false) */\n      jump\t// in\n    tag_224:\n        /* \"@openzeppelin/contracts/token/ERC20/ERC20.sol\":10480:10789  if (currentAllowance < type(uint256).max) {... */\n    tag_220:\n        /* \"@openzeppelin/contracts/token/ERC20/ERC20.sol\":10408:10795  {... */\n      pop\n        /* \"@openzeppelin/contracts/token/ERC20/ERC20.sol\":10319:10795  function _spendAllowance(address owner, address spender, uint256 value) internal virtual {... */\n      pop\n      pop\n      pop\n      jump\t// out\n        /* \"@openzeppelin/contracts/token/ERC20/ERC20.sol\":5297:5597  function _transfer(address from, address to, uint256 value) internal {... */\n    tag_143:\n        /* \"@openzeppelin/contracts/token/ERC20/ERC20.sol\":5396:5397  0 */\n      0x00\n        /* \"@openzeppelin/contracts/token/ERC20/ERC20.sol\":5380:5398  from == address(0) */\n      0xffffffffffffffffffffffffffffffffffffffff\n      and\n        /* \"@openzeppelin/contracts/token/ERC20/ERC20.sol\":5380:5384  from */\n      dup4\n        /* \"@openzeppelin/contracts/token/ERC20/ERC20.sol\":5380:5398  from == address(0) */\n      0xffffffffffffffffffffffffffffffffffffffff\n      and\n      sub\n        /* \"@openzeppelin/contracts/token/ERC20/ERC20.sol\":5376:5462  if (from == address(0)) {... */\n      tag_226\n      jumpi\n        /* \"@openzeppelin/contracts/token/ERC20/ERC20.sol\":5448:5449  0 */\n      0x00\n        /* \"@openzeppelin/contracts/token/ERC20/ERC20.sol\":5421:5451  ERC20InvalidSender(address(0)) */\n      mload(0x40)\n      0x96c6fd1e00000000000000000000000000000000000000000000000000000000\n      dup2\n      mstore\n      0x04\n      add\n      tag_227\n      swap2\n      swap1\n      tag_77\n      jump\t// in\n    tag_227:\n      mload(0x40)\n      dup1\n      swap2\n      sub\n      swap1\n      revert\n        /* \"@openzeppelin/contracts/token/ERC20/ERC20.sol\":5376:5462  if (from == address(0)) {... */\n    tag_226:\n        /* \"@openzeppelin/contracts/token/ERC20/ERC20.sol\":5489:5490  0 */\n      0x00\n        /* \"@openzeppelin/contracts/token/ERC20/ERC20.sol\":5475:5491  to == address(0) */\n      0xffffffffffffffffffffffffffffffffffffffff\n      and\n        /* \"@openzeppelin/contracts/token/ERC20/ERC20.sol\":5475:5477  to */\n      dup3\n        /* \"@openzeppelin/contracts/token/ERC20/ERC20.sol\":5475:5491  to == address(0) */\n      0xffffffffffffffffffffffffffffffffffffffff\n      and\n      sub\n        /* \"@openzeppelin/contracts/token/ERC20/ERC20.sol\":5471:5557  if (to == address(0)) {... */\n      tag_228\n      jumpi\n        /* \"@openzeppelin/contracts/token/ERC20/ERC20.sol\":5543:5544  0 */\n      0x00\n        /* \"@openzeppelin/contracts/token/ERC20/ERC20.sol\":5514:5546  ERC20InvalidReceiver(address(0)) */\n      mload(0x40)\n      0xec442f0500000000000000000000000000000000000000000000000000000000\n      dup2\n      mstore\n      0x04\n      add\n      tag_229\n      swap2\n      swap1\n      tag_77\n      jump\t// in\n    tag_229:\n      mload(0x40)\n      dup1\n      swap2\n      sub\n      swap1\n      revert\n        /* \"@openzeppelin/contracts/token/ERC20/ERC20.sol\":5471:5557  if (to == address(0)) {... */\n    tag_228:\n        /* \"@openzeppelin/contracts/token/ERC20/ERC20.sol\":5566:5590  _update(from, to, value) */\n      tag_230\n        /* \"@openzeppelin/contracts/token/ERC20/ERC20.sol\":5574:5578  from */\n      dup4\n        /* \"@openzeppelin/contracts/token/ERC20/ERC20.sol\":5580:5582  to */\n      dup4\n        /* \"@openzeppelin/contracts/token/ERC20/ERC20.sol\":5584:5589  value */\n      dup4\n        /* \"@openzeppelin/contracts/token/ERC20/ERC20.sol\":5566:5573  _update */\n      tag_231\n        /* \"@openzeppelin/contracts/token/ERC20/ERC20.sol\":5566:5590  _update(from, to, value) */\n      jump\t// in\n    tag_230:\n        /* \"@openzeppelin/contracts/token/ERC20/ERC20.sol\":5297:5597  function _transfer(address from, address to, uint256 value) internal {... */\n      pop\n      pop\n      pop\n      jump\t// out\n        /* \"@openzeppelin/contracts/access/Ownable.sol\":1796:1958  function _checkOwner() internal view virtual {... */\n    tag_160:\n        /* \"@openzeppelin/contracts/access/Ownable.sol\":1866:1878  _msgSender() */\n      tag_233\n        /* \"@openzeppelin/contracts/access/Ownable.sol\":1866:1876  _msgSender */\n      tag_107\n        /* \"@openzeppelin/contracts/access/Ownable.sol\":1866:1878  _msgSender() */\n      jump\t// in\n    tag_233:\n        /* \"@openzeppelin/contracts/access/Ownable.sol\":1855:1878  owner() != _msgSender() */\n      0xffffffffffffffffffffffffffffffffffffffff\n      and\n        /* \"@openzeppelin/contracts/access/Ownable.sol\":1855:1862  owner() */\n      tag_234\n        /* \"@openzeppelin/contracts/access/Ownable.sol\":1855:1860  owner */\n      tag_75\n        /* \"@openzeppelin/contracts/access/Ownable.sol\":1855:1862  owner() */\n      jump\t// in\n    tag_234:\n        /* \"@openzeppelin/contracts/access/Ownable.sol\":1855:1878  owner() != _msgSender() */\n      0xffffffffffffffffffffffffffffffffffffffff\n      and\n      eq\n        /* \"@openzeppelin/contracts/access/Ownable.sol\":1851:1952  if (owner() != _msgSender()) {... */\n      tag_235\n      jumpi\n        /* \"@openzeppelin/contracts/access/Ownable.sol\":1928:1940  _msgSender() */\n      tag_236\n        /* \"@openzeppelin/contracts/access/Ownable.sol\":1928:1938  _msgSender */\n      tag_107\n        /* \"@openzeppelin/contracts/access/Ownable.sol\":1928:1940  _msgSender() */\n      jump\t// in\n    tag_236:\n        /* \"@openzeppelin/contracts/access/Ownable.sol\":1901:1941  OwnableUnauthorizedAccount(_msgSender()) */\n      mload(0x40)\n      0x118cdaa700000000000000000000000000000000000000000000000000000000\n      dup2\n      mstore\n      0x04\n      add\n      tag_237\n      swap2\n      swap1\n      tag_77\n      jump\t// in\n    tag_237:\n      mload(0x40)\n      dup1\n      swap2\n      sub\n      swap1\n      revert\n        /* \"@openzeppelin/contracts/access/Ownable.sol\":1851:1952  if (owner() != _msgSender()) {... */\n    tag_235:\n        /* \"@openzeppelin/contracts/access/Ownable.sol\":1796:1958  function _checkOwner() internal view virtual {... */\n      jump\t// out\n        /* \"@openzeppelin/contracts/token/ERC20/ERC20.sol\":7362:7570  function _mint(address account, uint256 value) internal {... */\n    tag_163:\n        /* \"@openzeppelin/contracts/token/ERC20/ERC20.sol\":7451:7452  0 */\n      0x00\n        /* \"@openzeppelin/contracts/token/ERC20/ERC20.sol\":7432:7453  account == address(0) */\n      0xffffffffffffffffffffffffffffffffffffffff\n      and\n        /* \"@openzeppelin/contracts/token/ERC20/ERC20.sol\":7432:7439  account */\n      dup3\n        /* \"@openzeppelin/contracts/token/ERC20/ERC20.sol\":7432:7453  account == address(0) */\n      0xffffffffffffffffffffffffffffffffffffffff\n      and\n      sub\n        /* \"@openzeppelin/contracts/token/ERC20/ERC20.sol\":7428:7519  if (account == address(0)) {... */\n      tag_239\n      jumpi\n        /* \"@openzeppelin/contracts/token/ERC20/ERC20.sol\":7505:7506  0 */\n      0x00\n        /* \"@openzeppelin/contracts/token/ERC20/ERC20.sol\":7476:7508  ERC20InvalidReceiver(address(0)) */\n      mload(0x40)\n      0xec442f0500000000000000000000000000000000000000000000000000000000\n      dup2\n      mstore\n      0x04\n      add\n      tag_240\n      swap2\n      swap1\n      tag_77\n      jump\t// in\n    tag_240:\n      mload(0x40)\n      dup1\n      swap2\n      sub\n      swap1\n      revert\n        /* \"@openzeppelin/contracts/token/ERC20/ERC20.sol\":7428:7519  if (account == address(0)) {... */\n    tag_239:\n        /* \"@openzeppelin/contracts/token/ERC20/ERC20.sol\":7528:7563  _update(address(0), account, value) */\n      tag_241\n        /* \"@openzeppelin/contracts/token/ERC20/ERC20.sol\":7544:7545  0 */\n      0x00\n        /* \"@openzeppelin/contracts/token/ERC20/ERC20.sol\":7548:7555  account */\n      dup4\n        /* \"@openzeppelin/contracts/token/ERC20/ERC20.sol\":7557:7562  value */\n      dup4\n        /* \"@openzeppelin/contracts/token/ERC20/ERC20.sol\":7528:7535  _update */\n      tag_231\n        /* \"@openzeppelin/contracts/token/ERC20/ERC20.sol\":7528:7563  _update(address(0), account, value) */\n      jump\t// in\n    tag_241:\n        /* \"@openzeppelin/contracts/token/ERC20/ERC20.sol\":7362:7570  function _mint(address account, uint256 value) internal {... */\n      pop\n      pop\n      jump\t// out\n        /* \"@openzeppelin/contracts/access/Ownable.sol\":2912:3099  function _transferOwnership(address newOwner) internal virtual {... */\n    tag_169:\n        /* \"@openzeppelin/contracts/access/Ownable.sol\":2985:3001  address oldOwner */\n      0x00\n        /* \"@openzeppelin/contracts/access/Ownable.sol\":3004:3010  _owner */\n      0x05\n      0x00\n      swap1\n      sload\n      swap1\n      0x0100\n      exp\n      swap1\n      div\n      0xffffffffffffffffffffffffffffffffffffffff\n      and\n        /* \"@openzeppelin/contracts/access/Ownable.sol\":2985:3010  address oldOwner = _owner */\n      swap1\n      pop\n        /* \"@openzeppelin/contracts/access/Ownable.sol\":3029:3037  newOwner */\n      dup2\n        /* \"@openzeppelin/contracts/access/Ownable.sol\":3020:3026  _owner */\n      0x05\n      0x00\n        /* \"@openzeppelin/contracts/access/Ownable.sol\":3020:3037  _owner = newOwner */\n      0x0100\n      exp\n      dup2\n      sload\n      dup2\n      0xffffffffffffffffffffffffffffffffffffffff\n      mul\n      not\n      and\n      swap1\n      dup4\n      0xffffffffffffffffffffffffffffffffffffffff\n      and\n      mul\n      or\n      swap1\n      sstore\n      pop\n        /* \"@openzeppelin/contracts/access/Ownable.sol\":3083:3091  newOwner */\n      dup2\n        /* \"@openzeppelin/contracts/access/Ownable.sol\":3052:3092  OwnershipTransferred(oldOwner, newOwner) */\n      0xffffffffffffffffffffffffffffffffffffffff\n      and\n        /* \"@openzeppelin/contracts/access/Ownable.sol\":3073:3081  oldOwner */\n      dup2\n        /* \"@openzeppelin/contracts/access/Ownable.sol\":3052:3092  OwnershipTransferred(oldOwner, newOwner) */\n      0xffffffffffffffffffffffffffffffffffffffff\n      and\n      0x8be0079c531659141344cd1fd0a4f28419497f9722a3daafe3b4186f6b6457e0\n      mload(0x40)\n      mload(0x40)\n      dup1\n      swap2\n      sub\n      swap1\n      log3\n        /* \"@openzeppelin/contracts/access/Ownable.sol\":2975:3099  {... */\n      pop\n        /* \"@openzeppelin/contracts/access/Ownable.sol\":2912:3099  function _transferOwnership(address newOwner) internal virtual {... */\n      pop\n      jump\t// out\n        /* \"@openzeppelin/contracts/token/ERC20/ERC20.sol\":9605:10037  function _approve(address owner, address spender, uint256 value, bool emitEvent) internal virtual {... */\n    tag_190:\n        /* \"@openzeppelin/contracts/token/ERC20/ERC20.sol\":9734:9735  0 */\n      0x00\n        /* \"@openzeppelin/contracts/token/ERC20/ERC20.sol\":9717:9736  owner == address(0) */\n      0xffffffffffffffffffffffffffffffffffffffff\n      and\n        /* \"@openzeppelin/contracts/token/ERC20/ERC20.sol\":9717:9722  owner */\n      dup5\n        /* \"@openzeppelin/contracts/token/ERC20/ERC20.sol\":9717:9736  owner == address(0) */\n      0xffffffffffffffffffffffffffffffffffffffff\n      and\n      sub\n        /* \"@openzeppelin/contracts/token/ERC20/ERC20.sol\":9713:9802  if (owner == address(0)) {... */\n      tag_244\n      jumpi\n        /* \"@openzeppelin/contracts/token/ERC20/ERC20.sol\":9788:9789  0 */\n      0x00\n        /* \"@openzeppelin/contracts/token/ERC20/ERC20.sol\":9759:9791  ERC20InvalidApprover(address(0)) */\n      mload(0x40)\n      0xe602df0500000000000000000000000000000000000000000000000000000000\n      dup2\n      mstore\n      0x04\n      add\n      tag_245\n      swap2\n      swap1\n      tag_77\n      jump\t// in\n    tag_245:\n      mload(0x40)\n      dup1\n      swap2\n      sub\n      swap1\n      revert\n        /* \"@openzeppelin/contracts/token/ERC20/ERC20.sol\":9713:9802  if (owner == address(0)) {... */\n    tag_244:\n        /* \"@openzeppelin/contracts/token/ERC20/ERC20.sol\":9834:9835  0 */\n      0x00\n        /* \"@openzeppelin/contracts/token/ERC20/ERC20.sol\":9815:9836  spender == address(0) */\n      0xffffffffffffffffffffffffffffffffffffffff\n      and\n        /* \"@openzeppelin/contracts/token/ERC20/ERC20.sol\":9815:9822  spender */\n      dup4\n        /* \"@openzeppelin/contracts/token/ERC20/ERC20.sol\":9815:9836  spender == address(0) */\n      0xffffffffffffffffffffffffffffffffffffffff\n      and\n      sub\n        /* \"@openzeppelin/contracts/token/ERC20/ERC20.sol\":9811:9901  if (spender == address(0)) {... */\n      tag_246\n      jumpi\n        /* \"@openzeppelin/contracts/token/ERC20/ERC20.sol\":9887:9888  0 */\n      0x00\n        /* \"@openzeppelin/contracts/token/ERC20/ERC20.sol\":9859:9890  ERC20InvalidSpender(address(0)) */\n      mload(0x40)\n      0x94280d6200000000000000000000000000000000000000000000000000000000\n      dup2\n      mstore\n      0x04\n      add\n      tag_247\n      swap2\n      swap1\n      tag_77\n      jump\t// in\n    tag_247:\n      mload(0x40)\n      dup1\n      swap2\n      sub\n      swap1\n      revert\n        /* \"@openzeppelin/contracts/token/ERC20/ERC20.sol\":9811:9901  if (spender == address(0)) {... */\n    tag_246:\n        /* \"@openzeppelin/contracts/token/ERC20/ERC20.sol\":9940:9945  value */\n      dup2\n        /* \"@openzeppelin/contracts/token/ERC20/ERC20.sol\":9910:9921  _allowances */\n      0x01\n        /* \"@openzeppelin/contracts/token/ERC20/ERC20.sol\":9910:9928  _allowances[owner] */\n      0x00\n        /* \"@openzeppelin/contracts/token/ERC20/ERC20.sol\":9922:9927  owner */\n      dup7\n        /* \"@openzeppelin/contracts/token/ERC20/ERC20.sol\":9910:9928  _allowances[owner] */\n      0xffffffffffffffffffffffffffffffffffffffff\n      and\n      0xffffffffffffffffffffffffffffffffffffffff\n      and\n      dup2\n      mstore\n      0x20\n      add\n      swap1\n      dup2\n      mstore\n      0x20\n      add\n      0x00\n      keccak256\n        /* \"@openzeppelin/contracts/token/ERC20/ERC20.sol\":9910:9937  _allowances[owner][spender] */\n      0x00\n        /* \"@openzeppelin/contracts/token/ERC20/ERC20.sol\":9929:9936  spender */\n      dup6\n        /* \"@openzeppelin/contracts/token/ERC20/ERC20.sol\":9910:9937  _allowances[owner][spender] */\n      0xffffffffffffffffffffffffffffffffffffffff\n      and\n      0xffffffffffffffffffffffffffffffffffffffff\n      and\n      dup2\n      mstore\n      0x20\n      add\n      swap1\n      dup2\n      mstore\n      0x20\n      add\n      0x00\n      keccak256\n        /* \"@openzeppelin/contracts/token/ERC20/ERC20.sol\":9910:9945  _allowances[owner][spender] = value */\n      dup2\n      swap1\n      sstore\n      pop\n        /* \"@openzeppelin/contracts/token/ERC20/ERC20.sol\":9959:9968  emitEvent */\n      dup1\n        /* \"@openzeppelin/contracts/token/ERC20/ERC20.sol\":9955:10031  if (emitEvent) {... */\n      iszero\n      tag_248\n      jumpi\n        /* \"@openzeppelin/contracts/token/ERC20/ERC20.sol\":10005:10012  spender */\n      dup3\n        /* \"@openzeppelin/contracts/token/ERC20/ERC20.sol\":9989:10020  Approval(owner, spender, value) */\n      0xffffffffffffffffffffffffffffffffffffffff\n      and\n        /* \"@openzeppelin/contracts/token/ERC20/ERC20.sol\":9998:10003  owner */\n      dup5\n        /* \"@openzeppelin/contracts/token/ERC20/ERC20.sol\":9989:10020  Approval(owner, spender, value) */\n      0xffffffffffffffffffffffffffffffffffffffff\n      and\n      0x8c5be1e5ebec7d5bd14f71427d1e84f3dd0314c0f7b2291e5b200ac8c7c3b925\n        /* \"@openzeppelin/contracts/token/ERC20/ERC20.sol\":10014:10019  value */\n      dup5\n        /* \"@openzeppelin/contracts/token/ERC20/ERC20.sol\":9989:10020  Approval(owner, spender, value) */\n      mload(0x40)\n      tag_249\n      swap2\n      swap1\n      tag_41\n      jump\t// in\n    tag_249:\n      mload(0x40)\n      dup1\n      swap2\n      sub\n      swap1\n      log3\n        /* \"@openzeppelin/contracts/token/ERC20/ERC20.sol\":9955:10031  if (emitEvent) {... */\n    tag_248:\n        /* \"@openzeppelin/contracts/token/ERC20/ERC20.sol\":9605:10037  function _approve(address owner, address spender, uint256 value, bool emitEvent) internal virtual {... */\n      pop\n      pop\n      pop\n      pop\n      jump\t// out\n        /* \"@openzeppelin/contracts/token/ERC20/ERC20.sol\":5912:7019  function _update(address from, address to, uint256 value) internal virtual {... */\n    tag_231:\n        /* \"@openzeppelin/contracts/token/ERC20/ERC20.sol\":6017:6018  0 */\n      0x00\n        /* \"@openzeppelin/contracts/token/ERC20/ERC20.sol\":6001:6019  from == address(0) */\n      0xffffffffffffffffffffffffffffffffffffffff\n      and\n        /* \"@openzeppelin/contracts/token/ERC20/ERC20.sol\":6001:6005  from */\n      dup4\n        /* \"@openzeppelin/contracts/token/ERC20/ERC20.sol\":6001:6019  from == address(0) */\n      0xffffffffffffffffffffffffffffffffffffffff\n      and\n      sub\n        /* \"@openzeppelin/contracts/token/ERC20/ERC20.sol\":5997:6537  if (from == address(0)) {... */\n      tag_251\n      jumpi\n        /* \"@openzeppelin/contracts/token/ERC20/ERC20.sol\":6153:6158  value */\n      dup1\n        /* \"@openzeppelin/contracts/token/ERC20/ERC20.sol\":6137:6149  _totalSupply */\n      0x02\n      0x00\n        /* \"@openzeppelin/contracts/token/ERC20/ERC20.sol\":6137:6158  _totalSupply += value */\n      dup3\n      dup3\n      sload\n      tag_252\n      swap2\n      swap1\n      tag_123\n      jump\t// in\n    tag_252:\n      swap3\n      pop\n      pop\n      dup2\n      swap1\n      sstore\n      pop\n        /* \"@openzeppelin/contracts/token/ERC20/ERC20.sol\":5997:6537  if (from == address(0)) {... */\n      jump(tag_253)\n    tag_251:\n        /* \"@openzeppelin/contracts/token/ERC20/ERC20.sol\":6189:6208  uint256 fromBalance */\n      0x00\n        /* \"@openzeppelin/contracts/token/ERC20/ERC20.sol\":6211:6220  _balances */\n      0x00\n        /* \"@openzeppelin/contracts/token/ERC20/ERC20.sol\":6211:6226  _balances[from] */\n      0x00\n        /* \"@openzeppelin/contracts/token/ERC20/ERC20.sol\":6221:6225  from */\n      dup6\n        /* \"@openzeppelin/contracts/token/ERC20/ERC20.sol\":6211:6226  _balances[from] */\n      0xffffffffffffffffffffffffffffffffffffffff\n      and\n      0xffffffffffffffffffffffffffffffffffffffff\n      and\n      dup2\n      mstore\n      0x20\n      add\n      swap1\n      dup2\n      mstore\n      0x20\n      add\n      0x00\n      keccak256\n      sload\n        /* \"@openzeppelin/contracts/token/ERC20/ERC20.sol\":6189:6226  uint256 fromBalance = _balances[from] */\n      swap1\n      pop\n        /* \"@openzeppelin/contracts/token/ERC20/ERC20.sol\":6258:6263  value */\n      dup2\n        /* \"@openzeppelin/contracts/token/ERC20/ERC20.sol\":6244:6255  fromBalance */\n      dup2\n        /* \"@openzeppelin/contracts/token/ERC20/ERC20.sol\":6244:6263  fromBalance < value */\n      lt\n        /* \"@openzeppelin/contracts/token/ERC20/ERC20.sol\":6240:6355  if (fromBalance < value) {... */\n      iszero\n      tag_254\n      jumpi\n        /* \"@openzeppelin/contracts/token/ERC20/ERC20.sol\":6315:6319  from */\n      dup4\n        /* \"@openzeppelin/contracts/token/ERC20/ERC20.sol\":6321:6332  fromBalance */\n      dup2\n        /* \"@openzeppelin/contracts/token/ERC20/ERC20.sol\":6334:6339  value */\n      dup4\n        /* \"@openzeppelin/contracts/token/ERC20/ERC20.sol\":6290:6340  ERC20InsufficientBalance(from, fromBalance, value) */\n      mload(0x40)\n      0xe450d38c00000000000000000000000000000000000000000000000000000000\n      dup2\n      mstore\n      0x04\n      add\n      tag_255\n      swap4\n      swap3\n      swap2\n      swap1\n      tag_223\n      jump\t// in\n    tag_255:\n      mload(0x40)\n      dup1\n      swap2\n      sub\n      swap1\n      revert\n        /* \"@openzeppelin/contracts/token/ERC20/ERC20.sol\":6240:6355  if (fromBalance < value) {... */\n    tag_254:\n        /* \"@openzeppelin/contracts/token/ERC20/ERC20.sol\":6507:6512  value */\n      dup2\n        /* \"@openzeppelin/contracts/token/ERC20/ERC20.sol\":6493:6504  fromBalance */\n      dup2\n        /* \"@openzeppelin/contracts/token/ERC20/ERC20.sol\":6493:6512  fromBalance - value */\n      sub\n        /* \"@openzeppelin/contracts/token/ERC20/ERC20.sol\":6475:6484  _balances */\n      0x00\n        /* \"@openzeppelin/contracts/token/ERC20/ERC20.sol\":6475:6490  _balances[from] */\n      0x00\n        /* \"@openzeppelin/contracts/token/ERC20/ERC20.sol\":6485:6489  from */\n      dup7\n        /* \"@openzeppelin/contracts/token/ERC20/ERC20.sol\":6475:6490  _balances[from] */\n      0xffffffffffffffffffffffffffffffffffffffff\n      and\n      0xffffffffffffffffffffffffffffffffffffffff\n      and\n      dup2\n      mstore\n      0x20\n      add\n      swap1\n      dup2\n      mstore\n      0x20\n      add\n      0x00\n      keccak256\n        /* \"@openzeppelin/contracts/token/ERC20/ERC20.sol\":6475:6512  _balances[from] = fromBalance - value */\n      dup2\n      swap1\n      sstore\n      pop\n        /* \"@openzeppelin/contracts/token/ERC20/ERC20.sol\":6175:6537  {... */\n      pop\n        /* \"@openzeppelin/contracts/token/ERC20/ERC20.sol\":5997:6537  if (from == address(0)) {... */\n    tag_253:\n        /* \"@openzeppelin/contracts/token/ERC20/ERC20.sol\":6565:6566  0 */\n      0x00\n        /* \"@openzeppelin/contracts/token/ERC20/ERC20.sol\":6551:6567  to == address(0) */\n      0xffffffffffffffffffffffffffffffffffffffff\n      and\n        /* \"@openzeppelin/contracts/token/ERC20/ERC20.sol\":6551:6553  to */\n      dup3\n        /* \"@openzeppelin/contracts/token/ERC20/ERC20.sol\":6551:6567  to == address(0) */\n      0xffffffffffffffffffffffffffffffffffffffff\n      and\n      sub\n        /* \"@openzeppelin/contracts/token/ERC20/ERC20.sol\":6547:6972  if (to == address(0)) {... */\n      tag_256\n      jumpi\n        /* \"@openzeppelin/contracts/token/ERC20/ERC20.sol\":6730:6735  value */\n      dup1\n        /* \"@openzeppelin/contracts/token/ERC20/ERC20.sol\":6714:6726  _totalSupply */\n      0x02\n      0x00\n        /* \"@openzeppelin/contracts/token/ERC20/ERC20.sol\":6714:6735  _totalSupply -= value */\n      dup3\n      dup3\n      sload\n      sub\n      swap3\n      pop\n      pop\n      dup2\n      swap1\n      sstore\n      pop\n        /* \"@openzeppelin/contracts/token/ERC20/ERC20.sol\":6547:6972  if (to == address(0)) {... */\n      jump(tag_257)\n    tag_256:\n        /* \"@openzeppelin/contracts/token/ERC20/ERC20.sol\":6942:6947  value */\n      dup1\n        /* \"@openzeppelin/contracts/token/ERC20/ERC20.sol\":6925:6934  _balances */\n      0x00\n        /* \"@openzeppelin/contracts/token/ERC20/ERC20.sol\":6925:6938  _balances[to] */\n      0x00\n        /* \"@openzeppelin/contracts/token/ERC20/ERC20.sol\":6935:6937  to */\n      dup5\n        /* \"@openzeppelin/contracts/token/ERC20/ERC20.sol\":6925:6938  _balances[to] */\n      0xffffffffffffffffffffffffffffffffffffffff\n      and\n      0xffffffffffffffffffffffffffffffffffffffff\n      and\n      dup2\n      mstore\n      0x20\n      add\n      swap1\n      dup2\n      mstore\n      0x20\n      add\n      0x00\n      keccak256\n      0x00\n        /* \"@openzeppelin/contracts/token/ERC20/ERC20.sol\":6925:6947  _balances[to] += value */\n      dup3\n      dup3\n      sload\n      add\n      swap3\n      pop\n      pop\n      dup2\n      swap1\n      sstore\n      pop\n        /* \"@openzeppelin/contracts/token/ERC20/ERC20.sol\":6547:6972  if (to == address(0)) {... */\n    tag_257:\n        /* \"@openzeppelin/contracts/token/ERC20/ERC20.sol\":7002:7004  to */\n      dup2\n        /* \"@openzeppelin/contracts/token/ERC20/ERC20.sol\":6987:7012  Transfer(from, to, value) */\n      0xffffffffffffffffffffffffffffffffffffffff\n      and\n        /* \"@openzeppelin/contracts/token/ERC20/ERC20.sol\":6996:7000  from */\n      dup4\n        /* \"@openzeppelin/contracts/token/ERC20/ERC20.sol\":6987:7012  Transfer(from, to, value) */\n      0xffffffffffffffffffffffffffffffffffffffff\n      and\n      0xddf252ad1be2c89b69c2b068fc378daa952ba7f163c4a11628f55a4df523b3ef\n        /* \"@openzeppelin/contracts/token/ERC20/ERC20.sol\":7006:7011  value */\n      dup4\n        /* \"@openzeppelin/contracts/token/ERC20/ERC20.sol\":6987:7012  Transfer(from, to, value) */\n      mload(0x40)\n      tag_258\n      swap2\n      swap1\n      tag_41\n      jump\t// in\n    tag_258:\n      mload(0x40)\n      dup1\n      swap2\n      sub\n      swap1\n      log3\n        /* \"@openzeppelin/contracts/token/ERC20/ERC20.sol\":5912:7019  function _update(address from, address to, uint256 value) internal virtual {... */\n      pop\n      pop\n      pop\n      jump\t// out\n    tag_192:\n      mload(0x40)\n      dup1\n      0x40\n      add\n      0x40\n      mstore\n      dup1\n      0x00\n      dup2\n      mstore\n      0x20\n      add\n      0x00\n      dup2\n      mstore\n      pop\n      swap1\n      jump\t// out\n        /* \"#utility.yul\":7:106   */\n    tag_259:\n        /* \"#utility.yul\":59:65   */\n      0x00\n        /* \"#utility.yul\":93:98   */\n      dup2\n        /* \"#utility.yul\":87:99   */\n      mload\n        /* \"#utility.yul\":77:99   */\n      swap1\n      pop\n        /* \"#utility.yul\":7:106   */\n      swap2\n      swap1\n      pop\n      jump\t// out\n        /* \"#utility.yul\":112:281   */\n    tag_260:\n        /* \"#utility.yul\":196:207   */\n      0x00\n        /* \"#utility.yul\":230:236   */\n      dup3\n        /* \"#utility.yul\":225:228   */\n      dup3\n        /* \"#utility.yul\":218:237   */\n      mstore\n        /* \"#utility.yul\":270:274   */\n      0x20\n        /* \"#utility.yul\":265:268   */\n      dup3\n        /* \"#utility.yul\":261:275   */\n      add\n        /* \"#utility.yul\":246:275   */\n      swap1\n      pop\n        /* \"#utility.yul\":112:281   */\n      swap3\n      swap2\n      pop\n      pop\n      jump\t// out\n        /* \"#utility.yul\":287:426   */\n    tag_261:\n        /* \"#utility.yul\":376:382   */\n      dup3\n        /* \"#utility.yul\":371:374   */\n      dup2\n        /* \"#utility.yul\":366:369   */\n      dup4\n        /* \"#utility.yul\":360:383   */\n      mcopy\n        /* \"#utility.yul\":417:418   */\n      0x00\n        /* \"#utility.yul\":408:414   */\n      dup4\n        /* \"#utility.yul\":403:406   */\n      dup4\n        /* \"#utility.yul\":399:415   */\n      add\n        /* \"#utility.yul\":392:419   */\n      mstore\n        /* \"#utility.yul\":287:426   */\n      pop\n      pop\n      pop\n      jump\t// out\n        /* \"#utility.yul\":432:534   */\n    tag_262:\n        /* \"#utility.yul\":473:479   */\n      0x00\n        /* \"#utility.yul\":524:526   */\n      0x1f\n        /* \"#utility.yul\":520:527   */\n      not\n        /* \"#utility.yul\":515:517   */\n      0x1f\n        /* \"#utility.yul\":508:513   */\n      dup4\n        /* \"#utility.yul\":504:518   */\n      add\n        /* \"#utility.yul\":500:528   */\n      and\n        /* \"#utility.yul\":490:528   */\n      swap1\n      pop\n        /* \"#utility.yul\":432:534   */\n      swap2\n      swap1\n      pop\n      jump\t// out\n        /* \"#utility.yul\":540:917   */\n    tag_263:\n        /* \"#utility.yul\":628:631   */\n      0x00\n        /* \"#utility.yul\":656:695   */\n      tag_303\n        /* \"#utility.yul\":689:694   */\n      dup3\n        /* \"#utility.yul\":656:695   */\n      tag_259\n      jump\t// in\n    tag_303:\n        /* \"#utility.yul\":711:782   */\n      tag_304\n        /* \"#utility.yul\":775:781   */\n      dup2\n        /* \"#utility.yul\":770:773   */\n      dup6\n        /* \"#utility.yul\":711:782   */\n      tag_260\n      jump\t// in\n    tag_304:\n        /* \"#utility.yul\":704:782   */\n      swap4\n      pop\n        /* \"#utility.yul\":791:856   */\n      tag_305\n        /* \"#utility.yul\":849:855   */\n      dup2\n        /* \"#utility.yul\":844:847   */\n      dup6\n        /* \"#utility.yul\":837:841   */\n      0x20\n        /* \"#utility.yul\":830:835   */\n      dup7\n        /* \"#utility.yul\":826:842   */\n      add\n        /* \"#utility.yul\":791:856   */\n      tag_261\n      jump\t// in\n    tag_305:\n        /* \"#utility.yul\":881:910   */\n      tag_306\n        /* \"#utility.yul\":903:909   */\n      dup2\n        /* \"#utility.yul\":881:910   */\n      tag_262\n      jump\t// in\n    tag_306:\n        /* \"#utility.yul\":876:879   */\n      dup5\n        /* \"#utility.yul\":872:911   */\n      add\n        /* \"#utility.yul\":865:911   */\n      swap2\n      pop\n        /* \"#utility.yul\":632:917   */\n      pop\n        /* \"#utility.yul\":540:917   */\n      swap3\n      swap2\n      pop\n      pop\n      jump\t// out\n        /* \"#utility.yul\":923:1236   */\n    tag_27:\n        /* \"#utility.yul\":1036:1040   */\n      0x00\n        /* \"#utility.yul\":1074:1076   */\n      0x20\n        /* \"#utility.yul\":1063:1072   */\n      dup3\n        /* \"#utility.yul\":1059:1077   */\n      add\n        /* \"#utility.yul\":1051:1077   */\n      swap1\n      pop\n        /* \"#utility.yul\":1123:1132   */\n      dup2\n        /* \"#utility.yul\":1117:1121   */\n      dup2\n        /* \"#utility.yul\":1113:1133   */\n      sub\n        /* \"#utility.yul\":1109:1110   */\n      0x00\n        /* \"#utility.yul\":1098:1107   */\n      dup4\n        /* \"#utility.yul\":1094:1111   */\n      add\n        /* \"#utility.yul\":1087:1134   */\n      mstore\n        /* \"#utility.yul\":1151:1229   */\n      tag_308\n        /* \"#utility.yul\":1224:1228   */\n      dup2\n        /* \"#utility.yul\":1215:1221   */\n      dup5\n        /* \"#utility.yul\":1151:1229   */\n      tag_263\n      jump\t// in\n    tag_308:\n        /* \"#utility.yul\":1143:1229   */\n      swap1\n      pop\n        /* \"#utility.yul\":923:1236   */\n      swap3\n      swap2\n      pop\n      pop\n      jump\t// out\n        /* \"#utility.yul\":1323:1440   */\n    tag_265:\n        /* \"#utility.yul\":1432:1433   */\n      0x00\n        /* \"#utility.yul\":1429:1430   */\n      0x00\n        /* \"#utility.yul\":1422:1434   */\n      revert\n        /* \"#utility.yul\":1569:1695   */\n    tag_267:\n        /* \"#utility.yul\":1606:1613   */\n      0x00\n        /* \"#utility.yul\":1646:1688   */\n      0xffffffffffffffffffffffffffffffffffffffff\n        /* \"#utility.yul\":1639:1644   */\n      dup3\n        /* \"#utility.yul\":1635:1689   */\n      and\n        /* \"#utility.yul\":1624:1689   */\n      swap1\n      pop\n        /* \"#utility.yul\":1569:1695   */\n      swap2\n      swap1\n      pop\n      jump\t// out\n        /* \"#utility.yul\":1701:1797   */\n    tag_268:\n        /* \"#utility.yul\":1738:1745   */\n      0x00\n        /* \"#utility.yul\":1767:1791   */\n      tag_314\n        /* \"#utility.yul\":1785:1790   */\n      dup3\n        /* \"#utility.yul\":1767:1791   */\n      tag_267\n      jump\t// in\n    tag_314:\n        /* \"#utility.yul\":1756:1791   */\n      swap1\n      pop\n        /* \"#utility.yul\":1701:1797   */\n      swap2\n      swap1\n      pop\n      jump\t// out\n        /* \"#utility.yul\":1803:1925   */\n    tag_269:\n        /* \"#utility.yul\":1876:1900   */\n      tag_316\n        /* \"#utility.yul\":1894:1899   */\n      dup2\n        /* \"#utility.yul\":1876:1900   */\n      tag_268\n      jump\t// in\n    tag_316:\n        /* \"#utility.yul\":1869:1874   */\n      dup2\n        /* \"#utility.yul\":1866:1901   */\n      eq\n        /* \"#utility.yul\":1856:1919   */\n      tag_317\n      jumpi\n        /* \"#utility.yul\":1915:1916   */\n      0x00\n        /* \"#utility.yul\":1912:1913   */\n      0x00\n        /* \"#utility.yul\":1905:1917   */\n      revert\n        /* \"#utility.yul\":1856:1919   */\n    tag_317:\n        /* \"#utility.yul\":1803:1925   */\n      pop\n      jump\t// out\n        /* \"#utility.yul\":1931:2070   */\n    tag_270:\n        /* \"#utility.yul\":1977:1982   */\n      0x00\n        /* \"#utility.yul\":2015:2021   */\n      dup2\n        /* \"#utility.yul\":2002:2022   */\n      calldataload\n        /* \"#utility.yul\":1993:2022   */\n      swap1\n      pop\n        /* \"#utility.yul\":2031:2064   */\n      tag_319\n        /* \"#utility.yul\":2058:2063   */\n      dup2\n        /* \"#utility.yul\":2031:2064   */\n      tag_269\n      jump\t// in\n    tag_319:\n        /* \"#utility.yul\":1931:2070   */\n      swap3\n      swap2\n      pop\n      pop\n      jump\t// out\n        /* \"#utility.yul\":2076:2153   */\n    tag_271:\n        /* \"#utility.yul\":2113:2120   */\n      0x00\n        /* \"#utility.yul\":2142:2147   */\n      dup2\n        /* \"#utility.yul\":2131:2147   */\n      swap1\n      pop\n        /* \"#utility.yul\":2076:2153   */\n      swap2\n      swap1\n      pop\n      jump\t// out\n        /* \"#utility.yul\":2159:2281   */\n    tag_272:\n        /* \"#utility.yul\":2232:2256   */\n      tag_322\n        /* \"#utility.yul\":2250:2255   */\n      dup2\n        /* \"#utility.yul\":2232:2256   */\n      tag_271\n      jump\t// in\n    tag_322:\n        /* \"#utility.yul\":2225:2230   */\n      dup2\n        /* \"#utility.yul\":2222:2257   */\n      eq\n        /* \"#utility.yul\":2212:2275   */\n      tag_323\n      jumpi\n        /* \"#utility.yul\":2271:2272   */\n      0x00\n        /* \"#utility.yul\":2268:2269   */\n      0x00\n        /* \"#utility.yul\":2261:2273   */\n      revert\n        /* \"#utility.yul\":2212:2275   */\n    tag_323:\n        /* \"#utility.yul\":2159:2281   */\n      pop\n      jump\t// out\n        /* \"#utility.yul\":2287:2426   */\n    tag_273:\n        /* \"#utility.yul\":2333:2338   */\n      0x00\n        /* \"#utility.yul\":2371:2377   */\n      dup2\n        /* \"#utility.yul\":2358:2378   */\n      calldataload\n        /* \"#utility.yul\":2349:2378   */\n      swap1\n      pop\n        /* \"#utility.yul\":2387:2420   */\n      tag_325\n        /* \"#utility.yul\":2414:2419   */\n      dup2\n        /* \"#utility.yul\":2387:2420   */\n      tag_272\n      jump\t// in\n    tag_325:\n        /* \"#utility.yul\":2287:2426   */\n      swap3\n      swap2\n      pop\n      pop\n      jump\t// out\n        /* \"#utility.yul\":2432:2906   */\n    tag_30:\n        /* \"#utility.yul\":2500:2506   */\n      0x00\n        /* \"#utility.yul\":2508:2514   */\n      0x00\n        /* \"#utility.yul\":2557:2559   */\n      0x40\n        /* \"#utility.yul\":2545:2554   */\n      dup4\n        /* \"#utility.yul\":2536:2543   */\n      dup6\n        /* \"#utility.yul\":2532:2555   */\n      sub\n        /* \"#utility.yul\":2528:2560   */\n      slt\n        /* \"#utility.yul\":2525:2644   */\n      iszero\n      tag_327\n      jumpi\n        /* \"#utility.yul\":2563:2642   */\n      tag_328\n      tag_265\n      jump\t// in\n    tag_328:\n        /* \"#utility.yul\":2525:2644   */\n    tag_327:\n        /* \"#utility.yul\":2683:2684   */\n      0x00\n        /* \"#utility.yul\":2708:2761   */\n      tag_329\n        /* \"#utility.yul\":2753:2760   */\n      dup6\n        /* \"#utility.yul\":2744:2750   */\n      dup3\n        /* \"#utility.yul\":2733:2742   */\n      dup7\n        /* \"#utility.yul\":2729:2751   */\n      add\n        /* \"#utility.yul\":2708:2761   */\n      tag_270\n      jump\t// in\n    tag_329:\n        /* \"#utility.yul\":2698:2761   */\n      swap3\n      pop\n        /* \"#utility.yul\":2654:2771   */\n      pop\n        /* \"#utility.yul\":2810:2812   */\n      0x20\n        /* \"#utility.yul\":2836:2889   */\n      tag_330\n        /* \"#utility.yul\":2881:2888   */\n      dup6\n        /* \"#utility.yul\":2872:2878   */\n      dup3\n        /* \"#utility.yul\":2861:2870   */\n      dup7\n        /* \"#utility.yul\":2857:2879   */\n      add\n        /* \"#utility.yul\":2836:2889   */\n      tag_273\n      jump\t// in\n    tag_330:\n        /* \"#utility.yul\":2826:2889   */\n      swap2\n      pop\n        /* \"#utility.yul\":2781:2899   */\n      pop\n        /* \"#utility.yul\":2432:2906   */\n      swap3\n      pop\n      swap3\n      swap1\n      pop\n      jump\t// out\n        /* \"#utility.yul\":2912:3002   */\n    tag_274:\n        /* \"#utility.yul\":2946:2953   */\n      0x00\n        /* \"#utility.yul\":2989:2994   */\n      dup2\n        /* \"#utility.yul\":2982:2995   */\n      iszero\n        /* \"#utility.yul\":2975:2996   */\n      iszero\n        /* \"#utility.yul\":2964:2996   */\n      swap1\n      pop\n        /* \"#utility.yul\":2912:3002   */\n      swap2\n      swap1\n      pop\n      jump\t// out\n        /* \"#utility.yul\":3008:3117   */\n    tag_275:\n        /* \"#utility.yul\":3089:3110   */\n      tag_333\n        /* \"#utility.yul\":3104:3109   */\n      dup2\n        /* \"#utility.yul\":3089:3110   */\n      tag_274\n      jump\t// in\n    tag_333:\n        /* \"#utility.yul\":3084:3087   */\n      dup3\n        /* \"#utility.yul\":3077:3111   */\n      mstore\n        /* \"#utility.yul\":3008:3117   */\n      pop\n      pop\n      jump\t// out\n        /* \"#utility.yul\":3123:3333   */\n    tag_33:\n        /* \"#utility.yul\":3210:3214   */\n      0x00\n        /* \"#utility.yul\":3248:3250   */\n      0x20\n        /* \"#utility.yul\":3237:3246   */\n      dup3\n        /* \"#utility.yul\":3233:3251   */\n      add\n        /* \"#utility.yul\":3225:3251   */\n      swap1\n      pop\n        /* \"#utility.yul\":3261:3326   */\n      tag_335\n        /* \"#utility.yul\":3323:3324   */\n      0x00\n        /* \"#utility.yul\":3312:3321   */\n      dup4\n        /* \"#utility.yul\":3308:3325   */\n      add\n        /* \"#utility.yul\":3299:3305   */\n      dup5\n        /* \"#utility.yul\":3261:3326   */\n      tag_275\n      jump\t// in\n    tag_335:\n        /* \"#utility.yul\":3123:3333   */\n      swap3\n      swap2\n      pop\n      pop\n      jump\t// out\n        /* \"#utility.yul\":3339:3455   */\n    tag_276:\n        /* \"#utility.yul\":3429:3430   */\n      0x04\n        /* \"#utility.yul\":3422:3427   */\n      dup2\n        /* \"#utility.yul\":3419:3431   */\n      lt\n        /* \"#utility.yul\":3409:3449   */\n      tag_337\n      jumpi\n        /* \"#utility.yul\":3445:3446   */\n      0x00\n        /* \"#utility.yul\":3442:3443   */\n      0x00\n        /* \"#utility.yul\":3435:3447   */\n      revert\n        /* \"#utility.yul\":3409:3449   */\n    tag_337:\n        /* \"#utility.yul\":3339:3455   */\n      pop\n      jump\t// out\n        /* \"#utility.yul\":3461:3634   */\n    tag_277:\n        /* \"#utility.yul\":3524:3529   */\n      0x00\n        /* \"#utility.yul\":3562:3568   */\n      dup2\n        /* \"#utility.yul\":3549:3569   */\n      calldataload\n        /* \"#utility.yul\":3540:3569   */\n      swap1\n      pop\n        /* \"#utility.yul\":3578:3628   */\n      tag_339\n        /* \"#utility.yul\":3622:3627   */\n      dup2\n        /* \"#utility.yul\":3578:3628   */\n      tag_276\n      jump\t// in\n    tag_339:\n        /* \"#utility.yul\":3461:3634   */\n      swap3\n      swap2\n      pop\n      pop\n      jump\t// out\n        /* \"#utility.yul\":3640:4148   */\n    tag_36:\n        /* \"#utility.yul\":3725:3731   */\n      0x00\n        /* \"#utility.yul\":3733:3739   */\n      0x00\n        /* \"#utility.yul\":3782:3784   */\n      0x40\n        /* \"#utility.yul\":3770:3779   */\n      dup4\n        /* \"#utility.yul\":3761:3768   */\n      dup6\n        /* \"#utility.yul\":3757:3780   */\n      sub\n        /* \"#utility.yul\":3753:3785   */\n      slt\n        /* \"#utility.yul\":3750:3869   */\n      iszero\n      tag_341\n      jumpi\n        /* \"#utility.yul\":3788:3867   */\n      tag_342\n      tag_265\n      jump\t// in\n    tag_342:\n        /* \"#utility.yul\":3750:3869   */\n    tag_341:\n        /* \"#utility.yul\":3908:3909   */\n      0x00\n        /* \"#utility.yul\":3933:3986   */\n      tag_343\n        /* \"#utility.yul\":3978:3985   */\n      dup6\n        /* \"#utility.yul\":3969:3975   */\n      dup3\n        /* \"#utility.yul\":3958:3967   */\n      dup7\n        /* \"#utility.yul\":3954:3976   */\n      add\n        /* \"#utility.yul\":3933:3986   */\n      tag_273\n      jump\t// in\n    tag_343:\n        /* \"#utility.yul\":3923:3986   */\n      swap3\n      pop\n        /* \"#utility.yul\":3879:3996   */\n      pop\n        /* \"#utility.yul\":4035:4037   */\n      0x20\n        /* \"#utility.yul\":4061:4131   */\n      tag_344\n        /* \"#utility.yul\":4123:4130   */\n      dup6\n        /* \"#utility.yul\":4114:4120   */\n      dup3\n        /* \"#utility.yul\":4103:4112   */\n      dup7\n        /* \"#utility.yul\":4099:4121   */\n      add\n        /* \"#utility.yul\":4061:4131   */\n      tag_277\n      jump\t// in\n    tag_344:\n        /* \"#utility.yul\":4051:4131   */\n      swap2\n      pop\n        /* \"#utility.yul\":4006:4141   */\n      pop\n        /* \"#utility.yul\":3640:4148   */\n      swap3\n      pop\n      swap3\n      swap1\n      pop\n      jump\t// out\n        /* \"#utility.yul\":4154:4272   */\n    tag_278:\n        /* \"#utility.yul\":4241:4265   */\n      tag_346\n        /* \"#utility.yul\":4259:4264   */\n      dup2\n        /* \"#utility.yul\":4241:4265   */\n      tag_271\n      jump\t// in\n    tag_346:\n        /* \"#utility.yul\":4236:4239   */\n      dup3\n        /* \"#utility.yul\":4229:4266   */\n      mstore\n        /* \"#utility.yul\":4154:4272   */\n      pop\n      pop\n      jump\t// out\n        /* \"#utility.yul\":4278:4500   */\n    tag_41:\n        /* \"#utility.yul\":4371:4375   */\n      0x00\n        /* \"#utility.yul\":4409:4411   */\n      0x20\n        /* \"#utility.yul\":4398:4407   */\n      dup3\n        /* \"#utility.yul\":4394:4412   */\n      add\n        /* \"#utility.yul\":4386:4412   */\n      swap1\n      pop\n        /* \"#utility.yul\":4422:4493   */\n      tag_348\n        /* \"#utility.yul\":4490:4491   */\n      0x00\n        /* \"#utility.yul\":4479:4488   */\n      dup4\n        /* \"#utility.yul\":4475:4492   */\n      add\n        /* \"#utility.yul\":4466:4472   */\n      dup5\n        /* \"#utility.yul\":4422:4493   */\n      tag_278\n      jump\t// in\n    tag_348:\n        /* \"#utility.yul\":4278:4500   */\n      swap3\n      swap2\n      pop\n      pop\n      jump\t// out\n        /* \"#utility.yul\":4506:4869   */\n    tag_44:\n        /* \"#utility.yul\":4582:4588   */\n      0x00\n        /* \"#utility.yul\":4631:4633   */\n      0x20\n        /* \"#utility.yul\":4619:4628   */\n      dup3\n        /* \"#utility.yul\":4610:4617   */\n      dup5\n        /* \"#utility.yul\":4606:4629   */\n      sub\n        /* \"#utility.yul\":4602:4634   */\n      slt\n        /* \"#utility.yul\":4599:4718   */\n      iszero\n      tag_350\n      jumpi\n        /* \"#utility.yul\":4637:4716   */\n      tag_351\n      tag_265\n      jump\t// in\n    tag_351:\n        /* \"#utility.yul\":4599:4718   */\n    tag_350:\n        /* \"#utility.yul\":4757:4758   */\n      0x00\n        /* \"#utility.yul\":4782:4852   */\n      tag_352\n        /* \"#utility.yul\":4844:4851   */\n      dup5\n        /* \"#utility.yul\":4835:4841   */\n      dup3\n        /* \"#utility.yul\":4824:4833   */\n      dup6\n        /* \"#utility.yul\":4820:4842   */\n      add\n        /* \"#utility.yul\":4782:4852   */\n      tag_277\n      jump\t// in\n    tag_352:\n        /* \"#utility.yul\":4772:4852   */\n      swap2\n      pop\n        /* \"#utility.yul\":4728:4862   */\n      pop\n        /* \"#utility.yul\":4506:4869   */\n      swap3\n      swap2\n      pop\n      pop\n      jump\t// out\n        /* \"#utility.yul\":4875:5494   */\n    tag_49:\n        /* \"#utility.yul\":4952:4958   */\n      0x00\n        /* \"#utility.yul\":4960:4966   */\n      0x00\n        /* \"#utility.yul\":4968:4974   */\n      0x00\n        /* \"#utility.yul\":5017:5019   */\n      0x60\n        /* \"#utility.yul\":5005:5014   */\n      dup5\n        /* \"#utility.yul\":4996:5003   */\n      dup7\n        /* \"#utility.yul\":4992:5015   */\n      sub\n        /* \"#utility.yul\":4988:5020   */\n      slt\n        /* \"#utility.yul\":4985:5104   */\n      iszero\n      tag_354\n      jumpi\n        /* \"#utility.yul\":5023:5102   */\n      tag_355\n      tag_265\n      jump\t// in\n    tag_355:\n        /* \"#utility.yul\":4985:5104   */\n    tag_354:\n        /* \"#utility.yul\":5143:5144   */\n      0x00\n        /* \"#utility.yul\":5168:5221   */\n      tag_356\n        /* \"#utility.yul\":5213:5220   */\n      dup7\n        /* \"#utility.yul\":5204:5210   */\n      dup3\n        /* \"#utility.yul\":5193:5202   */\n      dup8\n        /* \"#utility.yul\":5189:5211   */\n      add\n        /* \"#utility.yul\":5168:5221   */\n      tag_270\n      jump\t// in\n    tag_356:\n        /* \"#utility.yul\":5158:5221   */\n      swap4\n      pop\n        /* \"#utility.yul\":5114:5231   */\n      pop\n        /* \"#utility.yul\":5270:5272   */\n      0x20\n        /* \"#utility.yul\":5296:5349   */\n      tag_357\n        /* \"#utility.yul\":5341:5348   */\n      dup7\n        /* \"#utility.yul\":5332:5338   */\n      dup3\n        /* \"#utility.yul\":5321:5330   */\n      dup8\n        /* \"#utility.yul\":5317:5339   */\n      add\n        /* \"#utility.yul\":5296:5349   */\n      tag_270\n      jump\t// in\n    tag_357:\n        /* \"#utility.yul\":5286:5349   */\n      swap3\n      pop\n        /* \"#utility.yul\":5241:5359   */\n      pop\n        /* \"#utility.yul\":5398:5400   */\n      0x40\n        /* \"#utility.yul\":5424:5477   */\n      tag_358\n        /* \"#utility.yul\":5469:5476   */\n      dup7\n        /* \"#utility.yul\":5460:5466   */\n      dup3\n        /* \"#utility.yul\":5449:5458   */\n      dup8\n        /* \"#utility.yul\":5445:5467   */\n      add\n        /* \"#utility.yul\":5424:5477   */\n      tag_273\n      jump\t// in\n    tag_358:\n        /* \"#utility.yul\":5414:5477   */\n      swap2\n      pop\n        /* \"#utility.yul\":5369:5487   */\n      pop\n        /* \"#utility.yul\":4875:5494   */\n      swap3\n      pop\n      swap3\n      pop\n      swap3\n      jump\t// out\n        /* \"#utility.yul\":5500:5829   */\n    tag_54:\n        /* \"#utility.yul\":5559:5565   */\n      0x00\n        /* \"#utility.yul\":5608:5610   */\n      0x20\n        /* \"#utility.yul\":5596:5605   */\n      dup3\n        /* \"#utility.yul\":5587:5594   */\n      dup5\n        /* \"#utility.yul\":5583:5606   */\n      sub\n        /* \"#utility.yul\":5579:5611   */\n      slt\n        /* \"#utility.yul\":5576:5695   */\n      iszero\n      tag_360\n      jumpi\n        /* \"#utility.yul\":5614:5693   */\n      tag_361\n      tag_265\n      jump\t// in\n    tag_361:\n        /* \"#utility.yul\":5576:5695   */\n    tag_360:\n        /* \"#utility.yul\":5734:5735   */\n      0x00\n        /* \"#utility.yul\":5759:5812   */\n      tag_362\n        /* \"#utility.yul\":5804:5811   */\n      dup5\n        /* \"#utility.yul\":5795:5801   */\n      dup3\n        /* \"#utility.yul\":5784:5793   */\n      dup6\n        /* \"#utility.yul\":5780:5802   */\n      add\n        /* \"#utility.yul\":5759:5812   */\n      tag_273\n      jump\t// in\n    tag_362:\n        /* \"#utility.yul\":5749:5812   */\n      swap2\n      pop\n        /* \"#utility.yul\":5705:5822   */\n      pop\n        /* \"#utility.yul\":5500:5829   */\n      swap3\n      swap2\n      pop\n      pop\n      jump\t// out\n        /* \"#utility.yul\":5835:5921   */\n    tag_279:\n        /* \"#utility.yul\":5870:5877   */\n      0x00\n        /* \"#utility.yul\":5910:5914   */\n      0xff\n        /* \"#utility.yul\":5903:5908   */\n      dup3\n        /* \"#utility.yul\":5899:5915   */\n      and\n        /* \"#utility.yul\":5888:5915   */\n      swap1\n      pop\n        /* \"#utility.yul\":5835:5921   */\n      swap2\n      swap1\n      pop\n      jump\t// out\n        /* \"#utility.yul\":5927:6039   */\n    tag_280:\n        /* \"#utility.yul\":6010:6032   */\n      tag_365\n        /* \"#utility.yul\":6026:6031   */\n      dup2\n        /* \"#utility.yul\":6010:6032   */\n      tag_279\n      jump\t// in\n    tag_365:\n        /* \"#utility.yul\":6005:6008   */\n      dup3\n        /* \"#utility.yul\":5998:6033   */\n      mstore\n        /* \"#utility.yul\":5927:6039   */\n      pop\n      pop\n      jump\t// out\n        /* \"#utility.yul\":6045:6259   */\n    tag_59:\n        /* \"#utility.yul\":6134:6138   */\n      0x00\n        /* \"#utility.yul\":6172:6174   */\n      0x20\n        /* \"#utility.yul\":6161:6170   */\n      dup3\n        /* \"#utility.yul\":6157:6175   */\n      add\n        /* \"#utility.yul\":6149:6175   */\n      swap1\n      pop\n        /* \"#utility.yul\":6185:6252   */\n      tag_367\n        /* \"#utility.yul\":6249:6250   */\n      0x00\n        /* \"#utility.yul\":6238:6247   */\n      dup4\n        /* \"#utility.yul\":6234:6251   */\n      add\n        /* \"#utility.yul\":6225:6231   */\n      dup5\n        /* \"#utility.yul\":6185:6252   */\n      tag_280\n      jump\t// in\n    tag_367:\n        /* \"#utility.yul\":6045:6259   */\n      swap3\n      swap2\n      pop\n      pop\n      jump\t// out\n        /* \"#utility.yul\":6265:6594   */\n    tag_65:\n        /* \"#utility.yul\":6324:6330   */\n      0x00\n        /* \"#utility.yul\":6373:6375   */\n      0x20\n        /* \"#utility.yul\":6361:6370   */\n      dup3\n        /* \"#utility.yul\":6352:6359   */\n      dup5\n        /* \"#utility.yul\":6348:6371   */\n      sub\n        /* \"#utility.yul\":6344:6376   */\n      slt\n        /* \"#utility.yul\":6341:6460   */\n      iszero\n      tag_369\n      jumpi\n        /* \"#utility.yul\":6379:6458   */\n      tag_370\n      tag_265\n      jump\t// in\n    tag_370:\n        /* \"#utility.yul\":6341:6460   */\n    tag_369:\n        /* \"#utility.yul\":6499:6500   */\n      0x00\n        /* \"#utility.yul\":6524:6577   */\n      tag_371\n        /* \"#utility.yul\":6569:6576   */\n      dup5\n        /* \"#utility.yul\":6560:6566   */\n      dup3\n        /* \"#utility.yul\":6549:6558   */\n      dup6\n        /* \"#utility.yul\":6545:6567   */\n      add\n        /* \"#utility.yul\":6524:6577   */\n      tag_270\n      jump\t// in\n    tag_371:\n        /* \"#utility.yul\":6514:6577   */\n      swap2\n      pop\n        /* \"#utility.yul\":6470:6587   */\n      pop\n        /* \"#utility.yul\":6265:6594   */\n      swap3\n      swap2\n      pop\n      pop\n      jump\t// out\n        /* \"#utility.yul\":6600:6718   */\n    tag_281:\n        /* \"#utility.yul\":6687:6711   */\n      tag_373\n        /* \"#utility.yul\":6705:6710   */\n      dup2\n        /* \"#utility.yul\":6687:6711   */\n      tag_268\n      jump\t// in\n    tag_373:\n        /* \"#utility.yul\":6682:6685   */\n      dup3\n        /* \"#utility.yul\":6675:6712   */\n      mstore\n        /* \"#utility.yul\":6600:6718   */\n      pop\n      pop\n      jump\t// out\n        /* \"#utility.yul\":6724:6946   */\n    tag_77:\n        /* \"#utility.yul\":6817:6821   */\n      0x00\n        /* \"#utility.yul\":6855:6857   */\n      0x20\n        /* \"#utility.yul\":6844:6853   */\n      dup3\n        /* \"#utility.yul\":6840:6858   */\n      add\n        /* \"#utility.yul\":6832:6858   */\n      swap1\n      pop\n        /* \"#utility.yul\":6868:6939   */\n      tag_375\n        /* \"#utility.yul\":6936:6937   */\n      0x00\n        /* \"#utility.yul\":6925:6934   */\n      dup4\n        /* \"#utility.yul\":6921:6938   */\n      add\n        /* \"#utility.yul\":6912:6918   */\n      dup5\n        /* \"#utility.yul\":6868:6939   */\n      tag_281\n      jump\t// in\n    tag_375:\n        /* \"#utility.yul\":6724:6946   */\n      swap3\n      swap2\n      pop\n      pop\n      jump\t// out\n        /* \"#utility.yul\":6952:7604   */\n    tag_89:\n        /* \"#utility.yul\":7151:7155   */\n      0x00\n        /* \"#utility.yul\":7189:7192   */\n      0xa0\n        /* \"#utility.yul\":7178:7187   */\n      dup3\n        /* \"#utility.yul\":7174:7193   */\n      add\n        /* \"#utility.yul\":7166:7193   */\n      swap1\n      pop\n        /* \"#utility.yul\":7203:7274   */\n      tag_377\n        /* \"#utility.yul\":7271:7272   */\n      0x00\n        /* \"#utility.yul\":7260:7269   */\n      dup4\n        /* \"#utility.yul\":7256:7273   */\n      add\n        /* \"#utility.yul\":7247:7253   */\n      dup9\n        /* \"#utility.yul\":7203:7274   */\n      tag_278\n      jump\t// in\n    tag_377:\n        /* \"#utility.yul\":7284:7356   */\n      tag_378\n        /* \"#utility.yul\":7352:7354   */\n      0x20\n        /* \"#utility.yul\":7341:7350   */\n      dup4\n        /* \"#utility.yul\":7337:7355   */\n      add\n        /* \"#utility.yul\":7328:7334   */\n      dup8\n        /* \"#utility.yul\":7284:7356   */\n      tag_278\n      jump\t// in\n    tag_378:\n        /* \"#utility.yul\":7366:7438   */\n      tag_379\n        /* \"#utility.yul\":7434:7436   */\n      0x40\n        /* \"#utility.yul\":7423:7432   */\n      dup4\n        /* \"#utility.yul\":7419:7437   */\n      add\n        /* \"#utility.yul\":7410:7416   */\n      dup7\n        /* \"#utility.yul\":7366:7438   */\n      tag_278\n      jump\t// in\n    tag_379:\n        /* \"#utility.yul\":7448:7520   */\n      tag_380\n        /* \"#utility.yul\":7516:7518   */\n      0x60\n        /* \"#utility.yul\":7505:7514   */\n      dup4\n        /* \"#utility.yul\":7501:7519   */\n      add\n        /* \"#utility.yul\":7492:7498   */\n      dup6\n        /* \"#utility.yul\":7448:7520   */\n      tag_278\n      jump\t// in\n    tag_380:\n        /* \"#utility.yul\":7530:7597   */\n      tag_381\n        /* \"#utility.yul\":7592:7595   */\n      0x80\n        /* \"#utility.yul\":7581:7590   */\n      dup4\n        /* \"#utility.yul\":7577:7596   */\n      add\n        /* \"#utility.yul\":7568:7574   */\n      dup5\n        /* \"#utility.yul\":7530:7597   */\n      tag_275\n      jump\t// in\n    tag_381:\n        /* \"#utility.yul\":6952:7604   */\n      swap7\n      swap6\n      pop\n      pop\n      pop\n      pop\n      pop\n      pop\n      jump\t// out\n        /* \"#utility.yul\":7610:8084   */\n    tag_92:\n        /* \"#utility.yul\":7678:7684   */\n      0x00\n        /* \"#utility.yul\":7686:7692   */\n      0x00\n        /* \"#utility.yul\":7735:7737   */\n      0x40\n        /* \"#utility.yul\":7723:7732   */\n      dup4\n        /* \"#utility.yul\":7714:7721   */\n      dup6\n        /* \"#utility.yul\":7710:7733   */\n      sub\n        /* \"#utility.yul\":7706:7738   */\n      slt\n        /* \"#utility.yul\":7703:7822   */\n      iszero\n      tag_383\n      jumpi\n        /* \"#utility.yul\":7741:7820   */\n      tag_384\n      tag_265\n      jump\t// in\n    tag_384:\n        /* \"#utility.yul\":7703:7822   */\n    tag_383:\n        /* \"#utility.yul\":7861:7862   */\n      0x00\n        /* \"#utility.yul\":7886:7939   */\n      tag_385\n        /* \"#utility.yul\":7931:7938   */\n      dup6\n        /* \"#utility.yul\":7922:7928   */\n      dup3\n        /* \"#utility.yul\":7911:7920   */\n      dup7\n        /* \"#utility.yul\":7907:7929   */\n      add\n        /* \"#utility.yul\":7886:7939   */\n      tag_270\n      jump\t// in\n    tag_385:\n        /* \"#utility.yul\":7876:7939   */\n      swap3\n      pop\n        /* \"#utility.yul\":7832:7949   */\n      pop\n        /* \"#utility.yul\":7988:7990   */\n      0x20\n        /* \"#utility.yul\":8014:8067   */\n      tag_386\n        /* \"#utility.yul\":8059:8066   */\n      dup6\n        /* \"#utility.yul\":8050:8056   */\n      dup3\n        /* \"#utility.yul\":8039:8048   */\n      dup7\n        /* \"#utility.yul\":8035:8057   */\n      add\n        /* \"#utility.yul\":8014:8067   */\n      tag_270\n      jump\t// in\n    tag_386:\n        /* \"#utility.yul\":8004:8067   */\n      swap2\n      pop\n        /* \"#utility.yul\":7959:8077   */\n      pop\n        /* \"#utility.yul\":7610:8084   */\n      swap3\n      pop\n      swap3\n      swap1\n      pop\n      jump\t// out\n        /* \"#utility.yul\":8090:8270   */\n    tag_282:\n        /* \"#utility.yul\":8138:8215   */\n      0x4e487b7100000000000000000000000000000000000000000000000000000000\n        /* \"#utility.yul\":8135:8136   */\n      0x00\n        /* \"#utility.yul\":8128:8216   */\n      mstore\n        /* \"#utility.yul\":8235:8239   */\n      0x22\n        /* \"#utility.yul\":8232:8233   */\n      0x04\n        /* \"#utility.yul\":8225:8240   */\n      mstore\n        /* \"#utility.yul\":8259:8263   */\n      0x24\n        /* \"#utility.yul\":8256:8257   */\n      0x00\n        /* \"#utility.yul\":8249:8264   */\n      revert\n        /* \"#utility.yul\":8276:8596   */\n    tag_100:\n        /* \"#utility.yul\":8320:8326   */\n      0x00\n        /* \"#utility.yul\":8357:8358   */\n      0x02\n        /* \"#utility.yul\":8351:8355   */\n      dup3\n        /* \"#utility.yul\":8347:8359   */\n      div\n        /* \"#utility.yul\":8337:8359   */\n      swap1\n      pop\n        /* \"#utility.yul\":8404:8405   */\n      0x01\n        /* \"#utility.yul\":8398:8402   */\n      dup3\n        /* \"#utility.yul\":8394:8406   */\n      and\n        /* \"#utility.yul\":8425:8443   */\n      dup1\n        /* \"#utility.yul\":8415:8496   */\n      tag_389\n      jumpi\n        /* \"#utility.yul\":8481:8485   */\n      0x7f\n        /* \"#utility.yul\":8473:8479   */\n      dup3\n        /* \"#utility.yul\":8469:8486   */\n      and\n        /* \"#utility.yul\":8459:8486   */\n      swap2\n      pop\n        /* \"#utility.yul\":8415:8496   */\n    tag_389:\n        /* \"#utility.yul\":8543:8545   */\n      0x20\n        /* \"#utility.yul\":8535:8541   */\n      dup3\n        /* \"#utility.yul\":8532:8546   */\n      lt\n        /* \"#utility.yul\":8512:8530   */\n      dup2\n        /* \"#utility.yul\":8509:8547   */\n      sub\n        /* \"#utility.yul\":8506:8590   */\n      tag_390\n      jumpi\n        /* \"#utility.yul\":8562:8580   */\n      tag_391\n      tag_282\n      jump\t// in\n    tag_391:\n        /* \"#utility.yul\":8506:8590   */\n    tag_390:\n        /* \"#utility.yul\":8327:8596   */\n      pop\n        /* \"#utility.yul\":8276:8596   */\n      swap2\n      swap1\n      pop\n      jump\t// out\n        /* \"#utility.yul\":8602:8782   */\n    tag_283:\n        /* \"#utility.yul\":8650:8727   */\n      0x4e487b7100000000000000000000000000000000000000000000000000000000\n        /* \"#utility.yul\":8647:8648   */\n      0x00\n        /* \"#utility.yul\":8640:8728   */\n      mstore\n        /* \"#utility.yul\":8747:8751   */\n      0x11\n        /* \"#utility.yul\":8744:8745   */\n      0x04\n        /* \"#utility.yul\":8737:8752   */\n      mstore\n        /* \"#utility.yul\":8771:8775   */\n      0x24\n        /* \"#utility.yul\":8768:8769   */\n      0x00\n        /* \"#utility.yul\":8761:8776   */\n      revert\n        /* \"#utility.yul\":8788:9198   */\n    tag_112:\n        /* \"#utility.yul\":8828:8835   */\n      0x00\n        /* \"#utility.yul\":8851:8871   */\n      tag_394\n        /* \"#utility.yul\":8869:8870   */\n      dup3\n        /* \"#utility.yul\":8851:8871   */\n      tag_271\n      jump\t// in\n    tag_394:\n        /* \"#utility.yul\":8846:8871   */\n      swap2\n      pop\n        /* \"#utility.yul\":8885:8905   */\n      tag_395\n        /* \"#utility.yul\":8903:8904   */\n      dup4\n        /* \"#utility.yul\":8885:8905   */\n      tag_271\n      jump\t// in\n    tag_395:\n        /* \"#utility.yul\":8880:8905   */\n      swap3\n      pop\n        /* \"#utility.yul\":8940:8941   */\n      dup3\n        /* \"#utility.yul\":8937:8938   */\n      dup3\n        /* \"#utility.yul\":8933:8942   */\n      mul\n        /* \"#utility.yul\":8962:8992   */\n      tag_396\n        /* \"#utility.yul\":8980:8991   */\n      dup2\n        /* \"#utility.yul\":8962:8992   */\n      tag_271\n      jump\t// in\n    tag_396:\n        /* \"#utility.yul\":8951:8992   */\n      swap2\n      pop\n        /* \"#utility.yul\":9141:9142   */\n      dup3\n        /* \"#utility.yul\":9132:9139   */\n      dup3\n        /* \"#utility.yul\":9128:9143   */\n      div\n        /* \"#utility.yul\":9125:9126   */\n      dup5\n        /* \"#utility.yul\":9122:9144   */\n      eq\n        /* \"#utility.yul\":9102:9103   */\n      dup4\n        /* \"#utility.yul\":9095:9104   */\n      iszero\n        /* \"#utility.yul\":9075:9158   */\n      or\n        /* \"#utility.yul\":9052:9191   */\n      tag_397\n      jumpi\n        /* \"#utility.yul\":9171:9189   */\n      tag_398\n      tag_283\n      jump\t// in\n    tag_398:\n        /* \"#utility.yul\":9052:9191   */\n    tag_397:\n        /* \"#utility.yul\":8836:9198   */\n      pop\n        /* \"#utility.yul\":8788:9198   */\n      swap3\n      swap2\n      pop\n      pop\n      jump\t// out\n        /* \"#utility.yul\":9204:9379   */\n    tag_284:\n        /* \"#utility.yul\":9344:9371   */\n      0x416d6f756e742073686f756c6420626520706f73697469766500000000000000\n        /* \"#utility.yul\":9340:9341   */\n      0x00\n        /* \"#utility.yul\":9332:9338   */\n      dup3\n        /* \"#utility.yul\":9328:9342   */\n      add\n        /* \"#utility.yul\":9321:9372   */\n      mstore\n        /* \"#utility.yul\":9204:9379   */\n      pop\n      jump\t// out\n        /* \"#utility.yul\":9385:9751   */\n    tag_285:\n        /* \"#utility.yul\":9527:9530   */\n      0x00\n        /* \"#utility.yul\":9548:9615   */\n      tag_401\n        /* \"#utility.yul\":9612:9614   */\n      0x19\n        /* \"#utility.yul\":9607:9610   */\n      dup4\n        /* \"#utility.yul\":9548:9615   */\n      tag_260\n      jump\t// in\n    tag_401:\n        /* \"#utility.yul\":9541:9615   */\n      swap2\n      pop\n        /* \"#utility.yul\":9624:9717   */\n      tag_402\n        /* \"#utility.yul\":9713:9716   */\n      dup3\n        /* \"#utility.yul\":9624:9717   */\n      tag_284\n      jump\t// in\n    tag_402:\n        /* \"#utility.yul\":9742:9744   */\n      0x20\n        /* \"#utility.yul\":9737:9740   */\n      dup3\n        /* \"#utility.yul\":9733:9745   */\n      add\n        /* \"#utility.yul\":9726:9745   */\n      swap1\n      pop\n        /* \"#utility.yul\":9385:9751   */\n      swap2\n      swap1\n      pop\n      jump\t// out\n        /* \"#utility.yul\":9757:10176   */\n    tag_115:\n        /* \"#utility.yul\":9923:9927   */\n      0x00\n        /* \"#utility.yul\":9961:9963   */\n      0x20\n        /* \"#utility.yul\":9950:9959   */\n      dup3\n        /* \"#utility.yul\":9946:9964   */\n      add\n        /* \"#utility.yul\":9938:9964   */\n      swap1\n      pop\n        /* \"#utility.yul\":10010:10019   */\n      dup2\n        /* \"#utility.yul\":10004:10008   */\n      dup2\n        /* \"#utility.yul\":10000:10020   */\n      sub\n        /* \"#utility.yul\":9996:9997   */\n      0x00\n        /* \"#utility.yul\":9985:9994   */\n      dup4\n        /* \"#utility.yul\":9981:9998   */\n      add\n        /* \"#utility.yul\":9974:10021   */\n      mstore\n        /* \"#utility.yul\":10038:10169   */\n      tag_404\n        /* \"#utility.yul\":10164:10168   */\n      dup2\n        /* \"#utility.yul\":10038:10169   */\n      tag_285\n      jump\t// in\n    tag_404:\n        /* \"#utility.yul\":10030:10169   */\n      swap1\n      pop\n        /* \"#utility.yul\":9757:10176   */\n      swap2\n      swap1\n      pop\n      jump\t// out\n        /* \"#utility.yul\":10182:10352   */\n    tag_286:\n        /* \"#utility.yul\":10322:10344   */\n      0x496e73756666696369656e742062616c616e6365000000000000000000000000\n        /* \"#utility.yul\":10318:10319   */\n      0x00\n        /* \"#utility.yul\":10310:10316   */\n      dup3\n        /* \"#utility.yul\":10306:10320   */\n      add\n        /* \"#utility.yul\":10299:10345   */\n      mstore\n        /* \"#utility.yul\":10182:10352   */\n      pop\n      jump\t// out\n        /* \"#utility.yul\":10358:10724   */\n    tag_287:\n        /* \"#utility.yul\":10500:10503   */\n      0x00\n        /* \"#utility.yul\":10521:10588   */\n      tag_407\n        /* \"#utility.yul\":10585:10587   */\n      0x14\n        /* \"#utility.yul\":10580:10583   */\n      dup4\n        /* \"#utility.yul\":10521:10588   */\n      tag_260\n      jump\t// in\n    tag_407:\n        /* \"#utility.yul\":10514:10588   */\n      swap2\n      pop\n        /* \"#utility.yul\":10597:10690   */\n      tag_408\n        /* \"#utility.yul\":10686:10689   */\n      dup3\n        /* \"#utility.yul\":10597:10690   */\n      tag_286\n      jump\t// in\n    tag_408:\n        /* \"#utility.yul\":10715:10717   */\n      0x20\n        /* \"#utility.yul\":10710:10713   */\n      dup3\n        /* \"#utility.yul\":10706:10718   */\n      add\n        /* \"#utility.yul\":10699:10718   */\n      swap1\n      pop\n        /* \"#utility.yul\":10358:10724   */\n      swap2\n      swap1\n      pop\n      jump\t// out\n        /* \"#utility.yul\":10730:11149   */\n    tag_119:\n        /* \"#utility.yul\":10896:10900   */\n      0x00\n        /* \"#utility.yul\":10934:10936   */\n      0x20\n        /* \"#utility.yul\":10923:10932   */\n      dup3\n        /* \"#utility.yul\":10919:10937   */\n      add\n        /* \"#utility.yul\":10911:10937   */\n      swap1\n      pop\n        /* \"#utility.yul\":10983:10992   */\n      dup2\n        /* \"#utility.yul\":10977:10981   */\n      dup2\n        /* \"#utility.yul\":10973:10993   */\n      sub\n        /* \"#utility.yul\":10969:10970   */\n      0x00\n        /* \"#utility.yul\":10958:10967   */\n      dup4\n        /* \"#utility.yul\":10954:10971   */\n      add\n        /* \"#utility.yul\":10947:10994   */\n      mstore\n        /* \"#utility.yul\":11011:11142   */\n      tag_410\n        /* \"#utility.yul\":11137:11141   */\n      dup2\n        /* \"#utility.yul\":11011:11142   */\n      tag_287\n      jump\t// in\n    tag_410:\n        /* \"#utility.yul\":11003:11142   */\n      swap1\n      pop\n        /* \"#utility.yul\":10730:11149   */\n      swap2\n      swap1\n      pop\n      jump\t// out\n        /* \"#utility.yul\":11155:11346   */\n    tag_123:\n        /* \"#utility.yul\":11195:11198   */\n      0x00\n        /* \"#utility.yul\":11214:11234   */\n      tag_412\n        /* \"#utility.yul\":11232:11233   */\n      dup3\n        /* \"#utility.yul\":11214:11234   */\n      tag_271\n      jump\t// in\n    tag_412:\n        /* \"#utility.yul\":11209:11234   */\n      swap2\n      pop\n        /* \"#utility.yul\":11248:11268   */\n      tag_413\n        /* \"#utility.yul\":11266:11267   */\n      dup4\n        /* \"#utility.yul\":11248:11268   */\n      tag_271\n      jump\t// in\n    tag_413:\n        /* \"#utility.yul\":11243:11268   */\n      swap3\n      pop\n        /* \"#utility.yul\":11291:11292   */\n      dup3\n        /* \"#utility.yul\":11288:11289   */\n      dup3\n        /* \"#utility.yul\":11284:11293   */\n      add\n        /* \"#utility.yul\":11277:11293   */\n      swap1\n      pop\n        /* \"#utility.yul\":11312:11315   */\n      dup1\n        /* \"#utility.yul\":11309:11310   */\n      dup3\n        /* \"#utility.yul\":11306:11316   */\n      gt\n        /* \"#utility.yul\":11303:11339   */\n      iszero\n      tag_414\n      jumpi\n        /* \"#utility.yul\":11319:11337   */\n      tag_415\n      tag_283\n      jump\t// in\n    tag_415:\n        /* \"#utility.yul\":11303:11339   */\n    tag_414:\n        /* \"#utility.yul\":11155:11346   */\n      swap3\n      swap2\n      pop\n      pop\n      jump\t// out\n        /* \"#utility.yul\":11352:11585   */\n    tag_125:\n        /* \"#utility.yul\":11391:11394   */\n      0x00\n        /* \"#utility.yul\":11414:11438   */\n      tag_417\n        /* \"#utility.yul\":11432:11437   */\n      dup3\n        /* \"#utility.yul\":11414:11438   */\n      tag_271\n      jump\t// in\n    tag_417:\n        /* \"#utility.yul\":11405:11438   */\n      swap2\n      pop\n        /* \"#utility.yul\":11460:11526   */\n      0xffffffffffffffffffffffffffffffffffffffffffffffffffffffffffffffff\n        /* \"#utility.yul\":11453:11458   */\n      dup3\n        /* \"#utility.yul\":11450:11527   */\n      sub\n        /* \"#utility.yul\":11447:11550   */\n      tag_418\n      jumpi\n        /* \"#utility.yul\":11530:11548   */\n      tag_419\n      tag_283\n      jump\t// in\n    tag_419:\n        /* \"#utility.yul\":11447:11550   */\n    tag_418:\n        /* \"#utility.yul\":11577:11578   */\n      0x01\n        /* \"#utility.yul\":11570:11575   */\n      dup3\n        /* \"#utility.yul\":11566:11579   */\n      add\n        /* \"#utility.yul\":11559:11579   */\n      swap1\n      pop\n        /* \"#utility.yul\":11352:11585   */\n      swap2\n      swap1\n      pop\n      jump\t// out\n        /* \"#utility.yul\":11591:11771   */\n    tag_130:\n        /* \"#utility.yul\":11639:11716   */\n      0x4e487b7100000000000000000000000000000000000000000000000000000000\n        /* \"#utility.yul\":11636:11637   */\n      0x00\n        /* \"#utility.yul\":11629:11717   */\n      mstore\n        /* \"#utility.yul\":11736:11740   */\n      0x21\n        /* \"#utility.yul\":11733:11734   */\n      0x04\n        /* \"#utility.yul\":11726:11741   */\n      mstore\n        /* \"#utility.yul\":11760:11764   */\n      0x24\n        /* \"#utility.yul\":11757:11758   */\n      0x00\n        /* \"#utility.yul\":11750:11765   */\n      revert\n        /* \"#utility.yul\":11777:11899   */\n    tag_288:\n        /* \"#utility.yul\":11867:11868   */\n      0x04\n        /* \"#utility.yul\":11860:11865   */\n      dup2\n        /* \"#utility.yul\":11857:11869   */\n      lt\n        /* \"#utility.yul\":11847:11893   */\n      tag_422\n      jumpi\n        /* \"#utility.yul\":11873:11891   */\n      tag_423\n      tag_130\n      jump\t// in\n    tag_423:\n        /* \"#utility.yul\":11847:11893   */\n    tag_422:\n        /* \"#utility.yul\":11777:11899   */\n      pop\n      jump\t// out\n        /* \"#utility.yul\":11905:12050   */\n    tag_289:\n        /* \"#utility.yul\":11959:11966   */\n      0x00\n        /* \"#utility.yul\":11988:11993   */\n      dup2\n        /* \"#utility.yul\":11977:11993   */\n      swap1\n      pop\n        /* \"#utility.yul\":11994:12044   */\n      tag_425\n        /* \"#utility.yul\":12038:12043   */\n      dup3\n        /* \"#utility.yul\":11994:12044   */\n      tag_288\n      jump\t// in\n    tag_425:\n        /* \"#utility.yul\":11905:12050   */\n      swap2\n      swap1\n      pop\n      jump\t// out\n        /* \"#utility.yul\":12056:12201   */\n    tag_290:\n        /* \"#utility.yul\":12121:12130   */\n      0x00\n        /* \"#utility.yul\":12154:12195   */\n      tag_427\n        /* \"#utility.yul\":12189:12194   */\n      dup3\n        /* \"#utility.yul\":12154:12195   */\n      tag_289\n      jump\t// in\n    tag_427:\n        /* \"#utility.yul\":12141:12195   */\n      swap1\n      pop\n        /* \"#utility.yul\":12056:12201   */\n      swap2\n      swap1\n      pop\n      jump\t// out\n        /* \"#utility.yul\":12207:12368   */\n    tag_291:\n        /* \"#utility.yul\":12309:12361   */\n      tag_429\n        /* \"#utility.yul\":12355:12360   */\n      dup2\n        /* \"#utility.yul\":12309:12361   */\n      tag_290\n      jump\t// in\n    tag_429:\n        /* \"#utility.yul\":12304:12307   */\n      dup3\n        /* \"#utility.yul\":12297:12362   */\n      mstore\n        /* \"#utility.yul\":12207:12368   */\n      pop\n      pop\n      jump\t// out\n        /* \"#utility.yul\":12374:12957   */\n    tag_127:\n        /* \"#utility.yul\":12566:12570   */\n      0x00\n        /* \"#utility.yul\":12604:12607   */\n      0x80\n        /* \"#utility.yul\":12593:12602   */\n      dup3\n        /* \"#utility.yul\":12589:12608   */\n      add\n        /* \"#utility.yul\":12581:12608   */\n      swap1\n      pop\n        /* \"#utility.yul\":12618:12689   */\n      tag_431\n        /* \"#utility.yul\":12686:12687   */\n      0x00\n        /* \"#utility.yul\":12675:12684   */\n      dup4\n        /* \"#utility.yul\":12671:12688   */\n      add\n        /* \"#utility.yul\":12662:12668   */\n      dup8\n        /* \"#utility.yul\":12618:12689   */\n      tag_278\n      jump\t// in\n    tag_431:\n        /* \"#utility.yul\":12699:12786   */\n      tag_432\n        /* \"#utility.yul\":12782:12784   */\n      0x20\n        /* \"#utility.yul\":12771:12780   */\n      dup4\n        /* \"#utility.yul\":12767:12785   */\n      add\n        /* \"#utility.yul\":12758:12764   */\n      dup7\n        /* \"#utility.yul\":12699:12786   */\n      tag_291\n      jump\t// in\n    tag_432:\n        /* \"#utility.yul\":12796:12868   */\n      tag_433\n        /* \"#utility.yul\":12864:12866   */\n      0x40\n        /* \"#utility.yul\":12853:12862   */\n      dup4\n        /* \"#utility.yul\":12849:12867   */\n      add\n        /* \"#utility.yul\":12840:12846   */\n      dup6\n        /* \"#utility.yul\":12796:12868   */\n      tag_278\n      jump\t// in\n    tag_433:\n        /* \"#utility.yul\":12878:12950   */\n      tag_434\n        /* \"#utility.yul\":12946:12948   */\n      0x60\n        /* \"#utility.yul\":12935:12944   */\n      dup4\n        /* \"#utility.yul\":12931:12949   */\n      add\n        /* \"#utility.yul\":12922:12928   */\n      dup5\n        /* \"#utility.yul\":12878:12950   */\n      tag_278\n      jump\t// in\n    tag_434:\n        /* \"#utility.yul\":12374:12957   */\n      swap6\n      swap5\n      pop\n      pop\n      pop\n      pop\n      pop\n      jump\t// out\n        /* \"#utility.yul\":12963:13143   */\n    tag_292:\n        /* \"#utility.yul\":13011:13088   */\n      0x4e487b7100000000000000000000000000000000000000000000000000000000\n        /* \"#utility.yul\":13008:13009   */\n      0x00\n        /* \"#utility.yul\":13001:13089   */\n      mstore\n        /* \"#utility.yul\":13108:13112   */\n      0x12\n        /* \"#utility.yul\":13105:13106   */\n      0x04\n        /* \"#utility.yul\":13098:13113   */\n      mstore\n        /* \"#utility.yul\":13132:13136   */\n      0x24\n        /* \"#utility.yul\":13129:13130   */\n      0x00\n        /* \"#utility.yul\":13122:13137   */\n      revert\n        /* \"#utility.yul\":13149:13334   */\n    tag_136:\n        /* \"#utility.yul\":13189:13190   */\n      0x00\n        /* \"#utility.yul\":13206:13226   */\n      tag_437\n        /* \"#utility.yul\":13224:13225   */\n      dup3\n        /* \"#utility.yul\":13206:13226   */\n      tag_271\n      jump\t// in\n    tag_437:\n        /* \"#utility.yul\":13201:13226   */\n      swap2\n      pop\n        /* \"#utility.yul\":13240:13260   */\n      tag_438\n        /* \"#utility.yul\":13258:13259   */\n      dup4\n        /* \"#utility.yul\":13240:13260   */\n      tag_271\n      jump\t// in\n    tag_438:\n        /* \"#utility.yul\":13235:13260   */\n      swap3\n      pop\n        /* \"#utility.yul\":13279:13280   */\n      dup3\n        /* \"#utility.yul\":13269:13304   */\n      tag_439\n      jumpi\n        /* \"#utility.yul\":13284:13302   */\n      tag_440\n      tag_292\n      jump\t// in\n    tag_440:\n        /* \"#utility.yul\":13269:13304   */\n    tag_439:\n        /* \"#utility.yul\":13326:13327   */\n      dup3\n        /* \"#utility.yul\":13323:13324   */\n      dup3\n        /* \"#utility.yul\":13319:13328   */\n      div\n        /* \"#utility.yul\":13314:13328   */\n      swap1\n      pop\n        /* \"#utility.yul\":13149:13334   */\n      swap3\n      swap2\n      pop\n      pop\n      jump\t// out\n        /* \"#utility.yul\":13340:13567   */\n    tag_293:\n        /* \"#utility.yul\":13480:13514   */\n      0x5374616b65206973206e6f7420616374697665206f7220616c72656164792077\n        /* \"#utility.yul\":13476:13477   */\n      0x00\n        /* \"#utility.yul\":13468:13474   */\n      dup3\n        /* \"#utility.yul\":13464:13478   */\n      add\n        /* \"#utility.yul\":13457:13515   */\n      mstore\n        /* \"#utility.yul\":13549:13559   */\n      0x697468647261776e000000000000000000000000000000000000000000000000\n        /* \"#utility.yul\":13544:13546   */\n      0x20\n        /* \"#utility.yul\":13536:13542   */\n      dup3\n        /* \"#utility.yul\":13532:13547   */\n      add\n        /* \"#utility.yul\":13525:13560   */\n      mstore\n        /* \"#utility.yul\":13340:13567   */\n      pop\n      jump\t// out\n        /* \"#utility.yul\":13573:13939   */\n    tag_294:\n        /* \"#utility.yul\":13715:13718   */\n      0x00\n        /* \"#utility.yul\":13736:13803   */\n      tag_443\n        /* \"#utility.yul\":13800:13802   */\n      0x28\n        /* \"#utility.yul\":13795:13798   */\n      dup4\n        /* \"#utility.yul\":13736:13803   */\n      tag_260\n      jump\t// in\n    tag_443:\n        /* \"#utility.yul\":13729:13803   */\n      swap2\n      pop\n        /* \"#utility.yul\":13812:13905   */\n      tag_444\n        /* \"#utility.yul\":13901:13904   */\n      dup3\n        /* \"#utility.yul\":13812:13905   */\n      tag_293\n      jump\t// in\n    tag_444:\n        /* \"#utility.yul\":13930:13932   */\n      0x40\n        /* \"#utility.yul\":13925:13928   */\n      dup3\n        /* \"#utility.yul\":13921:13933   */\n      add\n        /* \"#utility.yul\":13914:13933   */\n      swap1\n      pop\n        /* \"#utility.yul\":13573:13939   */\n      swap2\n      swap1\n      pop\n      jump\t// out\n        /* \"#utility.yul\":13945:14364   */\n    tag_147:\n        /* \"#utility.yul\":14111:14115   */\n      0x00\n        /* \"#utility.yul\":14149:14151   */\n      0x20\n        /* \"#utility.yul\":14138:14147   */\n      dup3\n        /* \"#utility.yul\":14134:14152   */\n      add\n        /* \"#utility.yul\":14126:14152   */\n      swap1\n      pop\n        /* \"#utility.yul\":14198:14207   */\n      dup2\n        /* \"#utility.yul\":14192:14196   */\n      dup2\n        /* \"#utility.yul\":14188:14208   */\n      sub\n        /* \"#utility.yul\":14184:14185   */\n      0x00\n        /* \"#utility.yul\":14173:14182   */\n      dup4\n        /* \"#utility.yul\":14169:14186   */\n      add\n        /* \"#utility.yul\":14162:14209   */\n      mstore\n        /* \"#utility.yul\":14226:14357   */\n      tag_446\n        /* \"#utility.yul\":14352:14356   */\n      dup2\n        /* \"#utility.yul\":14226:14357   */\n      tag_294\n      jump\t// in\n    tag_446:\n        /* \"#utility.yul\":14218:14357   */\n      swap1\n      pop\n        /* \"#utility.yul\":13945:14364   */\n      swap2\n      swap1\n      pop\n      jump\t// out\n        /* \"#utility.yul\":14370:14545   */\n    tag_295:\n        /* \"#utility.yul\":14510:14537   */\n      0x5374616b6520706572696f64206973206e6f7420656e64656400000000000000\n        /* \"#utility.yul\":14506:14507   */\n      0x00\n        /* \"#utility.yul\":14498:14504   */\n      dup3\n        /* \"#utility.yul\":14494:14508   */\n      add\n        /* \"#utility.yul\":14487:14538   */\n      mstore\n        /* \"#utility.yul\":14370:14545   */\n      pop\n      jump\t// out\n        /* \"#utility.yul\":14551:14917   */\n    tag_296:\n        /* \"#utility.yul\":14693:14696   */\n      0x00\n        /* \"#utility.yul\":14714:14781   */\n      tag_449\n        /* \"#utility.yul\":14778:14780   */\n      0x19\n        /* \"#utility.yul\":14773:14776   */\n      dup4\n        /* \"#utility.yul\":14714:14781   */\n      tag_260\n      jump\t// in\n    tag_449:\n        /* \"#utility.yul\":14707:14781   */\n      swap2\n      pop\n        /* \"#utility.yul\":14790:14883   */\n      tag_450\n        /* \"#utility.yul\":14879:14882   */\n      dup3\n        /* \"#utility.yul\":14790:14883   */\n      tag_295\n      jump\t// in\n    tag_450:\n        /* \"#utility.yul\":14908:14910   */\n      0x20\n        /* \"#utility.yul\":14903:14906   */\n      dup3\n        /* \"#utility.yul\":14899:14911   */\n      add\n        /* \"#utility.yul\":14892:14911   */\n      swap1\n      pop\n        /* \"#utility.yul\":14551:14917   */\n      swap2\n      swap1\n      pop\n      jump\t// out\n        /* \"#utility.yul\":14923:15342   */\n    tag_150:\n        /* \"#utility.yul\":15089:15093   */\n      0x00\n        /* \"#utility.yul\":15127:15129   */\n      0x20\n        /* \"#utility.yul\":15116:15125   */\n      dup3\n        /* \"#utility.yul\":15112:15130   */\n      add\n        /* \"#utility.yul\":15104:15130   */\n      swap1\n      pop\n        /* \"#utility.yul\":15176:15185   */\n      dup2\n        /* \"#utility.yul\":15170:15174   */\n      dup2\n        /* \"#utility.yul\":15166:15186   */\n      sub\n        /* \"#utility.yul\":15162:15163   */\n      0x00\n        /* \"#utility.yul\":15151:15160   */\n      dup4\n        /* \"#utility.yul\":15147:15164   */\n      add\n        /* \"#utility.yul\":15140:15187   */\n      mstore\n        /* \"#utility.yul\":15204:15335   */\n      tag_452\n        /* \"#utility.yul\":15330:15334   */\n      dup2\n        /* \"#utility.yul\":15204:15335   */\n      tag_296\n      jump\t// in\n    tag_452:\n        /* \"#utility.yul\":15196:15335   */\n      swap1\n      pop\n        /* \"#utility.yul\":14923:15342   */\n      swap2\n      swap1\n      pop\n      jump\t// out\n        /* \"#utility.yul\":15348:15680   */\n    tag_156:\n        /* \"#utility.yul\":15469:15473   */\n      0x00\n        /* \"#utility.yul\":15507:15509   */\n      0x40\n        /* \"#utility.yul\":15496:15505   */\n      dup3\n        /* \"#utility.yul\":15492:15510   */\n      add\n        /* \"#utility.yul\":15484:15510   */\n      swap1\n      pop\n        /* \"#utility.yul\":15520:15591   */\n      tag_454\n        /* \"#utility.yul\":15588:15589   */\n      0x00\n        /* \"#utility.yul\":15577:15586   */\n      dup4\n        /* \"#utility.yul\":15573:15590   */\n      add\n        /* \"#utility.yul\":15564:15570   */\n      dup6\n        /* \"#utility.yul\":15520:15591   */\n      tag_278\n      jump\t// in\n    tag_454:\n        /* \"#utility.yul\":15601:15673   */\n      tag_455\n        /* \"#utility.yul\":15669:15671   */\n      0x20\n        /* \"#utility.yul\":15658:15667   */\n      dup4\n        /* \"#utility.yul\":15654:15672   */\n      add\n        /* \"#utility.yul\":15645:15651   */\n      dup5\n        /* \"#utility.yul\":15601:15673   */\n      tag_278\n      jump\t// in\n    tag_455:\n        /* \"#utility.yul\":15348:15680   */\n      swap4\n      swap3\n      pop\n      pop\n      pop\n      jump\t// out\n        /* \"#utility.yul\":15686:16128   */\n    tag_223:\n        /* \"#utility.yul\":15835:15839   */\n      0x00\n        /* \"#utility.yul\":15873:15875   */\n      0x60\n        /* \"#utility.yul\":15862:15871   */\n      dup3\n        /* \"#utility.yul\":15858:15876   */\n      add\n        /* \"#utility.yul\":15850:15876   */\n      swap1\n      pop\n        /* \"#utility.yul\":15886:15957   */\n      tag_457\n        /* \"#utility.yul\":15954:15955   */\n      0x00\n        /* \"#utility.yul\":15943:15952   */\n      dup4\n        /* \"#utility.yul\":15939:15956   */\n      add\n        /* \"#utility.yul\":15930:15936   */\n      dup7\n        /* \"#utility.yul\":15886:15957   */\n      tag_281\n      jump\t// in\n    tag_457:\n        /* \"#utility.yul\":15967:16039   */\n      tag_458\n        /* \"#utility.yul\":16035:16037   */\n      0x20\n        /* \"#utility.yul\":16024:16033   */\n      dup4\n        /* \"#utility.yul\":16020:16038   */\n      add\n        /* \"#utility.yul\":16011:16017   */\n      dup6\n        /* \"#utility.yul\":15967:16039   */\n      tag_278\n      jump\t// in\n    tag_458:\n        /* \"#utility.yul\":16049:16121   */\n      tag_459\n        /* \"#utility.yul\":16117:16119   */\n      0x40\n        /* \"#utility.yul\":16106:16115   */\n      dup4\n        /* \"#utility.yul\":16102:16120   */\n      add\n        /* \"#utility.yul\":16093:16099   */\n      dup5\n        /* \"#utility.yul\":16049:16121   */\n      tag_278\n      jump\t// in\n    tag_459:\n        /* \"#utility.yul\":15686:16128   */\n      swap5\n      swap4\n      pop\n      pop\n      pop\n      pop\n      jump\t// out\n\n    auxdata: 0xa2646970667358221220c55a8108b0eeffc0f33db23a663d2f6a03e6cad610e7a5a210ea3fa6d0615d8364736f6c634300081e0033\n}\n",
				"bytecode": {
					"linkReferences": {},
					"object": "608060405234801561000f575f5ffd5b50604051612a39380380612a39833981810160405281019061003191906106e9565b33838381600390816100439190610978565b5080600490816100539190610978565b5050505f73ffffffffffffffffffffffffffffffffffffffff168173ffffffffffffffffffffffffffffffffffffffff16036100c6575f6040517f1e4fbdf70000000000000000000000000000000000000000000000000000000081526004016100bd9190610a86565b60405180910390fd5b6100d58161020060201b60201c565b5061010a336100e86102c360201b60201c565b600a6100f49190610c07565b836100ff9190610c51565b6102cb60201b60201c565b600a60065f5f600381111561012257610121610c92565b5b600381111561013457610133610c92565b5b81526020019081526020015f2081905550600f60065f6001600381111561015e5761015d610c92565b5b60038111156101705761016f610c92565b5b81526020019081526020015f2081905550601460065f6002600381111561019a57610199610c92565b5b60038111156101ac576101ab610c92565b5b81526020019081526020015f2081905550601960065f6003808111156101d5576101d4610c92565b5b60038111156101e7576101e6610c92565b5b81526020019081526020015f2081905550505050610d4f565b5f60055f9054906101000a900473ffffffffffffffffffffffffffffffffffffffff1690508160055f6101000a81548173ffffffffffffffffffffffffffffffffffffffff021916908373ffffffffffffffffffffffffffffffffffffffff1602179055508173ffffffffffffffffffffffffffffffffffffffff168173ffffffffffffffffffffffffffffffffffffffff167f8be0079c531659141344cd1fd0a4f28419497f9722a3daafe3b4186f6b6457e060405160405180910390a35050565b5f6012905090565b5f73ffffffffffffffffffffffffffffffffffffffff168273ffffffffffffffffffffffffffffffffffffffff160361033b575f6040517fec442f050000000000000000000000000000000000000000000000000000000081526004016103329190610a86565b60405180910390fd5b61034c5f838361035060201b60201c565b5050565b5f73ffffffffffffffffffffffffffffffffffffffff168373ffffffffffffffffffffffffffffffffffffffff16036103a0578060025f8282546103949190610cbf565b9250508190555061046e565b5f5f5f8573ffffffffffffffffffffffffffffffffffffffff1673ffffffffffffffffffffffffffffffffffffffff1681526020019081526020015f2054905081811015610429578381836040517fe450d38c00000000000000000000000000000000000000000000000000000000815260040161042093929190610d01565b60405180910390fd5b8181035f5f8673ffffffffffffffffffffffffffffffffffffffff1673ffffffffffffffffffffffffffffffffffffffff1681526020019081526020015f2081905550505b5f73ffffffffffffffffffffffffffffffffffffffff168273ffffffffffffffffffffffffffffffffffffffff16036104b5578060025f82825403925050819055506104ff565b805f5f8473ffffffffffffffffffffffffffffffffffffffff1673ffffffffffffffffffffffffffffffffffffffff1681526020019081526020015f205f82825401925050819055505b8173ffffffffffffffffffffffffffffffffffffffff168373ffffffffffffffffffffffffffffffffffffffff167fddf252ad1be2c89b69c2b068fc378daa952ba7f163c4a11628f55a4df523b3ef8360405161055c9190610d36565b60405180910390a3505050565b5f604051905090565b5f5ffd5b5f5ffd5b5f5ffd5b5f5ffd5b5f601f19601f8301169050919050565b7f4e487b71000000000000000000000000000000000000000000000000000000005f52604160045260245ffd5b6105c882610582565b810181811067ffffffffffffffff821117156105e7576105e6610592565b5b80604052505050565b5f6105f9610569565b905061060582826105bf565b919050565b5f67ffffffffffffffff82111561062457610623610592565b5b61062d82610582565b9050602081019050919050565b8281835e5f83830152505050565b5f61065a6106558461060a565b6105f0565b9050828152602081018484840111156106765761067561057e565b5b61068184828561063a565b509392505050565b5f82601f83011261069d5761069c61057a565b5b81516106ad848260208601610648565b91505092915050565b5f819050919050565b6106c8816106b6565b81146106d2575f5ffd5b50565b5f815190506106e3816106bf565b92915050565b5f5f5f60608486031215610700576106ff610572565b5b5f84015167ffffffffffffffff81111561071d5761071c610576565b5b61072986828701610689565b935050602084015167ffffffffffffffff81111561074a57610749610576565b5b61075686828701610689565b9250506040610767868287016106d5565b9150509250925092565b5f81519050919050565b7f4e487b71000000000000000000000000000000000000000000000000000000005f52602260045260245ffd5b5f60028204905060018216806107bf57607f821691505b6020821081036107d2576107d161077b565b5b50919050565b5f819050815f5260205f209050919050565b5f6020601f8301049050919050565b5f82821b905092915050565b5f600883026108347fffffffffffffffffffffffffffffffffffffffffffffffffffffffffffffffff826107f9565b61083e86836107f9565b95508019841693508086168417925050509392505050565b5f819050919050565b5f61087961087461086f846106b6565b610856565b6106b6565b9050919050565b5f819050919050565b6108928361085f565b6108a661089e82610880565b848454610805565b825550505050565b5f5f905090565b6108bd6108ae565b6108c8818484610889565b505050565b5b818110156108eb576108e05f826108b5565b6001810190506108ce565b5050565b601f82111561093057610901816107d8565b61090a846107ea565b81016020851015610919578190505b61092d610925856107ea565b8301826108cd565b50505b505050565b5f82821c905092915050565b5f6109505f1984600802610935565b1980831691505092915050565b5f6109688383610941565b9150826002028217905092915050565b61098182610771565b67ffffffffffffffff81111561099a57610999610592565b5b6109a482546107a8565b6109af8282856108ef565b5f60209050601f8311600181146109e0575f84156109ce578287015190505b6109d8858261095d565b865550610a3f565b601f1984166109ee866107d8565b5f5b82811015610a15578489015182556001820191506020850194506020810190506109f0565b86831015610a325784890151610a2e601f891682610941565b8355505b6001600288020188555050505b505050505050565b5f73ffffffffffffffffffffffffffffffffffffffff82169050919050565b5f610a7082610a47565b9050919050565b610a8081610a66565b82525050565b5f602082019050610a995f830184610a77565b92915050565b7f4e487b71000000000000000000000000000000000000000000000000000000005f52601160045260245ffd5b5f8160011c9050919050565b5f5f8291508390505b6001851115610b2157808604811115610afd57610afc610a9f565b5b6001851615610b0c5780820291505b8081029050610b1a85610acc565b9450610ae1565b94509492505050565b5f82610b395760019050610bf4565b81610b46575f9050610bf4565b8160018114610b5c5760028114610b6657610b95565b6001915050610bf4565b60ff841115610b7857610b77610a9f565b5b8360020a915084821115610b8f57610b8e610a9f565b5b50610bf4565b5060208310610133831016604e8410600b8410161715610bca5782820a905083811115610bc557610bc4610a9f565b5b610bf4565b610bd78484846001610ad8565b92509050818404811115610bee57610bed610a9f565b5b81810290505b9392505050565b5f60ff82169050919050565b5f610c11826106b6565b9150610c1c83610bfb565b9250610c497fffffffffffffffffffffffffffffffffffffffffffffffffffffffffffffffff8484610b2a565b905092915050565b5f610c5b826106b6565b9150610c66836106b6565b9250828202610c74816106b6565b91508282048414831517610c8b57610c8a610a9f565b5b5092915050565b7f4e487b71000000000000000000000000000000000000000000000000000000005f52602160045260245ffd5b5f610cc9826106b6565b9150610cd4836106b6565b9250828201905080821115610cec57610ceb610a9f565b5b92915050565b610cfb816106b6565b82525050565b5f606082019050610d145f830186610a77565b610d216020830185610cf2565b610d2e6040830184610cf2565b949350505050565b5f602082019050610d495f830184610cf2565b92915050565b611cdd80610d5c5f395ff3fe608060405234801561000f575f5ffd5b5060043610610114575f3560e01c806370a08231116100a057806395d89b411161006f57806395d89b41146102de578063a9059cbb146102fc578063b5d5b5fa1461032c578063dd62ed3e14610360578063f2fde38b1461039057610114565b806370a0823114610256578063715018a614610286578063762e54fc146102905780638da5cb5b146102c057610114565b80631f1accb2116100e75780631f1accb2146101a057806323b872dd146101d05780632e1a7d4d14610200578063313ce5671461021c57806340c10f191461023a57610114565b806306fdde0314610118578063095ea7b31461013657806310087fb11461016657806318160ddd14610182575b5f5ffd5b6101206103ac565b60405161012d91906114c6565b60405180910390f35b610150600480360381019061014b9190611577565b61043c565b60405161015d91906115cf565b60405180910390f35b610180600480360381019061017b919061160b565b61045e565b005b61018a610701565b6040516101979190611658565b60405180910390f35b6101ba60048036038101906101b59190611671565b61070a565b6040516101c79190611658565b60405180910390f35b6101ea60048036038101906101e5919061169c565b61071f565b6040516101f791906115cf565b60405180910390f35b61021a600480360381019061021591906116ec565b61074d565b005b6102246108eb565b6040516102319190611732565b60405180910390f35b610254600480360381019061024f9190611577565b6108f3565b005b610270600480360381019061026b919061174b565b610909565b60405161027d9190611658565b60405180910390f35b61028e61094e565b005b6102aa60048036038101906102a5919061174b565b610961565b6040516102b79190611658565b60405180910390f35b6102c8610976565b6040516102d59190611785565b60405180910390f35b6102e661099e565b6040516102f391906114c6565b60405180910390f35b61031660048036038101906103119190611577565b610a2e565b60405161032391906115cf565b60405180910390f35b61034660048036038101906103419190611577565b610a50565b60405161035795949392919061179e565b60405180910390f35b61037a600480360381019061037591906117ef565b610a99565b6040516103879190611658565b60405180910390f35b6103aa60048036038101906103a5919061174b565b610b1b565b005b6060600380546103bb9061185a565b80601f01602080910402602001604051908101604052809291908181526020018280546103e79061185a565b80156104325780601f1061040957610100808354040283529160200191610432565b820191905f5260205f20905b81548152906001019060200180831161041557829003601f168201915b5050505050905090565b5f5f610446610b9f565b9050610453818585610ba6565b600191505092915050565b5f670de0b6b3a76400008361047391906118b7565b90505f83116104b7576040517f08c379a00000000000000000000000000000000000000000000000000000000081526004016104ae90611942565b60405180910390fd5b806104c133610909565b1015610502576040517f08c379a00000000000000000000000000000000000000000000000000000000081526004016104f9906119aa565b60405180910390fd5b5f61050c83610bb8565b90505f816020015190505f825f015190505f4290505f838261052e91906119c8565b90505f60085f3373ffffffffffffffffffffffffffffffffffffffff1673ffffffffffffffffffffffffffffffffffffffff1681526020019081526020015f205f81548092919061057e906119fb565b9190505590503373ffffffffffffffffffffffffffffffffffffffff167f022dd619ee0d92140e5abde105761d6df71c05c4fcb761610ea0552064f91e6c8a8a85856040516105d09493929190611ab5565b60405180910390a26040518060a001604052808a8152602001848152602001838152602001610168670de0b6b3a76400008760065f8e600381111561061857610617611a42565b5b600381111561062a57610629611a42565b5b81526020019081526020015f205461064291906118b7565b61064c91906118b7565b6106569190611b25565b81526020016001151581525060075f3373ffffffffffffffffffffffffffffffffffffffff1673ffffffffffffffffffffffffffffffffffffffff1681526020019081526020015f205f8381526020019081526020015f205f820151815f01556020820151816001015560408201518160020155606082015181600301556080820151816004015f6101000a81548160ff021916908315150217905550905050505050505050505050565b5f600254905090565b6006602052805f5260405f205f915090505481565b5f5f610729610b9f565b9050610736858285610d0a565b610741858585610d9d565b60019150509392505050565b5f60075f3373ffffffffffffffffffffffffffffffffffffffff1673ffffffffffffffffffffffffffffffffffffffff1681526020019081526020015f205f8381526020019081526020015f209050806004015f9054906101000a900460ff166107ec576040517f08c379a00000000000000000000000000000000000000000000000000000000081526004016107e390611bc5565b60405180910390fd5b8060020154421015610833576040517f08c379a000000000000000000000000000000000000000000000000000000000815260040161082a90611c2d565b60405180910390fd5b5f670de0b6b3a764000060648360030154845f015461085291906118b7565b61085c9190611b25565b6108669190611b25565b90505f81835f015461087891906119c8565b90505f836004015f6101000a81548160ff0219169083151502179055503373ffffffffffffffffffffffffffffffffffffffff167f92ccf450a286a957af52509bc1c9939d1a6a481783e142e41e2499f0bb66ebc682866040516108dd929190611c4b565b60405180910390a250505050565b5f6012905090565b6108fb610e8d565b6109058282610f14565b5050565b5f5f5f8373ffffffffffffffffffffffffffffffffffffffff1673ffffffffffffffffffffffffffffffffffffffff1681526020019081526020015f20549050919050565b610956610e8d565b61095f5f610f93565b565b6008602052805f5260405f205f915090505481565b5f60055f9054906101000a900473ffffffffffffffffffffffffffffffffffffffff16905090565b6060600480546109ad9061185a565b80601f01602080910402602001604051908101604052809291908181526020018280546109d99061185a565b8015610a245780601f106109fb57610100808354040283529160200191610a24565b820191905f5260205f20905b815481529060010190602001808311610a0757829003601f168201915b5050505050905090565b5f5f610a38610b9f565b9050610a45818585610d9d565b600191505092915050565b6007602052815f5260405f20602052805f5260405f205f9150915050805f015490806001015490806002015490806003015490806004015f9054906101000a900460ff16905085565b5f60015f8473ffffffffffffffffffffffffffffffffffffffff1673ffffffffffffffffffffffffffffffffffffffff1681526020019081526020015f205f8373ffffffffffffffffffffffffffffffffffffffff1673ffffffffffffffffffffffffffffffffffffffff1681526020019081526020015f2054905092915050565b610b23610e8d565b5f73ffffffffffffffffffffffffffffffffffffffff168173ffffffffffffffffffffffffffffffffffffffff1603610b93575f6040517f1e4fbdf7000000000000000000000000000000000000000000000000000000008152600401610b8a9190611785565b60405180910390fd5b610b9c81610f93565b50565b5f33905090565b610bb38383836001611056565b505050565b610bc061143e565b5f6003811115610bd357610bd2611a42565b5b826003811115610be657610be5611a42565b5b03610c09576040518060400160405280601e8152602001603c8152509050610d05565b60016003811115610c1d57610c1c611a42565b5b826003811115610c3057610c2f611a42565b5b03610c53576040518060400160405280605a815260200160b48152509050610d05565b60026003811115610c6757610c66611a42565b5b826003811115610c7a57610c79611a42565b5b03610c9e57604051806040016040528060b4815260200161012c8152509050610d05565b600380811115610cb157610cb0611a42565b5b826003811115610cc457610cc3611a42565b5b03610ce957604051806040016040528061016881526020016102588152509050610d05565b60405180604001604052806101688152602001610e1081525090505b919050565b5f610d158484610a99565b90507fffffffffffffffffffffffffffffffffffffffffffffffffffffffffffffffff811015610d975781811015610d88578281836040517ffb8f41b2000000000000000000000000000000000000000000000000000000008152600401610d7f93929190611c72565b60405180910390fd5b610d9684848484035f611056565b5b50505050565b5f73ffffffffffffffffffffffffffffffffffffffff168373ffffffffffffffffffffffffffffffffffffffff1603610e0d575f6040517f96c6fd1e000000000000000000000000000000000000000000000000000000008152600401610e049190611785565b60405180910390fd5b5f73ffffffffffffffffffffffffffffffffffffffff168273ffffffffffffffffffffffffffffffffffffffff1603610e7d575f6040517fec442f05000000000000000000000000000000000000000000000000000000008152600401610e749190611785565b60405180910390fd5b610e88838383611225565b505050565b610e95610b9f565b73ffffffffffffffffffffffffffffffffffffffff16610eb3610976565b73ffffffffffffffffffffffffffffffffffffffff1614610f1257610ed6610b9f565b6040517f118cdaa7000000000000000000000000000000000000000000000000000000008152600401610f099190611785565b60405180910390fd5b565b5f73ffffffffffffffffffffffffffffffffffffffff168273ffffffffffffffffffffffffffffffffffffffff1603610f84575f6040517fec442f05000000000000000000000000000000000000000000000000000000008152600401610f7b9190611785565b60405180910390fd5b610f8f5f8383611225565b5050565b5f60055f9054906101000a900473ffffffffffffffffffffffffffffffffffffffff1690508160055f6101000a81548173ffffffffffffffffffffffffffffffffffffffff021916908373ffffffffffffffffffffffffffffffffffffffff1602179055508173ffffffffffffffffffffffffffffffffffffffff168173ffffffffffffffffffffffffffffffffffffffff167f8be0079c531659141344cd1fd0a4f28419497f9722a3daafe3b4186f6b6457e060405160405180910390a35050565b5f73ffffffffffffffffffffffffffffffffffffffff168473ffffffffffffffffffffffffffffffffffffffff16036110c6575f6040517fe602df050000000000000000000000000000000000000000000000000000000081526004016110bd9190611785565b60405180910390fd5b5f73ffffffffffffffffffffffffffffffffffffffff168373ffffffffffffffffffffffffffffffffffffffff1603611136575f6040517f94280d6200000000000000000000000000000000000000000000000000000000815260040161112d9190611785565b60405180910390fd5b8160015f8673ffffffffffffffffffffffffffffffffffffffff1673ffffffffffffffffffffffffffffffffffffffff1681526020019081526020015f205f8573ffffffffffffffffffffffffffffffffffffffff1673ffffffffffffffffffffffffffffffffffffffff1681526020019081526020015f2081905550801561121f578273ffffffffffffffffffffffffffffffffffffffff168473ffffffffffffffffffffffffffffffffffffffff167f8c5be1e5ebec7d5bd14f71427d1e84f3dd0314c0f7b2291e5b200ac8c7c3b925846040516112169190611658565b60405180910390a35b50505050565b5f73ffffffffffffffffffffffffffffffffffffffff168373ffffffffffffffffffffffffffffffffffffffff1603611275578060025f82825461126991906119c8565b92505081905550611343565b5f5f5f8573ffffffffffffffffffffffffffffffffffffffff1673ffffffffffffffffffffffffffffffffffffffff1681526020019081526020015f20549050818110156112fe578381836040517fe450d38c0000000000000000000000000000000000000000000000000000000081526004016112f593929190611c72565b60405180910390fd5b8181035f5f8673ffffffffffffffffffffffffffffffffffffffff1673ffffffffffffffffffffffffffffffffffffffff1681526020019081526020015f2081905550505b5f73ffffffffffffffffffffffffffffffffffffffff168273ffffffffffffffffffffffffffffffffffffffff160361138a578060025f82825403925050819055506113d4565b805f5f8473ffffffffffffffffffffffffffffffffffffffff1673ffffffffffffffffffffffffffffffffffffffff1681526020019081526020015f205f82825401925050819055505b8173ffffffffffffffffffffffffffffffffffffffff168373ffffffffffffffffffffffffffffffffffffffff167fddf252ad1be2c89b69c2b068fc378daa952ba7f163c4a11628f55a4df523b3ef836040516114319190611658565b60405180910390a3505050565b60405180604001604052805f81526020015f81525090565b5f81519050919050565b5f82825260208201905092915050565b8281835e5f83830152505050565b5f601f19601f8301169050919050565b5f61149882611456565b6114a28185611460565b93506114b2818560208601611470565b6114bb8161147e565b840191505092915050565b5f6020820190508181035f8301526114de818461148e565b905092915050565b5f5ffd5b5f73ffffffffffffffffffffffffffffffffffffffff82169050919050565b5f611513826114ea565b9050919050565b61152381611509565b811461152d575f5ffd5b50565b5f8135905061153e8161151a565b92915050565b5f819050919050565b61155681611544565b8114611560575f5ffd5b50565b5f813590506115718161154d565b92915050565b5f5f6040838503121561158d5761158c6114e6565b5b5f61159a85828601611530565b92505060206115ab85828601611563565b9150509250929050565b5f8115159050919050565b6115c9816115b5565b82525050565b5f6020820190506115e25f8301846115c0565b92915050565b600481106115f4575f5ffd5b50565b5f81359050611605816115e8565b92915050565b5f5f60408385031215611621576116206114e6565b5b5f61162e85828601611563565b925050602061163f858286016115f7565b9150509250929050565b61165281611544565b82525050565b5f60208201905061166b5f830184611649565b92915050565b5f60208284031215611686576116856114e6565b5b5f611693848285016115f7565b91505092915050565b5f5f5f606084860312156116b3576116b26114e6565b5b5f6116c086828701611530565b93505060206116d186828701611530565b92505060406116e286828701611563565b9150509250925092565b5f60208284031215611701576117006114e6565b5b5f61170e84828501611563565b91505092915050565b5f60ff82169050919050565b61172c81611717565b82525050565b5f6020820190506117455f830184611723565b92915050565b5f602082840312156117605761175f6114e6565b5b5f61176d84828501611530565b91505092915050565b61177f81611509565b82525050565b5f6020820190506117985f830184611776565b92915050565b5f60a0820190506117b15f830188611649565b6117be6020830187611649565b6117cb6040830186611649565b6117d86060830185611649565b6117e560808301846115c0565b9695505050505050565b5f5f60408385031215611805576118046114e6565b5b5f61181285828601611530565b925050602061182385828601611530565b9150509250929050565b7f4e487b71000000000000000000000000000000000000000000000000000000005f52602260045260245ffd5b5f600282049050600182168061187157607f821691505b6020821081036118845761188361182d565b5b50919050565b7f4e487b71000000000000000000000000000000000000000000000000000000005f52601160045260245ffd5b5f6118c182611544565b91506118cc83611544565b92508282026118da81611544565b915082820484148315176118f1576118f061188a565b5b5092915050565b7f416d6f756e742073686f756c6420626520706f736974697665000000000000005f82015250565b5f61192c601983611460565b9150611937826118f8565b602082019050919050565b5f6020820190508181035f83015261195981611920565b9050919050565b7f496e73756666696369656e742062616c616e63650000000000000000000000005f82015250565b5f611994601483611460565b915061199f82611960565b602082019050919050565b5f6020820190508181035f8301526119c181611988565b9050919050565b5f6119d282611544565b91506119dd83611544565b92508282019050808211156119f5576119f461188a565b5b92915050565b5f611a0582611544565b91507fffffffffffffffffffffffffffffffffffffffffffffffffffffffffffffffff8203611a3757611a3661188a565b5b600182019050919050565b7f4e487b71000000000000000000000000000000000000000000000000000000005f52602160045260245ffd5b60048110611a8057611a7f611a42565b5b50565b5f819050611a9082611a6f565b919050565b5f611a9f82611a83565b9050919050565b611aaf81611a95565b82525050565b5f608082019050611ac85f830187611649565b611ad56020830186611aa6565b611ae26040830185611649565b611aef6060830184611649565b95945050505050565b7f4e487b71000000000000000000000000000000000000000000000000000000005f52601260045260245ffd5b5f611b2f82611544565b9150611b3a83611544565b925082611b4a57611b49611af8565b5b828204905092915050565b7f5374616b65206973206e6f7420616374697665206f7220616c726561647920775f8201527f697468647261776e000000000000000000000000000000000000000000000000602082015250565b5f611baf602883611460565b9150611bba82611b55565b604082019050919050565b5f6020820190508181035f830152611bdc81611ba3565b9050919050565b7f5374616b6520706572696f64206973206e6f7420656e646564000000000000005f82015250565b5f611c17601983611460565b9150611c2282611be3565b602082019050919050565b5f6020820190508181035f830152611c4481611c0b565b9050919050565b5f604082019050611c5e5f830185611649565b611c6b6020830184611649565b9392505050565b5f606082019050611c855f830186611776565b611c926020830185611649565b611c9f6040830184611649565b94935050505056fea2646970667358221220c55a8108b0eeffc0f33db23a663d2f6a03e6cad610e7a5a210ea3fa6d0615d8364736f6c634300081e0033",
					"opcodes": "PUSH1 0x80 PUSH1 0x40 MSTORE CALLVALUE DUP1 ISZERO PUSH2 0xF JUMPI PUSH0 PUSH0 REVERT JUMPDEST POP PUSH1 0x40 MLOAD PUSH2 0x2A39 CODESIZE SUB DUP1 PUSH2 0x2A39 DUP4 CODECOPY DUP2 DUP2 ADD PUSH1 0x40 MSTORE DUP2 ADD SWAP1 PUSH2 0x31 SWAP2 SWAP1 PUSH2 0x6E9 JUMP JUMPDEST CALLER DUP4 DUP4 DUP2 PUSH1 0x3 SWAP1 DUP2 PUSH2 0x43 SWAP2 SWAP1 PUSH2 0x978 JUMP JUMPDEST POP DUP1 PUSH1 0x4 SWAP1 DUP2 PUSH2 0x53 SWAP2 SWAP1 PUSH2 0x978 JUMP JUMPDEST POP POP POP PUSH0 PUSH20 0xFFFFFFFFFFFFFFFFFFFFFFFFFFFFFFFFFFFFFFFF AND DUP2 PUSH20 0xFFFFFFFFFFFFFFFFFFFFFFFFFFFFFFFFFFFFFFFF AND SUB PUSH2 0xC6 JUMPI PUSH0 PUSH1 0x40 MLOAD PUSH32 0x1E4FBDF700000000000000000000000000000000000000000000000000000000 DUP2 MSTORE PUSH1 0x4 ADD PUSH2 0xBD SWAP2 SWAP1 PUSH2 0xA86 JUMP JUMPDEST PUSH1 0x40 MLOAD DUP1 SWAP2 SUB SWAP1 REVERT JUMPDEST PUSH2 0xD5 DUP2 PUSH2 0x200 PUSH1 0x20 SHL PUSH1 0x20 SHR JUMP JUMPDEST POP PUSH2 0x10A CALLER PUSH2 0xE8 PUSH2 0x2C3 PUSH1 0x20 SHL PUSH1 0x20 SHR JUMP JUMPDEST PUSH1 0xA PUSH2 0xF4 SWAP2 SWAP1 PUSH2 0xC07 JUMP JUMPDEST DUP4 PUSH2 0xFF SWAP2 SWAP1 PUSH2 0xC51 JUMP JUMPDEST PUSH2 0x2CB PUSH1 0x20 SHL PUSH1 0x20 SHR JUMP JUMPDEST PUSH1 0xA PUSH1 0x6 PUSH0 PUSH0 PUSH1 0x3 DUP2 GT ISZERO PUSH2 0x122 JUMPI PUSH2 0x121 PUSH2 0xC92 JUMP JUMPDEST JUMPDEST PUSH1 0x3 DUP2 GT ISZERO PUSH2 0x134 JUMPI PUSH2 0x133 PUSH2 0xC92 JUMP JUMPDEST JUMPDEST DUP2 MSTORE PUSH1 0x20 ADD SWAP1 DUP2 MSTORE PUSH1 0x20 ADD PUSH0 KECCAK256 DUP2 SWAP1 SSTORE POP PUSH1 0xF PUSH1 0x6 PUSH0 PUSH1 0x1 PUSH1 0x3 DUP2 GT ISZERO PUSH2 0x15E JUMPI PUSH2 0x15D PUSH2 0xC92 JUMP JUMPDEST JUMPDEST PUSH1 0x3 DUP2 GT ISZERO PUSH2 0x170 JUMPI PUSH2 0x16F PUSH2 0xC92 JUMP JUMPDEST JUMPDEST DUP2 MSTORE PUSH1 0x20 ADD SWAP1 DUP2 MSTORE PUSH1 0x20 ADD PUSH0 KECCAK256 DUP2 SWAP1 SSTORE POP PUSH1 0x14 PUSH1 0x6 PUSH0 PUSH1 0x2 PUSH1 0x3 DUP2 GT ISZERO PUSH2 0x19A JUMPI PUSH2 0x199 PUSH2 0xC92 JUMP JUMPDEST JUMPDEST PUSH1 0x3 DUP2 GT ISZERO PUSH2 0x1AC JUMPI PUSH2 0x1AB PUSH2 0xC92 JUMP JUMPDEST JUMPDEST DUP2 MSTORE PUSH1 0x20 ADD SWAP1 DUP2 MSTORE PUSH1 0x20 ADD PUSH0 KECCAK256 DUP2 SWAP1 SSTORE POP PUSH1 0x19 PUSH1 0x6 PUSH0 PUSH1 0x3 DUP1 DUP2 GT ISZERO PUSH2 0x1D5 JUMPI PUSH2 0x1D4 PUSH2 0xC92 JUMP JUMPDEST JUMPDEST PUSH1 0x3 DUP2 GT ISZERO PUSH2 0x1E7 JUMPI PUSH2 0x1E6 PUSH2 0xC92 JUMP JUMPDEST JUMPDEST DUP2 MSTORE PUSH1 0x20 ADD SWAP1 DUP2 MSTORE PUSH1 0x20 ADD PUSH0 KECCAK256 DUP2 SWAP1 SSTORE POP POP POP POP PUSH2 0xD4F JUMP JUMPDEST PUSH0 PUSH1 0x5 PUSH0 SWAP1 SLOAD SWAP1 PUSH2 0x100 EXP SWAP1 DIV PUSH20 0xFFFFFFFFFFFFFFFFFFFFFFFFFFFFFFFFFFFFFFFF AND SWAP1 POP DUP2 PUSH1 0x5 PUSH0 PUSH2 0x100 EXP DUP2 SLOAD DUP2 PUSH20 0xFFFFFFFFFFFFFFFFFFFFFFFFFFFFFFFFFFFFFFFF MUL NOT AND SWAP1 DUP4 PUSH20 0xFFFFFFFFFFFFFFFFFFFFFFFFFFFFFFFFFFFFFFFF AND MUL OR SWAP1 SSTORE POP DUP2 PUSH20 0xFFFFFFFFFFFFFFFFFFFFFFFFFFFFFFFFFFFFFFFF AND DUP2 PUSH20 0xFFFFFFFFFFFFFFFFFFFFFFFFFFFFFFFFFFFFFFFF AND PUSH32 0x8BE0079C531659141344CD1FD0A4F28419497F9722A3DAAFE3B4186F6B6457E0 PUSH1 0x40 MLOAD PUSH1 0x40 MLOAD DUP1 SWAP2 SUB SWAP1 LOG3 POP POP JUMP JUMPDEST PUSH0 PUSH1 0x12 SWAP1 POP SWAP1 JUMP JUMPDEST PUSH0 PUSH20 0xFFFFFFFFFFFFFFFFFFFFFFFFFFFFFFFFFFFFFFFF AND DUP3 PUSH20 0xFFFFFFFFFFFFFFFFFFFFFFFFFFFFFFFFFFFFFFFF AND SUB PUSH2 0x33B JUMPI PUSH0 PUSH1 0x40 MLOAD PUSH32 0xEC442F0500000000000000000000000000000000000000000000000000000000 DUP2 MSTORE PUSH1 0x4 ADD PUSH2 0x332 SWAP2 SWAP1 PUSH2 0xA86 JUMP JUMPDEST PUSH1 0x40 MLOAD DUP1 SWAP2 SUB SWAP1 REVERT JUMPDEST PUSH2 0x34C PUSH0 DUP4 DUP4 PUSH2 0x350 PUSH1 0x20 SHL PUSH1 0x20 SHR JUMP JUMPDEST POP POP JUMP JUMPDEST PUSH0 PUSH20 0xFFFFFFFFFFFFFFFFFFFFFFFFFFFFFFFFFFFFFFFF AND DUP4 PUSH20 0xFFFFFFFFFFFFFFFFFFFFFFFFFFFFFFFFFFFFFFFF AND SUB PUSH2 0x3A0 JUMPI DUP1 PUSH1 0x2 PUSH0 DUP3 DUP3 SLOAD PUSH2 0x394 SWAP2 SWAP1 PUSH2 0xCBF JUMP JUMPDEST SWAP3 POP POP DUP2 SWAP1 SSTORE POP PUSH2 0x46E JUMP JUMPDEST PUSH0 PUSH0 PUSH0 DUP6 PUSH20 0xFFFFFFFFFFFFFFFFFFFFFFFFFFFFFFFFFFFFFFFF AND PUSH20 0xFFFFFFFFFFFFFFFFFFFFFFFFFFFFFFFFFFFFFFFF AND DUP2 MSTORE PUSH1 0x20 ADD SWAP1 DUP2 MSTORE PUSH1 0x20 ADD PUSH0 KECCAK256 SLOAD SWAP1 POP DUP2 DUP2 LT ISZERO PUSH2 0x429 JUMPI DUP4 DUP2 DUP4 PUSH1 0x40 MLOAD PUSH32 0xE450D38C00000000000000000000000000000000000000000000000000000000 DUP2 MSTORE PUSH1 0x4 ADD PUSH2 0x420 SWAP4 SWAP3 SWAP2 SWAP1 PUSH2 0xD01 JUMP JUMPDEST PUSH1 0x40 MLOAD DUP1 SWAP2 SUB SWAP1 REVERT JUMPDEST DUP2 DUP2 SUB PUSH0 PUSH0 DUP7 PUSH20 0xFFFFFFFFFFFFFFFFFFFFFFFFFFFFFFFFFFFFFFFF AND PUSH20 0xFFFFFFFFFFFFFFFFFFFFFFFFFFFFFFFFFFFFFFFF AND DUP2 MSTORE PUSH1 0x20 ADD SWAP1 DUP2 MSTORE PUSH1 0x20 ADD PUSH0 KECCAK256 DUP2 SWAP1 SSTORE POP POP JUMPDEST PUSH0 PUSH20 0xFFFFFFFFFFFFFFFFFFFFFFFFFFFFFFFFFFFFFFFF AND DUP3 PUSH20 0xFFFFFFFFFFFFFFFFFFFFFFFFFFFFFFFFFFFFFFFF AND SUB PUSH2 0x4B5 JUMPI DUP1 PUSH1 0x2 PUSH0 DUP3 DUP3 SLOAD SUB SWAP3 POP POP DUP2 SWAP1 SSTORE POP PUSH2 0x4FF JUMP JUMPDEST DUP1 PUSH0 PUSH0 DUP5 PUSH20 0xFFFFFFFFFFFFFFFFFFFFFFFFFFFFFFFFFFFFFFFF AND PUSH20 0xFFFFFFFFFFFFFFFFFFFFFFFFFFFFFFFFFFFFFFFF AND DUP2 MSTORE PUSH1 0x20 ADD SWAP1 DUP2 MSTORE PUSH1 0x20 ADD PUSH0 KECCAK256 PUSH0 DUP3 DUP3 SLOAD ADD SWAP3 POP POP DUP2 SWAP1 SSTORE POP JUMPDEST DUP2 PUSH20 0xFFFFFFFFFFFFFFFFFFFFFFFFFFFFFFFFFFFFFFFF AND DUP4 PUSH20 0xFFFFFFFFFFFFFFFFFFFFFFFFFFFFFFFFFFFFFFFF AND PUSH32 0xDDF252AD1BE2C89B69C2B068FC378DAA952BA7F163C4A11628F55A4DF523B3EF DUP4 PUSH1 0x40 MLOAD PUSH2 0x55C SWAP2 SWAP1 PUSH2 0xD36 JUMP JUMPDEST PUSH1 0x40 MLOAD DUP1 SWAP2 SUB SWAP1 LOG3 POP POP POP JUMP JUMPDEST PUSH0 PUSH1 0x40 MLOAD SWAP1 POP SWAP1 JUMP JUMPDEST PUSH0 PUSH0 REVERT JUMPDEST PUSH0 PUSH0 REVERT JUMPDEST PUSH0 PUSH0 REVERT JUMPDEST PUSH0 PUSH0 REVERT JUMPDEST PUSH0 PUSH1 0x1F NOT PUSH1 0x1F DUP4 ADD AND SWAP1 POP SWAP2 SWAP1 POP JUMP JUMPDEST PUSH32 0x4E487B7100000000000000000000000000000000000000000000000000000000 PUSH0 MSTORE PUSH1 0x41 PUSH1 0x4 MSTORE PUSH1 0x24 PUSH0 REVERT JUMPDEST PUSH2 0x5C8 DUP3 PUSH2 0x582 JUMP JUMPDEST DUP2 ADD DUP2 DUP2 LT PUSH8 0xFFFFFFFFFFFFFFFF DUP3 GT OR ISZERO PUSH2 0x5E7 JUMPI PUSH2 0x5E6 PUSH2 0x592 JUMP JUMPDEST JUMPDEST DUP1 PUSH1 0x40 MSTORE POP POP POP JUMP JUMPDEST PUSH0 PUSH2 0x5F9 PUSH2 0x569 JUMP JUMPDEST SWAP1 POP PUSH2 0x605 DUP3 DUP3 PUSH2 0x5BF JUMP JUMPDEST SWAP2 SWAP1 POP JUMP JUMPDEST PUSH0 PUSH8 0xFFFFFFFFFFFFFFFF DUP3 GT ISZERO PUSH2 0x624 JUMPI PUSH2 0x623 PUSH2 0x592 JUMP JUMPDEST JUMPDEST PUSH2 0x62D DUP3 PUSH2 0x582 JUMP JUMPDEST SWAP1 POP PUSH1 0x20 DUP2 ADD SWAP1 POP SWAP2 SWAP1 POP JUMP JUMPDEST DUP3 DUP2 DUP4 MCOPY PUSH0 DUP4 DUP4 ADD MSTORE POP POP POP JUMP JUMPDEST PUSH0 PUSH2 0x65A PUSH2 0x655 DUP5 PUSH2 0x60A JUMP JUMPDEST PUSH2 0x5F0 JUMP JUMPDEST SWAP1 POP DUP3 DUP2 MSTORE PUSH1 0x20 DUP2 ADD DUP5 DUP5 DUP5 ADD GT ISZERO PUSH2 0x676 JUMPI PUSH2 0x675 PUSH2 0x57E JUMP JUMPDEST JUMPDEST PUSH2 0x681 DUP5 DUP3 DUP6 PUSH2 0x63A JUMP JUMPDEST POP SWAP4 SWAP3 POP POP POP JUMP JUMPDEST PUSH0 DUP3 PUSH1 0x1F DUP4 ADD SLT PUSH2 0x69D JUMPI PUSH2 0x69C PUSH2 0x57A JUMP JUMPDEST JUMPDEST DUP2 MLOAD PUSH2 0x6AD DUP5 DUP3 PUSH1 0x20 DUP7 ADD PUSH2 0x648 JUMP JUMPDEST SWAP2 POP POP SWAP3 SWAP2 POP POP JUMP JUMPDEST PUSH0 DUP2 SWAP1 POP SWAP2 SWAP1 POP JUMP JUMPDEST PUSH2 0x6C8 DUP2 PUSH2 0x6B6 JUMP JUMPDEST DUP2 EQ PUSH2 0x6D2 JUMPI PUSH0 PUSH0 REVERT JUMPDEST POP JUMP JUMPDEST PUSH0 DUP2 MLOAD SWAP1 POP PUSH2 0x6E3 DUP2 PUSH2 0x6BF JUMP JUMPDEST SWAP3 SWAP2 POP POP JUMP JUMPDEST PUSH0 PUSH0 PUSH0 PUSH1 0x60 DUP5 DUP7 SUB SLT ISZERO PUSH2 0x700 JUMPI PUSH2 0x6FF PUSH2 0x572 JUMP JUMPDEST JUMPDEST PUSH0 DUP5 ADD MLOAD PUSH8 0xFFFFFFFFFFFFFFFF DUP2 GT ISZERO PUSH2 0x71D JUMPI PUSH2 0x71C PUSH2 0x576 JUMP JUMPDEST JUMPDEST PUSH2 0x729 DUP7 DUP3 DUP8 ADD PUSH2 0x689 JUMP JUMPDEST SWAP4 POP POP PUSH1 0x20 DUP5 ADD MLOAD PUSH8 0xFFFFFFFFFFFFFFFF DUP2 GT ISZERO PUSH2 0x74A JUMPI PUSH2 0x749 PUSH2 0x576 JUMP JUMPDEST JUMPDEST PUSH2 0x756 DUP7 DUP3 DUP8 ADD PUSH2 0x689 JUMP JUMPDEST SWAP3 POP POP PUSH1 0x40 PUSH2 0x767 DUP7 DUP3 DUP8 ADD PUSH2 0x6D5 JUMP JUMPDEST SWAP2 POP POP SWAP3 POP SWAP3 POP SWAP3 JUMP JUMPDEST PUSH0 DUP2 MLOAD SWAP1 POP SWAP2 SWAP1 POP JUMP JUMPDEST PUSH32 0x4E487B7100000000000000000000000000000000000000000000000000000000 PUSH0 MSTORE PUSH1 0x22 PUSH1 0x4 MSTORE PUSH1 0x24 PUSH0 REVERT JUMPDEST PUSH0 PUSH1 0x2 DUP3 DIV SWAP1 POP PUSH1 0x1 DUP3 AND DUP1 PUSH2 0x7BF JUMPI PUSH1 0x7F DUP3 AND SWAP2 POP JUMPDEST PUSH1 0x20 DUP3 LT DUP2 SUB PUSH2 0x7D2 JUMPI PUSH2 0x7D1 PUSH2 0x77B JUMP JUMPDEST JUMPDEST POP SWAP2 SWAP1 POP JUMP JUMPDEST PUSH0 DUP2 SWAP1 POP DUP2 PUSH0 MSTORE PUSH1 0x20 PUSH0 KECCAK256 SWAP1 POP SWAP2 SWAP1 POP JUMP JUMPDEST PUSH0 PUSH1 0x20 PUSH1 0x1F DUP4 ADD DIV SWAP1 POP SWAP2 SWAP1 POP JUMP JUMPDEST PUSH0 DUP3 DUP3 SHL SWAP1 POP SWAP3 SWAP2 POP POP JUMP JUMPDEST PUSH0 PUSH1 0x8 DUP4 MUL PUSH2 0x834 PUSH32 0xFFFFFFFFFFFFFFFFFFFFFFFFFFFFFFFFFFFFFFFFFFFFFFFFFFFFFFFFFFFFFFFF DUP3 PUSH2 0x7F9 JUMP JUMPDEST PUSH2 0x83E DUP7 DUP4 PUSH2 0x7F9 JUMP JUMPDEST SWAP6 POP DUP1 NOT DUP5 AND SWAP4 POP DUP1 DUP7 AND DUP5 OR SWAP3 POP POP POP SWAP4 SWAP3 POP POP POP JUMP JUMPDEST PUSH0 DUP2 SWAP1 POP SWAP2 SWAP1 POP JUMP JUMPDEST PUSH0 PUSH2 0x879 PUSH2 0x874 PUSH2 0x86F DUP5 PUSH2 0x6B6 JUMP JUMPDEST PUSH2 0x856 JUMP JUMPDEST PUSH2 0x6B6 JUMP JUMPDEST SWAP1 POP SWAP2 SWAP1 POP JUMP JUMPDEST PUSH0 DUP2 SWAP1 POP SWAP2 SWAP1 POP JUMP JUMPDEST PUSH2 0x892 DUP4 PUSH2 0x85F JUMP JUMPDEST PUSH2 0x8A6 PUSH2 0x89E DUP3 PUSH2 0x880 JUMP JUMPDEST DUP5 DUP5 SLOAD PUSH2 0x805 JUMP JUMPDEST DUP3 SSTORE POP POP POP POP JUMP JUMPDEST PUSH0 PUSH0 SWAP1 POP SWAP1 JUMP JUMPDEST PUSH2 0x8BD PUSH2 0x8AE JUMP JUMPDEST PUSH2 0x8C8 DUP2 DUP5 DUP5 PUSH2 0x889 JUMP JUMPDEST POP POP POP JUMP JUMPDEST JUMPDEST DUP2 DUP2 LT ISZERO PUSH2 0x8EB JUMPI PUSH2 0x8E0 PUSH0 DUP3 PUSH2 0x8B5 JUMP JUMPDEST PUSH1 0x1 DUP2 ADD SWAP1 POP PUSH2 0x8CE JUMP JUMPDEST POP POP JUMP JUMPDEST PUSH1 0x1F DUP3 GT ISZERO PUSH2 0x930 JUMPI PUSH2 0x901 DUP2 PUSH2 0x7D8 JUMP JUMPDEST PUSH2 0x90A DUP5 PUSH2 0x7EA JUMP JUMPDEST DUP2 ADD PUSH1 0x20 DUP6 LT ISZERO PUSH2 0x919 JUMPI DUP2 SWAP1 POP JUMPDEST PUSH2 0x92D PUSH2 0x925 DUP6 PUSH2 0x7EA JUMP JUMPDEST DUP4 ADD DUP3 PUSH2 0x8CD JUMP JUMPDEST POP POP JUMPDEST POP POP POP JUMP JUMPDEST PUSH0 DUP3 DUP3 SHR SWAP1 POP SWAP3 SWAP2 POP POP JUMP JUMPDEST PUSH0 PUSH2 0x950 PUSH0 NOT DUP5 PUSH1 0x8 MUL PUSH2 0x935 JUMP JUMPDEST NOT DUP1 DUP4 AND SWAP2 POP POP SWAP3 SWAP2 POP POP JUMP JUMPDEST PUSH0 PUSH2 0x968 DUP4 DUP4 PUSH2 0x941 JUMP JUMPDEST SWAP2 POP DUP3 PUSH1 0x2 MUL DUP3 OR SWAP1 POP SWAP3 SWAP2 POP POP JUMP JUMPDEST PUSH2 0x981 DUP3 PUSH2 0x771 JUMP JUMPDEST PUSH8 0xFFFFFFFFFFFFFFFF DUP2 GT ISZERO PUSH2 0x99A JUMPI PUSH2 0x999 PUSH2 0x592 JUMP JUMPDEST JUMPDEST PUSH2 0x9A4 DUP3 SLOAD PUSH2 0x7A8 JUMP JUMPDEST PUSH2 0x9AF DUP3 DUP3 DUP6 PUSH2 0x8EF JUMP JUMPDEST PUSH0 PUSH1 0x20 SWAP1 POP PUSH1 0x1F DUP4 GT PUSH1 0x1 DUP2 EQ PUSH2 0x9E0 JUMPI PUSH0 DUP5 ISZERO PUSH2 0x9CE JUMPI DUP3 DUP8 ADD MLOAD SWAP1 POP JUMPDEST PUSH2 0x9D8 DUP6 DUP3 PUSH2 0x95D JUMP JUMPDEST DUP7 SSTORE POP PUSH2 0xA3F JUMP JUMPDEST PUSH1 0x1F NOT DUP5 AND PUSH2 0x9EE DUP7 PUSH2 0x7D8 JUMP JUMPDEST PUSH0 JUMPDEST DUP3 DUP2 LT ISZERO PUSH2 0xA15 JUMPI DUP5 DUP10 ADD MLOAD DUP3 SSTORE PUSH1 0x1 DUP3 ADD SWAP2 POP PUSH1 0x20 DUP6 ADD SWAP5 POP PUSH1 0x20 DUP2 ADD SWAP1 POP PUSH2 0x9F0 JUMP JUMPDEST DUP7 DUP4 LT ISZERO PUSH2 0xA32 JUMPI DUP5 DUP10 ADD MLOAD PUSH2 0xA2E PUSH1 0x1F DUP10 AND DUP3 PUSH2 0x941 JUMP JUMPDEST DUP4 SSTORE POP JUMPDEST PUSH1 0x1 PUSH1 0x2 DUP9 MUL ADD DUP9 SSTORE POP POP POP JUMPDEST POP POP POP POP POP POP JUMP JUMPDEST PUSH0 PUSH20 0xFFFFFFFFFFFFFFFFFFFFFFFFFFFFFFFFFFFFFFFF DUP3 AND SWAP1 POP SWAP2 SWAP1 POP JUMP JUMPDEST PUSH0 PUSH2 0xA70 DUP3 PUSH2 0xA47 JUMP JUMPDEST SWAP1 POP SWAP2 SWAP1 POP JUMP JUMPDEST PUSH2 0xA80 DUP2 PUSH2 0xA66 JUMP JUMPDEST DUP3 MSTORE POP POP JUMP JUMPDEST PUSH0 PUSH1 0x20 DUP3 ADD SWAP1 POP PUSH2 0xA99 PUSH0 DUP4 ADD DUP5 PUSH2 0xA77 JUMP JUMPDEST SWAP3 SWAP2 POP POP JUMP JUMPDEST PUSH32 0x4E487B7100000000000000000000000000000000000000000000000000000000 PUSH0 MSTORE PUSH1 0x11 PUSH1 0x4 MSTORE PUSH1 0x24 PUSH0 REVERT JUMPDEST PUSH0 DUP2 PUSH1 0x1 SHR SWAP1 POP SWAP2 SWAP1 POP JUMP JUMPDEST PUSH0 PUSH0 DUP3 SWAP2 POP DUP4 SWAP1 POP JUMPDEST PUSH1 0x1 DUP6 GT ISZERO PUSH2 0xB21 JUMPI DUP1 DUP7 DIV DUP2 GT ISZERO PUSH2 0xAFD JUMPI PUSH2 0xAFC PUSH2 0xA9F JUMP JUMPDEST JUMPDEST PUSH1 0x1 DUP6 AND ISZERO PUSH2 0xB0C JUMPI DUP1 DUP3 MUL SWAP2 POP JUMPDEST DUP1 DUP2 MUL SWAP1 POP PUSH2 0xB1A DUP6 PUSH2 0xACC JUMP JUMPDEST SWAP5 POP PUSH2 0xAE1 JUMP JUMPDEST SWAP5 POP SWAP5 SWAP3 POP POP POP JUMP JUMPDEST PUSH0 DUP3 PUSH2 0xB39 JUMPI PUSH1 0x1 SWAP1 POP PUSH2 0xBF4 JUMP JUMPDEST DUP2 PUSH2 0xB46 JUMPI PUSH0 SWAP1 POP PUSH2 0xBF4 JUMP JUMPDEST DUP2 PUSH1 0x1 DUP2 EQ PUSH2 0xB5C JUMPI PUSH1 0x2 DUP2 EQ PUSH2 0xB66 JUMPI PUSH2 0xB95 JUMP JUMPDEST PUSH1 0x1 SWAP2 POP POP PUSH2 0xBF4 JUMP JUMPDEST PUSH1 0xFF DUP5 GT ISZERO PUSH2 0xB78 JUMPI PUSH2 0xB77 PUSH2 0xA9F JUMP JUMPDEST JUMPDEST DUP4 PUSH1 0x2 EXP SWAP2 POP DUP5 DUP3 GT ISZERO PUSH2 0xB8F JUMPI PUSH2 0xB8E PUSH2 0xA9F JUMP JUMPDEST JUMPDEST POP PUSH2 0xBF4 JUMP JUMPDEST POP PUSH1 0x20 DUP4 LT PUSH2 0x133 DUP4 LT AND PUSH1 0x4E DUP5 LT PUSH1 0xB DUP5 LT AND OR ISZERO PUSH2 0xBCA JUMPI DUP3 DUP3 EXP SWAP1 POP DUP4 DUP2 GT ISZERO PUSH2 0xBC5 JUMPI PUSH2 0xBC4 PUSH2 0xA9F JUMP JUMPDEST JUMPDEST PUSH2 0xBF4 JUMP JUMPDEST PUSH2 0xBD7 DUP5 DUP5 DUP5 PUSH1 0x1 PUSH2 0xAD8 JUMP JUMPDEST SWAP3 POP SWAP1 POP DUP2 DUP5 DIV DUP2 GT ISZERO PUSH2 0xBEE JUMPI PUSH2 0xBED PUSH2 0xA9F JUMP JUMPDEST JUMPDEST DUP2 DUP2 MUL SWAP1 POP JUMPDEST SWAP4 SWAP3 POP POP POP JUMP JUMPDEST PUSH0 PUSH1 0xFF DUP3 AND SWAP1 POP SWAP2 SWAP1 POP JUMP JUMPDEST PUSH0 PUSH2 0xC11 DUP3 PUSH2 0x6B6 JUMP JUMPDEST SWAP2 POP PUSH2 0xC1C DUP4 PUSH2 0xBFB JUMP JUMPDEST SWAP3 POP PUSH2 0xC49 PUSH32 0xFFFFFFFFFFFFFFFFFFFFFFFFFFFFFFFFFFFFFFFFFFFFFFFFFFFFFFFFFFFFFFFF DUP5 DUP5 PUSH2 0xB2A JUMP JUMPDEST SWAP1 POP SWAP3 SWAP2 POP POP JUMP JUMPDEST PUSH0 PUSH2 0xC5B DUP3 PUSH2 0x6B6 JUMP JUMPDEST SWAP2 POP PUSH2 0xC66 DUP4 PUSH2 0x6B6 JUMP JUMPDEST SWAP3 POP DUP3 DUP3 MUL PUSH2 0xC74 DUP2 PUSH2 0x6B6 JUMP JUMPDEST SWAP2 POP DUP3 DUP3 DIV DUP5 EQ DUP4 ISZERO OR PUSH2 0xC8B JUMPI PUSH2 0xC8A PUSH2 0xA9F JUMP JUMPDEST JUMPDEST POP SWAP3 SWAP2 POP POP JUMP JUMPDEST PUSH32 0x4E487B7100000000000000000000000000000000000000000000000000000000 PUSH0 MSTORE PUSH1 0x21 PUSH1 0x4 MSTORE PUSH1 0x24 PUSH0 REVERT JUMPDEST PUSH0 PUSH2 0xCC9 DUP3 PUSH2 0x6B6 JUMP JUMPDEST SWAP2 POP PUSH2 0xCD4 DUP4 PUSH2 0x6B6 JUMP JUMPDEST SWAP3 POP DUP3 DUP3 ADD SWAP1 POP DUP1 DUP3 GT ISZERO PUSH2 0xCEC JUMPI PUSH2 0xCEB PUSH2 0xA9F JUMP JUMPDEST JUMPDEST SWAP3 SWAP2 POP POP JUMP JUMPDEST PUSH2 0xCFB DUP2 PUSH2 0x6B6 JUMP JUMPDEST DUP3 MSTORE POP POP JUMP JUMPDEST PUSH0 PUSH1 0x60 DUP3 ADD SWAP1 POP PUSH2 0xD14 PUSH0 DUP4 ADD DUP7 PUSH2 0xA77 JUMP JUMPDEST PUSH2 0xD21 PUSH1 0x20 DUP4 ADD DUP6 PUSH2 0xCF2 JUMP JUMPDEST PUSH2 0xD2E PUSH1 0x40 DUP4 ADD DUP5 PUSH2 0xCF2 JUMP JUMPDEST SWAP5 SWAP4 POP POP POP POP JUMP JUMPDEST PUSH0 PUSH1 0x20 DUP3 ADD SWAP1 POP PUSH2 0xD49 PUSH0 DUP4 ADD DUP5 PUSH2 0xCF2 JUMP JUMPDEST SWAP3 SWAP2 POP POP JUMP JUMPDEST PUSH2 0x1CDD DUP1 PUSH2 0xD5C PUSH0 CODECOPY PUSH0 RETURN INVALID PUSH1 0x80 PUSH1 0x40 MSTORE CALLVALUE DUP1 ISZERO PUSH2 0xF JUMPI PUSH0 PUSH0 REVERT JUMPDEST POP PUSH1 0x4 CALLDATASIZE LT PUSH2 0x114 JUMPI PUSH0 CALLDATALOAD PUSH1 0xE0 SHR DUP1 PUSH4 0x70A08231 GT PUSH2 0xA0 JUMPI DUP1 PUSH4 0x95D89B41 GT PUSH2 0x6F JUMPI DUP1 PUSH4 0x95D89B41 EQ PUSH2 0x2DE JUMPI DUP1 PUSH4 0xA9059CBB EQ PUSH2 0x2FC JUMPI DUP1 PUSH4 0xB5D5B5FA EQ PUSH2 0x32C JUMPI DUP1 PUSH4 0xDD62ED3E EQ PUSH2 0x360 JUMPI DUP1 PUSH4 0xF2FDE38B EQ PUSH2 0x390 JUMPI PUSH2 0x114 JUMP JUMPDEST DUP1 PUSH4 0x70A08231 EQ PUSH2 0x256 JUMPI DUP1 PUSH4 0x715018A6 EQ PUSH2 0x286 JUMPI DUP1 PUSH4 0x762E54FC EQ PUSH2 0x290 JUMPI DUP1 PUSH4 0x8DA5CB5B EQ PUSH2 0x2C0 JUMPI PUSH2 0x114 JUMP JUMPDEST DUP1 PUSH4 0x1F1ACCB2 GT PUSH2 0xE7 JUMPI DUP1 PUSH4 0x1F1ACCB2 EQ PUSH2 0x1A0 JUMPI DUP1 PUSH4 0x23B872DD EQ PUSH2 0x1D0 JUMPI DUP1 PUSH4 0x2E1A7D4D EQ PUSH2 0x200 JUMPI DUP1 PUSH4 0x313CE567 EQ PUSH2 0x21C JUMPI DUP1 PUSH4 0x40C10F19 EQ PUSH2 0x23A JUMPI PUSH2 0x114 JUMP JUMPDEST DUP1 PUSH4 0x6FDDE03 EQ PUSH2 0x118 JUMPI DUP1 PUSH4 0x95EA7B3 EQ PUSH2 0x136 JUMPI DUP1 PUSH4 0x10087FB1 EQ PUSH2 0x166 JUMPI DUP1 PUSH4 0x18160DDD EQ PUSH2 0x182 JUMPI JUMPDEST PUSH0 PUSH0 REVERT JUMPDEST PUSH2 0x120 PUSH2 0x3AC JUMP JUMPDEST PUSH1 0x40 MLOAD PUSH2 0x12D SWAP2 SWAP1 PUSH2 0x14C6 JUMP JUMPDEST PUSH1 0x40 MLOAD DUP1 SWAP2 SUB SWAP1 RETURN JUMPDEST PUSH2 0x150 PUSH1 0x4 DUP1 CALLDATASIZE SUB DUP2 ADD SWAP1 PUSH2 0x14B SWAP2 SWAP1 PUSH2 0x1577 JUMP JUMPDEST PUSH2 0x43C JUMP JUMPDEST PUSH1 0x40 MLOAD PUSH2 0x15D SWAP2 SWAP1 PUSH2 0x15CF JUMP JUMPDEST PUSH1 0x40 MLOAD DUP1 SWAP2 SUB SWAP1 RETURN JUMPDEST PUSH2 0x180 PUSH1 0x4 DUP1 CALLDATASIZE SUB DUP2 ADD SWAP1 PUSH2 0x17B SWAP2 SWAP1 PUSH2 0x160B JUMP JUMPDEST PUSH2 0x45E JUMP JUMPDEST STOP JUMPDEST PUSH2 0x18A PUSH2 0x701 JUMP JUMPDEST PUSH1 0x40 MLOAD PUSH2 0x197 SWAP2 SWAP1 PUSH2 0x1658 JUMP JUMPDEST PUSH1 0x40 MLOAD DUP1 SWAP2 SUB SWAP1 RETURN JUMPDEST PUSH2 0x1BA PUSH1 0x4 DUP1 CALLDATASIZE SUB DUP2 ADD SWAP1 PUSH2 0x1B5 SWAP2 SWAP1 PUSH2 0x1671 JUMP JUMPDEST PUSH2 0x70A JUMP JUMPDEST PUSH1 0x40 MLOAD PUSH2 0x1C7 SWAP2 SWAP1 PUSH2 0x1658 JUMP JUMPDEST PUSH1 0x40 MLOAD DUP1 SWAP2 SUB SWAP1 RETURN JUMPDEST PUSH2 0x1EA PUSH1 0x4 DUP1 CALLDATASIZE SUB DUP2 ADD SWAP1 PUSH2 0x1E5 SWAP2 SWAP1 PUSH2 0x169C JUMP JUMPDEST PUSH2 0x71F JUMP JUMPDEST PUSH1 0x40 MLOAD PUSH2 0x1F7 SWAP2 SWAP1 PUSH2 0x15CF JUMP JUMPDEST PUSH1 0x40 MLOAD DUP1 SWAP2 SUB SWAP1 RETURN JUMPDEST PUSH2 0x21A PUSH1 0x4 DUP1 CALLDATASIZE SUB DUP2 ADD SWAP1 PUSH2 0x215 SWAP2 SWAP1 PUSH2 0x16EC JUMP JUMPDEST PUSH2 0x74D JUMP JUMPDEST STOP JUMPDEST PUSH2 0x224 PUSH2 0x8EB JUMP JUMPDEST PUSH1 0x40 MLOAD PUSH2 0x231 SWAP2 SWAP1 PUSH2 0x1732 JUMP JUMPDEST PUSH1 0x40 MLOAD DUP1 SWAP2 SUB SWAP1 RETURN JUMPDEST PUSH2 0x254 PUSH1 0x4 DUP1 CALLDATASIZE SUB DUP2 ADD SWAP1 PUSH2 0x24F SWAP2 SWAP1 PUSH2 0x1577 JUMP JUMPDEST PUSH2 0x8F3 JUMP JUMPDEST STOP JUMPDEST PUSH2 0x270 PUSH1 0x4 DUP1 CALLDATASIZE SUB DUP2 ADD SWAP1 PUSH2 0x26B SWAP2 SWAP1 PUSH2 0x174B JUMP JUMPDEST PUSH2 0x909 JUMP JUMPDEST PUSH1 0x40 MLOAD PUSH2 0x27D SWAP2 SWAP1 PUSH2 0x1658 JUMP JUMPDEST PUSH1 0x40 MLOAD DUP1 SWAP2 SUB SWAP1 RETURN JUMPDEST PUSH2 0x28E PUSH2 0x94E JUMP JUMPDEST STOP JUMPDEST PUSH2 0x2AA PUSH1 0x4 DUP1 CALLDATASIZE SUB DUP2 ADD SWAP1 PUSH2 0x2A5 SWAP2 SWAP1 PUSH2 0x174B JUMP JUMPDEST PUSH2 0x961 JUMP JUMPDEST PUSH1 0x40 MLOAD PUSH2 0x2B7 SWAP2 SWAP1 PUSH2 0x1658 JUMP JUMPDEST PUSH1 0x40 MLOAD DUP1 SWAP2 SUB SWAP1 RETURN JUMPDEST PUSH2 0x2C8 PUSH2 0x976 JUMP JUMPDEST PUSH1 0x40 MLOAD PUSH2 0x2D5 SWAP2 SWAP1 PUSH2 0x1785 JUMP JUMPDEST PUSH1 0x40 MLOAD DUP1 SWAP2 SUB SWAP1 RETURN JUMPDEST PUSH2 0x2E6 PUSH2 0x99E JUMP JUMPDEST PUSH1 0x40 MLOAD PUSH2 0x2F3 SWAP2 SWAP1 PUSH2 0x14C6 JUMP JUMPDEST PUSH1 0x40 MLOAD DUP1 SWAP2 SUB SWAP1 RETURN JUMPDEST PUSH2 0x316 PUSH1 0x4 DUP1 CALLDATASIZE SUB DUP2 ADD SWAP1 PUSH2 0x311 SWAP2 SWAP1 PUSH2 0x1577 JUMP JUMPDEST PUSH2 0xA2E JUMP JUMPDEST PUSH1 0x40 MLOAD PUSH2 0x323 SWAP2 SWAP1 PUSH2 0x15CF JUMP JUMPDEST PUSH1 0x40 MLOAD DUP1 SWAP2 SUB SWAP1 RETURN JUMPDEST PUSH2 0x346 PUSH1 0x4 DUP1 CALLDATASIZE SUB DUP2 ADD SWAP1 PUSH2 0x341 SWAP2 SWAP1 PUSH2 0x1577 JUMP JUMPDEST PUSH2 0xA50 JUMP JUMPDEST PUSH1 0x40 MLOAD PUSH2 0x357 SWAP6 SWAP5 SWAP4 SWAP3 SWAP2 SWAP1 PUSH2 0x179E JUMP JUMPDEST PUSH1 0x40 MLOAD DUP1 SWAP2 SUB SWAP1 RETURN JUMPDEST PUSH2 0x37A PUSH1 0x4 DUP1 CALLDATASIZE SUB DUP2 ADD SWAP1 PUSH2 0x375 SWAP2 SWAP1 PUSH2 0x17EF JUMP JUMPDEST PUSH2 0xA99 JUMP JUMPDEST PUSH1 0x40 MLOAD PUSH2 0x387 SWAP2 SWAP1 PUSH2 0x1658 JUMP JUMPDEST PUSH1 0x40 MLOAD DUP1 SWAP2 SUB SWAP1 RETURN JUMPDEST PUSH2 0x3AA PUSH1 0x4 DUP1 CALLDATASIZE SUB DUP2 ADD SWAP1 PUSH2 0x3A5 SWAP2 SWAP1 PUSH2 0x174B JUMP JUMPDEST PUSH2 0xB1B JUMP JUMPDEST STOP JUMPDEST PUSH1 0x60 PUSH1 0x3 DUP1 SLOAD PUSH2 0x3BB SWAP1 PUSH2 0x185A JUMP JUMPDEST DUP1 PUSH1 0x1F ADD PUSH1 0x20 DUP1 SWAP2 DIV MUL PUSH1 0x20 ADD PUSH1 0x40 MLOAD SWAP1 DUP2 ADD PUSH1 0x40 MSTORE DUP1 SWAP3 SWAP2 SWAP1 DUP2 DUP2 MSTORE PUSH1 0x20 ADD DUP3 DUP1 SLOAD PUSH2 0x3E7 SWAP1 PUSH2 0x185A JUMP JUMPDEST DUP1 ISZERO PUSH2 0x432 JUMPI DUP1 PUSH1 0x1F LT PUSH2 0x409 JUMPI PUSH2 0x100 DUP1 DUP4 SLOAD DIV MUL DUP4 MSTORE SWAP2 PUSH1 0x20 ADD SWAP2 PUSH2 0x432 JUMP JUMPDEST DUP3 ADD SWAP2 SWAP1 PUSH0 MSTORE PUSH1 0x20 PUSH0 KECCAK256 SWAP1 JUMPDEST DUP2 SLOAD DUP2 MSTORE SWAP1 PUSH1 0x1 ADD SWAP1 PUSH1 0x20 ADD DUP1 DUP4 GT PUSH2 0x415 JUMPI DUP3 SWAP1 SUB PUSH1 0x1F AND DUP3 ADD SWAP2 JUMPDEST POP POP POP POP POP SWAP1 POP SWAP1 JUMP JUMPDEST PUSH0 PUSH0 PUSH2 0x446 PUSH2 0xB9F JUMP JUMPDEST SWAP1 POP PUSH2 0x453 DUP2 DUP6 DUP6 PUSH2 0xBA6 JUMP JUMPDEST PUSH1 0x1 SWAP2 POP POP SWAP3 SWAP2 POP POP JUMP JUMPDEST PUSH0 PUSH8 0xDE0B6B3A7640000 DUP4 PUSH2 0x473 SWAP2 SWAP1 PUSH2 0x18B7 JUMP JUMPDEST SWAP1 POP PUSH0 DUP4 GT PUSH2 0x4B7 JUMPI PUSH1 0x40 MLOAD PUSH32 0x8C379A000000000000000000000000000000000000000000000000000000000 DUP2 MSTORE PUSH1 0x4 ADD PUSH2 0x4AE SWAP1 PUSH2 0x1942 JUMP JUMPDEST PUSH1 0x40 MLOAD DUP1 SWAP2 SUB SWAP1 REVERT JUMPDEST DUP1 PUSH2 0x4C1 CALLER PUSH2 0x909 JUMP JUMPDEST LT ISZERO PUSH2 0x502 JUMPI PUSH1 0x40 MLOAD PUSH32 0x8C379A000000000000000000000000000000000000000000000000000000000 DUP2 MSTORE PUSH1 0x4 ADD PUSH2 0x4F9 SWAP1 PUSH2 0x19AA JUMP JUMPDEST PUSH1 0x40 MLOAD DUP1 SWAP2 SUB SWAP1 REVERT JUMPDEST PUSH0 PUSH2 0x50C DUP4 PUSH2 0xBB8 JUMP JUMPDEST SWAP1 POP PUSH0 DUP2 PUSH1 0x20 ADD MLOAD SWAP1 POP PUSH0 DUP3 PUSH0 ADD MLOAD SWAP1 POP PUSH0 TIMESTAMP SWAP1 POP PUSH0 DUP4 DUP3 PUSH2 0x52E SWAP2 SWAP1 PUSH2 0x19C8 JUMP JUMPDEST SWAP1 POP PUSH0 PUSH1 0x8 PUSH0 CALLER PUSH20 0xFFFFFFFFFFFFFFFFFFFFFFFFFFFFFFFFFFFFFFFF AND PUSH20 0xFFFFFFFFFFFFFFFFFFFFFFFFFFFFFFFFFFFFFFFF AND DUP2 MSTORE PUSH1 0x20 ADD SWAP1 DUP2 MSTORE PUSH1 0x20 ADD PUSH0 KECCAK256 PUSH0 DUP2 SLOAD DUP1 SWAP3 SWAP2 SWAP1 PUSH2 0x57E SWAP1 PUSH2 0x19FB JUMP JUMPDEST SWAP2 SWAP1 POP SSTORE SWAP1 POP CALLER PUSH20 0xFFFFFFFFFFFFFFFFFFFFFFFFFFFFFFFFFFFFFFFF AND PUSH32 0x22DD619EE0D92140E5ABDE105761D6DF71C05C4FCB761610EA0552064F91E6C DUP11 DUP11 DUP6 DUP6 PUSH1 0x40 MLOAD PUSH2 0x5D0 SWAP5 SWAP4 SWAP3 SWAP2 SWAP1 PUSH2 0x1AB5 JUMP JUMPDEST PUSH1 0x40 MLOAD DUP1 SWAP2 SUB SWAP1 LOG2 PUSH1 0x40 MLOAD DUP1 PUSH1 0xA0 ADD PUSH1 0x40 MSTORE DUP1 DUP11 DUP2 MSTORE PUSH1 0x20 ADD DUP5 DUP2 MSTORE PUSH1 0x20 ADD DUP4 DUP2 MSTORE PUSH1 0x20 ADD PUSH2 0x168 PUSH8 0xDE0B6B3A7640000 DUP8 PUSH1 0x6 PUSH0 DUP15 PUSH1 0x3 DUP2 GT ISZERO PUSH2 0x618 JUMPI PUSH2 0x617 PUSH2 0x1A42 JUMP JUMPDEST JUMPDEST PUSH1 0x3 DUP2 GT ISZERO PUSH2 0x62A JUMPI PUSH2 0x629 PUSH2 0x1A42 JUMP JUMPDEST JUMPDEST DUP2 MSTORE PUSH1 0x20 ADD SWAP1 DUP2 MSTORE PUSH1 0x20 ADD PUSH0 KECCAK256 SLOAD PUSH2 0x642 SWAP2 SWAP1 PUSH2 0x18B7 JUMP JUMPDEST PUSH2 0x64C SWAP2 SWAP1 PUSH2 0x18B7 JUMP JUMPDEST PUSH2 0x656 SWAP2 SWAP1 PUSH2 0x1B25 JUMP JUMPDEST DUP2 MSTORE PUSH1 0x20 ADD PUSH1 0x1 ISZERO ISZERO DUP2 MSTORE POP PUSH1 0x7 PUSH0 CALLER PUSH20 0xFFFFFFFFFFFFFFFFFFFFFFFFFFFFFFFFFFFFFFFF AND PUSH20 0xFFFFFFFFFFFFFFFFFFFFFFFFFFFFFFFFFFFFFFFF AND DUP2 MSTORE PUSH1 0x20 ADD SWAP1 DUP2 MSTORE PUSH1 0x20 ADD PUSH0 KECCAK256 PUSH0 DUP4 DUP2 MSTORE PUSH1 0x20 ADD SWAP1 DUP2 MSTORE PUSH1 0x20 ADD PUSH0 KECCAK256 PUSH0 DUP3 ADD MLOAD DUP2 PUSH0 ADD SSTORE PUSH1 0x20 DUP3 ADD MLOAD DUP2 PUSH1 0x1 ADD SSTORE PUSH1 0x40 DUP3 ADD MLOAD DUP2 PUSH1 0x2 ADD SSTORE PUSH1 0x60 DUP3 ADD MLOAD DUP2 PUSH1 0x3 ADD SSTORE PUSH1 0x80 DUP3 ADD MLOAD DUP2 PUSH1 0x4 ADD PUSH0 PUSH2 0x100 EXP DUP2 SLOAD DUP2 PUSH1 0xFF MUL NOT AND SWAP1 DUP4 ISZERO ISZERO MUL OR SWAP1 SSTORE POP SWAP1 POP POP POP POP POP POP POP POP POP POP POP JUMP JUMPDEST PUSH0 PUSH1 0x2 SLOAD SWAP1 POP SWAP1 JUMP JUMPDEST PUSH1 0x6 PUSH1 0x20 MSTORE DUP1 PUSH0 MSTORE PUSH1 0x40 PUSH0 KECCAK256 PUSH0 SWAP2 POP SWAP1 POP SLOAD DUP2 JUMP JUMPDEST PUSH0 PUSH0 PUSH2 0x729 PUSH2 0xB9F JUMP JUMPDEST SWAP1 POP PUSH2 0x736 DUP6 DUP3 DUP6 PUSH2 0xD0A JUMP JUMPDEST PUSH2 0x741 DUP6 DUP6 DUP6 PUSH2 0xD9D JUMP JUMPDEST PUSH1 0x1 SWAP2 POP POP SWAP4 SWAP3 POP POP POP JUMP JUMPDEST PUSH0 PUSH1 0x7 PUSH0 CALLER PUSH20 0xFFFFFFFFFFFFFFFFFFFFFFFFFFFFFFFFFFFFFFFF AND PUSH20 0xFFFFFFFFFFFFFFFFFFFFFFFFFFFFFFFFFFFFFFFF AND DUP2 MSTORE PUSH1 0x20 ADD SWAP1 DUP2 MSTORE PUSH1 0x20 ADD PUSH0 KECCAK256 PUSH0 DUP4 DUP2 MSTORE PUSH1 0x20 ADD SWAP1 DUP2 MSTORE PUSH1 0x20 ADD PUSH0 KECCAK256 SWAP1 POP DUP1 PUSH1 0x4 ADD PUSH0 SWAP1 SLOAD SWAP1 PUSH2 0x100 EXP SWAP1 DIV PUSH1 0xFF AND PUSH2 0x7EC JUMPI PUSH1 0x40 MLOAD PUSH32 0x8C379A000000000000000000000000000000000000000000000000000000000 DUP2 MSTORE PUSH1 0x4 ADD PUSH2 0x7E3 SWAP1 PUSH2 0x1BC5 JUMP JUMPDEST PUSH1 0x40 MLOAD DUP1 SWAP2 SUB SWAP1 REVERT JUMPDEST DUP1 PUSH1 0x2 ADD SLOAD TIMESTAMP LT ISZERO PUSH2 0x833 JUMPI PUSH1 0x40 MLOAD PUSH32 0x8C379A000000000000000000000000000000000000000000000000000000000 DUP2 MSTORE PUSH1 0x4 ADD PUSH2 0x82A SWAP1 PUSH2 0x1C2D JUMP JUMPDEST PUSH1 0x40 MLOAD DUP1 SWAP2 SUB SWAP1 REVERT JUMPDEST PUSH0 PUSH8 0xDE0B6B3A7640000 PUSH1 0x64 DUP4 PUSH1 0x3 ADD SLOAD DUP5 PUSH0 ADD SLOAD PUSH2 0x852 SWAP2 SWAP1 PUSH2 0x18B7 JUMP JUMPDEST PUSH2 0x85C SWAP2 SWAP1 PUSH2 0x1B25 JUMP JUMPDEST PUSH2 0x866 SWAP2 SWAP1 PUSH2 0x1B25 JUMP JUMPDEST SWAP1 POP PUSH0 DUP2 DUP4 PUSH0 ADD SLOAD PUSH2 0x878 SWAP2 SWAP1 PUSH2 0x19C8 JUMP JUMPDEST SWAP1 POP PUSH0 DUP4 PUSH1 0x4 ADD PUSH0 PUSH2 0x100 EXP DUP2 SLOAD DUP2 PUSH1 0xFF MUL NOT AND SWAP1 DUP4 ISZERO ISZERO MUL OR SWAP1 SSTORE POP CALLER PUSH20 0xFFFFFFFFFFFFFFFFFFFFFFFFFFFFFFFFFFFFFFFF AND PUSH32 0x92CCF450A286A957AF52509BC1C9939D1A6A481783E142E41E2499F0BB66EBC6 DUP3 DUP7 PUSH1 0x40 MLOAD PUSH2 0x8DD SWAP3 SWAP2 SWAP1 PUSH2 0x1C4B JUMP JUMPDEST PUSH1 0x40 MLOAD DUP1 SWAP2 SUB SWAP1 LOG2 POP POP POP POP JUMP JUMPDEST PUSH0 PUSH1 0x12 SWAP1 POP SWAP1 JUMP JUMPDEST PUSH2 0x8FB PUSH2 0xE8D JUMP JUMPDEST PUSH2 0x905 DUP3 DUP3 PUSH2 0xF14 JUMP JUMPDEST POP POP JUMP JUMPDEST PUSH0 PUSH0 PUSH0 DUP4 PUSH20 0xFFFFFFFFFFFFFFFFFFFFFFFFFFFFFFFFFFFFFFFF AND PUSH20 0xFFFFFFFFFFFFFFFFFFFFFFFFFFFFFFFFFFFFFFFF AND DUP2 MSTORE PUSH1 0x20 ADD SWAP1 DUP2 MSTORE PUSH1 0x20 ADD PUSH0 KECCAK256 SLOAD SWAP1 POP SWAP2 SWAP1 POP JUMP JUMPDEST PUSH2 0x956 PUSH2 0xE8D JUMP JUMPDEST PUSH2 0x95F PUSH0 PUSH2 0xF93 JUMP JUMPDEST JUMP JUMPDEST PUSH1 0x8 PUSH1 0x20 MSTORE DUP1 PUSH0 MSTORE PUSH1 0x40 PUSH0 KECCAK256 PUSH0 SWAP2 POP SWAP1 POP SLOAD DUP2 JUMP JUMPDEST PUSH0 PUSH1 0x5 PUSH0 SWAP1 SLOAD SWAP1 PUSH2 0x100 EXP SWAP1 DIV PUSH20 0xFFFFFFFFFFFFFFFFFFFFFFFFFFFFFFFFFFFFFFFF AND SWAP1 POP SWAP1 JUMP JUMPDEST PUSH1 0x60 PUSH1 0x4 DUP1 SLOAD PUSH2 0x9AD SWAP1 PUSH2 0x185A JUMP JUMPDEST DUP1 PUSH1 0x1F ADD PUSH1 0x20 DUP1 SWAP2 DIV MUL PUSH1 0x20 ADD PUSH1 0x40 MLOAD SWAP1 DUP2 ADD PUSH1 0x40 MSTORE DUP1 SWAP3 SWAP2 SWAP1 DUP2 DUP2 MSTORE PUSH1 0x20 ADD DUP3 DUP1 SLOAD PUSH2 0x9D9 SWAP1 PUSH2 0x185A JUMP JUMPDEST DUP1 ISZERO PUSH2 0xA24 JUMPI DUP1 PUSH1 0x1F LT PUSH2 0x9FB JUMPI PUSH2 0x100 DUP1 DUP4 SLOAD DIV MUL DUP4 MSTORE SWAP2 PUSH1 0x20 ADD SWAP2 PUSH2 0xA24 JUMP JUMPDEST DUP3 ADD SWAP2 SWAP1 PUSH0 MSTORE PUSH1 0x20 PUSH0 KECCAK256 SWAP1 JUMPDEST DUP2 SLOAD DUP2 MSTORE SWAP1 PUSH1 0x1 ADD SWAP1 PUSH1 0x20 ADD DUP1 DUP4 GT PUSH2 0xA07 JUMPI DUP3 SWAP1 SUB PUSH1 0x1F AND DUP3 ADD SWAP2 JUMPDEST POP POP POP POP POP SWAP1 POP SWAP1 JUMP JUMPDEST PUSH0 PUSH0 PUSH2 0xA38 PUSH2 0xB9F JUMP JUMPDEST SWAP1 POP PUSH2 0xA45 DUP2 DUP6 DUP6 PUSH2 0xD9D JUMP JUMPDEST PUSH1 0x1 SWAP2 POP POP SWAP3 SWAP2 POP POP JUMP JUMPDEST PUSH1 0x7 PUSH1 0x20 MSTORE DUP2 PUSH0 MSTORE PUSH1 0x40 PUSH0 KECCAK256 PUSH1 0x20 MSTORE DUP1 PUSH0 MSTORE PUSH1 0x40 PUSH0 KECCAK256 PUSH0 SWAP2 POP SWAP2 POP POP DUP1 PUSH0 ADD SLOAD SWAP1 DUP1 PUSH1 0x1 ADD SLOAD SWAP1 DUP1 PUSH1 0x2 ADD SLOAD SWAP1 DUP1 PUSH1 0x3 ADD SLOAD SWAP1 DUP1 PUSH1 0x4 ADD PUSH0 SWAP1 SLOAD SWAP1 PUSH2 0x100 EXP SWAP1 DIV PUSH1 0xFF AND SWAP1 POP DUP6 JUMP JUMPDEST PUSH0 PUSH1 0x1 PUSH0 DUP5 PUSH20 0xFFFFFFFFFFFFFFFFFFFFFFFFFFFFFFFFFFFFFFFF AND PUSH20 0xFFFFFFFFFFFFFFFFFFFFFFFFFFFFFFFFFFFFFFFF AND DUP2 MSTORE PUSH1 0x20 ADD SWAP1 DUP2 MSTORE PUSH1 0x20 ADD PUSH0 KECCAK256 PUSH0 DUP4 PUSH20 0xFFFFFFFFFFFFFFFFFFFFFFFFFFFFFFFFFFFFFFFF AND PUSH20 0xFFFFFFFFFFFFFFFFFFFFFFFFFFFFFFFFFFFFFFFF AND DUP2 MSTORE PUSH1 0x20 ADD SWAP1 DUP2 MSTORE PUSH1 0x20 ADD PUSH0 KECCAK256 SLOAD SWAP1 POP SWAP3 SWAP2 POP POP JUMP JUMPDEST PUSH2 0xB23 PUSH2 0xE8D JUMP JUMPDEST PUSH0 PUSH20 0xFFFFFFFFFFFFFFFFFFFFFFFFFFFFFFFFFFFFFFFF AND DUP2 PUSH20 0xFFFFFFFFFFFFFFFFFFFFFFFFFFFFFFFFFFFFFFFF AND SUB PUSH2 0xB93 JUMPI PUSH0 PUSH1 0x40 MLOAD PUSH32 0x1E4FBDF700000000000000000000000000000000000000000000000000000000 DUP2 MSTORE PUSH1 0x4 ADD PUSH2 0xB8A SWAP2 SWAP1 PUSH2 0x1785 JUMP JUMPDEST PUSH1 0x40 MLOAD DUP1 SWAP2 SUB SWAP1 REVERT JUMPDEST PUSH2 0xB9C DUP2 PUSH2 0xF93 JUMP JUMPDEST POP JUMP JUMPDEST PUSH0 CALLER SWAP1 POP SWAP1 JUMP JUMPDEST PUSH2 0xBB3 DUP4 DUP4 DUP4 PUSH1 0x1 PUSH2 0x1056 JUMP JUMPDEST POP POP POP JUMP JUMPDEST PUSH2 0xBC0 PUSH2 0x143E JUMP JUMPDEST PUSH0 PUSH1 0x3 DUP2 GT ISZERO PUSH2 0xBD3 JUMPI PUSH2 0xBD2 PUSH2 0x1A42 JUMP JUMPDEST JUMPDEST DUP3 PUSH1 0x3 DUP2 GT ISZERO PUSH2 0xBE6 JUMPI PUSH2 0xBE5 PUSH2 0x1A42 JUMP JUMPDEST JUMPDEST SUB PUSH2 0xC09 JUMPI PUSH1 0x40 MLOAD DUP1 PUSH1 0x40 ADD PUSH1 0x40 MSTORE DUP1 PUSH1 0x1E DUP2 MSTORE PUSH1 0x20 ADD PUSH1 0x3C DUP2 MSTORE POP SWAP1 POP PUSH2 0xD05 JUMP JUMPDEST PUSH1 0x1 PUSH1 0x3 DUP2 GT ISZERO PUSH2 0xC1D JUMPI PUSH2 0xC1C PUSH2 0x1A42 JUMP JUMPDEST JUMPDEST DUP3 PUSH1 0x3 DUP2 GT ISZERO PUSH2 0xC30 JUMPI PUSH2 0xC2F PUSH2 0x1A42 JUMP JUMPDEST JUMPDEST SUB PUSH2 0xC53 JUMPI PUSH1 0x40 MLOAD DUP1 PUSH1 0x40 ADD PUSH1 0x40 MSTORE DUP1 PUSH1 0x5A DUP2 MSTORE PUSH1 0x20 ADD PUSH1 0xB4 DUP2 MSTORE POP SWAP1 POP PUSH2 0xD05 JUMP JUMPDEST PUSH1 0x2 PUSH1 0x3 DUP2 GT ISZERO PUSH2 0xC67 JUMPI PUSH2 0xC66 PUSH2 0x1A42 JUMP JUMPDEST JUMPDEST DUP3 PUSH1 0x3 DUP2 GT ISZERO PUSH2 0xC7A JUMPI PUSH2 0xC79 PUSH2 0x1A42 JUMP JUMPDEST JUMPDEST SUB PUSH2 0xC9E JUMPI PUSH1 0x40 MLOAD DUP1 PUSH1 0x40 ADD PUSH1 0x40 MSTORE DUP1 PUSH1 0xB4 DUP2 MSTORE PUSH1 0x20 ADD PUSH2 0x12C DUP2 MSTORE POP SWAP1 POP PUSH2 0xD05 JUMP JUMPDEST PUSH1 0x3 DUP1 DUP2 GT ISZERO PUSH2 0xCB1 JUMPI PUSH2 0xCB0 PUSH2 0x1A42 JUMP JUMPDEST JUMPDEST DUP3 PUSH1 0x3 DUP2 GT ISZERO PUSH2 0xCC4 JUMPI PUSH2 0xCC3 PUSH2 0x1A42 JUMP JUMPDEST JUMPDEST SUB PUSH2 0xCE9 JUMPI PUSH1 0x40 MLOAD DUP1 PUSH1 0x40 ADD PUSH1 0x40 MSTORE DUP1 PUSH2 0x168 DUP2 MSTORE PUSH1 0x20 ADD PUSH2 0x258 DUP2 MSTORE POP SWAP1 POP PUSH2 0xD05 JUMP JUMPDEST PUSH1 0x40 MLOAD DUP1 PUSH1 0x40 ADD PUSH1 0x40 MSTORE DUP1 PUSH2 0x168 DUP2 MSTORE PUSH1 0x20 ADD PUSH2 0xE10 DUP2 MSTORE POP SWAP1 POP JUMPDEST SWAP2 SWAP1 POP JUMP JUMPDEST PUSH0 PUSH2 0xD15 DUP5 DUP5 PUSH2 0xA99 JUMP JUMPDEST SWAP1 POP PUSH32 0xFFFFFFFFFFFFFFFFFFFFFFFFFFFFFFFFFFFFFFFFFFFFFFFFFFFFFFFFFFFFFFFF DUP2 LT ISZERO PUSH2 0xD97 JUMPI DUP2 DUP2 LT ISZERO PUSH2 0xD88 JUMPI DUP3 DUP2 DUP4 PUSH1 0x40 MLOAD PUSH32 0xFB8F41B200000000000000000000000000000000000000000000000000000000 DUP2 MSTORE PUSH1 0x4 ADD PUSH2 0xD7F SWAP4 SWAP3 SWAP2 SWAP1 PUSH2 0x1C72 JUMP JUMPDEST PUSH1 0x40 MLOAD DUP1 SWAP2 SUB SWAP1 REVERT JUMPDEST PUSH2 0xD96 DUP5 DUP5 DUP5 DUP5 SUB PUSH0 PUSH2 0x1056 JUMP JUMPDEST JUMPDEST POP POP POP POP JUMP JUMPDEST PUSH0 PUSH20 0xFFFFFFFFFFFFFFFFFFFFFFFFFFFFFFFFFFFFFFFF AND DUP4 PUSH20 0xFFFFFFFFFFFFFFFFFFFFFFFFFFFFFFFFFFFFFFFF AND SUB PUSH2 0xE0D JUMPI PUSH0 PUSH1 0x40 MLOAD PUSH32 0x96C6FD1E00000000000000000000000000000000000000000000000000000000 DUP2 MSTORE PUSH1 0x4 ADD PUSH2 0xE04 SWAP2 SWAP1 PUSH2 0x1785 JUMP JUMPDEST PUSH1 0x40 MLOAD DUP1 SWAP2 SUB SWAP1 REVERT JUMPDEST PUSH0 PUSH20 0xFFFFFFFFFFFFFFFFFFFFFFFFFFFFFFFFFFFFFFFF AND DUP3 PUSH20 0xFFFFFFFFFFFFFFFFFFFFFFFFFFFFFFFFFFFFFFFF AND SUB PUSH2 0xE7D JUMPI PUSH0 PUSH1 0x40 MLOAD PUSH32 0xEC442F0500000000000000000000000000000000000000000000000000000000 DUP2 MSTORE PUSH1 0x4 ADD PUSH2 0xE74 SWAP2 SWAP1 PUSH2 0x1785 JUMP JUMPDEST PUSH1 0x40 MLOAD DUP1 SWAP2 SUB SWAP1 REVERT JUMPDEST PUSH2 0xE88 DUP4 DUP4 DUP4 PUSH2 0x1225 JUMP JUMPDEST POP POP POP JUMP JUMPDEST PUSH2 0xE95 PUSH2 0xB9F JUMP JUMPDEST PUSH20 0xFFFFFFFFFFFFFFFFFFFFFFFFFFFFFFFFFFFFFFFF AND PUSH2 0xEB3 PUSH2 0x976 JUMP JUMPDEST PUSH20 0xFFFFFFFFFFFFFFFFFFFFFFFFFFFFFFFFFFFFFFFF AND EQ PUSH2 0xF12 JUMPI PUSH2 0xED6 PUSH2 0xB9F JUMP JUMPDEST PUSH1 0x40 MLOAD PUSH32 0x118CDAA700000000000000000000000000000000000000000000000000000000 DUP2 MSTORE PUSH1 0x4 ADD PUSH2 0xF09 SWAP2 SWAP1 PUSH2 0x1785 JUMP JUMPDEST PUSH1 0x40 MLOAD DUP1 SWAP2 SUB SWAP1 REVERT JUMPDEST JUMP JUMPDEST PUSH0 PUSH20 0xFFFFFFFFFFFFFFFFFFFFFFFFFFFFFFFFFFFFFFFF AND DUP3 PUSH20 0xFFFFFFFFFFFFFFFFFFFFFFFFFFFFFFFFFFFFFFFF AND SUB PUSH2 0xF84 JUMPI PUSH0 PUSH1 0x40 MLOAD PUSH32 0xEC442F0500000000000000000000000000000000000000000000000000000000 DUP2 MSTORE PUSH1 0x4 ADD PUSH2 0xF7B SWAP2 SWAP1 PUSH2 0x1785 JUMP JUMPDEST PUSH1 0x40 MLOAD DUP1 SWAP2 SUB SWAP1 REVERT JUMPDEST PUSH2 0xF8F PUSH0 DUP4 DUP4 PUSH2 0x1225 JUMP JUMPDEST POP POP JUMP JUMPDEST PUSH0 PUSH1 0x5 PUSH0 SWAP1 SLOAD SWAP1 PUSH2 0x100 EXP SWAP1 DIV PUSH20 0xFFFFFFFFFFFFFFFFFFFFFFFFFFFFFFFFFFFFFFFF AND SWAP1 POP DUP2 PUSH1 0x5 PUSH0 PUSH2 0x100 EXP DUP2 SLOAD DUP2 PUSH20 0xFFFFFFFFFFFFFFFFFFFFFFFFFFFFFFFFFFFFFFFF MUL NOT AND SWAP1 DUP4 PUSH20 0xFFFFFFFFFFFFFFFFFFFFFFFFFFFFFFFFFFFFFFFF AND MUL OR SWAP1 SSTORE POP DUP2 PUSH20 0xFFFFFFFFFFFFFFFFFFFFFFFFFFFFFFFFFFFFFFFF AND DUP2 PUSH20 0xFFFFFFFFFFFFFFFFFFFFFFFFFFFFFFFFFFFFFFFF AND PUSH32 0x8BE0079C531659141344CD1FD0A4F28419497F9722A3DAAFE3B4186F6B6457E0 PUSH1 0x40 MLOAD PUSH1 0x40 MLOAD DUP1 SWAP2 SUB SWAP1 LOG3 POP POP JUMP JUMPDEST PUSH0 PUSH20 0xFFFFFFFFFFFFFFFFFFFFFFFFFFFFFFFFFFFFFFFF AND DUP5 PUSH20 0xFFFFFFFFFFFFFFFFFFFFFFFFFFFFFFFFFFFFFFFF AND SUB PUSH2 0x10C6 JUMPI PUSH0 PUSH1 0x40 MLOAD PUSH32 0xE602DF0500000000000000000000000000000000000000000000000000000000 DUP2 MSTORE PUSH1 0x4 ADD PUSH2 0x10BD SWAP2 SWAP1 PUSH2 0x1785 JUMP JUMPDEST PUSH1 0x40 MLOAD DUP1 SWAP2 SUB SWAP1 REVERT JUMPDEST PUSH0 PUSH20 0xFFFFFFFFFFFFFFFFFFFFFFFFFFFFFFFFFFFFFFFF AND DUP4 PUSH20 0xFFFFFFFFFFFFFFFFFFFFFFFFFFFFFFFFFFFFFFFF AND SUB PUSH2 0x1136 JUMPI PUSH0 PUSH1 0x40 MLOAD PUSH32 0x94280D6200000000000000000000000000000000000000000000000000000000 DUP2 MSTORE PUSH1 0x4 ADD PUSH2 0x112D SWAP2 SWAP1 PUSH2 0x1785 JUMP JUMPDEST PUSH1 0x40 MLOAD DUP1 SWAP2 SUB SWAP1 REVERT JUMPDEST DUP2 PUSH1 0x1 PUSH0 DUP7 PUSH20 0xFFFFFFFFFFFFFFFFFFFFFFFFFFFFFFFFFFFFFFFF AND PUSH20 0xFFFFFFFFFFFFFFFFFFFFFFFFFFFFFFFFFFFFFFFF AND DUP2 MSTORE PUSH1 0x20 ADD SWAP1 DUP2 MSTORE PUSH1 0x20 ADD PUSH0 KECCAK256 PUSH0 DUP6 PUSH20 0xFFFFFFFFFFFFFFFFFFFFFFFFFFFFFFFFFFFFFFFF AND PUSH20 0xFFFFFFFFFFFFFFFFFFFFFFFFFFFFFFFFFFFFFFFF AND DUP2 MSTORE PUSH1 0x20 ADD SWAP1 DUP2 MSTORE PUSH1 0x20 ADD PUSH0 KECCAK256 DUP2 SWAP1 SSTORE POP DUP1 ISZERO PUSH2 0x121F JUMPI DUP3 PUSH20 0xFFFFFFFFFFFFFFFFFFFFFFFFFFFFFFFFFFFFFFFF AND DUP5 PUSH20 0xFFFFFFFFFFFFFFFFFFFFFFFFFFFFFFFFFFFFFFFF AND PUSH32 0x8C5BE1E5EBEC7D5BD14F71427D1E84F3DD0314C0F7B2291E5B200AC8C7C3B925 DUP5 PUSH1 0x40 MLOAD PUSH2 0x1216 SWAP2 SWAP1 PUSH2 0x1658 JUMP JUMPDEST PUSH1 0x40 MLOAD DUP1 SWAP2 SUB SWAP1 LOG3 JUMPDEST POP POP POP POP JUMP JUMPDEST PUSH0 PUSH20 0xFFFFFFFFFFFFFFFFFFFFFFFFFFFFFFFFFFFFFFFF AND DUP4 PUSH20 0xFFFFFFFFFFFFFFFFFFFFFFFFFFFFFFFFFFFFFFFF AND SUB PUSH2 0x1275 JUMPI DUP1 PUSH1 0x2 PUSH0 DUP3 DUP3 SLOAD PUSH2 0x1269 SWAP2 SWAP1 PUSH2 0x19C8 JUMP JUMPDEST SWAP3 POP POP DUP2 SWAP1 SSTORE POP PUSH2 0x1343 JUMP JUMPDEST PUSH0 PUSH0 PUSH0 DUP6 PUSH20 0xFFFFFFFFFFFFFFFFFFFFFFFFFFFFFFFFFFFFFFFF AND PUSH20 0xFFFFFFFFFFFFFFFFFFFFFFFFFFFFFFFFFFFFFFFF AND DUP2 MSTORE PUSH1 0x20 ADD SWAP1 DUP2 MSTORE PUSH1 0x20 ADD PUSH0 KECCAK256 SLOAD SWAP1 POP DUP2 DUP2 LT ISZERO PUSH2 0x12FE JUMPI DUP4 DUP2 DUP4 PUSH1 0x40 MLOAD PUSH32 0xE450D38C00000000000000000000000000000000000000000000000000000000 DUP2 MSTORE PUSH1 0x4 ADD PUSH2 0x12F5 SWAP4 SWAP3 SWAP2 SWAP1 PUSH2 0x1C72 JUMP JUMPDEST PUSH1 0x40 MLOAD DUP1 SWAP2 SUB SWAP1 REVERT JUMPDEST DUP2 DUP2 SUB PUSH0 PUSH0 DUP7 PUSH20 0xFFFFFFFFFFFFFFFFFFFFFFFFFFFFFFFFFFFFFFFF AND PUSH20 0xFFFFFFFFFFFFFFFFFFFFFFFFFFFFFFFFFFFFFFFF AND DUP2 MSTORE PUSH1 0x20 ADD SWAP1 DUP2 MSTORE PUSH1 0x20 ADD PUSH0 KECCAK256 DUP2 SWAP1 SSTORE POP POP JUMPDEST PUSH0 PUSH20 0xFFFFFFFFFFFFFFFFFFFFFFFFFFFFFFFFFFFFFFFF AND DUP3 PUSH20 0xFFFFFFFFFFFFFFFFFFFFFFFFFFFFFFFFFFFFFFFF AND SUB PUSH2 0x138A JUMPI DUP1 PUSH1 0x2 PUSH0 DUP3 DUP3 SLOAD SUB SWAP3 POP POP DUP2 SWAP1 SSTORE POP PUSH2 0x13D4 JUMP JUMPDEST DUP1 PUSH0 PUSH0 DUP5 PUSH20 0xFFFFFFFFFFFFFFFFFFFFFFFFFFFFFFFFFFFFFFFF AND PUSH20 0xFFFFFFFFFFFFFFFFFFFFFFFFFFFFFFFFFFFFFFFF AND DUP2 MSTORE PUSH1 0x20 ADD SWAP1 DUP2 MSTORE PUSH1 0x20 ADD PUSH0 KECCAK256 PUSH0 DUP3 DUP3 SLOAD ADD SWAP3 POP POP DUP2 SWAP1 SSTORE POP JUMPDEST DUP2 PUSH20 0xFFFFFFFFFFFFFFFFFFFFFFFFFFFFFFFFFFFFFFFF AND DUP4 PUSH20 0xFFFFFFFFFFFFFFFFFFFFFFFFFFFFFFFFFFFFFFFF AND PUSH32 0xDDF252AD1BE2C89B69C2B068FC378DAA952BA7F163C4A11628F55A4DF523B3EF DUP4 PUSH1 0x40 MLOAD PUSH2 0x1431 SWAP2 SWAP1 PUSH2 0x1658 JUMP JUMPDEST PUSH1 0x40 MLOAD DUP1 SWAP2 SUB SWAP1 LOG3 POP POP POP JUMP JUMPDEST PUSH1 0x40 MLOAD DUP1 PUSH1 0x40 ADD PUSH1 0x40 MSTORE DUP1 PUSH0 DUP2 MSTORE PUSH1 0x20 ADD PUSH0 DUP2 MSTORE POP SWAP1 JUMP JUMPDEST PUSH0 DUP2 MLOAD SWAP1 POP SWAP2 SWAP1 POP JUMP JUMPDEST PUSH0 DUP3 DUP3 MSTORE PUSH1 0x20 DUP3 ADD SWAP1 POP SWAP3 SWAP2 POP POP JUMP JUMPDEST DUP3 DUP2 DUP4 MCOPY PUSH0 DUP4 DUP4 ADD MSTORE POP POP POP JUMP JUMPDEST PUSH0 PUSH1 0x1F NOT PUSH1 0x1F DUP4 ADD AND SWAP1 POP SWAP2 SWAP1 POP JUMP JUMPDEST PUSH0 PUSH2 0x1498 DUP3 PUSH2 0x1456 JUMP JUMPDEST PUSH2 0x14A2 DUP2 DUP6 PUSH2 0x1460 JUMP JUMPDEST SWAP4 POP PUSH2 0x14B2 DUP2 DUP6 PUSH1 0x20 DUP7 ADD PUSH2 0x1470 JUMP JUMPDEST PUSH2 0x14BB DUP2 PUSH2 0x147E JUMP JUMPDEST DUP5 ADD SWAP2 POP POP SWAP3 SWAP2 POP POP JUMP JUMPDEST PUSH0 PUSH1 0x20 DUP3 ADD SWAP1 POP DUP2 DUP2 SUB PUSH0 DUP4 ADD MSTORE PUSH2 0x14DE DUP2 DUP5 PUSH2 0x148E JUMP JUMPDEST SWAP1 POP SWAP3 SWAP2 POP POP JUMP JUMPDEST PUSH0 PUSH0 REVERT JUMPDEST PUSH0 PUSH20 0xFFFFFFFFFFFFFFFFFFFFFFFFFFFFFFFFFFFFFFFF DUP3 AND SWAP1 POP SWAP2 SWAP1 POP JUMP JUMPDEST PUSH0 PUSH2 0x1513 DUP3 PUSH2 0x14EA JUMP JUMPDEST SWAP1 POP SWAP2 SWAP1 POP JUMP JUMPDEST PUSH2 0x1523 DUP2 PUSH2 0x1509 JUMP JUMPDEST DUP2 EQ PUSH2 0x152D JUMPI PUSH0 PUSH0 REVERT JUMPDEST POP JUMP JUMPDEST PUSH0 DUP2 CALLDATALOAD SWAP1 POP PUSH2 0x153E DUP2 PUSH2 0x151A JUMP JUMPDEST SWAP3 SWAP2 POP POP JUMP JUMPDEST PUSH0 DUP2 SWAP1 POP SWAP2 SWAP1 POP JUMP JUMPDEST PUSH2 0x1556 DUP2 PUSH2 0x1544 JUMP JUMPDEST DUP2 EQ PUSH2 0x1560 JUMPI PUSH0 PUSH0 REVERT JUMPDEST POP JUMP JUMPDEST PUSH0 DUP2 CALLDATALOAD SWAP1 POP PUSH2 0x1571 DUP2 PUSH2 0x154D JUMP JUMPDEST SWAP3 SWAP2 POP POP JUMP JUMPDEST PUSH0 PUSH0 PUSH1 0x40 DUP4 DUP6 SUB SLT ISZERO PUSH2 0x158D JUMPI PUSH2 0x158C PUSH2 0x14E6 JUMP JUMPDEST JUMPDEST PUSH0 PUSH2 0x159A DUP6 DUP3 DUP7 ADD PUSH2 0x1530 JUMP JUMPDEST SWAP3 POP POP PUSH1 0x20 PUSH2 0x15AB DUP6 DUP3 DUP7 ADD PUSH2 0x1563 JUMP JUMPDEST SWAP2 POP POP SWAP3 POP SWAP3 SWAP1 POP JUMP JUMPDEST PUSH0 DUP2 ISZERO ISZERO SWAP1 POP SWAP2 SWAP1 POP JUMP JUMPDEST PUSH2 0x15C9 DUP2 PUSH2 0x15B5 JUMP JUMPDEST DUP3 MSTORE POP POP JUMP JUMPDEST PUSH0 PUSH1 0x20 DUP3 ADD SWAP1 POP PUSH2 0x15E2 PUSH0 DUP4 ADD DUP5 PUSH2 0x15C0 JUMP JUMPDEST SWAP3 SWAP2 POP POP JUMP JUMPDEST PUSH1 0x4 DUP2 LT PUSH2 0x15F4 JUMPI PUSH0 PUSH0 REVERT JUMPDEST POP JUMP JUMPDEST PUSH0 DUP2 CALLDATALOAD SWAP1 POP PUSH2 0x1605 DUP2 PUSH2 0x15E8 JUMP JUMPDEST SWAP3 SWAP2 POP POP JUMP JUMPDEST PUSH0 PUSH0 PUSH1 0x40 DUP4 DUP6 SUB SLT ISZERO PUSH2 0x1621 JUMPI PUSH2 0x1620 PUSH2 0x14E6 JUMP JUMPDEST JUMPDEST PUSH0 PUSH2 0x162E DUP6 DUP3 DUP7 ADD PUSH2 0x1563 JUMP JUMPDEST SWAP3 POP POP PUSH1 0x20 PUSH2 0x163F DUP6 DUP3 DUP7 ADD PUSH2 0x15F7 JUMP JUMPDEST SWAP2 POP POP SWAP3 POP SWAP3 SWAP1 POP JUMP JUMPDEST PUSH2 0x1652 DUP2 PUSH2 0x1544 JUMP JUMPDEST DUP3 MSTORE POP POP JUMP JUMPDEST PUSH0 PUSH1 0x20 DUP3 ADD SWAP1 POP PUSH2 0x166B PUSH0 DUP4 ADD DUP5 PUSH2 0x1649 JUMP JUMPDEST SWAP3 SWAP2 POP POP JUMP JUMPDEST PUSH0 PUSH1 0x20 DUP3 DUP5 SUB SLT ISZERO PUSH2 0x1686 JUMPI PUSH2 0x1685 PUSH2 0x14E6 JUMP JUMPDEST JUMPDEST PUSH0 PUSH2 0x1693 DUP5 DUP3 DUP6 ADD PUSH2 0x15F7 JUMP JUMPDEST SWAP2 POP POP SWAP3 SWAP2 POP POP JUMP JUMPDEST PUSH0 PUSH0 PUSH0 PUSH1 0x60 DUP5 DUP7 SUB SLT ISZERO PUSH2 0x16B3 JUMPI PUSH2 0x16B2 PUSH2 0x14E6 JUMP JUMPDEST JUMPDEST PUSH0 PUSH2 0x16C0 DUP7 DUP3 DUP8 ADD PUSH2 0x1530 JUMP JUMPDEST SWAP4 POP POP PUSH1 0x20 PUSH2 0x16D1 DUP7 DUP3 DUP8 ADD PUSH2 0x1530 JUMP JUMPDEST SWAP3 POP POP PUSH1 0x40 PUSH2 0x16E2 DUP7 DUP3 DUP8 ADD PUSH2 0x1563 JUMP JUMPDEST SWAP2 POP POP SWAP3 POP SWAP3 POP SWAP3 JUMP JUMPDEST PUSH0 PUSH1 0x20 DUP3 DUP5 SUB SLT ISZERO PUSH2 0x1701 JUMPI PUSH2 0x1700 PUSH2 0x14E6 JUMP JUMPDEST JUMPDEST PUSH0 PUSH2 0x170E DUP5 DUP3 DUP6 ADD PUSH2 0x1563 JUMP JUMPDEST SWAP2 POP POP SWAP3 SWAP2 POP POP JUMP JUMPDEST PUSH0 PUSH1 0xFF DUP3 AND SWAP1 POP SWAP2 SWAP1 POP JUMP JUMPDEST PUSH2 0x172C DUP2 PUSH2 0x1717 JUMP JUMPDEST DUP3 MSTORE POP POP JUMP JUMPDEST PUSH0 PUSH1 0x20 DUP3 ADD SWAP1 POP PUSH2 0x1745 PUSH0 DUP4 ADD DUP5 PUSH2 0x1723 JUMP JUMPDEST SWAP3 SWAP2 POP POP JUMP JUMPDEST PUSH0 PUSH1 0x20 DUP3 DUP5 SUB SLT ISZERO PUSH2 0x1760 JUMPI PUSH2 0x175F PUSH2 0x14E6 JUMP JUMPDEST JUMPDEST PUSH0 PUSH2 0x176D DUP5 DUP3 DUP6 ADD PUSH2 0x1530 JUMP JUMPDEST SWAP2 POP POP SWAP3 SWAP2 POP POP JUMP JUMPDEST PUSH2 0x177F DUP2 PUSH2 0x1509 JUMP JUMPDEST DUP3 MSTORE POP POP JUMP JUMPDEST PUSH0 PUSH1 0x20 DUP3 ADD SWAP1 POP PUSH2 0x1798 PUSH0 DUP4 ADD DUP5 PUSH2 0x1776 JUMP JUMPDEST SWAP3 SWAP2 POP POP JUMP JUMPDEST PUSH0 PUSH1 0xA0 DUP3 ADD SWAP1 POP PUSH2 0x17B1 PUSH0 DUP4 ADD DUP9 PUSH2 0x1649 JUMP JUMPDEST PUSH2 0x17BE PUSH1 0x20 DUP4 ADD DUP8 PUSH2 0x1649 JUMP JUMPDEST PUSH2 0x17CB PUSH1 0x40 DUP4 ADD DUP7 PUSH2 0x1649 JUMP JUMPDEST PUSH2 0x17D8 PUSH1 0x60 DUP4 ADD DUP6 PUSH2 0x1649 JUMP JUMPDEST PUSH2 0x17E5 PUSH1 0x80 DUP4 ADD DUP5 PUSH2 0x15C0 JUMP JUMPDEST SWAP7 SWAP6 POP POP POP POP POP POP JUMP JUMPDEST PUSH0 PUSH0 PUSH1 0x40 DUP4 DUP6 SUB SLT ISZERO PUSH2 0x1805 JUMPI PUSH2 0x1804 PUSH2 0x14E6 JUMP JUMPDEST JUMPDEST PUSH0 PUSH2 0x1812 DUP6 DUP3 DUP7 ADD PUSH2 0x1530 JUMP JUMPDEST SWAP3 POP POP PUSH1 0x20 PUSH2 0x1823 DUP6 DUP3 DUP7 ADD PUSH2 0x1530 JUMP JUMPDEST SWAP2 POP POP SWAP3 POP SWAP3 SWAP1 POP JUMP JUMPDEST PUSH32 0x4E487B7100000000000000000000000000000000000000000000000000000000 PUSH0 MSTORE PUSH1 0x22 PUSH1 0x4 MSTORE PUSH1 0x24 PUSH0 REVERT JUMPDEST PUSH0 PUSH1 0x2 DUP3 DIV SWAP1 POP PUSH1 0x1 DUP3 AND DUP1 PUSH2 0x1871 JUMPI PUSH1 0x7F DUP3 AND SWAP2 POP JUMPDEST PUSH1 0x20 DUP3 LT DUP2 SUB PUSH2 0x1884 JUMPI PUSH2 0x1883 PUSH2 0x182D JUMP JUMPDEST JUMPDEST POP SWAP2 SWAP1 POP JUMP JUMPDEST PUSH32 0x4E487B7100000000000000000000000000000000000000000000000000000000 PUSH0 MSTORE PUSH1 0x11 PUSH1 0x4 MSTORE PUSH1 0x24 PUSH0 REVERT JUMPDEST PUSH0 PUSH2 0x18C1 DUP3 PUSH2 0x1544 JUMP JUMPDEST SWAP2 POP PUSH2 0x18CC DUP4 PUSH2 0x1544 JUMP JUMPDEST SWAP3 POP DUP3 DUP3 MUL PUSH2 0x18DA DUP2 PUSH2 0x1544 JUMP JUMPDEST SWAP2 POP DUP3 DUP3 DIV DUP5 EQ DUP4 ISZERO OR PUSH2 0x18F1 JUMPI PUSH2 0x18F0 PUSH2 0x188A JUMP JUMPDEST JUMPDEST POP SWAP3 SWAP2 POP POP JUMP JUMPDEST PUSH32 0x416D6F756E742073686F756C6420626520706F73697469766500000000000000 PUSH0 DUP3 ADD MSTORE POP JUMP JUMPDEST PUSH0 PUSH2 0x192C PUSH1 0x19 DUP4 PUSH2 0x1460 JUMP JUMPDEST SWAP2 POP PUSH2 0x1937 DUP3 PUSH2 0x18F8 JUMP JUMPDEST PUSH1 0x20 DUP3 ADD SWAP1 POP SWAP2 SWAP1 POP JUMP JUMPDEST PUSH0 PUSH1 0x20 DUP3 ADD SWAP1 POP DUP2 DUP2 SUB PUSH0 DUP4 ADD MSTORE PUSH2 0x1959 DUP2 PUSH2 0x1920 JUMP JUMPDEST SWAP1 POP SWAP2 SWAP1 POP JUMP JUMPDEST PUSH32 0x496E73756666696369656E742062616C616E6365000000000000000000000000 PUSH0 DUP3 ADD MSTORE POP JUMP JUMPDEST PUSH0 PUSH2 0x1994 PUSH1 0x14 DUP4 PUSH2 0x1460 JUMP JUMPDEST SWAP2 POP PUSH2 0x199F DUP3 PUSH2 0x1960 JUMP JUMPDEST PUSH1 0x20 DUP3 ADD SWAP1 POP SWAP2 SWAP1 POP JUMP JUMPDEST PUSH0 PUSH1 0x20 DUP3 ADD SWAP1 POP DUP2 DUP2 SUB PUSH0 DUP4 ADD MSTORE PUSH2 0x19C1 DUP2 PUSH2 0x1988 JUMP JUMPDEST SWAP1 POP SWAP2 SWAP1 POP JUMP JUMPDEST PUSH0 PUSH2 0x19D2 DUP3 PUSH2 0x1544 JUMP JUMPDEST SWAP2 POP PUSH2 0x19DD DUP4 PUSH2 0x1544 JUMP JUMPDEST SWAP3 POP DUP3 DUP3 ADD SWAP1 POP DUP1 DUP3 GT ISZERO PUSH2 0x19F5 JUMPI PUSH2 0x19F4 PUSH2 0x188A JUMP JUMPDEST JUMPDEST SWAP3 SWAP2 POP POP JUMP JUMPDEST PUSH0 PUSH2 0x1A05 DUP3 PUSH2 0x1544 JUMP JUMPDEST SWAP2 POP PUSH32 0xFFFFFFFFFFFFFFFFFFFFFFFFFFFFFFFFFFFFFFFFFFFFFFFFFFFFFFFFFFFFFFFF DUP3 SUB PUSH2 0x1A37 JUMPI PUSH2 0x1A36 PUSH2 0x188A JUMP JUMPDEST JUMPDEST PUSH1 0x1 DUP3 ADD SWAP1 POP SWAP2 SWAP1 POP JUMP JUMPDEST PUSH32 0x4E487B7100000000000000000000000000000000000000000000000000000000 PUSH0 MSTORE PUSH1 0x21 PUSH1 0x4 MSTORE PUSH1 0x24 PUSH0 REVERT JUMPDEST PUSH1 0x4 DUP2 LT PUSH2 0x1A80 JUMPI PUSH2 0x1A7F PUSH2 0x1A42 JUMP JUMPDEST JUMPDEST POP JUMP JUMPDEST PUSH0 DUP2 SWAP1 POP PUSH2 0x1A90 DUP3 PUSH2 0x1A6F JUMP JUMPDEST SWAP2 SWAP1 POP JUMP JUMPDEST PUSH0 PUSH2 0x1A9F DUP3 PUSH2 0x1A83 JUMP JUMPDEST SWAP1 POP SWAP2 SWAP1 POP JUMP JUMPDEST PUSH2 0x1AAF DUP2 PUSH2 0x1A95 JUMP JUMPDEST DUP3 MSTORE POP POP JUMP JUMPDEST PUSH0 PUSH1 0x80 DUP3 ADD SWAP1 POP PUSH2 0x1AC8 PUSH0 DUP4 ADD DUP8 PUSH2 0x1649 JUMP JUMPDEST PUSH2 0x1AD5 PUSH1 0x20 DUP4 ADD DUP7 PUSH2 0x1AA6 JUMP JUMPDEST PUSH2 0x1AE2 PUSH1 0x40 DUP4 ADD DUP6 PUSH2 0x1649 JUMP JUMPDEST PUSH2 0x1AEF PUSH1 0x60 DUP4 ADD DUP5 PUSH2 0x1649 JUMP JUMPDEST SWAP6 SWAP5 POP POP POP POP POP JUMP JUMPDEST PUSH32 0x4E487B7100000000000000000000000000000000000000000000000000000000 PUSH0 MSTORE PUSH1 0x12 PUSH1 0x4 MSTORE PUSH1 0x24 PUSH0 REVERT JUMPDEST PUSH0 PUSH2 0x1B2F DUP3 PUSH2 0x1544 JUMP JUMPDEST SWAP2 POP PUSH2 0x1B3A DUP4 PUSH2 0x1544 JUMP JUMPDEST SWAP3 POP DUP3 PUSH2 0x1B4A JUMPI PUSH2 0x1B49 PUSH2 0x1AF8 JUMP JUMPDEST JUMPDEST DUP3 DUP3 DIV SWAP1 POP SWAP3 SWAP2 POP POP JUMP JUMPDEST PUSH32 0x5374616B65206973206E6F7420616374697665206F7220616C72656164792077 PUSH0 DUP3 ADD MSTORE PUSH32 0x697468647261776E000000000000000000000000000000000000000000000000 PUSH1 0x20 DUP3 ADD MSTORE POP JUMP JUMPDEST PUSH0 PUSH2 0x1BAF PUSH1 0x28 DUP4 PUSH2 0x1460 JUMP JUMPDEST SWAP2 POP PUSH2 0x1BBA DUP3 PUSH2 0x1B55 JUMP JUMPDEST PUSH1 0x40 DUP3 ADD SWAP1 POP SWAP2 SWAP1 POP JUMP JUMPDEST PUSH0 PUSH1 0x20 DUP3 ADD SWAP1 POP DUP2 DUP2 SUB PUSH0 DUP4 ADD MSTORE PUSH2 0x1BDC DUP2 PUSH2 0x1BA3 JUMP JUMPDEST SWAP1 POP SWAP2 SWAP1 POP JUMP JUMPDEST PUSH32 0x5374616B6520706572696F64206973206E6F7420656E64656400000000000000 PUSH0 DUP3 ADD MSTORE POP JUMP JUMPDEST PUSH0 PUSH2 0x1C17 PUSH1 0x19 DUP4 PUSH2 0x1460 JUMP JUMPDEST SWAP2 POP PUSH2 0x1C22 DUP3 PUSH2 0x1BE3 JUMP JUMPDEST PUSH1 0x20 DUP3 ADD SWAP1 POP SWAP2 SWAP1 POP JUMP JUMPDEST PUSH0 PUSH1 0x20 DUP3 ADD SWAP1 POP DUP2 DUP2 SUB PUSH0 DUP4 ADD MSTORE PUSH2 0x1C44 DUP2 PUSH2 0x1C0B JUMP JUMPDEST SWAP1 POP SWAP2 SWAP1 POP JUMP JUMPDEST PUSH0 PUSH1 0x40 DUP3 ADD SWAP1 POP PUSH2 0x1C5E PUSH0 DUP4 ADD DUP6 PUSH2 0x1649 JUMP JUMPDEST PUSH2 0x1C6B PUSH1 0x20 DUP4 ADD DUP5 PUSH2 0x1649 JUMP JUMPDEST SWAP4 SWAP3 POP POP POP JUMP JUMPDEST PUSH0 PUSH1 0x60 DUP3 ADD SWAP1 POP PUSH2 0x1C85 PUSH0 DUP4 ADD DUP7 PUSH2 0x1776 JUMP JUMPDEST PUSH2 0x1C92 PUSH1 0x20 DUP4 ADD DUP6 PUSH2 0x1649 JUMP JUMPDEST PUSH2 0x1C9F PUSH1 0x40 DUP4 ADD DUP5 PUSH2 0x1649 JUMP JUMPDEST SWAP5 SWAP4 POP POP POP POP JUMP INVALID LOG2 PUSH5 0x6970667358 0x22 SLT KECCAK256 0xC5 GAS DUP2 ADDMOD 0xB0 RETURNCONTRACT 0xFF 0xC0 RETURN RETURNDATASIZE 0xB2 GASPRICE PUSH7 0x3D2F6A03E6CAD6 LT SWAPN 0xA5 LOG2 LT 0xEA EXTCODEHASH 0xA6 0xD0 PUSH2 0x5D83 PUSH5 0x736F6C6343 STOP ADDMOD 0x1E STOP CALLER "
				},
				"gasEstimates": {
					"creation": {
						"codeDepositCost": "1477800",
						"executionCost": "infinite",
						"totalCost": "infinite"
					},
					"external": {
						"allowance(address,address)": "infinite",
						"approve(address,uint256)": "infinite",
						"apy(uint8)": "2735",
						"balanceOf(address)": "2851",
						"decimals()": "427",
						"mint(address,uint256)": "infinite",
						"name()": "infinite",
						"nextStakeId(address)": "2869",
						"owner()": "2604",
						"renounceOwnership()": "infinite",
						"stake(uint256,uint8)": "infinite",
						"symbol()": "infinite",
						"totalSupply()": "2522",
						"transfer(address,uint256)": "infinite",
						"transferFrom(address,address,uint256)": "infinite",
						"transferOwnership(address)": "infinite",
						"userStakes(address,uint256)": "infinite",
						"withdraw(uint256)": "infinite"
					},
					"internal": {
						"_getDuration(enum MyToken.StakingPeriod)": "infinite"
					}
				},
				"methodIdentifiers": {
					"allowance(address,address)": "dd62ed3e",
					"approve(address,uint256)": "095ea7b3",
					"apy(uint8)": "1f1accb2",
					"balanceOf(address)": "70a08231",
					"decimals()": "313ce567",
					"mint(address,uint256)": "40c10f19",
					"name()": "06fdde03",
					"nextStakeId(address)": "762e54fc",
					"owner()": "8da5cb5b",
					"renounceOwnership()": "715018a6",
					"stake(uint256,uint8)": "10087fb1",
					"symbol()": "95d89b41",
					"totalSupply()": "18160ddd",
					"transfer(address,uint256)": "a9059cbb",
					"transferFrom(address,address,uint256)": "23b872dd",
					"transferOwnership(address)": "f2fde38b",
					"userStakes(address,uint256)": "b5d5b5fa",
					"withdraw(uint256)": "2e1a7d4d"
				}
			},
			"storageLayout": {
				"storage": [
					{
						"astId": 307,
						"contract": "contracts/MyToken.sol:MyToken",
						"label": "_balances",
						"offset": 0,
						"slot": "0",
						"type": "t_mapping(t_address,t_uint256)"
					},
					{
						"astId": 313,
						"contract": "contracts/MyToken.sol:MyToken",
						"label": "_allowances",
						"offset": 0,
						"slot": "1",
						"type": "t_mapping(t_address,t_mapping(t_address,t_uint256))"
					},
					{
						"astId": 315,
						"contract": "contracts/MyToken.sol:MyToken",
						"label": "_totalSupply",
						"offset": 0,
						"slot": "2",
						"type": "t_uint256"
					},
					{
						"astId": 317,
						"contract": "contracts/MyToken.sol:MyToken",
						"label": "_name",
						"offset": 0,
						"slot": "3",
						"type": "t_string_storage"
					},
					{
						"astId": 319,
						"contract": "contracts/MyToken.sol:MyToken",
						"label": "_symbol",
						"offset": 0,
						"slot": "4",
						"type": "t_string_storage"
					},
					{
						"astId": 8,
						"contract": "contracts/MyToken.sol:MyToken",
						"label": "_owner",
						"offset": 0,
						"slot": "5",
						"type": "t_address"
					},
					{
						"astId": 967,
						"contract": "contracts/MyToken.sol:MyToken",
						"label": "apy",
						"offset": 0,
						"slot": "6",
						"type": "t_mapping(t_enum(StakingPeriod)962,t_uint256)"
					},
					{
						"astId": 974,
						"contract": "contracts/MyToken.sol:MyToken",
						"label": "userStakes",
						"offset": 0,
						"slot": "7",
						"type": "t_mapping(t_address,t_mapping(t_uint256,t_struct(Stake)952_storage))"
					},
					{
						"astId": 978,
						"contract": "contracts/MyToken.sol:MyToken",
						"label": "nextStakeId",
						"offset": 0,
						"slot": "8",
						"type": "t_mapping(t_address,t_uint256)"
					}
				],
				"types": {
					"t_address": {
						"encoding": "inplace",
						"label": "address",
						"numberOfBytes": "20"
					},
					"t_bool": {
						"encoding": "inplace",
						"label": "bool",
						"numberOfBytes": "1"
					},
					"t_enum(StakingPeriod)962": {
						"encoding": "inplace",
						"label": "enum MyToken.StakingPeriod",
						"numberOfBytes": "1"
					},
					"t_mapping(t_address,t_mapping(t_address,t_uint256))": {
						"encoding": "mapping",
						"key": "t_address",
						"label": "mapping(address => mapping(address => uint256))",
						"numberOfBytes": "32",
						"value": "t_mapping(t_address,t_uint256)"
					},
					"t_mapping(t_address,t_mapping(t_uint256,t_struct(Stake)952_storage))": {
						"encoding": "mapping",
						"key": "t_address",
						"label": "mapping(address => mapping(uint256 => struct MyToken.Stake))",
						"numberOfBytes": "32",
						"value": "t_mapping(t_uint256,t_struct(Stake)952_storage)"
					},
					"t_mapping(t_address,t_uint256)": {
						"encoding": "mapping",
						"key": "t_address",
						"label": "mapping(address => uint256)",
						"numberOfBytes": "32",
						"value": "t_uint256"
					},
					"t_mapping(t_enum(StakingPeriod)962,t_uint256)": {
						"encoding": "mapping",
						"key": "t_enum(StakingPeriod)962",
						"label": "mapping(enum MyToken.StakingPeriod => uint256)",
						"numberOfBytes": "32",
						"value": "t_uint256"
					},
					"t_mapping(t_uint256,t_struct(Stake)952_storage)": {
						"encoding": "mapping",
						"key": "t_uint256",
						"label": "mapping(uint256 => struct MyToken.Stake)",
						"numberOfBytes": "32",
						"value": "t_struct(Stake)952_storage"
					},
					"t_string_storage": {
						"encoding": "bytes",
						"label": "string",
						"numberOfBytes": "32"
					},
					"t_struct(Stake)952_storage": {
						"encoding": "inplace",
						"label": "struct MyToken.Stake",
						"members": [
							{
								"astId": 943,
								"contract": "contracts/MyToken.sol:MyToken",
								"label": "amount",
								"offset": 0,
								"slot": "0",
								"type": "t_uint256"
							},
							{
								"astId": 945,
								"contract": "contracts/MyToken.sol:MyToken",
								"label": "startTime",
								"offset": 0,
								"slot": "1",
								"type": "t_uint256"
							},
							{
								"astId": 947,
								"contract": "contracts/MyToken.sol:MyToken",
								"label": "endTime",
								"offset": 0,
								"slot": "2",
								"type": "t_uint256"
							},
							{
								"astId": 949,
								"contract": "contracts/MyToken.sol:MyToken",
								"label": "rewardRate",
								"offset": 0,
								"slot": "3",
								"type": "t_uint256"
							},
							{
								"astId": 951,
								"contract": "contracts/MyToken.sol:MyToken",
								"label": "isActive",
								"offset": 0,
								"slot": "4",
								"type": "t_bool"
							}
						],
						"numberOfBytes": "160"
					},
					"t_uint256": {
						"encoding": "inplace",
						"label": "uint256",
						"numberOfBytes": "32"
					}
				}
			},
			"userdoc": {
				"kind": "user",
				"methods": {},
				"version": 1
			}
		}
	}
}