{
	"contracts/MyToken.sol": {
		"MtkContracts": {
			"abi": [
				{
					"inputs": [
						{
							"internalType": "contract IERC20",
							"name": "_mtkToken",
							"type": "address"
						}
					],
					"stateMutability": "nonpayable",
					"type": "constructor"
				},
				{
					"anonymous": false,
					"inputs": [
						{
							"indexed": true,
							"internalType": "address",
							"name": "user",
							"type": "address"
						},
						{
							"indexed": false,
							"internalType": "uint256",
							"name": "amount",
							"type": "uint256"
						},
						{
							"indexed": false,
							"internalType": "enum MtkContracts.StakingPeriod",
							"name": "period",
							"type": "uint8"
						},
						{
							"indexed": false,
							"internalType": "uint256",
							"name": "timestamp",
							"type": "uint256"
						},
						{
							"indexed": false,
							"internalType": "uint256",
							"name": "stakeIndex",
							"type": "uint256"
						}
					],
					"name": "Staked",
					"type": "event"
				},
				{
					"anonymous": false,
					"inputs": [
						{
							"indexed": true,
							"internalType": "address",
							"name": "user",
							"type": "address"
						},
						{
							"indexed": false,
							"internalType": "uint256",
							"name": "totalAmount",
							"type": "uint256"
						},
						{
							"indexed": false,
							"internalType": "uint256",
							"name": "stakeIndex",
							"type": "uint256"
						}
					],
					"name": "Withdrawn",
					"type": "event"
				},
				{
					"inputs": [
						{
							"internalType": "enum MtkContracts.StakingPeriod",
							"name": "",
							"type": "uint8"
						}
					],
					"name": "apy",
					"outputs": [
						{
							"internalType": "uint256",
							"name": "",
							"type": "uint256"
						}
					],
					"stateMutability": "view",
					"type": "function"
				},
				{
					"inputs": [
						{
							"internalType": "address",
							"name": "user",
							"type": "address"
						}
					],
					"name": "getUserActiveStakes",
					"outputs": [
						{
							"components": [
								{
									"internalType": "uint256",
									"name": "amount",
									"type": "uint256"
								},
								{
									"internalType": "uint256",
									"name": "startTime",
									"type": "uint256"
								},
								{
									"internalType": "uint256",
									"name": "endTime",
									"type": "uint256"
								},
								{
									"internalType": "uint256",
									"name": "rewardRate",
									"type": "uint256"
								},
								{
									"internalType": "bool",
									"name": "isActive",
									"type": "bool"
								},
								{
									"internalType": "uint256",
									"name": "stakeIndex",
									"type": "uint256"
								}
							],
							"internalType": "struct MtkContracts.Stake[]",
							"name": "",
							"type": "tuple[]"
						}
					],
					"stateMutability": "view",
					"type": "function"
				},
				{
					"inputs": [
						{
							"internalType": "address",
							"name": "",
							"type": "address"
						}
					],
					"name": "nextStakeId",
					"outputs": [
						{
							"internalType": "uint256",
							"name": "",
							"type": "uint256"
						}
					],
					"stateMutability": "view",
					"type": "function"
				},
				{
					"inputs": [
						{
							"internalType": "uint256",
							"name": "amount",
							"type": "uint256"
						},
						{
							"internalType": "enum MtkContracts.StakingPeriod",
							"name": "period",
							"type": "uint8"
						}
					],
					"name": "stake",
					"outputs": [],
					"stateMutability": "nonpayable",
					"type": "function"
				},
				{
					"inputs": [],
					"name": "stakeCount",
					"outputs": [
						{
							"internalType": "uint256",
							"name": "",
							"type": "uint256"
						}
					],
					"stateMutability": "view",
					"type": "function"
				},
				{
					"inputs": [
						{
							"internalType": "uint256",
							"name": "",
							"type": "uint256"
						}
					],
					"name": "stakeList",
					"outputs": [
						{
							"internalType": "uint256",
							"name": "",
							"type": "uint256"
						}
					],
					"stateMutability": "view",
					"type": "function"
				},
				{
					"inputs": [
						{
							"internalType": "uint256",
							"name": "",
							"type": "uint256"
						}
					],
					"name": "stakeOwnerMapping",
					"outputs": [
						{
							"internalType": "address",
							"name": "",
							"type": "address"
						}
					],
					"stateMutability": "view",
					"type": "function"
				},
				{
					"inputs": [],
					"name": "stakingToken",
					"outputs": [
						{
							"internalType": "contract IERC20",
							"name": "",
							"type": "address"
						}
					],
					"stateMutability": "view",
					"type": "function"
				},
				{
					"inputs": [
						{
							"internalType": "address",
							"name": "",
							"type": "address"
						},
						{
							"internalType": "uint256",
							"name": "",
							"type": "uint256"
						}
					],
					"name": "userStakes",
					"outputs": [
						{
							"internalType": "uint256",
							"name": "amount",
							"type": "uint256"
						},
						{
							"internalType": "uint256",
							"name": "startTime",
							"type": "uint256"
						},
						{
							"internalType": "uint256",
							"name": "endTime",
							"type": "uint256"
						},
						{
							"internalType": "uint256",
							"name": "rewardRate",
							"type": "uint256"
						},
						{
							"internalType": "bool",
							"name": "isActive",
							"type": "bool"
						},
						{
							"internalType": "uint256",
							"name": "stakeIndex",
							"type": "uint256"
						}
					],
					"stateMutability": "view",
					"type": "function"
				},
				{
					"inputs": [
						{
							"internalType": "uint256",
							"name": "stakeIndex",
							"type": "uint256"
						}
					],
					"name": "withdraw",
					"outputs": [],
					"stateMutability": "nonpayable",
					"type": "function"
				}
			],
			"devdoc": {
				"kind": "dev",
				"methods": {},
				"version": 1
			},
			"evm": {
				"assembly": "    /* \"contracts/MyToken.sol\":168:5281  contract MtkContracts  {... */\n  mstore(0x40, 0x80)\n    /* \"contracts/MyToken.sol\":1472:1808  constructor(... */\n  callvalue\n  dup1\n  iszero\n  tag_1\n  jumpi\n  revert(0x00, 0x00)\ntag_1:\n  pop\n  mload(0x40)\n  sub(codesize, bytecodeSize)\n  dup1\n  bytecodeSize\n  dup4\n  codecopy\n  dup2\n  dup2\n  add\n  0x40\n  mstore\n  dup2\n  add\n  swap1\n  tag_2\n  swap2\n  swap1\n  tag_3\n  jump\t// in\ntag_2:\n    /* \"contracts/MyToken.sol\":1541:1550  _mtkToken */\n  dup1\n    /* \"contracts/MyToken.sol\":1528:1540  stakingToken */\n  0x00\n  0x00\n    /* \"contracts/MyToken.sol\":1528:1550  stakingToken=_mtkToken */\n  0x0100\n  exp\n  dup2\n  sload\n  dup2\n  0xffffffffffffffffffffffffffffffffffffffff\n  mul\n  not\n  and\n  swap1\n  dup4\n  0xffffffffffffffffffffffffffffffffffffffff\n  and\n  mul\n  or\n  swap1\n  sstore\n  pop\n    /* \"contracts/MyToken.sol\":1593:1595  10 */\n  0x0a\n    /* \"contracts/MyToken.sol\":1561:1564  apy */\n  0x01\n    /* \"contracts/MyToken.sol\":1561:1590  apy[StakingPeriod.ThirtyDays] */\n  0x00\n    /* \"contracts/MyToken.sol\":1565:1589  StakingPeriod.ThirtyDays */\n  0x00\n    /* \"contracts/MyToken.sol\":1561:1590  apy[StakingPeriod.ThirtyDays] */\n  0x03\n  dup2\n  gt\n  iszero\n  tag_6\n  jumpi\n  tag_7\n  tag_8\n  jump\t// in\ntag_7:\ntag_6:\n  0x03\n  dup2\n  gt\n  iszero\n  tag_9\n  jumpi\n  tag_10\n  tag_8\n  jump\t// in\ntag_10:\ntag_9:\n  dup2\n  mstore\n  0x20\n  add\n  swap1\n  dup2\n  mstore\n  0x20\n  add\n  0x00\n  keccak256\n    /* \"contracts/MyToken.sol\":1561:1595  apy[StakingPeriod.ThirtyDays] = 10 */\n  dup2\n  swap1\n  sstore\n  pop\n    /* \"contracts/MyToken.sol\":1653:1655  15 */\n  0x0f\n    /* \"contracts/MyToken.sol\":1621:1624  apy */\n  0x01\n    /* \"contracts/MyToken.sol\":1621:1650  apy[StakingPeriod.NinetyDays] */\n  0x00\n    /* \"contracts/MyToken.sol\":1625:1649  StakingPeriod.NinetyDays */\n  0x01\n    /* \"contracts/MyToken.sol\":1621:1650  apy[StakingPeriod.NinetyDays] */\n  0x03\n  dup2\n  gt\n  iszero\n  tag_11\n  jumpi\n  tag_12\n  tag_8\n  jump\t// in\ntag_12:\ntag_11:\n  0x03\n  dup2\n  gt\n  iszero\n  tag_13\n  jumpi\n  tag_14\n  tag_8\n  jump\t// in\ntag_14:\ntag_13:\n  dup2\n  mstore\n  0x20\n  add\n  swap1\n  dup2\n  mstore\n  0x20\n  add\n  0x00\n  keccak256\n    /* \"contracts/MyToken.sol\":1621:1655  apy[StakingPeriod.NinetyDays] = 15 */\n  dup2\n  swap1\n  sstore\n  pop\n    /* \"contracts/MyToken.sol\":1720:1722  20 */\n  0x14\n    /* \"contracts/MyToken.sol\":1681:1684  apy */\n  0x01\n    /* \"contracts/MyToken.sol\":1681:1717  apy[StakingPeriod.HundredEightyDays] */\n  0x00\n    /* \"contracts/MyToken.sol\":1685:1716  StakingPeriod.HundredEightyDays */\n  0x02\n    /* \"contracts/MyToken.sol\":1681:1717  apy[StakingPeriod.HundredEightyDays] */\n  0x03\n  dup2\n  gt\n  iszero\n  tag_15\n  jumpi\n  tag_16\n  tag_8\n  jump\t// in\ntag_16:\ntag_15:\n  0x03\n  dup2\n  gt\n  iszero\n  tag_17\n  jumpi\n  tag_18\n  tag_8\n  jump\t// in\ntag_18:\ntag_17:\n  dup2\n  mstore\n  0x20\n  add\n  swap1\n  dup2\n  mstore\n  0x20\n  add\n  0x00\n  keccak256\n    /* \"contracts/MyToken.sol\":1681:1722  apy[StakingPeriod.HundredEightyDays] = 20 */\n  dup2\n  swap1\n  sstore\n  pop\n    /* \"contracts/MyToken.sol\":1780:1782  25 */\n  0x19\n    /* \"contracts/MyToken.sol\":1751:1754  apy */\n  0x01\n    /* \"contracts/MyToken.sol\":1751:1777  apy[StakingPeriod.OneYear] */\n  0x00\n    /* \"contracts/MyToken.sol\":1755:1776  StakingPeriod.OneYear */\n  0x03\n    /* \"contracts/MyToken.sol\":1751:1777  apy[StakingPeriod.OneYear] */\n  dup1\n  dup2\n  gt\n  iszero\n  tag_19\n  jumpi\n  tag_20\n  tag_8\n  jump\t// in\ntag_20:\ntag_19:\n  0x03\n  dup2\n  gt\n  iszero\n  tag_21\n  jumpi\n  tag_22\n  tag_8\n  jump\t// in\ntag_22:\ntag_21:\n  dup2\n  mstore\n  0x20\n  add\n  swap1\n  dup2\n  mstore\n  0x20\n  add\n  0x00\n  keccak256\n    /* \"contracts/MyToken.sol\":1751:1782  apy[StakingPeriod.OneYear] = 25 */\n  dup2\n  swap1\n  sstore\n  pop\n    /* \"contracts/MyToken.sol\":1472:1808  constructor(... */\n  pop\n    /* \"contracts/MyToken.sol\":168:5281  contract MtkContracts  {... */\n  jump(tag_23)\n    /* \"#utility.yul\":88:205   */\ntag_25:\n    /* \"#utility.yul\":197:198   */\n  0x00\n    /* \"#utility.yul\":194:195   */\n  0x00\n    /* \"#utility.yul\":187:199   */\n  revert\n    /* \"#utility.yul\":334:460   */\ntag_27:\n    /* \"#utility.yul\":371:378   */\n  0x00\n    /* \"#utility.yul\":411:453   */\n  0xffffffffffffffffffffffffffffffffffffffff\n    /* \"#utility.yul\":404:409   */\n  dup3\n    /* \"#utility.yul\":400:454   */\n  and\n    /* \"#utility.yul\":389:454   */\n  swap1\n  pop\n    /* \"#utility.yul\":334:460   */\n  swap2\n  swap1\n  pop\n  jump\t// out\n    /* \"#utility.yul\":466:562   */\ntag_28:\n    /* \"#utility.yul\":503:510   */\n  0x00\n    /* \"#utility.yul\":532:556   */\n  tag_38\n    /* \"#utility.yul\":550:555   */\n  dup3\n    /* \"#utility.yul\":532:556   */\n  tag_27\n  jump\t// in\ntag_38:\n    /* \"#utility.yul\":521:556   */\n  swap1\n  pop\n    /* \"#utility.yul\":466:562   */\n  swap2\n  swap1\n  pop\n  jump\t// out\n    /* \"#utility.yul\":568:678   */\ntag_29:\n    /* \"#utility.yul\":619:626   */\n  0x00\n    /* \"#utility.yul\":648:672   */\n  tag_40\n    /* \"#utility.yul\":666:671   */\n  dup3\n    /* \"#utility.yul\":648:672   */\n  tag_28\n  jump\t// in\ntag_40:\n    /* \"#utility.yul\":637:672   */\n  swap1\n  pop\n    /* \"#utility.yul\":568:678   */\n  swap2\n  swap1\n  pop\n  jump\t// out\n    /* \"#utility.yul\":684:834   */\ntag_30:\n    /* \"#utility.yul\":771:809   */\n  tag_42\n    /* \"#utility.yul\":803:808   */\n  dup2\n    /* \"#utility.yul\":771:809   */\n  tag_29\n  jump\t// in\ntag_42:\n    /* \"#utility.yul\":764:769   */\n  dup2\n    /* \"#utility.yul\":761:810   */\n  eq\n    /* \"#utility.yul\":751:828   */\n  tag_43\n  jumpi\n    /* \"#utility.yul\":824:825   */\n  0x00\n    /* \"#utility.yul\":821:822   */\n  0x00\n    /* \"#utility.yul\":814:826   */\n  revert\n    /* \"#utility.yul\":751:828   */\ntag_43:\n    /* \"#utility.yul\":684:834   */\n  pop\n  jump\t// out\n    /* \"#utility.yul\":840:1011   */\ntag_31:\n    /* \"#utility.yul\":911:916   */\n  0x00\n    /* \"#utility.yul\":942:948   */\n  dup2\n    /* \"#utility.yul\":936:949   */\n  mload\n    /* \"#utility.yul\":927:949   */\n  swap1\n  pop\n    /* \"#utility.yul\":958:1005   */\n  tag_45\n    /* \"#utility.yul\":999:1004   */\n  dup2\n    /* \"#utility.yul\":958:1005   */\n  tag_30\n  jump\t// in\ntag_45:\n    /* \"#utility.yul\":840:1011   */\n  swap3\n  swap2\n  pop\n  pop\n  jump\t// out\n    /* \"#utility.yul\":1017:1396   */\ntag_3:\n    /* \"#utility.yul\":1101:1107   */\n  0x00\n    /* \"#utility.yul\":1150:1152   */\n  0x20\n    /* \"#utility.yul\":1138:1147   */\n  dup3\n    /* \"#utility.yul\":1129:1136   */\n  dup5\n    /* \"#utility.yul\":1125:1148   */\n  sub\n    /* \"#utility.yul\":1121:1153   */\n  slt\n    /* \"#utility.yul\":1118:1237   */\n  iszero\n  tag_47\n  jumpi\n    /* \"#utility.yul\":1156:1235   */\n  tag_48\n  tag_25\n  jump\t// in\ntag_48:\n    /* \"#utility.yul\":1118:1237   */\ntag_47:\n    /* \"#utility.yul\":1276:1277   */\n  0x00\n    /* \"#utility.yul\":1301:1379   */\n  tag_49\n    /* \"#utility.yul\":1371:1378   */\n  dup5\n    /* \"#utility.yul\":1362:1368   */\n  dup3\n    /* \"#utility.yul\":1351:1360   */\n  dup6\n    /* \"#utility.yul\":1347:1369   */\n  add\n    /* \"#utility.yul\":1301:1379   */\n  tag_31\n  jump\t// in\ntag_49:\n    /* \"#utility.yul\":1291:1379   */\n  swap2\n  pop\n    /* \"#utility.yul\":1247:1389   */\n  pop\n    /* \"#utility.yul\":1017:1396   */\n  swap3\n  swap2\n  pop\n  pop\n  jump\t// out\n    /* \"#utility.yul\":1402:1582   */\ntag_8:\n    /* \"#utility.yul\":1450:1527   */\n  0x4e487b7100000000000000000000000000000000000000000000000000000000\n    /* \"#utility.yul\":1447:1448   */\n  0x00\n    /* \"#utility.yul\":1440:1528   */\n  mstore\n    /* \"#utility.yul\":1547:1551   */\n  0x21\n    /* \"#utility.yul\":1544:1545   */\n  0x04\n    /* \"#utility.yul\":1537:1552   */\n  mstore\n    /* \"#utility.yul\":1571:1575   */\n  0x24\n    /* \"#utility.yul\":1568:1569   */\n  0x00\n    /* \"#utility.yul\":1561:1576   */\n  revert\n    /* \"contracts/MyToken.sol\":168:5281  contract MtkContracts  {... */\ntag_23:\n  dataSize(sub_0)\n  dup1\n  dataOffset(sub_0)\n  0x00\n  codecopy\n  0x00\n  return\nstop\n\nsub_0: assembly {\n        /* \"contracts/MyToken.sol\":168:5281  contract MtkContracts  {... */\n      mstore(0x40, 0x80)\n      callvalue\n      dup1\n      iszero\n      tag_1\n      jumpi\n      revert(0x00, 0x00)\n    tag_1:\n      pop\n      jumpi(tag_2, lt(calldatasize, 0x04))\n      shr(0xe0, calldataload(0x00))\n      dup1\n      0x762e54fc\n      gt\n      tag_13\n      jumpi\n      dup1\n      0x762e54fc\n      eq\n      tag_8\n      jumpi\n      dup1\n      0xa262ab35\n      eq\n      tag_9\n      jumpi\n      dup1\n      0xa57a5304\n      eq\n      tag_10\n      jumpi\n      dup1\n      0xb5d5b5fa\n      eq\n      tag_11\n      jumpi\n      dup1\n      0xc4a9e116\n      eq\n      tag_12\n      jumpi\n      jump(tag_2)\n    tag_13:\n      dup1\n      0x10087fb1\n      eq\n      tag_3\n      jumpi\n      dup1\n      0x1f1accb2\n      eq\n      tag_4\n      jumpi\n      dup1\n      0x2e1a7d4d\n      eq\n      tag_5\n      jumpi\n      dup1\n      0x4c86259e\n      eq\n      tag_6\n      jumpi\n      dup1\n      0x72f702f3\n      eq\n      tag_7\n      jumpi\n    tag_2:\n      revert(0x00, 0x00)\n        /* \"contracts/MyToken.sol\":1816:3015  function stake(uint256 amount, StakingPeriod period) external {... */\n    tag_3:\n      tag_14\n      0x04\n      dup1\n      calldatasize\n      sub\n      dup2\n      add\n      swap1\n      tag_15\n      swap2\n      swap1\n      tag_16\n      jump\t// in\n    tag_15:\n      tag_17\n      jump\t// in\n    tag_14:\n      stop\n        /* \"contracts/MyToken.sol\":774:818  mapping(StakingPeriod => uint256) public apy */\n    tag_4:\n      tag_18\n      0x04\n      dup1\n      calldatasize\n      sub\n      dup2\n      add\n      swap1\n      tag_19\n      swap2\n      swap1\n      tag_20\n      jump\t// in\n    tag_19:\n      tag_21\n      jump\t// in\n    tag_18:\n      mload(0x40)\n      tag_22\n      swap2\n      swap1\n      tag_23\n      jump\t// in\n    tag_22:\n      mload(0x40)\n      dup1\n      swap2\n      sub\n      swap1\n      return\n        /* \"contracts/MyToken.sol\":3958:4529  function withdraw(uint256 stakeIndex) external {... */\n    tag_5:\n      tag_24\n      0x04\n      dup1\n      calldatasize\n      sub\n      dup2\n      add\n      swap1\n      tag_25\n      swap2\n      swap1\n      tag_26\n      jump\t// in\n    tag_25:\n      tag_27\n      jump\t// in\n    tag_24:\n      stop\n        /* \"contracts/MyToken.sol\":1101:1127  uint256[] public stakeList */\n    tag_6:\n      tag_28\n      0x04\n      dup1\n      calldatasize\n      sub\n      dup2\n      add\n      swap1\n      tag_29\n      swap2\n      swap1\n      tag_26\n      jump\t// in\n    tag_29:\n      tag_30\n      jump\t// in\n    tag_28:\n      mload(0x40)\n      tag_31\n      swap2\n      swap1\n      tag_23\n      jump\t// in\n    tag_31:\n      mload(0x40)\n      dup1\n      swap2\n      sub\n      swap1\n      return\n        /* \"contracts/MyToken.sol\":740:766  IERC20 public stakingToken */\n    tag_7:\n      tag_32\n      tag_33\n      jump\t// in\n    tag_32:\n      mload(0x40)\n      tag_34\n      swap2\n      swap1\n      tag_35\n      jump\t// in\n    tag_34:\n      mload(0x40)\n      dup1\n      swap2\n      sub\n      swap1\n      return\n        /* \"contracts/MyToken.sol\":973:1019  mapping(address => uint256) public nextStakeId */\n    tag_8:\n      tag_36\n      0x04\n      dup1\n      calldatasize\n      sub\n      dup2\n      add\n      swap1\n      tag_37\n      swap2\n      swap1\n      tag_38\n      jump\t// in\n    tag_37:\n      tag_39\n      jump\t// in\n    tag_36:\n      mload(0x40)\n      tag_40\n      swap2\n      swap1\n      tag_23\n      jump\t// in\n    tag_40:\n      mload(0x40)\n      dup1\n      swap2\n      sub\n      swap1\n      return\n        /* \"contracts/MyToken.sol\":4770:5274  function getUserActiveStakes(address user) external view returns (Stake[] memory) {       ... */\n    tag_9:\n      tag_41\n      0x04\n      dup1\n      calldatasize\n      sub\n      dup2\n      add\n      swap1\n      tag_42\n      swap2\n      swap1\n      tag_38\n      jump\t// in\n    tag_42:\n      tag_43\n      jump\t// in\n    tag_41:\n      mload(0x40)\n      tag_44\n      swap2\n      swap1\n      tag_45\n      jump\t// in\n    tag_44:\n      mload(0x40)\n      dup1\n      swap2\n      sub\n      swap1\n      return\n        /* \"contracts/MyToken.sol\":1044:1094  mapping(uint256=>address) public stakeOwnerMapping */\n    tag_10:\n      tag_46\n      0x04\n      dup1\n      calldatasize\n      sub\n      dup2\n      add\n      swap1\n      tag_47\n      swap2\n      swap1\n      tag_26\n      jump\t// in\n    tag_47:\n      tag_48\n      jump\t// in\n    tag_46:\n      mload(0x40)\n      tag_49\n      swap2\n      swap1\n      tag_50\n      jump\t// in\n    tag_49:\n      mload(0x40)\n      dup1\n      swap2\n      sub\n      swap1\n      return\n        /* \"contracts/MyToken.sol\":875:936  mapping(address => mapping(uint256=>Stake)) public userStakes */\n    tag_11:\n      tag_51\n      0x04\n      dup1\n      calldatasize\n      sub\n      dup2\n      add\n      swap1\n      tag_52\n      swap2\n      swap1\n      tag_53\n      jump\t// in\n    tag_52:\n      tag_54\n      jump\t// in\n    tag_51:\n      mload(0x40)\n      tag_55\n      swap7\n      swap6\n      swap5\n      swap4\n      swap3\n      swap2\n      swap1\n      tag_56\n      jump\t// in\n    tag_55:\n      mload(0x40)\n      dup1\n      swap2\n      sub\n      swap1\n      return\n        /* \"contracts/MyToken.sol\":1133:1158  uint256 public stakeCount */\n    tag_12:\n      tag_57\n      tag_58\n      jump\t// in\n    tag_57:\n      mload(0x40)\n      tag_59\n      swap2\n      swap1\n      tag_23\n      jump\t// in\n    tag_59:\n      mload(0x40)\n      dup1\n      swap2\n      sub\n      swap1\n      return\n        /* \"contracts/MyToken.sol\":1816:3015  function stake(uint256 amount, StakingPeriod period) external {... */\n    tag_17:\n        /* \"contracts/MyToken.sol\":1888:1905  uint256 amountWei */\n      0x00\n        /* \"contracts/MyToken.sol\":1913:1919  10**18 */\n      0x0de0b6b3a7640000\n        /* \"contracts/MyToken.sol\":1906:1912  amount */\n      dup4\n        /* \"contracts/MyToken.sol\":1906:1919  amount*10**18 */\n      tag_61\n      swap2\n      swap1\n      tag_62\n      jump\t// in\n    tag_61:\n        /* \"contracts/MyToken.sol\":1888:1919  uint256 amountWei=amount*10**18 */\n      swap1\n      pop\n        /* \"contracts/MyToken.sol\":1944:1945  0 */\n      0x00\n        /* \"contracts/MyToken.sol\":1937:1943  amount */\n      dup4\n        /* \"contracts/MyToken.sol\":1937:1945  amount>0 */\n      gt\n        /* \"contracts/MyToken.sol\":1929:1975  require(amount>0, \"Amount should be positive\") */\n      tag_63\n      jumpi\n      mload(0x40)\n      0x08c379a000000000000000000000000000000000000000000000000000000000\n      dup2\n      mstore\n      0x04\n      add\n      tag_64\n      swap1\n      tag_65\n      jump\t// in\n    tag_64:\n      mload(0x40)\n      dup1\n      swap2\n      sub\n      swap1\n      revert\n    tag_63:\n        /* \"contracts/MyToken.sol\":2029:2038  amountWei */\n      dup1\n        /* \"contracts/MyToken.sol\":1993:2005  stakingToken */\n      0x00\n      0x00\n      swap1\n      sload\n      swap1\n      0x0100\n      exp\n      swap1\n      div\n      0xffffffffffffffffffffffffffffffffffffffff\n      and\n        /* \"contracts/MyToken.sol\":1993:2015  stakingToken.balanceOf */\n      0xffffffffffffffffffffffffffffffffffffffff\n      and\n      0x70a08231\n        /* \"contracts/MyToken.sol\":2016:2026  msg.sender */\n      caller\n        /* \"contracts/MyToken.sol\":1993:2027  stakingToken.balanceOf(msg.sender) */\n      mload(0x40)\n      dup3\n      0xffffffff\n      and\n      0xe0\n      shl\n      dup2\n      mstore\n      0x04\n      add\n      tag_66\n      swap2\n      swap1\n      tag_50\n      jump\t// in\n    tag_66:\n      0x20\n      mload(0x40)\n      dup1\n      dup4\n      sub\n      dup2\n      dup7\n      gas\n      staticcall\n      iszero\n      dup1\n      iszero\n      tag_68\n      jumpi\n      returndatacopy(0x00, 0x00, returndatasize)\n      revert(0x00, returndatasize)\n    tag_68:\n      pop\n      pop\n      pop\n      pop\n      mload(0x40)\n      returndatasize\n      not(0x1f)\n      0x1f\n      dup3\n      add\n      and\n      dup3\n      add\n      dup1\n      0x40\n      mstore\n      pop\n      dup2\n      add\n      swap1\n      tag_69\n      swap2\n      swap1\n      tag_70\n      jump\t// in\n    tag_69:\n        /* \"contracts/MyToken.sol\":1993:2038  stakingToken.balanceOf(msg.sender)>=amountWei */\n      lt\n      iszero\n        /* \"contracts/MyToken.sol\":1985:2063  require(stakingToken.balanceOf(msg.sender)>=amountWei, \"Insufficient balance\") */\n      tag_71\n      jumpi\n      mload(0x40)\n      0x08c379a000000000000000000000000000000000000000000000000000000000\n      dup2\n      mstore\n      0x04\n      add\n      tag_72\n      swap1\n      tag_73\n      jump\t// in\n    tag_72:\n      mload(0x40)\n      dup1\n      swap2\n      sub\n      swap1\n      revert\n    tag_71:\n        /* \"contracts/MyToken.sol\":2081:2093  stakingToken */\n      0x00\n      0x00\n      swap1\n      sload\n      swap1\n      0x0100\n      exp\n      swap1\n      div\n      0xffffffffffffffffffffffffffffffffffffffff\n      and\n        /* \"contracts/MyToken.sol\":2081:2106  stakingToken.transferFrom */\n      0xffffffffffffffffffffffffffffffffffffffff\n      and\n      0x23b872dd\n        /* \"contracts/MyToken.sol\":2107:2117  msg.sender */\n      caller\n        /* \"contracts/MyToken.sol\":2127:2131  this */\n      address\n        /* \"contracts/MyToken.sol\":2134:2140  amount */\n      dup7\n        /* \"contracts/MyToken.sol\":2081:2141  stakingToken.transferFrom(msg.sender, address(this), amount) */\n      mload(0x40)\n      dup5\n      0xffffffff\n      and\n      0xe0\n      shl\n      dup2\n      mstore\n      0x04\n      add\n      tag_74\n      swap4\n      swap3\n      swap2\n      swap1\n      tag_75\n      jump\t// in\n    tag_74:\n      0x20\n      mload(0x40)\n      dup1\n      dup4\n      sub\n      dup2\n      0x00\n      dup8\n      gas\n      call\n      iszero\n      dup1\n      iszero\n      tag_77\n      jumpi\n      returndatacopy(0x00, 0x00, returndatasize)\n      revert(0x00, returndatasize)\n    tag_77:\n      pop\n      pop\n      pop\n      pop\n      mload(0x40)\n      returndatasize\n      not(0x1f)\n      0x1f\n      dup3\n      add\n      and\n      dup3\n      add\n      dup1\n      0x40\n      mstore\n      pop\n      dup2\n      add\n      swap1\n      tag_78\n      swap2\n      swap1\n      tag_79\n      jump\t// in\n    tag_78:\n        /* \"contracts/MyToken.sol\":2073:2169  require(stakingToken.transferFrom(msg.sender, address(this), amount),\"Staking: Transfer failed\") */\n      tag_80\n      jumpi\n      mload(0x40)\n      0x08c379a000000000000000000000000000000000000000000000000000000000\n      dup2\n      mstore\n      0x04\n      add\n      tag_81\n      swap1\n      tag_82\n      jump\t// in\n    tag_81:\n      mload(0x40)\n      dup1\n      swap2\n      sub\n      swap1\n      revert\n    tag_80:\n        /* \"contracts/MyToken.sol\":2188:2217  timeMapping memory durMapping */\n      0x00\n        /* \"contracts/MyToken.sol\":2220:2240  _getDuration(period) */\n      tag_83\n        /* \"contracts/MyToken.sol\":2233:2239  period */\n      dup4\n        /* \"contracts/MyToken.sol\":2220:2232  _getDuration */\n      tag_84\n        /* \"contracts/MyToken.sol\":2220:2240  _getDuration(period) */\n      jump\t// in\n    tag_83:\n        /* \"contracts/MyToken.sol\":2188:2240  timeMapping memory durMapping = _getDuration(period) */\n      swap1\n      pop\n        /* \"contracts/MyToken.sol\":2250:2261  uint256 dur */\n      0x00\n        /* \"contracts/MyToken.sol\":2262:2272  durMapping */\n      dup2\n        /* \"contracts/MyToken.sol\":2262:2277  durMapping.time */\n      0x20\n      add\n      mload\n        /* \"contracts/MyToken.sol\":2250:2277  uint256 dur=durMapping.time */\n      swap1\n      pop\n        /* \"contracts/MyToken.sol\":2287:2305  uint256 periodDays */\n      0x00\n        /* \"contracts/MyToken.sol\":2306:2316  durMapping */\n      dup3\n        /* \"contracts/MyToken.sol\":2306:2327  durMapping.periodDays */\n      0x00\n      add\n      mload\n        /* \"contracts/MyToken.sol\":2287:2327  uint256 periodDays=durMapping.periodDays */\n      swap1\n      pop\n        /* \"contracts/MyToken.sol\":2337:2351  uint256 startT */\n      0x00\n        /* \"contracts/MyToken.sol\":2352:2367  block.timestamp */\n      timestamp\n        /* \"contracts/MyToken.sol\":2337:2367  uint256 startT=block.timestamp */\n      swap1\n      pop\n        /* \"contracts/MyToken.sol\":2377:2389  uint256 endT */\n      0x00\n        /* \"contracts/MyToken.sol\":2400:2403  dur */\n      dup4\n        /* \"contracts/MyToken.sol\":2391:2397  startT */\n      dup3\n        /* \"contracts/MyToken.sol\":2391:2403  startT + dur */\n      tag_85\n      swap2\n      swap1\n      tag_86\n      jump\t// in\n    tag_85:\n        /* \"contracts/MyToken.sol\":2377:2403  uint256 endT= startT + dur */\n      swap1\n      pop\n        /* \"contracts/MyToken.sol\":2413:2426  uint256 index */\n      0x00\n        /* \"contracts/MyToken.sol\":2428:2439  nextStakeId */\n      0x03\n        /* \"contracts/MyToken.sol\":2428:2451  nextStakeId[msg.sender] */\n      0x00\n        /* \"contracts/MyToken.sol\":2440:2450  msg.sender */\n      caller\n        /* \"contracts/MyToken.sol\":2428:2451  nextStakeId[msg.sender] */\n      0xffffffffffffffffffffffffffffffffffffffff\n      and\n      0xffffffffffffffffffffffffffffffffffffffff\n      and\n      dup2\n      mstore\n      0x20\n      add\n      swap1\n      dup2\n      mstore\n      0x20\n      add\n      0x00\n      keccak256\n      0x00\n        /* \"contracts/MyToken.sol\":2428:2453  nextStakeId[msg.sender]++ */\n      dup2\n      sload\n      dup1\n      swap3\n      swap2\n      swap1\n      tag_87\n      swap1\n      tag_88\n      jump\t// in\n    tag_87:\n      swap2\n      swap1\n      pop\n      sstore\n        /* \"contracts/MyToken.sol\":2413:2453  uint256 index =nextStakeId[msg.sender]++ */\n      swap1\n      pop\n        /* \"contracts/MyToken.sol\":2463:2475  uint256 rate */\n      0x00\n        /* \"contracts/MyToken.sol\":2506:2509  360 */\n      0x0168\n        /* \"contracts/MyToken.sol\":2499:2505  10**18 */\n      0x0de0b6b3a7640000\n        /* \"contracts/MyToken.sol\":2488:2498  periodDays */\n      dup7\n        /* \"contracts/MyToken.sol\":2476:2479  apy */\n      0x01\n        /* \"contracts/MyToken.sol\":2476:2487  apy[period] */\n      0x00\n        /* \"contracts/MyToken.sol\":2480:2486  period */\n      dup14\n        /* \"contracts/MyToken.sol\":2476:2487  apy[period] */\n      0x03\n      dup2\n      gt\n      iszero\n      tag_89\n      jumpi\n      tag_90\n      tag_91\n      jump\t// in\n    tag_90:\n    tag_89:\n      0x03\n      dup2\n      gt\n      iszero\n      tag_92\n      jumpi\n      tag_93\n      tag_91\n      jump\t// in\n    tag_93:\n    tag_92:\n      dup2\n      mstore\n      0x20\n      add\n      swap1\n      dup2\n      mstore\n      0x20\n      add\n      0x00\n      keccak256\n      sload\n        /* \"contracts/MyToken.sol\":2476:2498  apy[period]*periodDays */\n      tag_94\n      swap2\n      swap1\n      tag_62\n      jump\t// in\n    tag_94:\n        /* \"contracts/MyToken.sol\":2476:2505  apy[period]*periodDays*10**18 */\n      tag_95\n      swap2\n      swap1\n      tag_62\n      jump\t// in\n    tag_95:\n        /* \"contracts/MyToken.sol\":2476:2509  apy[period]*periodDays*10**18/360 */\n      tag_96\n      swap2\n      swap1\n      tag_97\n      jump\t// in\n    tag_96:\n        /* \"contracts/MyToken.sol\":2463:2509  uint256 rate=apy[period]*periodDays*10**18/360 */\n      swap1\n      pop\n        /* \"contracts/MyToken.sol\":2532:2542  msg.sender */\n      caller\n        /* \"contracts/MyToken.sol\":2525:2571  Staked(msg.sender, amount, period, endT,index) */\n      0xffffffffffffffffffffffffffffffffffffffff\n      and\n      0x022dd619ee0d92140e5abde105761d6df71c05c4fcb761610ea0552064f91e6c\n        /* \"contracts/MyToken.sol\":2544:2550  amount */\n      dup12\n        /* \"contracts/MyToken.sol\":2552:2558  period */\n      dup12\n        /* \"contracts/MyToken.sol\":2560:2564  endT */\n      dup7\n        /* \"contracts/MyToken.sol\":2565:2570  index */\n      dup7\n        /* \"contracts/MyToken.sol\":2525:2571  Staked(msg.sender, amount, period, endT,index) */\n      mload(0x40)\n      tag_98\n      swap5\n      swap4\n      swap3\n      swap2\n      swap1\n      tag_99\n      jump\t// in\n    tag_98:\n      mload(0x40)\n      dup1\n      swap2\n      sub\n      swap1\n      log2\n        /* \"contracts/MyToken.sol\":2612:2901  Stake({... */\n      mload(0x40)\n      dup1\n      0xc0\n      add\n      0x40\n      mstore\n      dup1\n        /* \"contracts/MyToken.sol\":2639:2645  amount */\n      dup12\n        /* \"contracts/MyToken.sol\":2612:2901  Stake({... */\n      dup2\n      mstore\n      0x20\n      add\n        /* \"contracts/MyToken.sol\":2669:2675  startT */\n      dup6\n        /* \"contracts/MyToken.sol\":2612:2901  Stake({... */\n      dup2\n      mstore\n      0x20\n      add\n        /* \"contracts/MyToken.sol\":2697:2701  endT */\n      dup5\n        /* \"contracts/MyToken.sol\":2612:2901  Stake({... */\n      dup2\n      mstore\n      0x20\n      add\n        /* \"contracts/MyToken.sol\":2756:2760  rate */\n      dup3\n        /* \"contracts/MyToken.sol\":2612:2901  Stake({... */\n      dup2\n      mstore\n      0x20\n      add\n        /* \"contracts/MyToken.sol\":2824:2828  true */\n      0x01\n        /* \"contracts/MyToken.sol\":2612:2901  Stake({... */\n      iszero\n      iszero\n      dup2\n      mstore\n      0x20\n      add\n        /* \"contracts/MyToken.sol\":2885:2890  index */\n      dup4\n        /* \"contracts/MyToken.sol\":2612:2901  Stake({... */\n      dup2\n      mstore\n      pop\n        /* \"contracts/MyToken.sol\":2582:2592  userStakes */\n      0x02\n        /* \"contracts/MyToken.sol\":2582:2604  userStakes[msg.sender] */\n      0x00\n        /* \"contracts/MyToken.sol\":2593:2603  msg.sender */\n      caller\n        /* \"contracts/MyToken.sol\":2582:2604  userStakes[msg.sender] */\n      0xffffffffffffffffffffffffffffffffffffffff\n      and\n      0xffffffffffffffffffffffffffffffffffffffff\n      and\n      dup2\n      mstore\n      0x20\n      add\n      swap1\n      dup2\n      mstore\n      0x20\n      add\n      0x00\n      keccak256\n        /* \"contracts/MyToken.sol\":2582:2611  userStakes[msg.sender][index] */\n      0x00\n        /* \"contracts/MyToken.sol\":2605:2610  index */\n      dup5\n        /* \"contracts/MyToken.sol\":2582:2611  userStakes[msg.sender][index] */\n      dup2\n      mstore\n      0x20\n      add\n      swap1\n      dup2\n      mstore\n      0x20\n      add\n      0x00\n      keccak256\n        /* \"contracts/MyToken.sol\":2582:2901  userStakes[msg.sender][index]=Stake({... */\n      0x00\n      dup3\n      add\n      mload\n      dup2\n      0x00\n      add\n      sstore\n      0x20\n      dup3\n      add\n      mload\n      dup2\n      0x01\n      add\n      sstore\n      0x40\n      dup3\n      add\n      mload\n      dup2\n      0x02\n      add\n      sstore\n      0x60\n      dup3\n      add\n      mload\n      dup2\n      0x03\n      add\n      sstore\n      0x80\n      dup3\n      add\n      mload\n      dup2\n      0x04\n      add\n      exp(0x0100, 0x00)\n      dup2\n      sload\n      dup2\n      0xff\n      mul\n      not\n      and\n      swap1\n      dup4\n      iszero\n      iszero\n      mul\n      or\n      swap1\n      sstore\n      pop\n      0xa0\n      dup3\n      add\n      mload\n      dup2\n      0x05\n      add\n      sstore\n      swap1\n      pop\n      pop\n        /* \"contracts/MyToken.sol\":2936:2946  msg.sender */\n      caller\n        /* \"contracts/MyToken.sol\":2911:2928  stakeOwnerMapping */\n      0x04\n        /* \"contracts/MyToken.sol\":2911:2935  stakeOwnerMapping[index] */\n      0x00\n        /* \"contracts/MyToken.sol\":2929:2934  index */\n      dup5\n        /* \"contracts/MyToken.sol\":2911:2935  stakeOwnerMapping[index] */\n      dup2\n      mstore\n      0x20\n      add\n      swap1\n      dup2\n      mstore\n      0x20\n      add\n      0x00\n      keccak256\n      0x00\n        /* \"contracts/MyToken.sol\":2911:2946  stakeOwnerMapping[index]=msg.sender */\n      0x0100\n      exp\n      dup2\n      sload\n      dup2\n      0xffffffffffffffffffffffffffffffffffffffff\n      mul\n      not\n      and\n      swap1\n      dup4\n      0xffffffffffffffffffffffffffffffffffffffff\n      and\n      mul\n      or\n      swap1\n      sstore\n      pop\n        /* \"contracts/MyToken.sol\":2956:2965  stakeList */\n      0x05\n        /* \"contracts/MyToken.sol\":2971:2976  index */\n      dup3\n        /* \"contracts/MyToken.sol\":2956:2977  stakeList.push(index) */\n      swap1\n      dup1\n      0x01\n      dup2\n      sload\n      add\n      dup1\n      dup3\n      sstore\n      dup1\n      swap2\n      pop\n      pop\n      0x01\n      swap1\n      sub\n      swap1\n      0x00\n      mstore\n      keccak256(0x00, 0x20)\n      add\n      0x00\n      swap1\n      swap2\n      swap1\n      swap2\n      swap1\n      swap2\n      pop\n      sstore\n        /* \"contracts/MyToken.sol\":2987:2997  stakeCount */\n      0x06\n      0x00\n        /* \"contracts/MyToken.sol\":2987:2999  stakeCount++ */\n      dup2\n      sload\n      dup1\n      swap3\n      swap2\n      swap1\n      tag_101\n      swap1\n      tag_88\n      jump\t// in\n    tag_101:\n      swap2\n      swap1\n      pop\n      sstore\n      pop\n        /* \"contracts/MyToken.sol\":1878:3015  {... */\n      pop\n      pop\n      pop\n      pop\n      pop\n      pop\n      pop\n      pop\n        /* \"contracts/MyToken.sol\":1816:3015  function stake(uint256 amount, StakingPeriod period) external {... */\n      pop\n      pop\n      jump\t// out\n        /* \"contracts/MyToken.sol\":774:818  mapping(StakingPeriod => uint256) public apy */\n    tag_21:\n      mstore(0x20, 0x01)\n      dup1\n      0x00\n      mstore\n      keccak256(0x00, 0x40)\n      0x00\n      swap2\n      pop\n      swap1\n      pop\n      sload\n      dup2\n      jump\t// out\n        /* \"contracts/MyToken.sol\":3958:4529  function withdraw(uint256 stakeIndex) external {... */\n    tag_27:\n        /* \"contracts/MyToken.sol\":4054:4064  msg.sender */\n      caller\n        /* \"contracts/MyToken.sol\":4023:4064  stakeOwnerMapping[stakeIndex]==msg.sender */\n      0xffffffffffffffffffffffffffffffffffffffff\n      and\n        /* \"contracts/MyToken.sol\":4023:4040  stakeOwnerMapping */\n      0x04\n        /* \"contracts/MyToken.sol\":4023:4052  stakeOwnerMapping[stakeIndex] */\n      0x00\n        /* \"contracts/MyToken.sol\":4041:4051  stakeIndex */\n      dup4\n        /* \"contracts/MyToken.sol\":4023:4052  stakeOwnerMapping[stakeIndex] */\n      dup2\n      mstore\n      0x20\n      add\n      swap1\n      dup2\n      mstore\n      0x20\n      add\n      0x00\n      keccak256\n      0x00\n      swap1\n      sload\n      swap1\n      0x0100\n      exp\n      swap1\n      div\n      0xffffffffffffffffffffffffffffffffffffffff\n      and\n        /* \"contracts/MyToken.sol\":4023:4064  stakeOwnerMapping[stakeIndex]==msg.sender */\n      0xffffffffffffffffffffffffffffffffffffffff\n      and\n      eq\n        /* \"contracts/MyToken.sol\":4015:4104  require(stakeOwnerMapping[stakeIndex]==msg.sender, \"You are not the owner of this stake\") */\n      tag_103\n      jumpi\n      mload(0x40)\n      0x08c379a000000000000000000000000000000000000000000000000000000000\n      dup2\n      mstore\n      0x04\n      add\n      tag_104\n      swap1\n      tag_105\n      jump\t// in\n    tag_104:\n      mload(0x40)\n      dup1\n      swap2\n      sub\n      swap1\n      revert\n    tag_103:\n        /* \"contracts/MyToken.sol\":4115:4130  Stake storage s */\n      0x00\n        /* \"contracts/MyToken.sol\":4133:4143  userStakes */\n      0x02\n        /* \"contracts/MyToken.sol\":4133:4155  userStakes[msg.sender] */\n      0x00\n        /* \"contracts/MyToken.sol\":4144:4154  msg.sender */\n      caller\n        /* \"contracts/MyToken.sol\":4133:4155  userStakes[msg.sender] */\n      0xffffffffffffffffffffffffffffffffffffffff\n      and\n      0xffffffffffffffffffffffffffffffffffffffff\n      and\n      dup2\n      mstore\n      0x20\n      add\n      swap1\n      dup2\n      mstore\n      0x20\n      add\n      0x00\n      keccak256\n        /* \"contracts/MyToken.sol\":4133:4167  userStakes[msg.sender][stakeIndex] */\n      0x00\n        /* \"contracts/MyToken.sol\":4156:4166  stakeIndex */\n      dup4\n        /* \"contracts/MyToken.sol\":4133:4167  userStakes[msg.sender][stakeIndex] */\n      dup2\n      mstore\n      0x20\n      add\n      swap1\n      dup2\n      mstore\n      0x20\n      add\n      0x00\n      keccak256\n        /* \"contracts/MyToken.sol\":4115:4167  Stake storage s = userStakes[msg.sender][stakeIndex] */\n      swap1\n      pop\n        /* \"contracts/MyToken.sol\":4193:4194  s */\n      dup1\n        /* \"contracts/MyToken.sol\":4193:4203  s.isActive */\n      0x04\n      add\n      0x00\n      swap1\n      sload\n      swap1\n      0x0100\n      exp\n      swap1\n      div\n      0xff\n      and\n        /* \"contracts/MyToken.sol\":4185:4248  require(s.isActive, \"Stake is not active or already withdrawn\") */\n      tag_106\n      jumpi\n      mload(0x40)\n      0x08c379a000000000000000000000000000000000000000000000000000000000\n      dup2\n      mstore\n      0x04\n      add\n      tag_107\n      swap1\n      tag_108\n      jump\t// in\n    tag_107:\n      mload(0x40)\n      dup1\n      swap2\n      sub\n      swap1\n      revert\n    tag_106:\n        /* \"contracts/MyToken.sol\":4285:4286  s */\n      dup1\n        /* \"contracts/MyToken.sol\":4285:4294  s.endTime */\n      0x02\n      add\n      sload\n        /* \"contracts/MyToken.sol\":4266:4281  block.timestamp */\n      timestamp\n        /* \"contracts/MyToken.sol\":4266:4294  block.timestamp >= s.endTime */\n      lt\n      iszero\n        /* \"contracts/MyToken.sol\":4258:4324  require(block.timestamp >= s.endTime, \"Stake period is not ended\") */\n      tag_109\n      jumpi\n      mload(0x40)\n      0x08c379a000000000000000000000000000000000000000000000000000000000\n      dup2\n      mstore\n      0x04\n      add\n      tag_110\n      swap1\n      tag_111\n      jump\t// in\n    tag_110:\n      mload(0x40)\n      dup1\n      swap2\n      sub\n      swap1\n      revert\n    tag_109:\n        /* \"contracts/MyToken.sol\":4343:4357  uint256 reward */\n      0x00\n        /* \"contracts/MyToken.sol\":4384:4391  10** 18 */\n      0x0de0b6b3a7640000\n        /* \"contracts/MyToken.sol\":4380:4383  100 */\n      0x64\n        /* \"contracts/MyToken.sol\":4367:4368  s */\n      dup4\n        /* \"contracts/MyToken.sol\":4367:4379  s.rewardRate */\n      0x03\n      add\n      sload\n        /* \"contracts/MyToken.sol\":4358:4359  s */\n      dup5\n        /* \"contracts/MyToken.sol\":4358:4366  s.amount */\n      0x00\n      add\n      sload\n        /* \"contracts/MyToken.sol\":4358:4379  s.amount*s.rewardRate */\n      tag_112\n      swap2\n      swap1\n      tag_62\n      jump\t// in\n    tag_112:\n        /* \"contracts/MyToken.sol\":4358:4383  s.amount*s.rewardRate/100 */\n      tag_113\n      swap2\n      swap1\n      tag_97\n      jump\t// in\n    tag_113:\n        /* \"contracts/MyToken.sol\":4358:4391  s.amount*s.rewardRate/100/10** 18 */\n      tag_114\n      swap2\n      swap1\n      tag_97\n      jump\t// in\n    tag_114:\n        /* \"contracts/MyToken.sol\":4343:4391  uint256 reward=s.amount*s.rewardRate/100/10** 18 */\n      swap1\n      pop\n        /* \"contracts/MyToken.sol\":4401:4420  uint256 totalAmount */\n      0x00\n        /* \"contracts/MyToken.sol\":4430:4436  reward */\n      dup2\n        /* \"contracts/MyToken.sol\":4421:4422  s */\n      dup4\n        /* \"contracts/MyToken.sol\":4421:4429  s.amount */\n      0x00\n      add\n      sload\n        /* \"contracts/MyToken.sol\":4421:4436  s.amount+reward */\n      tag_115\n      swap2\n      swap1\n      tag_86\n      jump\t// in\n    tag_115:\n        /* \"contracts/MyToken.sol\":4401:4436  uint256 totalAmount=s.amount+reward */\n      swap1\n      pop\n        /* \"contracts/MyToken.sol\":4457:4462  false */\n      0x00\n        /* \"contracts/MyToken.sol\":4446:4447  s */\n      dup4\n        /* \"contracts/MyToken.sol\":4446:4456  s.isActive */\n      0x04\n      add\n      0x00\n        /* \"contracts/MyToken.sol\":4446:4462  s.isActive=false */\n      0x0100\n      exp\n      dup2\n      sload\n      dup2\n      0xff\n      mul\n      not\n      and\n      swap1\n      dup4\n      iszero\n      iszero\n      mul\n      or\n      swap1\n      sstore\n      pop\n        /* \"contracts/MyToken.sol\":4488:4498  msg.sender */\n      caller\n        /* \"contracts/MyToken.sol\":4478:4522  Withdrawn(msg.sender,totalAmount,stakeIndex) */\n      0xffffffffffffffffffffffffffffffffffffffff\n      and\n      0x92ccf450a286a957af52509bc1c9939d1a6a481783e142e41e2499f0bb66ebc6\n        /* \"contracts/MyToken.sol\":4499:4510  totalAmount */\n      dup3\n        /* \"contracts/MyToken.sol\":4511:4521  stakeIndex */\n      dup7\n        /* \"contracts/MyToken.sol\":4478:4522  Withdrawn(msg.sender,totalAmount,stakeIndex) */\n      mload(0x40)\n      tag_116\n      swap3\n      swap2\n      swap1\n      tag_117\n      jump\t// in\n    tag_116:\n      mload(0x40)\n      dup1\n      swap2\n      sub\n      swap1\n      log2\n        /* \"contracts/MyToken.sol\":4005:4529  {... */\n      pop\n      pop\n      pop\n        /* \"contracts/MyToken.sol\":3958:4529  function withdraw(uint256 stakeIndex) external {... */\n      pop\n      jump\t// out\n        /* \"contracts/MyToken.sol\":1101:1127  uint256[] public stakeList */\n    tag_30:\n      0x05\n      dup2\n      dup2\n      sload\n      dup2\n      lt\n      tag_118\n      jumpi\n      0x00\n      dup1\n      revert\n    tag_118:\n      swap1\n      0x00\n      mstore\n      keccak256(0x00, 0x20)\n      add\n      0x00\n      swap2\n      pop\n      swap1\n      pop\n      sload\n      dup2\n      jump\t// out\n        /* \"contracts/MyToken.sol\":740:766  IERC20 public stakingToken */\n    tag_33:\n      0x00\n      0x00\n      swap1\n      sload\n      swap1\n      0x0100\n      exp\n      swap1\n      div\n      0xffffffffffffffffffffffffffffffffffffffff\n      and\n      dup2\n      jump\t// out\n        /* \"contracts/MyToken.sol\":973:1019  mapping(address => uint256) public nextStakeId */\n    tag_39:\n      mstore(0x20, 0x03)\n      dup1\n      0x00\n      mstore\n      keccak256(0x00, 0x40)\n      0x00\n      swap2\n      pop\n      swap1\n      pop\n      sload\n      dup2\n      jump\t// out\n        /* \"contracts/MyToken.sol\":4770:5274  function getUserActiveStakes(address user) external view returns (Stake[] memory) {       ... */\n    tag_43:\n        /* \"contracts/MyToken.sol\":4836:4850  Stake[] memory */\n      0x60\n        /* \"contracts/MyToken.sol\":4869:4896  Stake[] memory activeStakes */\n      0x00\n        /* \"contracts/MyToken.sol\":4911:4921  stakeCount */\n      sload(0x06)\n        /* \"contracts/MyToken.sol\":4899:4922  new Stake[](stakeCount) */\n      0xffffffffffffffff\n      dup2\n      gt\n      iszero\n      tag_121\n      jumpi\n      tag_122\n      tag_123\n      jump\t// in\n    tag_122:\n    tag_121:\n      mload(0x40)\n      swap1\n      dup1\n      dup3\n      mstore\n      dup1\n      0x20\n      mul\n      0x20\n      add\n      dup3\n      add\n      0x40\n      mstore\n      dup1\n      iszero\n      tag_124\n      jumpi\n      dup2\n      0x20\n      add\n    tag_125:\n      tag_126\n      tag_127\n      jump\t// in\n    tag_126:\n      dup2\n      mstore\n      0x20\n      add\n      swap1\n      0x01\n      swap1\n      sub\n      swap1\n      dup2\n      tag_125\n      jumpi\n      swap1\n      pop\n    tag_124:\n      pop\n        /* \"contracts/MyToken.sol\":4869:4922  Stake[] memory activeStakes = new Stake[](stakeCount) */\n      swap1\n      pop\n        /* \"contracts/MyToken.sol\":4932:4951  uint256 activeIndex */\n      0x00\n        /* \"contracts/MyToken.sol\":4952:4953  0 */\n      0x00\n        /* \"contracts/MyToken.sol\":4932:4953  uint256 activeIndex=0 */\n      swap1\n      pop\n        /* \"contracts/MyToken.sol\":4968:4977  uint256 i */\n      0x00\n        /* \"contracts/MyToken.sol\":4980:4981  0 */\n      0x00\n        /* \"contracts/MyToken.sol\":4968:4981  uint256 i = 0 */\n      swap1\n      pop\n        /* \"contracts/MyToken.sol\":4963:5230  for (uint256 i = 0; i < stakeCount; i++) {... */\n    tag_128:\n        /* \"contracts/MyToken.sol\":4987:4997  stakeCount */\n      sload(0x06)\n        /* \"contracts/MyToken.sol\":4983:4984  i */\n      dup2\n        /* \"contracts/MyToken.sol\":4983:4997  i < stakeCount */\n      lt\n        /* \"contracts/MyToken.sol\":4963:5230  for (uint256 i = 0; i < stakeCount; i++) {... */\n      iszero\n      tag_129\n      jumpi\n        /* \"contracts/MyToken.sol\":5018:5031  uint256 index */\n      0x00\n        /* \"contracts/MyToken.sol\":5032:5041  stakeList */\n      0x05\n        /* \"contracts/MyToken.sol\":5042:5043  i */\n      dup3\n        /* \"contracts/MyToken.sol\":5032:5044  stakeList[i] */\n      dup2\n      sload\n      dup2\n      lt\n      tag_131\n      jumpi\n      tag_132\n      tag_133\n      jump\t// in\n    tag_132:\n    tag_131:\n      swap1\n      0x00\n      mstore\n      keccak256(0x00, 0x20)\n      add\n      sload\n        /* \"contracts/MyToken.sol\":5018:5044  uint256 index=stakeList[i] */\n      swap1\n      pop\n        /* \"contracts/MyToken.sol\":5058:5073  Stake storage s */\n      0x00\n        /* \"contracts/MyToken.sol\":5076:5086  userStakes */\n      0x02\n        /* \"contracts/MyToken.sol\":5076:5092  userStakes[user] */\n      0x00\n        /* \"contracts/MyToken.sol\":5087:5091  user */\n      dup9\n        /* \"contracts/MyToken.sol\":5076:5092  userStakes[user] */\n      0xffffffffffffffffffffffffffffffffffffffff\n      and\n      0xffffffffffffffffffffffffffffffffffffffff\n      and\n      dup2\n      mstore\n      0x20\n      add\n      swap1\n      dup2\n      mstore\n      0x20\n      add\n      0x00\n      keccak256\n        /* \"contracts/MyToken.sol\":5076:5099  userStakes[user][index] */\n      0x00\n        /* \"contracts/MyToken.sol\":5093:5098  index */\n      dup4\n        /* \"contracts/MyToken.sol\":5076:5099  userStakes[user][index] */\n      dup2\n      mstore\n      0x20\n      add\n      swap1\n      dup2\n      mstore\n      0x20\n      add\n      0x00\n      keccak256\n        /* \"contracts/MyToken.sol\":5058:5099  Stake storage s = userStakes[user][index] */\n      swap1\n      pop\n        /* \"contracts/MyToken.sol\":5117:5118  s */\n      dup1\n        /* \"contracts/MyToken.sol\":5117:5127  s.isActive */\n      0x04\n      add\n      0x00\n      swap1\n      sload\n      swap1\n      0x0100\n      exp\n      swap1\n      div\n      0xff\n      and\n        /* \"contracts/MyToken.sol\":5113:5220  if (s.isActive) {... */\n      iszero\n      tag_135\n      jumpi\n        /* \"contracts/MyToken.sol\":5173:5174  s */\n      dup1\n        /* \"contracts/MyToken.sol\":5147:5174  activeStakes[activeIndex]=s */\n      mload(0x40)\n      dup1\n      0xc0\n      add\n      0x40\n      mstore\n      swap1\n      dup2\n      0x00\n      dup3\n      add\n      sload\n      dup2\n      mstore\n      0x20\n      add\n      0x01\n      dup3\n      add\n      sload\n      dup2\n      mstore\n      0x20\n      add\n      0x02\n      dup3\n      add\n      sload\n      dup2\n      mstore\n      0x20\n      add\n      0x03\n      dup3\n      add\n      sload\n      dup2\n      mstore\n      0x20\n      add\n      0x04\n      dup3\n      add\n      0x00\n      swap1\n      sload\n      swap1\n      0x0100\n      exp\n      swap1\n      div\n      0xff\n      and\n      iszero\n      iszero\n      iszero\n      iszero\n      dup2\n      mstore\n      0x20\n      add\n      0x05\n      dup3\n      add\n      sload\n      dup2\n      mstore\n      pop\n      pop\n        /* \"contracts/MyToken.sol\":5147:5159  activeStakes */\n      dup6\n        /* \"contracts/MyToken.sol\":5160:5171  activeIndex */\n      dup6\n        /* \"contracts/MyToken.sol\":5147:5172  activeStakes[activeIndex] */\n      dup2\n      mload\n      dup2\n      lt\n      tag_136\n      jumpi\n      tag_137\n      tag_133\n      jump\t// in\n    tag_137:\n    tag_136:\n      0x20\n      mul\n      0x20\n      add\n      add\n        /* \"contracts/MyToken.sol\":5147:5174  activeStakes[activeIndex]=s */\n      dup2\n      swap1\n      mstore\n      pop\n        /* \"contracts/MyToken.sol\":5192:5205  activeIndex++ */\n      dup4\n      dup1\n      tag_138\n      swap1\n      tag_88\n      jump\t// in\n    tag_138:\n      swap5\n      pop\n      pop\n        /* \"contracts/MyToken.sol\":5113:5220  if (s.isActive) {... */\n    tag_135:\n        /* \"contracts/MyToken.sol\":5004:5230  {... */\n      pop\n      pop\n        /* \"contracts/MyToken.sol\":4999:5002  i++ */\n      dup1\n      dup1\n      0x01\n      add\n      swap2\n      pop\n      pop\n        /* \"contracts/MyToken.sol\":4963:5230  for (uint256 i = 0; i < stakeCount; i++) {... */\n      jump(tag_128)\n    tag_129:\n      pop\n        /* \"contracts/MyToken.sol\":5255:5267  activeStakes */\n      dup2\n        /* \"contracts/MyToken.sol\":5248:5267  return activeStakes */\n      swap3\n      pop\n      pop\n      pop\n        /* \"contracts/MyToken.sol\":4770:5274  function getUserActiveStakes(address user) external view returns (Stake[] memory) {       ... */\n      swap2\n      swap1\n      pop\n      jump\t// out\n        /* \"contracts/MyToken.sol\":1044:1094  mapping(uint256=>address) public stakeOwnerMapping */\n    tag_48:\n      mstore(0x20, 0x04)\n      dup1\n      0x00\n      mstore\n      keccak256(0x00, 0x40)\n      0x00\n      swap2\n      pop\n      sload\n      swap1\n      0x0100\n      exp\n      swap1\n      div\n      0xffffffffffffffffffffffffffffffffffffffff\n      and\n      dup2\n      jump\t// out\n        /* \"contracts/MyToken.sol\":875:936  mapping(address => mapping(uint256=>Stake)) public userStakes */\n    tag_54:\n      mstore(0x20, 0x02)\n      dup2\n      0x00\n      mstore\n      mstore(0x20, keccak256(0x00, 0x40))\n      dup1\n      0x00\n      mstore\n      keccak256(0x00, 0x40)\n      0x00\n      swap2\n      pop\n      swap2\n      pop\n      pop\n      dup1\n      0x00\n      add\n      sload\n      swap1\n      dup1\n      0x01\n      add\n      sload\n      swap1\n      dup1\n      0x02\n      add\n      sload\n      swap1\n      dup1\n      0x03\n      add\n      sload\n      swap1\n      dup1\n      0x04\n      add\n      0x00\n      swap1\n      sload\n      swap1\n      0x0100\n      exp\n      swap1\n      div\n      0xff\n      and\n      swap1\n      dup1\n      0x05\n      add\n      sload\n      swap1\n      pop\n      dup7\n      jump\t// out\n        /* \"contracts/MyToken.sol\":1133:1158  uint256 public stakeCount */\n    tag_58:\n      sload(0x06)\n      dup2\n      jump\t// out\n        /* \"contracts/MyToken.sol\":3068:3952  function _getDuration(StakingPeriod period) internal pure returns (timeMapping memory) {... */\n    tag_84:\n        /* \"contracts/MyToken.sol\":3135:3153  timeMapping memory */\n      tag_139\n      tag_140\n      jump\t// in\n    tag_139:\n        /* \"contracts/MyToken.sol\":3177:3201  StakingPeriod.ThirtyDays */\n      0x00\n        /* \"contracts/MyToken.sol\":3169:3201  period==StakingPeriod.ThirtyDays */\n      0x03\n      dup2\n      gt\n      iszero\n      tag_142\n      jumpi\n      tag_143\n      tag_91\n      jump\t// in\n    tag_143:\n    tag_142:\n        /* \"contracts/MyToken.sol\":3169:3175  period */\n      dup3\n        /* \"contracts/MyToken.sol\":3169:3201  period==StakingPeriod.ThirtyDays */\n      0x03\n      dup2\n      gt\n      iszero\n      tag_144\n      jumpi\n      tag_145\n      tag_91\n      jump\t// in\n    tag_145:\n    tag_144:\n      sub\n        /* \"contracts/MyToken.sol\":3166:3945  if(period==StakingPeriod.ThirtyDays){... */\n      tag_146\n      jumpi\n        /* \"contracts/MyToken.sol\":3223:3313  timeMapping({... */\n      mload(0x40)\n      dup1\n      0x40\n      add\n      0x40\n      mstore\n      dup1\n        /* \"contracts/MyToken.sol\":3264:3266  30 */\n      0x1e\n        /* \"contracts/MyToken.sol\":3223:3313  timeMapping({... */\n      dup2\n      mstore\n      0x20\n      add\n        /* \"contracts/MyToken.sol\":3289:3298  1 minutes */\n      0x3c\n        /* \"contracts/MyToken.sol\":3223:3313  timeMapping({... */\n      dup2\n      mstore\n      pop\n        /* \"contracts/MyToken.sol\":3216:3313  return timeMapping({... */\n      swap1\n      pop\n      jump(tag_141)\n        /* \"contracts/MyToken.sol\":3166:3945  if(period==StakingPeriod.ThirtyDays){... */\n    tag_146:\n        /* \"contracts/MyToken.sol\":3340:3364  StakingPeriod.NinetyDays */\n      0x01\n        /* \"contracts/MyToken.sol\":3332:3364  period==StakingPeriod.NinetyDays */\n      0x03\n      dup2\n      gt\n      iszero\n      tag_148\n      jumpi\n      tag_149\n      tag_91\n      jump\t// in\n    tag_149:\n    tag_148:\n        /* \"contracts/MyToken.sol\":3332:3338  period */\n      dup3\n        /* \"contracts/MyToken.sol\":3332:3364  period==StakingPeriod.NinetyDays */\n      0x03\n      dup2\n      gt\n      iszero\n      tag_150\n      jumpi\n      tag_151\n      tag_91\n      jump\t// in\n    tag_151:\n    tag_150:\n      sub\n        /* \"contracts/MyToken.sol\":3329:3945  if(period==StakingPeriod.NinetyDays){... */\n      tag_152\n      jumpi\n        /* \"contracts/MyToken.sol\":3386:3476  timeMapping({... */\n      mload(0x40)\n      dup1\n      0x40\n      add\n      0x40\n      mstore\n      dup1\n        /* \"contracts/MyToken.sol\":3427:3429  90 */\n      0x5a\n        /* \"contracts/MyToken.sol\":3386:3476  timeMapping({... */\n      dup2\n      mstore\n      0x20\n      add\n        /* \"contracts/MyToken.sol\":3452:3461  3 minutes */\n      0xb4\n        /* \"contracts/MyToken.sol\":3386:3476  timeMapping({... */\n      dup2\n      mstore\n      pop\n        /* \"contracts/MyToken.sol\":3379:3476  return timeMapping({... */\n      swap1\n      pop\n      jump(tag_141)\n        /* \"contracts/MyToken.sol\":3329:3945  if(period==StakingPeriod.NinetyDays){... */\n    tag_152:\n        /* \"contracts/MyToken.sol\":3503:3534  StakingPeriod.HundredEightyDays */\n      0x02\n        /* \"contracts/MyToken.sol\":3495:3534  period==StakingPeriod.HundredEightyDays */\n      0x03\n      dup2\n      gt\n      iszero\n      tag_154\n      jumpi\n      tag_155\n      tag_91\n      jump\t// in\n    tag_155:\n    tag_154:\n        /* \"contracts/MyToken.sol\":3495:3501  period */\n      dup3\n        /* \"contracts/MyToken.sol\":3495:3534  period==StakingPeriod.HundredEightyDays */\n      0x03\n      dup2\n      gt\n      iszero\n      tag_156\n      jumpi\n      tag_157\n      tag_91\n      jump\t// in\n    tag_157:\n    tag_156:\n      sub\n        /* \"contracts/MyToken.sol\":3492:3945  if(period==StakingPeriod.HundredEightyDays){... */\n      tag_158\n      jumpi\n        /* \"contracts/MyToken.sol\":3556:3647  timeMapping({... */\n      mload(0x40)\n      dup1\n      0x40\n      add\n      0x40\n      mstore\n      dup1\n        /* \"contracts/MyToken.sol\":3597:3600  180 */\n      0xb4\n        /* \"contracts/MyToken.sol\":3556:3647  timeMapping({... */\n      dup2\n      mstore\n      0x20\n      add\n        /* \"contracts/MyToken.sol\":3623:3632  5 minutes */\n      0x012c\n        /* \"contracts/MyToken.sol\":3556:3647  timeMapping({... */\n      dup2\n      mstore\n      pop\n        /* \"contracts/MyToken.sol\":3549:3647  return timeMapping({... */\n      swap1\n      pop\n      jump(tag_141)\n        /* \"contracts/MyToken.sol\":3492:3945  if(period==StakingPeriod.HundredEightyDays){... */\n    tag_158:\n        /* \"contracts/MyToken.sol\":3674:3695  StakingPeriod.OneYear */\n      0x03\n        /* \"contracts/MyToken.sol\":3666:3695  period==StakingPeriod.OneYear */\n      dup1\n      dup2\n      gt\n      iszero\n      tag_160\n      jumpi\n      tag_161\n      tag_91\n      jump\t// in\n    tag_161:\n    tag_160:\n        /* \"contracts/MyToken.sol\":3666:3672  period */\n      dup3\n        /* \"contracts/MyToken.sol\":3666:3695  period==StakingPeriod.OneYear */\n      0x03\n      dup2\n      gt\n      iszero\n      tag_162\n      jumpi\n      tag_163\n      tag_91\n      jump\t// in\n    tag_163:\n    tag_162:\n      sub\n        /* \"contracts/MyToken.sol\":3663:3945  if(period==StakingPeriod.OneYear){... */\n      tag_164\n      jumpi\n        /* \"contracts/MyToken.sol\":3717:3809  timeMapping({... */\n      mload(0x40)\n      dup1\n      0x40\n      add\n      0x40\n      mstore\n      dup1\n        /* \"contracts/MyToken.sol\":3758:3761  360 */\n      0x0168\n        /* \"contracts/MyToken.sol\":3717:3809  timeMapping({... */\n      dup2\n      mstore\n      0x20\n      add\n        /* \"contracts/MyToken.sol\":3784:3794  10 minutes */\n      0x0258\n        /* \"contracts/MyToken.sol\":3717:3809  timeMapping({... */\n      dup2\n      mstore\n      pop\n        /* \"contracts/MyToken.sol\":3710:3809  return timeMapping({... */\n      swap1\n      pop\n      jump(tag_141)\n        /* \"contracts/MyToken.sol\":3663:3945  if(period==StakingPeriod.OneYear){... */\n    tag_164:\n        /* \"contracts/MyToken.sol\":3845:3934  timeMapping({... */\n      mload(0x40)\n      dup1\n      0x40\n      add\n      0x40\n      mstore\n      dup1\n        /* \"contracts/MyToken.sol\":3886:3889  360 */\n      0x0168\n        /* \"contracts/MyToken.sol\":3845:3934  timeMapping({... */\n      dup2\n      mstore\n      0x20\n      add\n        /* \"contracts/MyToken.sol\":3912:3919  1 hours */\n      0x0e10\n        /* \"contracts/MyToken.sol\":3845:3934  timeMapping({... */\n      dup2\n      mstore\n      pop\n        /* \"contracts/MyToken.sol\":3838:3934  return timeMapping({... */\n      swap1\n      pop\n        /* \"contracts/MyToken.sol\":3068:3952  function _getDuration(StakingPeriod period) internal pure returns (timeMapping memory) {... */\n    tag_141:\n      swap2\n      swap1\n      pop\n      jump\t// out\n    tag_127:\n      mload(0x40)\n      dup1\n      0xc0\n      add\n      0x40\n      mstore\n      dup1\n      0x00\n      dup2\n      mstore\n      0x20\n      add\n      0x00\n      dup2\n      mstore\n      0x20\n      add\n      0x00\n      dup2\n      mstore\n      0x20\n      add\n      0x00\n      dup2\n      mstore\n      0x20\n      add\n      iszero(iszero(0x00))\n      dup2\n      mstore\n      0x20\n      add\n      0x00\n      dup2\n      mstore\n      pop\n      swap1\n      jump\t// out\n    tag_140:\n      mload(0x40)\n      dup1\n      0x40\n      add\n      0x40\n      mstore\n      dup1\n      0x00\n      dup2\n      mstore\n      0x20\n      add\n      0x00\n      dup2\n      mstore\n      pop\n      swap1\n      jump\t// out\n        /* \"#utility.yul\":88:205   */\n    tag_167:\n        /* \"#utility.yul\":197:198   */\n      0x00\n        /* \"#utility.yul\":194:195   */\n      0x00\n        /* \"#utility.yul\":187:199   */\n      revert\n        /* \"#utility.yul\":334:411   */\n    tag_169:\n        /* \"#utility.yul\":371:378   */\n      0x00\n        /* \"#utility.yul\":400:405   */\n      dup2\n        /* \"#utility.yul\":389:405   */\n      swap1\n      pop\n        /* \"#utility.yul\":334:411   */\n      swap2\n      swap1\n      pop\n      jump\t// out\n        /* \"#utility.yul\":417:539   */\n    tag_170:\n        /* \"#utility.yul\":490:514   */\n      tag_224\n        /* \"#utility.yul\":508:513   */\n      dup2\n        /* \"#utility.yul\":490:514   */\n      tag_169\n      jump\t// in\n    tag_224:\n        /* \"#utility.yul\":483:488   */\n      dup2\n        /* \"#utility.yul\":480:515   */\n      eq\n        /* \"#utility.yul\":470:533   */\n      tag_225\n      jumpi\n        /* \"#utility.yul\":529:530   */\n      0x00\n        /* \"#utility.yul\":526:527   */\n      0x00\n        /* \"#utility.yul\":519:531   */\n      revert\n        /* \"#utility.yul\":470:533   */\n    tag_225:\n        /* \"#utility.yul\":417:539   */\n      pop\n      jump\t// out\n        /* \"#utility.yul\":545:684   */\n    tag_171:\n        /* \"#utility.yul\":591:596   */\n      0x00\n        /* \"#utility.yul\":629:635   */\n      dup2\n        /* \"#utility.yul\":616:636   */\n      calldataload\n        /* \"#utility.yul\":607:636   */\n      swap1\n      pop\n        /* \"#utility.yul\":645:678   */\n      tag_227\n        /* \"#utility.yul\":672:677   */\n      dup2\n        /* \"#utility.yul\":645:678   */\n      tag_170\n      jump\t// in\n    tag_227:\n        /* \"#utility.yul\":545:684   */\n      swap3\n      swap2\n      pop\n      pop\n      jump\t// out\n        /* \"#utility.yul\":690:806   */\n    tag_172:\n        /* \"#utility.yul\":780:781   */\n      0x04\n        /* \"#utility.yul\":773:778   */\n      dup2\n        /* \"#utility.yul\":770:782   */\n      lt\n        /* \"#utility.yul\":760:800   */\n      tag_229\n      jumpi\n        /* \"#utility.yul\":796:797   */\n      0x00\n        /* \"#utility.yul\":793:794   */\n      0x00\n        /* \"#utility.yul\":786:798   */\n      revert\n        /* \"#utility.yul\":760:800   */\n    tag_229:\n        /* \"#utility.yul\":690:806   */\n      pop\n      jump\t// out\n        /* \"#utility.yul\":812:985   */\n    tag_173:\n        /* \"#utility.yul\":875:880   */\n      0x00\n        /* \"#utility.yul\":913:919   */\n      dup2\n        /* \"#utility.yul\":900:920   */\n      calldataload\n        /* \"#utility.yul\":891:920   */\n      swap1\n      pop\n        /* \"#utility.yul\":929:979   */\n      tag_231\n        /* \"#utility.yul\":973:978   */\n      dup2\n        /* \"#utility.yul\":929:979   */\n      tag_172\n      jump\t// in\n    tag_231:\n        /* \"#utility.yul\":812:985   */\n      swap3\n      swap2\n      pop\n      pop\n      jump\t// out\n        /* \"#utility.yul\":991:1499   */\n    tag_16:\n        /* \"#utility.yul\":1076:1082   */\n      0x00\n        /* \"#utility.yul\":1084:1090   */\n      0x00\n        /* \"#utility.yul\":1133:1135   */\n      0x40\n        /* \"#utility.yul\":1121:1130   */\n      dup4\n        /* \"#utility.yul\":1112:1119   */\n      dup6\n        /* \"#utility.yul\":1108:1131   */\n      sub\n        /* \"#utility.yul\":1104:1136   */\n      slt\n        /* \"#utility.yul\":1101:1220   */\n      iszero\n      tag_233\n      jumpi\n        /* \"#utility.yul\":1139:1218   */\n      tag_234\n      tag_167\n      jump\t// in\n    tag_234:\n        /* \"#utility.yul\":1101:1220   */\n    tag_233:\n        /* \"#utility.yul\":1259:1260   */\n      0x00\n        /* \"#utility.yul\":1284:1337   */\n      tag_235\n        /* \"#utility.yul\":1329:1336   */\n      dup6\n        /* \"#utility.yul\":1320:1326   */\n      dup3\n        /* \"#utility.yul\":1309:1318   */\n      dup7\n        /* \"#utility.yul\":1305:1327   */\n      add\n        /* \"#utility.yul\":1284:1337   */\n      tag_171\n      jump\t// in\n    tag_235:\n        /* \"#utility.yul\":1274:1337   */\n      swap3\n      pop\n        /* \"#utility.yul\":1230:1347   */\n      pop\n        /* \"#utility.yul\":1386:1388   */\n      0x20\n        /* \"#utility.yul\":1412:1482   */\n      tag_236\n        /* \"#utility.yul\":1474:1481   */\n      dup6\n        /* \"#utility.yul\":1465:1471   */\n      dup3\n        /* \"#utility.yul\":1454:1463   */\n      dup7\n        /* \"#utility.yul\":1450:1472   */\n      add\n        /* \"#utility.yul\":1412:1482   */\n      tag_173\n      jump\t// in\n    tag_236:\n        /* \"#utility.yul\":1402:1482   */\n      swap2\n      pop\n        /* \"#utility.yul\":1357:1492   */\n      pop\n        /* \"#utility.yul\":991:1499   */\n      swap3\n      pop\n      swap3\n      swap1\n      pop\n      jump\t// out\n        /* \"#utility.yul\":1505:1868   */\n    tag_20:\n        /* \"#utility.yul\":1581:1587   */\n      0x00\n        /* \"#utility.yul\":1630:1632   */\n      0x20\n        /* \"#utility.yul\":1618:1627   */\n      dup3\n        /* \"#utility.yul\":1609:1616   */\n      dup5\n        /* \"#utility.yul\":1605:1628   */\n      sub\n        /* \"#utility.yul\":1601:1633   */\n      slt\n        /* \"#utility.yul\":1598:1717   */\n      iszero\n      tag_238\n      jumpi\n        /* \"#utility.yul\":1636:1715   */\n      tag_239\n      tag_167\n      jump\t// in\n    tag_239:\n        /* \"#utility.yul\":1598:1717   */\n    tag_238:\n        /* \"#utility.yul\":1756:1757   */\n      0x00\n        /* \"#utility.yul\":1781:1851   */\n      tag_240\n        /* \"#utility.yul\":1843:1850   */\n      dup5\n        /* \"#utility.yul\":1834:1840   */\n      dup3\n        /* \"#utility.yul\":1823:1832   */\n      dup6\n        /* \"#utility.yul\":1819:1841   */\n      add\n        /* \"#utility.yul\":1781:1851   */\n      tag_173\n      jump\t// in\n    tag_240:\n        /* \"#utility.yul\":1771:1851   */\n      swap2\n      pop\n        /* \"#utility.yul\":1727:1861   */\n      pop\n        /* \"#utility.yul\":1505:1868   */\n      swap3\n      swap2\n      pop\n      pop\n      jump\t// out\n        /* \"#utility.yul\":1874:1992   */\n    tag_174:\n        /* \"#utility.yul\":1961:1985   */\n      tag_242\n        /* \"#utility.yul\":1979:1984   */\n      dup2\n        /* \"#utility.yul\":1961:1985   */\n      tag_169\n      jump\t// in\n    tag_242:\n        /* \"#utility.yul\":1956:1959   */\n      dup3\n        /* \"#utility.yul\":1949:1986   */\n      mstore\n        /* \"#utility.yul\":1874:1992   */\n      pop\n      pop\n      jump\t// out\n        /* \"#utility.yul\":1998:2220   */\n    tag_23:\n        /* \"#utility.yul\":2091:2095   */\n      0x00\n        /* \"#utility.yul\":2129:2131   */\n      0x20\n        /* \"#utility.yul\":2118:2127   */\n      dup3\n        /* \"#utility.yul\":2114:2132   */\n      add\n        /* \"#utility.yul\":2106:2132   */\n      swap1\n      pop\n        /* \"#utility.yul\":2142:2213   */\n      tag_244\n        /* \"#utility.yul\":2210:2211   */\n      0x00\n        /* \"#utility.yul\":2199:2208   */\n      dup4\n        /* \"#utility.yul\":2195:2212   */\n      add\n        /* \"#utility.yul\":2186:2192   */\n      dup5\n        /* \"#utility.yul\":2142:2213   */\n      tag_174\n      jump\t// in\n    tag_244:\n        /* \"#utility.yul\":1998:2220   */\n      swap3\n      swap2\n      pop\n      pop\n      jump\t// out\n        /* \"#utility.yul\":2226:2555   */\n    tag_26:\n        /* \"#utility.yul\":2285:2291   */\n      0x00\n        /* \"#utility.yul\":2334:2336   */\n      0x20\n        /* \"#utility.yul\":2322:2331   */\n      dup3\n        /* \"#utility.yul\":2313:2320   */\n      dup5\n        /* \"#utility.yul\":2309:2332   */\n      sub\n        /* \"#utility.yul\":2305:2337   */\n      slt\n        /* \"#utility.yul\":2302:2421   */\n      iszero\n      tag_246\n      jumpi\n        /* \"#utility.yul\":2340:2419   */\n      tag_247\n      tag_167\n      jump\t// in\n    tag_247:\n        /* \"#utility.yul\":2302:2421   */\n    tag_246:\n        /* \"#utility.yul\":2460:2461   */\n      0x00\n        /* \"#utility.yul\":2485:2538   */\n      tag_248\n        /* \"#utility.yul\":2530:2537   */\n      dup5\n        /* \"#utility.yul\":2521:2527   */\n      dup3\n        /* \"#utility.yul\":2510:2519   */\n      dup6\n        /* \"#utility.yul\":2506:2528   */\n      add\n        /* \"#utility.yul\":2485:2538   */\n      tag_171\n      jump\t// in\n    tag_248:\n        /* \"#utility.yul\":2475:2538   */\n      swap2\n      pop\n        /* \"#utility.yul\":2431:2548   */\n      pop\n        /* \"#utility.yul\":2226:2555   */\n      swap3\n      swap2\n      pop\n      pop\n      jump\t// out\n        /* \"#utility.yul\":2561:2687   */\n    tag_175:\n        /* \"#utility.yul\":2598:2605   */\n      0x00\n        /* \"#utility.yul\":2638:2680   */\n      0xffffffffffffffffffffffffffffffffffffffff\n        /* \"#utility.yul\":2631:2636   */\n      dup3\n        /* \"#utility.yul\":2627:2681   */\n      and\n        /* \"#utility.yul\":2616:2681   */\n      swap1\n      pop\n        /* \"#utility.yul\":2561:2687   */\n      swap2\n      swap1\n      pop\n      jump\t// out\n        /* \"#utility.yul\":2693:2753   */\n    tag_176:\n        /* \"#utility.yul\":2721:2724   */\n      0x00\n        /* \"#utility.yul\":2742:2747   */\n      dup2\n        /* \"#utility.yul\":2735:2747   */\n      swap1\n      pop\n        /* \"#utility.yul\":2693:2753   */\n      swap2\n      swap1\n      pop\n      jump\t// out\n        /* \"#utility.yul\":2759:2901   */\n    tag_177:\n        /* \"#utility.yul\":2809:2818   */\n      0x00\n        /* \"#utility.yul\":2842:2895   */\n      tag_252\n        /* \"#utility.yul\":2860:2894   */\n      tag_253\n        /* \"#utility.yul\":2869:2893   */\n      tag_254\n        /* \"#utility.yul\":2887:2892   */\n      dup5\n        /* \"#utility.yul\":2869:2893   */\n      tag_175\n      jump\t// in\n    tag_254:\n        /* \"#utility.yul\":2860:2894   */\n      tag_176\n      jump\t// in\n    tag_253:\n        /* \"#utility.yul\":2842:2895   */\n      tag_175\n      jump\t// in\n    tag_252:\n        /* \"#utility.yul\":2829:2895   */\n      swap1\n      pop\n        /* \"#utility.yul\":2759:2901   */\n      swap2\n      swap1\n      pop\n      jump\t// out\n        /* \"#utility.yul\":2907:3033   */\n    tag_178:\n        /* \"#utility.yul\":2957:2966   */\n      0x00\n        /* \"#utility.yul\":2990:3027   */\n      tag_256\n        /* \"#utility.yul\":3021:3026   */\n      dup3\n        /* \"#utility.yul\":2990:3027   */\n      tag_177\n      jump\t// in\n    tag_256:\n        /* \"#utility.yul\":2977:3027   */\n      swap1\n      pop\n        /* \"#utility.yul\":2907:3033   */\n      swap2\n      swap1\n      pop\n      jump\t// out\n        /* \"#utility.yul\":3039:3179   */\n    tag_179:\n        /* \"#utility.yul\":3103:3112   */\n      0x00\n        /* \"#utility.yul\":3136:3173   */\n      tag_258\n        /* \"#utility.yul\":3167:3172   */\n      dup3\n        /* \"#utility.yul\":3136:3173   */\n      tag_178\n      jump\t// in\n    tag_258:\n        /* \"#utility.yul\":3123:3173   */\n      swap1\n      pop\n        /* \"#utility.yul\":3039:3179   */\n      swap2\n      swap1\n      pop\n      jump\t// out\n        /* \"#utility.yul\":3185:3344   */\n    tag_180:\n        /* \"#utility.yul\":3286:3337   */\n      tag_260\n        /* \"#utility.yul\":3331:3336   */\n      dup2\n        /* \"#utility.yul\":3286:3337   */\n      tag_179\n      jump\t// in\n    tag_260:\n        /* \"#utility.yul\":3281:3284   */\n      dup3\n        /* \"#utility.yul\":3274:3338   */\n      mstore\n        /* \"#utility.yul\":3185:3344   */\n      pop\n      pop\n      jump\t// out\n        /* \"#utility.yul\":3350:3600   */\n    tag_35:\n        /* \"#utility.yul\":3457:3461   */\n      0x00\n        /* \"#utility.yul\":3495:3497   */\n      0x20\n        /* \"#utility.yul\":3484:3493   */\n      dup3\n        /* \"#utility.yul\":3480:3498   */\n      add\n        /* \"#utility.yul\":3472:3498   */\n      swap1\n      pop\n        /* \"#utility.yul\":3508:3593   */\n      tag_262\n        /* \"#utility.yul\":3590:3591   */\n      0x00\n        /* \"#utility.yul\":3579:3588   */\n      dup4\n        /* \"#utility.yul\":3575:3592   */\n      add\n        /* \"#utility.yul\":3566:3572   */\n      dup5\n        /* \"#utility.yul\":3508:3593   */\n      tag_180\n      jump\t// in\n    tag_262:\n        /* \"#utility.yul\":3350:3600   */\n      swap3\n      swap2\n      pop\n      pop\n      jump\t// out\n        /* \"#utility.yul\":3606:3702   */\n    tag_181:\n        /* \"#utility.yul\":3643:3650   */\n      0x00\n        /* \"#utility.yul\":3672:3696   */\n      tag_264\n        /* \"#utility.yul\":3690:3695   */\n      dup3\n        /* \"#utility.yul\":3672:3696   */\n      tag_175\n      jump\t// in\n    tag_264:\n        /* \"#utility.yul\":3661:3696   */\n      swap1\n      pop\n        /* \"#utility.yul\":3606:3702   */\n      swap2\n      swap1\n      pop\n      jump\t// out\n        /* \"#utility.yul\":3708:3830   */\n    tag_182:\n        /* \"#utility.yul\":3781:3805   */\n      tag_266\n        /* \"#utility.yul\":3799:3804   */\n      dup2\n        /* \"#utility.yul\":3781:3805   */\n      tag_181\n      jump\t// in\n    tag_266:\n        /* \"#utility.yul\":3774:3779   */\n      dup2\n        /* \"#utility.yul\":3771:3806   */\n      eq\n        /* \"#utility.yul\":3761:3824   */\n      tag_267\n      jumpi\n        /* \"#utility.yul\":3820:3821   */\n      0x00\n        /* \"#utility.yul\":3817:3818   */\n      0x00\n        /* \"#utility.yul\":3810:3822   */\n      revert\n        /* \"#utility.yul\":3761:3824   */\n    tag_267:\n        /* \"#utility.yul\":3708:3830   */\n      pop\n      jump\t// out\n        /* \"#utility.yul\":3836:3975   */\n    tag_183:\n        /* \"#utility.yul\":3882:3887   */\n      0x00\n        /* \"#utility.yul\":3920:3926   */\n      dup2\n        /* \"#utility.yul\":3907:3927   */\n      calldataload\n        /* \"#utility.yul\":3898:3927   */\n      swap1\n      pop\n        /* \"#utility.yul\":3936:3969   */\n      tag_269\n        /* \"#utility.yul\":3963:3968   */\n      dup2\n        /* \"#utility.yul\":3936:3969   */\n      tag_182\n      jump\t// in\n    tag_269:\n        /* \"#utility.yul\":3836:3975   */\n      swap3\n      swap2\n      pop\n      pop\n      jump\t// out\n        /* \"#utility.yul\":3981:4310   */\n    tag_38:\n        /* \"#utility.yul\":4040:4046   */\n      0x00\n        /* \"#utility.yul\":4089:4091   */\n      0x20\n        /* \"#utility.yul\":4077:4086   */\n      dup3\n        /* \"#utility.yul\":4068:4075   */\n      dup5\n        /* \"#utility.yul\":4064:4087   */\n      sub\n        /* \"#utility.yul\":4060:4092   */\n      slt\n        /* \"#utility.yul\":4057:4176   */\n      iszero\n      tag_271\n      jumpi\n        /* \"#utility.yul\":4095:4174   */\n      tag_272\n      tag_167\n      jump\t// in\n    tag_272:\n        /* \"#utility.yul\":4057:4176   */\n    tag_271:\n        /* \"#utility.yul\":4215:4216   */\n      0x00\n        /* \"#utility.yul\":4240:4293   */\n      tag_273\n        /* \"#utility.yul\":4285:4292   */\n      dup5\n        /* \"#utility.yul\":4276:4282   */\n      dup3\n        /* \"#utility.yul\":4265:4274   */\n      dup6\n        /* \"#utility.yul\":4261:4283   */\n      add\n        /* \"#utility.yul\":4240:4293   */\n      tag_183\n      jump\t// in\n    tag_273:\n        /* \"#utility.yul\":4230:4293   */\n      swap2\n      pop\n        /* \"#utility.yul\":4186:4303   */\n      pop\n        /* \"#utility.yul\":3981:4310   */\n      swap3\n      swap2\n      pop\n      pop\n      jump\t// out\n        /* \"#utility.yul\":4316:4452   */\n    tag_184:\n        /* \"#utility.yul\":4405:4411   */\n      0x00\n        /* \"#utility.yul\":4439:4444   */\n      dup2\n        /* \"#utility.yul\":4433:4445   */\n      mload\n        /* \"#utility.yul\":4423:4445   */\n      swap1\n      pop\n        /* \"#utility.yul\":4316:4452   */\n      swap2\n      swap1\n      pop\n      jump\t// out\n        /* \"#utility.yul\":4458:4664   */\n    tag_185:\n        /* \"#utility.yul\":4579:4590   */\n      0x00\n        /* \"#utility.yul\":4613:4619   */\n      dup3\n        /* \"#utility.yul\":4608:4611   */\n      dup3\n        /* \"#utility.yul\":4601:4620   */\n      mstore\n        /* \"#utility.yul\":4653:4657   */\n      0x20\n        /* \"#utility.yul\":4648:4651   */\n      dup3\n        /* \"#utility.yul\":4644:4658   */\n      add\n        /* \"#utility.yul\":4629:4658   */\n      swap1\n      pop\n        /* \"#utility.yul\":4458:4664   */\n      swap3\n      swap2\n      pop\n      pop\n      jump\t// out\n        /* \"#utility.yul\":4670:4824   */\n    tag_186:\n        /* \"#utility.yul\":4759:4763   */\n      0x00\n        /* \"#utility.yul\":4782:4785   */\n      dup2\n        /* \"#utility.yul\":4774:4785   */\n      swap1\n      pop\n        /* \"#utility.yul\":4812:4816   */\n      0x20\n        /* \"#utility.yul\":4807:4810   */\n      dup3\n        /* \"#utility.yul\":4803:4817   */\n      add\n        /* \"#utility.yul\":4795:4817   */\n      swap1\n      pop\n        /* \"#utility.yul\":4670:4824   */\n      swap2\n      swap1\n      pop\n      jump\t// out\n        /* \"#utility.yul\":4830:4938   */\n    tag_187:\n        /* \"#utility.yul\":4907:4931   */\n      tag_278\n        /* \"#utility.yul\":4925:4930   */\n      dup2\n        /* \"#utility.yul\":4907:4931   */\n      tag_169\n      jump\t// in\n    tag_278:\n        /* \"#utility.yul\":4902:4905   */\n      dup3\n        /* \"#utility.yul\":4895:4932   */\n      mstore\n        /* \"#utility.yul\":4830:4938   */\n      pop\n      pop\n      jump\t// out\n        /* \"#utility.yul\":4944:5034   */\n    tag_188:\n        /* \"#utility.yul\":4978:4985   */\n      0x00\n        /* \"#utility.yul\":5021:5026   */\n      dup2\n        /* \"#utility.yul\":5014:5027   */\n      iszero\n        /* \"#utility.yul\":5007:5028   */\n      iszero\n        /* \"#utility.yul\":4996:5028   */\n      swap1\n      pop\n        /* \"#utility.yul\":4944:5034   */\n      swap2\n      swap1\n      pop\n      jump\t// out\n        /* \"#utility.yul\":5040:5139   */\n    tag_189:\n        /* \"#utility.yul\":5111:5132   */\n      tag_281\n        /* \"#utility.yul\":5126:5131   */\n      dup2\n        /* \"#utility.yul\":5111:5132   */\n      tag_188\n      jump\t// in\n    tag_281:\n        /* \"#utility.yul\":5106:5109   */\n      dup3\n        /* \"#utility.yul\":5099:5133   */\n      mstore\n        /* \"#utility.yul\":5040:5139   */\n      pop\n      pop\n      jump\t// out\n        /* \"#utility.yul\":5207:6414   */\n    tag_190:\n        /* \"#utility.yul\":5338:5342   */\n      0xc0\n        /* \"#utility.yul\":5333:5336   */\n      dup3\n        /* \"#utility.yul\":5329:5343   */\n      add\n        /* \"#utility.yul\":5427:5431   */\n      0x00\n        /* \"#utility.yul\":5420:5425   */\n      dup3\n        /* \"#utility.yul\":5416:5432   */\n      add\n        /* \"#utility.yul\":5410:5433   */\n      mload\n        /* \"#utility.yul\":5446:5509   */\n      tag_283\n        /* \"#utility.yul\":5503:5507   */\n      0x00\n        /* \"#utility.yul\":5498:5501   */\n      dup6\n        /* \"#utility.yul\":5494:5508   */\n      add\n        /* \"#utility.yul\":5480:5492   */\n      dup3\n        /* \"#utility.yul\":5446:5509   */\n      tag_187\n      jump\t// in\n    tag_283:\n        /* \"#utility.yul\":5353:5519   */\n      pop\n        /* \"#utility.yul\":5606:5610   */\n      0x20\n        /* \"#utility.yul\":5599:5604   */\n      dup3\n        /* \"#utility.yul\":5595:5611   */\n      add\n        /* \"#utility.yul\":5589:5612   */\n      mload\n        /* \"#utility.yul\":5625:5688   */\n      tag_284\n        /* \"#utility.yul\":5682:5686   */\n      0x20\n        /* \"#utility.yul\":5677:5680   */\n      dup6\n        /* \"#utility.yul\":5673:5687   */\n      add\n        /* \"#utility.yul\":5659:5671   */\n      dup3\n        /* \"#utility.yul\":5625:5688   */\n      tag_187\n      jump\t// in\n    tag_284:\n        /* \"#utility.yul\":5529:5698   */\n      pop\n        /* \"#utility.yul\":5783:5787   */\n      0x40\n        /* \"#utility.yul\":5776:5781   */\n      dup3\n        /* \"#utility.yul\":5772:5788   */\n      add\n        /* \"#utility.yul\":5766:5789   */\n      mload\n        /* \"#utility.yul\":5802:5865   */\n      tag_285\n        /* \"#utility.yul\":5859:5863   */\n      0x40\n        /* \"#utility.yul\":5854:5857   */\n      dup6\n        /* \"#utility.yul\":5850:5864   */\n      add\n        /* \"#utility.yul\":5836:5848   */\n      dup3\n        /* \"#utility.yul\":5802:5865   */\n      tag_187\n      jump\t// in\n    tag_285:\n        /* \"#utility.yul\":5708:5875   */\n      pop\n        /* \"#utility.yul\":5963:5967   */\n      0x60\n        /* \"#utility.yul\":5956:5961   */\n      dup3\n        /* \"#utility.yul\":5952:5968   */\n      add\n        /* \"#utility.yul\":5946:5969   */\n      mload\n        /* \"#utility.yul\":5982:6045   */\n      tag_286\n        /* \"#utility.yul\":6039:6043   */\n      0x60\n        /* \"#utility.yul\":6034:6037   */\n      dup6\n        /* \"#utility.yul\":6030:6044   */\n      add\n        /* \"#utility.yul\":6016:6028   */\n      dup3\n        /* \"#utility.yul\":5982:6045   */\n      tag_187\n      jump\t// in\n    tag_286:\n        /* \"#utility.yul\":5885:6055   */\n      pop\n        /* \"#utility.yul\":6141:6145   */\n      0x80\n        /* \"#utility.yul\":6134:6139   */\n      dup3\n        /* \"#utility.yul\":6130:6146   */\n      add\n        /* \"#utility.yul\":6124:6147   */\n      mload\n        /* \"#utility.yul\":6160:6217   */\n      tag_287\n        /* \"#utility.yul\":6211:6215   */\n      0x80\n        /* \"#utility.yul\":6206:6209   */\n      dup6\n        /* \"#utility.yul\":6202:6216   */\n      add\n        /* \"#utility.yul\":6188:6200   */\n      dup3\n        /* \"#utility.yul\":6160:6217   */\n      tag_189\n      jump\t// in\n    tag_287:\n        /* \"#utility.yul\":6065:6227   */\n      pop\n        /* \"#utility.yul\":6315:6319   */\n      0xa0\n        /* \"#utility.yul\":6308:6313   */\n      dup3\n        /* \"#utility.yul\":6304:6320   */\n      add\n        /* \"#utility.yul\":6298:6321   */\n      mload\n        /* \"#utility.yul\":6334:6397   */\n      tag_288\n        /* \"#utility.yul\":6391:6395   */\n      0xa0\n        /* \"#utility.yul\":6386:6389   */\n      dup6\n        /* \"#utility.yul\":6382:6396   */\n      add\n        /* \"#utility.yul\":6368:6380   */\n      dup3\n        /* \"#utility.yul\":6334:6397   */\n      tag_187\n      jump\t// in\n    tag_288:\n        /* \"#utility.yul\":6237:6407   */\n      pop\n        /* \"#utility.yul\":5307:6414   */\n      pop\n        /* \"#utility.yul\":5207:6414   */\n      pop\n      pop\n      jump\t// out\n        /* \"#utility.yul\":6420:6687   */\n    tag_191:\n        /* \"#utility.yul\":6533:6543   */\n      0x00\n        /* \"#utility.yul\":6554:6644   */\n      tag_290\n        /* \"#utility.yul\":6640:6643   */\n      dup4\n        /* \"#utility.yul\":6632:6638   */\n      dup4\n        /* \"#utility.yul\":6554:6644   */\n      tag_190\n      jump\t// in\n    tag_290:\n        /* \"#utility.yul\":6676:6680   */\n      0xc0\n        /* \"#utility.yul\":6671:6674   */\n      dup4\n        /* \"#utility.yul\":6667:6681   */\n      add\n        /* \"#utility.yul\":6653:6681   */\n      swap1\n      pop\n        /* \"#utility.yul\":6420:6687   */\n      swap3\n      swap2\n      pop\n      pop\n      jump\t// out\n        /* \"#utility.yul\":6693:6828   */\n    tag_192:\n        /* \"#utility.yul\":6785:6789   */\n      0x00\n        /* \"#utility.yul\":6817:6821   */\n      0x20\n        /* \"#utility.yul\":6812:6815   */\n      dup3\n        /* \"#utility.yul\":6808:6822   */\n      add\n        /* \"#utility.yul\":6800:6822   */\n      swap1\n      pop\n        /* \"#utility.yul\":6693:6828   */\n      swap2\n      swap1\n      pop\n      jump\t// out\n        /* \"#utility.yul\":6900:7808   */\n    tag_193:\n        /* \"#utility.yul\":7063:7066   */\n      0x00\n        /* \"#utility.yul\":7092:7168   */\n      tag_293\n        /* \"#utility.yul\":7162:7167   */\n      dup3\n        /* \"#utility.yul\":7092:7168   */\n      tag_184\n      jump\t// in\n    tag_293:\n        /* \"#utility.yul\":7184:7292   */\n      tag_294\n        /* \"#utility.yul\":7285:7291   */\n      dup2\n        /* \"#utility.yul\":7280:7283   */\n      dup6\n        /* \"#utility.yul\":7184:7292   */\n      tag_185\n      jump\t// in\n    tag_294:\n        /* \"#utility.yul\":7177:7292   */\n      swap4\n      pop\n        /* \"#utility.yul\":7316:7394   */\n      tag_295\n        /* \"#utility.yul\":7388:7393   */\n      dup4\n        /* \"#utility.yul\":7316:7394   */\n      tag_186\n      jump\t// in\n    tag_295:\n        /* \"#utility.yul\":7417:7424   */\n      dup1\n        /* \"#utility.yul\":7448:7449   */\n      0x00\n        /* \"#utility.yul\":7433:7783   */\n    tag_296:\n        /* \"#utility.yul\":7458:7464   */\n      dup4\n        /* \"#utility.yul\":7455:7456   */\n      dup2\n        /* \"#utility.yul\":7452:7465   */\n      lt\n        /* \"#utility.yul\":7433:7783   */\n      iszero\n      tag_298\n      jumpi\n        /* \"#utility.yul\":7534:7540   */\n      dup2\n        /* \"#utility.yul\":7528:7541   */\n      mload\n        /* \"#utility.yul\":7561:7668   */\n      tag_299\n        /* \"#utility.yul\":7664:7667   */\n      dup9\n        /* \"#utility.yul\":7649:7662   */\n      dup3\n        /* \"#utility.yul\":7561:7668   */\n      tag_191\n      jump\t// in\n    tag_299:\n        /* \"#utility.yul\":7554:7668   */\n      swap8\n      pop\n        /* \"#utility.yul\":7691:7773   */\n      tag_300\n        /* \"#utility.yul\":7766:7772   */\n      dup4\n        /* \"#utility.yul\":7691:7773   */\n      tag_192\n      jump\t// in\n    tag_300:\n        /* \"#utility.yul\":7681:7773   */\n      swap3\n      pop\n        /* \"#utility.yul\":7493:7783   */\n      pop\n        /* \"#utility.yul\":7480:7481   */\n      0x01\n        /* \"#utility.yul\":7477:7478   */\n      dup2\n        /* \"#utility.yul\":7473:7482   */\n      add\n        /* \"#utility.yul\":7468:7482   */\n      swap1\n      pop\n        /* \"#utility.yul\":7433:7783   */\n      jump(tag_296)\n    tag_298:\n        /* \"#utility.yul\":7437:7451   */\n      pop\n        /* \"#utility.yul\":7799:7802   */\n      dup6\n        /* \"#utility.yul\":7792:7802   */\n      swap4\n      pop\n        /* \"#utility.yul\":7068:7808   */\n      pop\n      pop\n      pop\n        /* \"#utility.yul\":6900:7808   */\n      swap3\n      swap2\n      pop\n      pop\n      jump\t// out\n        /* \"#utility.yul\":7814:8275   */\n    tag_45:\n        /* \"#utility.yul\":8001:8005   */\n      0x00\n        /* \"#utility.yul\":8039:8041   */\n      0x20\n        /* \"#utility.yul\":8028:8037   */\n      dup3\n        /* \"#utility.yul\":8024:8042   */\n      add\n        /* \"#utility.yul\":8016:8042   */\n      swap1\n      pop\n        /* \"#utility.yul\":8088:8097   */\n      dup2\n        /* \"#utility.yul\":8082:8086   */\n      dup2\n        /* \"#utility.yul\":8078:8098   */\n      sub\n        /* \"#utility.yul\":8074:8075   */\n      0x00\n        /* \"#utility.yul\":8063:8072   */\n      dup4\n        /* \"#utility.yul\":8059:8076   */\n      add\n        /* \"#utility.yul\":8052:8099   */\n      mstore\n        /* \"#utility.yul\":8116:8268   */\n      tag_302\n        /* \"#utility.yul\":8263:8267   */\n      dup2\n        /* \"#utility.yul\":8254:8260   */\n      dup5\n        /* \"#utility.yul\":8116:8268   */\n      tag_193\n      jump\t// in\n    tag_302:\n        /* \"#utility.yul\":8108:8268   */\n      swap1\n      pop\n        /* \"#utility.yul\":7814:8275   */\n      swap3\n      swap2\n      pop\n      pop\n      jump\t// out\n        /* \"#utility.yul\":8281:8399   */\n    tag_194:\n        /* \"#utility.yul\":8368:8392   */\n      tag_304\n        /* \"#utility.yul\":8386:8391   */\n      dup2\n        /* \"#utility.yul\":8368:8392   */\n      tag_181\n      jump\t// in\n    tag_304:\n        /* \"#utility.yul\":8363:8366   */\n      dup3\n        /* \"#utility.yul\":8356:8393   */\n      mstore\n        /* \"#utility.yul\":8281:8399   */\n      pop\n      pop\n      jump\t// out\n        /* \"#utility.yul\":8405:8627   */\n    tag_50:\n        /* \"#utility.yul\":8498:8502   */\n      0x00\n        /* \"#utility.yul\":8536:8538   */\n      0x20\n        /* \"#utility.yul\":8525:8534   */\n      dup3\n        /* \"#utility.yul\":8521:8539   */\n      add\n        /* \"#utility.yul\":8513:8539   */\n      swap1\n      pop\n        /* \"#utility.yul\":8549:8620   */\n      tag_306\n        /* \"#utility.yul\":8617:8618   */\n      0x00\n        /* \"#utility.yul\":8606:8615   */\n      dup4\n        /* \"#utility.yul\":8602:8619   */\n      add\n        /* \"#utility.yul\":8593:8599   */\n      dup5\n        /* \"#utility.yul\":8549:8620   */\n      tag_194\n      jump\t// in\n    tag_306:\n        /* \"#utility.yul\":8405:8627   */\n      swap3\n      swap2\n      pop\n      pop\n      jump\t// out\n        /* \"#utility.yul\":8633:9107   */\n    tag_53:\n        /* \"#utility.yul\":8701:8707   */\n      0x00\n        /* \"#utility.yul\":8709:8715   */\n      0x00\n        /* \"#utility.yul\":8758:8760   */\n      0x40\n        /* \"#utility.yul\":8746:8755   */\n      dup4\n        /* \"#utility.yul\":8737:8744   */\n      dup6\n        /* \"#utility.yul\":8733:8756   */\n      sub\n        /* \"#utility.yul\":8729:8761   */\n      slt\n        /* \"#utility.yul\":8726:8845   */\n      iszero\n      tag_308\n      jumpi\n        /* \"#utility.yul\":8764:8843   */\n      tag_309\n      tag_167\n      jump\t// in\n    tag_309:\n        /* \"#utility.yul\":8726:8845   */\n    tag_308:\n        /* \"#utility.yul\":8884:8885   */\n      0x00\n        /* \"#utility.yul\":8909:8962   */\n      tag_310\n        /* \"#utility.yul\":8954:8961   */\n      dup6\n        /* \"#utility.yul\":8945:8951   */\n      dup3\n        /* \"#utility.yul\":8934:8943   */\n      dup7\n        /* \"#utility.yul\":8930:8952   */\n      add\n        /* \"#utility.yul\":8909:8962   */\n      tag_183\n      jump\t// in\n    tag_310:\n        /* \"#utility.yul\":8899:8962   */\n      swap3\n      pop\n        /* \"#utility.yul\":8855:8972   */\n      pop\n        /* \"#utility.yul\":9011:9013   */\n      0x20\n        /* \"#utility.yul\":9037:9090   */\n      tag_311\n        /* \"#utility.yul\":9082:9089   */\n      dup6\n        /* \"#utility.yul\":9073:9079   */\n      dup3\n        /* \"#utility.yul\":9062:9071   */\n      dup7\n        /* \"#utility.yul\":9058:9080   */\n      add\n        /* \"#utility.yul\":9037:9090   */\n      tag_171\n      jump\t// in\n    tag_311:\n        /* \"#utility.yul\":9027:9090   */\n      swap2\n      pop\n        /* \"#utility.yul\":8982:9100   */\n      pop\n        /* \"#utility.yul\":8633:9107   */\n      swap3\n      pop\n      swap3\n      swap1\n      pop\n      jump\t// out\n        /* \"#utility.yul\":9113:9222   */\n    tag_195:\n        /* \"#utility.yul\":9194:9215   */\n      tag_313\n        /* \"#utility.yul\":9209:9214   */\n      dup2\n        /* \"#utility.yul\":9194:9215   */\n      tag_188\n      jump\t// in\n    tag_313:\n        /* \"#utility.yul\":9189:9192   */\n      dup3\n        /* \"#utility.yul\":9182:9216   */\n      mstore\n        /* \"#utility.yul\":9113:9222   */\n      pop\n      pop\n      jump\t// out\n        /* \"#utility.yul\":9228:9991   */\n    tag_56:\n        /* \"#utility.yul\":9455:9459   */\n      0x00\n        /* \"#utility.yul\":9493:9496   */\n      0xc0\n        /* \"#utility.yul\":9482:9491   */\n      dup3\n        /* \"#utility.yul\":9478:9497   */\n      add\n        /* \"#utility.yul\":9470:9497   */\n      swap1\n      pop\n        /* \"#utility.yul\":9507:9578   */\n      tag_315\n        /* \"#utility.yul\":9575:9576   */\n      0x00\n        /* \"#utility.yul\":9564:9573   */\n      dup4\n        /* \"#utility.yul\":9560:9577   */\n      add\n        /* \"#utility.yul\":9551:9557   */\n      dup10\n        /* \"#utility.yul\":9507:9578   */\n      tag_174\n      jump\t// in\n    tag_315:\n        /* \"#utility.yul\":9588:9660   */\n      tag_316\n        /* \"#utility.yul\":9656:9658   */\n      0x20\n        /* \"#utility.yul\":9645:9654   */\n      dup4\n        /* \"#utility.yul\":9641:9659   */\n      add\n        /* \"#utility.yul\":9632:9638   */\n      dup9\n        /* \"#utility.yul\":9588:9660   */\n      tag_174\n      jump\t// in\n    tag_316:\n        /* \"#utility.yul\":9670:9742   */\n      tag_317\n        /* \"#utility.yul\":9738:9740   */\n      0x40\n        /* \"#utility.yul\":9727:9736   */\n      dup4\n        /* \"#utility.yul\":9723:9741   */\n      add\n        /* \"#utility.yul\":9714:9720   */\n      dup8\n        /* \"#utility.yul\":9670:9742   */\n      tag_174\n      jump\t// in\n    tag_317:\n        /* \"#utility.yul\":9752:9824   */\n      tag_318\n        /* \"#utility.yul\":9820:9822   */\n      0x60\n        /* \"#utility.yul\":9809:9818   */\n      dup4\n        /* \"#utility.yul\":9805:9823   */\n      add\n        /* \"#utility.yul\":9796:9802   */\n      dup7\n        /* \"#utility.yul\":9752:9824   */\n      tag_174\n      jump\t// in\n    tag_318:\n        /* \"#utility.yul\":9834:9901   */\n      tag_319\n        /* \"#utility.yul\":9896:9899   */\n      0x80\n        /* \"#utility.yul\":9885:9894   */\n      dup4\n        /* \"#utility.yul\":9881:9900   */\n      add\n        /* \"#utility.yul\":9872:9878   */\n      dup6\n        /* \"#utility.yul\":9834:9901   */\n      tag_195\n      jump\t// in\n    tag_319:\n        /* \"#utility.yul\":9911:9984   */\n      tag_320\n        /* \"#utility.yul\":9979:9982   */\n      0xa0\n        /* \"#utility.yul\":9968:9977   */\n      dup4\n        /* \"#utility.yul\":9964:9983   */\n      add\n        /* \"#utility.yul\":9955:9961   */\n      dup5\n        /* \"#utility.yul\":9911:9984   */\n      tag_174\n      jump\t// in\n    tag_320:\n        /* \"#utility.yul\":9228:9991   */\n      swap8\n      swap7\n      pop\n      pop\n      pop\n      pop\n      pop\n      pop\n      pop\n      jump\t// out\n        /* \"#utility.yul\":9997:10177   */\n    tag_196:\n        /* \"#utility.yul\":10045:10122   */\n      0x4e487b7100000000000000000000000000000000000000000000000000000000\n        /* \"#utility.yul\":10042:10043   */\n      0x00\n        /* \"#utility.yul\":10035:10123   */\n      mstore\n        /* \"#utility.yul\":10142:10146   */\n      0x11\n        /* \"#utility.yul\":10139:10140   */\n      0x04\n        /* \"#utility.yul\":10132:10147   */\n      mstore\n        /* \"#utility.yul\":10166:10170   */\n      0x24\n        /* \"#utility.yul\":10163:10164   */\n      0x00\n        /* \"#utility.yul\":10156:10171   */\n      revert\n        /* \"#utility.yul\":10183:10593   */\n    tag_62:\n        /* \"#utility.yul\":10223:10230   */\n      0x00\n        /* \"#utility.yul\":10246:10266   */\n      tag_323\n        /* \"#utility.yul\":10264:10265   */\n      dup3\n        /* \"#utility.yul\":10246:10266   */\n      tag_169\n      jump\t// in\n    tag_323:\n        /* \"#utility.yul\":10241:10266   */\n      swap2\n      pop\n        /* \"#utility.yul\":10280:10300   */\n      tag_324\n        /* \"#utility.yul\":10298:10299   */\n      dup4\n        /* \"#utility.yul\":10280:10300   */\n      tag_169\n      jump\t// in\n    tag_324:\n        /* \"#utility.yul\":10275:10300   */\n      swap3\n      pop\n        /* \"#utility.yul\":10335:10336   */\n      dup3\n        /* \"#utility.yul\":10332:10333   */\n      dup3\n        /* \"#utility.yul\":10328:10337   */\n      mul\n        /* \"#utility.yul\":10357:10387   */\n      tag_325\n        /* \"#utility.yul\":10375:10386   */\n      dup2\n        /* \"#utility.yul\":10357:10387   */\n      tag_169\n      jump\t// in\n    tag_325:\n        /* \"#utility.yul\":10346:10387   */\n      swap2\n      pop\n        /* \"#utility.yul\":10536:10537   */\n      dup3\n        /* \"#utility.yul\":10527:10534   */\n      dup3\n        /* \"#utility.yul\":10523:10538   */\n      div\n        /* \"#utility.yul\":10520:10521   */\n      dup5\n        /* \"#utility.yul\":10517:10539   */\n      eq\n        /* \"#utility.yul\":10497:10498   */\n      dup4\n        /* \"#utility.yul\":10490:10499   */\n      iszero\n        /* \"#utility.yul\":10470:10553   */\n      or\n        /* \"#utility.yul\":10447:10586   */\n      tag_326\n      jumpi\n        /* \"#utility.yul\":10566:10584   */\n      tag_327\n      tag_196\n      jump\t// in\n    tag_327:\n        /* \"#utility.yul\":10447:10586   */\n    tag_326:\n        /* \"#utility.yul\":10231:10593   */\n      pop\n        /* \"#utility.yul\":10183:10593   */\n      swap3\n      swap2\n      pop\n      pop\n      jump\t// out\n        /* \"#utility.yul\":10599:10768   */\n    tag_197:\n        /* \"#utility.yul\":10683:10694   */\n      0x00\n        /* \"#utility.yul\":10717:10723   */\n      dup3\n        /* \"#utility.yul\":10712:10715   */\n      dup3\n        /* \"#utility.yul\":10705:10724   */\n      mstore\n        /* \"#utility.yul\":10757:10761   */\n      0x20\n        /* \"#utility.yul\":10752:10755   */\n      dup3\n        /* \"#utility.yul\":10748:10762   */\n      add\n        /* \"#utility.yul\":10733:10762   */\n      swap1\n      pop\n        /* \"#utility.yul\":10599:10768   */\n      swap3\n      swap2\n      pop\n      pop\n      jump\t// out\n        /* \"#utility.yul\":10774:10949   */\n    tag_198:\n        /* \"#utility.yul\":10914:10941   */\n      0x416d6f756e742073686f756c6420626520706f73697469766500000000000000\n        /* \"#utility.yul\":10910:10911   */\n      0x00\n        /* \"#utility.yul\":10902:10908   */\n      dup3\n        /* \"#utility.yul\":10898:10912   */\n      add\n        /* \"#utility.yul\":10891:10942   */\n      mstore\n        /* \"#utility.yul\":10774:10949   */\n      pop\n      jump\t// out\n        /* \"#utility.yul\":10955:11321   */\n    tag_199:\n        /* \"#utility.yul\":11097:11100   */\n      0x00\n        /* \"#utility.yul\":11118:11185   */\n      tag_331\n        /* \"#utility.yul\":11182:11184   */\n      0x19\n        /* \"#utility.yul\":11177:11180   */\n      dup4\n        /* \"#utility.yul\":11118:11185   */\n      tag_197\n      jump\t// in\n    tag_331:\n        /* \"#utility.yul\":11111:11185   */\n      swap2\n      pop\n        /* \"#utility.yul\":11194:11287   */\n      tag_332\n        /* \"#utility.yul\":11283:11286   */\n      dup3\n        /* \"#utility.yul\":11194:11287   */\n      tag_198\n      jump\t// in\n    tag_332:\n        /* \"#utility.yul\":11312:11314   */\n      0x20\n        /* \"#utility.yul\":11307:11310   */\n      dup3\n        /* \"#utility.yul\":11303:11315   */\n      add\n        /* \"#utility.yul\":11296:11315   */\n      swap1\n      pop\n        /* \"#utility.yul\":10955:11321   */\n      swap2\n      swap1\n      pop\n      jump\t// out\n        /* \"#utility.yul\":11327:11746   */\n    tag_65:\n        /* \"#utility.yul\":11493:11497   */\n      0x00\n        /* \"#utility.yul\":11531:11533   */\n      0x20\n        /* \"#utility.yul\":11520:11529   */\n      dup3\n        /* \"#utility.yul\":11516:11534   */\n      add\n        /* \"#utility.yul\":11508:11534   */\n      swap1\n      pop\n        /* \"#utility.yul\":11580:11589   */\n      dup2\n        /* \"#utility.yul\":11574:11578   */\n      dup2\n        /* \"#utility.yul\":11570:11590   */\n      sub\n        /* \"#utility.yul\":11566:11567   */\n      0x00\n        /* \"#utility.yul\":11555:11564   */\n      dup4\n        /* \"#utility.yul\":11551:11568   */\n      add\n        /* \"#utility.yul\":11544:11591   */\n      mstore\n        /* \"#utility.yul\":11608:11739   */\n      tag_334\n        /* \"#utility.yul\":11734:11738   */\n      dup2\n        /* \"#utility.yul\":11608:11739   */\n      tag_199\n      jump\t// in\n    tag_334:\n        /* \"#utility.yul\":11600:11739   */\n      swap1\n      pop\n        /* \"#utility.yul\":11327:11746   */\n      swap2\n      swap1\n      pop\n      jump\t// out\n        /* \"#utility.yul\":11752:11895   */\n    tag_200:\n        /* \"#utility.yul\":11809:11814   */\n      0x00\n        /* \"#utility.yul\":11840:11846   */\n      dup2\n        /* \"#utility.yul\":11834:11847   */\n      mload\n        /* \"#utility.yul\":11825:11847   */\n      swap1\n      pop\n        /* \"#utility.yul\":11856:11889   */\n      tag_336\n        /* \"#utility.yul\":11883:11888   */\n      dup2\n        /* \"#utility.yul\":11856:11889   */\n      tag_170\n      jump\t// in\n    tag_336:\n        /* \"#utility.yul\":11752:11895   */\n      swap3\n      swap2\n      pop\n      pop\n      jump\t// out\n        /* \"#utility.yul\":11901:12252   */\n    tag_70:\n        /* \"#utility.yul\":11971:11977   */\n      0x00\n        /* \"#utility.yul\":12020:12022   */\n      0x20\n        /* \"#utility.yul\":12008:12017   */\n      dup3\n        /* \"#utility.yul\":11999:12006   */\n      dup5\n        /* \"#utility.yul\":11995:12018   */\n      sub\n        /* \"#utility.yul\":11991:12023   */\n      slt\n        /* \"#utility.yul\":11988:12107   */\n      iszero\n      tag_338\n      jumpi\n        /* \"#utility.yul\":12026:12105   */\n      tag_339\n      tag_167\n      jump\t// in\n    tag_339:\n        /* \"#utility.yul\":11988:12107   */\n    tag_338:\n        /* \"#utility.yul\":12146:12147   */\n      0x00\n        /* \"#utility.yul\":12171:12235   */\n      tag_340\n        /* \"#utility.yul\":12227:12234   */\n      dup5\n        /* \"#utility.yul\":12218:12224   */\n      dup3\n        /* \"#utility.yul\":12207:12216   */\n      dup6\n        /* \"#utility.yul\":12203:12225   */\n      add\n        /* \"#utility.yul\":12171:12235   */\n      tag_200\n      jump\t// in\n    tag_340:\n        /* \"#utility.yul\":12161:12235   */\n      swap2\n      pop\n        /* \"#utility.yul\":12117:12245   */\n      pop\n        /* \"#utility.yul\":11901:12252   */\n      swap3\n      swap2\n      pop\n      pop\n      jump\t// out\n        /* \"#utility.yul\":12258:12428   */\n    tag_201:\n        /* \"#utility.yul\":12398:12420   */\n      0x496e73756666696369656e742062616c616e6365000000000000000000000000\n        /* \"#utility.yul\":12394:12395   */\n      0x00\n        /* \"#utility.yul\":12386:12392   */\n      dup3\n        /* \"#utility.yul\":12382:12396   */\n      add\n        /* \"#utility.yul\":12375:12421   */\n      mstore\n        /* \"#utility.yul\":12258:12428   */\n      pop\n      jump\t// out\n        /* \"#utility.yul\":12434:12800   */\n    tag_202:\n        /* \"#utility.yul\":12576:12579   */\n      0x00\n        /* \"#utility.yul\":12597:12664   */\n      tag_343\n        /* \"#utility.yul\":12661:12663   */\n      0x14\n        /* \"#utility.yul\":12656:12659   */\n      dup4\n        /* \"#utility.yul\":12597:12664   */\n      tag_197\n      jump\t// in\n    tag_343:\n        /* \"#utility.yul\":12590:12664   */\n      swap2\n      pop\n        /* \"#utility.yul\":12673:12766   */\n      tag_344\n        /* \"#utility.yul\":12762:12765   */\n      dup3\n        /* \"#utility.yul\":12673:12766   */\n      tag_201\n      jump\t// in\n    tag_344:\n        /* \"#utility.yul\":12791:12793   */\n      0x20\n        /* \"#utility.yul\":12786:12789   */\n      dup3\n        /* \"#utility.yul\":12782:12794   */\n      add\n        /* \"#utility.yul\":12775:12794   */\n      swap1\n      pop\n        /* \"#utility.yul\":12434:12800   */\n      swap2\n      swap1\n      pop\n      jump\t// out\n        /* \"#utility.yul\":12806:13225   */\n    tag_73:\n        /* \"#utility.yul\":12972:12976   */\n      0x00\n        /* \"#utility.yul\":13010:13012   */\n      0x20\n        /* \"#utility.yul\":12999:13008   */\n      dup3\n        /* \"#utility.yul\":12995:13013   */\n      add\n        /* \"#utility.yul\":12987:13013   */\n      swap1\n      pop\n        /* \"#utility.yul\":13059:13068   */\n      dup2\n        /* \"#utility.yul\":13053:13057   */\n      dup2\n        /* \"#utility.yul\":13049:13069   */\n      sub\n        /* \"#utility.yul\":13045:13046   */\n      0x00\n        /* \"#utility.yul\":13034:13043   */\n      dup4\n        /* \"#utility.yul\":13030:13047   */\n      add\n        /* \"#utility.yul\":13023:13070   */\n      mstore\n        /* \"#utility.yul\":13087:13218   */\n      tag_346\n        /* \"#utility.yul\":13213:13217   */\n      dup2\n        /* \"#utility.yul\":13087:13218   */\n      tag_202\n      jump\t// in\n    tag_346:\n        /* \"#utility.yul\":13079:13218   */\n      swap1\n      pop\n        /* \"#utility.yul\":12806:13225   */\n      swap2\n      swap1\n      pop\n      jump\t// out\n        /* \"#utility.yul\":13231:13673   */\n    tag_75:\n        /* \"#utility.yul\":13380:13384   */\n      0x00\n        /* \"#utility.yul\":13418:13420   */\n      0x60\n        /* \"#utility.yul\":13407:13416   */\n      dup3\n        /* \"#utility.yul\":13403:13421   */\n      add\n        /* \"#utility.yul\":13395:13421   */\n      swap1\n      pop\n        /* \"#utility.yul\":13431:13502   */\n      tag_348\n        /* \"#utility.yul\":13499:13500   */\n      0x00\n        /* \"#utility.yul\":13488:13497   */\n      dup4\n        /* \"#utility.yul\":13484:13501   */\n      add\n        /* \"#utility.yul\":13475:13481   */\n      dup7\n        /* \"#utility.yul\":13431:13502   */\n      tag_194\n      jump\t// in\n    tag_348:\n        /* \"#utility.yul\":13512:13584   */\n      tag_349\n        /* \"#utility.yul\":13580:13582   */\n      0x20\n        /* \"#utility.yul\":13569:13578   */\n      dup4\n        /* \"#utility.yul\":13565:13583   */\n      add\n        /* \"#utility.yul\":13556:13562   */\n      dup6\n        /* \"#utility.yul\":13512:13584   */\n      tag_194\n      jump\t// in\n    tag_349:\n        /* \"#utility.yul\":13594:13666   */\n      tag_350\n        /* \"#utility.yul\":13662:13664   */\n      0x40\n        /* \"#utility.yul\":13651:13660   */\n      dup4\n        /* \"#utility.yul\":13647:13665   */\n      add\n        /* \"#utility.yul\":13638:13644   */\n      dup5\n        /* \"#utility.yul\":13594:13666   */\n      tag_174\n      jump\t// in\n    tag_350:\n        /* \"#utility.yul\":13231:13673   */\n      swap5\n      swap4\n      pop\n      pop\n      pop\n      pop\n      jump\t// out\n        /* \"#utility.yul\":13679:13795   */\n    tag_203:\n        /* \"#utility.yul\":13749:13770   */\n      tag_352\n        /* \"#utility.yul\":13764:13769   */\n      dup2\n        /* \"#utility.yul\":13749:13770   */\n      tag_188\n      jump\t// in\n    tag_352:\n        /* \"#utility.yul\":13742:13747   */\n      dup2\n        /* \"#utility.yul\":13739:13771   */\n      eq\n        /* \"#utility.yul\":13729:13789   */\n      tag_353\n      jumpi\n        /* \"#utility.yul\":13785:13786   */\n      0x00\n        /* \"#utility.yul\":13782:13783   */\n      0x00\n        /* \"#utility.yul\":13775:13787   */\n      revert\n        /* \"#utility.yul\":13729:13789   */\n    tag_353:\n        /* \"#utility.yul\":13679:13795   */\n      pop\n      jump\t// out\n        /* \"#utility.yul\":13801:13938   */\n    tag_204:\n        /* \"#utility.yul\":13855:13860   */\n      0x00\n        /* \"#utility.yul\":13886:13892   */\n      dup2\n        /* \"#utility.yul\":13880:13893   */\n      mload\n        /* \"#utility.yul\":13871:13893   */\n      swap1\n      pop\n        /* \"#utility.yul\":13902:13932   */\n      tag_355\n        /* \"#utility.yul\":13926:13931   */\n      dup2\n        /* \"#utility.yul\":13902:13932   */\n      tag_203\n      jump\t// in\n    tag_355:\n        /* \"#utility.yul\":13801:13938   */\n      swap3\n      swap2\n      pop\n      pop\n      jump\t// out\n        /* \"#utility.yul\":13944:14289   */\n    tag_79:\n        /* \"#utility.yul\":14011:14017   */\n      0x00\n        /* \"#utility.yul\":14060:14062   */\n      0x20\n        /* \"#utility.yul\":14048:14057   */\n      dup3\n        /* \"#utility.yul\":14039:14046   */\n      dup5\n        /* \"#utility.yul\":14035:14058   */\n      sub\n        /* \"#utility.yul\":14031:14063   */\n      slt\n        /* \"#utility.yul\":14028:14147   */\n      iszero\n      tag_357\n      jumpi\n        /* \"#utility.yul\":14066:14145   */\n      tag_358\n      tag_167\n      jump\t// in\n    tag_358:\n        /* \"#utility.yul\":14028:14147   */\n    tag_357:\n        /* \"#utility.yul\":14186:14187   */\n      0x00\n        /* \"#utility.yul\":14211:14272   */\n      tag_359\n        /* \"#utility.yul\":14264:14271   */\n      dup5\n        /* \"#utility.yul\":14255:14261   */\n      dup3\n        /* \"#utility.yul\":14244:14253   */\n      dup6\n        /* \"#utility.yul\":14240:14262   */\n      add\n        /* \"#utility.yul\":14211:14272   */\n      tag_204\n      jump\t// in\n    tag_359:\n        /* \"#utility.yul\":14201:14272   */\n      swap2\n      pop\n        /* \"#utility.yul\":14157:14282   */\n      pop\n        /* \"#utility.yul\":13944:14289   */\n      swap3\n      swap2\n      pop\n      pop\n      jump\t// out\n        /* \"#utility.yul\":14295:14469   */\n    tag_205:\n        /* \"#utility.yul\":14435:14461   */\n      0x5374616b696e673a205472616e73666572206661696c65640000000000000000\n        /* \"#utility.yul\":14431:14432   */\n      0x00\n        /* \"#utility.yul\":14423:14429   */\n      dup3\n        /* \"#utility.yul\":14419:14433   */\n      add\n        /* \"#utility.yul\":14412:14462   */\n      mstore\n        /* \"#utility.yul\":14295:14469   */\n      pop\n      jump\t// out\n        /* \"#utility.yul\":14475:14841   */\n    tag_206:\n        /* \"#utility.yul\":14617:14620   */\n      0x00\n        /* \"#utility.yul\":14638:14705   */\n      tag_362\n        /* \"#utility.yul\":14702:14704   */\n      0x18\n        /* \"#utility.yul\":14697:14700   */\n      dup4\n        /* \"#utility.yul\":14638:14705   */\n      tag_197\n      jump\t// in\n    tag_362:\n        /* \"#utility.yul\":14631:14705   */\n      swap2\n      pop\n        /* \"#utility.yul\":14714:14807   */\n      tag_363\n        /* \"#utility.yul\":14803:14806   */\n      dup3\n        /* \"#utility.yul\":14714:14807   */\n      tag_205\n      jump\t// in\n    tag_363:\n        /* \"#utility.yul\":14832:14834   */\n      0x20\n        /* \"#utility.yul\":14827:14830   */\n      dup3\n        /* \"#utility.yul\":14823:14835   */\n      add\n        /* \"#utility.yul\":14816:14835   */\n      swap1\n      pop\n        /* \"#utility.yul\":14475:14841   */\n      swap2\n      swap1\n      pop\n      jump\t// out\n        /* \"#utility.yul\":14847:15266   */\n    tag_82:\n        /* \"#utility.yul\":15013:15017   */\n      0x00\n        /* \"#utility.yul\":15051:15053   */\n      0x20\n        /* \"#utility.yul\":15040:15049   */\n      dup3\n        /* \"#utility.yul\":15036:15054   */\n      add\n        /* \"#utility.yul\":15028:15054   */\n      swap1\n      pop\n        /* \"#utility.yul\":15100:15109   */\n      dup2\n        /* \"#utility.yul\":15094:15098   */\n      dup2\n        /* \"#utility.yul\":15090:15110   */\n      sub\n        /* \"#utility.yul\":15086:15087   */\n      0x00\n        /* \"#utility.yul\":15075:15084   */\n      dup4\n        /* \"#utility.yul\":15071:15088   */\n      add\n        /* \"#utility.yul\":15064:15111   */\n      mstore\n        /* \"#utility.yul\":15128:15259   */\n      tag_365\n        /* \"#utility.yul\":15254:15258   */\n      dup2\n        /* \"#utility.yul\":15128:15259   */\n      tag_206\n      jump\t// in\n    tag_365:\n        /* \"#utility.yul\":15120:15259   */\n      swap1\n      pop\n        /* \"#utility.yul\":14847:15266   */\n      swap2\n      swap1\n      pop\n      jump\t// out\n        /* \"#utility.yul\":15272:15463   */\n    tag_86:\n        /* \"#utility.yul\":15312:15315   */\n      0x00\n        /* \"#utility.yul\":15331:15351   */\n      tag_367\n        /* \"#utility.yul\":15349:15350   */\n      dup3\n        /* \"#utility.yul\":15331:15351   */\n      tag_169\n      jump\t// in\n    tag_367:\n        /* \"#utility.yul\":15326:15351   */\n      swap2\n      pop\n        /* \"#utility.yul\":15365:15385   */\n      tag_368\n        /* \"#utility.yul\":15383:15384   */\n      dup4\n        /* \"#utility.yul\":15365:15385   */\n      tag_169\n      jump\t// in\n    tag_368:\n        /* \"#utility.yul\":15360:15385   */\n      swap3\n      pop\n        /* \"#utility.yul\":15408:15409   */\n      dup3\n        /* \"#utility.yul\":15405:15406   */\n      dup3\n        /* \"#utility.yul\":15401:15410   */\n      add\n        /* \"#utility.yul\":15394:15410   */\n      swap1\n      pop\n        /* \"#utility.yul\":15429:15432   */\n      dup1\n        /* \"#utility.yul\":15426:15427   */\n      dup3\n        /* \"#utility.yul\":15423:15433   */\n      gt\n        /* \"#utility.yul\":15420:15456   */\n      iszero\n      tag_369\n      jumpi\n        /* \"#utility.yul\":15436:15454   */\n      tag_370\n      tag_196\n      jump\t// in\n    tag_370:\n        /* \"#utility.yul\":15420:15456   */\n    tag_369:\n        /* \"#utility.yul\":15272:15463   */\n      swap3\n      swap2\n      pop\n      pop\n      jump\t// out\n        /* \"#utility.yul\":15469:15702   */\n    tag_88:\n        /* \"#utility.yul\":15508:15511   */\n      0x00\n        /* \"#utility.yul\":15531:15555   */\n      tag_372\n        /* \"#utility.yul\":15549:15554   */\n      dup3\n        /* \"#utility.yul\":15531:15555   */\n      tag_169\n      jump\t// in\n    tag_372:\n        /* \"#utility.yul\":15522:15555   */\n      swap2\n      pop\n        /* \"#utility.yul\":15577:15643   */\n      0xffffffffffffffffffffffffffffffffffffffffffffffffffffffffffffffff\n        /* \"#utility.yul\":15570:15575   */\n      dup3\n        /* \"#utility.yul\":15567:15644   */\n      sub\n        /* \"#utility.yul\":15564:15667   */\n      tag_373\n      jumpi\n        /* \"#utility.yul\":15647:15665   */\n      tag_374\n      tag_196\n      jump\t// in\n    tag_374:\n        /* \"#utility.yul\":15564:15667   */\n    tag_373:\n        /* \"#utility.yul\":15694:15695   */\n      0x01\n        /* \"#utility.yul\":15687:15692   */\n      dup3\n        /* \"#utility.yul\":15683:15696   */\n      add\n        /* \"#utility.yul\":15676:15696   */\n      swap1\n      pop\n        /* \"#utility.yul\":15469:15702   */\n      swap2\n      swap1\n      pop\n      jump\t// out\n        /* \"#utility.yul\":15708:15888   */\n    tag_91:\n        /* \"#utility.yul\":15756:15833   */\n      0x4e487b7100000000000000000000000000000000000000000000000000000000\n        /* \"#utility.yul\":15753:15754   */\n      0x00\n        /* \"#utility.yul\":15746:15834   */\n      mstore\n        /* \"#utility.yul\":15853:15857   */\n      0x21\n        /* \"#utility.yul\":15850:15851   */\n      0x04\n        /* \"#utility.yul\":15843:15858   */\n      mstore\n        /* \"#utility.yul\":15877:15881   */\n      0x24\n        /* \"#utility.yul\":15874:15875   */\n      0x00\n        /* \"#utility.yul\":15867:15882   */\n      revert\n        /* \"#utility.yul\":15894:16074   */\n    tag_207:\n        /* \"#utility.yul\":15942:16019   */\n      0x4e487b7100000000000000000000000000000000000000000000000000000000\n        /* \"#utility.yul\":15939:15940   */\n      0x00\n        /* \"#utility.yul\":15932:16020   */\n      mstore\n        /* \"#utility.yul\":16039:16043   */\n      0x12\n        /* \"#utility.yul\":16036:16037   */\n      0x04\n        /* \"#utility.yul\":16029:16044   */\n      mstore\n        /* \"#utility.yul\":16063:16067   */\n      0x24\n        /* \"#utility.yul\":16060:16061   */\n      0x00\n        /* \"#utility.yul\":16053:16068   */\n      revert\n        /* \"#utility.yul\":16080:16265   */\n    tag_97:\n        /* \"#utility.yul\":16120:16121   */\n      0x00\n        /* \"#utility.yul\":16137:16157   */\n      tag_378\n        /* \"#utility.yul\":16155:16156   */\n      dup3\n        /* \"#utility.yul\":16137:16157   */\n      tag_169\n      jump\t// in\n    tag_378:\n        /* \"#utility.yul\":16132:16157   */\n      swap2\n      pop\n        /* \"#utility.yul\":16171:16191   */\n      tag_379\n        /* \"#utility.yul\":16189:16190   */\n      dup4\n        /* \"#utility.yul\":16171:16191   */\n      tag_169\n      jump\t// in\n    tag_379:\n        /* \"#utility.yul\":16166:16191   */\n      swap3\n      pop\n        /* \"#utility.yul\":16210:16211   */\n      dup3\n        /* \"#utility.yul\":16200:16235   */\n      tag_380\n      jumpi\n        /* \"#utility.yul\":16215:16233   */\n      tag_381\n      tag_207\n      jump\t// in\n    tag_381:\n        /* \"#utility.yul\":16200:16235   */\n    tag_380:\n        /* \"#utility.yul\":16257:16258   */\n      dup3\n        /* \"#utility.yul\":16254:16255   */\n      dup3\n        /* \"#utility.yul\":16250:16259   */\n      div\n        /* \"#utility.yul\":16245:16259   */\n      swap1\n      pop\n        /* \"#utility.yul\":16080:16265   */\n      swap3\n      swap2\n      pop\n      pop\n      jump\t// out\n        /* \"#utility.yul\":16271:16393   */\n    tag_208:\n        /* \"#utility.yul\":16361:16362   */\n      0x04\n        /* \"#utility.yul\":16354:16359   */\n      dup2\n        /* \"#utility.yul\":16351:16363   */\n      lt\n        /* \"#utility.yul\":16341:16387   */\n      tag_383\n      jumpi\n        /* \"#utility.yul\":16367:16385   */\n      tag_384\n      tag_91\n      jump\t// in\n    tag_384:\n        /* \"#utility.yul\":16341:16387   */\n    tag_383:\n        /* \"#utility.yul\":16271:16393   */\n      pop\n      jump\t// out\n        /* \"#utility.yul\":16399:16544   */\n    tag_209:\n        /* \"#utility.yul\":16453:16460   */\n      0x00\n        /* \"#utility.yul\":16482:16487   */\n      dup2\n        /* \"#utility.yul\":16471:16487   */\n      swap1\n      pop\n        /* \"#utility.yul\":16488:16538   */\n      tag_386\n        /* \"#utility.yul\":16532:16537   */\n      dup3\n        /* \"#utility.yul\":16488:16538   */\n      tag_208\n      jump\t// in\n    tag_386:\n        /* \"#utility.yul\":16399:16544   */\n      swap2\n      swap1\n      pop\n      jump\t// out\n        /* \"#utility.yul\":16550:16695   */\n    tag_210:\n        /* \"#utility.yul\":16615:16624   */\n      0x00\n        /* \"#utility.yul\":16648:16689   */\n      tag_388\n        /* \"#utility.yul\":16683:16688   */\n      dup3\n        /* \"#utility.yul\":16648:16689   */\n      tag_209\n      jump\t// in\n    tag_388:\n        /* \"#utility.yul\":16635:16689   */\n      swap1\n      pop\n        /* \"#utility.yul\":16550:16695   */\n      swap2\n      swap1\n      pop\n      jump\t// out\n        /* \"#utility.yul\":16701:16862   */\n    tag_211:\n        /* \"#utility.yul\":16803:16855   */\n      tag_390\n        /* \"#utility.yul\":16849:16854   */\n      dup2\n        /* \"#utility.yul\":16803:16855   */\n      tag_210\n      jump\t// in\n    tag_390:\n        /* \"#utility.yul\":16798:16801   */\n      dup3\n        /* \"#utility.yul\":16791:16856   */\n      mstore\n        /* \"#utility.yul\":16701:16862   */\n      pop\n      pop\n      jump\t// out\n        /* \"#utility.yul\":16868:17451   */\n    tag_99:\n        /* \"#utility.yul\":17060:17064   */\n      0x00\n        /* \"#utility.yul\":17098:17101   */\n      0x80\n        /* \"#utility.yul\":17087:17096   */\n      dup3\n        /* \"#utility.yul\":17083:17102   */\n      add\n        /* \"#utility.yul\":17075:17102   */\n      swap1\n      pop\n        /* \"#utility.yul\":17112:17183   */\n      tag_392\n        /* \"#utility.yul\":17180:17181   */\n      0x00\n        /* \"#utility.yul\":17169:17178   */\n      dup4\n        /* \"#utility.yul\":17165:17182   */\n      add\n        /* \"#utility.yul\":17156:17162   */\n      dup8\n        /* \"#utility.yul\":17112:17183   */\n      tag_174\n      jump\t// in\n    tag_392:\n        /* \"#utility.yul\":17193:17280   */\n      tag_393\n        /* \"#utility.yul\":17276:17278   */\n      0x20\n        /* \"#utility.yul\":17265:17274   */\n      dup4\n        /* \"#utility.yul\":17261:17279   */\n      add\n        /* \"#utility.yul\":17252:17258   */\n      dup7\n        /* \"#utility.yul\":17193:17280   */\n      tag_211\n      jump\t// in\n    tag_393:\n        /* \"#utility.yul\":17290:17362   */\n      tag_394\n        /* \"#utility.yul\":17358:17360   */\n      0x40\n        /* \"#utility.yul\":17347:17356   */\n      dup4\n        /* \"#utility.yul\":17343:17361   */\n      add\n        /* \"#utility.yul\":17334:17340   */\n      dup6\n        /* \"#utility.yul\":17290:17362   */\n      tag_174\n      jump\t// in\n    tag_394:\n        /* \"#utility.yul\":17372:17444   */\n      tag_395\n        /* \"#utility.yul\":17440:17442   */\n      0x60\n        /* \"#utility.yul\":17429:17438   */\n      dup4\n        /* \"#utility.yul\":17425:17443   */\n      add\n        /* \"#utility.yul\":17416:17422   */\n      dup5\n        /* \"#utility.yul\":17372:17444   */\n      tag_174\n      jump\t// in\n    tag_395:\n        /* \"#utility.yul\":16868:17451   */\n      swap6\n      swap5\n      pop\n      pop\n      pop\n      pop\n      pop\n      jump\t// out\n        /* \"#utility.yul\":17457:17679   */\n    tag_212:\n        /* \"#utility.yul\":17597:17631   */\n      0x596f7520617265206e6f7420746865206f776e6572206f662074686973207374\n        /* \"#utility.yul\":17593:17594   */\n      0x00\n        /* \"#utility.yul\":17585:17591   */\n      dup3\n        /* \"#utility.yul\":17581:17595   */\n      add\n        /* \"#utility.yul\":17574:17632   */\n      mstore\n        /* \"#utility.yul\":17666:17671   */\n      0x616b650000000000000000000000000000000000000000000000000000000000\n        /* \"#utility.yul\":17661:17663   */\n      0x20\n        /* \"#utility.yul\":17653:17659   */\n      dup3\n        /* \"#utility.yul\":17649:17664   */\n      add\n        /* \"#utility.yul\":17642:17672   */\n      mstore\n        /* \"#utility.yul\":17457:17679   */\n      pop\n      jump\t// out\n        /* \"#utility.yul\":17685:18051   */\n    tag_213:\n        /* \"#utility.yul\":17827:17830   */\n      0x00\n        /* \"#utility.yul\":17848:17915   */\n      tag_398\n        /* \"#utility.yul\":17912:17914   */\n      0x23\n        /* \"#utility.yul\":17907:17910   */\n      dup4\n        /* \"#utility.yul\":17848:17915   */\n      tag_197\n      jump\t// in\n    tag_398:\n        /* \"#utility.yul\":17841:17915   */\n      swap2\n      pop\n        /* \"#utility.yul\":17924:18017   */\n      tag_399\n        /* \"#utility.yul\":18013:18016   */\n      dup3\n        /* \"#utility.yul\":17924:18017   */\n      tag_212\n      jump\t// in\n    tag_399:\n        /* \"#utility.yul\":18042:18044   */\n      0x40\n        /* \"#utility.yul\":18037:18040   */\n      dup3\n        /* \"#utility.yul\":18033:18045   */\n      add\n        /* \"#utility.yul\":18026:18045   */\n      swap1\n      pop\n        /* \"#utility.yul\":17685:18051   */\n      swap2\n      swap1\n      pop\n      jump\t// out\n        /* \"#utility.yul\":18057:18476   */\n    tag_105:\n        /* \"#utility.yul\":18223:18227   */\n      0x00\n        /* \"#utility.yul\":18261:18263   */\n      0x20\n        /* \"#utility.yul\":18250:18259   */\n      dup3\n        /* \"#utility.yul\":18246:18264   */\n      add\n        /* \"#utility.yul\":18238:18264   */\n      swap1\n      pop\n        /* \"#utility.yul\":18310:18319   */\n      dup2\n        /* \"#utility.yul\":18304:18308   */\n      dup2\n        /* \"#utility.yul\":18300:18320   */\n      sub\n        /* \"#utility.yul\":18296:18297   */\n      0x00\n        /* \"#utility.yul\":18285:18294   */\n      dup4\n        /* \"#utility.yul\":18281:18298   */\n      add\n        /* \"#utility.yul\":18274:18321   */\n      mstore\n        /* \"#utility.yul\":18338:18469   */\n      tag_401\n        /* \"#utility.yul\":18464:18468   */\n      dup2\n        /* \"#utility.yul\":18338:18469   */\n      tag_213\n      jump\t// in\n    tag_401:\n        /* \"#utility.yul\":18330:18469   */\n      swap1\n      pop\n        /* \"#utility.yul\":18057:18476   */\n      swap2\n      swap1\n      pop\n      jump\t// out\n        /* \"#utility.yul\":18482:18709   */\n    tag_214:\n        /* \"#utility.yul\":18622:18656   */\n      0x5374616b65206973206e6f7420616374697665206f7220616c72656164792077\n        /* \"#utility.yul\":18618:18619   */\n      0x00\n        /* \"#utility.yul\":18610:18616   */\n      dup3\n        /* \"#utility.yul\":18606:18620   */\n      add\n        /* \"#utility.yul\":18599:18657   */\n      mstore\n        /* \"#utility.yul\":18691:18701   */\n      0x697468647261776e000000000000000000000000000000000000000000000000\n        /* \"#utility.yul\":18686:18688   */\n      0x20\n        /* \"#utility.yul\":18678:18684   */\n      dup3\n        /* \"#utility.yul\":18674:18689   */\n      add\n        /* \"#utility.yul\":18667:18702   */\n      mstore\n        /* \"#utility.yul\":18482:18709   */\n      pop\n      jump\t// out\n        /* \"#utility.yul\":18715:19081   */\n    tag_215:\n        /* \"#utility.yul\":18857:18860   */\n      0x00\n        /* \"#utility.yul\":18878:18945   */\n      tag_404\n        /* \"#utility.yul\":18942:18944   */\n      0x28\n        /* \"#utility.yul\":18937:18940   */\n      dup4\n        /* \"#utility.yul\":18878:18945   */\n      tag_197\n      jump\t// in\n    tag_404:\n        /* \"#utility.yul\":18871:18945   */\n      swap2\n      pop\n        /* \"#utility.yul\":18954:19047   */\n      tag_405\n        /* \"#utility.yul\":19043:19046   */\n      dup3\n        /* \"#utility.yul\":18954:19047   */\n      tag_214\n      jump\t// in\n    tag_405:\n        /* \"#utility.yul\":19072:19074   */\n      0x40\n        /* \"#utility.yul\":19067:19070   */\n      dup3\n        /* \"#utility.yul\":19063:19075   */\n      add\n        /* \"#utility.yul\":19056:19075   */\n      swap1\n      pop\n        /* \"#utility.yul\":18715:19081   */\n      swap2\n      swap1\n      pop\n      jump\t// out\n        /* \"#utility.yul\":19087:19506   */\n    tag_108:\n        /* \"#utility.yul\":19253:19257   */\n      0x00\n        /* \"#utility.yul\":19291:19293   */\n      0x20\n        /* \"#utility.yul\":19280:19289   */\n      dup3\n        /* \"#utility.yul\":19276:19294   */\n      add\n        /* \"#utility.yul\":19268:19294   */\n      swap1\n      pop\n        /* \"#utility.yul\":19340:19349   */\n      dup2\n        /* \"#utility.yul\":19334:19338   */\n      dup2\n        /* \"#utility.yul\":19330:19350   */\n      sub\n        /* \"#utility.yul\":19326:19327   */\n      0x00\n        /* \"#utility.yul\":19315:19324   */\n      dup4\n        /* \"#utility.yul\":19311:19328   */\n      add\n        /* \"#utility.yul\":19304:19351   */\n      mstore\n        /* \"#utility.yul\":19368:19499   */\n      tag_407\n        /* \"#utility.yul\":19494:19498   */\n      dup2\n        /* \"#utility.yul\":19368:19499   */\n      tag_215\n      jump\t// in\n    tag_407:\n        /* \"#utility.yul\":19360:19499   */\n      swap1\n      pop\n        /* \"#utility.yul\":19087:19506   */\n      swap2\n      swap1\n      pop\n      jump\t// out\n        /* \"#utility.yul\":19512:19687   */\n    tag_216:\n        /* \"#utility.yul\":19652:19679   */\n      0x5374616b6520706572696f64206973206e6f7420656e64656400000000000000\n        /* \"#utility.yul\":19648:19649   */\n      0x00\n        /* \"#utility.yul\":19640:19646   */\n      dup3\n        /* \"#utility.yul\":19636:19650   */\n      add\n        /* \"#utility.yul\":19629:19680   */\n      mstore\n        /* \"#utility.yul\":19512:19687   */\n      pop\n      jump\t// out\n        /* \"#utility.yul\":19693:20059   */\n    tag_217:\n        /* \"#utility.yul\":19835:19838   */\n      0x00\n        /* \"#utility.yul\":19856:19923   */\n      tag_410\n        /* \"#utility.yul\":19920:19922   */\n      0x19\n        /* \"#utility.yul\":19915:19918   */\n      dup4\n        /* \"#utility.yul\":19856:19923   */\n      tag_197\n      jump\t// in\n    tag_410:\n        /* \"#utility.yul\":19849:19923   */\n      swap2\n      pop\n        /* \"#utility.yul\":19932:20025   */\n      tag_411\n        /* \"#utility.yul\":20021:20024   */\n      dup3\n        /* \"#utility.yul\":19932:20025   */\n      tag_216\n      jump\t// in\n    tag_411:\n        /* \"#utility.yul\":20050:20052   */\n      0x20\n        /* \"#utility.yul\":20045:20048   */\n      dup3\n        /* \"#utility.yul\":20041:20053   */\n      add\n        /* \"#utility.yul\":20034:20053   */\n      swap1\n      pop\n        /* \"#utility.yul\":19693:20059   */\n      swap2\n      swap1\n      pop\n      jump\t// out\n        /* \"#utility.yul\":20065:20484   */\n    tag_111:\n        /* \"#utility.yul\":20231:20235   */\n      0x00\n        /* \"#utility.yul\":20269:20271   */\n      0x20\n        /* \"#utility.yul\":20258:20267   */\n      dup3\n        /* \"#utility.yul\":20254:20272   */\n      add\n        /* \"#utility.yul\":20246:20272   */\n      swap1\n      pop\n        /* \"#utility.yul\":20318:20327   */\n      dup2\n        /* \"#utility.yul\":20312:20316   */\n      dup2\n        /* \"#utility.yul\":20308:20328   */\n      sub\n        /* \"#utility.yul\":20304:20305   */\n      0x00\n        /* \"#utility.yul\":20293:20302   */\n      dup4\n        /* \"#utility.yul\":20289:20306   */\n      add\n        /* \"#utility.yul\":20282:20329   */\n      mstore\n        /* \"#utility.yul\":20346:20477   */\n      tag_413\n        /* \"#utility.yul\":20472:20476   */\n      dup2\n        /* \"#utility.yul\":20346:20477   */\n      tag_217\n      jump\t// in\n    tag_413:\n        /* \"#utility.yul\":20338:20477   */\n      swap1\n      pop\n        /* \"#utility.yul\":20065:20484   */\n      swap2\n      swap1\n      pop\n      jump\t// out\n        /* \"#utility.yul\":20490:20822   */\n    tag_117:\n        /* \"#utility.yul\":20611:20615   */\n      0x00\n        /* \"#utility.yul\":20649:20651   */\n      0x40\n        /* \"#utility.yul\":20638:20647   */\n      dup3\n        /* \"#utility.yul\":20634:20652   */\n      add\n        /* \"#utility.yul\":20626:20652   */\n      swap1\n      pop\n        /* \"#utility.yul\":20662:20733   */\n      tag_415\n        /* \"#utility.yul\":20730:20731   */\n      0x00\n        /* \"#utility.yul\":20719:20728   */\n      dup4\n        /* \"#utility.yul\":20715:20732   */\n      add\n        /* \"#utility.yul\":20706:20712   */\n      dup6\n        /* \"#utility.yul\":20662:20733   */\n      tag_174\n      jump\t// in\n    tag_415:\n        /* \"#utility.yul\":20743:20815   */\n      tag_416\n        /* \"#utility.yul\":20811:20813   */\n      0x20\n        /* \"#utility.yul\":20800:20809   */\n      dup4\n        /* \"#utility.yul\":20796:20814   */\n      add\n        /* \"#utility.yul\":20787:20793   */\n      dup5\n        /* \"#utility.yul\":20743:20815   */\n      tag_174\n      jump\t// in\n    tag_416:\n        /* \"#utility.yul\":20490:20822   */\n      swap4\n      swap3\n      pop\n      pop\n      pop\n      jump\t// out\n        /* \"#utility.yul\":20828:21008   */\n    tag_123:\n        /* \"#utility.yul\":20876:20953   */\n      0x4e487b7100000000000000000000000000000000000000000000000000000000\n        /* \"#utility.yul\":20873:20874   */\n      0x00\n        /* \"#utility.yul\":20866:20954   */\n      mstore\n        /* \"#utility.yul\":20973:20977   */\n      0x41\n        /* \"#utility.yul\":20970:20971   */\n      0x04\n        /* \"#utility.yul\":20963:20978   */\n      mstore\n        /* \"#utility.yul\":20997:21001   */\n      0x24\n        /* \"#utility.yul\":20994:20995   */\n      0x00\n        /* \"#utility.yul\":20987:21002   */\n      revert\n        /* \"#utility.yul\":21014:21194   */\n    tag_133:\n        /* \"#utility.yul\":21062:21139   */\n      0x4e487b7100000000000000000000000000000000000000000000000000000000\n        /* \"#utility.yul\":21059:21060   */\n      0x00\n        /* \"#utility.yul\":21052:21140   */\n      mstore\n        /* \"#utility.yul\":21159:21163   */\n      0x32\n        /* \"#utility.yul\":21156:21157   */\n      0x04\n        /* \"#utility.yul\":21149:21164   */\n      mstore\n        /* \"#utility.yul\":21183:21187   */\n      0x24\n        /* \"#utility.yul\":21180:21181   */\n      0x00\n        /* \"#utility.yul\":21173:21188   */\n      revert\n\n    auxdata: 0xa264697066735822122075371232a393c6800b7b59f89786fee6b966f60dbcae23b8d33b84098a0ff9e264736f6c634300081e0033\n}\n",
				"bytecode": {
					"linkReferences": {},
					"object": "608060405234801561000f575f5ffd5b50604051611a10380380611a10833981810160405281019061003191906101d3565b805f5f6101000a81548173ffffffffffffffffffffffffffffffffffffffff021916908373ffffffffffffffffffffffffffffffffffffffff160217905550600a60015f5f6003811115610088576100876101fe565b5b600381111561009a576100996101fe565b5b81526020019081526020015f2081905550600f60015f600160038111156100c4576100c36101fe565b5b60038111156100d6576100d56101fe565b5b81526020019081526020015f2081905550601460015f60026003811115610100576100ff6101fe565b5b6003811115610112576101116101fe565b5b81526020019081526020015f2081905550601960015f60038081111561013b5761013a6101fe565b5b600381111561014d5761014c6101fe565b5b81526020019081526020015f20819055505061022b565b5f5ffd5b5f73ffffffffffffffffffffffffffffffffffffffff82169050919050565b5f61019182610168565b9050919050565b5f6101a282610187565b9050919050565b6101b281610198565b81146101bc575f5ffd5b50565b5f815190506101cd816101a9565b92915050565b5f602082840312156101e8576101e7610164565b5b5f6101f5848285016101bf565b91505092915050565b7f4e487b71000000000000000000000000000000000000000000000000000000005f52602160045260245ffd5b6117d8806102385f395ff3fe608060405234801561000f575f5ffd5b506004361061009c575f3560e01c8063762e54fc11610064578063762e54fc14610156578063a262ab3514610186578063a57a5304146101b6578063b5d5b5fa146101e6578063c4a9e1161461021b5761009c565b806310087fb1146100a05780631f1accb2146100bc5780632e1a7d4d146100ec5780634c86259e1461010857806372f702f314610138575b5f5ffd5b6100ba60048036038101906100b59190610d9e565b610239565b005b6100d660048036038101906100d19190610ddc565b6106e8565b6040516100e39190610e16565b60405180910390f35b61010660048036038101906101019190610e2f565b6106fd565b005b610122600480360381019061011d9190610e2f565b610939565b60405161012f9190610e16565b60405180910390f35b610140610959565b60405161014d9190610ed4565b60405180910390f35b610170600480360381019061016b9190610f28565b61097d565b60405161017d9190610e16565b60405180910390f35b6101a0600480360381019061019b9190610f28565b610992565b6040516101ad919061109d565b60405180910390f35b6101d060048036038101906101cb9190610e2f565b610b23565b6040516101dd91906110cc565b60405180910390f35b61020060048036038101906101fb91906110e5565b610b53565b60405161021296959493929190611132565b60405180910390f35b610223610ba2565b6040516102309190610e16565b60405180910390f35b5f670de0b6b3a76400008361024e91906111be565b90505f8311610292576040517f08c379a000000000000000000000000000000000000000000000000000000000815260040161028990611259565b60405180910390fd5b805f5f9054906101000a900473ffffffffffffffffffffffffffffffffffffffff1673ffffffffffffffffffffffffffffffffffffffff166370a08231336040518263ffffffff1660e01b81526004016102ec91906110cc565b602060405180830381865afa158015610307573d5f5f3e3d5ffd5b505050506040513d601f19601f8201168201806040525081019061032b919061128b565b101561036c576040517f08c379a000000000000000000000000000000000000000000000000000000000815260040161036390611300565b60405180910390fd5b5f5f9054906101000a900473ffffffffffffffffffffffffffffffffffffffff1673ffffffffffffffffffffffffffffffffffffffff166323b872dd3330866040518463ffffffff1660e01b81526004016103c99392919061131e565b6020604051808303815f875af11580156103e5573d5f5f3e3d5ffd5b505050506040513d601f19601f82011682018060405250810190610409919061137d565b610448576040517f08c379a000000000000000000000000000000000000000000000000000000000815260040161043f906113f2565b60405180910390fd5b5f61045283610ba8565b90505f816020015190505f825f015190505f4290505f83826104749190611410565b90505f60035f3373ffffffffffffffffffffffffffffffffffffffff1673ffffffffffffffffffffffffffffffffffffffff1681526020019081526020015f205f8154809291906104c490611443565b9190505590505f610168670de0b6b3a76400008660015f8d60038111156104ee576104ed61148a565b5b6003811115610500576104ff61148a565b5b81526020019081526020015f205461051891906111be565b61052291906111be565b61052c91906114e4565b90503373ffffffffffffffffffffffffffffffffffffffff167f022dd619ee0d92140e5abde105761d6df71c05c4fcb761610ea0552064f91e6c8b8b868660405161057a949392919061155a565b60405180910390a26040518060c001604052808b81526020018581526020018481526020018281526020016001151581526020018381525060025f3373ffffffffffffffffffffffffffffffffffffffff1673ffffffffffffffffffffffffffffffffffffffff1681526020019081526020015f205f8481526020019081526020015f205f820151815f01556020820151816001015560408201518160020155606082015181600301556080820151816004015f6101000a81548160ff02191690831515021790555060a082015181600501559050503360045f8481526020019081526020015f205f6101000a81548173ffffffffffffffffffffffffffffffffffffffff021916908373ffffffffffffffffffffffffffffffffffffffff160217905550600582908060018154018082558091505060019003905f5260205f20015f909190919091505560065f8154809291906106d790611443565b919050555050505050505050505050565b6001602052805f5260405f205f915090505481565b3373ffffffffffffffffffffffffffffffffffffffff1660045f8381526020019081526020015f205f9054906101000a900473ffffffffffffffffffffffffffffffffffffffff1673ffffffffffffffffffffffffffffffffffffffff161461079b576040517f08c379a00000000000000000000000000000000000000000000000000000000081526004016107929061160d565b60405180910390fd5b5f60025f3373ffffffffffffffffffffffffffffffffffffffff1673ffffffffffffffffffffffffffffffffffffffff1681526020019081526020015f205f8381526020019081526020015f209050806004015f9054906101000a900460ff1661083a576040517f08c379a00000000000000000000000000000000000000000000000000000000081526004016108319061169b565b60405180910390fd5b8060020154421015610881576040517f08c379a000000000000000000000000000000000000000000000000000000000815260040161087890611703565b60405180910390fd5b5f670de0b6b3a764000060648360030154845f01546108a091906111be565b6108aa91906114e4565b6108b491906114e4565b90505f81835f01546108c69190611410565b90505f836004015f6101000a81548160ff0219169083151502179055503373ffffffffffffffffffffffffffffffffffffffff167f92ccf450a286a957af52509bc1c9939d1a6a481783e142e41e2499f0bb66ebc6828660405161092b929190611721565b60405180910390a250505050565b60058181548110610948575f80fd5b905f5260205f20015f915090505481565b5f5f9054906101000a900473ffffffffffffffffffffffffffffffffffffffff1681565b6003602052805f5260405f205f915090505481565b60605f60065467ffffffffffffffff8111156109b1576109b0611748565b5b6040519080825280602002602001820160405280156109ea57816020015b6109d7610cfa565b8152602001906001900390816109cf5790505b5090505f5f90505f5f90505b600654811015610b18575f60058281548110610a1557610a14611775565b5b905f5260205f20015490505f60025f8873ffffffffffffffffffffffffffffffffffffffff1673ffffffffffffffffffffffffffffffffffffffff1681526020019081526020015f205f8381526020019081526020015f209050806004015f9054906101000a900460ff1615610b0957806040518060c00160405290815f8201548152602001600182015481526020016002820154815260200160038201548152602001600482015f9054906101000a900460ff16151515158152602001600582015481525050858581518110610aef57610aee611775565b5b60200260200101819052508380610b0590611443565b9450505b505080806001019150506109f6565b508192505050919050565b6004602052805f5260405f205f915054906101000a900473ffffffffffffffffffffffffffffffffffffffff1681565b6002602052815f5260405f20602052805f5260405f205f9150915050805f015490806001015490806002015490806003015490806004015f9054906101000a900460ff16908060050154905086565b60065481565b610bb0610d2c565b5f6003811115610bc357610bc261148a565b5b826003811115610bd657610bd561148a565b5b03610bf9576040518060400160405280601e8152602001603c8152509050610cf5565b60016003811115610c0d57610c0c61148a565b5b826003811115610c2057610c1f61148a565b5b03610c43576040518060400160405280605a815260200160b48152509050610cf5565b60026003811115610c5757610c5661148a565b5b826003811115610c6a57610c6961148a565b5b03610c8e57604051806040016040528060b4815260200161012c8152509050610cf5565b600380811115610ca157610ca061148a565b5b826003811115610cb457610cb361148a565b5b03610cd957604051806040016040528061016881526020016102588152509050610cf5565b60405180604001604052806101688152602001610e1081525090505b919050565b6040518060c001604052805f81526020015f81526020015f81526020015f81526020015f151581526020015f81525090565b60405180604001604052805f81526020015f81525090565b5f5ffd5b5f819050919050565b610d5a81610d48565b8114610d64575f5ffd5b50565b5f81359050610d7581610d51565b92915050565b60048110610d87575f5ffd5b50565b5f81359050610d9881610d7b565b92915050565b5f5f60408385031215610db457610db3610d44565b5b5f610dc185828601610d67565b9250506020610dd285828601610d8a565b9150509250929050565b5f60208284031215610df157610df0610d44565b5b5f610dfe84828501610d8a565b91505092915050565b610e1081610d48565b82525050565b5f602082019050610e295f830184610e07565b92915050565b5f60208284031215610e4457610e43610d44565b5b5f610e5184828501610d67565b91505092915050565b5f73ffffffffffffffffffffffffffffffffffffffff82169050919050565b5f819050919050565b5f610e9c610e97610e9284610e5a565b610e79565b610e5a565b9050919050565b5f610ead82610e82565b9050919050565b5f610ebe82610ea3565b9050919050565b610ece81610eb4565b82525050565b5f602082019050610ee75f830184610ec5565b92915050565b5f610ef782610e5a565b9050919050565b610f0781610eed565b8114610f11575f5ffd5b50565b5f81359050610f2281610efe565b92915050565b5f60208284031215610f3d57610f3c610d44565b5b5f610f4a84828501610f14565b91505092915050565b5f81519050919050565b5f82825260208201905092915050565b5f819050602082019050919050565b610f8581610d48565b82525050565b5f8115159050919050565b610f9f81610f8b565b82525050565b60c082015f820151610fb95f850182610f7c565b506020820151610fcc6020850182610f7c565b506040820151610fdf6040850182610f7c565b506060820151610ff26060850182610f7c565b5060808201516110056080850182610f96565b5060a082015161101860a0850182610f7c565b50505050565b5f6110298383610fa5565b60c08301905092915050565b5f602082019050919050565b5f61104b82610f53565b6110558185610f5d565b935061106083610f6d565b805f5b83811015611090578151611077888261101e565b975061108283611035565b925050600181019050611063565b5085935050505092915050565b5f6020820190508181035f8301526110b58184611041565b905092915050565b6110c681610eed565b82525050565b5f6020820190506110df5f8301846110bd565b92915050565b5f5f604083850312156110fb576110fa610d44565b5b5f61110885828601610f14565b925050602061111985828601610d67565b9150509250929050565b61112c81610f8b565b82525050565b5f60c0820190506111455f830189610e07565b6111526020830188610e07565b61115f6040830187610e07565b61116c6060830186610e07565b6111796080830185611123565b61118660a0830184610e07565b979650505050505050565b7f4e487b71000000000000000000000000000000000000000000000000000000005f52601160045260245ffd5b5f6111c882610d48565b91506111d383610d48565b92508282026111e181610d48565b915082820484148315176111f8576111f7611191565b5b5092915050565b5f82825260208201905092915050565b7f416d6f756e742073686f756c6420626520706f736974697665000000000000005f82015250565b5f6112436019836111ff565b915061124e8261120f565b602082019050919050565b5f6020820190508181035f83015261127081611237565b9050919050565b5f8151905061128581610d51565b92915050565b5f602082840312156112a05761129f610d44565b5b5f6112ad84828501611277565b91505092915050565b7f496e73756666696369656e742062616c616e63650000000000000000000000005f82015250565b5f6112ea6014836111ff565b91506112f5826112b6565b602082019050919050565b5f6020820190508181035f830152611317816112de565b9050919050565b5f6060820190506113315f8301866110bd565b61133e60208301856110bd565b61134b6040830184610e07565b949350505050565b61135c81610f8b565b8114611366575f5ffd5b50565b5f8151905061137781611353565b92915050565b5f6020828403121561139257611391610d44565b5b5f61139f84828501611369565b91505092915050565b7f5374616b696e673a205472616e73666572206661696c656400000000000000005f82015250565b5f6113dc6018836111ff565b91506113e7826113a8565b602082019050919050565b5f6020820190508181035f830152611409816113d0565b9050919050565b5f61141a82610d48565b915061142583610d48565b925082820190508082111561143d5761143c611191565b5b92915050565b5f61144d82610d48565b91507fffffffffffffffffffffffffffffffffffffffffffffffffffffffffffffffff820361147f5761147e611191565b5b600182019050919050565b7f4e487b71000000000000000000000000000000000000000000000000000000005f52602160045260245ffd5b7f4e487b71000000000000000000000000000000000000000000000000000000005f52601260045260245ffd5b5f6114ee82610d48565b91506114f983610d48565b925082611509576115086114b7565b5b828204905092915050565b600481106115255761152461148a565b5b50565b5f81905061153582611514565b919050565b5f61154482611528565b9050919050565b6115548161153a565b82525050565b5f60808201905061156d5f830187610e07565b61157a602083018661154b565b6115876040830185610e07565b6115946060830184610e07565b95945050505050565b7f596f7520617265206e6f7420746865206f776e6572206f6620746869732073745f8201527f616b650000000000000000000000000000000000000000000000000000000000602082015250565b5f6115f76023836111ff565b91506116028261159d565b604082019050919050565b5f6020820190508181035f830152611624816115eb565b9050919050565b7f5374616b65206973206e6f7420616374697665206f7220616c726561647920775f8201527f697468647261776e000000000000000000000000000000000000000000000000602082015250565b5f6116856028836111ff565b91506116908261162b565b604082019050919050565b5f6020820190508181035f8301526116b281611679565b9050919050565b7f5374616b6520706572696f64206973206e6f7420656e646564000000000000005f82015250565b5f6116ed6019836111ff565b91506116f8826116b9565b602082019050919050565b5f6020820190508181035f83015261171a816116e1565b9050919050565b5f6040820190506117345f830185610e07565b6117416020830184610e07565b9392505050565b7f4e487b71000000000000000000000000000000000000000000000000000000005f52604160045260245ffd5b7f4e487b71000000000000000000000000000000000000000000000000000000005f52603260045260245ffdfea264697066735822122075371232a393c6800b7b59f89786fee6b966f60dbcae23b8d33b84098a0ff9e264736f6c634300081e0033",
					"opcodes": "PUSH1 0x80 PUSH1 0x40 MSTORE CALLVALUE DUP1 ISZERO PUSH2 0xF JUMPI PUSH0 PUSH0 REVERT JUMPDEST POP PUSH1 0x40 MLOAD PUSH2 0x1A10 CODESIZE SUB DUP1 PUSH2 0x1A10 DUP4 CODECOPY DUP2 DUP2 ADD PUSH1 0x40 MSTORE DUP2 ADD SWAP1 PUSH2 0x31 SWAP2 SWAP1 PUSH2 0x1D3 JUMP JUMPDEST DUP1 PUSH0 PUSH0 PUSH2 0x100 EXP DUP2 SLOAD DUP2 PUSH20 0xFFFFFFFFFFFFFFFFFFFFFFFFFFFFFFFFFFFFFFFF MUL NOT AND SWAP1 DUP4 PUSH20 0xFFFFFFFFFFFFFFFFFFFFFFFFFFFFFFFFFFFFFFFF AND MUL OR SWAP1 SSTORE POP PUSH1 0xA PUSH1 0x1 PUSH0 PUSH0 PUSH1 0x3 DUP2 GT ISZERO PUSH2 0x88 JUMPI PUSH2 0x87 PUSH2 0x1FE JUMP JUMPDEST JUMPDEST PUSH1 0x3 DUP2 GT ISZERO PUSH2 0x9A JUMPI PUSH2 0x99 PUSH2 0x1FE JUMP JUMPDEST JUMPDEST DUP2 MSTORE PUSH1 0x20 ADD SWAP1 DUP2 MSTORE PUSH1 0x20 ADD PUSH0 KECCAK256 DUP2 SWAP1 SSTORE POP PUSH1 0xF PUSH1 0x1 PUSH0 PUSH1 0x1 PUSH1 0x3 DUP2 GT ISZERO PUSH2 0xC4 JUMPI PUSH2 0xC3 PUSH2 0x1FE JUMP JUMPDEST JUMPDEST PUSH1 0x3 DUP2 GT ISZERO PUSH2 0xD6 JUMPI PUSH2 0xD5 PUSH2 0x1FE JUMP JUMPDEST JUMPDEST DUP2 MSTORE PUSH1 0x20 ADD SWAP1 DUP2 MSTORE PUSH1 0x20 ADD PUSH0 KECCAK256 DUP2 SWAP1 SSTORE POP PUSH1 0x14 PUSH1 0x1 PUSH0 PUSH1 0x2 PUSH1 0x3 DUP2 GT ISZERO PUSH2 0x100 JUMPI PUSH2 0xFF PUSH2 0x1FE JUMP JUMPDEST JUMPDEST PUSH1 0x3 DUP2 GT ISZERO PUSH2 0x112 JUMPI PUSH2 0x111 PUSH2 0x1FE JUMP JUMPDEST JUMPDEST DUP2 MSTORE PUSH1 0x20 ADD SWAP1 DUP2 MSTORE PUSH1 0x20 ADD PUSH0 KECCAK256 DUP2 SWAP1 SSTORE POP PUSH1 0x19 PUSH1 0x1 PUSH0 PUSH1 0x3 DUP1 DUP2 GT ISZERO PUSH2 0x13B JUMPI PUSH2 0x13A PUSH2 0x1FE JUMP JUMPDEST JUMPDEST PUSH1 0x3 DUP2 GT ISZERO PUSH2 0x14D JUMPI PUSH2 0x14C PUSH2 0x1FE JUMP JUMPDEST JUMPDEST DUP2 MSTORE PUSH1 0x20 ADD SWAP1 DUP2 MSTORE PUSH1 0x20 ADD PUSH0 KECCAK256 DUP2 SWAP1 SSTORE POP POP PUSH2 0x22B JUMP JUMPDEST PUSH0 PUSH0 REVERT JUMPDEST PUSH0 PUSH20 0xFFFFFFFFFFFFFFFFFFFFFFFFFFFFFFFFFFFFFFFF DUP3 AND SWAP1 POP SWAP2 SWAP1 POP JUMP JUMPDEST PUSH0 PUSH2 0x191 DUP3 PUSH2 0x168 JUMP JUMPDEST SWAP1 POP SWAP2 SWAP1 POP JUMP JUMPDEST PUSH0 PUSH2 0x1A2 DUP3 PUSH2 0x187 JUMP JUMPDEST SWAP1 POP SWAP2 SWAP1 POP JUMP JUMPDEST PUSH2 0x1B2 DUP2 PUSH2 0x198 JUMP JUMPDEST DUP2 EQ PUSH2 0x1BC JUMPI PUSH0 PUSH0 REVERT JUMPDEST POP JUMP JUMPDEST PUSH0 DUP2 MLOAD SWAP1 POP PUSH2 0x1CD DUP2 PUSH2 0x1A9 JUMP JUMPDEST SWAP3 SWAP2 POP POP JUMP JUMPDEST PUSH0 PUSH1 0x20 DUP3 DUP5 SUB SLT ISZERO PUSH2 0x1E8 JUMPI PUSH2 0x1E7 PUSH2 0x164 JUMP JUMPDEST JUMPDEST PUSH0 PUSH2 0x1F5 DUP5 DUP3 DUP6 ADD PUSH2 0x1BF JUMP JUMPDEST SWAP2 POP POP SWAP3 SWAP2 POP POP JUMP JUMPDEST PUSH32 0x4E487B7100000000000000000000000000000000000000000000000000000000 PUSH0 MSTORE PUSH1 0x21 PUSH1 0x4 MSTORE PUSH1 0x24 PUSH0 REVERT JUMPDEST PUSH2 0x17D8 DUP1 PUSH2 0x238 PUSH0 CODECOPY PUSH0 RETURN INVALID PUSH1 0x80 PUSH1 0x40 MSTORE CALLVALUE DUP1 ISZERO PUSH2 0xF JUMPI PUSH0 PUSH0 REVERT JUMPDEST POP PUSH1 0x4 CALLDATASIZE LT PUSH2 0x9C JUMPI PUSH0 CALLDATALOAD PUSH1 0xE0 SHR DUP1 PUSH4 0x762E54FC GT PUSH2 0x64 JUMPI DUP1 PUSH4 0x762E54FC EQ PUSH2 0x156 JUMPI DUP1 PUSH4 0xA262AB35 EQ PUSH2 0x186 JUMPI DUP1 PUSH4 0xA57A5304 EQ PUSH2 0x1B6 JUMPI DUP1 PUSH4 0xB5D5B5FA EQ PUSH2 0x1E6 JUMPI DUP1 PUSH4 0xC4A9E116 EQ PUSH2 0x21B JUMPI PUSH2 0x9C JUMP JUMPDEST DUP1 PUSH4 0x10087FB1 EQ PUSH2 0xA0 JUMPI DUP1 PUSH4 0x1F1ACCB2 EQ PUSH2 0xBC JUMPI DUP1 PUSH4 0x2E1A7D4D EQ PUSH2 0xEC JUMPI DUP1 PUSH4 0x4C86259E EQ PUSH2 0x108 JUMPI DUP1 PUSH4 0x72F702F3 EQ PUSH2 0x138 JUMPI JUMPDEST PUSH0 PUSH0 REVERT JUMPDEST PUSH2 0xBA PUSH1 0x4 DUP1 CALLDATASIZE SUB DUP2 ADD SWAP1 PUSH2 0xB5 SWAP2 SWAP1 PUSH2 0xD9E JUMP JUMPDEST PUSH2 0x239 JUMP JUMPDEST STOP JUMPDEST PUSH2 0xD6 PUSH1 0x4 DUP1 CALLDATASIZE SUB DUP2 ADD SWAP1 PUSH2 0xD1 SWAP2 SWAP1 PUSH2 0xDDC JUMP JUMPDEST PUSH2 0x6E8 JUMP JUMPDEST PUSH1 0x40 MLOAD PUSH2 0xE3 SWAP2 SWAP1 PUSH2 0xE16 JUMP JUMPDEST PUSH1 0x40 MLOAD DUP1 SWAP2 SUB SWAP1 RETURN JUMPDEST PUSH2 0x106 PUSH1 0x4 DUP1 CALLDATASIZE SUB DUP2 ADD SWAP1 PUSH2 0x101 SWAP2 SWAP1 PUSH2 0xE2F JUMP JUMPDEST PUSH2 0x6FD JUMP JUMPDEST STOP JUMPDEST PUSH2 0x122 PUSH1 0x4 DUP1 CALLDATASIZE SUB DUP2 ADD SWAP1 PUSH2 0x11D SWAP2 SWAP1 PUSH2 0xE2F JUMP JUMPDEST PUSH2 0x939 JUMP JUMPDEST PUSH1 0x40 MLOAD PUSH2 0x12F SWAP2 SWAP1 PUSH2 0xE16 JUMP JUMPDEST PUSH1 0x40 MLOAD DUP1 SWAP2 SUB SWAP1 RETURN JUMPDEST PUSH2 0x140 PUSH2 0x959 JUMP JUMPDEST PUSH1 0x40 MLOAD PUSH2 0x14D SWAP2 SWAP1 PUSH2 0xED4 JUMP JUMPDEST PUSH1 0x40 MLOAD DUP1 SWAP2 SUB SWAP1 RETURN JUMPDEST PUSH2 0x170 PUSH1 0x4 DUP1 CALLDATASIZE SUB DUP2 ADD SWAP1 PUSH2 0x16B SWAP2 SWAP1 PUSH2 0xF28 JUMP JUMPDEST PUSH2 0x97D JUMP JUMPDEST PUSH1 0x40 MLOAD PUSH2 0x17D SWAP2 SWAP1 PUSH2 0xE16 JUMP JUMPDEST PUSH1 0x40 MLOAD DUP1 SWAP2 SUB SWAP1 RETURN JUMPDEST PUSH2 0x1A0 PUSH1 0x4 DUP1 CALLDATASIZE SUB DUP2 ADD SWAP1 PUSH2 0x19B SWAP2 SWAP1 PUSH2 0xF28 JUMP JUMPDEST PUSH2 0x992 JUMP JUMPDEST PUSH1 0x40 MLOAD PUSH2 0x1AD SWAP2 SWAP1 PUSH2 0x109D JUMP JUMPDEST PUSH1 0x40 MLOAD DUP1 SWAP2 SUB SWAP1 RETURN JUMPDEST PUSH2 0x1D0 PUSH1 0x4 DUP1 CALLDATASIZE SUB DUP2 ADD SWAP1 PUSH2 0x1CB SWAP2 SWAP1 PUSH2 0xE2F JUMP JUMPDEST PUSH2 0xB23 JUMP JUMPDEST PUSH1 0x40 MLOAD PUSH2 0x1DD SWAP2 SWAP1 PUSH2 0x10CC JUMP JUMPDEST PUSH1 0x40 MLOAD DUP1 SWAP2 SUB SWAP1 RETURN JUMPDEST PUSH2 0x200 PUSH1 0x4 DUP1 CALLDATASIZE SUB DUP2 ADD SWAP1 PUSH2 0x1FB SWAP2 SWAP1 PUSH2 0x10E5 JUMP JUMPDEST PUSH2 0xB53 JUMP JUMPDEST PUSH1 0x40 MLOAD PUSH2 0x212 SWAP7 SWAP6 SWAP5 SWAP4 SWAP3 SWAP2 SWAP1 PUSH2 0x1132 JUMP JUMPDEST PUSH1 0x40 MLOAD DUP1 SWAP2 SUB SWAP1 RETURN JUMPDEST PUSH2 0x223 PUSH2 0xBA2 JUMP JUMPDEST PUSH1 0x40 MLOAD PUSH2 0x230 SWAP2 SWAP1 PUSH2 0xE16 JUMP JUMPDEST PUSH1 0x40 MLOAD DUP1 SWAP2 SUB SWAP1 RETURN JUMPDEST PUSH0 PUSH8 0xDE0B6B3A7640000 DUP4 PUSH2 0x24E SWAP2 SWAP1 PUSH2 0x11BE JUMP JUMPDEST SWAP1 POP PUSH0 DUP4 GT PUSH2 0x292 JUMPI PUSH1 0x40 MLOAD PUSH32 0x8C379A000000000000000000000000000000000000000000000000000000000 DUP2 MSTORE PUSH1 0x4 ADD PUSH2 0x289 SWAP1 PUSH2 0x1259 JUMP JUMPDEST PUSH1 0x40 MLOAD DUP1 SWAP2 SUB SWAP1 REVERT JUMPDEST DUP1 PUSH0 PUSH0 SWAP1 SLOAD SWAP1 PUSH2 0x100 EXP SWAP1 DIV PUSH20 0xFFFFFFFFFFFFFFFFFFFFFFFFFFFFFFFFFFFFFFFF AND PUSH20 0xFFFFFFFFFFFFFFFFFFFFFFFFFFFFFFFFFFFFFFFF AND PUSH4 0x70A08231 CALLER PUSH1 0x40 MLOAD DUP3 PUSH4 0xFFFFFFFF AND PUSH1 0xE0 SHL DUP2 MSTORE PUSH1 0x4 ADD PUSH2 0x2EC SWAP2 SWAP1 PUSH2 0x10CC JUMP JUMPDEST PUSH1 0x20 PUSH1 0x40 MLOAD DUP1 DUP4 SUB DUP2 DUP7 GAS STATICCALL ISZERO DUP1 ISZERO PUSH2 0x307 JUMPI RETURNDATASIZE PUSH0 PUSH0 RETURNDATACOPY RETURNDATASIZE PUSH0 REVERT JUMPDEST POP POP POP POP PUSH1 0x40 MLOAD RETURNDATASIZE PUSH1 0x1F NOT PUSH1 0x1F DUP3 ADD AND DUP3 ADD DUP1 PUSH1 0x40 MSTORE POP DUP2 ADD SWAP1 PUSH2 0x32B SWAP2 SWAP1 PUSH2 0x128B JUMP JUMPDEST LT ISZERO PUSH2 0x36C JUMPI PUSH1 0x40 MLOAD PUSH32 0x8C379A000000000000000000000000000000000000000000000000000000000 DUP2 MSTORE PUSH1 0x4 ADD PUSH2 0x363 SWAP1 PUSH2 0x1300 JUMP JUMPDEST PUSH1 0x40 MLOAD DUP1 SWAP2 SUB SWAP1 REVERT JUMPDEST PUSH0 PUSH0 SWAP1 SLOAD SWAP1 PUSH2 0x100 EXP SWAP1 DIV PUSH20 0xFFFFFFFFFFFFFFFFFFFFFFFFFFFFFFFFFFFFFFFF AND PUSH20 0xFFFFFFFFFFFFFFFFFFFFFFFFFFFFFFFFFFFFFFFF AND PUSH4 0x23B872DD CALLER ADDRESS DUP7 PUSH1 0x40 MLOAD DUP5 PUSH4 0xFFFFFFFF AND PUSH1 0xE0 SHL DUP2 MSTORE PUSH1 0x4 ADD PUSH2 0x3C9 SWAP4 SWAP3 SWAP2 SWAP1 PUSH2 0x131E JUMP JUMPDEST PUSH1 0x20 PUSH1 0x40 MLOAD DUP1 DUP4 SUB DUP2 PUSH0 DUP8 GAS CALL ISZERO DUP1 ISZERO PUSH2 0x3E5 JUMPI RETURNDATASIZE PUSH0 PUSH0 RETURNDATACOPY RETURNDATASIZE PUSH0 REVERT JUMPDEST POP POP POP POP PUSH1 0x40 MLOAD RETURNDATASIZE PUSH1 0x1F NOT PUSH1 0x1F DUP3 ADD AND DUP3 ADD DUP1 PUSH1 0x40 MSTORE POP DUP2 ADD SWAP1 PUSH2 0x409 SWAP2 SWAP1 PUSH2 0x137D JUMP JUMPDEST PUSH2 0x448 JUMPI PUSH1 0x40 MLOAD PUSH32 0x8C379A000000000000000000000000000000000000000000000000000000000 DUP2 MSTORE PUSH1 0x4 ADD PUSH2 0x43F SWAP1 PUSH2 0x13F2 JUMP JUMPDEST PUSH1 0x40 MLOAD DUP1 SWAP2 SUB SWAP1 REVERT JUMPDEST PUSH0 PUSH2 0x452 DUP4 PUSH2 0xBA8 JUMP JUMPDEST SWAP1 POP PUSH0 DUP2 PUSH1 0x20 ADD MLOAD SWAP1 POP PUSH0 DUP3 PUSH0 ADD MLOAD SWAP1 POP PUSH0 TIMESTAMP SWAP1 POP PUSH0 DUP4 DUP3 PUSH2 0x474 SWAP2 SWAP1 PUSH2 0x1410 JUMP JUMPDEST SWAP1 POP PUSH0 PUSH1 0x3 PUSH0 CALLER PUSH20 0xFFFFFFFFFFFFFFFFFFFFFFFFFFFFFFFFFFFFFFFF AND PUSH20 0xFFFFFFFFFFFFFFFFFFFFFFFFFFFFFFFFFFFFFFFF AND DUP2 MSTORE PUSH1 0x20 ADD SWAP1 DUP2 MSTORE PUSH1 0x20 ADD PUSH0 KECCAK256 PUSH0 DUP2 SLOAD DUP1 SWAP3 SWAP2 SWAP1 PUSH2 0x4C4 SWAP1 PUSH2 0x1443 JUMP JUMPDEST SWAP2 SWAP1 POP SSTORE SWAP1 POP PUSH0 PUSH2 0x168 PUSH8 0xDE0B6B3A7640000 DUP7 PUSH1 0x1 PUSH0 DUP14 PUSH1 0x3 DUP2 GT ISZERO PUSH2 0x4EE JUMPI PUSH2 0x4ED PUSH2 0x148A JUMP JUMPDEST JUMPDEST PUSH1 0x3 DUP2 GT ISZERO PUSH2 0x500 JUMPI PUSH2 0x4FF PUSH2 0x148A JUMP JUMPDEST JUMPDEST DUP2 MSTORE PUSH1 0x20 ADD SWAP1 DUP2 MSTORE PUSH1 0x20 ADD PUSH0 KECCAK256 SLOAD PUSH2 0x518 SWAP2 SWAP1 PUSH2 0x11BE JUMP JUMPDEST PUSH2 0x522 SWAP2 SWAP1 PUSH2 0x11BE JUMP JUMPDEST PUSH2 0x52C SWAP2 SWAP1 PUSH2 0x14E4 JUMP JUMPDEST SWAP1 POP CALLER PUSH20 0xFFFFFFFFFFFFFFFFFFFFFFFFFFFFFFFFFFFFFFFF AND PUSH32 0x22DD619EE0D92140E5ABDE105761D6DF71C05C4FCB761610EA0552064F91E6C DUP12 DUP12 DUP7 DUP7 PUSH1 0x40 MLOAD PUSH2 0x57A SWAP5 SWAP4 SWAP3 SWAP2 SWAP1 PUSH2 0x155A JUMP JUMPDEST PUSH1 0x40 MLOAD DUP1 SWAP2 SUB SWAP1 LOG2 PUSH1 0x40 MLOAD DUP1 PUSH1 0xC0 ADD PUSH1 0x40 MSTORE DUP1 DUP12 DUP2 MSTORE PUSH1 0x20 ADD DUP6 DUP2 MSTORE PUSH1 0x20 ADD DUP5 DUP2 MSTORE PUSH1 0x20 ADD DUP3 DUP2 MSTORE PUSH1 0x20 ADD PUSH1 0x1 ISZERO ISZERO DUP2 MSTORE PUSH1 0x20 ADD DUP4 DUP2 MSTORE POP PUSH1 0x2 PUSH0 CALLER PUSH20 0xFFFFFFFFFFFFFFFFFFFFFFFFFFFFFFFFFFFFFFFF AND PUSH20 0xFFFFFFFFFFFFFFFFFFFFFFFFFFFFFFFFFFFFFFFF AND DUP2 MSTORE PUSH1 0x20 ADD SWAP1 DUP2 MSTORE PUSH1 0x20 ADD PUSH0 KECCAK256 PUSH0 DUP5 DUP2 MSTORE PUSH1 0x20 ADD SWAP1 DUP2 MSTORE PUSH1 0x20 ADD PUSH0 KECCAK256 PUSH0 DUP3 ADD MLOAD DUP2 PUSH0 ADD SSTORE PUSH1 0x20 DUP3 ADD MLOAD DUP2 PUSH1 0x1 ADD SSTORE PUSH1 0x40 DUP3 ADD MLOAD DUP2 PUSH1 0x2 ADD SSTORE PUSH1 0x60 DUP3 ADD MLOAD DUP2 PUSH1 0x3 ADD SSTORE PUSH1 0x80 DUP3 ADD MLOAD DUP2 PUSH1 0x4 ADD PUSH0 PUSH2 0x100 EXP DUP2 SLOAD DUP2 PUSH1 0xFF MUL NOT AND SWAP1 DUP4 ISZERO ISZERO MUL OR SWAP1 SSTORE POP PUSH1 0xA0 DUP3 ADD MLOAD DUP2 PUSH1 0x5 ADD SSTORE SWAP1 POP POP CALLER PUSH1 0x4 PUSH0 DUP5 DUP2 MSTORE PUSH1 0x20 ADD SWAP1 DUP2 MSTORE PUSH1 0x20 ADD PUSH0 KECCAK256 PUSH0 PUSH2 0x100 EXP DUP2 SLOAD DUP2 PUSH20 0xFFFFFFFFFFFFFFFFFFFFFFFFFFFFFFFFFFFFFFFF MUL NOT AND SWAP1 DUP4 PUSH20 0xFFFFFFFFFFFFFFFFFFFFFFFFFFFFFFFFFFFFFFFF AND MUL OR SWAP1 SSTORE POP PUSH1 0x5 DUP3 SWAP1 DUP1 PUSH1 0x1 DUP2 SLOAD ADD DUP1 DUP3 SSTORE DUP1 SWAP2 POP POP PUSH1 0x1 SWAP1 SUB SWAP1 PUSH0 MSTORE PUSH1 0x20 PUSH0 KECCAK256 ADD PUSH0 SWAP1 SWAP2 SWAP1 SWAP2 SWAP1 SWAP2 POP SSTORE PUSH1 0x6 PUSH0 DUP2 SLOAD DUP1 SWAP3 SWAP2 SWAP1 PUSH2 0x6D7 SWAP1 PUSH2 0x1443 JUMP JUMPDEST SWAP2 SWAP1 POP SSTORE POP POP POP POP POP POP POP POP POP POP POP JUMP JUMPDEST PUSH1 0x1 PUSH1 0x20 MSTORE DUP1 PUSH0 MSTORE PUSH1 0x40 PUSH0 KECCAK256 PUSH0 SWAP2 POP SWAP1 POP SLOAD DUP2 JUMP JUMPDEST CALLER PUSH20 0xFFFFFFFFFFFFFFFFFFFFFFFFFFFFFFFFFFFFFFFF AND PUSH1 0x4 PUSH0 DUP4 DUP2 MSTORE PUSH1 0x20 ADD SWAP1 DUP2 MSTORE PUSH1 0x20 ADD PUSH0 KECCAK256 PUSH0 SWAP1 SLOAD SWAP1 PUSH2 0x100 EXP SWAP1 DIV PUSH20 0xFFFFFFFFFFFFFFFFFFFFFFFFFFFFFFFFFFFFFFFF AND PUSH20 0xFFFFFFFFFFFFFFFFFFFFFFFFFFFFFFFFFFFFFFFF AND EQ PUSH2 0x79B JUMPI PUSH1 0x40 MLOAD PUSH32 0x8C379A000000000000000000000000000000000000000000000000000000000 DUP2 MSTORE PUSH1 0x4 ADD PUSH2 0x792 SWAP1 PUSH2 0x160D JUMP JUMPDEST PUSH1 0x40 MLOAD DUP1 SWAP2 SUB SWAP1 REVERT JUMPDEST PUSH0 PUSH1 0x2 PUSH0 CALLER PUSH20 0xFFFFFFFFFFFFFFFFFFFFFFFFFFFFFFFFFFFFFFFF AND PUSH20 0xFFFFFFFFFFFFFFFFFFFFFFFFFFFFFFFFFFFFFFFF AND DUP2 MSTORE PUSH1 0x20 ADD SWAP1 DUP2 MSTORE PUSH1 0x20 ADD PUSH0 KECCAK256 PUSH0 DUP4 DUP2 MSTORE PUSH1 0x20 ADD SWAP1 DUP2 MSTORE PUSH1 0x20 ADD PUSH0 KECCAK256 SWAP1 POP DUP1 PUSH1 0x4 ADD PUSH0 SWAP1 SLOAD SWAP1 PUSH2 0x100 EXP SWAP1 DIV PUSH1 0xFF AND PUSH2 0x83A JUMPI PUSH1 0x40 MLOAD PUSH32 0x8C379A000000000000000000000000000000000000000000000000000000000 DUP2 MSTORE PUSH1 0x4 ADD PUSH2 0x831 SWAP1 PUSH2 0x169B JUMP JUMPDEST PUSH1 0x40 MLOAD DUP1 SWAP2 SUB SWAP1 REVERT JUMPDEST DUP1 PUSH1 0x2 ADD SLOAD TIMESTAMP LT ISZERO PUSH2 0x881 JUMPI PUSH1 0x40 MLOAD PUSH32 0x8C379A000000000000000000000000000000000000000000000000000000000 DUP2 MSTORE PUSH1 0x4 ADD PUSH2 0x878 SWAP1 PUSH2 0x1703 JUMP JUMPDEST PUSH1 0x40 MLOAD DUP1 SWAP2 SUB SWAP1 REVERT JUMPDEST PUSH0 PUSH8 0xDE0B6B3A7640000 PUSH1 0x64 DUP4 PUSH1 0x3 ADD SLOAD DUP5 PUSH0 ADD SLOAD PUSH2 0x8A0 SWAP2 SWAP1 PUSH2 0x11BE JUMP JUMPDEST PUSH2 0x8AA SWAP2 SWAP1 PUSH2 0x14E4 JUMP JUMPDEST PUSH2 0x8B4 SWAP2 SWAP1 PUSH2 0x14E4 JUMP JUMPDEST SWAP1 POP PUSH0 DUP2 DUP4 PUSH0 ADD SLOAD PUSH2 0x8C6 SWAP2 SWAP1 PUSH2 0x1410 JUMP JUMPDEST SWAP1 POP PUSH0 DUP4 PUSH1 0x4 ADD PUSH0 PUSH2 0x100 EXP DUP2 SLOAD DUP2 PUSH1 0xFF MUL NOT AND SWAP1 DUP4 ISZERO ISZERO MUL OR SWAP1 SSTORE POP CALLER PUSH20 0xFFFFFFFFFFFFFFFFFFFFFFFFFFFFFFFFFFFFFFFF AND PUSH32 0x92CCF450A286A957AF52509BC1C9939D1A6A481783E142E41E2499F0BB66EBC6 DUP3 DUP7 PUSH1 0x40 MLOAD PUSH2 0x92B SWAP3 SWAP2 SWAP1 PUSH2 0x1721 JUMP JUMPDEST PUSH1 0x40 MLOAD DUP1 SWAP2 SUB SWAP1 LOG2 POP POP POP POP JUMP JUMPDEST PUSH1 0x5 DUP2 DUP2 SLOAD DUP2 LT PUSH2 0x948 JUMPI PUSH0 DUP1 REVERT JUMPDEST SWAP1 PUSH0 MSTORE PUSH1 0x20 PUSH0 KECCAK256 ADD PUSH0 SWAP2 POP SWAP1 POP SLOAD DUP2 JUMP JUMPDEST PUSH0 PUSH0 SWAP1 SLOAD SWAP1 PUSH2 0x100 EXP SWAP1 DIV PUSH20 0xFFFFFFFFFFFFFFFFFFFFFFFFFFFFFFFFFFFFFFFF AND DUP2 JUMP JUMPDEST PUSH1 0x3 PUSH1 0x20 MSTORE DUP1 PUSH0 MSTORE PUSH1 0x40 PUSH0 KECCAK256 PUSH0 SWAP2 POP SWAP1 POP SLOAD DUP2 JUMP JUMPDEST PUSH1 0x60 PUSH0 PUSH1 0x6 SLOAD PUSH8 0xFFFFFFFFFFFFFFFF DUP2 GT ISZERO PUSH2 0x9B1 JUMPI PUSH2 0x9B0 PUSH2 0x1748 JUMP JUMPDEST JUMPDEST PUSH1 0x40 MLOAD SWAP1 DUP1 DUP3 MSTORE DUP1 PUSH1 0x20 MUL PUSH1 0x20 ADD DUP3 ADD PUSH1 0x40 MSTORE DUP1 ISZERO PUSH2 0x9EA JUMPI DUP2 PUSH1 0x20 ADD JUMPDEST PUSH2 0x9D7 PUSH2 0xCFA JUMP JUMPDEST DUP2 MSTORE PUSH1 0x20 ADD SWAP1 PUSH1 0x1 SWAP1 SUB SWAP1 DUP2 PUSH2 0x9CF JUMPI SWAP1 POP JUMPDEST POP SWAP1 POP PUSH0 PUSH0 SWAP1 POP PUSH0 PUSH0 SWAP1 POP JUMPDEST PUSH1 0x6 SLOAD DUP2 LT ISZERO PUSH2 0xB18 JUMPI PUSH0 PUSH1 0x5 DUP3 DUP2 SLOAD DUP2 LT PUSH2 0xA15 JUMPI PUSH2 0xA14 PUSH2 0x1775 JUMP JUMPDEST JUMPDEST SWAP1 PUSH0 MSTORE PUSH1 0x20 PUSH0 KECCAK256 ADD SLOAD SWAP1 POP PUSH0 PUSH1 0x2 PUSH0 DUP9 PUSH20 0xFFFFFFFFFFFFFFFFFFFFFFFFFFFFFFFFFFFFFFFF AND PUSH20 0xFFFFFFFFFFFFFFFFFFFFFFFFFFFFFFFFFFFFFFFF AND DUP2 MSTORE PUSH1 0x20 ADD SWAP1 DUP2 MSTORE PUSH1 0x20 ADD PUSH0 KECCAK256 PUSH0 DUP4 DUP2 MSTORE PUSH1 0x20 ADD SWAP1 DUP2 MSTORE PUSH1 0x20 ADD PUSH0 KECCAK256 SWAP1 POP DUP1 PUSH1 0x4 ADD PUSH0 SWAP1 SLOAD SWAP1 PUSH2 0x100 EXP SWAP1 DIV PUSH1 0xFF AND ISZERO PUSH2 0xB09 JUMPI DUP1 PUSH1 0x40 MLOAD DUP1 PUSH1 0xC0 ADD PUSH1 0x40 MSTORE SWAP1 DUP2 PUSH0 DUP3 ADD SLOAD DUP2 MSTORE PUSH1 0x20 ADD PUSH1 0x1 DUP3 ADD SLOAD DUP2 MSTORE PUSH1 0x20 ADD PUSH1 0x2 DUP3 ADD SLOAD DUP2 MSTORE PUSH1 0x20 ADD PUSH1 0x3 DUP3 ADD SLOAD DUP2 MSTORE PUSH1 0x20 ADD PUSH1 0x4 DUP3 ADD PUSH0 SWAP1 SLOAD SWAP1 PUSH2 0x100 EXP SWAP1 DIV PUSH1 0xFF AND ISZERO ISZERO ISZERO ISZERO DUP2 MSTORE PUSH1 0x20 ADD PUSH1 0x5 DUP3 ADD SLOAD DUP2 MSTORE POP POP DUP6 DUP6 DUP2 MLOAD DUP2 LT PUSH2 0xAEF JUMPI PUSH2 0xAEE PUSH2 0x1775 JUMP JUMPDEST JUMPDEST PUSH1 0x20 MUL PUSH1 0x20 ADD ADD DUP2 SWAP1 MSTORE POP DUP4 DUP1 PUSH2 0xB05 SWAP1 PUSH2 0x1443 JUMP JUMPDEST SWAP5 POP POP JUMPDEST POP POP DUP1 DUP1 PUSH1 0x1 ADD SWAP2 POP POP PUSH2 0x9F6 JUMP JUMPDEST POP DUP2 SWAP3 POP POP POP SWAP2 SWAP1 POP JUMP JUMPDEST PUSH1 0x4 PUSH1 0x20 MSTORE DUP1 PUSH0 MSTORE PUSH1 0x40 PUSH0 KECCAK256 PUSH0 SWAP2 POP SLOAD SWAP1 PUSH2 0x100 EXP SWAP1 DIV PUSH20 0xFFFFFFFFFFFFFFFFFFFFFFFFFFFFFFFFFFFFFFFF AND DUP2 JUMP JUMPDEST PUSH1 0x2 PUSH1 0x20 MSTORE DUP2 PUSH0 MSTORE PUSH1 0x40 PUSH0 KECCAK256 PUSH1 0x20 MSTORE DUP1 PUSH0 MSTORE PUSH1 0x40 PUSH0 KECCAK256 PUSH0 SWAP2 POP SWAP2 POP POP DUP1 PUSH0 ADD SLOAD SWAP1 DUP1 PUSH1 0x1 ADD SLOAD SWAP1 DUP1 PUSH1 0x2 ADD SLOAD SWAP1 DUP1 PUSH1 0x3 ADD SLOAD SWAP1 DUP1 PUSH1 0x4 ADD PUSH0 SWAP1 SLOAD SWAP1 PUSH2 0x100 EXP SWAP1 DIV PUSH1 0xFF AND SWAP1 DUP1 PUSH1 0x5 ADD SLOAD SWAP1 POP DUP7 JUMP JUMPDEST PUSH1 0x6 SLOAD DUP2 JUMP JUMPDEST PUSH2 0xBB0 PUSH2 0xD2C JUMP JUMPDEST PUSH0 PUSH1 0x3 DUP2 GT ISZERO PUSH2 0xBC3 JUMPI PUSH2 0xBC2 PUSH2 0x148A JUMP JUMPDEST JUMPDEST DUP3 PUSH1 0x3 DUP2 GT ISZERO PUSH2 0xBD6 JUMPI PUSH2 0xBD5 PUSH2 0x148A JUMP JUMPDEST JUMPDEST SUB PUSH2 0xBF9 JUMPI PUSH1 0x40 MLOAD DUP1 PUSH1 0x40 ADD PUSH1 0x40 MSTORE DUP1 PUSH1 0x1E DUP2 MSTORE PUSH1 0x20 ADD PUSH1 0x3C DUP2 MSTORE POP SWAP1 POP PUSH2 0xCF5 JUMP JUMPDEST PUSH1 0x1 PUSH1 0x3 DUP2 GT ISZERO PUSH2 0xC0D JUMPI PUSH2 0xC0C PUSH2 0x148A JUMP JUMPDEST JUMPDEST DUP3 PUSH1 0x3 DUP2 GT ISZERO PUSH2 0xC20 JUMPI PUSH2 0xC1F PUSH2 0x148A JUMP JUMPDEST JUMPDEST SUB PUSH2 0xC43 JUMPI PUSH1 0x40 MLOAD DUP1 PUSH1 0x40 ADD PUSH1 0x40 MSTORE DUP1 PUSH1 0x5A DUP2 MSTORE PUSH1 0x20 ADD PUSH1 0xB4 DUP2 MSTORE POP SWAP1 POP PUSH2 0xCF5 JUMP JUMPDEST PUSH1 0x2 PUSH1 0x3 DUP2 GT ISZERO PUSH2 0xC57 JUMPI PUSH2 0xC56 PUSH2 0x148A JUMP JUMPDEST JUMPDEST DUP3 PUSH1 0x3 DUP2 GT ISZERO PUSH2 0xC6A JUMPI PUSH2 0xC69 PUSH2 0x148A JUMP JUMPDEST JUMPDEST SUB PUSH2 0xC8E JUMPI PUSH1 0x40 MLOAD DUP1 PUSH1 0x40 ADD PUSH1 0x40 MSTORE DUP1 PUSH1 0xB4 DUP2 MSTORE PUSH1 0x20 ADD PUSH2 0x12C DUP2 MSTORE POP SWAP1 POP PUSH2 0xCF5 JUMP JUMPDEST PUSH1 0x3 DUP1 DUP2 GT ISZERO PUSH2 0xCA1 JUMPI PUSH2 0xCA0 PUSH2 0x148A JUMP JUMPDEST JUMPDEST DUP3 PUSH1 0x3 DUP2 GT ISZERO PUSH2 0xCB4 JUMPI PUSH2 0xCB3 PUSH2 0x148A JUMP JUMPDEST JUMPDEST SUB PUSH2 0xCD9 JUMPI PUSH1 0x40 MLOAD DUP1 PUSH1 0x40 ADD PUSH1 0x40 MSTORE DUP1 PUSH2 0x168 DUP2 MSTORE PUSH1 0x20 ADD PUSH2 0x258 DUP2 MSTORE POP SWAP1 POP PUSH2 0xCF5 JUMP JUMPDEST PUSH1 0x40 MLOAD DUP1 PUSH1 0x40 ADD PUSH1 0x40 MSTORE DUP1 PUSH2 0x168 DUP2 MSTORE PUSH1 0x20 ADD PUSH2 0xE10 DUP2 MSTORE POP SWAP1 POP JUMPDEST SWAP2 SWAP1 POP JUMP JUMPDEST PUSH1 0x40 MLOAD DUP1 PUSH1 0xC0 ADD PUSH1 0x40 MSTORE DUP1 PUSH0 DUP2 MSTORE PUSH1 0x20 ADD PUSH0 DUP2 MSTORE PUSH1 0x20 ADD PUSH0 DUP2 MSTORE PUSH1 0x20 ADD PUSH0 DUP2 MSTORE PUSH1 0x20 ADD PUSH0 ISZERO ISZERO DUP2 MSTORE PUSH1 0x20 ADD PUSH0 DUP2 MSTORE POP SWAP1 JUMP JUMPDEST PUSH1 0x40 MLOAD DUP1 PUSH1 0x40 ADD PUSH1 0x40 MSTORE DUP1 PUSH0 DUP2 MSTORE PUSH1 0x20 ADD PUSH0 DUP2 MSTORE POP SWAP1 JUMP JUMPDEST PUSH0 PUSH0 REVERT JUMPDEST PUSH0 DUP2 SWAP1 POP SWAP2 SWAP1 POP JUMP JUMPDEST PUSH2 0xD5A DUP2 PUSH2 0xD48 JUMP JUMPDEST DUP2 EQ PUSH2 0xD64 JUMPI PUSH0 PUSH0 REVERT JUMPDEST POP JUMP JUMPDEST PUSH0 DUP2 CALLDATALOAD SWAP1 POP PUSH2 0xD75 DUP2 PUSH2 0xD51 JUMP JUMPDEST SWAP3 SWAP2 POP POP JUMP JUMPDEST PUSH1 0x4 DUP2 LT PUSH2 0xD87 JUMPI PUSH0 PUSH0 REVERT JUMPDEST POP JUMP JUMPDEST PUSH0 DUP2 CALLDATALOAD SWAP1 POP PUSH2 0xD98 DUP2 PUSH2 0xD7B JUMP JUMPDEST SWAP3 SWAP2 POP POP JUMP JUMPDEST PUSH0 PUSH0 PUSH1 0x40 DUP4 DUP6 SUB SLT ISZERO PUSH2 0xDB4 JUMPI PUSH2 0xDB3 PUSH2 0xD44 JUMP JUMPDEST JUMPDEST PUSH0 PUSH2 0xDC1 DUP6 DUP3 DUP7 ADD PUSH2 0xD67 JUMP JUMPDEST SWAP3 POP POP PUSH1 0x20 PUSH2 0xDD2 DUP6 DUP3 DUP7 ADD PUSH2 0xD8A JUMP JUMPDEST SWAP2 POP POP SWAP3 POP SWAP3 SWAP1 POP JUMP JUMPDEST PUSH0 PUSH1 0x20 DUP3 DUP5 SUB SLT ISZERO PUSH2 0xDF1 JUMPI PUSH2 0xDF0 PUSH2 0xD44 JUMP JUMPDEST JUMPDEST PUSH0 PUSH2 0xDFE DUP5 DUP3 DUP6 ADD PUSH2 0xD8A JUMP JUMPDEST SWAP2 POP POP SWAP3 SWAP2 POP POP JUMP JUMPDEST PUSH2 0xE10 DUP2 PUSH2 0xD48 JUMP JUMPDEST DUP3 MSTORE POP POP JUMP JUMPDEST PUSH0 PUSH1 0x20 DUP3 ADD SWAP1 POP PUSH2 0xE29 PUSH0 DUP4 ADD DUP5 PUSH2 0xE07 JUMP JUMPDEST SWAP3 SWAP2 POP POP JUMP JUMPDEST PUSH0 PUSH1 0x20 DUP3 DUP5 SUB SLT ISZERO PUSH2 0xE44 JUMPI PUSH2 0xE43 PUSH2 0xD44 JUMP JUMPDEST JUMPDEST PUSH0 PUSH2 0xE51 DUP5 DUP3 DUP6 ADD PUSH2 0xD67 JUMP JUMPDEST SWAP2 POP POP SWAP3 SWAP2 POP POP JUMP JUMPDEST PUSH0 PUSH20 0xFFFFFFFFFFFFFFFFFFFFFFFFFFFFFFFFFFFFFFFF DUP3 AND SWAP1 POP SWAP2 SWAP1 POP JUMP JUMPDEST PUSH0 DUP2 SWAP1 POP SWAP2 SWAP1 POP JUMP JUMPDEST PUSH0 PUSH2 0xE9C PUSH2 0xE97 PUSH2 0xE92 DUP5 PUSH2 0xE5A JUMP JUMPDEST PUSH2 0xE79 JUMP JUMPDEST PUSH2 0xE5A JUMP JUMPDEST SWAP1 POP SWAP2 SWAP1 POP JUMP JUMPDEST PUSH0 PUSH2 0xEAD DUP3 PUSH2 0xE82 JUMP JUMPDEST SWAP1 POP SWAP2 SWAP1 POP JUMP JUMPDEST PUSH0 PUSH2 0xEBE DUP3 PUSH2 0xEA3 JUMP JUMPDEST SWAP1 POP SWAP2 SWAP1 POP JUMP JUMPDEST PUSH2 0xECE DUP2 PUSH2 0xEB4 JUMP JUMPDEST DUP3 MSTORE POP POP JUMP JUMPDEST PUSH0 PUSH1 0x20 DUP3 ADD SWAP1 POP PUSH2 0xEE7 PUSH0 DUP4 ADD DUP5 PUSH2 0xEC5 JUMP JUMPDEST SWAP3 SWAP2 POP POP JUMP JUMPDEST PUSH0 PUSH2 0xEF7 DUP3 PUSH2 0xE5A JUMP JUMPDEST SWAP1 POP SWAP2 SWAP1 POP JUMP JUMPDEST PUSH2 0xF07 DUP2 PUSH2 0xEED JUMP JUMPDEST DUP2 EQ PUSH2 0xF11 JUMPI PUSH0 PUSH0 REVERT JUMPDEST POP JUMP JUMPDEST PUSH0 DUP2 CALLDATALOAD SWAP1 POP PUSH2 0xF22 DUP2 PUSH2 0xEFE JUMP JUMPDEST SWAP3 SWAP2 POP POP JUMP JUMPDEST PUSH0 PUSH1 0x20 DUP3 DUP5 SUB SLT ISZERO PUSH2 0xF3D JUMPI PUSH2 0xF3C PUSH2 0xD44 JUMP JUMPDEST JUMPDEST PUSH0 PUSH2 0xF4A DUP5 DUP3 DUP6 ADD PUSH2 0xF14 JUMP JUMPDEST SWAP2 POP POP SWAP3 SWAP2 POP POP JUMP JUMPDEST PUSH0 DUP2 MLOAD SWAP1 POP SWAP2 SWAP1 POP JUMP JUMPDEST PUSH0 DUP3 DUP3 MSTORE PUSH1 0x20 DUP3 ADD SWAP1 POP SWAP3 SWAP2 POP POP JUMP JUMPDEST PUSH0 DUP2 SWAP1 POP PUSH1 0x20 DUP3 ADD SWAP1 POP SWAP2 SWAP1 POP JUMP JUMPDEST PUSH2 0xF85 DUP2 PUSH2 0xD48 JUMP JUMPDEST DUP3 MSTORE POP POP JUMP JUMPDEST PUSH0 DUP2 ISZERO ISZERO SWAP1 POP SWAP2 SWAP1 POP JUMP JUMPDEST PUSH2 0xF9F DUP2 PUSH2 0xF8B JUMP JUMPDEST DUP3 MSTORE POP POP JUMP JUMPDEST PUSH1 0xC0 DUP3 ADD PUSH0 DUP3 ADD MLOAD PUSH2 0xFB9 PUSH0 DUP6 ADD DUP3 PUSH2 0xF7C JUMP JUMPDEST POP PUSH1 0x20 DUP3 ADD MLOAD PUSH2 0xFCC PUSH1 0x20 DUP6 ADD DUP3 PUSH2 0xF7C JUMP JUMPDEST POP PUSH1 0x40 DUP3 ADD MLOAD PUSH2 0xFDF PUSH1 0x40 DUP6 ADD DUP3 PUSH2 0xF7C JUMP JUMPDEST POP PUSH1 0x60 DUP3 ADD MLOAD PUSH2 0xFF2 PUSH1 0x60 DUP6 ADD DUP3 PUSH2 0xF7C JUMP JUMPDEST POP PUSH1 0x80 DUP3 ADD MLOAD PUSH2 0x1005 PUSH1 0x80 DUP6 ADD DUP3 PUSH2 0xF96 JUMP JUMPDEST POP PUSH1 0xA0 DUP3 ADD MLOAD PUSH2 0x1018 PUSH1 0xA0 DUP6 ADD DUP3 PUSH2 0xF7C JUMP JUMPDEST POP POP POP POP JUMP JUMPDEST PUSH0 PUSH2 0x1029 DUP4 DUP4 PUSH2 0xFA5 JUMP JUMPDEST PUSH1 0xC0 DUP4 ADD SWAP1 POP SWAP3 SWAP2 POP POP JUMP JUMPDEST PUSH0 PUSH1 0x20 DUP3 ADD SWAP1 POP SWAP2 SWAP1 POP JUMP JUMPDEST PUSH0 PUSH2 0x104B DUP3 PUSH2 0xF53 JUMP JUMPDEST PUSH2 0x1055 DUP2 DUP6 PUSH2 0xF5D JUMP JUMPDEST SWAP4 POP PUSH2 0x1060 DUP4 PUSH2 0xF6D JUMP JUMPDEST DUP1 PUSH0 JUMPDEST DUP4 DUP2 LT ISZERO PUSH2 0x1090 JUMPI DUP2 MLOAD PUSH2 0x1077 DUP9 DUP3 PUSH2 0x101E JUMP JUMPDEST SWAP8 POP PUSH2 0x1082 DUP4 PUSH2 0x1035 JUMP JUMPDEST SWAP3 POP POP PUSH1 0x1 DUP2 ADD SWAP1 POP PUSH2 0x1063 JUMP JUMPDEST POP DUP6 SWAP4 POP POP POP POP SWAP3 SWAP2 POP POP JUMP JUMPDEST PUSH0 PUSH1 0x20 DUP3 ADD SWAP1 POP DUP2 DUP2 SUB PUSH0 DUP4 ADD MSTORE PUSH2 0x10B5 DUP2 DUP5 PUSH2 0x1041 JUMP JUMPDEST SWAP1 POP SWAP3 SWAP2 POP POP JUMP JUMPDEST PUSH2 0x10C6 DUP2 PUSH2 0xEED JUMP JUMPDEST DUP3 MSTORE POP POP JUMP JUMPDEST PUSH0 PUSH1 0x20 DUP3 ADD SWAP1 POP PUSH2 0x10DF PUSH0 DUP4 ADD DUP5 PUSH2 0x10BD JUMP JUMPDEST SWAP3 SWAP2 POP POP JUMP JUMPDEST PUSH0 PUSH0 PUSH1 0x40 DUP4 DUP6 SUB SLT ISZERO PUSH2 0x10FB JUMPI PUSH2 0x10FA PUSH2 0xD44 JUMP JUMPDEST JUMPDEST PUSH0 PUSH2 0x1108 DUP6 DUP3 DUP7 ADD PUSH2 0xF14 JUMP JUMPDEST SWAP3 POP POP PUSH1 0x20 PUSH2 0x1119 DUP6 DUP3 DUP7 ADD PUSH2 0xD67 JUMP JUMPDEST SWAP2 POP POP SWAP3 POP SWAP3 SWAP1 POP JUMP JUMPDEST PUSH2 0x112C DUP2 PUSH2 0xF8B JUMP JUMPDEST DUP3 MSTORE POP POP JUMP JUMPDEST PUSH0 PUSH1 0xC0 DUP3 ADD SWAP1 POP PUSH2 0x1145 PUSH0 DUP4 ADD DUP10 PUSH2 0xE07 JUMP JUMPDEST PUSH2 0x1152 PUSH1 0x20 DUP4 ADD DUP9 PUSH2 0xE07 JUMP JUMPDEST PUSH2 0x115F PUSH1 0x40 DUP4 ADD DUP8 PUSH2 0xE07 JUMP JUMPDEST PUSH2 0x116C PUSH1 0x60 DUP4 ADD DUP7 PUSH2 0xE07 JUMP JUMPDEST PUSH2 0x1179 PUSH1 0x80 DUP4 ADD DUP6 PUSH2 0x1123 JUMP JUMPDEST PUSH2 0x1186 PUSH1 0xA0 DUP4 ADD DUP5 PUSH2 0xE07 JUMP JUMPDEST SWAP8 SWAP7 POP POP POP POP POP POP POP JUMP JUMPDEST PUSH32 0x4E487B7100000000000000000000000000000000000000000000000000000000 PUSH0 MSTORE PUSH1 0x11 PUSH1 0x4 MSTORE PUSH1 0x24 PUSH0 REVERT JUMPDEST PUSH0 PUSH2 0x11C8 DUP3 PUSH2 0xD48 JUMP JUMPDEST SWAP2 POP PUSH2 0x11D3 DUP4 PUSH2 0xD48 JUMP JUMPDEST SWAP3 POP DUP3 DUP3 MUL PUSH2 0x11E1 DUP2 PUSH2 0xD48 JUMP JUMPDEST SWAP2 POP DUP3 DUP3 DIV DUP5 EQ DUP4 ISZERO OR PUSH2 0x11F8 JUMPI PUSH2 0x11F7 PUSH2 0x1191 JUMP JUMPDEST JUMPDEST POP SWAP3 SWAP2 POP POP JUMP JUMPDEST PUSH0 DUP3 DUP3 MSTORE PUSH1 0x20 DUP3 ADD SWAP1 POP SWAP3 SWAP2 POP POP JUMP JUMPDEST PUSH32 0x416D6F756E742073686F756C6420626520706F73697469766500000000000000 PUSH0 DUP3 ADD MSTORE POP JUMP JUMPDEST PUSH0 PUSH2 0x1243 PUSH1 0x19 DUP4 PUSH2 0x11FF JUMP JUMPDEST SWAP2 POP PUSH2 0x124E DUP3 PUSH2 0x120F JUMP JUMPDEST PUSH1 0x20 DUP3 ADD SWAP1 POP SWAP2 SWAP1 POP JUMP JUMPDEST PUSH0 PUSH1 0x20 DUP3 ADD SWAP1 POP DUP2 DUP2 SUB PUSH0 DUP4 ADD MSTORE PUSH2 0x1270 DUP2 PUSH2 0x1237 JUMP JUMPDEST SWAP1 POP SWAP2 SWAP1 POP JUMP JUMPDEST PUSH0 DUP2 MLOAD SWAP1 POP PUSH2 0x1285 DUP2 PUSH2 0xD51 JUMP JUMPDEST SWAP3 SWAP2 POP POP JUMP JUMPDEST PUSH0 PUSH1 0x20 DUP3 DUP5 SUB SLT ISZERO PUSH2 0x12A0 JUMPI PUSH2 0x129F PUSH2 0xD44 JUMP JUMPDEST JUMPDEST PUSH0 PUSH2 0x12AD DUP5 DUP3 DUP6 ADD PUSH2 0x1277 JUMP JUMPDEST SWAP2 POP POP SWAP3 SWAP2 POP POP JUMP JUMPDEST PUSH32 0x496E73756666696369656E742062616C616E6365000000000000000000000000 PUSH0 DUP3 ADD MSTORE POP JUMP JUMPDEST PUSH0 PUSH2 0x12EA PUSH1 0x14 DUP4 PUSH2 0x11FF JUMP JUMPDEST SWAP2 POP PUSH2 0x12F5 DUP3 PUSH2 0x12B6 JUMP JUMPDEST PUSH1 0x20 DUP3 ADD SWAP1 POP SWAP2 SWAP1 POP JUMP JUMPDEST PUSH0 PUSH1 0x20 DUP3 ADD SWAP1 POP DUP2 DUP2 SUB PUSH0 DUP4 ADD MSTORE PUSH2 0x1317 DUP2 PUSH2 0x12DE JUMP JUMPDEST SWAP1 POP SWAP2 SWAP1 POP JUMP JUMPDEST PUSH0 PUSH1 0x60 DUP3 ADD SWAP1 POP PUSH2 0x1331 PUSH0 DUP4 ADD DUP7 PUSH2 0x10BD JUMP JUMPDEST PUSH2 0x133E PUSH1 0x20 DUP4 ADD DUP6 PUSH2 0x10BD JUMP JUMPDEST PUSH2 0x134B PUSH1 0x40 DUP4 ADD DUP5 PUSH2 0xE07 JUMP JUMPDEST SWAP5 SWAP4 POP POP POP POP JUMP JUMPDEST PUSH2 0x135C DUP2 PUSH2 0xF8B JUMP JUMPDEST DUP2 EQ PUSH2 0x1366 JUMPI PUSH0 PUSH0 REVERT JUMPDEST POP JUMP JUMPDEST PUSH0 DUP2 MLOAD SWAP1 POP PUSH2 0x1377 DUP2 PUSH2 0x1353 JUMP JUMPDEST SWAP3 SWAP2 POP POP JUMP JUMPDEST PUSH0 PUSH1 0x20 DUP3 DUP5 SUB SLT ISZERO PUSH2 0x1392 JUMPI PUSH2 0x1391 PUSH2 0xD44 JUMP JUMPDEST JUMPDEST PUSH0 PUSH2 0x139F DUP5 DUP3 DUP6 ADD PUSH2 0x1369 JUMP JUMPDEST SWAP2 POP POP SWAP3 SWAP2 POP POP JUMP JUMPDEST PUSH32 0x5374616B696E673A205472616E73666572206661696C65640000000000000000 PUSH0 DUP3 ADD MSTORE POP JUMP JUMPDEST PUSH0 PUSH2 0x13DC PUSH1 0x18 DUP4 PUSH2 0x11FF JUMP JUMPDEST SWAP2 POP PUSH2 0x13E7 DUP3 PUSH2 0x13A8 JUMP JUMPDEST PUSH1 0x20 DUP3 ADD SWAP1 POP SWAP2 SWAP1 POP JUMP JUMPDEST PUSH0 PUSH1 0x20 DUP3 ADD SWAP1 POP DUP2 DUP2 SUB PUSH0 DUP4 ADD MSTORE PUSH2 0x1409 DUP2 PUSH2 0x13D0 JUMP JUMPDEST SWAP1 POP SWAP2 SWAP1 POP JUMP JUMPDEST PUSH0 PUSH2 0x141A DUP3 PUSH2 0xD48 JUMP JUMPDEST SWAP2 POP PUSH2 0x1425 DUP4 PUSH2 0xD48 JUMP JUMPDEST SWAP3 POP DUP3 DUP3 ADD SWAP1 POP DUP1 DUP3 GT ISZERO PUSH2 0x143D JUMPI PUSH2 0x143C PUSH2 0x1191 JUMP JUMPDEST JUMPDEST SWAP3 SWAP2 POP POP JUMP JUMPDEST PUSH0 PUSH2 0x144D DUP3 PUSH2 0xD48 JUMP JUMPDEST SWAP2 POP PUSH32 0xFFFFFFFFFFFFFFFFFFFFFFFFFFFFFFFFFFFFFFFFFFFFFFFFFFFFFFFFFFFFFFFF DUP3 SUB PUSH2 0x147F JUMPI PUSH2 0x147E PUSH2 0x1191 JUMP JUMPDEST JUMPDEST PUSH1 0x1 DUP3 ADD SWAP1 POP SWAP2 SWAP1 POP JUMP JUMPDEST PUSH32 0x4E487B7100000000000000000000000000000000000000000000000000000000 PUSH0 MSTORE PUSH1 0x21 PUSH1 0x4 MSTORE PUSH1 0x24 PUSH0 REVERT JUMPDEST PUSH32 0x4E487B7100000000000000000000000000000000000000000000000000000000 PUSH0 MSTORE PUSH1 0x12 PUSH1 0x4 MSTORE PUSH1 0x24 PUSH0 REVERT JUMPDEST PUSH0 PUSH2 0x14EE DUP3 PUSH2 0xD48 JUMP JUMPDEST SWAP2 POP PUSH2 0x14F9 DUP4 PUSH2 0xD48 JUMP JUMPDEST SWAP3 POP DUP3 PUSH2 0x1509 JUMPI PUSH2 0x1508 PUSH2 0x14B7 JUMP JUMPDEST JUMPDEST DUP3 DUP3 DIV SWAP1 POP SWAP3 SWAP2 POP POP JUMP JUMPDEST PUSH1 0x4 DUP2 LT PUSH2 0x1525 JUMPI PUSH2 0x1524 PUSH2 0x148A JUMP JUMPDEST JUMPDEST POP JUMP JUMPDEST PUSH0 DUP2 SWAP1 POP PUSH2 0x1535 DUP3 PUSH2 0x1514 JUMP JUMPDEST SWAP2 SWAP1 POP JUMP JUMPDEST PUSH0 PUSH2 0x1544 DUP3 PUSH2 0x1528 JUMP JUMPDEST SWAP1 POP SWAP2 SWAP1 POP JUMP JUMPDEST PUSH2 0x1554 DUP2 PUSH2 0x153A JUMP JUMPDEST DUP3 MSTORE POP POP JUMP JUMPDEST PUSH0 PUSH1 0x80 DUP3 ADD SWAP1 POP PUSH2 0x156D PUSH0 DUP4 ADD DUP8 PUSH2 0xE07 JUMP JUMPDEST PUSH2 0x157A PUSH1 0x20 DUP4 ADD DUP7 PUSH2 0x154B JUMP JUMPDEST PUSH2 0x1587 PUSH1 0x40 DUP4 ADD DUP6 PUSH2 0xE07 JUMP JUMPDEST PUSH2 0x1594 PUSH1 0x60 DUP4 ADD DUP5 PUSH2 0xE07 JUMP JUMPDEST SWAP6 SWAP5 POP POP POP POP POP JUMP JUMPDEST PUSH32 0x596F7520617265206E6F7420746865206F776E6572206F662074686973207374 PUSH0 DUP3 ADD MSTORE PUSH32 0x616B650000000000000000000000000000000000000000000000000000000000 PUSH1 0x20 DUP3 ADD MSTORE POP JUMP JUMPDEST PUSH0 PUSH2 0x15F7 PUSH1 0x23 DUP4 PUSH2 0x11FF JUMP JUMPDEST SWAP2 POP PUSH2 0x1602 DUP3 PUSH2 0x159D JUMP JUMPDEST PUSH1 0x40 DUP3 ADD SWAP1 POP SWAP2 SWAP1 POP JUMP JUMPDEST PUSH0 PUSH1 0x20 DUP3 ADD SWAP1 POP DUP2 DUP2 SUB PUSH0 DUP4 ADD MSTORE PUSH2 0x1624 DUP2 PUSH2 0x15EB JUMP JUMPDEST SWAP1 POP SWAP2 SWAP1 POP JUMP JUMPDEST PUSH32 0x5374616B65206973206E6F7420616374697665206F7220616C72656164792077 PUSH0 DUP3 ADD MSTORE PUSH32 0x697468647261776E000000000000000000000000000000000000000000000000 PUSH1 0x20 DUP3 ADD MSTORE POP JUMP JUMPDEST PUSH0 PUSH2 0x1685 PUSH1 0x28 DUP4 PUSH2 0x11FF JUMP JUMPDEST SWAP2 POP PUSH2 0x1690 DUP3 PUSH2 0x162B JUMP JUMPDEST PUSH1 0x40 DUP3 ADD SWAP1 POP SWAP2 SWAP1 POP JUMP JUMPDEST PUSH0 PUSH1 0x20 DUP3 ADD SWAP1 POP DUP2 DUP2 SUB PUSH0 DUP4 ADD MSTORE PUSH2 0x16B2 DUP2 PUSH2 0x1679 JUMP JUMPDEST SWAP1 POP SWAP2 SWAP1 POP JUMP JUMPDEST PUSH32 0x5374616B6520706572696F64206973206E6F7420656E64656400000000000000 PUSH0 DUP3 ADD MSTORE POP JUMP JUMPDEST PUSH0 PUSH2 0x16ED PUSH1 0x19 DUP4 PUSH2 0x11FF JUMP JUMPDEST SWAP2 POP PUSH2 0x16F8 DUP3 PUSH2 0x16B9 JUMP JUMPDEST PUSH1 0x20 DUP3 ADD SWAP1 POP SWAP2 SWAP1 POP JUMP JUMPDEST PUSH0 PUSH1 0x20 DUP3 ADD SWAP1 POP DUP2 DUP2 SUB PUSH0 DUP4 ADD MSTORE PUSH2 0x171A DUP2 PUSH2 0x16E1 JUMP JUMPDEST SWAP1 POP SWAP2 SWAP1 POP JUMP JUMPDEST PUSH0 PUSH1 0x40 DUP3 ADD SWAP1 POP PUSH2 0x1734 PUSH0 DUP4 ADD DUP6 PUSH2 0xE07 JUMP JUMPDEST PUSH2 0x1741 PUSH1 0x20 DUP4 ADD DUP5 PUSH2 0xE07 JUMP JUMPDEST SWAP4 SWAP3 POP POP POP JUMP JUMPDEST PUSH32 0x4E487B7100000000000000000000000000000000000000000000000000000000 PUSH0 MSTORE PUSH1 0x41 PUSH1 0x4 MSTORE PUSH1 0x24 PUSH0 REVERT JUMPDEST PUSH32 0x4E487B7100000000000000000000000000000000000000000000000000000000 PUSH0 MSTORE PUSH1 0x32 PUSH1 0x4 MSTORE PUSH1 0x24 PUSH0 REVERT INVALID LOG2 PUSH5 0x6970667358 0x22 SLT KECCAK256 PUSH22 0x371232A393C6800B7B59F89786FEE6B966F60DBCAE23 0xB8 0xD3 EXTCODESIZE DUP5 MULMOD DUP11 0xF EXTDELEGATECALL 0xE2 PUSH5 0x736F6C6343 STOP ADDMOD 0x1E STOP CALLER "
				},
				"gasEstimates": {
					"creation": {
						"codeDepositCost": "1220800",
						"executionCost": "infinite",
						"totalCost": "infinite"
					},
					"external": {
						"apy(uint8)": "2735",
						"getUserActiveStakes(address)": "infinite",
						"nextStakeId(address)": "2802",
						"stake(uint256,uint8)": "infinite",
						"stakeCount()": "2513",
						"stakeList(uint256)": "infinite",
						"stakeOwnerMapping(uint256)": "2871",
						"stakingToken()": "infinite",
						"userStakes(address,uint256)": "infinite",
						"withdraw(uint256)": "infinite"
					},
					"internal": {
						"_generateStakeId()": "infinite",
						"_getDuration(enum MtkContracts.StakingPeriod)": "infinite"
					}
				},
				"methodIdentifiers": {
					"apy(uint8)": "1f1accb2",
					"getUserActiveStakes(address)": "a262ab35",
					"nextStakeId(address)": "762e54fc",
					"stake(uint256,uint8)": "10087fb1",
					"stakeCount()": "c4a9e116",
					"stakeList(uint256)": "4c86259e",
					"stakeOwnerMapping(uint256)": "a57a5304",
					"stakingToken()": "72f702f3",
					"userStakes(address,uint256)": "b5d5b5fa",
					"withdraw(uint256)": "2e1a7d4d"
				}
			},
			"storageLayout": {
				"storage": [
					{
						"astId": 963,
						"contract": "contracts/MyToken.sol:MtkContracts",
						"label": "stakingToken",
						"offset": 0,
						"slot": "0",
						"type": "t_contract(IERC20)877"
					},
					{
						"astId": 968,
						"contract": "contracts/MyToken.sol:MtkContracts",
						"label": "apy",
						"offset": 0,
						"slot": "1",
						"type": "t_mapping(t_enum(StakingPeriod)960,t_uint256)"
					},
					{
						"astId": 975,
						"contract": "contracts/MyToken.sol:MtkContracts",
						"label": "userStakes",
						"offset": 0,
						"slot": "2",
						"type": "t_mapping(t_address,t_mapping(t_uint256,t_struct(Stake)950_storage))"
					},
					{
						"astId": 979,
						"contract": "contracts/MyToken.sol:MtkContracts",
						"label": "nextStakeId",
						"offset": 0,
						"slot": "3",
						"type": "t_mapping(t_address,t_uint256)"
					},
					{
						"astId": 983,
						"contract": "contracts/MyToken.sol:MtkContracts",
						"label": "stakeOwnerMapping",
						"offset": 0,
						"slot": "4",
						"type": "t_mapping(t_uint256,t_address)"
					},
					{
						"astId": 986,
						"contract": "contracts/MyToken.sol:MtkContracts",
						"label": "stakeList",
						"offset": 0,
						"slot": "5",
						"type": "t_array(t_uint256)dyn_storage"
					},
					{
						"astId": 988,
						"contract": "contracts/MyToken.sol:MtkContracts",
						"label": "stakeCount",
						"offset": 0,
						"slot": "6",
						"type": "t_uint256"
					},
					{
						"astId": 990,
						"contract": "contracts/MyToken.sol:MtkContracts",
						"label": "nonce",
						"offset": 0,
						"slot": "7",
						"type": "t_uint256"
					}
				],
				"types": {
					"t_address": {
						"encoding": "inplace",
						"label": "address",
						"numberOfBytes": "20"
					},
					"t_array(t_uint256)dyn_storage": {
						"base": "t_uint256",
						"encoding": "dynamic_array",
						"label": "uint256[]",
						"numberOfBytes": "32"
					},
					"t_bool": {
						"encoding": "inplace",
						"label": "bool",
						"numberOfBytes": "1"
					},
					"t_contract(IERC20)877": {
						"encoding": "inplace",
						"label": "contract IERC20",
						"numberOfBytes": "20"
					},
					"t_enum(StakingPeriod)960": {
						"encoding": "inplace",
						"label": "enum MtkContracts.StakingPeriod",
						"numberOfBytes": "1"
					},
					"t_mapping(t_address,t_mapping(t_uint256,t_struct(Stake)950_storage))": {
						"encoding": "mapping",
						"key": "t_address",
						"label": "mapping(address => mapping(uint256 => struct MtkContracts.Stake))",
						"numberOfBytes": "32",
						"value": "t_mapping(t_uint256,t_struct(Stake)950_storage)"
					},
					"t_mapping(t_address,t_uint256)": {
						"encoding": "mapping",
						"key": "t_address",
						"label": "mapping(address => uint256)",
						"numberOfBytes": "32",
						"value": "t_uint256"
					},
					"t_mapping(t_enum(StakingPeriod)960,t_uint256)": {
						"encoding": "mapping",
						"key": "t_enum(StakingPeriod)960",
						"label": "mapping(enum MtkContracts.StakingPeriod => uint256)",
						"numberOfBytes": "32",
						"value": "t_uint256"
					},
					"t_mapping(t_uint256,t_address)": {
						"encoding": "mapping",
						"key": "t_uint256",
						"label": "mapping(uint256 => address)",
						"numberOfBytes": "32",
						"value": "t_address"
					},
					"t_mapping(t_uint256,t_struct(Stake)950_storage)": {
						"encoding": "mapping",
						"key": "t_uint256",
						"label": "mapping(uint256 => struct MtkContracts.Stake)",
						"numberOfBytes": "32",
						"value": "t_struct(Stake)950_storage"
					},
					"t_struct(Stake)950_storage": {
						"encoding": "inplace",
						"label": "struct MtkContracts.Stake",
						"members": [
							{
								"astId": 939,
								"contract": "contracts/MyToken.sol:MtkContracts",
								"label": "amount",
								"offset": 0,
								"slot": "0",
								"type": "t_uint256"
							},
							{
								"astId": 941,
								"contract": "contracts/MyToken.sol:MtkContracts",
								"label": "startTime",
								"offset": 0,
								"slot": "1",
								"type": "t_uint256"
							},
							{
								"astId": 943,
								"contract": "contracts/MyToken.sol:MtkContracts",
								"label": "endTime",
								"offset": 0,
								"slot": "2",
								"type": "t_uint256"
							},
							{
								"astId": 945,
								"contract": "contracts/MyToken.sol:MtkContracts",
								"label": "rewardRate",
								"offset": 0,
								"slot": "3",
								"type": "t_uint256"
							},
							{
								"astId": 947,
								"contract": "contracts/MyToken.sol:MtkContracts",
								"label": "isActive",
								"offset": 0,
								"slot": "4",
								"type": "t_bool"
							},
							{
								"astId": 949,
								"contract": "contracts/MyToken.sol:MtkContracts",
								"label": "stakeIndex",
								"offset": 0,
								"slot": "5",
								"type": "t_uint256"
							}
						],
						"numberOfBytes": "192"
					},
					"t_uint256": {
						"encoding": "inplace",
						"label": "uint256",
						"numberOfBytes": "32"
					}
				}
			},
			"userdoc": {
				"kind": "user",
				"methods": {},
				"version": 1
			}
		}
	}
}